:020000041000EA
:1000000000B5324B212058609868022188439860DF
:10001000D860186158612E4B002199600221596106
:100020000121F02299502B49196001219960352056
:1000300000F044F80222904214D00621196600F024
:1000400034F8196E01211966002018661A6600F04E
:100050002CF8196E196E196E052000F02FF8012189
:100060000842F9D1002199601B49196000215960AB
:100070001A491B48016001219960EB211966A021F2
:10008000196600F012F800219960164914480160C1
:100090000121996001BC002800D000471248134993
:1000A000086003C880F30888084703B5996A0420EC
:1000B0000142FBD001200142F8D103BD02B5186610
:1000C0001866FFF7F2FF186E186E02BD00000240BE
:1000D000000000180000070000035F00212200005C
:1000E000F4000018222000A00001001008ED00E03C
:1000F00000000000000000000000000074B24E7A12
:1001000000200420F7010010CB010010CD010010E9
:10011000C9010010C9010010C9010010C901001077
:10012000C9010010C9010010C9010010CF01001061
:10013000C9010010C9010010D1010010D301001045
:10014000C1010010C1010010C1010010C101001067
:10015000C1010010C1010010C1010010C101001057
:10016000C1010010C1010010C1010010C101001047
:10017000C1010010C1010010C1010010C101001037
:10018000C1010010C1010010C1010010C101001027
:10019000C1010010C1010010C1010010C101001017
:1001A000C1010010C1010010C1010010C101001007
:1001B000C1010010C1010010C1010010C1010010F7
:1001C000EFF30580103800BE00BE00BE00BE00BECA
:1001D00000BE00BEF2EB887190020010B402001065
:1001E0003802001090A31AE721482249086006C887
:1001F00081F30888104720480068002801D01C4877
:10020000F3E70DA40ECC002902D000F012F8F9E7B4
:100210001A491B4A002000E001C19142FCD1194952
:100220008847194988471949884700BEFDE701C931
:1002300001C29A42FBD37047B4020010C0000020F4
:1002400044AA002038AC001050AA002098DD0020FD
:1002500080DF0010000004200000042080DF001078
:10026000001004200010042000000000704700006F
:100270000000000008ED00E0000000D098DD002044
:100280007CF30020D55C002015380020CD5C0020D8
:1002900080D400208CD4002098D40020A4D4002046
:1002A000B0D40020BCD40020C8D4002004D6002044
:0402B000F8D500205D
:1002B400F8B5C04606480749091A8B10C90FC91872
:1002C40010B5491003D0044B002B00D0984710BD43
:1002D40098DD002098DD002000000000054B10B5DB
:1002E400002B03D00449054800E000BFFFF7E2FFFC
:1002F40010BDC0460000000038F3002044AA0020CE
:10030400A423082130B5FF24134A1448D1501449BA
:1003140002680B680D689B1AA343521BD218026033
:10032400104A1B02944612680F4853401B0C0F4D91
:100334001B0403602A684B6849689B1AA343521A3A
:10034400D2182A6062461B0212681B0C53401B041D
:100354001B0C036030BDC04600000540E0E50020F2
:1003640014D600204800054048100540E4E500206C
:10037400F0B5502387B017256A460405240F1C43A3
:100384006D44AF3393750F00287005F035F80023E2
:10039400194A80185941002902DA012017494042BC
:1003A40000230290039100932A0021001448013392
:1003B40006F006FA00281ADD05F01EF800230E4A9E
:1003C40080185941002902DA01200C4940420023D7
:1003D40016220290039100932100094801336A44D4
:1003E40006F00EFA002802DD6B46987D02E0012338
:1003F40000203B7007B0F0BD10270000FFFFFF7F17
:10040400E0D60020F0B5DE4657464E464546E0B5F8
:10041400642095B004F0C6FEF023D04FFB5C0C2B97
:1004240000D099E1D0231B065A68802310005B0397
:1004340018401A4200D1B3E0012404AB9B460123C7
:100444005A4659460020138006F098FB002C00D130
:10045400ACE001200021404206F004FC40235A464F
:100464000021002007F04CF90028F2D05E463378D2
:100474005A465844F02B1DD09C229200B95804329D
:10048400BD5CB74ABC5C002D00D15EE100220025B2
:1004940094460092F72B2BD00B2900D891E001361B
:1004A400B04200D1C8E00122337801240092F02B3D
:1004B400F0D13200561CB0426BD05378F02B00D1EF
:1004C4008AE0F72B00D1CAE0012201210092002228
:1004D400A44D8C460136511CBA1800245355B04221
:1004E40077D0337801253200F02BE3D0F72BD3D12A
:1004F400002C00D1C0E0721C904200D1B8E07378A7
:10050400F02B00D19BE00126A1468A460296039572
:10051400F72B35D859B200296DDB94218900795C19
:100524000F240E000D00A64310340196A543802D20
:1005340001D0E02E24D18C4C3E5D751CEDB2A84652
:100544003D558A4DBE1973554346012B18D90023D6
:100554003B55874BFC5C0F230B40A34210D1019BFE
:10056400795D902B00D1D9E0802B00D1DAE0814B6A
:10057400FB5CDB010B4380495B18972189007B50AE
:100584000132904240D01378F02BC1D1561CB042B6
:1005940093D10023724ABB54053ABB50013347E060
:1005A400022304AA1100138008F0F0FB01200021AB
:1005B400404208F0A3FE01200021404208F09EFEC4
:1005C400F4E70A00674D511C0136BA185355B0427E
:1005D40087D1012301251DE0961CB04200D1E6E03D
:1005E4009378F02B00D164E7012200219446012581
:1005F400002400924EE7942189007B5400215A4B39
:100604000132F9549042BED1029B4C469C4651465D
:100614000023039D009A002A01D0514ABC54002DA6
:1006240002D09C229200B9506246002A00D110E701
:100634009D229200BB540CE701230124EDE702360E
:10064400B04200D1B3E001223378944600920024F2
:10065400012500213200F02B00D01BE72AE70123FB
:10066400721C0021012500240093904200D046E72B
:10067400012200239446CDE70B2900D03BE7394BF8
:10068400FB5C7D2B00D036E7992292003B4BBA5895
:100694009A4200D02FE79A239B00FB5C033B012B7B
:1006A40000D928E79B23FE229B00FB5C9201DB011F
:1006B4001340334A9846BA5C94467F2263461A40F4
:1006C40043461343802298465201934201DB2D4B4B
:1006D40098460F232C4ABA5C13409C46FE232B4AAF
:1006E4009B01BA5CD2011A40294B0192FB5C9A46E9
:1006F4007F231A0053461340019A1A4380235B0157
:100704009A4200DB1F4A83239B00FA50842243460B
:100714009200BB506246164BFA54ECE6154BFB5C58
:10072400002B3BD11B4BFB5C8B4200D028E7D8232A
:10073400FF33FB5C002B40D0EB235B00FB5C002B06
:100744003BD00121144BF9541AE75A46A1468A4674
:10075400009502950395DBE602246EE6C0DF0020D7
:100764007502000063020000530200005102000001
:10077400620200005202000000E0FFFF43315A33DE
:100784006B020000FF0F00006D0200006A0200000F
:100794006902000057020000610200009524A400D1
:1007A400395508497B540121074BF954E8E60123E4
:1007B40000249C461D0021002FE7982300219B0064
:1007C400F954DDE6550200005602000010B5024B54
:1007D40018680AF021FB10BDB8E5002070B5D025DB
:1007E40001220021072003F0EBFD01220021062055
:1007F40003F0E6FD0122002105202D0603F0E0FDB3
:100804000120002104F058FC6A686C686B68640677
:100814009B06E40FDB0F1B01A4001C431306DB0F34
:100824000022012107201C4303F0CAFD00220121FC
:10083400062003F0C5FD00220121052003F0C0FDC0
:100844000120002104F038FC69686A6809066B68B5
:10085400C90F52064900D20F9B060C43D200DB0F8E
:100864005B0100210720144301221C4303F0A8FD6F
:1008740001220021062003F0A3FD64B2012200211D
:10088400052003F09DFD2A2C05D0302C03D0FF2039
:100894000C2C00D070BDE0B2FCE7C046F0B54E466B
:1008A400DE4657464546E0B5431824331B7885B0E9
:1008B400994601900291002B00D129E280468B00D9
:1008C40003935B181B01984444462C20205605F0E2
:1008D400A5F9DB4905F06BF94546041CA86A05F047
:1008E4009DF9211C051C201C05F061F9211C061C26
:1008F400281C05F05CF94A46071C012A00D1A1E135
:1009040042463420105605F089F9CD4905F04FF9D7
:1009140042468246106B05F081F951468346201CFD
:1009240005F02EF95946041C281C05F029F95146F6
:10093400051C504605F03BF9011C301C05F020F95C
:100944005146061C584605F032F9011C381C05F0C6
:1009540017F94A46071C022A00D173E142463C209B
:10096400105605F05BF9B64905F021F94246824676
:10097400906B05F053F951468346201C05F000F9AD
:100984005946041C281C05F0FBF85146051C50462A
:1009940005F00DF9011C301C05F0F2F85146061C57
:1009A400584605F004F9011C381C05F0E9F84A46DC
:1009B400071C032A00D145E142464420105605F0A5
:1009C4002DF99F4905F0F3F842468246106C05F074
:1009D40025F951468346201C05F0D2F85946041CDB
:1009E400281C05F0CDF85146051C504605F0DFF8EB
:1009F400011C301C05F0C4F85946061C504605F08D
:100A0400D6F8011C381C05F0BBF84A46071C042A1A
:100A140000D117E142464C20105605F0FFF88849F2
:100A240005F0C5F842468246906C05F0F7F8514649
:100A34008346201C05F0A4F85946041C281C05F024
:100A44009FF85146051C504605F0B1F8011C301CB6
:100A540005F096F85946061C504605F0A8F8011C06
:100A6400381C05F08DF84A46071C052A00D1E9E038
:100A740054234246D05605F0D1F8714905F097F851
:100A840042468246106D05F0C9F851468346201C43
:100A940005F076F85946041C281C05F071F85146F7
:100AA400051C504605F083F8011C301C05F068F85D
:100AB4005946061C504605F07AF8011C381C05F00E
:100AC4005FF84A46071C062A00D1BBE042465C2078
:100AD400105605F0A3F85A4905F069F842468246D3
:100AE400906D05F09BF851468346201C05F048F8AC
:100AF4005946041C281C05F043F85146051C504671
:100B040005F055F8011C301C05F03AF85946061C4E
:100B1400504605F04CF8011C381C05F031F84A46E3
:100B2400071C072A00D18DE042466420105605F0C8
:100B340075F8434905F03BF842468246106E05F0CD
:100B44006DF851468346201C05F01AF85946041CDA
:100B5400281C05F015F85146051C504605F027F8E9
:100B6400011C301C05F00CF85946061C504605F0D3
:100B74001EF8011C381C05F003F84A46071C082A15
:100B840060D042466C20105605F048F82C4905F018
:100B94000EF842468246906E05F040F85146804673
:100BA400201C04F0EDFF4146041C281C04F0E8FF5F
:100BB4005146051C504604F0FAFF011C301C04F099
:100BC400DFFF4146061C504604F0F1FF011C381CAF
:100BD40004F0D6FF4A46071C092A33D0019A02982A
:100BE4009046039B1B181B019844434674201856D7
:100BF40005F014F8124904F0DAFF43468246186FF0
:100C040005F00CF851468046201C04F0B9FF41461B
:100C1400041C281C04F0B4FF5146051C504604F083
:100C2400C6FF011C301C04F0ABFF4146061C5046B5
:100C340004F0BDFF011C381C04F0A2FF071C01E0F6
:100C4400CDCCCC3D484604F0E9FF311C804604F08D
:100C5400AEFF211C061C201C04F0A9FF011C301C43
:100C640004F08BFF0021061C04F0D0FF002841D1C2
:100C7400391C404604F09BFF211C071C281C04F06F
:100C840096FF011C381C04F078FF311C04F07BFF34
:100C9400211C061C04F08BFF011C281C04F06DFFB2
:100CA400414604F070FF1C49041C301C04F07FFF13
:100CB400FC21890504F064FF04F0D2FFFC21814685
:100CC4008905201C04F05CFF04F0CAFF029B019A12
:100CD4001B01D3181A00C832166054604946D0224A
:100CE40099500432985005B0F0BCBB46B246A946B0
:100CF400A046F0BD4146281C04F045FFFC218905AF
:100D0400041C04F03DFF04F0ABFF00239946DDE72B
:100D140000200026014CD9E7ABAAAA3F0000C07FFF
:100D2400F0B5454657464E46DE460300E0B524334B
:100D3400A1B002000593032328321400002598462D
:100D4400EC27CA4E069007924246059B29005A5545
:100D540000232373C64B2771A36014232375C54B4B
:100D6400266023610698FFF799FD6B1C503401251A
:100D7400022BE9D1133304AA99180020FFF7F8FADB
:100D8400152304AA991804020120FFF7F1FABA4BBB
:100D940004439C4200D060E1162304AA9B189A469F
:100DA40017239B189846B54B00249B46FF23002726
:100DB4009946B34E0AAD1BE004F01EFB801979413D
:100DC400002902DA0120AF49404200230290039136
:100DD4000093524650215846013305F011FD002876
:100DE40020DD53461B7801342B700135582C1FD05D
:100DF40053464A461A7043461C7004F0FDFA8019A3
:100E04007941002902DA01209E49404200230290E0
:100E140003910093424650215846013305F0D0FC1B
:100E24000028C9DC002301342B700135582CDFD194
:100E34000AA8954B954956300AAA20E05B001CB2DB
:100E4400002C27DB5C0023B2002B28DB640023B2D8
:100E5400002B29DB640023B2002B2ADB640023B2BD
:100E6400002B2BDB640023B2002B2CDB640023B2A9
:100E7400002B2DDB630001329BB290422ED01478FC
:100E8400240263401CB2002CD8DA64004C4024B223
:100E9400231ED7DA64004C4023B21C1ED6DA5B0052
:100EA4004B401BB21C1ED5DA5B004B401BB21C1E10
:100EB400D4DA5B004B401BB21C1ED3DA5B004B4000
:100EC4001BB21C1ED2DA5B004B401BB21C1ED1DAD3
:100ED4005B004B4001329BB29042D0D1562204A910
:100EE40018318A5A52BA92B29A4200D0B5E000261A
:100EF4002427079DB0460BAC13AE41462378059AD0
:100F04005354002B00D199E0A278E1781206090429
:100F14000A4361790A43217909020A4361782A6004
:100F24002971012B00D189E0E279217A12060904A2
:100F34000A43A17A0A43617A09020A43A179AA60A1
:100F44002973022B7AD0227B617B120609040A439F
:100F5400E17B0A43A17B09020A43E17A2A612975EC
:100F6400032B6BD0627CA17C120609040A43217D09
:100F74000A43E17C09020A43217CAA612977042BF4
:100F84005CD0A27DE17D120609040A43617E0A4316
:100F9400217E09020A43617DE9552A62052B4DD061
:100FA400E27E217F120609040A43A17FA07E0A4340
:100FB400617F09020A432C216854AA62062B3DD0A2
:100FC40032787178120609040A43F178E07F0A4303
:100FD400B17809020A43342168542A63072B2DD0BF
:100FE4007279B179120609040A43317A30790A43D5
:100FF400F17909020A433C216854AA63082B1DD0E5
:10100400B27AF17A120609040A43717B707A0A43B0
:10101400317B09020A43442168542A64092B0DD008
:10102400F37B327C1B0612041343B27CB17B134363
:10103400727C120213434C22A954AB6441460698B5
:10104400FFF72CFC434601222934904650352936BB
:10105400012B00D051E7002000E0012021B0F0BCBA
:10106400BB46B246A946A046F0BDC046344E050074
:1010740050FC030040A90200D1070000E0D6002084
:1010840010270000FFFFFF7FFFFF0000211000007A
:10109400F8B5CE464746002580B50700EE4B102232
:1010A400036000210561C560856045600562C56116
:1010B40085614561F83004F0B9FE842338005B0093
:1010C400FD520D30023308220021FD52FF3004F09E
:1010D400ADFE80238A221B015200BB520232BB5256
:1010E40038008C2300245B001D30FC540021FE3AA0
:1010F400FF3004F09BFE3800353006220021FF301B
:1011040004F094FEB5235B00FC543E230822FF3315
:10111400FC54D24B01261A60E022D14BD2011B6849
:101124001340D04A13609D235B00FC54063BFC54DF
:101134003623FF33FC540133FC543823FF33FC546F
:101144000133FC543A23FF33FC54C74BC74C984635
:10115400237804219946180003F01AF94B46042118
:10116400581C03F015F94B464A465B081F2A00D960
:10117400AAE107221A4093009B18BD49BD4A9B006F
:101184009A18591815600D60BB4959180D60BB4970
:101194005B184146196010235360166023780133AD
:1011A40059081F2B00DD8BE107220A4093009B188E
:1011B400AF49B04A9B009A18591815600D60AE49A2
:1011C40059180D60AD495B184146196010235360EE
:1011D400166023785A081F2B00D938E107211140E3
:1011E4008A005218A44992005118096840468C4656
:1011F400310019404942414060460140A048013352
:10120400121811605A081F2B00DD1CE10721114040
:1012140040468A0052189849920051183340096890
:101224005B4243400B409649023452181360954B7D
:101234009C428DD105F02EF81F211B2003F0A8F845
:10124400002200211B2003F0BBF800211B2003F027
:10125400C9F81F211A2003F09BF8002200211A204C
:1012640003F0AEF800211A2003F0BCF81F211C2063
:1012740003F08EF8002200211C2003F0A1F80021C5
:101284001C2003F0AFF81F211D2003F081F8002279
:1012940000211D2003F094F800211D2003F0A2F882
:1012A400182003F0B1F8192003F0AEF8D0248023FD
:1012B40024065B04636280239B046362082003F0BA
:1012C400A3F880235B0063620920636103F09CF848
:1012D40080239B0063620220636103F095F804237A
:1012E4000022A3620121022003F06AF8032003F024
:1012F4008BF80823644DA36200220121032003F02C
:101304005FF82800614905F021F802229046414621
:101314006B68122013405E4A11600F222968102561
:101324005140C0320A405B490A605B4A01211360A4
:1013340003F02EF80121132003F02AF801211520CF
:1013440003F026F80421172003F022F804211620C4
:1013540003F01EF80022474B5049DA635A649A643A
:10136400D9641D64DE63DA635A649A64D9641D64C3
:10137400DE63FA234A499B040A68072053401B0C86
:10138400484A1B041360FA2309689B004B401B0462
:101394001B0C136003F038F8062003F035F8052021
:1013A40003F032F88023A362403BA362203BA36294
:1013B400142003F029F800220021142003F000F87F
:1013C400042003F021F865623749A561374805F028
:1013D400CFF90321102002F0DBFF0321112002F0DA
:1013E400D7FF002003F010F86662012003F00CF828
:1013F400434638006362FFF7F1F9F023F8543800EC
:10140400FFF78EFC9F23464001205B003040F854D8
:10141400563B9846B844404604F0A4FE142643467E
:10142400234C244D03CB244A244B04F089FB013E76
:1014340000196941002EF6D1434603C33800C0BCED
:10144400B946B046F8BD032111400831E0E6032156
:1014540011400831C4E6C0466CC5002000F00440C9
:1014640000C0044000D00440FFFF000030CA002048
:1014740008000540000005400C0005401000054030
:101484000C10054036CA002000C00340286BEE0053
:1014940004F0034000D0034004E00340CF07000001
:1014A4004800054048100540A0860100E0D6002011
:1014B4004F8167F77E7B05142D7F954C2DF4515891
:1014C40003220A40083271E603221A40083252E627
:1014D400F0B54546DE4657464E461C00D823E0B5D7
:1014E4008BB00291FF33C35C050090460393002B3D
:1014F40074D0EB235B00C25C002A6FD0039B013BDA
:10150400DBB2072B00D903E1CC499B005B589A4618
:10151400EA235B00EE5CD623FF33EB5C9946072E8F
:1015240001D900F098FCF30053445F68002F00D108
:1015340023E1DE2149006A5801326A501988E62302
:101544005B00EB580591C81A50433900049301928B
:1015540004F040FA049B019AC018E2235B00E850AF
:10156400974200D8EFE04B46072B01D900F0D7FD96
:101574005346002240334946C9005B185968002984
:1015840000D10131E0277F00E8590130E8511B8880
:10159400814201D800F065FCE8225200AF58DB1B01
:1015A400584304F017FAE422C3195200AB50E22264
:1015B4005200A85880225201904201DA00F0E9FB5F
:1015C400984480239E4A5B010492984510DA43466E
:1015D400DB434246DB171A4090460BE0E42300222B
:1015E4005B00EB580492984480235B019845EEDB42
:1015F400934B9846B62302995B008946EA584746BE
:1016040091444A46EA50159B002B4DDC7F433B0B2B
:1016140006934B469B0D5A0001338A4F9B055B0D85
:10162400BA5EF95E4B469B02891A9B0D4B43E1005F
:101634009B129B18091B9A460B0B0905090D9B4627
:101644000B004B431B0B5A00D2184B431B0B5B0084
:10165400D31A01934B461E0D7B4B9C46B444634600
:1016640005934B46002B4CDB774B7F2E00D88DE344
:101674005246D21094464A465400A20D51000132FB
:101684009205520D795EBA5E0794A402521AA40D13
:1016940054435A46A4126418062A01D900F070FC77
:1016A4006A4992008A589746D82280215200AB5842
:1016B40089000133AB508B422DD2DA235B00EF5803
:1016C4000433EE588022159B5201934200DB5C4B9D
:1016D4005B431B0B9800C0184000C018142104F091
:1016E40079F980234743BF1247445B019F4204DBDF
:1016F400534F80117043814488E7FB43DB171F403D
:10170400F7E7059B7F2B01D800F02BFD504BAFE78B
:10171400504B9A46FCE60023D6214F48AB508446F2
:10172400DA2049006A584D4B40005A4362445343FF
:10173400170E6344803F2F501E0E6B50DC23803EF7
:101744005B00EE50BEE7EA2205995200E950731C93
:10175400DE20DBB2AB54002240002A50CD32FF32EF
:10176400A9504A46072A01D900F0DEFC083B5A4238
:101774005341DAB253464033FDE60137D9E601223C
:10178400059C0892019A1B1B53435246D4461B13D3
:1017940006991B199B1A4B431B139C4481239B00E2
:1017A400EA58029813005343DB1243431B13E246E7
:1017B400C118002A00DAC11AB8235B00EE588E194A
:1017C400EE50159B002B00DDE9E243465B431B0B07
:1017D4000593B30D5A0001339B055B0DBA5EF95EA8
:1017E400B302891A9B0D4B439B129B180293330D32
:1017F4009946154B4B440693002E00DA03E34B46FF
:1018040011497F2B00D852E3029BDB1098467000ED
:10181400830D5A0001339B055B0DBA5EFB5E8402A7
:101824009B1AA40D5C435B46A4120790A418062BD4
:1018340000D953E30A4A9B00D3589F4644C500206D
:10184400FF0F000038CA002000F8FFFFB8C40020D2
:10185400FF070000B0C500205FF36E3C0D66190061
:10186400D4C400204B46BA4AD21A079B9B195B008A
:10187400980D410001308005400D795E385E9B0271
:10188400401A9B0D43439B125B1853431B1398460A
:101894000699B04B4A4352139044984500DA98464F
:1018A40080231B01984501DBAB4B98464B467F2BAD
:1018B40001D800F0DEFB80231B01994501D200F022
:1018C400D8FB4A46A24B51009B1AA44A5B00521A09
:1018D400B400A419A00D410001308005400D795ECB
:1018E400385EA402401AA40D4443A41264185C4355
:1018F400534324139B13E418964B9C4200DA1C00B8
:1019040080231B019C4200DB934C4346019AE31A5B
:101914005343029A1B13059943449B1A4B431B13CD
:101924009B1882221C0080219200AA58090154436A
:1019340024138A4200DA0A00534352461B135343CA
:10194400844A9B12934200DA1300802212019342CC
:1019540000DB814B5146149A14981201121A120298
:101964005B1A121353431B135E18039B002B00D105
:1019740052E2BA225200AB58002B00D14AE2013B9A
:101984001803AB50C01A602104F04CF8704B181ABD
:10199400049B704A58430013444370430313934217
:1019A40000DA130080221201934200DB6A4BF22218
:1019B400AB52684B24139C4200DA1C0080231B01A9
:1019C4009C4200DB644CF423EC520BB0F0BCBB46ED
:1019D400B246A946A046F0BD0322230008926446FD
:1019E400D0E6802372001B019E4200D347E3594B8B
:1019F400D31807934B469B004B449C0D6000013465
:101A0400A405640D385E3C5F241AA4469C02634618
:101A1400A40D5C43079BA412241854435A43241373
:101A240092134C4BA4189C4200DA1C0080231B0127
:101A34009C4200DB484C4B464A46DB009A1A910D07
:101A440048000892385E07918446980D4200BA5EB9
:101A5400013091468005400D385E4A4607999B0245
:101A6400013189059B0D801A490D5843795E6346FF
:101A7400C91A089B80129B029B0D4B4348449B123E
:101A840063444010C018431099467F2E00D8BBE22F
:101A9400059B7F2B00D829E3C0239B009E4200D2E4
:101AA400B2E2C0231B019E4200D21FE32C4B300341
:101AB400301A2C49C01803F08DFF0211ABE27F2EBF
:101AC40000D83AE3059A1C007F2A00D857E353460E
:101AD4000222DB10089255E6902109018E4200D2C1
:101AE400AAE2042308931B4B4CE6902109018E4281
:101AF40000D342E33003801B03F06CFF144B164CFD
:101B0400181A40430013241A079A114B4A445200EE
:101B1400900D410001308005400D9B1B795E385EBD
:101B24009202401A920D42439212521805995A4356
:101B34004B4312135B13D318064A934200DA130083
:101B440080221201934200DB034B0522089219E61E
:101B5400FF0F000000F8FFFFFF070000FF17000061
:101B640001E0FF00FF030000079BD2484B445B00E9
:101B7400990D4A0001318905490DBA5E795E9B02CF
:101B8400891A9B0D4B43059C9B12801B9B18434356
:101B940044431B1364131C19C74B9C4200DA1C00FA
:101BA40080231B019C4200DBC44C802372001B0178
:101BB4009E4200D257E2C2498B1A9C4642004B46D1
:101BC4009B004B449E0D70000136B605760D385EC1
:101BD400BE5F61469B02361A9B0D73439B121B1812
:101BE40053434A431B1392139B18B34A934200DA9C
:101BF400130080221201934200DBB04B06220892AC
:101C0400C0E54B467F2B00D8A7E2069B7F2B00D86C
:101C1400C7E2029B8846DC1077E64B467F2B00D850
:101C240091E2069B7F2B00D8AEE2089B062B00D9DD
:101C3400BBE2A44A9B00D3589F464B465A008023DC
:101C44001B01994500D32AE29B4B9C469444B30064
:101C54009B199C0D60000134A405640D385E3C5F43
:101C64009B02241A9B0D63439B121B18534361462A
:101C74001B1398464A43904B92139044984500DABC
:101C8400984680231B01984501DB8C4B9846F30052
:101C94009E1BB20D94465100785E990D4C000131A3
:101CA4008905490D3C5F795E624601329B029205CB
:101CB4009B0D091B520D5943BA5EB302121A9B0DB8
:101CC4005343891209199B121B184910CE184B460D
:101CD40076107F2B00D843E1C0239B00994500D2A6
:101CE4003EE1C0231B01994500D2FCE14B46180399
:101CF400181A754B7549C01803F06CFE041137E1CE
:101D040090210901894500D334E24B461803C01AD7
:101D140003F060FE674B181A4043684B00131B1A0C
:101D240098464A46634B9B1A079A94196400A10D7E
:101D34004A0001318905490DBA5E795EA402891A07
:101D4400A40D4C43A412A418069A5C4353432413D1
:101D54005B13E418584B9C4200DBD1E5CFE54B46BE
:101D64007F2B04D990231B01994500D3FEE14B46F8
:101D740090211803C01A090103F02CFE4D4BA04614
:101D8400181A40434D4C0013241ABEE54B4A94469E
:101D940071E4C243D21710400490FFF724FCD82208
:101DA40080215200AB5889000133AB508B4236D2AC
:101DB400DA235B00EB589946DC235B00EC58802364
:101DC40015985B01984200DB3A484043000B8300BE
:101DD4001B185B001818142103F0FCFD4B46434309
:101DE4009B12984480235B01984505DB314B984650
:101DF400801144433619E8E44346DB434246DB178B
:101E04001A409046F4E72D497F2B00D9FCE42A4B75
:101E14009846FCE42748BBE5264B0493A9E5002338
:101E24008020AB50D6222A4940428C46814652003B
:101E3400AB58284C63436344190E8944DA2148465D
:101E44005C43DC23644449006850AC50240E803C5D
:101E54005B00EC50B3E7072B19D853464033FFF728
:101E64008AFBE42149006B504946D6200131FF30FA
:101E7400C9B229540020E851D130FF302B50002A38
:101E840001D1FFF794FB082901D0FFF790FBEB2267
:101E940000235200AB54104AAA5C002A00D006E189
:101EA400C533FF33E8580433EB58FFF783FB034B88
:101EB4009846ACE4FF0F000000F8FFFFFF070000A6
:101EC400FF170000F0C4002001E0FF00FF03000042
:101ED4005FF36E3C0D66190061020000C0218900A9
:101EE400894500D3D2E04B461803C01A03F072FDB3
:101EF400834603110693F3009E1BB20D5100795ED5
:101F040001328C46990D4C0001318905490D3C5F25
:101F1400795E9B029205091B9B0D520D4B43BA5EE1
:101F240061465846B602521AB60D56439B121B1907
:101F3400B6125B1066449E197610704300138046F7
:101F4400069B9844D04B984500DA984680231B01A1
:101F5400984501DBCD4B98464B467F2B00D9BBE619
:101F64004B46C0211803C01A890003F033FD041145
:101F74007043C54B001304199C4200DBC0E4BEE46B
:101F8400C02189008E4265D23003801B03F022FDFC
:101F94000311089009934B464A46DB009A1A910DA7
:101FA400480007923C5E980D89464200BA5E0130B3
:101FB400944649468005400D385E624601318905E4
:101FC400490D801A795E079A9B029B0D9202091BA8
:101FD4004343920D4A439B126344921212195B10BD
:101FE400089C9B185B105C439946099B2413E418D6
:101FF400A54B9C4200DA1C0080231B019C4200DBA1
:10200400A24C7F2E00D943E5C0213003801B8900F8
:1020140003F0E0FC02114B46584303139B189A4A01
:10202400934200DA130080221201934200DB974BA3
:1020340007220892FFF7A6FB3003801B03F0CAFCBB
:102044000422934B0892181A4043904B00131B1A16
:10205400FFF798FBC0231B019E4239D2FF2309934B
:102064008B4B089397E7884B9C469444A7E5069BC3
:1020740098464B46844A5B009A18FFF729FC844B28
:1020840084499B1B8A1A07925A00B3E4C0231B019C
:10209400994516D2FF2306937D4B9B462BE7494671
:1020A4007B4B5B1A7B498A1A94465A00CFE59822E7
:1020B4009200AB54E2235B00E8580433EB58FFF77B
:1020C40079FA4B461803181A734B7449C0180DE774
:1020D400714B3003301AC018704903F07BFC0311B4
:1020E4000890099357E7FF24694841E7FF226848AD
:1020F40091E7664C069B9846FFF707FC069B0C008D
:102104009846FFF702FC069B98460AE6069C29E6D9
:10211400069B9846FFF7CFFB029BDC10EAE7E4231B
:102124005B00EB58FFF746FA082B00D1AFE6E42337
:102134005B000800EB58FFF73DFA1C0002230893EC
:10214400524BFFF71FFB089B062B00D979E0544A3A
:102154009B00D3589F46069C09E688464B4CFFF7E4
:10216400D4FB494A494B9446FFF785FAA046464CAE
:10217400FFF7CBFB444B9846D3E5434CC4E402231E
:102184000893414BFFF7FEFA089B062B32D8454AC9
:102194009B00D3589F46069B9846FFF792FB3A4C08
:1021A400A8E78846384CFFF7B0FB07227243910D2D
:1021B4004B00FB5E9C46F300980D44000130800503
:1021C400400D3C5F385E9B02001B9B0D43439E12F7
:1021D4004B1C9B055B0DF95E6346C91A93029B0D6C
:1021E4004B4336199B1263447610F618069B7610FF
:1021F400984671E507227243910D4B00FB5E9C46A5
:10220400F300980D440001308005400D3C5F385EBA
:102214009B02001B9B0D43439E124B1C9B055B0DB5
:10222400F95E6346C91A93029B0D4B4336199B1200
:1022340063447610F618069BFF24984614487610DB
:1022440096E607227243910D4B00FB5E01319C46DA
:10225400F300980D4400013040003C5F385E9B025F
:10226400001B9B0D434349009E12795E6346C91AC5
:1022740093029B0D4B4336199B1263447610F61858
:10228400069B761098466BE600F8FFFFFF070000F8
:10229400FF0F0000FF17000001E0FF00FF03000034
:1022A4000CC5002028C50020F0B54746CE4680B5B1
:1022B400404BC9B00093404B6C46019381239B0073
:1022C400C35869460293984682239B00C758043337
:1022D400C6580433C558D823039704960595FF338D
:1022E400C35C364A9C462376002307A8637663833F
:1022F40007930B7801315A4013049B185B009B1819
:10230400DB009B18DB009B185B009A188842F0D115
:102314002B49E261274B0A689A421ED0E022FF2132
:1023240010A803F083FD2022210008A803F084FDF7
:10233400EFF3108472B680212248490109F096F91E
:1023440080222048520008A909F0D8F984F31088A3
:1023540049B0C0BCB946B046F0BD8B88022BDDD174
:10236400CB88202BDAD1CB69144A994616480B78CE
:1023740001315A4013049B185B009B18DB009B1827
:10238400DB009B185B009A188142F0D19145C5D1BE
:102394000B4B9A689045C1D1DA689742BED11A694D
:1023A4009642BBD15A699542B8D11B7E6345B5D1DB
:1023B400CEE7C046335A314302002000C59D1C813C
:1023C40000F01F1000F01F001CF01F10F0B5DE46D7
:1023D40057464E464546E0B54B4B0400C25C8BB0B5
:1023E400002A12D00021C154023BC25C474BC254A4
:1023F400474BC25C0333C25401220833C252D82370
:10240400FF33C35C002B00D0A2E28A235B00E05AB6
:1024140003B298468B235B00E35A1BB205938623D1
:102424005B00E5580433E35807933C23FF33E35C34
:102434000293F823E6580433E25804339146F02219
:10244400E758344B5200E15CA35C002B29D1D9330B
:10245400FF339C463048E358834220D86246013318
:10246400A3502E4A93421CD9029B002B00D189E22F
:10247400E223FF33E35C002B00D08AE2284BE25CCA
:10248400002A01D10132E254022901D100F019FEDF
:10249400029B1A00994200D03CE31A003FE3012357
:1024A400A354E223FF33E35C9C46002B00D070E28C
:1024B4001B4AA35C002B37D0029B022901D100F0F8
:1024C40037FF994200D04DE3124B029AE254002A9E
:1024D40000D026E3002901D100F079FE01394B42F6
:1024E4004B419C46932362469B00E25400220D4BD1
:1024F400E2520233E2544A46143BE6500433E250BB
:102504000433E75029E0C046560200005702000099
:10251400550200004F0200009F8C0000DF2E0000D7
:102524004E0200003E02000002980133A35400282A
:1025340000D0E8E20023ED4A0100A05248460232EE
:10254400A354143AA6500432A0500432A7501032B7
:10255400A1500832A152E64AA354E44BE35C002B99
:1025640001D000F039FEE34AA35C002B14D183238D
:102574004E469B00E0582433E3588246F31AD91799
:102584005B184B403F2B0CDD331AD9175B184B40BB
:10259400602B06DC0123A35483234A46CA469B00CE
:1025A400E25090218900635C002B16D184239B00A8
:1025B400E2582433E358FB1ADE179B1973403F2B70
:1025C40001DC00F062FEBB1ADE179B197340602B1E
:1025D40001DD00F05AFE0123635484239B00E7507D
:1025E400283BE6580433E3589946F8235B00E35844
:1025F40006932BB2089356214346FF31180303F088
:10260400E9F998239B00E35C0500002B01D000F05E
:102614000EFE80235B019E4201DA00F003FEB64BFE
:102624009800C018B449000303F0D4F94519E02315
:10263400DB019D4200DD1D00B04B9D4200DA1D0010
:10264400EB171A05120D1B0D5219ED182D05121357
:102654002D0D9346ED1A04D58023013A93465B0170
:10266400ED186E007619B61230030C21804603F083
:10267400B1F9A34AB3009B580490099380232D1AFF
:1026840040465B01C0180C21039203F0A3F904999E
:102694000136411AE80303F09DF9039AB600099B39
:1026A400B2580021D21A5043C013C018954A0023CF
:1026B40003F046FA4B04C10B59185B46002B01DAB0
:1026C40000F0C7FD994080239B00E358002B05D000
:1026D400CA1A511201D100F09CFF591880239B00A3
:1026E400E150059B5D0080234D445B019D4201DA6E
:1026F40000F011FD804D089B5E00069BF6188023B8
:102704005B019E4201DA00F0F4FC029B7A4E002B3E
:1027140001D000F0F6FC6B461C229A5E002A01DC14
:1027240000F09BFD53465200D3188022520193427D
:1027340001DB00F049FDDA43D21713408022520135
:10274400974201DA00F0D0FC6B4A0A20FF30205C8B
:1027540000280DD00C20FF30205CC7B2B8460028FA
:1027640006D1D820FF30205C002801D000F063FEA1
:10277400019200932A0033002000FEF7A9FEC02333
:1027840080215B00E2580901131C12B28A4200DB6B
:102794005D4B5E4A1BB2934200DA13005A485C490F
:1027A400C31A5A01D21A9200D3180B60C22380278D
:1027B4005B00E2583F01131C12B2BA4200DB031C57
:1027C400524A1BB2934200DA13004F4AD21A530101
:1027D4009B1A9B009B184B60D4235B00E35C002B8B
:1027E40001D000F018FDD02380221B0652005A614C
:1027F400AA23FF33E35C002B01D000F005FDD023B6
:1028040080221B0692005A61424B6D439846196818
:102814002B124B401B0440491B0C0B604346764370
:10282400186833121B0443401B0C1B040B608223E7
:102834009B00E35A394E5B4330681B021B0C434038
:10284400374D1B041B0C2B6083239B00E35A306819
:102854005B431B121B0443401B0C1B042B6084238F
:102864009B00E35A2F485B4307681B021B0C7B4009
:102874001B042D4F1B0C3B60029B002B01D100F06D
:102884004FFC03681B0C1B043B6000231A009123BC
:102894009B00E2500833E252043B9C46E358002B71
:1028A4004FD06246013BA350DB04204CDB0F124A9D
:1028B400013B23409B1842465B4314681B125C4057
:1028C4002404240C0C6012681C046240120C1204D0
:1028D4000A6032685A401204120C2A60326862405C
:1028E400120C12042A60026822E0C0463E02000074
:1028F4004F0200003F020000FF0F000000E0FFFF56
:102904007CC50020314D5900FF07000000F8FFFF8F
:1029140014D6002070000540701005408400054066
:1029240084100540980005409810054001F0FFFF11
:1029340053401B041B0C3B60036863401B0C1B04CB
:102944003B600BB0F0BCBB46B246A946A046F0BD06
:10295400B6235B00C1500433C1505F320433C2500C
:1029640001224833C1500833C1500833C1500833E1
:10297400C152143BC1500833C1500833C15006330F
:10298400C25442E5E2230122FF33E254029A0133A6
:10299400E2540023F222A3520232A352634B644A4C
:1029A4001A605A60D02380221B0652005A61921882
:1029B4005A6180235B019E4200DBE8E2F243D217B6
:1029C4003240D0008018D8220125030BFF32A354D3
:1029D4002A001A401D4200D0564A574B1B685A40E1
:1029E4001204564B120C1A60802203009201134009
:1029F400104200D04F4B504A1B04126853401B0C2A
:102A04004E4A1B04136080230200DB011A40184263
:102A140000D0484A4A4DC00B2B6853401B04494A16
:102A24001B0C1360002800D0B3E22B681B0C1B04A2
:102A34001360454B454A1B681B041B0C1360424B37
:102A4400424A1B681B0C1B041360F1235B00E25C0D
:102A5400002A01D100F0E3FCE423029AFF33E55C91
:102A6400002A01D000F029FD002D00D195E20029B3
:102A740000D092E2EE225200A35835498B4201D88D
:102A840000F0BFFDF2267600A35D002B00D08DE29E
:102A94002000FFF709FC0123A3552E4B922292003C
:102AA400A3506B425D412C4B6D421D402B4B224881
:102AB400ED186D4303682D126B4020491B041B0C59
:102AC4000B6003682A0453401B0C1D481B040B6055
:102AD40003681C496B401B041B0C0B6003681A48F9
:102AE40053401B0C1B040B60036818496B401B0408
:102AF4001B0C0B60036853401B0C1B040B60184B2E
:102B0400029AE2541DE7022900D1DAE2020081426E
:102B140000D1DEE2012A00D175E2022A28D0104B4E
:102B2400E2548E239B00E35CD7E2C04614D6002017
:102B340083E70300E0FF00007000054070100540CB
:102B44008400054084100540980005409810054015
:102B5400FFDB05007FBB000001F0FFFFFF0F00005B
:102B64004F020000012B00D14DE2022B00D0ABE458
:102B740000234946E74AA3540132A3521C3AA65003
:102B84000432A15002210432A750E34AA154002187
:102B94000B3AA3500832A352FC234D465B00E25883
:102BA4002C33E358EB1AD8171B1843403F2B01DD95
:102BB40000F060FC002901D100F018FCFE235B004A
:102BC400E750D3009B1A5B001B130233102B00D970
:102BD4001023D0225200A350983AA25C002A00D1BC
:102BE400EEE185225200A25CD1B2002A00D0E7E1D6
:102BF400D2225200A1500121FA2299405200A05839
:102C0400C64A0139821802D580221201121ABC2048
:102C1400400025587838FF3806008046AC30FF3035
:102C24002058D2100700BE482E407843BD4FC0192B
:102C3400FF2A06DCD243D2B2070EBA4201D9464675
:102C4400AE43D6225200A0503200013B9A401300FA
:102C5400BC22AA206D082B430B405200A3503032F3
:102C6400A6549A07D20FFF302254CC2200205200DF
:102C7400A0501803C01A02F0D5FEA84BC018802338
:102C840045002D18AD029B002D13ED1880231B0168
:102C94009D4200DBA44DC0235B00E550043BE25899
:102CA4001001801A40190011E0500833E050002E42
:102CB40001D100F04AFCD823FF33E35C002B01D19F
:102CC40000F06AFCDE2200235200A3500832A35015
:102CD4000832A3500832A352143AA3500832A35026
:102CE4000832A35001330632A3543A3AA350CC22FB
:102CF4005200A3580133A3509622D200934203D921
:102D0400D42300225B00E252802229B22B1C120140
:102D1400914200DB844B814A1BB2934200DA1300D8
:102D2400814E8249F31A5A01D21A9200D318802292
:102D34000B60031C00B21201904200DB331C774A83
:102D44001BB2934200DA1300774AD21A53019B1A3A
:102D54009B009B184B60F42380225B00E3585201D4
:102D6400934200DA85E2724B9800C0187049000360
:102D740002F030FEAB005B19DB021B13C018E0232A
:102D8400DB01984200DD18006A4B984200DA180013
:102D9400C3171F051B0DC5183F0D2D053F182D0D1D
:102DA4003F13ED1A03D580235B01ED18013F6E003C
:102DB4007619B61230030C21804602F00BFE5E4AEF
:102DC400B3009B5882469B4680232D1A40465B01E4
:102DD400C0180C21914602F0FDFD5146411AE8034A
:102DE40002F0F8FD4A465B460136B600B2580021AF
:102DF400D21A5043C013C018504A002302F0A0FE58
:102E04004904C00B0818002F00DA11E3B8408023EE
:102E14009B00E358002B04D0C21A501200D1C6E321
:102E24001818802380229B00E050103BE358520185
:102E3400934200DA25E23E4BF62280215200A2584A
:102E440049018A4200DA18E2394A8421890061582A
:102E54000191832189006158009101002000FEF74F
:102E640037FBD4235B00E35C002B00D0B8E2D02313
:102E740080221B0652005A61AA23FF33E35C002B15
:102E840000D0A7E2D02380221B0692005A61BC2204
:102E94005200A2580123110019401A4200D02849B7
:102EA400284B294A1B684B401B041B0C1360BC2293
:102EB4005200A2580223110019401A4200D023499B
:102EC400204B214A1B684B401B0C1B041360BC2283
:102ED4005200A2580423100018401A4200D0184887
:102EE4001B491C4A0B6843401B041B0C13608423BE
:102EF4005B00E35C0B6896201B0C1B041360D0235F
:102F04005B00E258C00013039B1A1B031B0C5B43BA
:102F140022E0C0463B0200004F02000000F8FFFF21
:102F24000D6619005FF36E3CFF07000014D6002005
:102F3400FF0F000000E0FFFF7CC50020314D590069
:102F4400E0FF000070000540701005400000E0FF45
:102F54008400054084100540E14A1B0211681B0CE3
:102F64004B401B04DF491B0C0B60CE235B00E45871
:102F7400002384425B4180205B4280030340DA48A3
:102F840012681B1853401B0C1B040B60D9E4D74A6E
:102F940017E52868D44B434048E5E4220123002187
:102FA400FF32A3540132A154083AA35092239B0048
:102FB400E358002B00D1A2E5013BDD04ED0F6DE5E4
:102FC400D22149006258CA48824200D9A3E20132A0
:102FD4006250CE22C020D421962652004000A3582D
:102FE400255849000430615C2058F600B34200D2F1
:102FF400B0E2002900D07AE6AA23FF33E35C002B79
:1030040000D181E673E6012904D1BA4BE154173BA0
:10301400E35C62E08E2300229B00E252B64BE25452
:103024004A46263BE6500433E25001220433E7507B
:10303400B04BE254673BE658B04AA35C002B16D170
:103044004846ED33FF33E1582C33E358C31AD817FD
:103054001B1843403F2B00DC2DE24B465B1AD8176C
:103064001B184340602B00DD25E20123A354F62303
:103074004A465B00E250A04AA35C002B15D1F13311
:10308400FF33E0582C33E3580690FB1AD9175B182A
:103094004B403F2B00DC0DE13B1AD9175B184B402A
:1030A400602B00DD06E10123A354F8235B00E75005
:1030B4001C33E35806979A4684239B00E758FFF78E
:1030C40098FA029B022B00D14FE11A00012B00D188
:1030D400DDE1884BE254173BE35C002B00D102E2B4
:1030E400F4235B00E650A7E7FA43D2173A40FFF710
:1030F4002CFBF343DB171E40029B002B01D1FFF78F
:103104000AFB80235B019A455EDA5246D343DB1700
:103114001340FFF713FBEB43DB171D40FFF7EBFAFC
:103124000268714B53401B0C1B043B6093239B00B0
:10313400E55C002D0BD091229200A35870498B427C
:1031440000D8C5E06F4EA35D002B00D1C4E19223EB
:103154009B00E358002B01D1FFF7F3FB013BDD0497
:10316400ED0F92229200A3506B425D41664A6B427E
:1031740013405E4A65499B185B430A681B125A4018
:1031840063481204120C026009681A045140090CC5
:10319400604C0904016021685F4859400904090C26
:1031A400016021685140090C090401604C48016820
:1031B4004B401B044B491B0C0B6003685A40120C18
:1031C40012040A60FFF7BDFB484BFFF7B7FA534BF5
:1031D400E35C002B00D1EEE1514BF3183E2B61D997
:1031E400504BF61881239B00E650F317F6185E4007
:1031F400802376005B019E4200DA0FE282233B4A81
:103204009B00E250FFF7AFF9D02380221B06920007
:103214009A61FFF7F9FAD02380221B0652009A61C3
:10322400FFF7E6FAF343DB173340FFF7F9F93E4BB8
:103234000C21E05C2438000302F0CCFB97239B00B4
:1032440006000C21E05802F0C5FB36187519FFF78B
:10325400EEF95B42D940FFF736FA002A00D150E775
:1032640080235B019A452EDB204B5200BF1AFFF7E7
:1032740065FADA43D217134076E5D543ED172A40B1
:10328400E3E5DA43D2171340D6E5F4235B00E658AE
:103294000433E35817009946F8235B00E358069378
:1032A400FFF7A7F9812200239200A3500432A35010
:1032B400FFF759F983239B00E3589A4684239B0024
:1032C400E758FFF796F95046C343DB170340CCE7B2
:1032D4000133A350154A934200D038E732E7C04681
:1032E40098000540981005400000E0FFFF0F000023
:1032F400FF7601004F0200003A020000390200008C
:10330400FFDB05004D02000001F0FFFF70000540E7
:103314007010054084000540841005403E02000002
:103324001FF8FFFF00F8FFFF5702000000DC050054
:10333400002B00D0C5E6C4235B00BB4AE3589918B0
:10334400BA4A914209D8C8225200A350043AA35061
:10335400D5238C3A5B00FF3AE254C42300225B007D
:10336400E250B34BE254FFF7BDF81A00B04B912082
:10337400E254B04A8000A35C9C468F239B00E55C2A
:10338400AD4BE15C00232350083023526346002BED
:1033940013D188239B00E358F31AD8171B18434012
:1033A4003F2B0DDDFA235B00E358F31AD8171B18E3
:1033B4004340602B04DC0123A354FA235B00E65052
:1033C400002D01D1FFF7E8FBFC234A465B00E250E5
:1033D400FFF7F0FBD02380221B0692009A6156E58A
:1033E400D02380221B0652009A6145E5FE235B0030
:1033F400E1582C33E358FB1AD8171B1843403F2BD2
:103404000ADD7B1AD8171B184340602B04DC01210A
:10341400894BE154FFF7D2FB0F00FFF7D2FB029A6E
:10342400002A01D1FFF76BFB0122E254FFF767FB8F
:103434007F42F840EBE4B620400027500430275088
:10344400BA271138FF387F00E05147465D30FF301E
:103454002750083027500830275008302752143896
:1034640027500830275008302750012706302754AA
:10347400FFF77EF9AB1AD8171B184340602B01DD08
:10348400FFF798FB8F2301229B00E2549CE78E23D5
:1034940000229B00E252694BE2544A46263BE65026
:1034A4000433E2500433E750029A614BE254673B21
:1034B400E6580433E1588946DDE5002D01D1FFF7D4
:1034C4001EFBE2210022FF316254E254073BE2502A
:1034D4000833E254FFF713FB2000FEF7E5FE012357
:1034E400A355574B3DE6E933FF33E2582C33E358F9
:1034F400F31AD9175B184B403F2B0ADDB31AD917BF
:103504005B184B40602B04DC8E2301229B00E254A9
:10351400E6E5160090E5CA2149006258BA1AD017A8
:1035240012184240402A18DCD5225200A25C67508F
:10353400002A17D0C6225200A258C42040002158A5
:103544000131914224D2215043E5CE2301225B0074
:10355400E25051E50133A3504BE5D522002052003F
:10356400A05467508022520197420DDB3549354AF9
:10357400521A5243110B344A4A433449120B52181B
:10358400C62149006250D8E7F943C9173940EEE72C
:1035940000222250FFF72FFB01229D33FF33E2501C
:1035A4009832FF32A3580133A350FFF7ADFB511EED
:1035B4008A41D01835E48B239B00E358F31ADA17B9
:1035C4009B1853403F2B01DCFEF7C7FF8123802269
:1035D4009B00E35812019B188022520193420CDB9A
:1035E400184BF31ADA179B185340602B01DDFEF7D2
:1035F400B4FF0122164BE254EEE5DA43D21713402E
:10360400EFE70133A350134A934200D0CEE4FFF70F
:1036140039FA511E8A41D118FFF760F882239B00C2
:10362400E650FEF7A0FFC0469FF6FFFF9E6D010027
:103634004F0200003B0200003D0200003A0200007D
:103644007FBB0000FF0F0000A8DE0000B80B0000E5
:103654003E02000000DC0500024B1A78002A00D16B
:103664001870704774F30020034B1A78824201D11A
:1036740000221A707047C04674F30020F0B5DE468D
:1036840057464E464546E0B5CA4BA9B01B78019053
:10369400834200D0B3E0002900D1B0E0002306AAA1
:1036A400D37108AB9946C44B1C0006A980234A4633
:1036B4000198073100F08EFD002800D19FE04F46AD
:1036C4003B784A464844F02B1ED09C219D25BA4A9B
:1036D400BA4E8900AD005158555D925D9346002D58
:1036E40000D161E1002200260025F72B2AD00B2906
:1036F40000D88BE00137B84200D1B9E001223B7811
:103704009346F02BF1D13A00571C874270D053787E
:10371400F02B00D19BE0F72B00D1BCE0002201216B
:10372400A74D93468C460137511CA21801265355C8
:10373400B84200D174E03B7801256246F02BE2D018
:10374400F72BD4D15B469446002B00D1B0E07A1C11
:10375400824200D1A9E07B78F02BD5D067460126C0
:10376400039704910595F72B39D85FB2002F00DA3F
:1037740082E09427BF00E15D0F278A46B9430D001C
:10378400029151461037B943802901D0E02D26D14A
:103794008C49675C7D1CEDB2A84665548A4DE719D7
:1037A4007F193B704346012B19D900236354874B7F
:1037B4005146E75C0F230B40BB4210D1029B675D6F
:1037C400902B00D1C4E0802B00D1C5E0804B81490F
:1037D400E35CDB013B4397275B18BF00E3510132F5
:1037E400904252D01378F02BBDD1571C87428ED112
:1037F4000021724B704A0126D15401231CE029B0E8
:10380400F0BCBB46B246A946A046F0BD94460A00A9
:103814006B4D511C0137A2185355B84200D08AE7AA
:10382400012301256246002A03D05F46624A6348A9
:103834001754002D03D0604A9C2080001150002EA4
:1038440000D132E79D215C4A890053542DE7971C2F
:10385400B84200D193E09378F02B00D153E70122D2
:1038640094460022012693460021012562463CE746
:10387400012201239346D8E79427BF00E35500278C
:10388400504B0132E7549042ACD1039B04999C46BF
:10389400059D0023C6E700237A1C9B4601330125BE
:1038A4009C460021824200D055E701260023B9E757
:1038B4000B2900D04BE7404A414BD35C7D2B00D011
:1038C40045E79926B600444B96599E4200D03EE700
:1038D4009A239B00D35C033B012B00D937E79B233E
:1038E400FE269B00D35CB601DB0133403B4E984679
:1038F400965D33007F261E40434633438026029361
:103904007601B34201DB364B02930F23354E965DAD
:1039140033409846FE23344E9B01965DF6013340B6
:103924009A46324E935DEB3EFF3E1E4053461E4385
:1039340080235B019E4200DB294E83239B00D650EB
:103944008426029BB60093514646204BD654FEE68D
:103954001F4BE35C002B19D1254BE35CBB4200D029
:103964003DE7D823FF33E35C002B18D0EB235B0047
:10397400E35C002B13D001271E4BE7542FE70022F2
:10398400012601230125934600214EE79521890054
:103994006754194FE3550127184BE7541FE7982341
:1039A40000279B00E7541AE700264A460396049131
:1039B4000595D8E674F30020C0DF002075020000EE
:1039C4006302000053020000510200006202000082
:1039D4005202000000E0FFFF43315A336B02000043
:1039E400FF0F00006D0200006A020000690200007F
:1039F4005702000061020000550200005602000058
:103A04007047C04610B5054802F016FC0448054B43
:103A1400186007F015F9002010BDC04615020020FB
:103A2400C0DF0020B8E5002070B5874C00252000D9
:103A3400FDF72EFB854B864A2360B6235B00E550D9
:103A44000433E5500433E5500433E250C622043312
:103A5400E5500433E5500433E5500433E5507D4B21
:103A64005200A3500432A350802396211B01043238
:103A7400A3500432A550C9000432A15010210432CD
:103A8400A15075490432A150D421002201204900DB
:103A94006552023162540231605004316550043180
:103AA400655004316550043165500431655004316A
:103AB40065500431655004316550684804316550DF
:103AC40004316050FC2004316550043165500431E8
:103AD400655004316254043163500431655004313B
:103AE4006550043163505E49400021500430235036
:103AF400043025500430255004302550043025501E
:103B0400043025500430235004302550043025500F
:103B140004302350043021508A2189006350043139
:103B240063508C239B00E5504E490433E550043325
:103B3400E15002210433FF31E15080210433E25487
:103B44000433E5500433E55049040433E1503C2187
:103B54000433E552444B4548E254454BE2540133A7
:103B6400E154F13BFF3B2354424822544248215440
:103B7400962189006354F933FF33E5500433E55249
:103B84003E4B0021E2543E4B0C22E01802F04EF969
:103B94009C233C499B00E5500433E5520A683A4BA8
:103BA4009A4200D070BD8B88022BFBD1CB88202B8E
:103BB400F8D1CD69354A36480B7801315A4013049F
:103BC4009B185B009B18DB009B18DB009B185B00B9
:103BD4009A188142F0D19542E4D18122294B920076
:103BE4009968A1508022DB685201934228DB1C4B68
:103BF40082229200A3508022224B52011B699342DD
:103C04001ADB174B83229200A35080221D4B5201D2
:103C14005B6993420CDB124B84229200A350194B34
:103C24001B7E082B00D90023D822FF32A354B9E706
:103C3400DA43D2171340EFE7DA43D2171340E1E730
:103C4400DA43D2171340D3E7C0DF002078C5002041
:103C5400E1AC0000E02E000000770100080800003D
:103C6400FF0F000001010101520200005502000093
:103C740053020000560200005702000062020000D6
:103C84006302000000F01F10335A3143C59D1C81AC
:103C94001CF01F10004870476CD400200048704787
:103CA40004D4002070B5002826D0032833D81B4B39
:103CB4008000C458200006F049FEC3B2181C1F2B14
:103CC40018D8C021C0B2421CD2B25200890011439C
:103CD4000D00002B1CD0124B9C469A1C0023E15C67
:103CE40001331180D9B202328842F8D86346604663
:103CF4001D8070BD1F20E4E70A48C1250400074B5E
:103D04000222196802F098F8A31E9C46AD00EDE764
:103D1400034B9C46EAE70020EBE7C0461CD6002094
:103D2400CCEC0020CEEC002070B5164C82B0200004
:103D340003F0F4FF002805D02500D9232C3DEE5CC8
:103D4400002E02D0002002B070BD0120E97805F0F9
:103D5400DFFD0028F6D020000B49EA8804F060F863
:103D6400E978041E0AD00300074A01200196009650
:103D740005F01EFE0028E5D02000E4E7012005F050
:103D8400EFFDDFE7C4DD0020F0DD0020F0B5244CBA
:103D940085B0DC220021200002F048F8214E35686D
:103DA400280001F0EBFF20640700706801F0E6FFD3
:103DB40003906064337A01215800C018400001F078
:103DC400FBFFE060002F26D0039B002B25D00028AA
:103DD4001FD0AAB220000025012339001830009515
:103DE40003F066FFB28820002600616C0123483688
:103DF4002C30009503F05CFF300000F0ABFEA662AF
:103E0400260050363000656200F0A4FE0120A6634F
:103E1400E56305B0F0BD3800FBE71800F9E7C046DC
:103E240098DD002030D6002010B50E4C206C002800
:103E340003D001F0E3FF00232364606C00280CD05E
:103E440001F0DCFF0023E0686364002803D001F084
:103E5400D5FF0023E360012010BDE0680028F6D1FF
:103E6400F9E7C04698DD0020F0B51C0083B00128B6
:103E74002AD1D923334DEA54002A25D1AB788B4279
:103E840025D0EB788B4248D001201EE028002C304E
:103E940003F044FF002844D1002C42D02000E988DC
:103EA40001F0C0FD0C1E3CD10120E97805F030FD85
:103EB400002836D0E97823002200012001940094E0
:103EC40005F076FDA0422CD1002003B0F0BD002CFB
:103ED40019D0A40817D02634A4002E192C000027CA
:103EE400983402E00434A64209D02368002BF9D0A8
:103EF40004222100144804F09BF80137F2E7134B25
:103F0400002B16D1A97800242A00AB88287898328F
:103F14000194009405F04CFDD7E7FFF705FF002856
:103F2400B4D00B4B002BAFD00120FFF769FD01206B
:103F3400CBE7002FE6D039000120FFF79FFBA978DB
:103F4400E1E7C04698DD0020B0DD00208D3400207C
:103F54001138002070B5012824D1134B002B02D056
:103F64000021FFF781FB114C200004F015F920001B
:103F74002500143004F010F9002300222000183D1D
:103F84006B602B81FF332B60273BEA540021062210
:103F9400083801F04BFF064B00211A7AE8689200BA
:103FA40001F044FF70BDC04679340020B0DD00202C
:103FB40030D60020F8B5DE4657464E464546E0B5B5
:103FC400012906D1D92100206A4C60545179012974
:103FD40006D00020F0BCBB46B246A946A046F8BDB8
:103FE4009079002101286BD00328F2D1157850195B
:103FF4004678B446242676426644012E00D87FE0F3
:104004006646052EE5D19278691889B262708B42B2
:1040140000D8A0E0584A15685268A9469046002284
:1040240000259346924623E0252A29D0052AD0D19B
:104034004279057912022A43402A04D940220271A6
:104044000022427140328578EE092DD1E678677AF4
:104054003E43BED1424500D942468346E570E280E4
:104064000278511889B299424FD280184278944606
:104074006246242AD8D18278013A032AA9D8EFE7E4
:104084008278012AA5D1002DA3D0EA0928D1E278AB
:10409400AA429ED1627A002A9BD1C27862720278C7
:1040A4000025511889B2DEE7A678277A3E4300D06E
:1040B4008FE74A4500D94A468246A570A280CFE7D9
:1040C400002B07D185E710784118121889B250796E
:1040D4008B4210D90128F6D190790328F3D183E7D4
:1040E400A278AA4200D074E7227A002A00D070E7AE
:1040F400C2782272D3E7012800D06AE7907973E787
:104104008678012E00D064E77DE7E378002B1AD08F
:10411400637A002B17D05346002B06D0514601205A
:1041240005F080FC002800D153E75B46002B06D045
:104134005946012005F076FC002800D149E7012307
:104144000120237046E7A378002B00D141E7237AAE
:10415400002BE0D13DE7E378002B02D0637A002BFB
:10416400EDD1A378002B00D133E7237A002BE6D1DD
:104174002FE7C04698DD002030D6002070B50E0031
:1041840082B001281ED1114CD82300252200E0540E
:10419400A388A178207898320195009505F008FC51
:1041A400051E0FD00A4B002B07D0607A237AE278E1
:1041B400A17800900120FFF74FFA3100012005F0AB
:1041C40059FC00E00025280002B070BD98DD0020F5
:1041D40069340020F0B557464E46DE464546E0B504
:1041E40014000F00994685B001280ED100290CD087
:1041F400002A0AD0002B08D0604D02AA2800D11D45
:10420400A84603F083FE002808D10026300005B03C
:10421400F0BCBB46B246A946A046F0BD290002AA9E
:10422400D37928001B0904223B70083903F0F8FDF8
:104234000428EAD1524B0026183D00931CE0009B51
:104244009C4618885B46184240D102AB4046D91DB3
:1042540003F05CFE0028D9D002ABDB793A781B0965
:104264009A42D3D1404601000422083903F0D8FD14
:104274000428CBD1B145C9D92B7C1B093B702A7AC0
:104284009A42E2D901229A4093B29B461123EB56FB
:10429400697C002BD3DAF02911D0EF2935D80B092A
:1042A4000C3BDBB2012B46D9032303209A46344A44
:1042B4005B46944612889A4363461A8015E0304B55
:1042C40018889C465B461843634618801223EB56B5
:1042D400AA7C002B3ADB1322EB7C0193AA5602231F
:1042E400002A2CDB01339A461800217084460221EF
:1042F400504601346A18137C4A1C2370032101348C
:104304008242F7D9604636189FE7F7290ED8F32979
:1043140018D006D8F12915D00323F22103209A4698
:10432400E3E70B000A33DBB2012B8ED801202170A6
:104334003618013489E7022302209A46B7E7019B25
:10434400F72B18D0022302209A46CEE7F72A09D089
:104354001322EB7C0193AA560123002AC2DA019BA3
:10436400F72BE3D1012301339A465B466246984317
:1043740010805046B9E70223F5E7C046B0DD0020BF
:1043840072F3002001230370004870473CD60020DC
:1043940010B54024074A83009A181268C00054409C
:1043A400C0222240044C1B191A60044BC0184160FF
:1043B40010BDC04604C0014004D00140004001408B
:1043C400064B8000C3181B68C90092000A435A4078
:1043D4000C231340024A80180360704704C0014054
:1043E40004D001408000002904D0054BC0184023AC
:1043F40003607047034BC01840230360F9E7C046CD
:1044040004E0014004F001400123D022834012065D
:1044140093629361084A83009A18116840225140BC
:1044240080320A400549C0005B181A60044BC0186A
:10443400052343607047C04604C0014004D00140D6
:10444400004001408023DB051868000F7047C04618
:104454000FB400B5084883B001F05EFE049B002B46
:1044640007D005A91800019101F0F4FC034801F0FC
:1044740053FE012001F006FD7CD200208CD20020E6
:1044840070B58C461600EFF3108472B60F490B68B2
:10449400002BFCD0BFF35F8F6346DB08C5180722EF
:1044A400C05C63461A40012393401A000240034251
:1044B40007D118432870BFF35F8F0A6084F3108814
:1044C40070BD61463000FFF7C3FFC0462C0100D029
:1044D400F8B5CE4647468C4680B51C00EFF31088ED
:1044E40072B61C490B68002BFCD0BFF35F8FA2424D
:1044F40021D80723994602E00132944218D3494651
:10450400012611408E40D308C718C35C1E42F3D164
:10451400100033433B70BFF35F8F00220D4B1A60D2
:1045240088F3108800280EDBC0BCB946B046F8BD3D
:1045340001204042EFE7BFF35F8F00230B6088F355
:104544001088012040426346002BEDD00898FFF705
:104554007FFFC0462C0100D0044A1078431CDBB214
:10456400172B00D9102313707047C04658D600206B
:1045740000B5054B83B00100009318221F230348A4
:10458400FFF7A6FF03B000BD90D200209CEC0020F2
:104594000021044B044ABFF35F8F02C39342FAD154
:1045A4007047C046000100D0800100D0084B094A82
:1045B4001360094A1360094A1360094A1360094ADF
:1045C4001360094A1360094A1360094A136070476B
:1045D4008080808000E400E004E400E008E400E07F
:1045E4000CE400E010E400E014E400E018E400E06F
:1045F4001CE400E01F2318401E3B8340002905D023
:10460400C021044A49005350136070478022014975
:104614008B50FAE700E100E001228240034B1B6863
:1046240013405A1E9341D8B27047C04600E100E0DF
:1046340070B50D00EFF3108672B60F4A1368002BA5
:10464400FCD0BFF35F8F0D4B10309B6884001B5967
:104654000B4A934203D09D4201D001F07BF8074BF3
:104664009B681D51BFF35F8FBFF35F8F0022024B26
:104674001A6086F3108870BD240100D000ED00E0BC
:10468400C1010010F0B5DE4657464E464546E0B53A
:10469400824683B08B461700EFF3108872B6604AE7
:1046A4001368002BFCD0BFF35F8F00255D4B5D5773
:1046B4009946002D00DA9AE04A466B005A4C5E197E
:1046C400B6000193A31900939B791370574B9A6812
:1046D400534610339B00D15899460B1B2F2B32D9CC
:1046E400534B994200D098E0019B0236ED18514B90
:1046F400AD006353504BA619043B9B1B4F4A1B054B
:104704005B0D651913436B804D4B0121AB80FF2377
:10471400AB715B46AB60009BEF710B4319004A46DB
:10472400424B9B689950BFF35F8FBFF35F8F0022AA
:104734003B4B1A6088F3108803B0F0BCBB46B2460A
:10474400A946A046F0BD01200A008243D379B446AD
:10475400BB422DD83B4BB51C190013001B1B5B41FE
:104764005943090D8C46334B6519A353324B0099B9
:10477400043B5B1B1B05314D5B0D2B4304364B8007
:10478400A619131F9B1B1B055B0D1D4363468B71F1
:104794005B468B602C4B8D80CF7113600143BEE769
:1047A4005800C01880002018C679BE4225D90200DE
:1047B4000623D356002BF3DA9A46131D9C4623484E
:1047C4006346009E9571043EF61A36051B4B760D22
:1047D4001E43019B96805A1953469200A418A37154
:1047E4005B46194AA0802260E771A36097E700F056
:1047F400B1FF00254B465D575EE766469A46131D9A
:104804009C469088043640050015A6196044801B18
:1048140000050A4E400D3043D2E700F09BFF63E7EA
:10482400240100D07BF300205CD6002000ED00E0E2
:10483400C101001000A1FFFF8CD6002000E0FFFFA3
:1048440001BDFFFFAAAA00000148804701BD000086
:10485400F0B54546DE4657464E46E0B50D0083B0FA
:10486400EFF3108872B6604A1368002BFCD0BFF3D4
:104874005F8F5E4B5E499A68030010339F00D459E2
:1048840099468C423ED0AC424FD05A4EA21B2F2A9E
:1048940038D8594B1A689C461300012282401340B1
:1048A4001F22024001209A4690406346802283469C
:1048B4009850BFF35F8FEFF305830193002B36D03D
:1048C400994501D000F046FF012322009A439068E5
:1048D400854208D176E04B005B189B00F31898687A
:1048E400854236D01A00062151560029F3DA854252
:1048F40054D05346002B27D0C02259463E4B520079
:1049040099501960394B9B68DC51BFF35F8FBFF33B
:104914005F8F0022344B1A6088F3108803B0F0BC18
:10492400BB46B246A946A046F0BD0C00EAE7220009
:1049340001339A4390688542D5D10620105613005E
:1049440000280ADA0C0031E0802359462A4AD15063
:10495400D8E706201856002821DB420011188900E8
:1049640075188946A9689960E979D971062169564B
:104974009971002924DBAD88F11A6D052D154D447C
:10498400491909051D4D490D2943998013181C4ADD
:104994009B001178F31899711070AAE7130001991C
:1049A400002914D1FF3191711649918014490A7874
:1049B4009A71154A9B1B5B415A43120D0A7098E782
:1049C4001049E2E70620105613000028C5DA0F4A02
:1049D4000F49D21A083A5002400D014399800D49FB
:1049E40052080A43DA8084E7240100D000ED00E095
:1049F400C10100105CD6002000E100E000E0FFFFF0
:104A04007BF3002001BDFFFFAAAA000096D6002078
:104A140000F0FFFF00F8FFFF084A83089B009B1883
:104A24001A6810B5140003221040C000FC32824002
:104A34009443220081400A431A6010BD00E400E060
:104A44000123034370B59C46EFF30581EFF3108512
:104A540072B6214A1368002BFCD0BFF35F8F1F4B43
:104A640004001F4AE41A64416243120D1D4C89007C
:104A7400A66852B2765866451CD006215956914212
:104A84001CD012215956914222D01E2159569142CE
:104A940020D02A2159560324914210D0124B197860
:104AA4001A708171BFF35F8F00220B4B1A6085F37C
:104AB400108870BDA3680D4C5C50EFE700246100C2
:104AC400091989005B18FF21997109499980E5E763
:104AD4000124F4E70224F2E7240100D05CD600208C
:104AE400AAAA000000ED00E07BF30020C101001041
:104AF40001BDFFFF024BC918890001607047C04621
:104B04004000003470B5114C114DAC420FD2FF2659
:104B14002368002B0CD0FFF71FFD01002000FFF7D6
:104B2400E9FFA680BFF35F8F0834AC42F0D370BDB9
:104B3400FFF712FD01002000FFF7DCFF2671BFF331
:104B44005F8F0834AC42E3D3F1E7C04640DD002078
:104B540050DD002010B50400FFF7FEFC010020002A
:104B6400FFF7C8FFFF232371BFF35F8F10BDC0465B
:104B740010B504000120FFF7FBFC034BC0188000B4
:104B84002060BFF35F8F10BD400000340A4B1968EA
:104B9400EFF3108072B60A68002AFCD0BFF35F8F6F
:104BA4001B68BFF35F8F00221A6080F3108840BF38
:104BB400002000217047C0466CF30020F0B5DE46AB
:104BC40057464E464546E0B585B0EFF305830322CC
:104BD4001A40B34B91005F58012393409B460292C5
:104BE4005A468846AF4B1A60AF4B03935B46AF48B7
:104BF40043630823FE5E002E37DABB881BB2002B0A
:104C040000DBA4E0BB79002B00D0E5E00823F95ECB
:104C1400002920DB4B007A695B18DB00D3189D6800
:104C2400DC686B1C00D104E1A04801004144826AA5
:104C34000B69AE1A9B1A9E4215D30123026A02988D
:104C440083401A420FD0994800F0CEFB8C4202DC1C
:104C5400CCD18542CAD940BF05B0F0BCBB46B246F0
:104C6400A946A046F0BD0D61EDE77A69730091464F
:104C74009B19DB0099444B469C68DD6800F0B4FB4B
:104C84008D42BADC00D1F6E0002D00DADBE04A46C2
:104C94004B4652691B699246039A934200D1CCE079
:104CA4004A460821785E52880004514610439847CA
:104CB400009001910099019A0B00134300D1C2E0C6
:104CC40013000A00002B00DBD9E020002900801A21
:104CD40099414B469860D96000229B5E002B00DA14
:104CE4008BE75D007C69EA18D200A21800949468EE
:104CF400D268A2468A4200DD7FE702D1844200D90D
:104D04007BE70824A4463B81BC44009C00972F0009
:104D14006546B4463E0006E05E00F218D200A218D2
:104D24009768D268BA468A4207DC00D1B4E0F31827
:104D3400DB00E518E35E002BEEDA66464A46009F88
:104D440013802E80BB881BB2002B00DA5AE73A6925
:104D5400EFF3108172B61368002BFCD0BFF35F8FA2
:104D64000123BE885B42BB8036B23B69BFF35F8FD1
:104D740000221A6081F31088002E00DA42E73B001B
:104D840008333A0099467D6973009B190824115F22
:104D9400DB004846EB18002913DB9C680093A4460B
:104DA400DC6806E0A34240D00023F95E3800002905
:104DB40006DB4F007F18FF00EF19FB68A342F1DD0B
:104DC400009B068000201E5E1980002EDCDA17008E
:104DD400BB79002B00D119E70023BB710823F95ECE
:104DE4004B1C00D137E73D000835AC467C6903E035
:104DF40084464B1C00D109E74B005B18DB00E0182C
:104E04000A00E15E43881BB2002BF1DA01256D42F2
:104E1400EE178560C66008257B5F9342E9D0634640
:104E240019803B8903803A81E3E7BB686345BBD9BA
:104E3400C6E7631C00D0F7E605E7534650461B69F6
:104E44009847002823D14B461B883A693B81EFF3EE
:104E5400108372B611680029FCD0BFF35F8F4946F6
:104E64007A880A803A697E80BFF35F8F00211160DF
:104E740083F31088C1E6844200D805E7BDE60B48F9
:104E840000F0B2FA009B019CC018614121E753462F
:104E94000CCB009201930DE7824500D847E74CE71D
:104EA40050F300203C700540CD49002000400540EF
:104EB40070B52D4C2569002D04D00A212B48FFF72D
:104EC40019FE70BD2A4E0321294800F083FAE660DA
:104ED400FFF742FB274B0322C018D02322701B0686
:104EE4001B6801216370244B8000A3600F232061A1
:104EF4000220638063694942A180198002311986C6
:104F040047311D83585218315A5275325C399952BF
:104F14001832013199521832013199521832013143
:104F24009952083518329D5202311832995218326A
:104F34000131995218320131995218320131995282
:104F44001832013199521832013199520B4B0C49E4
:104F5400DC6001303562FFF76BFB01210320FFF7B2
:104F640049FB084B1D60A8E7A4D600206CF3002081
:104F74000040054040000034FFFF100050F30020C3
:104F8400CD4900203860054070B582B0009201938D
:104F940001000269EFF3108472B61368002BFCD091
:104FA400BFF35F8F0223C85E0D6900283FDB4A69A7
:104FB400430016001B18DB00D218F35A4B80BFF3D2
:104FC4005F8F00232B6084F31088069B1361079B7B
:104FD4005361009B019C9360D460538801335B044C
:104FE4005B0C1D1C002B20D0ACB203045580234362
:104FF4000D69EFF3108C72B62C68002CFCD0BFF353
:105004005F8F8C88148088800A69BFF35F8F0020CB
:1050140010608CF310880A7801309040CA680849FF
:1050240052181060180002B070BD0125DCE7BFF310
:105034005F8F00232B6084F31088013BF2E7C046A6
:105044003C20000010B543890A1493421ADD530032
:105054009B184269DB00D3180469EFF3108C72B615
:105064002268002AFCD0BFF35F8F5A88090494B2E7
:10507400090C8A4208D00369BFF35F8F00221A60CB
:105084008CF31088002010BD094A22435A80012362
:1050940002698371BFF35F8F002111608CF3108864
:1050A400027804499340C268012052181360EAE769
:1050B4000080FFFF3C200000F0B5C64600B582B07A
:1050C40004000D0000F098F924184D41002D02DA77
:1050D40001242F4D644206267642F71736196F4194
:1050E400AF4214D811D000F087F932003B00121AF5
:1050F4008B41002B15DC002B46D02000290000F04A
:1051040085F902B080BCB846F0BDA642EBD90026B2
:10511400002700F071F932003B00121A8B41002B7A
:10512400E9DD00F069F932003B00121A8B41002BD3
:105134000ADB00230193174B3200009316483B000F
:10514400FFF722FF0130D8D000233900B0469C4637
:10515400124A1348536A994204D8966A4645CCD2F7
:105164009942CAD10668EFF3108772B63368002BF0
:10517400FCD0BFF35F8F0368BFF35F8F66461E608A
:1051840087F3108820BFE5E7002AB6D0C9E7C046F8
:10519400FFFFFF7F9D490020A4D60020004005406A
:1051A4006CF30020F0B5C64600B582B0040000F0F0
:1051B40023F9FA2206000F002000002300219200A8
:1051C40000F0BEFC8019794104000D1E02DA0124AE
:1051D4002E4D644206267642F71736196F41AF42C8
:1051E40014D811D000F008F932003B00121A8B4198
:1051F400002B15DC002B46D02000290000F006F916
:1052040002B080BCB846F0BDA642EBD90026002708
:1052140000F0F2F832003B00121A8B41002BE9DD5A
:1052240000F0EAF832003B00121A8B41002B0ADB33
:1052340000230193164B3200009316483B00FFF7FE
:10524400A3FE0130D8D000233900B0469C46124A50
:105254001248536A994204D8966A4645CCD2994278
:10526400CAD10668EFF3108772B63368002BFCD0FE
:10527400BFF35F8F0368BFF35F8F66461E6087F3DB
:10528400108820BFE5E7002AB6D0C9E7FFFFFF7FFB
:105294009D490020A4D60020004005406CF3002066
:1052A400F0B5CE46474680B504000D0085B0EFF357
:1052B40005868946002E10D0364900204B6AAB4241
:1052C40006D38A6A5B1B591E8B41A2424041184394
:1052D40005B0C0BCB946B046F0BD2F4FFB683A7864
:1052E40098461800039200F07FF8039A131D424673
:1052F4009B009B5822001B1A9C462B00121A8B41C0
:105304009E4210DC0DD020BF224A0020536A4B4538
:10531400DED3926A5B1B591E8B41A2424041184363
:10532400D6E79445EFD900F067F822002B00121A53
:105334008B41002B1BDB00230193184B22000093AD
:1053440038002B00FFF720FE002810DD114B5A6AAD
:105354004A451CD39B6AA34217D301003800FFF7C8
:1053640071FE0C4A0020536A4B45B1D3D1E7094A78
:105374000020536A4B45ABD30020926A5B1BA242C8
:1053840040415A1E93411843A2E74A45E5D120BF44
:10539400E3E7C04600400540A4D600209D49002014
:1053A400036808499C464A6A43680020934207D828
:1053B4009B1A5A1E93416246896A9142404118439E
:1053C4007047C046004005400CC001487047C046C5
:1053D400B151002010B5024A0248FFF751F810BD40
:1053E400ACD20020A0EC00200300416A0A00986AB5
:1053F400596A8A42FAD17047034B596A0A00986A7B
:10540400596A9142FAD1704700400540064A536AEE
:105414009942FCD807D1044B02E05A6A914202D166
:105424009A6A9042F9D8704700400540F8B5DE46C4
:105434004E4645465746E0B505008B4618000A9986
:10544400914600F0EFFA0A9B6C001E026419304B7F
:10545400A400E418636880469E4200D966602F1F4A
:10546400FBB29A46012B2FD9C0238022294FAD00CD
:105474009B0179591201E3181A6000291BD14B468C
:1054840022685B015340E022134080225201A2189B
:1054940013605346012B2FD9802380229B01E318EC
:1054A40012011A60434666607B51F0BCBB46B246AB
:1054B400A946A046F8BD786900F0B4FA013043006B
:1054C4001B18033BFDD2DAE75B46012BCCD1C0238A
:1054D40003229B01E3181A60023AA3681A42FCD023
:1054E4004A46236852015A40E02313408022520165
:1054F400A218084F1360AD005846032321684140A9
:105504000B40136001228240A3681A42FCD0C3E717
:1055140000800040A4EC0020F0B5D6464F46464635
:10552400440098462418324BA400E41863688A4661
:105534009146C0B5FF2B02D880235B006360061F31
:10554400F6B2012E2FD9C02380222A4F85009B0159
:1055540079591201E3181A6000291BD14B462268BD
:105564005B015340E022134080225201A2181360D1
:10557400012E30D9802380229B01E31812011A6086
:1055840080235B00636043467B51E0BCBA46B1466E
:10559400A846F0BD786900F045FA013043001B18B5
:1055A400033BFDD2DAE75346012BCCD1C0230322BF
:1055B4009B01E3181A60023AA3681A42FCD04A46D7
:1055C400236852015A40E023134080225201A2185A
:1055D400084F1360850050460323216841400B4067
:1055E400136001228240A3681A42FCD0C2E7C0467D
:1055F40000800040A4EC0020014B8000C05870479C
:10560400A4EC0020F0B5C646040000B523481600FB
:1056140098460D0000F006FA0100300000F002FA8E
:105624004346069A1B04120313439C462368060050
:10563400002B22DB1A4B1B48E218531E9A4180238D
:105644005242120B9B011203D218174B1A60174BCC
:105654001A60130001688B43FBD12122144B25608F
:10566400E318A6601A602268002AFCDA6246E26047
:1056740008221A6080BCB846F0BD3F23226813405C
:10568400AB42D7D1A3681B051B0D8342D2D1EE22B6
:10569400E368D20213406345CCD1EBE7001BB700AB
:1056A4000040FDBF08C0004000E0004000F00040A2
:1056B400043000008023024A9B000B43D3627047EE
:1056C40000800540002310B50100988A1B8B984781
:1056D40010BDC046162310B5010018885B88984792
:1056E40010BDC046F8B54746CE4680B50F1E18D04B
:1056F40014239946043304000025012698464B469A
:105704001888434621681B88984701C4431E984162
:1057140001350640AF42F2D13000C0BCB946B046B4
:10572400F8BD0126F8E7C046AA23064A1B01136008
:105734002133FF33D3600449044B19605368002BB1
:10574400FCDA70470040024000B0FA0000600240FA
:105754007047C04610B50148FEF77AFED0D200204B
:1057640070B5074D074EB54209D20024013E761BA1
:10577400B608013608CD01349847B442FAD170BD59
:1057840050DD00208CDD002070B5074D074EB5427A
:1057940009D20024013E761BB608013608CD013437
:1057A4009847B442FAD170BD84DD00208CDD00201E
:1057B400054B064A06491A60064A074B1A60100050
:1057C4000B689843FBD1704700E00040BFCDFBFE5F
:1057D40008C00040FE7F3C0000F00040044BDB6C3E
:1057E400002B03D18022034BD2021A607047C046BB
:1057F400000011504C201150044A054B1A60054A10
:105804001368DB018033FBD17047C046FFFFFF0103
:1058140000F0004008C000404022034B9A675A67DA
:105824001A67DA667047C04600F0014010B5FEF70B
:10583400AFFE10BD70B52849284D294E6D1AAC1025
:105844002200302C00D930223000920000F0F4FA0B
:10585400BC2D3DD823002A3B224A052B1DD93020DC
:1058640075196D07A446001BEB0F002D03DA611CAC
:105874008C46A1007250C01AE3189B004108F3182B
:10588400C900C9181A605A6008339942FAD1012331
:1058940003421DD0984360440400A300F250631CEB
:1058A4002F2C15D09B00F250A31C2E2C10D09B0043
:1058B400F250E31C2D2C0BD09B00F250231D2C2CFA
:1058C40006D09B00F250631D2B2C01D09B00F2509C
:1058D400054B9E6070BDC04600010010C001001061
:1058E40000000020C101001000ED00E0002310B50D
:1058F400294C82B0A367FFF717FF0122274B1A60D8
:10590400636C012BFCD10322254B1A60224A936B52
:10591400012BFCD1013300930121224A2248043394
:10592400FFF770FE052301210093204A2048FFF76A
:1059340069FE0022022104201E4BFFF7EDFD002228
:10594400012105201C4BFFF7E7FD00220021072061
:105954001A4BFFF7E1FD002200210820174BFFF747
:10596400DBFD8023DB000093002200210920134B80
:10597400FFF75CFD0022104B00210620FFF7CCFD51
:105984000420FFF739FE0E4900F04CF80100002016
:10599400FFF790FE02B010BD008000403CB0004014
:1059A40030B00040002F685900800240008C8647C8
:1059B40000C00240001BB70040597307006CDC02B2
:1059C40040420F0001480421014B1847C0D6002073
:1059D400F5540020124A936F9B0815D29066D16645
:1059E400002905D0FFE7FFE7FFE7516F106F70470D
:1059F40004B580210906C2175140002800D0C843CD
:105A040004F03CFC002104BDF0B5146E556E576FD4
:105A1400166FFFF7E3FF1466556657671667F0BD08
:105A2400000000D0114A936F9B0813D21066516690
:105A3400002905D0FFE7FFE7FFE7516F106F7047BC
:105A440004B5002801D00020C04304F017FC002155
:105A540004BDC046F0B5146E556E576F166FFFF750
:105A6400E5FF1466556657671667F0BD000000D061
:105A7400132370B51D78012D19D014DD1F48FFF7CD
:105A840029FE06001E48FFF725FE1E4C8022310029
:105A9400200000F0D1F9022D2DD01B48FFF712FE93
:105AA4001A4B186070BD1A4B164CA364F5E7184BDB
:105AB400144C23606360A360E36023616361A361AA
:105AC400E36123626362A362E36223636363A363A8
