:020000041000EA
:1000000000B5324B212058609868022188439860DF
:10001000D860186158612E4B002199600221596106
:100020000121F02299502B49196001219960352056
:1000300000F044F80222904214D00621196600F024
:1000400034F8196E01211966002018661A6600F04E
:100050002CF8196E196E196E052000F02FF8012189
:100060000842F9D1002199601B49196000215960AB
:100070001A491B48016001219960EB211966A021F2
:10008000196600F012F800219960164914480160C1
:100090000121996001BC002800D000471248134993
:1000A000086003C880F30888084703B5996A0420EC
:1000B0000142FBD001200142F8D103BD02B5186610
:1000C0001866FFF7F2FF186E186E02BD00000240BE
:1000D000000000180000070000035F00212200005C
:1000E000F4000018222000A00001001008ED00E03C
:1000F00000000000000000000000000074B24E7A12
:1001000000200420F7010010C3010010C5010010F9
:10011000C1010010C1010010C1010010C101001097
:10012000C1010010C1010010C1010010C701001081
:10013000C1010010C1010010C9010010CB01001065
:10014000CD010010CD010010CD010010CD01001037
:10015000CD010010CD010010CD010010CD01001027
:10016000CD010010CD010010CD010010CD01001017
:10017000CD010010CD010010CD010010CD01001007
:10018000CD010010CD010010CD010010CD010010F7
:10019000CD010010CD010010CD010010CD010010E7
:1001A000CD010010CD010010CD010010CD010010D7
:1001B000CD010010CD010010CD010010CD010010C7
:1001C00000BE00BE00BE00BE00BE00BEEFF3058054
:1001D000103800BEF2EB8871809B0510AC9B0510B7
:1001E0003802001090A31AE71E481F49086006C88D
:1001F00081F3088810471D480068002801D019487D
:10020000F3E70DA40ECC002902D000F012F8F9E7B4
:100210001749184A002000E001C19142FCD116495B
:100220008847164988471649884700BEFDE701C937
:1002300001C29A42FBD37047AC9B0510C00000205E
:100240008819002074B40510000004200000042068
:1002500074B40510001004200010042000000000F9
:10026000704700000000000008ED00E0000000D032
:1002700088190020AC34002049B80010FD39001066
:1002800009B80010F8B5C04606480749091A8B108E
:10029000C90FC91810B5491003D0044B002B00D06A
:1002A000984710BD88190020881900200000000020
:1002B000054B10B5002B03D00449054800E000BFF2
:1002C000FFF7E2FF10BDC046000000002030002014
:1002D000643D041010B50121040011F09FFB0138AA
:1002E00004F060FC011C20000FF0DCF9012010BDBF
:1002F00010B5012111F092FB034B010018000BF027
:1003000045FD002010BDC046683D041010B5012118
:10031000040011F083FB104B1B68002B12D0421E0F
:10032000012A0FD8012813D0F622985A00B208F0FB
:10033000A5FF0A4908F03FFFE821890508F03BFFC7
:10034000011C00E0002120000FF0ACF9012010BDDD
:10035000F422985A00B2EAE7C41E00200000C04010
:1003600010B50121040011F059FB2100013804F0FF
:1003700035F80321200049420EF0E4FB002010BDB7
:1003800070B50121040011F049FB02210500200095
:1003900011F044FB0100681E04F052F80321200014
:1003A00049420EF0CFFB002070BDC04670B5012160
:1003B000040011F033FB02210500494220000EF039
:1003C000C1FB681E04F0D0F8010020000FF072F9A4
:1003D000012070BD074B10B51B68002B06D05933A8
:1003E000FF3319680FF066F9012010BD00210FF0EE
:1003F00061F9F9E7C41E002010B50121040011F0D5
:100400000DFB013804F0C8F80221200049420EF02B
:1004100099FB002010BDC04670B50121040011F009
:10042000FDFA02210500200011F0F8FA0321060070
:10043000200011F0BBFA3100021C681E04F0B8F86D
:100440000421200049420EF07DFB002070BDC04613
:1004500070B50121040011F0E1FA0221050020002D
:1004600011F0DCFA0100681E04F0B4F80321051C49
:10047000494220000EF066FB2000291C0FF012F903
:10048000012070BD70B50121040011F0C7FA0221EE
:100490000500200011F08AFA041C681EC0B204F0A6
:1004A0001FFF00280CD0221C064904F065FF201C09
:1004B00008F054FF02000B00034829000BF066FC13
:1004C000002070BDCD040010A43D041070B5134A87
:1004D00086B013680600013313600D1C082200214A
:1004E00004A809F043FC0E4B01AC019301236660A4
:1004F0002373A56006F06CFC00290AD0FA220023C1
:10050000920007F0DFFD2061200005F0CBFA06B075
:1005100070BDFA21890007F097FDF4E7D81E00208E
:100520000D18001070B5194A86B013680400013325
:100530000D1C136007280BD8FC21281C890508F026
:1005400087FE431E9841124B1A57824217D0185506
:100550000822002104A809F009FC0E4B01AE01930A
:100560007460B56006F034FC00290AD0FA2200233A
:10057000920007F0A7FD3061300005F093FA06B055
:1005800070BDFA21890007F05FFDF4E7D41E00205A
:10059000401000205D16001010B5040006F018FC95
:1005A000002912D0FA220023920007F08BFD08F0F8
:1005B00029F80022074B07F094FF08F0A7F8011C68
:1005C00020000FF06FF8012010BDFA21890007F01C
:1005D0003BFDECE700408F40F0B5DE4657464E4607
:1005E00045460400E0B52D4887B00BF0CFFB012154
:1005F000200011F013FA02210500200011F0D6F9B5
:1006000003218146200011F0D1F900228246042105
:10061000200011F08FF90400484608F09FFE049076
:100620000591504608F09AFE049A059B06000F00BB
:100630001B4829000096019702940BF0A7FB681E47
:10064000C0B204F04DFE8046002821D0200004F006
:100650005BFE834621005A4612480BF097FB5B462F
:100660004A46404610490093534604F09DFE049AC2
:10067000059B2900009601970C4802940BF086FB1D
:10068000002007B0F0BCBB46B246A946A046F0BD6C
:10069000290007480BF07AFBF2E7C046CC3D041076
:1006A000F43D04102C3E041025050010543E0410A7
:1006B0008C3E0410F0B5CE46474680B5012185B08A
:1006C000040011F0ABF902210500200011F06EF9D1
:1006D0000321061C200011F069F904218046200046
:1006E00011F064F98146681EC0B204F0F9FD0028DB
:1006F0001CD001234246104900934B4604F054FE9F
:10070000301C08F02BFE060048460F0008F026FEBD
:1007100002900391404608F021FE084C00900191A0
:1007200032003B00290020000BF030FB002005B018
:10073000C0BCB946B046F0BD25050010B43E04105B
:10074000F0B5CE46474680B5012193B0040011F0C4
:1007500065F90221804620000EF040FB052808D0F4
:1007600025480BF013FB002013B0C0BCB946B046BF
:10077000F0BD0321200011F019F90221814620006B
:100780000EF080FE0700102831DC002815DD012561
:1007900002AE2A00022120000FF0DEF90121002222
:1007A000494220000EF038FD022101C649422000D6
:1007B00001350EF0C7F9AF42EBDA4346581EC0B21E
:1007C00004F08EFD0028CED04B4602AA00930B49C0
:1007D0003B0004F02BFF484608F0C0FD084C009099
:1007E00001913A00414620000BF0D0FABBE71027F8
:1007F0000028CCDCE1E7C046F03E0410A50F001055
:100800001C3F0410F0B5C64600B5012194B00400A9
:1008100011F004F90221060020000EF0DFFA002793
:1008200005282CD00321200011F0C0F80421051C5C
:10083000200011F0BBF88046701EC0B204F050FDDD
:10084000002817D0434604AA2049019300953B0095
:1008500004F0C8FD404608F081FD02900391281C79
:1008600008F07CFD1A4C009001913A003100200004
:100870000BF08CFA002014B080BCB846F0BD022109
:1008800020000EF0FFFD070010281BDC0028C9DD4A
:1008900004AB984601252A00022120000FF05CF9E4
:1008A00001210022494220000EF0B6FC43460221FD
:1008B00001C349422000013598460EF043F9AF428A
:1008C000E9DAAFE710270028E2DCABE7A50F00105C
:1008D0004C3F041070B50121040011F09FF8022173
:1008E0000500200011F062F8041C681EC0B204F07C
:1008F000F7FC00280CD0221C064904F0EBFE201C5B
:1009000008F02CFD02000B00034829000BF03EFA12
:10091000002070BDA50F0010883F0410F0B5C6463A
:1009200000B5012182B0040011F078F80221050021
:10093000200011F03BF80321061C200011F036F8CE
:100940008046681EC0B204F0CBFC002815D0321CD3
:1009500043460C4904F0F4FE301C08F0FFFC06008E
:1009600040460F0008F0FAFC074C0090019132005D
:100970003B00290020000BF009FA002002B080BCE7
:10098000B846F0BDA50F0010B03F041070B50121AE
:10099000040011F043F802210500200011F006F8D0
:1009A000041C681EC0B204F09BFC00280CD0221C62
:1009B000064904F0FBFE201C08F0D0FC02000B00EE
:1009C000034829000BF0E2F9002070BDA50F0010CC
:1009D000E03F041010B5012111F020F804000138A7
:1009E000C0B204F07DFC002805D004F0BBFC21005F
:1009F00002480BF0CBF9002010BDC0462040041087
:100A000070B50121050011F009F802210400280049
:100A100010F0CCFF051C011C200004F0A5FF281CD1
:100A200008F09CFC02000B00024821000BF0AEF91C
:100A3000002070BD4C40041070B50121050010F07D
:100A4000EDFF02210400280010F0B0FF051C011C7E
:100A5000200004F089FF200004F046FF281C08F065
:100A60007DFC02000B00034821000BF08FF90020F1
:100A700070BDC0466C40041010B5012110F0CEFFCF
:100A8000040004F051FF210002480BF07FF9002020
:100A900010BDC0469440041070B50121050010F04F
:100AA000BDFF02210400280010F0B8FF050001007E
:100AB000200004F06BFF2A00210002480BF066F9C9
:100AC000002070BDA840041070B584B00C0003ABCA
:100AD00002AA01A9060006F0A9FF051E04D1002CF8
:100AE00009D1200004B070BD039A0299019806F064
:100AF000C1FE2C00F5E73100014805F0E9FBC046D6
:100B0000C4400410F0B5C64600B582B004000EF033
:100B100011F82049070020000EF084FE002F2CDD84
:100B20000023012598460121200049420EF026F9B4
:100B3000290020000EF022F9434601220121200065
:100B4000009300230FF06EFB012100222000494298
:100B50000EF020FC061E08D0012D02D009200BF05B
:100B600047F831000C480BF011F9022120004942EE
:100B700001350DF0E7FFAF42D5DA08480BF082F8F7
:100B8000074B1B68986832F09FFE002002B080BCC3
:100B9000B846F0BDF8400410E05C0410F03D0410CD
:100BA000D017002010B5040082B018480BF06AF886
:100BB00000220092A8222000154B1649D20011F005
:100BC000C9F9002809D101900090002300220021DA
:100BD00020000FF04DFB002814D0012100224942D3
:100BE00020000EF0D7FB011E0AD00B480BF0CEF808
:100BF0000221200049420DF0A5FF002002B010BDE7
:100C00000649F2E706480BF03DF8F6E714410410F8
:100C10003C410410088B041080410410044104106E
:100C200054410410F0B5C64600B504000DF082FF33
:100C30000100022855DD00220121200010F07AFE7B
:100C400002210500200010F0E9FE4E4906002800B0
:100C500037F086F900281BD028004B4937F080F97F
:100C6000002854D02800494937F07AF900283CD1AF
:100C70000321200010F09AFE08F070FB02000B0028
:100C8000434831000BF082F8002080BCB846F0BD2C
:100C90002000032110F08AFE3E4D041C2B681F2B00
:100CA00029DD3D4B1D68002DEED0771E032FEBD8BC
:100CB0003A49201C08F0CCFA002833D13849201CCE
:100CC00008F0B0FA002842D1201C364908F073FA27
:100CD00008F0F6FA34498046C00207F08DF904B2F4
:100CE00024E032480BF052F8CEE7320029003048B9
:100CF0000BF04CF8C8E708F031FB0B0002003100A4
:100D00002C480BF043F82B6801332B60C9E7032113
:100D1000200010F083FE284B0200310018000BF079
:100D200035F8B1E7204B802498462401424639002B
:100D3000224804F067FF032E17D0042E09D0022E9C
:100D400002D0D223EC529FE7D423EC529CE7144804
:100D5000BBE71B4B1A681B4B1B1BDB031B0C5340D5
:100D60001B04194A1B0C13608EE7154B1A68154BB0
:100D70001B1B5B101B0453401B0C134A1B0413600A
:100D800082E7C04608670410F041041028420410AE
:100D900030420410DC1E0020C41E00200000C040B1
:100DA0000000C0C000007A4470170000A841041081
:100DB00058420410D0410410F8410410601E002075
:100DC00048000540FF07000048100540F0B5DE462A
:100DD00057464E464546E0B56448C5B00AF052FF56
:100DE00063480AF04FFF05F0E3F880220023614ECC
:100DF000614C002130005200236008F0B7FF5F4BC8
:100E00005F4F9A465F4B01935F4B03935F4B99464D
:100E10005F4B98465F4B9B465F4B0293FA208000E6
:100E20000AF09AFE0500831C47D02368002B02DBE2
:100E30002368FF2B0ADD50460AF024FF802200239E
:100E4000002130005200236008F090FF2368FE2B41
:100E50004BDC00222368F5542368013323602368A8
:100E6000F2542368002B28D0721ED25C0D2A24D89D
:100E70004A4BD340DB0720D522680AE0511E735C41
:100E8000093BDBB2172B43D84548D840C0073FD5B4
:100E90000A00002AF2DC0023B354002A3AD122606F
:100EA00001320021FF32300008F060FFFA2080009C
:100EB0000AF052FE0500831CB7D1802104A8490026
:100EC00005F0A4F80028A9D004A948460AF05EFF5E
:100ED000414604A834F0AEFA00280FD03B68986869
:100EE00032F0F2FC05F0A8F898E7802200230021F8
:100EF00030005200236008F039FFAAE7594604A8E1
:100F000034F098FA0028E9D102980AF0BBFEE5E730
:100F10000023B354300005F05DF8002808D080228B
:100F20000023002130005200236008F01FFFC4E7B7
:100F300005F04EFF002912D0FA220023920007F09C
:100F4000C1F80500FA22019B92001B68EB1A93423C
:100F5000E5D903980AF096FE019B1D60DFE7FA21B0
:100F6000890007F071F80500ECE7C04684420410E0
:100F7000B8420410581D0020741E0020E0420410E6
:100F8000D0170020B420002014430410E05C0410AB
:100F9000283E0410AC460410F03D0410012400006B
:100FA0001300800070B5194A86B01368040001333D
:100FB0000D1C136007280BD8FC21281C890508F09C
:100FC00047F9431E9841124B1A57824217D01855C1
:100FD0000822002104A808F0C9FE0E4B01AE0193BF
:100FE0007460B56005F0F4FE00290AD0FA220023EF
:100FF000920007F067F83061300004F053FD06B04E
:1010000070BDFA21890007F01FF8F4E7D41E002014
:10101000401000205D160010F0B5DE4657464E46E3
:101020004546E0B59BB0040004F056FFCF4AD049D6
:10103000136801338B4200D9CEE11360FA21CD4A07
:101040008900136801338B4239D300231360F422E3
:10105000A35AF623E15AA05AE55A00B208F00EF955
:10106000C54908F0A8F8E821890508F0A4F8FC2192
:101070004000400889052DB208F0EAF8002811D197
:10108000280008F0FBF8BC4908F095F8E82189052C
:1010900008F091F8FC2140004008890508F0D8F8D4
:1010A000002807D0B54BB64A1B68DB431B041B0C5A
:1010B000136005E0B14BB24A1B681B041B0C1360A4
:1010C000F423E05A00B208F0D9F8AB4908F073F8FD
:1010D000E821890508F06FF8F623061CE05A00B2F3
:1010E00008F0CCF8A44908F066F8E821890508F072
:1010F00062F8A449A44F0B68051C9A00D6511A0047
:10110000203292000133D0511F2B00DD04E20B602E
:101110000021301C08F07EF8002812D19B4B311CB6
:101120001868984608F094F8002801D043461E60DD
:10113000974B311C18689A4608F074F8002800D0C4
:1011400011E10021281C08F065F8002812D1914B0C
:10115000291C1868994608F07BF8002801D04B46F6
:101160001D608D4B291C18689B4608F05BF8002811
:1011700000D089E0894A7E49136801338B4200D947
:101180008BE01360864A136801332F2B07DC136052
:101190001BB0F0BCBB46B246A946A046F0BD00233A
:1011A0001360804B9A461B78002B00D0C0E17E4B29
:1011B000002699467D4F30223900300003F076FD3D
:1011C00039003022300003F0CBFD731C9846BC235D
:1011D000FD586949281C08F03BF8002826D17449BD
:1011E000281C08F01FF800284CD1281C714907F072
:1011F000E2FF08F065F870498346C00206F0FCFE85
:101200005A46310005B2484604F0FCFC4346032B25
:1012100018D16A4B03261A68694B5B1B5B101B04D1
:1012200053401B0C674A1B041360C4E7624B310038
:101230009B4648465A46802504F0E4FC43462D016F
:10124000032BE6D0042B05D0022B17D0D223012686
:10125000E552B0E7594B1A68594B5B1BDB031B0C7B
:1012600053401B04574A1B0C136053461B78002B3A
:1012700000D18DE7544842F0EBFC89E7D4230226E5
:10128000E55298E74A48B1E75B46444A1D60136857
:10129000374901338B4200D873E7002300201360E5
:1012A00004F01EF80700012004F01AF8374B0190F3
:1012B0009846002F00D1A5E01B684449181C9946A8
:1012C00007F0B0FF324B9A46002800D19CE01B6823
:1012D0003F49181C9B4607F0BBFF002800D193E054
:1012E0005946484607F0A4FF002800D18CE0494643
:1012F000584607F046FF019B0290002B00D180E189
:10130000244B324999461B68181C049307F08AFF46
:10131000214B9B4600280ED01B682D49181C0593B5
:1013200007F096FF002806D00599049807F080FF83
:10133000002800D074E1274B9C461B78D9B2002BC3
:1013400000D0DEE0029B0895099300230125079653
:101350000A933B7C07AA1361FB6AF86902933E6A11
:101360003B6B03957FE053461E60EAE6A01F00201A
:101370007FBB0000A41F00200000C0409800054073
:1013800098100540B0200020AC1F00205410002011
:10139000501000204C10002048100020AC200020ED
:1013A000A81F00209F340020601E0020E01E0020A7
:1013B0000000C0C000007A447017000048000540DB
:1013C000FF07000048100540581E002020BCBE4CFE
:1013D00020BCBECC9E340020002301211360924B20
:1013E00092481A784A401A7003689149DB431B0CF3
:1013F0001B040B60002A00D020E603681B0C1B04B2
:101400000B601BE68B4B9A46019B002B00D1A3E09F
:10141000894B8A4999461B68181C049307F002FF00
:10142000002800D088E000230393854B0020002192
:101430009B460290834B9C461B78002B61D1029BFC
:1014400007AA079655609360D060002F00D19CE0FA
:101450003B7C019D1361FB6AF86902933E6A3B6B1A
:10146000002D00D1B5E0019F3D7C9061F869556188
:10147000D061386A1662506202989062F86A13630B
:10148000019BD0621B6B0193484241410A23039F99
:101490004942013F07989F4399436B4B43259E6CFC
:1014A00018609068593798601069593118619069CF
:1014B00001369861106A1862906A9862106B18631E
:1014C00038201D5402301D5402301F54002057682C
:1014D00018645F60D768DF6057695F61D769DF6153
:1014E000576AD26A5F62DA62019A5A6339229D545E
:1014F00002329D5402329954586462469E6401231C
:10150000137043465146514A1A60514B0B6049468D
:101510000A605A46136035E6002300200B60F96F1D
:1015200004F04CF9FC230120F95804F047F9EFE5E9
:10153000484842F0EDFB3AE6414B47499B461B6861
:10154000181C059307F084FE00280ED1002000230C
:101550000021029003936DE700200393364B002196
:101560009946374B02909B4664E70599049807F02B
:101570005FFE0023029300284ED0002303930499BA
:10158000059807F0FEFD012154E7019B1761002B30
:101590002CD018001B7C97615361C3691762D3611B
:1015A000036AC06A53620023936268E700230895C8
:1015B0000125079609900A933B7C03951E4D0B93DA
:1015C000A9461F4DFB6AAB460293F8693E6A3B6B26
:1015D00007AA906102980025906200205561D561AC
:1015E00016625562D062136301904DE753619361B7
:1015F000D3611362536200239362D3621363019336
:1016000042E7104B9C461B78D9B2002BCED00A4B38
:1016100099460B4B9B4674E70021181C039109E780
:1016200001230393ABE7C046A03400209800054097
:1016300098100540501000204C10002020BCBE4CDB
:10164000481000209E340020781E0020286B6E4E2B
:10165000286B6ECE581E002020BCBECCF0B5604A70
:10166000604D1368A3B0013313605F4B1C682B6897
:10167000002B00D16DE05D495D4A0B68DB431B0424
:101680001B0C1360002C67D0FC214768890580681B
:1016900007F0DEFD431E9841564E01373B00009097
:1016A0003200802102A809F0DBFF2B682068002BA4
:1016B00030D04E4B4E4A1B68DB431B0C1B0413609F
:1016C000002814D0237B002B29D102A910F052FC52
:1016D000031E206845D101930093002200230021BE
:1016E0000EF0C6FD00285CD12B68002B10D0424BB9
:1016F000424A1B683D49DB431B041B0C13600B680B
:101700003B4A1B041B0C13600B681B0C1B0413606F
:1017100023B0F0BD0028FBD0237B002BD5D0261DA5
:10172000300042F0F5FA206800280ED002A910F02F
:1017300021FC031E206824D1019300930022002382
:1017400000210EF095FD002837D1300042F080FADC
:10175000CAE7002C98D1DBE70B681B041B0C136055
:10176000D6E70121002249420DF014FE011E22D0CD
:1017700023480AF00BFB0221206849420DF0E2F9F0
:10178000B2E70121002249420DF004FE011E1ED0E5
:101790001B480AF0FBFA0221206849420DF0D2F9F9
:1017A000D3E701210022494220680DF0F3FD011E1C
:1017B0000FD01448DDE71449DAE70121002249423D
:1017C00020680DF0E7FD011E06D00E48E1E70E4946
:1017D000DEE70D490B48CCE70B490A48D9E7C0467C
:1017E000CC1E0020C41E0020C81E00207000054032
:1017F00070100540344304108400054084100540F7
:10180000684304108043041004410410F0B5544AA6
:10181000544E1368A3B001331360534B1C683368F4
:10182000002B36D05149524A0B68DB431B0C1B047A
:101830001360002C4DD04768806807F08FFD4D4D38
:101840000137009001913B002A00802102A809F095
:1018500007FF2068002811D0237B002B1CD102A990
:1018600010F088FB031E206838D1019300930022FA
:10187000002300210EF0FCFC002842D13368002B2D
:1018800005D03A4B3A4A1B681B0C1B04136023B06B
:10189000F0BD002CCFD1FAE7251D280042F038FA20
:1018A000206800280ED002A910F064FB031E2068F7
:1018B00036D1019300930022002300210EF0D8FCC2
:1018C00000283FD1280042F0C3F93368002BD8D15B
:1018D000DDE70B681B0C1B041360D8E70121002215
:1018E00049420DF057FD011E15D023480AF04EFA6B
:1018F0000221206849420DF025F93368002BC0D140
:10190000C5E701210022494220680DF043FD011E78
:1019100003D01A48EAE71A49E7E719491748E5E703
:101920000121002249420DF035FD011E08D0124868
:101930000AF02CFA0221206849420DF003F9C1E7B0
:101940000F49F4E701210022494220680DF022FDF1
:10195000011E01D00948EBE709490848E8E7C046FD
:10196000D01E0020C41E0020C81E00208400054098
:101970008410054098430410684304108043041009
:101980000441041070B5D02501220021072005F084
:10199000A5FD01220021062005F0A0FD0122002165
:1019A00005202D0605F09AFD0120002105F084F8A0
:1019B0006A686C686B6864069B06E40FDB0F1B01AA
:1019C000A4001C431306DB0F0022012107201C4347
:1019D00005F084FD00220121062005F07FFD002294
:1019E0000121052005F07AFD0120002105F064F8B1
:1019F00069686A6809066B68C90F5206490064B2D3
:101A0000D20F9B060C43D200DB0F5B0100210720A5
:101A1000144301221C4305F061FD01220021062030
:101A200005F05CFD64B201220021052005F056FDA1
:101A30002A2C05D0302C03D0FF200C2C00D070BDF8
:101A4000E0B2FCE7F0B54E46DE4657464546030099
:101A50008C46E0B563441B7985B0994601900291AC
:101A6000002B00D135E280468B00039363441B01B9
:101A7000984444460C20205607F000FCE84907F043
:101A80009AFB071CA06807F0F9FB00218246381C6E
:101A900007F07AFB0021041C504607F075FB391C47
:101AA000051C381C07F087FB002107F06DFB391C73
:101AB000061C504607F07FFB002107F065FB4A46F5
:101AC000071C012A00D1A5E142461420105607F058
:101AD000D5FBD34907F06FFB42468246106907F0F9
:101AE000CDFB51468346201C07F04EFB5946041C93
:101AF000281C07F049FB5146051C504607F05BFBCC
:101B0000011C301C07F040FB5146061C584607F0EC
:101B100052FB011C381C07F037FB4A46071C022AFF
:101B200000D177E142461C20105607F0A7FBBC49C4
:101B300007F041FB42468246906907F09FFB514601
:101B40008346201C07F020FB5946041C281C07F084
:101B50001BFB5146051C504607F02DFB011C301C99
:101B600007F012FB5146061C584607F024FB011CE7
:101B7000381C07F009FB4A46071C032A00D149E13B
:101B8000424600202432105607F078FBA44907F0A3
:101B900012FB42468246106A07F070FB51468346AC
:101BA000201C07F0F1FA5946041C281C07F0ECFA37
:101BB0005146051C504607F0FEFA011C301C07F088
:101BC000E3FA5946061C504607F0F5FA011C381C8A
:101BD00007F0DAFA4A46071C042A00D11AE1424605
:101BE00000202C32105607F049FB8D4907F0E3FA2C
:101BF00042468246906A07F041FB51468346201CCC
:101C000007F0C2FA5946041C281C07F0BDFA5146D9
:101C1000051C504607F0CFFA011C301C07F0B4FA3F
:101C20005946061C504607F0C6FA011C381C07F03E
:101C3000ABFA4A46071C052A00D1EBE042460020D9
:101C40003432105607F01AFB754907F0B4FA4246D1
:101C50008246106B07F012FB51468346201C07F0AA
:101C600093FA5946041C281C07F08EFA5146051CAD
:101C7000504607F0A0FA011C301C07F085FA5946BF
:101C8000061C504607F097FA011C381C07F07CFA36
:101C90004A46071C062A00D1BCE0424600203C32DE
:101CA000105607F0EBFA5E4907F085FA4246824685
:101CB000906B07F0E3FA51468346201C07F064FA64
:101CC0005946041C281C07F05FFA5146051C504673
:101CD00007F071FA011C301C07F056FA5946061C31
:101CE000504607F068FA011C381C07F04DFA4A46C6
:101CF000071C072A00D18DE04246002044321056CE
:101D000007F0BCFA464907F056FA42468246106C84
:101D100007F0B4FA51468346201C07F035FA5946BD
:101D2000041C281C07F030FA5146051C504607F0E9
:101D300042FA011C301C07F027FA5946061C50468F
:101D400007F039FA011C381C07F01EFA4A46071C36
:101D5000082A5FD0424600204C32105607F08EFA17
:101D60002F4907F028FA42468246906C07F086FA1F
:101D700051468046201C07F007FA4146041C281CE7
:101D800007F002FA5146051C504607F014FA011CF0
:101D9000301C07F0F9F94146061C504607F00BFAD3
:101DA000011C381C07F0F0F94A46071C092A31D0FB
:101DB0000298019A84469046039B63441B01984411
:101DC00042465423D05607F059FA154907F0F3F963
:101DD00043468246186D07F051FA51468046201C52
:101DE00007F0D2F94146041C281C07F0CDF95146F2
:101DF000051C504607F0DFF9011C301C07F0C4F940
:101E00004146061C504607F0D6F9011C381C07F065
:101E1000BBF9071C211C201C07F0CDF9804601E00E
:101E2000CDCCCC3D484607F029FA311C814607F05D
:101E3000C2F9414607F0A5F90021061C07F0EAF9AE
:101E4000002842D1391C484607F0B5F9291C071C67
:101E5000201C07F0B0F9011C381C07F092F9311C66
:101E600007F095F91E49071C07F0A5F9FC21890523
:101E700007F08AF907F024FA8046029B211C1E0114
:101E8000019B381C9C4666443300A8331F6007F052
:101E900092F9011C281C07F074F9494607F077F9FC
:101EA0003300AC3342461860FC21B0238905F25060
:101EB00007F06AF907F004FAB423F05005B0F0BC5B
:101EC000BB46B246A946A046F0BD0023002798466F
:101ED000D3E7002398461F1C1E1C1D1C1C1CA1E7D9
:101EE000ABAAAA3FF0B5DE464E4645465746E0B59A
:101EF000EC250700002414225C269DB0CB49057315
:101F0000CB4B0390CB483961B8603A77BB613C75E5
:101F1000BD55B86564203C5439666C217A5402AAD8
:101F20009446BB660F23A336634498461E70C24B8B
:101F30001474994606AA01231C39484600940CF0F3
:101F4000D1FC012342465021484600940CF0D4FCB9
:101F500043466A461D781E70012350211376484679
:101F600006AA00940CF0BEFC0123424650214846CC
:101F700000940CF0C1FC43461B782D021D43AF4B6F
:101F80009D4200D04AE102AB9C46FF2306AA0E25E3
:101F9000160000249B460027924665445B462B7042
:101FA000434642461C7050210123484600970CF0DE
:101FB00099FC01232A005021484600970CF09CFC14
:101FC0002B78013433700136582CE7D106AC5246D9
:101FD0009B499C48563427E049008BB209B200293E
:101FE0002EDB5B0099B21BB2002B2FDB49008BB2BA
:101FF00009B2002930DB5B0099B21BB2002B31DB48
:1020000049008BB209B2002932DB5B009DB21BB2E2
:10201000002B33DB6D00A9B22DB2002D34DB49005B
:10202000013289B2944235D013781B0259400BB269
:10203000002BD1DA5B00434019B29BB20029D0DA01
:10204000490041400BB289B2002BCFDA5B0043401C
:1020500019B29BB20029CEDA490041400BB289B2D5
:10206000002BCDDA5B00434019B29BB20029CCDAD9
:102070004D0045402BB2ADB2002BCBDA59004140A8
:102080000DB289B2002DCADA6D0045400132A9B205
:102090009442C9D11020562302AA1218D35A5BBA0F
:1020A0009BB28B4200D0B9E0039B00221D00043399
:1020B0009946242317009A4607AC08350FAE4A46C6
:1020C0002378D355002B00D19AE0A278E17812064C
:1020D00009040A4361790A43217909020A436178B4
:1020E0002A602971012B00D18AE0E279217A120657
:1020F00009040A43A17A0A43617A09020A43A179D1
:10210000AA602973022B7BD0227B617B1206090413
:102110000A43E17B0A43A17B09020A43E17A2A616F
:102120002975032B6CD0A27C617C120409060A433A
:10213000217D0A43E17C09020A43217CAA612977B7
:10214000042B5DD05046A27DE17D120609040A43AE
:10215000617E0A43217E09020A43617D29542A6275
:10216000052B4DD0E27E217F120609040A43A17F90
:10217000A07E0A43617F09020A432C216854AA62A7
:10218000062B3DD032787178120609040A43F178A3
:10219000E07F0A43B17809020A43342168542A6374
:1021A000072B2DD07279B179120609040A43317ACE
:1021B00030790A43F17909020A433C216854AA6341
:1021C000082B1DD0B27AF17A120609040A43717BFA
:1021D000707A0A43317B09020A43442168542A6415
:1021E000092B0DD0F37B327C1B0612041343B27C07
:1021F000B17B1343727C120213434C22A954AB648B
:1022000039000398FFF71EFC7B1C29340127503549
:102210002936022B00D052E7002000E001201DB03B
:10222000F0BCBB46B246A946A046F0BD50FC030038
:1022300040A90200344E050030110020D1070000F3
:10224000FFFF000021100000F0B5D6464F4646467D
:10225000C0B50700EE4B102203600021D83007F014
:1022600085FD0023E8223800BB520232BB52002118
:10227000E23AEC3007F07AFD8023F4221B01BB52D6
:1022800002320024BB523800F8230021FC54DE3A0D
:10229000FC3007F06BFD3800153006220021FF30BE
:1022A00007F064FDA4235B00FC541E230822FF33C7
:1022B000FC54D84B00251A60E022D74BD2011B6892
:1022C00001261340D54A13608D235B00FC54063B66
:1022D000FC541623FF33FC540133FC541823FF3302
:1022E000FC540133FC541A23FF33FC54CC4CA31D83
:1022F0009946CC4B9846237804219A46180005F05D
:10230000D3F853460421581C05F0CEF853465246E4
:102310005B081F2A00D977E107221A4093009B1817
:10232000C149C24A9B009A18591815600D60C049EE
:1023300059180D60BF498C4641466344196010230B
:10234000536016602378013359081F2B00DD57E1D5
:1023500007220A4093009B18B349B44A9B009A187D
:10236000591815600D60B24959180D60B1498C4675
:1023700041466344196010235360166023785A085D
:102380001F2B00D938E1072111408A005218A849B3
:1023900092005118096840468C4631001940494264
:1023A000414060460140A4480133844662441160C4
:1023B0005A081F2B00DD1BE10721114040468A000F
:1023C00052189B4992005118334009685B424340C0
:1023D0000B40994902348C4662441360A1458AD16E
:1023E000072005F0A3F8062005F0A0F8D02405206A
:1023F00005F09CF880232406A362403BA362203BA7
:10240000A3623800FFF7BEFAD023F854142005F079
:102410008DF800220021142005F060F8042005F05A
:1024200085F810236362A36198460CF06FFA1F21B0
:102430001B2005F039F8002200211B2005F04EF882
:1024400000211B2005F05EF81F211A2005F02CF852
:10245000002200211A2005F041F800211A2005F081
:1024600051F81F211C2005F01FF8002200211C201C
:1024700005F034F800211C2005F044F81F211D2030
:1024800005F012F8002200211D2005F027F8002198
:102490001D2005F037F8182005F048F8192005F040
:1024A00045F880235B04636280239B0463620820F9
:1024B00005F03CF880235B0063620920636105F04E
:1024C00035F880239B0063620220636105F02EF8DB
:1024D00004230022A3620121022004F0FFFF032055
:1024E00005F024F808230022A3620121032004F050
:1024F000F5FF524B5249994618000CF023FA022579
:102500004B46504A5B6815604A4611680F2251409D
:10251000C0320A404C492B400A604C4A01211360EA
:10252000122004F0C1FF0121132004F0BDFF01219E
:10253000152004F0B9FF464946480CF0ABF90321D9
:10254000102004F0B1FF0321112004F0ADFF04219D
:10255000172004F0A9FF0421162004F0A5FF002293
:102560004046324B3C49DA635A649A64D964186431
:10257000DE63DA635A649A64D9641864DE63802384
:102580003649DB040A68002053401B0C344A1B0404
:10259000136080230968DB004B401B041B0C136095
:1025A00004F0C4FF6662012004F0C0FF65623800D9
:1025B000FFF798FCC8239846B844404603F064FEF1
:1025C00014264346274C284D18685968274A284B3B
:1025D00006F0BAFD013E00196941002EF6D14346CE
:1025E000186059603800E0BCBA46B146A846F0BD54
:1025F000032111400831E1E6032111400831C4E60E
:1026000003220A400832A5E603221A40083285E672
:10261000F88A041000F0044000C0044000D00440D8
:1026200068DF0410FFFF00000800054000000540BF
:102630000C000540100005400C10054000C0034090
:10264000286BEE0004F0034000D0034004E0034098
:10265000A086010030110020FF070000480005405F
:10266000481005404F8167F77E7B05142D7F954C00
:102670002DF45158F0B5DE4657464E464546E0B576
:1026800085B004000CF056FA012806D02000DC4981
:102690000DF038F820000DF04FFF012120000CF064
:1026A0009DFB05282ED0D74920000DF0BBF8012155
:1026B00020000CF063FB0023012201212000009385
:1026C0000DF0B0FD01210022494220000CF062FE15
:1026D000011E02D0CC4809F059FB022120004942DA
:1026E0000CF030FAC94809F0CDFAC94B1B6898685C
:1026F00031F0EAF8002005B0F0BCBB46B246A9466E
:10270000A046F0BDC34B18009B4609F0BBFA200061
:102710000CF0C2FF01212000BF4D0DF01FFF00286B
:1027200000D1C9E0280009F031FB02212000494214
:102730000CF054FB042800D1C2E0022120004942E1
:102740000CF04CFB032800D17AE1B44809F01EFBE1
:102750000121200049420CF041FB05287CD12000DA
:102760000CF0E8F90700010020000CF037FB052809
:1027700000D0B1E0B946584609F084FA20000CF0C8
:102780008BFFA74EA54B49462000B0461E000DF01A
:10279000E5FE002858D0280009F0F8FA280009F0D2
:1027A000F5FA0221200049420CF018FB042800D160
:1027B0009FE00221200049420CF010FB032800D1C9
:1027C000C3E1300009F0E2FA0121200049420CF097
:1027D00005FB052800D085E020000CF0ABF90700D0
:1027E000010020000CF0FAFA052800D18DE085499F
:1027F00020000DF017F8390020000CF0BFFA00237C
:1028000001220121200000930DF00CFD0121002286
:10281000494220000CF0BEFD011E02D07A4809F0AA
:10282000B5FA0221200049420CF08CF9404609F02B
:1028300029FA0221200049420CF084F9494620007F
:102840000DF08CFE0028A6D1280009F09FFA7D200B
:10285000464609F0CDF920E06A4920000CF0E2FF7D
:102860000221494220000CF089FA002301220121B3
:10287000200000930DF0D6FC0121002249422000E7
:102880000CF088FD011E02D05F4809F07FFA02219A
:10289000200049420CF056F9614E300009F0F2F97F
:1028A0000221200049420CF04DF9012120000DF0D9
:1028B00055FE002800D035E77D2009F099F911E791
:1028C00002210022200049420CF064FD554B01001A
:1028D000180009F05BFA3BE74A4920000CF0A2FF20
:1028E0003900BFE7474920000CF09CFF0221494214
:1028F00082E702210022200049420CF04BFD494BA7
:102900000100180009F042FA5EE7B2463E00584660
:1029100009F0B8F920000CF0BFFE404B3100200058
:1029200002930DF01BFE002858D0280009F02EFA63
:10293000280009F02BFA280009F028FA02212000CB
:1029400049420CF04BFA04286ED002212000494283
:102950000CF044FA032800D105E1029809F016FAB8
:102960000121200049420CF039FA052841D120000C
:102970000CF0E0F80700010020000CF02FFA052809
:102980006CD0204920000CF04DFF390020000CF0E5
:10299000F5F9002301220121200000930DF042FCF3
:1029A00001210022494220000CF0F4FC011E02D05B
:1029B000154809F0EBF90221200049420CF0C2F859
:1029C000404609F05FF90221200049420CF0BAF8B4
:1029D000310020000DF0C2FD0028A6D1280009F02A
:1029E000D5F9280009F0D2F97D20564609F000F902
:1029F0001CE7044920000CF015FF02214942C5E7FD
:102A0000F4430410F8400410E05C0410F03D04109E
:102A1000D0170020CC430410D0430410E843041026
:102A2000F0430410D4430410022100222000494244
:102A30000CF0B0FC5A4B0100180009F0A7F98FE721
:102A400002210022200049420CF0E6FB06F086FC41
:102A500002000B00534809F099F979E6584609F04D
:102A600011F920000CF018FE4F4B390020000393A1
:102A70000DF074FD00284FD0280009F087F92800D8
:102A800009F084F9280009F081F9280009F07EF99D
:102A90000221200049420CF0A1F9042849D002216A
:102AA000200049420CF09AF903286AD0039809F0F3
:102AB0006DF90121200049420CF090F93B492000BA
:102AC0000CF0B0FE0221200049420CF057F900231F
:102AD00001220121200000930DF0A4FB012100221E
:102AE000494220000CF056FC011E02D0304809F08B
:102AF0004DF90221200049420CF024F8404609F02B
:102B0000C1F80221200049420CF01CF839002000D5
:102B10000DF024FD0028AFD1280009F037F9280076
:102B200009F034F9280009F031F97D2009F060F846
:102B300046E702210022200049420CF02BFC184BF2
:102B40000100180009F022F9B3E702210022200059
:102B500049420CF061FB06F001FC02000B00114839
:102B600009F014F930E602210022200049420CF05D
:102B700053FB06F0F3FB02000B000A4809F006F9CC
:102B8000EEE602210022200049420CF045FB06F04F
:102B9000E5FB02000B00034809F0F8F889E7C0469E
:102BA000D4430410DC430410E8430410F84004103C
:102BB000E05C041070B50368040082B0002B00D103
:102BC0009AE0BF4809F05EF80022BE4B2068BE497B
:102BD0000092BE4A0FF0BEF9031E00D07CE02068D0
:102BE000012201930093002100230DF041FB051EFB
:102BF00072D1B74E206831000DF09EF83100206888
:102C00000CF010FEB34920680DF096F8B24809F0B8
:102C100039F8B24B2068B249B24A00950FF09AF9E0
:102C2000031E00D06CE02068002201930093002175
:102C300000230DF01DFB002862D1AB4920680FF086
:102C400099F9031E00D109E10121002249422068BF
:102C50000CF0A0FB011E00D121E1A44809F096F878
:102C60000221206849420BF06DFFA14809F00AF8E3
:102C70000022A04B2068A0490092A04A0FF06AF9F8
:102C8000031E48D1206801220021019300930DF01A
:102C9000EFFA00283FD19A4920680DF04DF8994984
:102CA00020680FF067F9031E0BD101222068002174
:102CB00001930093524200230DF0DAFA002800D16C
:102CC000F5E001210022494220680CF063FB011E5F
:102CD00000D1E9E08C4828E0012100224942206827
:102CE0000CF058FB011E09D0884809F04FF802216A
:102CF000206849420BF026FF02B070BD8449F3E71B
:102D000001210022494220680CF044FB011E00D141
:102D1000A1E08048E9E701210022494220680CF047
:102D200039FB011E00D1B6E07B4809F02FF80221E3
:102D3000206849420BF006FF784809F027F8002286
:102D4000774B206877490092774A0FF003F9031E0A
:102D500029D1206801220021019300930DF088FA07
:102D6000002820D1714920680CF0E6FF70492068E6
:102D70000FF000F9031E0BD10122206800210193FE
:102D80000093524200230DF073FA002800D192E024
:102D900001210022494220680CF0FCFA011E00D1FA
:102DA0007FE0644808E001210022494220680CF0DD
:102DB000F1FA011E6DD0604808F0E8FF022120689A
:102DC00049420BF0BFFE5D4808F0E0FF00225C4B7B
:102DD00020685C4900925C4A0FF0BCF8031E10D1D9
:102DE000206801220021019300930DF041FA002890
:102DF00007D1206855490CF09FFF554808F0C6FFE1
:102E00000FE001210022494220680CF0C3FA011EA4
:102E10003DD0504808F0BAFF0221206849420BF02B
:102E200091FE4D4920680FF0A5F8031E23D0012123
:102E30000022494220680CF0ADFA011E2DD047480F
:102E400008F0A4FF0221206849420BF07BFE4448B1
:102E500008F09CFF50E72E492E4846E701222068E3
:102E6000002101930093524200230DF001FA002843
:102E700000D0E9E6F9E601222068002101930093E1
:102E8000524200230DF0F4F90028D0D1DFE72049A9
:102E9000BFE71F498FE71E4946E71D49CFE71C4999
:102EA000DBE61B49234887E7194917483DE72D48CA
:102EB00008F06CFF40E72C4808F068FF83E7C04645
:102EC0001C44041040440410F0CC0410751200009F
:102ED000484404104C44041050440410744404103A
:102EE0004CC60410A1060000A04404107045041054
:102EF000944504104841041038BB0410120B000024
:102F0000BC450410C4450410D44604108044041089
:102F1000044104104C45041090460410F846041077
:102F200020470410B4A80410831200002C4704109A
:102F30003447041018480410C04704103C480410DB
:102F4000644804106C9D0410450B00007048041088
:102F500078480410A8480410C8480410144C041001
:102F60003C4C0410B0460410E047041070B5040057
:102F70000068002801D024F047FA0FF0EFFA206033
:102F8000002800D124E11AF06BFE0022924920684B
:102F90000CF0FCFB914D206829000CF0CDFE0022C6
:102FA0008F4920680CF0F2FB8E4920680CF0C4FEBB
:102FB00000228D4920680CF0E9FB8C4920680CF058
:102FC000BBFE00228A4920680CF0E0FB894920689A
:102FD0000CF0B2FE0022002120680CF0FFFD002260
:102FE000854920680CF0D2FB02212A002068494262
:102FF0000CF0E4FE814920680CF09EFE002280491E
:1030000020680CF0C3FB7F4920680CF095FE00227D
:103010007D4920680CF0BAFB7C4920680CF08CFEDE
:1030200000227B4920680CF0B1FB7A4920680CF043
:1030300083FE0022784920680CF0A8FB77492068BD
:103040000CF07AFE0022764920680CF09FFB75494F
:1030500020680CF071FE0022734920680CF096FB8A
:10306000724920680CF068FE0022714920680CF05B
:103070008DFB704920680CF05FFE00226E492068CD
:103080000CF084FB6D4920680CF056FE00226C4960
:1030900020680CF07BFB6B4920680CF04DFE002291
:1030A000694920680CF072FB684920680CF044FE06
:1030B0000022674920680CF069FB664920680CF023
:1030C0003BFE0022644920680CF060FB63492068E5
:1030D0000CF032FE0022624920680CF057FB614977
:1030E00020680CF029FE00225F4920680CF04EFB9E
:1030F0005E4920680CF020FE00225D4920680CF03B
:1031000045FB5C4920680CF017FE00225A492068F4
:103110000CF03CFB594920680CF00EFE0022584987
:1031200020680CF033FB574920680CF005FE0022A4
:10313000554920680CF02AFB544920680CF0FCFD2E
:103140000022534920680CF021FB524920680CF002
:10315000F3FD0022504920680CF018FB4F4920680D
:103160000CF0EAFD00224E4920680CF00FFB4D499F
:1031700020680CF0E1FD00224B4920680CF006FBB2
:103180004A4920680CF0D8FD0022002120680CF08C
:1031900025FD0022464920680CF0F8FA0221454A34
:1031A000206849420CF00AFE434920680CF0C4FD37
:1031B000002001F0E3F8012001F0E0F8022001F026
:1031C000DDF8032001F0DAF82000FFF7F3FC70BD12
:1031D0003A4808F057FDFAE7050B0010884C041038
:1031E00099050010A8700410D5030010904C04102D
:1031F000A50B0010A04C041075260010B44C041050
:1032000061030010B84C041081030010C84C041076
:10321000AD030010D44C0410F9030010E44C04106A
:1032200019040010F84C041051040010084D04104B
:10323000D5020010184D0410F1020010284D0410A2
:103240000D0300103C4D0410850400104C4D04107B
:10325000D9050010604D041041070010744D041092
:1032600005080010884D0410D5080010984D041072
:103270001D090010AC4D04108D090010BC4D041048
:10328000B5060010CC4D0410D5090010DC4D04101B
:10329000390A0010EC4D0410790A0010F84D0410A2
:1032A000010A0010044E0410990A0010144E041074
:1032B000250C0010244E04102C4E0410644C0410F5
:1032C000F0B5DE46454657464E46E0B5D64CA544D9
:1032D0000400D64808F05AFD32AA961DD44A2300AD
:1032E0009346D44A9A460C92D34A0D92D34A0E92F0
:1032F000D34A0B922200C8320A92D24A1992D24A79
:103300001A92D24A1B92D24A1192D24A1292D24AAD
:103310001392D24A1492D24A1592D24A1692D24AA3
:103320001792D24A1F92D24A2092D24A2192D24A6E
:103330002692D24A2792D24A0592D24A0792D24A7C
:103340000892D24A2892D24A2992D24A2392D24A49
:103350002492D24A2592D24A1C92D24A1D92D24A33
:103360002E92D24A9046D24A0692D24AD24D039227
:10337000D24AD34C0F92D34A0492D34A1892D34ADA
:103380000992D34A2292D34A1092D34A3192D34A15
:103390001E92D34A2A92D34A2B92D34A2C92D34AD2
:1033A0002D92D34A2F92D34A309225E002F02AFB85
:1033B0002B78002B1DD02368A3682369A369236A97
:1033C000A36A236B3823E35C3A23E35C3C23E35C8E
:1033D000236C6368E3686369E369636AE36A636B48
:1033E0003923E35C3B23E35C3D23E35C636C002314
:1033F0002B70012003F0D6FB802134A802F028FEB8
:103400000028D3D034A834F041FE022800D899E037
:10341000594634AB301803E00133984200D190E0B4
:103420001A785E2AF8D15A785E2AF5D19A78463A07
:10343000D2B2312AF0D892008A58974616988B4615
:10344000AA2702F023FE179808F0A0FC53467F003D
:10345000DB59002B00D15DE21F9808F097FC534622
:10346000D859002300932199209BA34A00680EF0AD
:1034700071FD011E00D1E0E1AA23524601215B004B
:10348000D3584942002218680BF084FF011E00D176
:1034900047E21C9808F07AFCAA23524602215B00FE
:1034A000D358494218680BF04DFB1D9802F0EEFD11
:1034B0000EE08B4680210A9B49001A685B6854A87D
:1034C000009201930B9A08F0CBF854A802F0DEFDAD
:1034D00002F0D2FD6AE78B4680210E9B0D9A009385
:1034E00049000C9B54A808F0BBF854A802F0CEFD8C
:1034F000EEE714988B4602F0C9FDE9E712988B4677
:1035000002F0C4FDE4E71A988B4602F0BFFDDFE746
:1035100019988B4602F0BAFDDAE71B988B4602F049
:10352000B5FDD5E715988B4602F0B0FDD0E71198B0
:103530008B4602F0ABFDCBE713988B4602F0A6FD5D
:10354000C6E78B46414634A834F00AFDAA235B0047
:10355000994653464A469F58002825D1002FB7D098
:1035600038680028B4D006990EF004FD031E3868B0
:103570002BD1019300930022002300210CF078FE50
:103580000028A5D001210022494238680BF002FF33
:10359000011E00D14FE1089808F0F8FB02213868BD
:1035A00049420BF0CFFA93E7039934A834F0D8FCE2
:1035B00000281BD1002F8BD03868002888D00F99A5
:1035C0000EF0D8FC031E3868D3D0012100224942F6
:1035D0000BF0E0FE011E00D1D4E0079808F0D6FB06
:1035E0000221386849420BF0ADFA71E7049934A81A
:1035F00034F0B6FC002800D080E0002F00D167E74F
:103600003868002800D163E718990EF0B3FC031E58
:103610003868AED00121002249420BF0BBFE011EEA
:1036200000D17BE10798B7E7ACFDFFFF304E0410F7
:10363000288A0410544E0410604E04108C4E04105E
:10364000984E0410B04E0410C84E0410D84E04100A
:10365000E44E0410004F0410184F0410284F0410BB
:10366000404F0410504F0410644F0410984F041042
:10367000C84F041048900410D44F04100450041094
:1036800004410410684304108043041034500410B3
:1036900068500410D8500410145104104C510410F8
:1036A000605104108051041098510410BC51041052
:1036B000DC510410005204109E3400201C520410EF
:1036C000781E0020385204104C520410645204102A
:1036D0007C520410A04C041098520410B0520410F4
:1036E000C4520410EC5204100C5304102053041064
:1036F00040530410E4530410220D0000099934A82B
:1037000034F02EFC002819D1002F00D1E0E63868F3
:10371000002800D1DCE622990EF02CFC81464B46B5
:103720003868002B00D075E74A464946019300935C
:103730000CF09EFD002800D1CAE623E7109934A8BA
:1037400034F00EFC002808D1002F00D1C0E6386804
:10375000002800D1BCE63199DEE71E9934A834F088
:10376000FFFB002810D1002F00D1B1E62A9808F005
:103770000DFB53464A469858FFF71CFA2B9808F061
:1037800005FBA5E6059928E72C9934A834F0E8FB59
:1037900000282DD1002F00D19AE62D9808F0F6FAD6
:1037A0004A4653469B5818689946002800D1CAE0FB
:1037B0002F990EF0DFFB4A46031E106800D0B2E0DE
:1037C00000273B003A003900019700970CF050FDAC
:1037D000B84200D1B7E04B4601213A00494218688F
:1037E0000BF0D8FD0100B84200D1FAE00898A2E041
:1037F000002F00D16CE63868002800D168E634A9B3
:103800000EF0B8FB031E386800D003E700231A004F
:1038100019000193009399460CF02AFD484500D108
:1038200056E601214A46494238680BF0B3FD0100D3
:10383000484500D0AFE60599ADE65346D859019109
:1038400000910B000A0000680CF012FD3290002875
:1038500000D011E6269808F099FA5346DB5918680B
:103860009946002800D182E027990EF083FB4B4651
:10387000071E18686BD13B003A003900019700978A
:103880000CF0F6FC002800D089E0AA2352465B0029
:10389000D35818689946002800D17CE029990EF089
:1038A00069FB4B46071E186865D13B003A0039009A
:1038B000019700970CF0DCFC002800D07AE052461B
:1038C000F423D05A023300B2D75A05F0D7FC464948
:1038D00005F071FCE821890505F06DFC05F03EFD61
:1038E0003FB232903391380005F0C8FC3E4905F0F4
:1038F00062FCE821890505F05EFC05F02FFD329A97
:10390000339B00900191249808F040FA259802F02A
:10391000BDFBDDE52E9802F0B9FBD9E505990798C6
:103920003AE60599B5E50121002249420BF032FD46
:10393000011E54D0079808F029FA02214B4649424B
:1039400018680BF0FFF8309808F020FAC0E5012164
:10395000329A49420BF01EFD011E3ED0079808F036
:1039600015FA02214B46494218680BF0EBF82898EB
:1039700008F00CFA89E70121002249420BF00AFD08
:10398000011E22D0079808F001FA02214B46494255
:1039900018680BF0D7F8239808F0F8F98FE74B4632
:1039A00001213A00494218680BF0F4FC011E11D0C5
:1039B0000898D4E74B4601213A00494218680BF0B9
:1039C000E9FC011E03D00898DDE70599DAE70599BF
:1039D0000898D8E705990898C1E70599BEE70599C1
:1039E000A8E705990898A6E70000C040024B1868B0
:1039F000002800D000687047C81E0020F0B50021E4
:103A0000D9B04848FDF760F8002800D17EE008F002
:103A10009BF8454B02221B680021986800232FF079
:103A200091FF002503F0D4F9404C24184D41002D9E
:103A300002DA01243E4D644208F034FD002859D0DA
:103A40003C4A3D493D4808F0A1F96846FEF7FCFBB9
:103A5000802200276D460126394B00210093394B07
:103A6000520039481F6006F081F9329A339B569212
:103A70005793364B04201D6001F01AF8042001F022
:103A800025F9334808F0FEF8324803F0E7FC324BE2
:103A900032481E7008F0F6F8022001F0F7FB3048BB
:103AA00002F098F82F4808F0EDF801F089FF08209F
:103AB00002F01CF9082001F0F3FE102006F078F95E
:103AC0000400294B07601860043003F0C7FC274846
:103AD000267308F0D7F82000FFF748FAAA232448F5
:103AE0005B00EC500AF082FD8D2368465B00EE54CB
:103AF000FFF7E6FB03F06CF922002B00121A8B4152
:103B0000002B99DC9CD1002A96D199E70021194815
:103B1000FCF7DAFF002800D079E701211648FCF70E
:103B2000D3FF74E7400D0300D017002060E31600B8
:103B3000FFFFFF7F8C4E0410544E041008540410F5
:103B4000048B0410741E0020581D0020C41E002089
:103B500058540410581E00209F340020885404102C
:103B6000601E0020A4540410C81E0020D05404106D
:103B7000CD0D0010F04902008807020070B5050065
:103B80000C00514A23790A2B00D99BE09B00D358A3
:103B90009F46218828006631C9006918FFF7EEFFAB
:103BA0004A4B1A88272A05D81A886632D200505103
:103BB00028221A8070BD24686634E4002C19E1E7DD
:103BC0002488424B1C806634E4002C19DAE72188F3
:103BD00028006631C9006918FFF7D0FF80231B0653
:103BE0009C466044E6E7218828006631C9006918D0
:103BF000FFF7C4FF6188061C6631C90069182800F8
:103C0000FFF7BCFF0100301C05F0BEFAD2E72188A7
:103C100028006631C9006918FFF7B0FF6188061CEB
:103C20006631C90069182800FFF7A8FF0100301CA1
:103C300005F0A7FABEE7218828006631C900691897
:103C4000FFF79CFF6188061C6631C90069182800CF
:103C5000FFF794FF0100301C05F0ADFAAAE72188B8
:103C600028006631C9006918FFF788FF6188061CC3
:103C70006631C90069182800FFF780FF0100301C79
:103C800005F085FA96E7218828006631C900691891
:103C9000FFF774FF6188061C6631C90069182800A7
:103CA000FFF76CFF011C041C301C05F070FA05F0D6
:103CB000DBFC011C201C05F07EFA011C301C05F009
:103CC00060FA77E7206875E770DF04109C34002005
:103CD000574B8200F0B5D45800234E464546DE4689
:103CE00057469946534BE0B5E226984685B0039077
:103CF0007600A7597B6A3A6A934200DB68E09A0033
:103D0000D55901337B62002D62D02B7E082BF0D871
:103D100042469B00D3589F4629002823464F200047
:103D200008313B80FFF72AFF3B88272B03D83B88CD
:103D30006633DB001851414905F03DFA28238246DD
:103D4000290020003B80FFF719FF3B88272B03D871
:103D50003B886633DB001851290028238346103145
:103D600020003B80FFF70AFF3B88272B03D83B88C6
:103D70006633DB001851324A5946C3B200920398A9
:103D8000524600F01DFF0021504605F061FA002860
:103D9000AFD005B0F0BCBB46B246A946A046F0BDC8
:103DA000254B29009B4628235A4620001380FFF705
:103DB000E5FE5B461B88272B04D85B461B886633D1
:103DC000DB001851002105F033FA002800D190E7FC
:103DD000BA6A002ADDDB4B467B62CB239B00E250B4
:103DE0002C235343C933FF33E318A35181E7012246
:103DF000144BE2547DE70022134BE25479E7012291
:103E0000114BE25475E7CB232A689B00E2502C2328
:103E10005343E222C933FF33E3185200A35068E74B
:103E200000237B6265E70022064BE25461E7C0464F
:103E3000F82300209CDF04109C34002000007A440A
:103E40004D3E0010750400007404000010B50328F6
:103E500001D8FFF73DFF10BDF0B5C64600B580465E
:103E600082B0180014000F0005F008FA011C061CAF
:103E700020000BF017FC0221200049420BF00AFD44
:103E80000121200049420AF0A9FF02210500494210
:103E900020000AF057FE042D52D01FDC012D00D166
:103EA0006EE0032D48D12000311C0BF0FBFB0221FA
:103EB000200049420BF0EEFC0121200049420DF0A8
:103EC00075FD051C0221200049420AF03BFE00233B
:103ED0003D603B7102B080BCB846F0BD052D2BD1D2
:103EE0002000311C0BF0DEFB0221200049420BF0C8
:103EF000D1FCFE21200089050BF0D4FB022120001B
:103F000049420BF0C7FC01210022494220000DF07C
:103F100011FD02210578494220000AF013FE4E2DC2
:103F20004DD8222D41D92B00233BDBB22B2B3CD883
:103F30006A4A9B00D3589F46694807F0A3FEC9E729
:103F40002000311C0BF0AEFB0221200049420BF097
:103F5000A1FC01210022494220000DF0EBFC0221CE
:103F6000037801AD2B704378494220006B700AF052
:103F7000E9FD280000F0F0FD012338703B71A9E74E
:103F80002000311C0BF08EFB0221200049420BF077
:103F900081FC0121200049420BF0C4F900250028D2
:103FA00000D18FE7FE25AD058CE729004D4807F0CD
:103FB000EDFE0221200049420AF0C4FD8AE70423F5
:103FC0007E2DF2D18E223B714346D2009B58272B87
:103FD0007DDC4046591C81503B806633D90022006D
:103FE000022340464144FFF737FFE2E780212000EB
:103FF000C9050BF057FB0221200049420BF04AFC97
:104000000121200049420DF009FD0221050049422D
:1040100020000AF097FD03233D803B71C9E703238D
:10402000D0E780212000C9050BF03CFB02212000D5
:1040300049420BF02FFC0121200049420DF0EEFC1B
:1040400002210500494220000AF07CFD02233D6068
:104050003B71AEE708238E223B714346D2009B584A
:10406000272B2EDC4046591C81503B806633D900FB
:104070002200022340464144FFF7EEFE8E224346D3
:10408000D2009B58272B16DC4046591C81507B8060
:104090006633D9002200032340464144FFF7DCFE8B
:1040A00087E70623D7E70523D5E70723D3E70923C7
:1040B000D1E70A2386E70C4807F0E4FD01235B42C1
:1040C000E5E7094807F0DEFD01235B42CDE706483E
:1040D00007F0D8FD01235B427EE7C046C0DF041035
:1040E0003055041008550410E8540410F0B50C00C5
:1040F000D64646464F46FE21C0B58905050020003C
:104100000BF0D0FA0221200049420BF0C3FB012141
:10411000200049420AF062FE0221060049422000C6
:104120000AF010FD042E00D173E0052E66D1E022C6
:104130005200AB580F2B00DDB3E0DE00F61AB600DC
:104140000133AE19AB50E2235B00EF583B6A072BFB
:1041500000DD9AE09A000133D651CA203B62032366
:10416000800033762A58072A00DD93E02C2353433E
:104170001900E227C931FF3169187F00EB18E951B6
:104180001F000021E937FF3739607960CB218900B2
:104190006F58F133FF331F60531C6A502B500121BD
:1041A0003260200049420BF06DF90126071E17DD31
:1041B000300005F063F8011C20000BF073FA0221B7
:1041C000200049420BF066FB21002800FFF78EFF1C
:1041D00002212000494201360AF0B4FCB742E7DA76
:1041E000E2225200AB58996ACB239B00E9502C2362
:1041F0004B43C933FF33EB18AB5005E0584807F089
:1042000041FD584807F03EFDE0BCBA46B146A8461D
:10421000F0BDE0235B00EF580F2F44DCFA00D11B08
:1042200090468A0091467A1CEA50E223AA465B0037
:10423000EE58CA44336A072B22DC51469A0091514A
:10424000FE2101333362200089050BF02BFA022195
:10425000200049420BF01EFB0121002249422000B0
:104260000DF068FB022106784942483E2000F6B274
:104270000AF068FC0F2E1AD83B4AB300D3589F4669
:104280003A4807F0FFFC336AD7E7384807F0FAFCF2
:104290003B6A5FE7364807F0F5FCCB239B00EA5802
:1042A0007DE700264FE7334807F0ECFCACE73248E7
:1042B00007F0E8FCA8E743460822DB1B9B00EB184D
:1042C0001A76A1E743460122DB1B9B00EB181A7606
:1042D0009AE70223220051462800FFF7BDFD494618
:1042E00008310323220028006918FFF7B5FD49466D
:1042F00010310423220028006918FFF7ADFD434662
:104300000022DB1B9B00EB181A767DE74346062252
:10431000DB1B9B00EB181A7676E70223220051463E
:104320002800FFF799FD43460222DB1B9B00EB1898
:104330001A7669E743460722DB1B9B00EB181A76C7
:1043400062E743460422DB1B9B00EB181A765BE70F
:1043500043460522DB1B9B00EB181A7654E7C04648
:10436000B4550410D055041070E0041068550410C2
:1043700098550410485504108055041010B50400D9
:10438000032822D88F20C00005F078FC002819D01F
:104390000F4BE022A400E0500023520083500200A3
:1043A000E221C9324900FF324250CA22C639920086
:1043B0008350FF39043281504532FF328350054A21
:1043C000835210BD044807F05DFC0020F9E7C046A9
:1043D000F8230020740400002456041010B50328AC
:1043E0002BD8164B8000C058E02204000023520056
:1043F000C9348350FF34043284500124283283505E
:104400002C3283502C3283502C3283502C328350E8
:104410002C3283502C3283502C328350393AFF3A5D
:1044200083506442083284503D32FF328350CA23A5
:1044300001229B00C250FFF759FE10BDF823002057
:10444000F0B5D6464F4646460400C0B503284ED8C0
:10445000404E8300F0589A463F4BC25C002A00D081
:1044600072E0012951D000296AD13C4BC35C002B7A
:1044700066D000239846CB239B009C462C27C53151
:10448000FF3143585A6A1D6AAA421DDA9500ED5859
:1044900001325A62002D17D02A7E062A21D0022A24
:1044A000EFD19A6A002AECDB00255D62CB239B00EA
:1044B000C2502C235343C933FF33C31843504358CE
:1044C0005A6A1D6AAA42E1DB9A6A002A14DB454651
:1044D0005D626346C2507A43C932FF32821842504D
:1044E000CFE700221D4BC2542000FFF7F1FBE0BCD8
:1044F000BA46B146A846F0BD194807F0C3FB53467B
:10450000F058154BC35C002BF1D10200E223C932F5
:10451000FF325B00C250F6220023520083502C323F
:1045200083502C3283502C3283502C3283502C32C7
:1045300083502C3283502C328350084A8352D3E765
:10454000084807F09FFBD2E70229D0D10022C254CD
:10455000CDE7C046F8230020750400007404000075
:10456000405604103456041010B503280DD8084BDB
:104570008000C2588E23DB00D058272802DC411C63
:10458000D15010BD034807F07DFB01204042F8E701
:10459000F8230020E8540410032806D8034B8000B9
:1045A000C2588E230021DB00D1507047F823002031
:1045B00003280BD8064B8000C358C9005B18CC21D8
:1045C00089005A50CD220021920099547047C0466C
:1045D000F823002010B5032810D8CD22084B800006
:1045E000C358C9005B1892009A5C002A03D1CC2200
:1045F0009200985810BD034807F044FB0020F9E7EB
:10460000F823002064560410011C802010B5C0055A
:1046100005F0C0F810BDC046F8B5037B06000D00DC
:104620001400022B38D025D8002B13D02800424983
:1046300001F094FC414B01002200180001F0A4FCA1
:1046400022003F4901F05EFCBF212200090601F073
:1046500085FC05002200316A280001F07FFC220061
:10466000B16801F04FFC374B9C466444A400635989
:104670007362F8BD032B20D12800314901F042FCC0
:104680002200314901F06AFC304B01002200180081
:1046900001F07AFC0500DDE728002D4901F05EFC01
:1046A0002A4B01002200180001F06EFCFE212200BE
:1046B000890501F03DFC0500CCE7002AD9DD002783
:1046C000052B1AD0042B2DD02968306A04F073FD15
:1046D000B16804F059FD0137706201C5BC42F3D1E5
:1046E000C7E70021306A04F066FDB16804F04CFDB4
:1046F0000137706201C5BC42BBD00021286804F0BC
:1047000097FD0028EDD1316AB068EFE70021306AEB
:1047100004F051FDB16804F037FD0137706201C546
:10472000BC42A6D0FE212868890504F089FD002836
:10473000ECD0B168306AEEE7DB0F4940919300108E
:10474000000080BFFFFFFF3F00002041094600102E
:10475000000020C1F0B54646D6464F46C369C0B5F5
:1047600004008846181C002116009A4604F060FDDB
:10477000002800D0AEE0300004F080FD071C011CD2
:10478000504604F065FD00287CD1002E00DC9BE043
:104790004746A169606904F0F7FCFE216061890564
:1047A000051C504604F0EDFC0021E061B9460437D9
:1047B00004F03EFD002800D0C4E0237B052B0BD87D
:1047C000B04A9B00D3589F460021281C04F030FDBE
:1047D000002818D1FE25AD05216A281C04F0EBFC49
:1047E000A16804F0D1FC4B46013E60621860002EC7
:1047F0006AD0E3699A46CCE7FE21281C890504F0BB
:104800001FFD0028E6D10025E6E7281C04F0A6FDE0
:1048100000229D4B03F053FE00229C4B03F07FFED1
:1048200003F074FF011C8020C00504F0B3FF051CD9
:10483000D2E79749281C04F0BEFC011C8020C0056B
:1048400004F0A8FF011CFE20800504F09AFC051C62
:10485000C2E7281C04F082FD8E4A8F4B03F05FFEF6
:1048600003F054FF04F094FD04F078FD0022864B21
:1048700003F025FE0022894B03F051FE03F046FFB2
:10488000051CA9E70021206A04F0C4FC00283CD0E4
:10489000002E09DD0023414665699A0001338D50E1
:1048A0009E42F8D1E3699A465046391C04F069FCEF
:1048B00042467B4BE061F3189B009B5863613200DA
:1048C00041462000FFF7A8FE4046E0BCBA46B1468C
:1048D000A846F0BD002E09DD0023404661699A001C
:1048E000013381509E42F8D1E3699A4650466D49A2
:1048F00004F0AEFC0028E2D0300004F0BFFC011C44
:10490000504604F03EFCE061D9E7A5690021281C6F
:1049100004F080FC0028BBD16169281C04F034FC41
:104920004346C14601251860012EBBDD04239C4689
:10493000A169E14404F028FC4B4601351860AE4201
:10494000F4D1AFE7FE239B0563612369002B28D0D8
:104950000022226162682068626298472269237B94
:10496000002A1FD06069052B0AD84F4A9B00D358F4
:104970009F46002104F05CFC002848D1FE20800501
:10498000216A04F018FCA16804F0FEFB4B4660624B
:104990001860012E98D039002000721EFFF7DAFE51
:1049A00092E7237BFE20002280056061A261022B3A
:1049B00066D0216A04F0FFFBA16804F0E5FB4B46DA
:1049C0006062751E18600023012E05D061699A008F
:1049D0000133B9509D42F9D1E6693249301C04F0E7
:1049E00037FC002807D0280004F048FC011C301CCC
:1049F00004F0C7FBE0612A0039002000FFF70CFE3D
:104A000062E7FE21890504F01BFC0028B6D10020D6
:104A1000B6E704F0A3FC00221B4B03F050FD00227C
:104A20001A4B03F07CFD03F071FE011C8020C005D1
:104A300004F0B0FEA4E7164904F0BDFB011C802081
:104A4000C00504F0A7FE011CFE20800504F099FBC0
:104A500096E704F083FC0F4A0F4B03F060FD03F070
:104A600055FE04F095FC04F079FC0022064B03F09F
:104A700026FD0022094B03F052FD03F047FE7FE7BD
:104A80000A4896E7B0E004100000F03F0000244020
:104A9000000020C1182D4454FB2109400000E0BF54
:104AA000FFFFFF3F000080C4C8E0041000C07F3F4C
:104AB000254B10B5187083001818C00005F0DEF8FB
:104AC000224B186000283BD001248462040000239C
:104AD00000221F4928340260027302614360836030
:104AE00043618361C16103624362C36203632273F2
:104AF00002240465040050348263C3630364416488
:104B00008364C364436583652273032484677D34AF
:104B1000026643668366C16603674367C3670351E2
:104B2000040078342273882402518C32835004327A
:104B3000835004328150043283500432835010BDBC
:104B4000044807F09FF8FAE7AA3400204C3100200F
:104B5000000080BF7C5604100378602B01D82033FE
:104B6000DBB2653BDBB2122B03D80D4A9B00D35856
:104B70009F46002070470520FCE740786F3843428D
:104B800058414000F6E70420F4E70620F2E7082049
:104B9000F0E70720EEE70320ECE70120EAE7C04654
:104BA000E0E00410032807D8044B1A6883001B18A0
:104BB000DB00D318586A70470020FCE74C31002016
:104BC000F0B5C6460D1C00B5161C03282CD80027CE
:104BD000314982000C681218D200A4182373069B76
:104BE00065602361E369391C301C984604F020FBA2
:104BF00000281CD1616A281CA16004F0C2FA274970
:104C00002062301C04F0D7FA011C051CFE20800530
:104C100004F0BDFA391C061C404604F003FB0028D2
:104C200015D1E561A661676180BCB846F0BDFE2381
:104C30009B054046A560656227626361391C04F0EC
:104C400007FB0028F0D080231B06E361ECE7404619
:104C5000134904F0FDFA0028E3D080231B064344E7
:104C60001800311CA66104F0A6FA391C04F08CFA75
:104C700041466061281C04F087FA391CE06104F0A9
:104C8000D7FA0028D0D0074806F0FCFF064BE361B6
:104C9000FE239B056361C7E74C31002000004042C2
:104CA00000C07FC494560410ACC5273710B5032844
:104CB00008D8054C83001B182068DB00C018FFF7DC
:104CC00049FD0100080010BD4C310020F8B5DE465A
:104CD00057464E4645461E4BE0B518604301181A2C
:104CE000800004F0CBFF1B4B060000271860002853
:104CF00029D00C239B46184B9A46FE239B059946C8
:104D0000002398463500002480C5200004F0B6FA40
:104D1000013401C5182CF8D15B4673665346B3665F
:104D20004B46F3664346002233677423F2544346EE
:104D30000137B3677C36042FE4D1F0BCBB46B246E2
:104D4000A946A046F8BD054806F09CFFF5E7C04619
:104D5000002800200428002000004041B456041020
:104D6000030010B50800032B0DD8002A0BDD0649FF
:104D70008C46624492001458044A11685A01D31AAE
:104D80009B00CB189C6710BDFFFFFF3F042800204D
:104D90007047C046F0B5C646866F040000B50D1CCE
:104DA000002E00DCB4E0816B281C04F03BFA0028E4
:104DB00000D0ADE0012E00D1B1E0E16B281C04F081
:104DC00031FA002800D0ACE0022E00D1ACE0216C1A
:104DD000281C04F027FA002800D0A7E0032E00D1F9
:104DE000A7E0616C281C04F01DFA002800D0A2E0A6
:104DF000042E00D1A2E0A16C281C04F013FA0028B4
:104E000000D09DE0052E00D19DE0E16C281C04F04F
:104E100009FA002800D098E0062E00D17BE0216D31
:104E2000281C04F0FFF9002800D091E0072E00D1E3
:104E300091E0616D281C04F0F5F9002800D08CE0A9
:104E4000082E00D18CE0A16D281C04F0EBF900289D
:104E500000D087E0092E00D187E0E16D281C04F026
:104E6000E1F9002800D082E00A2E00D182E0216E14
:104E7000281C04F0D7F9002800D07DE00B2E00D1CB
:104E80007DE0616E281C04F0CDF9002800D078E0A8
:104E90000C2E00D178E0A16E281C04F0C3F9002884
:104EA00000D073E00D2E00D173E0E16E281C04F0F9
:104EB000B9F9002800D06EE00E2E2ED0216F281CEC
:104EC00004F0B0F900286BD10F2E67D0291C606F59
:104ED00004F0BEF910250F26002802D110260F2558
:104EE00002358023E358AB420FD0A768002F0AD0C9
:104EF000227828009046AB4200DBF04304F0BEF974
:104F0000011C4046B8478023E55080BCB846F0BD40
:104F100001250026E5E70525E2E70D25E0E7002568
:104F2000DEE702250126DCE70125D9E70325022675
:104F3000D7E70225D4E704250326D2E70325CFE7E8
:104F400005250426CDE70425CAE706250526C8E77A
:104F500007250626C5E70625C2E708250726C0E778
:104F60000725BDE709250826BBE70825B8E70A2578
:104F70000926B6E70925B3E70B250A26B1E70A2576
:104F8000AEE70C250B26ACE70B25A9E70D250C2673
:104F9000A7E70C25A4E70E250D26A2E70E259FE71F
:104FA0000F250E269DE7C046F423F0B5C646C65829
:104FB000050000B5002E17D0336849004C08211CAD
:104FC000181C984604F0DDF84146071C201C04F02C
:104FD0003FF9002811D1F168381C04F0ECF8211CCD
:104FE00004F0D2F8011C3060FC22AB58013BAB50FE
:104FF000002B04DD80BCB846F0BDB168ECE7F823B7
:10500000EB58AB50AB68002BF4D028789847F1E709
:10501000F423F0B5C646C558060000B50C1C002D9B
:1050200017D02B684C006408211C181C984604F00B
:10503000A8F84146071C201C04F00AF9002845D1B5
:10504000E968381C04F0B7F8211C04F09DF8041C32
:105050002860F068211C04F0E5F8251C00280ED11A
:1050600086235B00F058211C04F08BF884235B003E
:10507000F15804F0A0F8211C04F086F8051C8623E2
:105080005B00F5500C3BF0580433F158337C002B97
:105090000CD004F076F8291C04F0DAF8002801D0CE
:1050A00000233374F46080BCB846F0BD04F06CF8A3
:1050B000291C04F0B7F80028F4D001233374B36836
:1050C000002BEFD0002130789847EBE7A968B8E7CC
:1050D000F8B504004E464546DE4657468434E0B5F2
:1050E0000600A06D0D1C04F09DF8002805D1E06DB0
:1050F000291C04F0ADF8002874D0E36CA76C181CD0
:10510000291C984604F040F8391C04F040F8051CAE
:1051100004F0AAFA04F0D4F8606604F0AFF8236C47
:10512000814618009A4604F0A9F849468346281C8F
:1051300004F027F8011C584604F03DF804F094FAF6
:1051400004F0BEF80500824552DDEB438422DB17F4
:105150001D40AB002566F3189B5848469A46636C81
:10516000191C9B4604F027F8514604F00DF85946E7
:10517000A066504604F00BF8494604F005F8391CC7
:1051800004F019F8B368E066002B0AD000213078EB
:105190009847606E04F072F8E36C81469846256E7D
:1051A000A76C266D280004F069F8311C04F003F8A0
:1051B000391C051C484603F0FEFF011C281C03F0A7
:1051C000E3FF414603F0DDFF676D051C391C03F06A
:1051D000D8FF391CE065281C03F0D6FF311C03F012
:1051E000D3FFA065F0BCBB46B246A946A046F8BDB9
:1051F0005546013DA9E7C046836A10B5013B83626D
:10520000002B00DD10BD436A83628368002BF9D058
:1052100000789847F6E7C04670B50400227CC06A63
:10522000236B0D1C002A17D0191C03F0AAFF291CA0
:1052300004F00EF800280ED000232374236A0133F3
:1052400023623423E356012B05D0A368002B02D040
:1052500000212078984770BD011C181C03F094FFB2
:10526000291C03F0DFFF0028F5D001232374E36934
:105270000133E3613423E3560133ECD0A368002B00
:10528000E9D0FE21207889059847E4E78821F8B520
:105290000F4B49001860060004F00EFD0D4A030094
:1052A0001060002E13DD00220020002100250A4F8F
:1052B0000A4C1A709C61DD61D860197458611962DA
:1052C0005F60996001321133FF339642F1D1F8BD2E
:1052D0007029002074290020914D0010C77ED30052
:1052E000074A03001268904208DA064A106800284C
:1052F00003D01A01D3181B01C01870470020FCE727
:10530000702900207429002010B5041E1FD01249F6
:1053100032F026FE002818D02378752B0DD02000FF
:105320000E4932F01DFE002813D020000C4932F047
:1053300017FE43425841404210BD6378702BEED1B6
:10534000A3780120002BF7D0E9E70120F4E7002043
:10535000F2E701204042EFE7CC560410D456041087
:10536000C87F0410002803D0024B436000238360F1
:105370007047C046914D001010B50400101C002C61
:105380000BD0074BA1606360064903F014FF03F0E4
:1053900097FF002802DD6062A06210BD0120FAE7DD
:1053A000F95100100080BB4470B500261D1C04ABF1
:1053B00004009E5700280ED0084B81604360C262F3
:1053C0000749281C03F02EFF002805D1342325634C
:1053D000E6540023237470BD014DF7E71952001005
:1053E0006F12833AF0B5C646050000B5002800D11B
:1053F0008EE0002A00D18BE0102B00DD88E02C002D
:10540000A9607B48069984346860616407998426A2
:105410002364A164002B00D17DE03DDD1168A9511A
:10542000012B39D051686160022B35D09168A160A1
:10543000032B31D0D168E160042B2DD0116921619B
:10544000052B29D051696161062B25D09169A16195
:10545000072B21D0D169E161082B1DD0116A21628F
:10546000092B19D0516A61620A2B15D0916AA16289
:105470000B2B11D0D16AE1620C2B0DD0116B216383
:105480000D2B09D0516B61630E2B05D0916BA1637D
:10549000102B01D1D26BE263180003F0EFFE8046BF
:1054A000FC210798890503F086FE069903F06FFE3C
:1054B0004146E064051C079803F069FE4D492065EC
:1054C000071C03F064FE4C49061C03F0ABFE0028E9
:1054D00000D0494E49490798666503F06CFE0021EB
:1054E0008046381C03F067FE011C404603F04CFE6A
:1054F000291C03F046FE311C051C03F042FE291C4A
:10550000E065301C03F040FE391C03F03DFEA06551
:1055100080BCB846F0BD83210698C90503F098FE0B
:10552000002848D0102323640023AB51FE239B05A1
:1055300063608023DB05A3608323DB059846102787
:105540002F4BE360042FABD08123DB052361052FB4
:10555000A6D02C4B6361062FA2D02B4BA361072F43
:105560009ED02A4BE361082F9AD08223DB05236269
:10557000092F95D0264B63620A2F00D190E7254B67
:10558000A3620B2F00D18BE7234BE3620C2F00D1DA
:1055900086E7224B23630D2F00D181E7204B636305
:1055A0000E2F00D17CE71F4BA3630F2F00D177E7AD
:1055B0001D4BE36374E7069803F082FE2064070046
:1055C00003F05CFE8046002F00DC69E70023AB514E
:1055D000012F00D164E7FE239B056360022F00D1F9
:1055E0005EE78023DB05A360032FA9D158E7C046FF
:1055F000D15000100000A041A69BC43B000020C178
:10560000000040400000A0400000C0400000E0401A
:1056100000001041000020410000304100004041E6
:1056200000005041000060410000704110B50028AA
:105630004CD0002A4AD0102B48DC254C81600299BE
:105640004460C1670024802183674450002B3DDD06
:1056500011688163012B39D05168C163022B35D0A9
:1056600091680164032B31D0D1684164042B2DD0A3
:1056700011698164052B29D05169C164062B25D09D
:1056800091690165072B21D0D1694165082B1DD097
:10569000116A8165092B19D0516AC1650A2B15D091
:1056A000916A01660B2B11D0D16A41660C2B0DD08B
:1056B000116B81660D2B09D0516BC1660E2B05D085
:1056C000916B0167102B01D1D36B436710BDC046AE
:1056D000954D001070B50400151C002812D0F4265A
:1056E000124B816043608359002B0ED01049281C57
:1056F00003F061FD03F0E4FD002804DDF823E05031
:105700000433E05070BD0120F8E7102004F0B6FA31
:10571000002809D000230360064BA0514360064BCC
:105720008360064BC360E1E7A051DFE7A94F00109B
:105730000080BB44BC74933CDB0D7D3F31B47F3FA4
:10574000F8B50400161C1D1C002813D0F427124BBA
:1057500081604360C359002B0DD080235B00E6506D
:105760000E4A0433E5500433E25000220433E25081
:1057700000232374F8BD102004F080FA002809D01B
:1057800000230360064BE0514360064B8360064BE9
:10579000C360E2E7E051E0E7115000100AD7233C74
:1057A000EC51383E31B47F3F6AF87F3F002802D089
:1057B000014B816043607047914D0010134B70B5F1
:1057C0001B680D1C834218DD114B1C68002C14D083
:1057D00003011B181B01E418A2690E4B9A4205D065
:1057E0000D4E3368002B09D00A4BA36163686561D5
:1057F000002B02D02000291C984770BD074B0100E8
:10580000180006F0C3FA01233360EDE77029002089
:1058100074290020C77ED30098340020DC56041081
:10582000010010B5002802D0014806F0AFFA10BD03
:105830000457041070B5164E840033682418A40071
:105840001B191969050000F03BFA336811491B194F
:105850001A6901328A4200DD0A00D9681A610029FA
:1058600001DB914200DB70BD002D0CDB0A4A12689F
:10587000954208DA1A79002AF5D1013228001A7106
:1058800000F092FAEFE7054806F0FCF9EBE7C046B6
:10589000382F0020FEFFFF7F302F00201857041004
:1058A00070B504000E4B186080000019800004F0F1
:1058B000E5F90C4A03001060002C0FDDFE250120E5
:1058C000002201260021AD0540421A6001321E71FE
:1058D0009D60D860196114339442F6D170BDC04602
:1058E000302F0020382F002010B5002803DB0A4B92
:1058F0001B68834203DC094806F0C4F910BD084B5D
:1059000008491A6883001B189B00D31800221A71DB
:1059100000F020FAF2E7C046302F00203057041084
:10592000382F00203558001010B500280DDB0B4B28
:105930001B68834209DD0A4A830012681B189B001A
:10594000D3181A79002A04D010BD064806F09AF937
:10595000FAE701321A7100F027FAF5E7302F00203C
:10596000382F00201857041010B5002803DB054B12
:105970001B68834203DC044806F084F910BD00F084
:1059800033FAFBE7302F00204857041010B50028E9
:105990000BDB084B1B68834207DD074B1A6883004B
:1059A0001B189B00D318D96010BD044806F06AF993
:1059B000FAE7C046302F0020382F0020645704102B
:1059C0000B4810B501F04AFD01220A4B00211A7064
:1059D0000022094B09481A60094B1A6093009B1872
:1059E0009B00C4180132A160C150282AF6D110BD15
:1059F00084290020A8340020543000205831002091
:105A0000182B0020224B70B5197800291ED1EFF316
:105A1000108C72B61F4B204A18681268904212D040
:105A20001A689400A4181D4AA400A4181A681A68D9
:105A300001321A60282A00D119608CF310882000E6
:105A40002368984701E08CF3108870BD144D28003E
:105A50003EF05EF90F4B104A19681268914212D05D
:105A60001A689400A4180D4AA400A4181A681A68A9
:105A700001321A60282A03D028003EF0E9F8DEE758
:105A800000221A60F8E728003EF0E2F8DDE7C046A1
:105A9000A8340020182B002054300020583100205A
:105AA00084290020F8B5444B05001B78002B53D106
:105AB000EFF3108072B6414C414E2368591C273BCE
:105AC0005A1E93415B4219403368994231D02B688A
:105AD00027689C46BA00D21967463A4B9200D750C5
