:020000041000EA
:1000000000B5324B212058609868022188439860DF
:10001000D860186158612E4B002199600221596106
:100020000121F02299502B49196001219960352056
:1000300000F044F80222904214D00621196600F024
:1000400034F8196E01211966002018661A6600F04E
:100050002CF8196E196E196E052000F02FF8012189
:100060000842F9D1002199601B49196000215960AB
:100070001A491B48016001219960EB211966A021F2
:10008000196600F012F800219960164914480160C1
:100090000121996001BC002800D000471248134993
:1000A000086003C880F30888084703B5996A0420EC
:1000B0000142FBD001200142F8D103BD02B5186610
:1000C0001866FFF7F2FF186E186E02BD00000240BE
:1000D000000000180000070000035F00212200005C
:1000E000F4000018222000A00001001008ED00E03C
:1000F00000000000000000000000000074B24E7A12
:1001000000200420F7010010CB010010CD010010E9
:10011000C9010010C9010010C9010010C901001077
:10012000C9010010C9010010C9010010CF01001061
:10013000C9010010C9010010D1010010D301001045
:10014000C1010010C1010010C1010010C101001067
:10015000C1010010C1010010C1010010C101001057
:10016000C1010010C1010010C1010010C101001047
:10017000C1010010C1010010C1010010C101001037
:10018000C1010010C1010010C1010010C101001027
:10019000C1010010C1010010C1010010C101001017
:1001A000C1010010C1010010C1010010C101001007
:1001B000C1010010C1010010C1010010C1010010F7
:1001C000EFF30580103800BE00BE00BE00BE00BECA
:1001D00000BE00BEF2EB887190020010B402001065
:1001E0003802001090A31AE721482249086006C887
:1001F00081F30888104720480068002801D01C4877
:10020000F3E70DA40ECC002902D000F012F8F9E7B4
:100210001A491B4A002000E001C19142FCD1194952
:100220008847194988471949884700BEFDE701C931
:1002300001C29A42FBD37047B4020010C0000020F4
:1002400074A9002068AB001080A90020C8DC002041
:10025000B0DE00100000042000000420B0DE00101A
:10026000001004200010042000000000704700006F
:100270000000000008ED00E0000000D0C8DC002015
:10028000ACF20020055C00208D370020FD5B0020D3
:10029000B0D30020BCD30020C8D30020D4D300208A
:1002A000E0D30020ECD30020F8D3002034D5002088
:0402B00028D500202D
:1002B400F8B5C04606480749091A8B10C90FC91872
:1002C40010B5491003D0044B002B00D0984710BD43
:1002D400C8DC0020C8DC002000000000054B10B57D
:1002E400002B03D00449054800E000BFFFF7E2FFFC
:1002F40010BDC0460000000068F2002074A9002070
:10030400A423082130B5FF24134A1448D1501449BA
:1003140002680B680D689B1AA343521BD218026033
:10032400104A1B02944612680F4853401B0C0F4D91
:100334001B0403602A684B6849689B1AA343521A3A
:10034400D2182A6062461B0212681B0C53401B041D
:100354001B0C036030BDC0460000054010E50020C2
:1003640044D50020480005404810054014E500200D
:10037400F0B5502387B017256A460405240F1C43A3
:100384006D44AF3393750F00287004F0CDFF002344
:10039400194A80185941002902DA012017494042BC
:1003A40000230290039100932A0021001448013392
:1003B40006F09EF900281ADD04F0B6FF00230E4A69
:1003C40080185941002902DA01200C4940420023D7
:1003D40016220290039100932100094801336A44D4
:1003E40006F0A6F9002802DD6B46987D02E00123A1
:1003F40000203B7007B0F0BD10270000FFFFFF7F17
:1004040010D60020F0B5DE4657464E464546E0B5C8
:10041400642095B004F05EFEF023D14FFB5C0C2BFE
:1004240000D09AE1D0231B065A68802310005B0396
:1004340018401A4200D1B3E0012404AB9B460123C7
:100444005A4659460020138006F030FB002C00D198
:10045400ACE001200021404206F09CFB40235A46B8
:100464000021002007F0E4F80028F2D05E4633783B
:100474005A465844F02B1DD09C229200B95804329D
:10048400BD5CB84ABC5C002D00D15FE100220025B0
:1004940094460092F72B2BD00B2900D891E001361B
:1004A400B04200D1C8E00122337801240092F02B3D
:1004B400F0D13200561CB0426BD05378F02B00D1EF
:1004C4008AE0F72B00D1CAE0012201210092002228
:1004D400A54D8C460136511CBA1800245355B04220
:1004E40077D0337801253200F02BE3D0F72BD3D12A
:1004F400002C00D1C0E0721C904200D1B8E07378A7
:10050400F02B00D19BE00126A1468A460296039572
:10051400F72B35D859B200296DDB94490F24795C47
:100524000E000D00A64310340196A543802D01D082
:10053400E02E25D19524A4003E5D751CEDB2A8469D
:100544003D558B4DBE1973554346012B18D90023D5
:100554003B55884BFC5C0F230B40A34210D1019BFD
:10056400795D902B00D1D9E0802B00D1DAE0824B69
:10057400FB5CDB010B4381495B18972189007B50AD
:100584000132904240D01378F02BC1D1561CB042B6
:1005940093D10023734ABB54053ABB50013347E05F
:1005A400022304AA1100138008F088FB0120002113
:1005B400404208F03BFE01200021404208F036FE94
:1005C400F4E70A00684D511C0136BA185355B0427D
:1005D40087D1012301251DE0961CB04200D1E5E03E
:1005E4009378F02B00D164E7012200219446012581
:1005F400002400924EE75D4901327B54952300218B
:100604009B00F9549042BED1029B4C469C465146F5
:100614000023039D009A002A01D0524ABC54002DA5
:1006240002D09C229200B9506246002A00D110E701
:100634009D229200BB540CE701230124EDE702360E
:10064400B04200D1B2E001223378944600920024F3
:10065400012500213200F02B00D01BE72AE70123FB
:10066400721C0021012500240093904200D046E72B
:10067400012200239446CDE70B2900D03BE73A4BF7
:10068400FB5C7D2B00D036E7992292003C4BBA5894
:100694009A4200D02FE79A239B00FB5C033B012B7B
:1006A40000D928E79B23FE229B00FB5C9201DB011F
:1006B4001340344A9846BA5C94467F2263461A40F3
:1006C40043461343802298465201934201DB2E4B4A
:1006D40098460F232D4ABA5C13409C46FE232C4AAD
:1006E4009B01BA5CD2011A402A4B0192FB5C9A46E8
:1006F4007F231A0053461340019A1A4380235B0157
:100704009A4200DB204A83239B00FA50842243460A
:100714009200BB506246174BFA54ECE6164BFB5C56
:10072400002B3BD196239B00FB5C8B4200D027E738
:10073400D823FF33FB5C002B3ED0EB235B00FB5C38
:10074400002B39D00121144BF95419E75A46A1461C
:100754008A46009502950395DAE602246DE6C046C2
:10076400F0DE002075020000630200005102000068
:1007740052020000620200005302000000E0FFFF8A
:1007840043315A336B020000FF0F00006D0200007A
:100794006A0200006902000061020000094C395538
:1007A40009497B540121094BF954E9E6012300244A
:1007B4009C461D00210030E7982300219B00F9543A
:1007C400DEE6C04655020000560200005702000053
:1007D40010B5024B18680AF0B7FA10BDE8E400201F
:1007E40070B5D02501220021072003F081FD0122EC
:1007F4000021062003F07CFD0122002105202D06A6
:1008040003F076FD0120002104F0EEFB6A686C68B9
:100814006B6864069B06E40FDB0F1B01A4001C43FA
:100824001306DB0F0022012107201C4303F060FDA7
:1008340000220121062003F05BFD00220121052096
:1008440003F056FD0120002104F0CEFB69686A68BC
:1008540009066B68C90F52064900D20F9B060C4368
:10086400D200DB0F5B0100210720144301221C434B
:1008740003F03EFD01220021062003F039FD64B29D
:1008840001220021052003F033FD2A2C05D0302C51
:1008940003D0FF200C2C00D070BDE0B2FCE7C046B2
:1008A400F0B54E46DE4657464546E0B54318243378
:1008B4001B7885B0994601900291002B00D129E262
:1008C40080468B0003935B181B01984444462C20FC
:1008D400205605F03BF9DB4905F001F94546041CB7
:1008E400A86A05F033F9211C051C201C05F0F7F853
:1008F400211C061C281C05F0F2F84A46071C012A94
:1009040000D1A1E142463420105605F01FF9CD492B
:1009140005F0E5F842468246106B05F017F951469A
:100924008346201C05F0C4F85946041C281C05F015
:10093400BFF85146051C504605F0D1F8011C301C87
:1009440005F0B6F85146061C584605F0C8F8011CD7
:10095400381C05F0ADF84A46071C022A00D173E1A1
:1009640042463C20105605F0F1F8B64905F0B7F8B8
:1009740042468246906B05F0E9F851468346201CB6
:1009840005F096F85946041C281C05F091F85146C8
:10099400051C504605F0A3F8011C301C05F088F82E
:1009A4005146061C584605F09AF8011C381C05F0FF
:1009B4007FF84A46071C032A00D145E142464420F9
:1009C400105605F0C3F89F4905F089F8424682465F
:1009D400106C05F0BBF851468346201C05F068F8FE
:1009E4005946041C281C05F063F85146051C504662
:1009F40005F075F8011C301C05F05AF85946061C20
:100A0400504605F06CF8011C381C05F051F84A46B4
:100A1400071C042A00D117E142464C20105605F069
:100A240095F8884905F05BF842468246906C05F0DB
:100A34008DF851468346201C05F03AF85946041CAB
:100A4400281C05F035F85146051C504605F047F8BA
:100A5400011C301C05F02CF85946061C504605F0C4
:100A64003EF8011C381C05F023F84A46071C052AE9
:100A740000D1E9E054234246D05605F067F87149A5
:100A840005F02DF842468246106D05F05FF8514698
:100A94008346201C05F00CF85946041C281C05F05C
:100AA40007F85146051C504605F019F8011C301C86
:100AB40004F0FEFF5946061C504605F010F8011CD0
:100AC400381C04F0F5FF4A46071C062A00D1BBE097
:100AD40042465C20105605F039F85A4904F0FFFFED
:100AE40042468246906D05F031F851468346201CFB
:100AF40004F0DEFF5946041C281C04F0D9FF5146BB
:100B0400051C504604F0EBFF011C301C04F0D0FF20
:100B14005946061C504604F0E2FF011C381C04F040
:100B2400C7FF4A46071C072A00D18DE042466420CD
:100B3400105605F00BF8434904F0D1FF42468246B3
:100B4400106E05F003F851468346201C04F0B0FFF4
:100B54005946041C281C04F0ABFF5146051C5046A2
:100B640004F0BDFF011C301C04F0A2FF5946061C12
:100B7400504604F0B4FF011C381C04F099FF4A46A7
:100B8400071C082A60D042466C20105604F0DEFF91
:100B94002C4904F0A4FF42468246906E04F0D6FF2E
:100BA40051468046201C04F083FF4146041C281C47
:100BB40004F07EFF5146051C504604F090FF011CD2
:100BC400301C04F075FF4146061C504604F087FFB4
:100BD400011C381C04F06CFF4A46071C092A33D058
:100BE400019A02989046039B1B181B0198444346A4
:100BF4007420185604F0AAFF124904F070FF43460B
:100C04008246186F04F0A2FF51468046201C04F06F
:100C14004FFF4146041C281C04F04AFF5146051CA2
:100C2400504604F05CFF011C301C04F041FF4146B7
:100C3400061C504604F053FF011C381C04F038FF16
:100C4400071C01E0CDCCCC3D484604F07FFF311CAD
:100C5400804604F044FF211C061C201C04F03FFFC6
:100C6400011C301C04F021FF0021061C04F066FF67
:100C7400002841D1391C404604F031FF211C071CD7
:100C8400281C04F02CFF011C381C04F00EFF311C3E
:100C940004F011FF211C061C04F021FF011C281C78
:100CA40004F003FF414604F006FF1C49041C301CF9
:100CB40004F015FFFC21890504F0FAFE04F068FF36
:100CC400FC2181468905201C04F0F2FE04F060FF3B
:100CD400029B019A1B01D3181A00C8321660546093
:100CE4004946D02299500432985005B0F0BCBB4616
:100CF400B246A946A046F0BD4146281C04F0DBFEDE
:100D0400FC218905041C04F0D3FE04F041FF0023F8
:100D14009946DDE700200026014CD9E7ABAAAA3F9B
:100D24000000C07FF0B5454657464E46DE460300F8
:100D3400E0B52433A1B00200059303232832140044
:100D440000259846EC27CA4E069007924246059B1A
:100D540029005A5500232373C64B2771A36014231B
:100D64002375C54B266023610698FFF799FD6B1C1C
:100D740050340125022BE9D1133304AA9918002019
:100D8400FFF7F6FA152304AA991804020120FFF7C5
:100D9400EFFABA4B04439C4200D060E1162304AA44
:100DA4009B189A4617239B189846B54B00249B46DC
:100DB400FF2300279946B34E0AAD1BE004F0B4FAB2
:100DC40080197941002902DA0120AF494042002309
:100DD400029003910093524650215846013305F086
:100DE400A7FC002820DD53461B7801342B70013505
:100DF400582C1FD053464A461A7043461C7004F0C0
:100E040093FA80197941002902DA01209E4940426F
:100E14000023029003910093424650215846013327
:100E240005F066FC0028C9DC002301342B70013571
:100E3400582CDFD10AA8954B954956300AAA20E0D0
:100E44005B001CB2002C27DB5C0023B2002B28DBE8
:100E5400640023B2002B29DB640023B2002B2ADBBD
:100E6400640023B2002B2BDB640023B2002B2CDBA9
:100E7400640023B2002B2DDB630001329BB290424D
:100E84002ED01478240263401CB2002CD8DA6400FB
:100E94004C4024B2231ED7DA64004C4023B21C1EFB
:100EA400D6DA5B004B401BB21C1ED5DA5B004B400C
:100EB4001BB21C1ED4DA5B004B401BB21C1ED3DADF
:100EC4005B004B401BB21C1ED2DA5B004B401BB2D2
:100ED4001C1ED1DA5B004B4001329BB29042D0D150
:100EE400562204A918318A5A52BA92B29A4200D0B0
:100EF400B5E000262427079DB0460BAC13AE41464F
:100F04002378059A5354002B00D199E0A278E17814
:100F1400120609040A4361790A43217909020A4342
:100F240061782A602971012B00D189E0E279217A64
:100F3400120609040A43A17A0A43617A09020A43A0
:100F4400A179AA602973022B7AD0227B617B1206D5
:100F540009040A43E17B0A43A17B09020A43E17ABB
:100F64002A612975032B6BD0627CA17C12060904CB
:100F74000A43217D0A43E17C09020A43217CAA61D8
:100F84002977042B5CD0A27DE17D120609040A4373
:100F9400617E0A43217E09020A43617DE9552A6282
:100FA400052B4DD0E27E217F120609040A43A17F5E
:100FB400A07E0A43617F09020A432C216854AA6275
:100FC400062B3DD032787178120609040A43F17871
:100FD400E07F0A43B17809020A43342168542A6342
:100FE400072B2DD07279B179120609040A43317A9C
:100FF40030790A43F17909020A433C216854AA630F
:10100400082B1DD0B27AF17A120609040A43717BC7
:10101400707A0A43317B09020A43442168542A64E2
:10102400092B0DD0F37B327C1B0612041343B27CD4
:10103400B17B1343727C120213434C22A954AB6458
:1010440041460698FFF72CFC43460122293490467A
:1010540050352936012B00D051E7002000E0012053
:1010640021B0F0BCBB46B246A946A046F0BDC0467E
:10107400344E050050FC030040A90200D1070000D3
:1010840010D6002010270000FFFFFF7FFFFF0000A5
:1010940021100000F8B5CE464746002580B507006C
:1010A400EE4B1022036000210561C5608560456038
:1010B4000562C56185614561F83004F04FFE842303
:1010C40038005B00FD520D30023308220021FD522E
:1010D400FF3004F043FE80238A221B015200BB52DE
:1010E4000232BB5238008C2300245B001D30FC54B8
:1010F4000021FE3AFF3004F031FE3800353006227C
:101104000021FF3004F02AFEB5235B00FC543E238B
:101114000822FF33FC54D24B01261A60E022D14B43
:10112400D2011B681340D04A13609D235B00FC541A
:10113400063BFC543623FF33FC540133FC54382360
:10114400FF33FC540133FC543A23FF33FC54C74BA4
:10115400C74C9846237804219946180003F0B0F848
:101164004B460421581C03F0ABF84B464A465B0837
:101174001F2A00D9AAE107221A4093009B18BD49EF
:10118400BD4A9B009A18591815600D60BB4959183F
:101194000D60BB495B18414619601023536016600B
:1011A4002378013359081F2B00DD8BE107220A4005
:1011B40093009B18AF49B04A9B009A1859181560C0
:1011C4000D60AE4959180D60AD495B184146196070
:1011D40010235360166023785A081F2B00D938E176
:1011E400072111408A005218A44992005118096835
:1011F40040468C4631001940494241406046014016
:10120400A0480133121811605A081F2B00DD1CE19D
:101214000721114040468A005218984992005118FB
:10122400334009685B4243400B40964902345218EC
:101234001360954B9C428DD104F0C4FF1F211B20E9
:1012440003F03EF8002200211B2003F051F8002196
:101254001B2003F05FF81F211A2003F031F800224D
:1012640000211A2003F044F800211A2003F052F858
:101274001F211C2003F024F8002200211C2003F06D
:1012840037F800211C2003F045F81F211D2003F02E
:1012940017F8002200211D2003F02AF800211D2048
:1012A40003F038F8182003F047F8192003F044F845
:1012B400D024802324065B04636280239B0463623E
:1012C400082003F039F880235B006362092063611E
:1012D40003F032F880239B0063620220636103F011
:1012E4002BF804230022A3620121022003F000F85A
:1012F400032003F021F80823644DA3620022012196
:10130400032002F0F5FF2800614904F0B7FF022230
:10131400904641466B68122013405E4A11600F22CA
:10132400296810255140C0320A405B490A605B4A73
:101334000121136002F0C4FF0121132002F0C0FF59
:101344000121152002F0BCFF0421172002F0B8FF90
:101354000421162002F0B4FF0022474B5049DA63FF
:101364005A649A64D9641D64DE63DA635A649A64C5
:10137400D9641D64DE63FA234A499B040A68072082
:1013840053401B0C484A1B041360FA2309689B0052
:101394004B401B041B0C136002F0CEFF062002F02E
:1013A400CBFF052002F0C8FF8023A362403BA36269
:1013B400203BA362142002F0BFFF0022002114206E
:1013C40002F096FF042002F0B7FF65623749A56179
:1013D400374805F065F90321102002F071FF03215D
:1013E400112002F06DFF002002F0A6FF66620120CA
:1013F40002F0A2FF434638006362FFF7F1F9F023DD
:10140400F8543800FFF78EFC9F23464001205B0010
:101414003040F854563B9846B844404604F03AFEEF
:1014240014264346234C244D03CB244A244B04F076
:101434001FFB013E00196941002EF6D1434603C348
:101444003800C0BCB946B046F8BD0321114008318C
:10145400E0E6032111400831C4E6C0469CC40020E4
:1014640000F0044000C0044000D00440FFFF00002E
:1014740060C9002008000540000005400C0005403C
:10148400100005400C10054066C9002000C0034050
:10149400286BEE0004F0034000D0034004E0034056
:1014A400CF0700004800054048100540A086010011
:1014B40010D600204F8167F77E7B05142D7F954C55
:1014C4002DF4515803220A40083271E603221A40CF
:1014D400083252E6F0B54546DE4657464E461C00F5
:1014E400D823E0B58BB00291FF33C35C050090466E
:1014F4000393002B74D0EB235B00C25C002A6FD0F3
:10150400039B013BDBB2072B00D903E1CC499B00D1
:101514005B589A46EA235B00EE5CD623FF33EB5C10
:101524009946072E01D900F098FCF30053445F68F4
:10153400002F00D123E1DE2149006A5801326A50AC
:101544001988E6235B00EB580591C81A504339000B
:101554000493019204F0D6F9049B019AC018E22383
:101564005B00E850974200D8EFE04B46072B01D9C7
:1015740000F0D7FD5346002240334946C9005B18AA
:101584005968002900D10131E0277F00E859013072
:10159400E8511B88814201D800F065FCE822520022
:1015A400AF58DB1B584304F0ADF9E422C3195200D1
:1015B400AB50E2225200A85880225201904201DA34
:1015C40000F0E9FB984480239E4A5B01049298450D
:1015D40010DA4346DB434246DB171A4090460BE0E1
:1015E400E42300225B00EB580492984480235B01BF
:1015F4009845EEDB934B9846B62302995B008946E7
:10160400EA58474691444A46EA50159B002B4DDC64
:101614007F433B0B06934B469B0D5A0001338A4F85
:101624009B055B0DBA5EF95E4B469B02891A9B0DC6
:101634004B43E1009B129B18091B9A460B0B0905AF
:10164400090D9B460B004B431B0B5A00D2184B430E
:101654001B0B5B00D31A01934B461E0D7B4B9C4620
:10166400B444634605934B46002B4CDB774B7F2EEB
:1016740000D88DE35246D21094464A465400A20D37
:10168400510001329205520D795EBA5E0794A402AC
:10169400521AA40D54435A46A4126418062A01D9B6
:1016A40000F070FC6A4992008A589746D82280213B
:1016B4005200AB5889000133AB508B422DD2DA2350
:1016C4005B00EF580433EE588022159B520193427D
:1016D40000DB5C4B5B431B0B9800C0184000C01838
:1016E400142104F00FF980234743BF1247445B01E0
:1016F4009F4204DB534F80117043814488E7FB43CE
:10170400DB171F40F7E7059B7F2B01D800F02BFD6B
:10171400504BAFE7504B9A46FCE60023D6214F4886
:10172400AB508446DA2049006A584D4B40005A4376
:1017340062445343170E6344803F2F501E0E6B5078
:10174400DC23803E5B00EE50BEE7EA22059952009E
:10175400E950731CDE20DBB2AB54002240002A5057
:10176400CD32FF32A9504A46072A01D900F0DEFCE7
:10177400083B5A425341DAB253464033FDE601373F
:10178400D9E60122059C0892019A1B1B5343524639
:10179400D4461B1306991B199B1A4B431B139C44D9
:1017A40081239B00EA58029813005343DB124343FE
:1017B4001B13E246C118002A00DAC11AB8235B00E1
:1017C400EE588E19EE50159B002B00DDE9E24346DE
:1017D4005B431B0B0593B30D5A0001339B055B0D53
:1017E400BA5EF95EB302891A9B0D4B439B129B1898
:1017F4000293330D9946154B4B440693002E00DAA1
:1018040003E34B4611497F2B00D852E3029BDB10C4
:1018140098467000830D5A0001339B055B0DBA5E38
:10182400FB5E84029B1AA40D5C435B46A4120790E2
:10183400A418062B00D953E30A4A9B00D3589F46A9
:1018440074C40020FF0F000068C9002000F8FFFFE7
:10185400E8C30020FF070000E0C400205FF36E3CF3
:101864000D66190004C400204B46BA4AD21A079BDD
:101874009B195B00980D410001308005400D795E95
:10188400385E9B02401A9B0D43439B125B185343E3
:101894001B1398460699B04B4A43521390449845FB
:1018A40000DA984680231B01984501DBAB4B984630
:1018B4004B467F2B01D800F0DEFB80231B019945AA
:1018C40001D200F0D8FB4A46A24B51009B1AA44A0D
:1018D4005B00521AB400A419A00D41000130800528
:1018E400400D795E385EA402401AA40D4443A4124C
:1018F40064185C43534324139B13E418964B9C4293
:1019040000DA1C0080231B019C4200DB934C4346FD
:10191400019AE31A5343029A1B13059943449B1AF1
:101924004B431B139B1882221C0080219200AA584F
:101934000901544324138A4200DA0A0053435246ED
:101944001B135343844A9B12934200DA13008022F0
:101954001201934200DB814B5146149A14981201F0
:10196400121A12025B1A121353431B135E18039BC1
:10197400002B00D152E2BA225200AB58002B00D106
:101984004AE2013B1803AB50C01A602103F0E2FFA6
:10199400704B181A049B704A584300134443704315
:1019A4000313934200DA130080221201934200DBF6
:1019B4006A4BF222AB52684B24139C4200DA1C009F
:1019C40080231B019C4200DB644CF423EC520BB0DB
:1019D400F0BCBB46B246A946A046F0BD0322230094
:1019E40008926446D0E6802372001B019E4200D315
:1019F40047E3594BD31807934B469B004B449C0D2C
:101A040060000134A405640D385E3C5F241AA446CA
:101A14009C026346A40D5C43079BA4122418544300
:101A24005A43241392134C4BA4189C4200DA1C0012
:101A340080231B019C4200DB484C4B464A46DB009A
:101A44009A1A910D48000892385E07918446980DC1
:101A54004200BA5E013091468005400D385E4A4628
:101A640007999B02013189059B0D801A490D584342
:101A7400795E6346C91A089B80129B029B0D4B43F7
:101A840048449B1263444010C018431099467F2E6B
:101A940000D8BBE2059B7F2B00D829E3C0239B0021
:101AA4009E4200D2B2E2C0231B019E4200D21FE339
:101AB4002C4B3003301A2C49C01803F023FF0211B9
:101AC400ABE27F2E00D83AE3059A1C007F2A00D8A7
:101AD40057E353460222DB10089255E69021090190
:101AE4008E4200D2AAE2042308931B4B4CE69021B9
:101AF40009018E4200D342E33003801B03F002FF4E
:101B0400144B164C181A40430013241A079A114B0D
:101B14004A445200900D410001308005400D9B1B4A
:101B2400795E385E9202401A920D42439212521824
:101B340005995A434B4312135B13D318064A934235
:101B440000DA130080221201934200DB034B0522CA
:101B5400089219E6FF0F000000F8FFFFFF070000DE
:101B6400FF17000001E0FF00FF030000079BD248BD
:101B74004B445B00990D4A0001318905490DBA5E59
:101B8400795E9B02891A9B0D4B43059C9B12801B1B
:101B94009B18434344431B1364131C19C74B9C42B7
:101BA40000DA1C0080231B019C4200DBC44C802310
:101BB40072001B019E4200D257E2C2498B1A9C4616
:101BC40042004B469B004B449E0D70000136B60507
:101BD400760D385EBE5F61469B02361A9B0D7343D9
:101BE4009B121B1853434A431B1392139B18B34A6B
:101BF400934200DA130080221201934200DBB04BBF
:101C040006220892C0E54B467F2B00D8A7E2069B2C
:101C14007F2B00D8C7E2029B8846DC1077E64B4650
:101C24007F2B00D891E2069B7F2B00D8AEE2089B65
:101C3400062B00D9BBE2A44A9B00D3589F464B46CF
:101C44005A0080231B01994500D32AE29B4B9C46F2
:101C54009444B3009B199C0D60000134A405640DE9
:101C6400385E3C5F9B02241A9B0D63439B121B1836
:101C7400534361461B1398464A43904B9213904436
:101C8400984500DA984680231B01984501DB8C4B6C
:101C94009846F3009E1BB20D94465100785E990D50
:101CA4004C0001318905490D3C5F795E6246013281
:101CB4009B0292059B0D091B520D5943BA5EB30258
:101CC400121A9B0D5343891209199B121B184910B0
:101CD400CE184B4676107F2B00D843E1C0239B00DF
:101CE400994500D23EE1C0231B01994500D2FCE195
:101CF4004B461803181A754B7549C01803F002FEB9
:101D0400041137E190210901894500D334E24B469F
:101D14001803C01A03F0F6FD674B181A4043684BCA
:101D240000131B1A98464A46634B9B1A079A941948
:101D34006400A10D4A0001318905490DBA5E795E3E
:101D4400A402891AA40D4C43A412A418069A5C4355
:101D5400534324135B13E418584B9C4200DBD1E536
:101D6400CFE54B467F2B04D990231B01994500D323
:101D7400FEE14B4690211803C01A090103F0C2FD8D
:101D84004D4BA046181A40434D4C0013241ABEE58F
:101D94004B4A944671E4C243D21710400490FFF7B3
:101DA40024FCD82280215200AB5889000133AB5067
:101DB4008B4236D2DA235B00EB589946DC235B0076
:101DC400EC58802315985B01984200DB3A48404365
:101DD400000B83001B185B001818142103F092FDFC
:101DE4004B4643439B12984480235B01984505DB93
:101DF400314B9846801144433619E8E44346DB43AB
:101E04004246DB171A409046F4E72D497F2B00D950
:101E1400FCE42A4B9846FCE42748BBE5264B049394
:101E2400A9E500238020AB50D6222A4940428C46A3
:101E340081465200AB58284C63436344190E8944CD
:101E4400DA2148465C43DC23644449006850AC50C2
:101E5400240E803C5B00EC50B3E7072B19D85346A3
:101E64004033FFF78AFBE42149006B504946D620F2
:101E74000131FF30C9B229540020E851D130FF307C
:101E84002B50002A01D1FFF794FB082901D0FFF75A
:101E940090FBEB2200235200AB54104AAA5C002AA8
:101EA40000D006E1C533FF33E8580433EB58FFF79D
:101EB40083FB034B9846ACE4FF0F000000F8FFFFE0
:101EC400FF070000FF17000020C4002001E0FF000E
:101ED400FF0300005FF36E3C0D6619006102000011
:101EE400C0218900894500D3D2E04B461803C01AAB
:101EF40003F008FD834603110693F3009E1BB20D05
:101F04005100795E01328C46990D4C0001318905EE
:101F1400490D3C5F795E9B029205091B9B0D520D96
:101F24004B43BA5E61465846B602521AB60D564342
:101F34009B121B19B6125B1066449E1976107043EF
:101F440000138046069B9844D04B984500DA984687
:101F540080231B01984501DBCD4B98464B467F2BD4
:101F640000D9BBE64B46C0211803C01A890003F010
:101F7400C9FC04117043C54B001304199C4200DBD7
:101F8400C0E4BEE4C02189008E4265D23003801BC8
:101F940003F0B8FC0311089009934B464A46DB0052
:101FA4009A1A910D480007923C5E980D89464200AA
:101FB400BA5E0130944649468005400D385E62465B
:101FC40001318905490D801A795E079A9B029B0DA0
:101FD4009202091B4343920D4A439B12634492129B
:101FE40012195B10089C9B185B105C439946099B73
:101FF4002413E418A54B9C4200DA1C0080231B0127
:102004009C4200DBA24C7F2E00D943E5C021300363
:10201400801B890003F076FC02114B4658430313DE
:102024009B189A4A934200DA1300802212019342C9
:1020340000DB974B07220892FFF7A6FB3003801BB7
:1020440003F060FC0422934B0892181A4043904B0F
:1020540000131B1AFFF798FBC0231B019E4239D2C1
:10206400FF2309938B4B089397E7884B9C46944432
:10207400A7E5069B98464B46844A5B009A18FFF7EF
:1020840029FC844B84499B1B8A1A07925A00B3E4A7
:10209400C0231B01994516D2FF2306937D4B9B4613
:1020A4002BE749467B4B5B1A7B498A1A94465A00B4
:1020B400CFE598229200AB54E2235B00E858043346
:1020C400EB58FFF779FA4B461803181A734B744907
:1020D400C0180DE7714B3003301AC018704903F073
:1020E40011FC03110890099357E7FF24694841E75D
:1020F400FF22684891E7664C069B9846FFF707FC69
:10210400069B0C009846FFF702FC069B98460AE6DD
:10211400069C29E6069B9846FFF7CFFB029BDC1042
:10212400EAE7E4235B00EB58FFF746FA082B00D1FB
:10213400AFE6E4235B000800EB58FFF73DFA1C0010
:1021440002230893524BFFF71FFB089B062B00D971
:1021540079E0544A9B00D3589F46069C09E688467A
:102164004B4CFFF7D4FB494A494B9446FFF785FA99
:10217400A046464CFFF7CBFB444B9846D3E5434C73
:10218400C4E402230893414BFFF7FEFA089B062B95
:1021940032D8454A9B00D3589F46069B9846FFF782
:1021A40092FB3A4CA8E78846384CFFF7B0FB07226D
:1021B4007243910D4B00FB5E9C46F300980D440066
:1021C40001308005400D3C5F385E9B02001B9B0D77
:1021D40043439E124B1C9B055B0DF95E6346C91A73
:1021E40093029B0D4B4336199B1263447610F618E9
:1021F400069B7610984671E507227243910D4B00B9
:10220400FB5E9C46F300980D440001308005400DB0
:102214003C5F385E9B02001B9B0D43439E124B1C8C
:102224009B055B0DF95E6346C91A93029B0D4B43F4
:1022340036199B1263447610F618069BFF249846C1
:102244001448761096E607227243910D4B00FB5E0C
:1022540001319C46F300980D4400013040003C5F7E
:10226400385E9B02001B9B0D434349009E12795E1E
:102274006346C91A93029B0D4B4336199B12634460
:102284007610F618069B761098466BE600F8FFFF6A
:10229400FF070000FF0F0000FF17000001E0FF0030
:1022A400FF0300003CC4002058C40020F0B53C4BA0
:1022B400C9B000933B4BD822019381239B00C6589D
:1022C4000433C55800236C4669460296039504936B
:1022D4000593FF32825C637694462276324A6383A6
:1022E400079307A80B7801315A4013049B185B002D
:1022F4009B18DB009B18DB009B185B009A18884234
:10230400F0D12A49E261264B0A689A421BD0E022A6
:10231400FF2110A803F022FD2022210008A803F0C9
:1023240023FDEFF3108472B680212148490109F09E
:1023340035F980221E48520008A909F077F984F380
:10234400108849B0F0BD8B88022BE0D1CB88202BBC
:10235400DDD1CB69144A1F0016480B7801315A406D
:1023640013049B185B009B18DB009B18DB009B1875
:102374005B009A188142F0D19742C8D10B4B9A68FE
:102384009642C4D1DA689542C1D11A69002ABED1F5
:102394005A69002ABBD11B7E6345B8D1D1E7C04638
:1023A400335A314302002000C59D1C8100F01F10E8
:1023B40000F01F001CF01F10F0B5DE4657464E46D5
:1023C4004546E0B5554B0400C25C8BB0002A12D0E0
:1023D4000021C154524BC25C0333C254514BC25C02
:1023E400514BC25401220733C252D823FF33C35C7A
:1023F400002B00D056E28A235B00E05A0233E35AF2
:1024040080221BB2059386235B00E358520002939B
:1024140088235B00E358F02107933C23FF33E35CFC
:1024240049009846F823E6580433E358A25800B20A
:10243400914694229200A25C9446625C002A1DD1CB
:10244400EC256D006259394FBA4215D8384901322A
:1024540062518A4212D94246002A00D15CE2E22249
:10246400FF32A25C002A00D05DE2324AA15C00295E
:1024740013D10131A15410E001226254E222FF324F
:10248400A15C002900D04EE22A4D625D002A59D099
:102494004246002A01D100F02FFF0121264AA1540F
:1024A4006246022A01D100F05FFEC44500D0F6E284
:1024B400942241469200A154183AA25C002A01D108
:1024C40000F05AFFF4225200A6501C49625C002A14
:1024D40000D106E3F6225200A3500693184AA35CE7
:1024E400002B15D14D46F133FF33E1582C33E3581B
:1024F400EB1ADF17DB197B403F2B00DC20E36B1A60
:10250400DD175B196B40602B00DD19E30123A35435
:10251400F8234A465B00E2501C3340E057020000B7
:102524005502000056020000590200009F8C000072
:10253400DF2E00004E0200004F02000039020000AE
:102544003A020000013262554246002AA5D14146B2
:10255400E14AA15200210232A1544946143AA6503C
:102564000432A3500432A15041461032A150083223
:10257400A152942200219200A154D84AA25C002ABC
:1025840001D000F042FEF4235B00E6580433E35824
:102594000693F8235B00E358994683239B00E35892
:1025A4009B4684239B00E3589A466B465621082297
:1025B4009B5E0003FF31089303F0A4F998239B006A
:1025C400E35C0500002B00D042E380235B019E42C4
:1025D40000DA39E3C24B9800C018C149000303F084
:1025E40091F94519E023DB019D4200DD1D00BD4B3F
:1025F4009D4200DA1D00EB171A05120D1B0D52192E
:10260400ED182D0512132D0D0492ED1A04D5802317
:10261400013A5B01ED1804926E007619B61230038C
:102624000C21070003F06EF903902D1A380080275F
:10263400AD4AB3009B587F010C21C0190292099343
:1026440003F060F903990136411AE80303F05AF9DB
:10265400029AB600099BB2580021D21A5043C01303
:10266400C018A24A002303F003FA4B04C10B591803
:10267400049B002B00DAFDE2994080239B00E35881
:10268400002B05D0CA1A511201D100F090FF59183D
:1026940080239B00E150059B5D00069BED18802381
:1026A4005B019D4200DA6AE28D4D089B5E00802347
:1026B4004E445B019E4200DA51E24346884E002BB1
:1026C40000D053E26B461C229A5E002A00DCD4E25E
:1026D4005B465200D31880225201934200DBA5E2EC
:1026E400DA43D217134080225201924500DA31E2D4
:1026F4007B4A0A20FF30205C00280DD00C20FF30DC
:10270400205CC7B2BC46002806D1D820FF30205C2C
:10271400002801D000F04BFE019200932A00330000
:102724002000FEF7D7FEC02380215B00E258090198
:10273400131C12B28A4200DB6D4B6E4A1BB29342E9
:1027440000DA13006A486C49C31A5A01D21A92007B
:10275400D3180B60C22380275B00E2583F01131C8F
:1027640012B2BA4200DB031C624A1BB2934200DA83
:1027740013005F4AD21A53019B1A9B009B184B60AB
:10278400D4235B00E35C002B00D057E2D0238022EB
:102794001B0652005A61AA23FF33E35C002B00D0CE
:1027A40046E2D02380221B0692005A616D43534AAD
:1027B4002B12116876434B401B0451491B0C0B60D0
:1027C400106833121B0443401B0C1B040B60822350
:1027D4009B00E35A4B4E5B4330681B021B0C434087
:1027E400494D1B041B0C2B6083239B00E35A306868
:1027F4005B431B121B0443401B0C1B042B608423F0
:102804009B00E35A41485B4307681B021B0C7B4057
:102814001B043F4F1B0C3B604346BC46002B00D1BE
:10282400B1E103681B0C1B043B60912300279B0050
:10283400E7500833E7529227BF00E359002B2AD010
:10284400013BE351DB04334CDB0F013B2340244CBD
:102854001B195B4314681B125C402404240C0C6099
:1028640012681C046240120C12040A6032685A4056
:102874001204120C2A6032686240120C12042A609C
:102884000268534062461B041B0C136003686340D8
:102894001B0C1B0413600BB0F0BCBB46B246A9462C
:1028A400A046F0BDB6235B00C1500433C1505F3273
:1028B4000433C25001224833C1500833C150083395
:1028C400C1500833C152143BC1500833C1500833BE
:1028D400C1500633C2548EE53E0200004F02000090
:1028E400FF0F000000E0FFFFACC40020314D590091
:1028F400FF07000000F8FFFF44D5002070000540EA
:10290400701005408400054084100540980005407F
:102914009810054001F0FFFFE2230122FF33E25447
:1029240042460133E2540023F222A3520232A3525C
:10293400D94BDA4A1A605A60D02380221B0652000F
:102944005A6192185A6180235B019E4200DBE3E0E6
:10295400F243D2173240D1008918D82201200B0B40
:10296400FF32A35402001A40184200D0CC4ACD4B87
:102974001B685A401204CC4B120C1A6080220B00C4
:1029840092011340114200D0C54BC64A1B04126881
:1029940053401B0CC44A1B04136080230A00DB0150
:1029A4001A40194200D0BE4AC048C90B03685340BC
:1029B4001B04BF4A1B0C1360002900D0A8E0036865
:1029C4001B0C1B041360BB4BBB4A1B681B041B0C76
:1029D4001360B84BB84A1B681B0C1B041360F1232B
:1029E4005B00E25C002A01D100F07DFCE423424656
:1029F400FF33E55C002A01D000F022FD002D00D158
:102A04008CE06346002B00D088E0EE225200A358ED
:102A1400AA498B4201D800F0C1FDF2267600A35DDD
:102A2400002B00D083E02000FFF740FC0123A355D6
:102A3400A34B92229200A3506B425D41A14B6D4285
:102A44001D40A14B974AED186D4313682D126B403E
:102A540095491B041B0C0B6012682B045A40120C82
:102A6400924812040A60026891496A401204120CE6
:102A74000A6002688F485A40120C12040A60026805
:102A84008D496A401204120C0A60026853401B0C00
:102A94001B040B60942342469B00E254FBE642462F
:102AA400012A00D018E16246012A00D100E58E22F5
:102AB40000219200A152854AA1544946263AA650C3
:102AC4000432A3500432A15041463432A154683A2E
:102AD400A1588E229200A25C002A00D0F2E40E00DB
:102AE400F3E4ED32FF32A5582C32A25806959A1A17
:102AF400D717D2197A403F2A00DCEFE45A1BD517C6
:102B040052196A40602A00DDE8E401226254E1E4DB
:102B140001686F4B4B4053E76B4A1CE7E4220123E7
:102B24000021FF32A3540132A154083AA350922346
:102B34009B00E358002BADD0013BDD04ED0F78E79B
:102B440083239B00E35889469B4684239B00E358D8
:102B54009A462AE55046C243D2170240C9E5F343D8
:102B6400DB171E404346002B00D1ABE580235B01FD
:102B74009B455BDA5A46D343DB171340B3E5EB437B
:102B8400DB171D4091E50268514B53401B0C1B049D
:102B94003B6093239B00E55C002D0CD091229200B6
:102BA400A35846498B4200D8EBE24A4EA35D002B62
:102BB40001D100F073FC92239B00E358002B00D159
:102BC40069E6013BDD04ED0F92229200A3506B42B3
:102BD4005D413C4A6B4213403B4A32499B185B437C
:102BE4000A681B125A4030481204120C0260096829
:102BF4001A045140090C2D4C0904016021682C4829
:102C040059400904090C016021685140090C090468
:102C14000160284801684B401B0427491B0C0B60CA
:102C240003685A40120C12040A6034E6264B5AE533
:102C3400D02380221B0692009A61B7E5D02380221C
:102C44001B0652009A61A6E5F343DB173340C2E446
:102C540096239B00E05C0C212438000302F052FE12
:102C640097239B0006000C21E05802F04BFE361817
:102C74007519B7E45B42D940FFE4002A00D175E737
:102C840080235B019B4500DA76E20F4B50465200ED
:102C9400821A924627E5C04644D5002083E7030004
:102CA400E0FF0000700005407010054084000540FE
:102CB400841005409800054098100540FFDB05008E
:102CC4007FBB000001F0FFFFFF0F00003A0200008D
:102CD4000000E0FF4D020000022A01D0FFF7E8FBEC
:102CE40000224846E5496254013162521C3966505B
:102CF4000431635004316050404628316054002050
:102D04000C39625008316252FC225200A1582C3214
:102D1400A2589A1AD51752196A403F2A00DD7AE35D
:102D24000B00002800D03DE2FE224D465200A1587F
:102D34002C32A258AA1AD017121842403F2A00DD9A
:102D440026E28946DA00D31A5B001B130233102BE8
:102D540000D91023D0225200A350983AA25C002A32
:102D640000D1D2E185225200A25CD1B2002A00D067
:102D7400CBE1D2225200A1500121FA229940520003
:102D8400A058BF4A0139821802D580221201121AB2
:102D9400BC20400025587838FF3806008046AC3007
:102DA400FF302058D2100700B6482E407843B64F63
:102DB400C019FF2A06DCD243D2B2070EBA4201D9A7
:102DC4004646AE43D6225200A0503200013B9A4000
:102DD4001300BC22AA206D082B430B405200A350C1
:102DE4003032A6549A07D20FFF302254CC2200204E
:102DF4005200A0501803C01A02F0ACFDA04BC0183A
:102E0400802345002D18AD029B002D13ED1880235F
:102E14001B019D4200DB9D4DC0235B00E550043B3C
:102E2400E2581001801A40190011E0500833E050B4
:102E3400002E00D155E3D823FF33E35C002B00D1EF
:102E440076E3DE2200235200A3500832A350083256
:102E5400A3500832A352143AA3500832A3500832A4
:102E6400A35001330632A3543A3AA350CC22520061
:102E7400A3580133A3509622D200934203D9D423FA
:102E840000225B00E252802229B22B1C12019142E3
:102E940000DB7E4B7A4A1BB2934200DA13007B4E6E
:102EA4007B49F31A5A01D21A9200D31880220B607C
:102EB400031C00B21201904200DB331C704A1BB2A7
:102EC400934200DA1300714AD21A53019B1A9B00F1
:102ED4009B184B60F42380225B00E3585201934219
:102EE40000DA3DE16B4B9800C0186A49000302F018
:102EF40009FDAB005B19DB021B13C018E023DB01E7
:102F0400984200DD1800644B984200DA1800C31799
:102F14001F051B0DC5183F0D2D053F182D0D3F1323
:102F2400ED1A03D580235B01ED18013F6E0076197D
:102F3400B61230030C21804602F0E4FC574AB30079
:102F44009B580390049380232D1A40465B01C018BC
:102F54000C21029202F0D6FC03990136411AE803CF
:102F640002F0D0FC029AB600049BB2580021D21A97
:102F74005043C013C0184A4A002302F079FD4904A3
:102F8400C00B0818002F00DAECE1B84080239B0046
:102F9400E358002B04D0C21A501200D1D2E2181800
:102FA400802380229B00E050103BE358520193425F
:102FB40000DAD1E0374BF62280215200A2584901B1
:102FC4008A4200DAC4E0334A8421890061580191BD
:102FD400832189006158009101002000FEF77AFAEC
:102FE400D4235B00E35C002B00D008E1D0238022D3
:102FF4001B0652005A61AA23FF33E35C002B00D066
:10300400F7E0D02380221B0692005A61BC225200B2
:10301400A2580123110019401A4200D02149224B21
:10302400224A1B684B401B041B0C1360BC22520039
:10303400A2580223110019401A4200D01C491A4B0D
:103044001A4A1B684B401B0C1B041360BC22520021
:10305400A2580423100018401A4200D01148154900
:10306400154A0B6843401B041B0C136084235B004C
:10307400E35C0B6896201B0C20E0C0463B0200007A
:1030840000F8FFFF0D6619005FF36E3CFF070000B8
:1030940044D50020FF0F000000E0FFFFACC4002077
:1030A400314D5900E0FF00007000054070100540EC
:1030B4000000E0FF84000540841005401B041360F9
:1030C400D0235B00E258C00013039B1A1B031B0CA4
:1030D4005B43E34A1B0211681B0C4B401B04E14990
:1030E4001B0C0B60CE235B00E458002384425B413D
:1030F40080205B4280030340DB4812681B18534066
:103104001B0C1B040B60FFF7C6FBD221490062585D
:10311400D648824200D9C9E101326250CE22C02091
:10312400D421962652004000A35825584900043063
:10313400615C2058F600B34200D2D7E1002900D0E8
:1031440094E6AA23FF33E35C002B00D19BE68DE6D3
:10315400D543ED172A4037E7DA43D21713402AE75D
:10316400DA43D2171340BEE64246022A1FD0012A90
:1031740001D0FFF79DF99AE45846C343DB17034097
:1031840084E50133A350BA4A934200D013E50CE519
:103194006A1AD01712184240602A00DDD1E50121D5
:1031A400B44AA154FE2249465200A150CAE59422D1
:1031B40040469200B04FA054E25D912594468F2280
:1031C4009200A25CAD009046AA4AA05C0022625123
:1031D400083562536246002A00D106E1FA22520001
:1031E400A6504246002A00D18EE5FC225200A3508C
:1031F40097E5D02380221B0692009A6106E7D0232C
:1032040080221B0652009A61F5E69C4AA25C002AC1
:1032140000D19FE19A4AB2183E2A00D8A5E0994A03
:10322400B61881229200A650F217B6185640802292
:1032340076005201964200DA88E182229249920095
:10324400A1509249625C002A13D183229200A558AE
:103254002432A258AB469A1AD617921972403F2AC2
:103264000BDD5A1BD61792197240602A05DC012225
:10327400625483229B469200A35090229200A35C46
:10328400002B14D184234E469B00E5582433E35885
:10329400AA46F31AD9175B184B403F2B17DD731B53
:1032A400D9175B184B40602B11DC0123A3548423F2
:1032B4004A469B00E250283BE6580433E358CA468A
:1032C4000693F8235B00E3589946FFF76EF9F4235D
:1032D4005B00E6580433E3580693F8235B00E35895
:1032E4009946FFF762F94246002A01D1FFF7D2FB63
:1032F4000122E254FFF7CEFB6246022A00D096E098
:10330400C422634D5200AC46A258624F94446546B1
:10331400BD4209D8C8256D006251043D6251D522D1
:103324008C3D5200FF3DA554C42200255200A550F7
:1033340000229446942265469200A554043AA1546E
:1033440049464E4AA5520232A554143AA6500432B4
:10335400A3500432A150504AA25C002A01D1FFF7C5
:1033640012F96EE77F42F84010E6812200219200B4
:10337400A1500432A15064E7E932FF32A1582C3243
:10338400A258B21AD51752196A403F2A01DCFFF736
:10339400A0FB721AD51752196A40602A01DDFFF7A3
:1033A40098FB8E2201219200A154FFF78BF8B620DE
:1033B40040002750043027506027043027506746C8
:1033C40048302750083027500830275008302752FB
:1033D400143827500830275008302750EB27D038AE
:1033E400FF387F00E055FFF797F988229200A25832
:1033F400B21AD51752196A403F2A00DCF1E6FA22C4
:103404005200A258B21AD51752196A40602A00DD38
:10341400E7E6E155E2E65A1AD51752196A40602ADE
:1034240000DD7DE48F2201219200A154DDE6002A13
:1034340001D1FFF79EF8614601394A42514177E7CD
:10344400002D01D1FFF726FBE2210022FF31625457
:10345400E254073BE2500833E254FFF71BFBC0463B
:1034640098000540981005400000E0FFFF76010039
:1034740000DC05003D0200003B0200003E020000AB
:103484001FF8FFFF00F8FFFFFF0F00003F020000DE
:103494009FF6FFFF9E6D01004F0200002000FEF723
:1034A40005FF0123A355444BFFF78EFBCA214D466C
:1034B40049006258AA1AD01712184240402A18DC50
:1034C400D5225200A25C6550002A17D0C6225200B1
:1034D400A258C420400021580131914225D22150E4
:1034E4001CE6CE2301225B00E2502AE60133A350FE
:1034F40024E6D52200205200A054655080225201B7
:1035040091450DDB2D492D4A521A5243110B2C4A79
:103514004A432C49120B5218C62149006250D8E77D
:103524004A46D143C9171140EDE70022225023E453
:1035340001229D33FF33E2509832FF32A358013306
:10354400A350A0E4511E8A41D01829E5822292009A
:10355400A65076E68B229200A258B21AD1175218BE
:103564004A403F2A00DC6CE6812280219200A25866
:1035740009015218802149018A420BDB0F4AB21A11
:10358400D11752184A40602A00DD5AE601210E4A3A
:10359400A1543FE6D143C9170A40F0E70133A350D1
:1035A4000A4A934201D0FFF7C2FAFFF736FA511ED6
:1035B4008A41D118FFF76CF87FBB0000FF0F0000B1
:1035C400A8DE0000B80B00003E02000000DC05008D
:1035D400024B1A78002A00D118707047A4F2002018
:1035E400034B1A78824201D100221A707047C046F8
:1035F400A4F20020F0B5DE4657464E464546E0B5F7
:10360400CA4BA9B01B780190834200D0B3E00029D3
:1036140000D1B0E0002306AAD37108AB9946C44B8D
:103624001C0006A980234A460198073100F06AFD70
:10363400002800D19FE04F463B784A464844F02B8F
:103644001ED09C219D25BA4ABA4E8900AD0051581E
:10365400555D925D9346002D00D161E10022002664
:103664000025F72B2AD00B2900D88BE00137B8426C
:1036740000D1B9E001223B789346F02BF1D13A0016
:10368400571C874270D05378F02B00D19BE0F72B66
:1036940000D1BCE000220121A74D93468C4601379E
:1036A400511CA21801265355B84200D174E03B784E
:1036B40001256246F02BE2D0F72BD4D15B46944629
:1036C400002B00D1B0E07A1C824200D1A9E07B78C3
:1036D400F02BD5D067460126039704910595F72B67
:1036E40039D85FB2002F00DA82E0944FE15D0F27F2
:1036F4008A46B9430D00029151461037B9438029D7
:1037040001D0E02D27D195218900675C7D1CEDB2A5
:10371400A84665548A4DE7197F193B704346012B2F
:1037240019D900236354874B5146E75C0F230B40A0
:10373400BB4210D1029B675D902B00D1C4E0802B6B
:1037440000D1C5E0804B8149E35CDB013B43972713
:103754005B18BF00E3510132904252D01378F02B32
:10376400BDD1571C87428ED10021724B704A01266D
:10377400D15401231CE029B0F0BCBB46B246A94693
:10378400A046F0BD94460A006B4D511C0137A218A7
:103794005355B84200D08AE7012301256246002A26
:1037A40003D05F46624A63481754002D03D0604A31
:1037B4009C2080001150002E00D132E79D215C4AEC
:1037C400890053542DE7971CB84200D194E09378B4
:1037D400F02B00D153E701229446002201269346A0
:1037E4000021012562463CE7012201239346D8E7E4
:1037F400524F0132E355952300279B00E754904232
:10380400ACD1039B04999C46059D0023C6E7002385
:103814007A1C9B46013301259C460021824200D03C
:1038240055E701260023B9E70B2900D04BE7404AAE
:10383400414BD35C7D2B00D045E79926B600444B21
:1038440096599E4200D03EE79A239B00D35C033BEB
:10385400012B00D937E79B23FE269B00D35CB601DE
:10386400DB0133403B4E9846965D33007F261E4075
:1038740043463343802602937601B34201DB364B41
:1038840002930F23354E965D33409846FE23344E03
:103894009B01965DF60133409A46324E935DEB3EB2
:1038A400FF3E1E4053461E4380235B019E4200DBC5
:1038B400294E83239B00D6508426029BB600935145
:1038C4004646204BD654FEE61F4BE35C002B1AD130
:1038D40096239B00E35CBB4200D03CE7D823FF3334
:1038E400E35C002B17D0EB235B00E35C002B12D0CE
:1038F40001271D4BE7542EE7002201260123012551
:10390400934600214DE719496754194FE3550127A0
:10391400184BE7541FE7982300279B00E7541AE746
:1039240000264A46039604910595D8E6A4F20020A1
:10393400F0DE002075020000630200005102000066
:1039440052020000620200005302000000E0FFFF88
:1039540043315A336B020000FF0F00006D02000078
:103964006A020000690200006102000055020000C2
:1039740056020000570200007047C04610B50548C3
:1039840002F0F2FB0448054B186007F0F1F8002040
:1039940010BDC04615020020F0DE0020E8E400203F
:1039A40070B5764C00252000FDF774FB744B754A06
:1039B4002360B6235B00E5500433E5500433E5503F
:1039C4000433E250C6220433E5500433E550043393
:1039D400E5500433E5506C4B5200A3500432A3501D
:1039E400802396211B010432A3500432A550C90040
:1039F4000432A15010210432A15064490432A15070
:103A0400D4210022D6204900655202316254AA39D9
:103A1400FF39400021500430255004302550043033
:103A240025500430255004302550043025500430EE
:103A3400255004302550564E04302550043026506D
:103A4400FC26043025500430255004302550043021
:103A540022540430235004302550043025500430BF
:103A640023504C487600A0510436A3510436A55186
:103A74000436A5510436A5510436A5510436A55182
:103A84000436A3510436A5510436A5510436A35176
:103A94000436A0518A2080002350043023508C2304
:103AA4009B00E5503C480433E5500433E0500220C9
:103AB4000433FF30E0500433E2540433E55004335C
:103AC400E5500433E5500433E1500433E254334BFE
:103AD4003B31E154324B2831E154324B3249E25408
:103AE4000133E1520433E5500433E5522F4B0021F6
:103AF400E2542F4B0C22E01802F030F99C232D499C
:103B04009B00E5500433E5520A682B4B9A4200D0DF
:103B140070BD8B88022BFBD1CB88202BF8D1CD69CB
:103B2400264A27480B7801315A4013049B185B003E
:103B34009B18DB009B18DB009B185B009A188142E2
:103B4400F0D19542E4D181221A4B92009968A15098
:103B54008022DB68520193420CDB0E4B82229200DE
:103B6400A350144B1B7E082B00D90023D822FF320C
:103B7400A354CDE7DA43D2171340EFE7F0DE002079
:103B8400A8C40020E1AC0000E02E00000077010092
:103B940008080000FF0F00000101010155020000A8
:103BA40056020000570200003C640000620200005C
:103BB4006302000000F01F10335A3143C59D1C817D
:103BC4001CF01F10004870479CD300200048704729
:103BD40034D3002070B5002826D0032833D81B4BDB
:103BE4008000C458200006F049FEC3B2181C1F2BE5
:103BF40018D8C021C0B2421CD2B25200890011436D
:103C04000D00002B1CD0124B9C469A1C0023E15C37
:103C140001331180D9B202328842F8D86346604633
:103C24001D8070BD1F20E4E70A48C1250400074B2E
:103C34000222196802F098F8A31E9C46AD00EDE735
:103C4400034B9C46EAE70020EBE7C0464CD5002036
:103C5400FCEB0020FEEB002070B5164C82B0200077
:103C640003F0F4FF002805D02500D9232C3DEE5C99
:103C7400002E02D0002002B070BD0120E97805F0CA
:103C8400DFFD0028F6D020000B49EA8804F060F834
:103C9400E978041E0AD00300074A01200196009621
:103CA40005F01EFE0028E5D02000E4E7012005F021
:103CB400EFFDDFE7F4DC002020DD0020F0B5244C2C
:103CC40085B0DC220021200002F048F8214E35683E
:103CD400280001F0EBFF20640700706801F0E6FFA4
:103CE40003906064337A01215800C018400001F049
:103CF400FBFFE060002F26D0039B002B25D000287B
:103D04001FD0AAB2200000250123390018300095E5
:103D140003F066FFB28820002600616C0123483658
:103D24002C30009503F05CFF300000F0ABFEA6627F
:103D3400260050363000656200F0A4FE0120A66320
:103D4400E56305B0F0BD3800FBE71800F9E7C046AD
:103D5400C8DC002060D5002010B50E4C206C002873
:103D640003D001F0E3FF00232364606C00280CD02F
:103D740001F0DCFF0023E0686364002803D001F055
:103D8400D5FF0023E360012010BDE0680028F6D1D0
:103D9400F9E7C046C8DC0020F0B51C0083B0012858
:103DA4002AD1D923334DEA54002A25D1AB788B424A
:103DB40025D0EB788B4248D001201EE028002C301F
:103DC40003F044FF002844D1002C42D02000E988AD
:103DD40001F0C0FD0C1E3CD10120E97805F030FD56
:103DE400002836D0E97823002200012001940094B1
:103DF40005F076FDA0422CD1002003B0F0BD002CCC
:103E040019D0A40817D02634A4002E192C0000279A
:103E1400983402E00434A64209D02368002BF9D078
:103E240004222100144804F09BF80137F2E7134BF5
:103E3400002B16D1A97800242A00AB882878983260
:103E44000194009405F04CFDD7E7FFF705FF002827
:103E5400B4D00B4B002BAFD00120FFF78DFD012018
:103E6400CBE7002FE6D039000120FFF7C3FBA97888
:103E7400E1E7C046C8DC0020E0DC00200534002077
:103E84008937002070B5012824D1134B002B02D0B0
:103E94000021FFF7A5FB114C200004F015F92000C8
:103EA4002500143004F010F9002300222000183DEE
:103EB4006B602B81FF332B60273BEA5400210622E1
:103EC400083801F04BFF064B00211A7AE86892008B
:103ED40001F044FF70BDC046F1330020E0DC002057
:103EE40060D50020F8B5DE4657464E464546E0B557
:103EF400012906D1D92100206A4C60545179012945
:103F040006D00020F0BCBB46B246A946A046F8BD88
:103F14009079002101286BD00328F2D1157850192B
:103F24004678B446242676426644012E00D87FE0C3
:103F34006646052EE5D19278691889B262708B4283
:103F440000D8A0E0584A15685268A9469046002255
:103F540000259346924623E0252A29D0052AD0D16C
:103F64004279057912022A43402A04D94022027177
:103F74000022427140328578EE092DD1E678677AC5
:103F84003E43BED1424500D942468346E570E280B5
:103F94000278511889B299424FD2801842789446D7
:103FA4006246242AD8D18278013A032AA9D8EFE7B5
:103FB4008278012AA5D1002DA3D0EA0928D1E2787C
:103FC400AA429ED1627A002A9BD1C2786272027898
:103FD4000025511889B2DEE7A678277A3E4300D03F
:103FE4008FE74A4500D94A468246A570A280CFE7AA
:103FF400002B07D185E710784118121889B250793F
:104004008B4210D90128F6D190790328F3D183E7A4
:10401400A278AA4200D074E7227A002A00D070E77E
:10402400C2782272D3E7012800D06AE7907973E757
:104034008678012E00D064E77DE7E378002B1AD060
:10404400637A002B17D05346002B06D0514601202B
:1040540005F080FC002800D153E75B46002B06D016
:104064005946012005F076FC002800D149E70123D8
:104074000120237046E7A378002B00D141E7237A7F
:10408400002BE0D13DE7E378002B02D0637A002BCC
:10409400EDD1A378002B00D133E7237A002BE6D1AE
:1040A4002FE7C046C8DC002060D5002070B50E00A4
:1040B40082B001281ED1114CD82300252200E054DF
:1040C400A388A178207898320195009505F008FC22
:1040D400051E0FD00A4B002B07D0607A237AE278B2
:1040E400A17800900120FFF773FA3100012005F058
:1040F40059FC00E00025280002B070BDC8DC002097
:10410400E1330020F0B557464E46DE464546E0B55D
:1041140014000F00994685B001280ED100290CD057
:10412400002A0AD0002B08D0604D02AA2800D11D15
:10413400A84603F083FE002808D10026300005B00D
:10414400F0BCBB46B246A946A046F0BD290002AA6F
:10415400D37928001B0904223B70083903F0F8FDC9
:104164000428EAD1524B0026183D00931CE0009B22
:104174009C4618885B46184240D102AB4046D91D84
:1041840003F05CFE0028D9D002ABDB793A781B0936
:104194009A42D3D1404601000422083903F0D8FDE5
:1041A4000428CBD1B145C9D92B7C1B093B702A7A91
:1041B4009A42E2D901229A4093B29B461123EB56CC
:1041C400697C002BD3DAF02911D0EF2935D80B09FB
:1041D4000C3BDBB2012B46D9032303209A46344A15
:1041E4005B46944612889A4363461A8015E0304B26
:1041F40018889C465B461843634618801223EB5686
:10420400AA7C002B3ADB1322EB7C0193AA560223EF
:10421400002A2CDB01339A461800217084460221BF
:10422400504601346A18137C4A1C2370032101345C
:104234008242F7D9604636189FE7F7290ED8F3294A
:1042440018D006D8F12915D00323F22103209A4669
:10425400E3E70B000A33DBB2012B8ED80120217077
:104264003618013489E7022302209A46B7E7019BF6
:10427400F72B18D0022302209A46CEE7F72A09D05A
:104284001322EB7C0193AA560123002AC2DA019B74
:10429400F72BE3D1012301339A465B4662469843E8
:1042A40010805046B9E70223F5E7C046E0DC002061
:1042B400A2F2002001230370004870476CD500204F
:1042C40010B54024074A83009A181268C00054406D
:1042D400C0222240044C1B191A60044BC0184160D0
:1042E40010BDC04604C0014004D00140004001405C
:1042F400064B8000C3181B68C90092000A435A4049
:104304000C231340024A80180360704704C0014024
:1043140004D001408000002904D0054BC01840237C
:1043240003607047034BC01840230360F9E7C0469D
:1043340004E0014004F001400123D022834012062E
:1043440093629361084A83009A181168402251408D
:1043540080320A400549C0005B181A60044BC0183B
:10436400052343607047C04604C0014004D00140A7
:10437400004001408023DB051868000F7047C046E9
:104384000FB400B5084883B001F05EFE049B002B17
:1043940007D005A91800019101F0F4FC034801F0CD
:1043A40053FE012001F006FDACD10020BCD1002059
:1043B40070B58C461600EFF3108472B60F490B6883
:1043C400002BFCD0BFF35F8F6346DB08C5180722C0
:1043D400C05C63461A40012393401A000240034222
:1043E40007D118432870BFF35F8F0A6084F31088E5
:1043F40070BD61463000FFF7C3FFC0462C0100D0FA
:10440400F8B5CE4647468C4680B51C00EFF31088BD
:1044140072B61C490B68002BFCD0BFF35F8FA2421D
:1044240021D80723994602E00132944218D3494621
:10443400012611408E40D308C718C35C1E42F3D135
:10444400100033433B70BFF35F8F00220D4B1A60A3
:1044540088F3108800280EDBC0BCB946B046F8BD0E
:1044640001204042EFE7BFF35F8F00230B6088F326
:104474001088012040426346002BEDD00898FFF7D6
:104484007FFFC0462C0100D0044A1078431CDBB2E5
:10449400172B00D9102313707047C04688D500200D
:1044A40000B5054B83B00100009318221F23034875
:1044B400FFF7A6FF03B000BDC0D10020CCEB002065
:1044C4000021044B044ABFF35F8F02C39342FAD125
:1044D4007047C046000100D0800100D0084B094A53
:1044E4001360094A1360094A1360094A1360094AB0
:1044F4001360094A1360094A1360094A136070473C
:104504008080808000E400E004E400E008E400E04F
:104514000CE400E010E400E014E400E018E400E03F
:104524001CE400E01F2318401E3B8340002905D0F3
:10453400C021044A49005350136070478022014946
:104544008B50FAE700E100E001228240034B1B6834
:1045540013405A1E9341D8B27047C04600E100E0B0
:1045640070B50D00EFF3108672B60F4A1368002B76
:10457400FCD0BFF35F8F0D4B10309B6884001B5938
:104584000B4A934203D09D4201D001F07BF8074BC4
:104594009B681D51BFF35F8FBFF35F8F0022024BF7
:1045A4001A6086F3108870BD240100D000ED00E08D
:1045B400C1010010F0B5DE4657464E464546E0B50B
:1045C400824683B08B461700EFF3108872B6604AB8
:1045D4001368002BFCD0BFF35F8F00255D4B5D5744
:1045E4009946002D00DA9AE04A466B005A4C5E194F
:1045F400B6000193A31900939B791370574B9A68E3
:10460400534610339B00D15899460B1B2F2B32D99C
:10461400534B994200D098E0019B0236ED18514B60
:10462400AD006353504BA619043B9B1B4F4A1B051B
:104634005B0D651913436B804D4B0121AB80FF2348
:10464400AB715B46AB60009BEF710B4319004A46AC
:10465400424B9B689950BFF35F8FBFF35F8F00227B
:104664003B4B1A6088F3108803B0F0BCBB46B246DB
:10467400A946A046F0BD01200A008243D379B4467E
:10468400BB422DD83B4BB51C190013001B1B5B41CF
:104694005943090D8C46334B6519A353324B00998A
:1046A400043B5B1B1B05314D5B0D2B4304364B80D8
:1046B400A619131F9B1B1B055B0D1D4363468B71C2
:1046C4005B468B602C4B8D80CF7113600143BEE73A
:1046D4005800C01880002018C679BE4225D90200AF
:1046E4000623D356002BF3DA9A46131D9C4623481F
:1046F4006346009E9571043EF61A36051B4B760DF3
:104704001E43019B96805A1953469200A418A37124
:104714005B46194AA0802260E771A36097E700F026
:10472400B1FF00254B465D575EE766469A46131D6A
:104734009C469088043640050015A6196044801BE9
:1047440000050A4E400D3043D2E700F09BFF63E7BB
:10475400240100D0ABF200208CD5002000ED00E055
:10476400C101001000A1FFFFBCD5002000E0FFFF45
:1047740001BDFFFFAAAA00000148804701BD000057
:10478400F0B54546DE4657464E46E0B50D0083B0CB
:10479400EFF3108872B6604A1368002BFCD0BFF3A5
:1047A4005F8F5E4B5E499A68030010339F00D459B3
:1047B40099468C423ED0AC424FD05A4EA21B2F2A6F
:1047C40038D8594B1A689C46130001228240134082
:1047D4001F22024001209A4690406346802283466D
:1047E4009850BFF35F8FEFF305830193002B36D00E
:1047F400994501D000F046FF012322009A439068B6
:10480400854208D176E04B005B189B00F31898684A
:10481400854236D01A00062151560029F3DA854222
:1048240054D05346002B27D0C02259463E4B520049
:1048340099501960394B9B68DC51BFF35F8FBFF30C
:104844005F8F0022344B1A6088F3108803B0F0BCE9
:10485400BB46B246A946A046F0BD0C00EAE72200DA
:1048640001339A4390688542D5D10620105613002F
:1048740000280ADA0C0031E0802359462A4AD15034
:10488400D8E706201856002821DB420011188900B9
:1048940075188946A9689960E979D971062169561C
:1048A4009971002924DBAD88F11A6D052D154D444D
:1048B400491909051D4D490D2943998013181C4AAE
:1048C4009B001178F31899711070AAE713000199ED
:1048D400002914D1FF3191711649918014490A7845
:1048E4009A71154A9B1B5B415A43120D0A7098E753
:1048F4001049E2E70620105613000028C5DA0F4AD3
:104904000F49D21A083A5002400D014399800D49CB
:1049140052080A43DA8084E7240100D000ED00E065
:10492400C10100108CD5002000E100E000E0FFFF91
:10493400ABF2002001BDFFFFAAAA0000C6D50020EB
:1049440000F0FFFF00F8FFFF084A83089B009B1854
:104954001A6810B5140003221040C000FC328240D3
:104964009443220081400A431A6010BD00E400E031
:104974000123034370B59C46EFF30581EFF31085E3
:1049840072B6214A1368002BFCD0BFF35F8F1F4B14
:1049940004001F4AE41A64416243120D1D4C89004D
:1049A400A66852B2765866451CD0062159569142E3
:1049B4001CD012215956914222D01E21595691429F
:1049C40020D02A2159560324914210D0124B197831
:1049D4001A708171BFF35F8F00220B4B1A6085F34D
:1049E400108870BDA3680D4C5C50EFE70024610093
:1049F400091989005B18FF21997109499980E5E734
:104A04000124F4E70224F2E7240100D08CD500202D
:104A1400AAAA000000ED00E0ABF20020C1010010E2
:104A240001BDFFFF024BC918890001607047C046F1
:104A34004000003470B5114C114DAC420FD2FF262A
:104A44002368002B0CD0FFF71FFD01002000FFF7A7
:104A5400E9FFA680BFF35F8F0834AC42F0D370BD8A
:104A6400FFF712FD01002000FFF7DCFF2671BFF302
:104A74005F8F0834AC42E3D3F1E7C04670DC00201A
:104A840080DC002010B50400FFF7FEFC01002000CC
:104A9400FFF7C8FFFF232371BFF35F8F10BDC0462C
:104AA40010B504000120FFF7FBFC034BC018800085
:104AB4002060BFF35F8F10BD400000340A4B1968BB
:104AC400EFF3108072B60A68002AFCD0BFF35F8F40
:104AD4001B68BFF35F8F00221A6080F3108840BF09
:104AE400002000217047C0469CF20020F0B5DE464D
:104AF40057464E464546E0B585B0EFF3058303229D
:104B04001A40B34B91005F58012393409B46029295
:104B14005A468846AF4B1A60AF4B03935B46AF4887
:104B240043630823FE5E002E37DABB881BB2002BDA
:104B340000DBA4E0BB79002B00D0E5E00823F95E9C
:104B4400002920DB4B007A695B18DB00D3189D68D1
:104B5400DC686B1C00D104E1A04801004144826A76
:104B64000B69AE1A9B1A9E4215D30123026A02985E
:104B740083401A420FD0994800F0CEFB8C4202DCED
:104B8400CCD18542CAD940BF05B0F0BCBB46B246C1
:104B9400A946A046F0BD0D61EDE77A697300914620
:104BA4009B19DB0099444B469C68DD6800F0B4FB1C
:104BB4008D42BADC00D1F6E0002D00DADBE04A4693
:104BC4004B4652691B699246039A934200D1CCE04A
:104BD4004A460821785E528800045146104398479B
:104BE400009001910099019A0B00134300D1C2E097
:104BF40013000A00002B00DBD9E020002900801AF2
:104C040099414B469860D96000229B5E002B00DAE4
:104C14008BE75D007C69EA18D200A21800949468BE
:104C2400D268A2468A4200DD7FE702D1844200D9DD
:104C34007BE70824A4463B81BC44009C00972F00DA
:104C44006546B4463E0006E05E00F218D200A218A3
:104C54009768D268BA468A4207DC00D1B4E0F318F8
:104C6400DB00E518E35E002BEEDA66464A46009F59
:104C740013802E80BB881BB2002B00DA5AE73A69F6
:104C8400EFF3108172B61368002BFCD0BFF35F8F73
:104C94000123BE885B42BB8036B23B69BFF35F8FA2
:104CA40000221A6081F31088002E00DA42E73B00EC
:104CB40008333A0099467D6973009B190824115FF3
:104CC400DB004846EB18002913DB9C680093A446DC
:104CD400DC6806E0A34240D00023F95E38000029D6
:104CE40006DB4F007F18FF00EF19FB68A342F1DDDC
:104CF400009B068000201E5E1980002EDCDA17005F
:104D0400BB79002B00D119E70023BB710823F95E9E
:104D14004B1C00D137E73D000835AC467C6903E005
:104D240084464B1C00D109E74B005B18DB00E018FC
:104D34000A00E15E43881BB2002BF1DA01256D42C3
:104D4400EE178560C66008257B5F9342E9D0634611
:104D540019803B8903803A81E3E7BB686345BBD98B
:104D6400C6E7631C00D0F7E605E7534650461B69C7
:104D74009847002823D14B461B883A693B81EFF3BF
:104D8400108372B611680029FCD0BFF35F8F4946C7
:104D94007A880A803A697E80BFF35F8F00211160B0
:104DA40083F31088C1E6844200D805E7BDE60B48CA
:104DB40000F0B2FA009B019CC018614121E7534600
:104DC4000CCB009201930DE7824500D847E74CE7EE
:104DD40080F200203C700540FD4800200040054062
:104DE40070B52D4C2569002D04D00A212B48FFF7FE
:104DF40019FE70BD2A4E0321294800F083FAE660AB
:104E0400FFF742FB274B0322C018D02322701B0656
:104E14001B6801216370244B8000A3600F23206171
:104E24000220638063694942A18019800231198696
:104E340047311D83585218315A5275325C39995290
:104E44001832013199521832013199521832013114
:104E54009952083518329D5202311832995218323B
:104E64000131995218320131995218320131995253
:104E74001832013199521832013199520B4B0C49B5
:104E8400DC6001303562FFF76BFB01210320FFF783
:104E940049FB084B1D60A8E7D4D500209CF20020F4
:104EA4000040054040000034FFFF100080F2002065
:104EB400FD4800203860054070B582B0009201932F
:104EC40001000269EFF3108472B61368002BFCD062
:104ED400BFF35F8F0223C85E0D6900283FDB4A6978
:104EE400430016001B18DB00D218F35A4B80BFF3A3
:104EF4005F8F00232B6084F31088069B1361079B4C
:104F04005361009B019C9360D460538801335B041C
:104F14005B0C1D1C002B20D0ACB203045580234332
:104F24000D69EFF3108C72B62C68002CFCD0BFF323
:104F34005F8F8C88148088800A69BFF35F8F00209C
:104F440010608CF310880A7801309040CA680849D0
:104F540052181060180002B070BD0125DCE7BFF3E1
:104F64005F8F00232B6084F31088013BF2E7C04677
:104F74003C20000010B543890A1493421ADD530003
:104F84009B184269DB00D3180469EFF3108C72B6E6
:104F94002268002AFCD0BFF35F8F5A88090494B2B8
:104FA400090C8A4208D00369BFF35F8F00221A609C
:104FB4008CF31088002010BD094A22435A80012333
:104FC40002698371BFF35F8F002111608CF3108835
:104FD400027804499340C268012052181360EAE73A
:104FE4000080FFFF3C200000F0B5C64600B582B04B
:104FF40004000D0000F098F924184D41002D02DA48
:1050040001242F4D644206267642F71736196F4164
:10501400AF4214D811D000F087F932003B00121AC5
:105024008B41002B15DC002B46D02000290000F01A
:1050340085F902B080BCB846F0BDA642EBD9002683
:10504400002700F071F932003B00121A8B41002B4B
:10505400E9DD00F069F932003B00121A8B41002BA4
:105064000ADB00230193174B3200009316483B00E0
:10507400FFF722FF0130D8D000233900B0469C4608
:10508400124A1348536A994204D8966A4645CCD2C8
:105094009942CAD10668EFF3108772B63368002BC1
:1050A400FCD0BFF35F8F0368BFF35F8F66461E605B
:1050B40087F3108820BFE5E7002AB6D0C9E7C046C9
:1050C400FFFFFF7FCD480020D4D5002000400540DD
:1050D4009CF20020F0B5C64600B582B0040000F092
:1050E40023F9FA2206000F00200000230021920079
:1050F40000F0BEFC8019794104000D1E02DA01247F
:105104002E4D644206267642F71736196F41AF4298
:1051140014D811D000F008F932003B00121A8B4168
:10512400002B15DC002B46D02000290000F006F9E6
:1051340002B080BCB846F0BDA642EBD900260027D9
:1051440000F0F2F832003B00121A8B41002BE9DD2B
:1051540000F0EAF832003B00121A8B41002B0ADB04
:1051640000230193164B3200009316483B00FFF7CF
:10517400A3FE0130D8D000233900B0469C46124A21
:105184001248536A994204D8966A4645CCD2994249
:10519400CAD10668EFF3108772B63368002BFCD0CF
:1051A400BFF35F8F0368BFF35F8F66461E6087F3AC
:1051B400108820BFE5E7002AB6D0C9E7FFFFFF7FCC
:1051C400CD480020D4D50020004005409CF20020AA
:1051D400F0B5CE46474680B504000D0085B0EFF328
:1051E40005868946002E10D0364900204B6AAB4212
:1051F40006D38A6A5B1B591E8B41A2424041184365
:1052040005B0C0BCB946B046F0BD2F4FFB683A7834
:1052140098461800039200F07FF8039A131D424643
:105224009B009B5822001B1A9C462B00121A8B4190
:105234009E4210DC0DD020BF224A0020536A4B4509
:10524400DED3926A5B1B591E8B41A2424041184334
:10525400D6E79445EFD900F067F822002B00121A24
:105264008B41002B1BDB00230193184B220000937E
:1052740038002B00FFF720FE002810DD114B5A6A7E
:105284004A451CD39B6AA34217D301003800FFF799
:1052940071FE0C4A0020536A4B45B1D3D1E7094A49
:1052A4000020536A4B45ABD30020926A5B1BA24299
:1052B40040415A1E93411843A2E74A45E5D120BF15
:1052C400E3E7C04600400540D4D50020CD48002087
:1052D400036808499C464A6A43680020934207D8F9
:1052E4009B1A5A1E93416246896A9142404118436F
:1052F4007047C046004005400CC001487047C04696
:10530400E150002010B5024A0248FFF751F810BDE1
:10531400DCD10020D0EB00200300416A0A00986A27
:10532400596A8A42FAD17047034B596A0A00986A4B
:10533400596A9142FAD1704700400540064A536ABF
:105344009942FCD807D1044B02E05A6A914202D137
:105354009A6A9042F9D8704700400540F8B5DE4695
:105364004E4645465746E0B505008B4618000A9957
:10537400914600F0EFFA0A9B6C001E026419304B50
:10538400A400E418636880469E4200D966602F1F1B
:10539400FBB29A46012B2FD9C0238022294FAD009E
:1053A4009B0179591201E3181A6000291BD14B465D
:1053B40022685B015340E022134080225201A2186C
:1053C40013605346012B2FD9802380229B01E318BD
:1053D40012011A60434666607B51F0BCBB46B2467C
:1053E400A946A046F8BD786900F0B4FA013043003C
:1053F4001B18033BFDD2DAE75B46012BCCD1C0235B
:1054040003229B01E3181A60023AA3681A42FCD0F3
:105414004A46236852015A40E02313408022520135
:10542400A218084F1360AD00584603232168414079
:105434000B40136001228240A3681A42FCD0C3E7E8
:1054440000800040D4EB0020F0B5D6464F464646D7
:10545400440098462418324BA400E41863688A4632
:105464009146C0B5FF2B02D880235B006360061F02
:10547400F6B2012E2FD9C02380222A4F85009B012A
:1054840079591201E3181A6000291BD14B4622688E
:105494005B015340E022134080225201A2181360A2
:1054A400012E30D9802380229B01E31812011A6057
:1054B40080235B00636043467B51E0BCBA46B1463F
:1054C400A846F0BD786900F045FA013043001B1886
:1054D400033BFDD2DAE75346012BCCD1C023032290
:1054E4009B01E3181A60023AA3681A42FCD04A46A8
:1054F400236852015A40E023134080225201A2182B
:10550400084F1360850050460323216841400B4037
:10551400136001228240A3681A42FCD0C2E7C0464D
:1055240000800040D4EB0020014B8000C05870473D
:10553400D4EB0020F0B5C646040000B5234816009D
:1055440098460D0000F006FA0100300000F002FA5F
:105554004346069A1B04120313439C462368060021
:10556400002B22DB1A4B1B48E218531E9A4180235E
:105574005242120B9B011203D218174B1A60174B9D
:105584001A60130001688B43FBD12122144B256060
:10559400E318A6601A602268002AFCDA6246E26018
:1055A40008221A6080BCB846F0BD3F23226813402D
:1055B400AB42D7D1A3681B051B0D8342D2D1EE2287
:1055C400E368D20213406345CCD1EBE7001BB7007C
:1055D4000040FDBF08C0004000E0004000F0004073
:1055E400043000008023024A9B000B43D3627047BF
:1055F40000800540002310B50100988A1B8B984752
:1056040010BDC046162310B5010018885B88984762
:1056140010BDC046F8B54746CE4680B50F1E18D01B
:1056240014239946043304000025012698464B466A
:105634001888434621681B88984701C4431E984133
:1056440001350640AF42F2D13000C0BCB946B04685
:10565400F8BD0126F8E7C046AA23064A1B011360D9
:105664002133FF33D3600449044B19605368002B82
:10567400FCDA70470040024000B0FA0000600240CB
:105684007047C04610B50148FEF77AFE00D20020EC
:1056940070B5074D074EB54209D20024013E761B72
:1056A400B608013608CD01349847B442FAD170BD2A
:1056B40080DC0020BCDC002070B5074D074EB542ED
:1056C40009D20024013E761BB608013608CD013408
:1056D4009847B442FAD170BDB4DC0020BCDC002091
:1056E400054B064A06491A60064A074B1A60100021
:1056F4000B689843FBD1704700E00040BFCDFBFE30
:1057040008C00040FE7F3C0000F00040044BDB6C0E
:10571400002B03D18022034BD2021A607047C0468B
:10572400000011504C201150044A054B1A60054AE0
:105734001368DB018033FBD17047C046FFFFFF01D4
:1057440000F0004008C000404022034B9A675A67AB
:105754001A67DA667047C04600F0014010B5FEF7DC
:10576400AFFE10BD70B52849284D294E6D1AAC10F6
:105774002200302C00D930223000920000F0F4FADC
:10578400BC2D3DD823002A3B224A052B1DD93020AD
:1057940075196D07A446001BEB0F002D03DA611C7D
:1057A4008C46A1007250C01AE3189B004108F318FC
:1057B400C900C9181A605A6008339942FAD1012302
:1057C40003421DD0984360440400A300F250631CBC
:1057D4002F2C15D09B00F250A31C2E2C10D09B0014
:1057E400F250E31C2D2C0BD09B00F250231D2C2CCB
:1057F40006D09B00F250631D2B2C01D09B00F2506D
:10580400054B9E6070BDC04600010010C001001031
:1058140000000020C101001000ED00E0002310B5DD
:10582400294C82B0A367FFF717FF0122274B1A60A8
:10583400636C012BFCD10322254B1A60224A936B23
:10584400012BFCD1013300930121224A2248043365
:10585400FFF770FE052301210093204A2048FFF73B
:1058640069FE0022022104201E4BFFF7EDFD0022F9
:10587400012105201C4BFFF7E7FD00220021072032
:105884001A4BFFF7E1FD002200210820174BFFF718
:10589400DBFD8023DB000093002200210920134B51
:1058A400FFF75CFD0022104B00210620FFF7CCFD22
:1058B4000420FFF739FE0E4900F04CF801000020E7
:1058C400FFF790FE02B010BD008000403CB00040E5
:1058D40030B00040002F685900800240008C864799
:1058E40000C00240001BB70040597307006CDC0283
:1058F40040420F0001480421014B1847F0D5002015
:1059040025540020124A936F9B0815D29066D166E5
:10591400002905D0FFE7FFE7FFE7516F106F7047DD
:1059240004B580210906C2175140002800D0C8439D
:1059340004F03CFC002104BDF0B5146E556E576FA5
:10594400166FFFF7E3FF1466556657671667F0BDD9
:10595400000000D0114A936F9B0813D21066516661
:10596400002905D0FFE7FFE7FFE7516F106F70478D
:1059740004B5002801D00020C04304F017FC002126
:1059840004BDC046F0B5146E556E576F166FFFF721
:10599400E5FF1466556657671667F0BD000000D032
:1059A400132370B51D78012D19D014DD1F48FFF79E
:1059B40029FE06001E48FFF725FE1E4C80223100FA
:1059C400200000F0D1F9022D2DD01B48FFF712FE64
:1059D4001A4B186070BD1A4B164CA364F5E7184BAC
:1059E400144C23606360A360E36023616361A3617B
:1059F400E36123626362A362E36223636363A36379
:105A0400E36323646364A364E36423656365A36558
:105A1400E36523666366A366E36623676367A36738
:105A2400E367A364D1E7064BA364CEE753440000C5
:105A340053460000E8E200204C33000098F20020B6
:105A44005558002007B5604601880A0A0230DF2A4B
:105A5400FAD1C9B2820804D30288408800041043F2
:105A640000E00068014A5050039007BDE8E20020BE
:105A740051434343C9188C46110C83B24B4310B4B1
:105A8400040C614392B280B2504362431C041B0C69
:105A9400001910BC59411304120CC018514161443F
:105AA400704700004840414048400E4B5B6818472F
:105AB4000C4B1B6818470C4A936F9B0802D2094B86
:105AC400DB681847F0B5146E556E576F166FFFF705
