:020000041000EA
:1000000000B5324B212058609868022188439860DF
:10001000D860186158612E4B002199600221596106
:100020000121F02299502B49196001219960352056
:1000300000F044F80222904214D00621196600F024
:1000400034F8196E01211966002018661A6600F04E
:100050002CF8196E196E196E052000F02FF8012189
:100060000842F9D1002199601B49196000215960AB
:100070001A491B48016001219960EB211966A021F2
:10008000196600F012F800219960164914480160C1
:100090000121996001BC002800D000471248134993
:1000A000086003C880F30888084703B5996A0420EC
:1000B0000142FBD001200142F8D103BD02B5186610
:1000C0001866FFF7F2FF186E186E02BD00000240BE
:1000D000000000180000070000035F00212200005C
:1000E000F4000018222000A00001001008ED00E03C
:1000F00000000000000000000000000074B24E7A12
:1001000000200420F7010010CB010010CD010010E9
:10011000C9010010C9010010C9010010C901001077
:10012000C9010010C9010010C9010010CF01001061
:10013000C9010010C9010010D1010010D301001045
:10014000C1010010C1010010C1010010C101001067
:10015000C1010010C1010010C1010010C101001057
:10016000C1010010C1010010C1010010C101001047
:10017000C1010010C1010010C1010010C101001037
:10018000C1010010C1010010C1010010C101001027
:10019000C1010010C1010010C1010010C101001017
:1001A000C1010010C1010010C1010010C101001007
:1001B000C1010010C1010010C1010010C1010010F7
:1001C000EFF30580103800BE00BE00BE00BE00BECA
:1001D00000BE00BEF2EB887190020010B402001065
:1001E0003802001090A31AE721482249086006C887
:1001F00081F30888104720480068002801D01C4877
:10020000F3E70DA40ECC002902D000F012F8F9E7B4
:100210001A491B4A002000E001C19142FCD1194952
:100220008847194988471949884700BEFDE701C931
:1002300001C29A42FBD37047B4020010C0000020F4
:1002400048A300203CA5001050A3002098D6002011
:1002500084D80010000004200000042084D800107E
:10026000001004200010042000000000704700006F
:100270000000000008ED00E0000000D098D600204B
:100280003CEC0020D95500206D310020D1550020D4
:1002900084CD002090CD00209CCD0020A8CD002052
:1002A000B4CD0020C0CD0020CCCD002008CF002050
:0402B000FCCE002060
:1002B400F8B5C04606480749091A8B10C90FC91872
:1002C40010B5491003D0044B002B00D0984710BD43
:1002D40098D6002098D6002000000000054B10B5E9
:1002E400002B03D00449054800E000BFFFF7E2FFFC
:1002F40010BDC04600000000F8EB002048A3002019
:10030400A423082130B5FF24134A1448D1501449BA
:1003140002680B680D689B1AA343521BD218026033
:10032400104A1B02944612680F4853401B0C0F4D91
:100334001B0403602A684B6849689B1AA343521A3A
:10034400D2182A6062461B0212681B0C53401B041D
:100354001B0C036030BDC04600000540A0DE002039
:1003640018CF00204800054048100540A4DE0020B6
:10037400F0B5502387B017256A460405240F1C43A3
:100384006D44AF3393750F00287004F0B7FC00235D
:10039400194A80185941002902DA012017494042BC
:1003A40000230290039100932A0021001448013392
:1003B40005F088FE00281ADD04F0A0FC00230E4A94
:1003C40080185941002902DA01200C4940420023D7
:1003D40016220290039100932100094801336A44D4
:1003E40005F090FE002802DD6B46987D02E00123B3
:1003F40000203B7007B0F0BD10270000FFFFFF7F17
:10040400E0CF0020F0B5DE4657464E464546E0B5FF
:10041400642091B004F048FBF0235E4FFB5C0C2B8E
:1004240000D0B5E0D0231B065A68802310005B037C
:1004340018401A425CD0012401236A466946002010
:10044400138006F01DF8002C58D0012000214042F2
:1004540006F08AF840236A460021002006F0D2FD07
:100464000028F2D000224C4B9346F95C4B4B944647
:10047400FB5C0F3298464A4B9246FC5CB9466B468D
:1004840068441BE0554627002600AF431F25AE43B2
:10049400802E01D0E02F0ED189254E1CAD00494499
:1004A400F6B24A55012E47D952462240424530D031
:1004B400012200219346013398420DD01A78F72A7D
:1004C400F9D856B2002EDDDA140001220133934626
:1004D400002194469842F1D15B464F46002B01D04F
:1004E4002D4BF9546346002BAFD02D4BFC54ACE795
:1004F40002236A466946138008F0CAF801200021E5
:10050400404208F07DFB01200021404208F078FBC6
:10051400F4E789214A468900515C902F10D0802F3E
:1005240013D04D461F4AAA5CD2010A431E495218F1
:100534008B2189006A50BBE7012231009346BAE758
:100544004D46184AAA5C002A12D14D46174AAA5CA5
:100554008A42ADD1D822FF32AA5C002A12D0EB2203
:100564005200AA5C002A0DD00121114AA9549FE728
:10057400104EA9558A2189006A54494601250E4A1C
:100584008D5495E78C2200214D469200A9548FE7A3
:10059400022451E7C0D800202602000032020000E5
:1005A400230200002502000000E0FFFF2A020000F1
:1005B40031020000270200002902000010B5024B9E
:1005C40018680AF0A9F810BD78DE002070B5D025AF
:1005D40001220021072003F075FB012200210620DF
:1005E40003F070FB0122002105202D0603F06AFBB5
:1005F4000120002104F0E2F96A686C686B68640603
:100604009B06E40FDB0F1B01A4001C431306DB0F46
:100614000022012107201C4303F054FB0022012186
:10062400062003F04FFB00220121052003F04AFBC2
:100634000120002104F0C2F969686A6809066B6840
:10064400C90F52064900D20F9B060C43D200DB0FA0
:100654005B0100210720144301221C4303F032FBF9
:1006640001220021062003F02DFB64B201220021A7
:10067400052003F027FB2A2C05D0302C03D0FF20C3
:100684000C2C00D070BDE0B2FCE7C046F0B54E467D
:10069400DE4657464546E0B5431824331B7885B0FB
:1006A400994601900291002B00D129E280468B00EB
:1006B40003935B181B01984444462C20205604F0F5
:1006C4002FFFDB4904F0F5FE4546041CA86A04F03C
:1006D40027FF211C051C201C04F0EBFE211C061C1A
:1006E400281C04F0E6FE4A46071C012A00D1A1E1B9
:1006F40042463420105604F013FFCD4904F0D9FECD
:1007040042468246106B04F00BFF51468346201C80
:1007140004F0B8FE5946041C281C04F0B3FE5146EC
:10072400051C504604F0C5FE011C301C04F0AAFE52
:100734005146061C584604F0BCFE011C381C04F04B
:10074400A1FE4A46071C022A00D173E142463C201E
:10075400105604F0E5FEB64904F0ABFE424682466C
:10076400906B04F0DDFE51468346201C04F08AFEA3
:100774005946041C281C04F085FE5146051C5046AD
:1007840004F097FE011C301C04F07CFE5146061C4C
:10079400584604F08EFE011C381C04F073FE4A46D1
:1007A400071C032A00D145E142464420105604F0B8
:1007B400B7FE9F4904F07DFE42468246106C04F069
:1007C400AFFE51468346201C04F05CFE5946041CCF
:1007D400281C04F057FE5146051C504604F069FEDF
:1007E400011C301C04F04EFE5946061C504604F011
:1007F40060FE011C381C04F045FE4A46071C042A0E
:1008040000D117E142464C20105604F089FE884975
:1008140004F04FFE42468246906C04F081FE51463D
:100824008346201C04F02EFE5946041C281C04F0A8
:1008340029FE5146051C504604F03BFE011C301CA9
:1008440004F020FE5946061C504604F032FE011CFA
:10085400381C04F017FE4A46071C052A00D1E9E0BB
:1008640054234246D05604F05BFE714904F021FE45
:1008740042468246106D04F053FE51468346201CC6
:1008840004F000FE5946041C281C04F0FBFD5146EC
:10089400051C504604F00DFE011C301C04F0F2FD52
:1008A4005946061C504604F004FE011C381C04F092
:1008B400E9FD4A46071C062A00D1BBE042465C20FB
:1008C400105604F02DFE5A4904F0F3FD42468246C8
:1008D400906D04F025FE51468346201C04F0D2FDA1
:1008E4005946041C281C04F0CDFD5146051C5046F5
:1008F40004F0DFFD011C301C04F0C4FD5946061C45
:10090400504604F0D6FD011C381C04F0BBFD4A46D9
:10091400071C072A00D18DE042466420105604F0DB
:10092400FFFD434904F0C5FD42468246106E04F0C3
:10093400F7FD51468346201C04F0A4FD5946041CCF
:10094400281C04F09FFD5146051C504604F0B1FDDF
:10095400011C301C04F096FD5946061C504604F058
:10096400A8FD011C381C04F08DFD4A46071C082A0A
:1009740060D042466C20105604F0D2FD2C4904F09D
:1009840098FD42468246906E04F0CAFD5146804668
:10099400201C04F077FD4146041C281C04F072FD61
:1009A4005146051C504604F084FD011C301C04F023
:1009B40069FD4146061C504604F07BFD011C381CB1
:1009C40004F060FD4A46071C092A33D0019A0298B4
:1009D4009046039B1B181B019844434674201856E9
:1009E40004F09EFD124904F064FD43468246186FEC
:1009F40004F096FD51468046201C04F043FD414618
:100A0400041C281C04F03EFD5146051C504604F00D
:100A140050FD011C301C04F035FD4146061C5046B7
:100A240004F047FD011C381C04F02CFD071C01E0F8
:100A3400CDCCCC3D484604F073FD311C804604F017
:100A440038FD211C061C201C04F033FD011C301C45
:100A540004F015FD0021061C04F05AFD002841D1C4
:100A6400391C404604F025FD211C071C281C04F0F9
:100A740020FD011C381C04F002FD311C04F005FDAE
:100A8400211C061C04F015FD011C281C04F0F7FCB5
:100A9400414604F0FAFC1C49041C301C04F009FD16
:100AA400FC21890504F0EEFC04F05CFDFC21814688
:100AB4008905201C04F0E6FC04F054FD029B019A15
:100AC4001B01D3181A00C832166054604946D0225C
:100AD40099500432985005B0F0BCBB46B246A946C2
:100AE400A046F0BD4146281C04F0CFFCFC2189053A
:100AF400041C04F0C7FC04F035FD00239946DDE72F
:100B040000200026014CD9E7ABAAAA3F0000C07F11
:100B1400F0B5454657464E46DE460300E0B524335D
:100B2400A1B002000593032328321400002598463F
:100B3400EC27CA4E069007924246059B29005A5557
:100B440000232373C64B2771A36014232375C54B5D
:100B5400266023610698FFF799FD6B1C503401252C
:100B6400022BE9D1133304AA99180020FFF700FCE3
:100B7400152304AA991804020120FFF7F9FBBA4BC4
:100B840004439C4200D060E1162304AA9B189A46B1
:100B940017239B189846B54B00249B46FF23002738
:100BA4009946B34E0AAD1BE004F0A8F880197941C8
:100BB400002902DA0120AF49404200230290039148
:100BC4000093524650215846013305F09BFA002801
:100BD40020DD53461B7801342B700135582C1FD06F
:100BE40053464A461A7043461C7004F087F880192D
:100BF4007941002902DA01209E49404200230290F3
:100C040003910093424650215846013305F05AFAA5
:100C14000028C9DC002301342B700135582CDFD1A6
:100C24000AA8954B954956300AAA20E05B001CB2ED
:100C3400002C27DB5C0023B2002B28DB640023B2EA
:100C4400002B29DB640023B2002B2ADB640023B2CF
:100C5400002B2BDB640023B2002B2CDB640023B2BB
:100C6400002B2DDB630001329BB290422ED014780E
:100C7400240263401CB2002CD8DA64004C4024B235
:100C8400231ED7DA64004C4023B21C1ED6DA5B0064
:100C94004B401BB21C1ED5DA5B004B401BB21C1E22
:100CA400D4DA5B004B401BB21C1ED3DA5B004B4012
:100CB4001BB21C1ED2DA5B004B401BB21C1ED1DAE5
:100CC4005B004B4001329BB29042D0D1562204A922
:100CD40018318A5A52BA92B29A4200D0B5E000262C
:100CE4002427079DB0460BAC13AE41462378059AE2
:100CF4005354002B00D199E0A278E178120609043C
:100D04000A4361790A43217909020A4361782A6016
:100D14002971012B00D189E0E279217A12060904B4
:100D24000A43A17A0A43617A09020A43A179AA60B3
:100D34002973022B7AD0227B617B120609040A43B1
:100D4400E17B0A43A17B09020A43E17A2A612975FE
:100D5400032B6BD0627CA17C120609040A43217D1B
:100D64000A43E17C09020A43217CAA612977042B06
:100D74005CD0A27DE17D120609040A43617E0A4328
:100D8400217E09020A43617DE9552A62052B4DD073
:100D9400E27E217F120609040A43A17FA07E0A4352
:100DA400617F09020A432C216854AA62062B3DD0B4
:100DB40032787178120609040A43F178E07F0A4315
:100DC400B17809020A43342168542A63072B2DD0D1
:100DD4007279B179120609040A43317A30790A43E7
:100DE400F17909020A433C216854AA63082B1DD0F7
:100DF400B27AF17A120609040A43717B707A0A43C3
:100E0400317B09020A43442168542A64092B0DD01A
:100E1400F37B327C1B0612041343B27CB17B134375
:100E2400727C120213434C22A954AB6441460698C7
:100E3400FFF72CFC434601222934904650352936CD
:100E4400012B00D051E7002000E0012021B0F0BCCC
:100E5400BB46B246A946A046F0BDC046344E050086
:100E640050FC030040A90200D1070000E0CF00209D
:100E740010270000FFFFFF7FFFFF0000211000008C
:100E8400F8B5CE464746002580B50700EE4B102244
:100E9400036000210561C560856045600562C56128
:100EA40085614561F83004F043FC842338005B001D
:100EB400FD520D30023308220021FD52FF3004F0B0
:100EC40037FC80238A221B015200BB520232BB52E0
:100ED40038008C2300245B001D30FC540021FE3AB2
:100EE400FF3004F025FC3800353006220021FF30A5
:100EF40004F01EFCB5235B00FC543E230822FF33A0
:100F0400FC54D24B01261A60E022D14BD2011B685B
:100F14001340D04A13609D235B00FC54063BFC54F1
:100F24003623FF33FC540133FC543823FF33FC5481
:100F34000133FC543A23FF33FC54C74BC74C984647
:100F4400237804219946180002F0A4FE4B4604219C
:100F5400581C02F09FFE4B464A465B081F2A00D9E4
:100F6400AAE107221A4093009B18BD49BD4A9B0081
:100F74009A18591815600D60BB4959180D60BB4982
:100F84005B184146196010235360166023780133BF
:100F940059081F2B00DD8BE107220A4093009B18A0
:100FA400AF49B04A9B009A18591815600D60AE49B4
:100FB40059180D60AD495B18414619601023536000
:100FC400166023785A081F2B00D938E107211140F5
:100FD4008A005218A44992005118096840468C4668
:100FE400310019404942414060460140A048013364
:100FF400121811605A081F2B00DD1CE10721114053
:1010040040468A00521898499200511833400968A2
:101014005B4243400B409649023452181360954B8F
:101024009C428DD104F0B8FD1F211B2002F032FE3A
:10103400002200211B2002F045FE00211B2002F0AB
:1010440053FE1F211A2002F025FE002200211A203F
:1010540002F038FE00211A2002F046FE1F211C2057
:1010640002F018FE002200211C2002F02BFE0021B9
:101074001C2002F039FE1F211D2002F00BFE00226D
:1010840000211D2002F01EFE00211D2002F02CFE76
:10109400182002F03BFE192002F038FED0248023F1
:1010A40024065B04636280239B046362082002F0CD
:1010B4002DFE80235B0063620920636102F026FE3B
:1010C40080239B0063620220636102F01FFE0423FD
:1010D4000022A3620121022002F0F4FD032002F0A9
:1010E40015FE0823644DA36200220121032002F0AF
:1010F400E9FD2800614904F0ABFD02229046414617
:101104006B68122013405E4A11600F222968102573
:101114005140C0320A405B490A605B4A01211360B6
:1011240002F0B8FD0121132002F0B4FD01211520C5
:1011340002F0B0FD0421172002F0ACFD04211620BA
:1011440002F0A8FD0022474B5049DA635A649A64BE
:10115400D9641D64DE63DA635A649A64D9641D64D5
:10116400DE63FA234A499B040A68072053401B0C98
:10117400484A1B041360FA2309689B004B401B0474
:101184001B0C136002F0C2FD062002F0BFFD052017
:1011940002F0BCFD8023A362403BA362203BA36218
:1011A400142002F0B3FD00220021142002F08AFD75
:1011B400042002F0ABFD65623749A561374804F0AD
:1011C40059FF0321102002F065FD0321112002F0D4
:1011D40061FD002002F09AFD6662012002F096FD96
:1011E400434638006362FFF7F1F9F023F8543800FE
:1011F400FFF78EFC9F23464001205B003040F854EB
:10120400563B9846B844404604F02EFC1426434608
:10121400234C244D03CB244A244B04F013F9013E00
:1012240000196941002EF6D1434603C33800C0BCFF
:10123400B946B046F8BD032111400831E0E6032168
:1012440011400831C4E6C04670BE002000F00440DE
:1012540000C0044000D00440FFFF0000B4BE0020E2
:1012640008000540000005400C0005401000054042
:101274000C100540BABE002000C00340286BEE00ED
:1012840004F0034000D0034004E00340CF07000013
:101294004800054048100540A0860100E0CF00202A
:1012A4004F8167F77E7B05142D7F954C2DF45158A3
:1012B40003220A40083271E603221A40083252E639
:1012C400F0B54E464546DE4657461C00D823E0B5E9
:1012D400ABB00291FF33C35C050091460493002B2D
:1012E40004D0EB235B00C75C002F6CD1E423002205
:1012F4005B00EB5803924B44984680235B0198456E
:101304005ADB8C4B9846B62302995B008946EA580F
:10131400474691444A46EA50359B002B5EDC7F43A6
:101324003B0B06934B469B0D5A000133824F9B05A2
:101334005B0DBA5EF95E4B469B02891A9B0D4B43CB
:10134400E1009B129B18091B9A460B0B0905090D1A
:101354009B460B004B431B0B5A00D2184B431B0BF1
:101364005B00D31A01934B461E0D744B9C46B44448
:10137400634605934B46002B5DDB704B7F2E00D8F4
:101384007EE35246D21094464A465400A20D5100C0
:1013940001329205520D795EBA5E0794A402521A84
:1013A400A40D54435A46A4126418062A00D9C9E36A
:1013B400634992008A5897464346DB434246DB170B
:1013C4001A4090469FE7049B0AA88246082B01D93D
:1013D40000F0ADFD5B4A9B00D3589F46D822802184
:1013E4005200AB5889000133AB508B422AD2DA2326
:1013F4005B00EF580433EE588022359B5201934230
:1014040000DB4C4B5B431B0B9800C0184000C0181A
:10141400142103F061FF80234743BF1247445B015B
:101424009F4204DB434F80117043814477E7FB43C1
:10143400DB171F40F7E7059B7F2B01D800F090FDD9
:10144400414B9EE70023D6214048AB508446DA2026
:1014540049006A583E4B40005A4362445343170EB6
:101464006344803F2F501E0E6B50DC23803E5B0094
:10147400EE50C1E70322230064460892019A1B1B25
:1014840053435246D4461B1306991B199B1A4B43CC
:101494001B139C44FC235B00EA580298130053433B
:1014A400DB1243431B13E246C118002A00DAC11AB7
:1014B400B8235B00EE588E19EE50359B002B00DDEF
:1014C400E1E243465B431B0B0593B30D5A00013322
:1014D4009B055B0DBA5EF95EB302891A9B0D4B4303
:1014E4009B129B180293330D9946144B4B4406935D
:1014F400002E00DAFBE24B4610497F2B00D81EE396
:10150400029BDB1098467000830D5A0001339B0543
:101514005B0DBA5EFB5E84029B1AA40D5C435B46C2
:10152400A4120790A418062B00D973E3094A9B0060
:10153400D3589F46FF0F00003CC3002000F8FFFF74
:10154400B8BD0020D4BD0020FF0700005FF36E3C4F
:101554000D661900F8BD00204B46D44AD21A079BE9
:101564009B195B00980D410001308005400D795EA8
:10157400385E9B02401A9B0D43439B125B185343F6
:101584001B1398460699CA4B4A43521390449845F4
:1015940000DA984680231B01984501DBC54B984629
:1015A4004B467F2B00D8B1E380231B01994500D221
:1015B400ACE34A46BD4B51009B1ABF4A5B00521A2A
:1015C400B400A419A00D410001308005400D795EDE
:1015D400385EA402401AA40D4443A41264185C4368
:1015E400534324139B13E418B14B9C4200DA1C00B0
:1015F40080231B019C4200DBAE4C4346019AE31A54
:101604005343029A1B13059943449B1A4B431B13E0
:101614009B18FE221C0080215200AA580901544341
:1016240024138A4200DA0A00534352461B135343DD
:101634009F4A9B12934200DA1300802212019342C4
:1016440000DB9C4B5146349A34981201121A120250
:101654005B1A121353431B135E18049B002B00D117
:101664004EE2BA225200AB58002B00D146E2013BB5
:101674001803AB50C01A602103F056FE8B4B181AA6
:10168400039B8B4A58430013444370430313934210
:1016940000DA130080221201934200DB854BF22210
:1016A400AB52834B24139C4200DA1C0080231B01A1
:1016B4009C4200DB7F4CF423EC522BB0F0BCBB46C5
:1016C400B246A946A046F0BD0122059C0892D5E683
:1016D400802372001B019E4200D304E3744BD31891
:1016E40007934B469B004B449C0D60000134A405BA
:1016F400640D385E3C5F241AA4469C026346A40D24
:101704005C43079BA412241854435A432413921392
:10171400674BA4189C4200DA1C0080231B019C42E6
:1017240000DB644C4B464A46DB009A1A910D480094
:101734000892385E07918446980D4200BA5E0130E3
:1017440091468005400D385E4A4607999B02013157
:1017540089059B0D801A490D5843795E6346C91A61
:10176400089B80129B029B0D4B4348449B1263448D
:101774004010C018431099467F2E00D827E2059BDD
:101784007F2B00D875E3C0239B009E4200D21EE24B
:10179400C0231B019E4200D26BE3484B3003301A36
:1017A4004749C01803F098FD021117E24B467F2BFE
:1017B40000D8C1E3069B7F2B00D8DFE3029B884659
:1017C400DC101AE74B465A0080231B01994500D3CD
:1017D400A1E2374B9C469444B3009B199C0D6000D6
:1017E4000134A405640D385E3C5F9B02241A9B0DF2
:1017F40063439B121B18534361461B1398464A4389
:101804002B4B92139044984500DA984680231B0191
:10181400984501DB274B9846F3009E1BB20D944676
:101824005100785E990D4C0001318905490D3C5FEA
:10183400795E624601329B0292059B0D091B520D93
:101844005943BA5EB302121A9B0D53438912091904
:101854009B121B184910CE184B4676107F2B00D8CC
:1018640019E2C0239B00994500D214E2C0231B0156
:10187400994500D2FAE24B461803181A0F4B104947
:10188400C01803F029FD04110DE24B467F2B00D84C
:101894005CE3069B7F2B00D879E3089B062B00D9D9
:1018A400A6E3084A9B00D3589F46C046FF0F00009A
:1018B40000F8FFFFFF070000FF17000001E0FF0032
:1018C400FF03000014BE002090210901894500D3C4
:1018D4004BE34B461803C01A03F0FEFCC74B181A1F
:1018E4004043C74B00131B1A98464A46C34B9B1AE6
:1018F400079A94196400A10D4A0001318905490D24
:10190400BA5E795EA402891AA40D4C43A412A418E9
:10191400069A5C43534324135B13E418B94B9C426B
:1019240000DB65E663E64B467F2B04D990231B015D
:10193400994500D31EE34B4690211803C01A0901B0
:1019440003F0CAFCAD4BA046181A4043AC4C00133C
:10195400241A52E6902109018E4200D2ABE10423FD
:101964000893A84B8AE5902109018E4200D3FFE237
:101974003003801B03F0B0FCA04BA14C181A404369
:101984000013241A079A9D4B4A445200900D4100BB
:1019940001308005400D9B1B795E385E9202401A2F
:1019A400920D42439212521805995A434B43121313
:1019B4005B13D318934A934200DA13008022120176
:1019C400934200DB8E4B0522089257E57F2E00D808
:1019D400B6E2059A1C007F2A00D8D3E253460222BD
:1019E400DB1008924AE5079B84484B445B00990D41
:1019F4004A0001318905490DBA5E795E9B02891A54
:101A04009B0D4B43059C9B12801B9B1843434443F3
:101A14001B1364131C197B4B9C4200DA1C008023AB
:101A24001B019C4200DB764C802372001B019E420A
:101A340000D278E174498B1A9C4642004B469B00C5
:101A44004B449E0D70000136B605760D385EBE5FC0
:101A540061469B02361A9B0D73439B121B1853431A
:101A64004A431B1392139B18664A934200DA1300ED
:101A740080221201934200DB614B06220892FDE4AE
:101A84005F4A944680E4D82280215200AB588900F2
:101A94000133AB508B4236D2DA235B00EB589946C4
:101AA400DC235B00EC58802335985B01984200DB13
:101AB40052484043000B83001B185B001818142184
:101AC40003F00AFC4B4643439B12984480235B017A
:101AD400984505DB494B9846801144433619F0E498
:101AE4004346DB434246DB171A409046F4E7444939
:101AF4007F2B00D904E5434B984604E53F48BFE5F6
:101B04003E4B0393ADE500238020AB50D6223F49E2
:101B140040428C4681465200AB583D4C634363447B
:101B2400190E8944DA2148465C43DC2364444900A5
:101B34006850AC50240E803C5B00EC50B3E7304B53
:101B44009846E0E4C02189008E4200D3D2E03003FD
:101B5400801B03F0C1FB0311089009934B464A46CE
:101B6400DB009A1A910D480007923C5E980D894655
:101B74004200BA5E0130944649468005400D385E05
:101B8400624601318905490D801A795E079A9B02E4
:101B94009B0D9202091B4343920D4A439B126344DB
:101BA400921212195B10089C9B185B105C439946B7
:101BB400099B2413E418134B9C4200DA1C00802375
:101BC4001B019C4200DB0E4C7F2E00D9D7E5C021BF
:101BD4003003801B890003F07FFB02114B465843FE
:101BE40003139B18074A934200DA13008022120160
:101BF400934200DB024B072208923FE4FF0F0000F0
:101C0400FF07000000F8FFFFFF1700005FF36E3CC2
:101C14000D661900C021890089455AD24B46180324
:101C2400C01A03F059FB834603110693F3009E1B6D
:101C3400B20D5100795E01328C46990D4C00013190
:101C44008905490D3C5F795E9B029205091B9B0D3A
:101C5400520D4B43BA5E61465846B602521AB60D4F
:101C640056439B121B19B6125B1066449E197610DC
:101C7400704300138046069B9844CB4B984500DA8A
:101C8400984680231B01984501DBC84B98464B4678
:101C94007F2B00D9E5E54B46C0211803C01A890003
:101CA40003F01AFB04117043BF4B001304199C4248
:101CB40000DB9DE49BE43003801B03F00DFB042256
:101CC400BB4B0892181A4043B84B00131B1AFFF77A
:101CD400D5FBC0231B01994500D3C0E0FF23069325
:101CE400B34B9B46A2E7B24BB2499B1B8A1A07929D
:101CF4005A00F6E4C0231B019E4200D3A4E0FF2354
:101D04000993AB4B089329E7069B98464B46A64A92
:101D14005B009A1854E44946A54B5B1AA5498A1AF4
:101D240094465A0058E5A04B9C46944486E680228B
:101D3400A14903F003FDEA235B00EE5CD623FF33E5
:101D4400EB5C9846072E00D9B2E0F30053445F6879
:101D5400002F00D10137DE2149006A5801326A5050
:101D64001988E6235B00EB580591C81A50433900E3
:101D74000393019203F0B0FA039B019AC018E22383
:101D84005B00E850974200D9A3E0EA22059952008B
:101D9400E950731CDE20DBB2AB54002240002A5011
:101DA400CD32FF32A9504246072A00D9B8E0083B99
:101DB4005A425341DFB24346DA001AAB9B185968C2
:101DC400002900D10131E0225200A8581B880130BB
:101DD400A850814200D885E01032AF58DB1B58432D
:101DE40003F07AFAE422C3195200AB50E222520003
:101DF400A85880225201904254DB6D4A0392FFF7A7
:101E04007AFA80226D4903F099FC94E780226C49A8
:101E140003F094FC8FE780226A4903F08FFC8AE781
:101E24008022694903F08AFC85E78022674903F030
:101E340085FC80E78022664903F080FC7BE78022F2
:101E4400644903F07BFC76E7634B3003301AC01817
:101E5400624903F041FA0311089009937EE64B4668
:101E64001803181A5C4B5D49C018DAE6FF24504881
:101E740019E7FF224E48B1E64C4C069B9846FFF703
:101E8400BCFB069B984630E5069B0C009846FFF782
:101E9400B4FB069B9846FFF787FB069C46E5029B2E
:101EA400DC10EAE7C243D21710400390FFF723FA8D
:101EB400072B00D87FE7EB2200235200AB54484A9B
:101EC400AA5C002A23D1C533FF33E8580433EB5806
:101ED4008FE743460027072B00D86CE7E4235B0019
:101EE400EB5886E7E42149006B504146D620013186
:101EF400FF30C9B229540020A850E8225200AB5048
:101F0400002F00D172E7082900D06FE7D3E78C22B5
:101F14009200AB54E2235B00E8580433EB5868E7C3
:101F2400082BC8D0E4235B000800EB5861E780224B
:101F34002C4903F003FCFEE688461C4CFFF75DFBCE
:101F44001C0002230893194BFFF798FA089B062BF1
:101F540000D99AE0244A9B00D3589F46069CEAE4A1
:101F6400114A124B9446FFF70FFA0F4B9846BCE404
:101F74000D4C07E5A0460C4CFFF73FFB88460A4C86
:101F8400FFF73BFB02230893074BFFF777FA089B05
:101F9400062B53D8154A9B00D3589F46069B984658
:101FA400FFF707FB004C68E700F8FFFFFF0700009E
:101FB400FF0F0000FF170000BCBE00203CBF002044
:101FC400BCBF00203CC00020BCC000203CC100209D
:101FD400BCC100203CC2002001E0FF00FF03000060
:101FE40031020000BCC2002030BE00204CBE0020E4
:101FF40007227243910D4B00FB5E9C46F300980D43
:10200400440001308005400D3C5F385E9B02001B9C
:102014009B0D43439E124B1C9B055B0DF95E63466F
:10202400C91A93029B0D4B4336199B1263447610D5
:10203400F618069B76109846FFF713FC07227243A6
:10204400910D4B00FB5E9C46F300980D440001305B
:102054008005400D3C5F385E9B02001B9B0D434393
:102064009E124B1C9B055B0DF95E6346C91A9302D5
:102074009B0D4B4336199B1263447610F618069B4E
:10208400FF249846124876100DE607227243910DFC
:102094004B00FB5E01319C46F300980D4400013077
:1020A40040003C5F385E9B02001B9B0D434349008C
:1020B4009E12795E6346C91A93029B0D4B433619EF
:1020C4009B1263447610F618069B76109846E2E558
:1020D400FF0F0000F0B54746CE4680B5404BC9B06F
:1020E4000093404B6C460193FC235B00C358694644
:1020F40002939846FE235B00C7580433C658043342
:10210400C558D823039704960595FF33C35C364A14
:102114009C462376002307A86376638307930B7892
:1021240001315A4013049B185B009B18DB009B1879
:10213400DB009B185B009A188842F0D12B49E261BE
:10214400274B0A689A421ED0E022FF2110A803F010
:10215400EFFA2022210008A803F0F0FAEFF310842C
:1021640072B680212248490108F000FF80222048ED
:10217400520008A908F042FF84F3108849B0C0BC9B
:10218400B946B046F0BD8B88022BDDD1CB88202B1D
:10219400DAD1CB69144A994616480B7801315A4072
:1021A40013049B185B009B18DB009B18DB009B1837
:1021B4005B009A188142F0D19145C5D10B4B9A68C6
:1021C4009045C1D1DA689742BED11A699642BBD113
:1021D4005A699542B8D11B7E6345B5D1CEE7C04656
:1021E400335A314302002000C59D1C8100F01F10AA
:1021F40000F01F001CF01F10F0B5DE4657464E4697
:102204004546E0B5ED4B0400C25C8BB0002A12D009
:102214000021C154EA4BC25CEA4BC254023BC25C8B
:10222400E94BC25401220533C252D823FF33C35CA5
:10223400002B00D0B1E28A235B00E05AF02103B204
:1022440003938B235B00E35A49001BB20593862357
:102254005B00E358DD4D9C4688235B00E3580793FD
:102264003C23FF33E35C625D9946F823E65804336C
:10227400E3589A4680235B00E3589B46635C002B3B
:1022840000D0DAE1EC2040002358D14FBB4200D902
:10229400D1E1D049013323508B4200D8CDE14B46E4
:1022A400002B01D100F087FDE223FF33E35C002B18
:1022B40001D000F087FD4B466355022B00D18CE220
:1022C400F42352465B00E6500433E2505A4604338A
:1022D400E2501033E358029381239B00E35898465D
:1022E400634656211BB20893039BFF31180302F087
:1022F400F3FF8C239B00E35C0500002B01D000F06E
:1023040044FD80235B019E4201DB00F01DFEF3438C
:10231400DB1733409800C018AF49000302F0DCFF1C
:102324004519E023DB019D4200DD1D00AB4B9D42BE
:1023340000DA1D00EB171A05120D1B0D5219ED18CA
:102344002D0512132D0D0692ED1A04D58023013AA2
:102354005B01ED1806926E007619B61230030C215B
:10236400070002F0B9FF04902D1A380080279C4A18
:10237400B3009B587F010C21C0190392099302F00A
:10238400ABFF04990136411AE80302F0A5FF039A52
:10239400B600099BB2580021D21A5043C013C0188A
:1023A400904A002303F04EF84B04C10B5918069BC6
:1023B400002B01DA00F0FBFC9940FA235B00E358A0
:1023C400002B05D0CA1A511201D100F0B6FE5918DB
:1023D400FA235B00E150059B5D00802355445B01BB
:1023E4009D4201DA00F0F5FB089B7B4D5E008023E3
:1023F4005E445B019E4201DA00F0F7FB4B46764EE9
:10240400002B01D000F0F9FB6B461C229A5E002AD7
:1024140001DC00F09CFD029B5200D3188022520183
:10242400934201DB00F02DFCDA43D21713408022E3
:102434005201904501DB00F0EEFB4046C243D21747
:1024440002400A20FF30205C002801D000F0EBFBA2
:10245400019200932A0033002000FEF731FFC023CD
:1024640080215B00E2580901131C12B28A4200DB8E
:102474005D4B5E4A1BB2934200DA13005A485C4932
:10248400C31A5A01D21A9200D3180B60C2238027B0
:102494005B00E2583F01131C12B2BA4200DB031C7A
:1024A400524A1BB2934200DA13004F4AD21A530124
:1024B4009B1A9B009B184B60D4235B00E35C002BAE
:1024C40001D000F05BFCD02380221B0652005A612D
:1024D400AA23FF33E35C002B01D000F048FCD02397
:1024E40080221B0692005A616D43424A2B121168E6
:1024F40076434B401B0440491B0C0B60106833129D
:102504001B0443401B0C1B040B60FE235B00E35ABB
:102514003A4E5B4330681B021B0C4340384D1B048E
:102524001B0C2B6080239B00E35A30685B431B1217
:102534001B0443401B0C1B042B6081239B00E35AA8
:1025440030485B4307681B021B0C7B401B042E4F67
:102554001B0C3B604B46BC46002B00D1B4E3036824
:102564001B0C1B043B60862300279B00E7500833A9
:10257400E7528727BF00E359002B55D0013BE351B5
:10258400DB04224CDB0F013B2340134C1B195B4340
:1025940014681B125C402404240C0C6012681C0494
:1025A4006240120C12040A6032685A401204120C7F
:1025B4002A6032686240120C120429E029020000E9
:1025C400270200002A0200002B0200002202000061
:1025D4009F8C0000DF2E0000FF0F000000E0FFFFD3
:1025E40080BE0020314D5900FF07000000F8FFFFB6
:1025F40018CF00207000054070100540840005408D
:1026040084100540980005409810054001F0FFFF34
:102614002A600268534062461B041B0C1360036863
:102624005C40240C240414600BB0F0BCBB46B246DE
:10263400A946A046F0BD01236354E223FF33E35CC3
:10264400002B00D0BEE3022A6FD04946B04BE154C0
:10265400022900D1C1E0002900D031E6002A7FD14F
:1026640085239B00E35C002B01D100F07BFDA94B8B
:10267400F3183E2B01D800F0EAFCA74BF618FC2314
:102684005B00E650F317F6185E40802376005B018A
:102694009E4201DA00F05AFDFE23A04A5B00E2509C
:1026A4009F4AA35C002B72D1802355469B00E058BF
:1026B4000C33E3580290EB1AD9175B184B403F2BAD
:1026C40007DD2B1AD9175B184B40602B01DC00F097
:1026D4000DFD944AA35C002B18D181235D469B0019
:1026E400E0580C33E3588046EB1AD9175B184B407B
:1026F4003F2B01DC00F080FC2B1AD9175B184B40F0
:10270400602B01DD00F078FC0123A35481235A4699
:102714009B00E2501C3BE6580433E358D8469A46E3
:10272400F8235B00E3589B46DAE54B46002B4ED179
:102734008933FF337C49E3585D187C498D4209D8BD
:10274400C8214900635004396350D5238C395B0098
:10275400FF39E154C42300215B00E1506C4BE15488
:10276400013A53425A4188239B00E25400220C3B15
:10277400E2526C4BE25452460E3BE6500433E250B4
:102784005A460433E250664AA35C002B8CD0802363
:1027940052469B00E25002929BE7B6235B00C15075
:1027A4000433C1505F320433C25001224833C15054
:1027B4000833C1500833C1500833C152143BC150CF
:1027C4000833C1500833C1500633C25433E54A4676
:1027D4004F4BE254022A00D072E586220023920075
:1027E400A3500832A3525246D3009B1A5B001B131A
:1027F4000233102B00D99DE3D0225200A350983A03
:10280400A25C002A00D199E085225200A25CD1B2D8
:10281400002A00D092E0D2225200A1500121994016
:102824003D4A0139B21802D580221201921BBC2004
:10283400400025587838FF3806008046AC30FF3019
:102844002058D21007003A482E407843394FC01917
:10285400FF2A06DCD243D2B2070EBA4201D9464659
:10286400AE43D6225200A0503200013B9A401300DE
:10287400BC22AA206D082B430B405200A3503032D7
:10288400A6549A07D20FFF302254CC2200205200C3
:10289400A0501803C01A02F047FD1F4BC018802334
:1028A40045002D18AD029B002D13ED1880231B014C
:1028B4009D4200DB204DC0235B00E550043BE25801
:1028C4001001801A40190011E0500833E050002E26
:1028D40000D1F4E3D823FF33E35C002B01D100F0F3
:1028E40009FCDE2200235200A3500832A350083210
:1028F400A3500832A352143AA3500832A35008320A
:10290400A35001330632A3543A3AA35036E0C046EA
:10291400220200001FF8FFFF00F8FFFFFF0F000076
:1029240015020000160200009FF6FFFF9E6D0100D5
:102934000D6619005FF36E3CFF070000D2214900C9
:102944006258D148824200D921E301326250CE223A
:10295400C020D421962652004000A358255849008F
:102964000430615C2058F600B34200D2D9E3002958
:1029740004D1AA23FF33E35C002B0CD0CC225200F9
:10298400A3580133A3509622D200934203D9D423EF
:1029940000225B00E252802229B22B1C12019142D8
:1029A40000DBBA4BBA4A1BB2934200DA1300B74EAB
:1029B400B849F31A5A01D21A9200D31880220B6034
:1029C400031C00B21201904200DB331CB04A1BB25C
:1029D400934200DA1300AD4AD21A53019B1A9B00AA
:1029E4009B184B60F42380225B00E358520193420E
:1029F40000DA15E3A84B9800C018A749000302F0B9
:102A04006BFCAB005B19DB021B13C018E023DB017A
:102A1400984200DD1800A14B984200DA1800C31751
:102A24001F051B0DC5183F0D2D053F182D0D3F1318
:102A3400ED1A03D580235B01ED18013F6E00761972
:102A4400B61230030C21804602F046FC944AB300CF
:102A54009B580390049380232D1A40465B01C018B1
:102A64000C21029202F038FC03990136411AE80362
:102A740002F032FC029AB600049BB2580021D21A2A
:102A84005043C013C018874A002302F0DBFC4B04F8
:102A9400C10B5918002F00DAD2E2B940FA235B00C7
:102AA400E358002B04D0CA1A511200D14AE3591832
:102AB400FA2380225B00E150043BE3585201934225
:102AC40000DAA9E2744BF62280205200A258400199
:102AD400824200DA9CE2704A8120800020580190F2
:102AE40080208000205800902000FEF7E9FBD423CA
:102AF4005B00E35C002B00D09CE2D02380221B0609
:102B040052005A61AA23FF33E35C002B00D08BE20E
:102B1400D02380221B0692005A61BC225200A25884
:102B24000123110019401A4200D05F495F4B604AEB
:102B34001B684B401B041B0C1360BC225200A258A0
:102B44000223110019401A4200D05A49574B584ADF
:102B54001B684B401B0C1B041360BC225200A25880
:102B64000423100018401A4200D04F485249534AD7
:102B74000B6843401B041B0C136084235B00E35C61
:102B84000B6896201B0C1B041360D0235B00E258D7
:102B9400C00013039B1A1B031B0C5B43484A1B0214
:102BA40011681B0C4B401B0446491B0C0B60CE23C5
:102BB4005B00E458002384425B4180205B42800335
:102BC40003403C4812681B1853401B0C1B040B6049
:102BD4002AE5EB43DB171D40089B5E0080235E441F
:102BE4005B019E4201DBFFF709FCF343DB171E4048
:102BF4004B46002B01D1FFF707FC8023029A5B01AF
:102C04009A423EDAD343DB171340802252019045A7
:102C140001DAFFF712FC0A20FF30205C1E4A00286C
:102C240001D1FFF715FC0C20FF30205CC7B2BC4675
:102C3400002801D0FFF70CFCD820FF30205C0028CE
:102C440001D1FFF705FCB62040002750043027507F
:102C540060270430275067464830275008302750F3
:102C6400083027500830275214382750083027508E
:102C740008302750EB27D038FF387F00E055FFF7A6
:102C8400E7FB054BC1E7C046FF760100FF070000E4
:102C940000F8FFFF18CF0020FF0F000000E0FFFF47
:102CA40080BE0020314D5900E0FF00007000054057
:102CB400701005400000E0FF8400054084100540CA
:102CC40098000540981005400268E54B53401B0CE2
:102CD4001B043B6088239B00E55C002D0CD08622FE
:102CE4009200A358DF498B4200D93EE10133A3503F
:102CF400DD4A934200D138E187239B00E358002B3F
:102D040000D191E4013BDD04ED0F87229200A35032
:102D14006B425D41D54A6B421340D54AD5499B1855
:102D24005B430A681B125A40D3481204120C026017
:102D340009681A045140090CD04C09040160216847
:102D4400CF4859400904090C016021685140090C1D
:102D540009040160CB4801684B401B04CA491B0CA1
:102D64000B6003685A40120C12040A605CE4D0231E
:102D740080221B0692009A61FFF7B6FBD0238022C3
:102D84001B0652009A61FFF7A3FBC04B0C21E05CC9
:102D94002438000302F0A0FA8B239B0006000C21C8
:102DA400E05802F099FA36187519FFF7BAFA5B423F
:102DB400D940FFF702FBE2230121FF33E1544946E6
:102DC4000133E1540023F221635202316352B04BC8
:102DD400B04919605960D02380211B06490059610C
:102DE4004918596180235B019E4200DBC9E0F1432D
:102DF400C9173140C8004018D8210125030BFF3101
:102E04006354290019401D4200D0A349994B1B6803
:102E140059400904984B090C196080210300890169
:102E24000B40084200D09C4B92491B0409684B405C
:102E34001B0C91491B040B6080230100DB0119402A
:102E4400184200D094498D4DC00B2B684B401B0495
:102E54008B491B0C0B60002800D094E02B681B0CE2
:102E64001B040B60874B88491B681B041B0C0B60FD
:102E7400844B85491B681B0C1B040B60F1235B000E
:102E8400E15C002900D113E1E4234946FF33E55C0A
:102E9400002900D038E1002D00D19BE0002A00D0A9
:102EA40098E0EE225200A3586E498B4200D852E1BA
:102EB400F2267600A35D002B00D094E02000FFF7FB
:102EC40009F90123A355754B87229200A3506B4245
:102ED4005D41664B6D421D40654B664AED186D437E
:102EE40013682D126B4064491B041B0C0B601268A1
:102EF4002B045A40120C614812040A6002686049AB
:102F04006A401204120C0A6002685E485A40120CAD
:102F140012040A6002685C496A401204120C0A60D6
:102F2400026853401B0C1B040B604A465C4BE25482
:102F3400FFF77AFBD02210235200A350983AA25CE8
:102F4400002A00D1FAE45FE4494BFFF7E3F9002AD1
:102F540000D152E6802302985B01984273DB444B14
:102F640040465200821A90464FE64E4EA35D002B17
:102F740000D0C1E62000FFF7ADF80123A355474B6D
:102F8400C3E63B4936E72868354B434067E7CA2127
:102F94005D4649006258AA1AD01712184240402AC6
:102FA40000DC91E0D52200205200A054655080221C
:102FB4005201934500DAB7E02D492D4A521A524383
:102FC400110B394A4A433949120B5218C621490098
:102FD400625083E0E42201230021FF32A354013232
:102FE400A154083AA35087239B00E358002B9CD09C
:102FF400013BDD04ED0F67E7F4235B00E65804337F
:10300400E3589A46F8235B00E3589B46FFF768F9B8
:10301400D043C01702405FE5DA43D217134052E5AC
:10302400DA43D2171340E6E4D02380221B06920031
:103034009A6172E5D02380221B0652009A6161E5F1
:103044007F42F9402AE5C343DB17034088E7FC22AB
:1030540000235200A3500432A350FFF721FBC046C3
:103064000000E0FFFFDB050000DC050001F0FFFFCE
:10307400FF0F0000700005407010054084000540FB
:103084008410054098000540981005402A0200006D
:1030940018CF002083E70300E0FF00007FBB00009F
:1030A4002202000021020000A8DE0000B80B00008C
:1030B4004A46002A00D138E70122E25435E7CE23FC
:1030C40001225B00E25054E4D5225200A25C655018
:1030D400002A00D16BE7C6225200A258C420400047
:1030E40021580131914224D2215030E40123A354C8
:1030F400FFF74DFB01229D33FF33E2509832FF323C
:10310400A3580133A35046E4002D00D10DE7E2217A
:103114000022FF316254E254073BE2500833E25488
:1031240003E70133A35022E45A46D143C91711409F
:1031340043E700222250FFF771FB511E8A41D11848
:10314400FFF746F9511E8A41D118B1E4FE235B0012
:10315400E650FFF7A5FA0133A350164A934200D074
:1031640041E7A5E682239B00E358F31ADA179B187C
:1031740053403F2B01DCFFF793FAFC2380225B00D2
:10318400E35812019B188022520193420EDB0A4B32
:10319400F31ADA179B185340602B01DDFFF780FA0E
:1031A400852301229B00E254FFF761FADA43D21728
:1031B4001340EDE700DC0500FF0F0000024B1A7816
:1031C400002A00D11870704734EC0020034B1A78A1
:1031D400824201D100221A707047C04634EC0020AC
:1031E400F0B54546DE4657464E46E0B54F4B804661
:1031F4001B78A5B0834257D1002955D0002302AAD9
:103204004B4FD37102A98023404604AA073100F032
:1032140063FC002848D00022464B9346F95C464B99
:10322400FB5C0193454BFC5C04ABC018009220E0AE
:103234000F252600AE43B24626001035AE43802E3D
:1032440002D05546E02D11D14D1CEDB2A946892579
:103254007918AD004A554A46012A3ED90F220199F0
:1032640022408A4227D0012200219346013398420A
:103274000DD01A78F72AF9D856B2002ED8DA1400ED
:10328400012201339346002100929842F1D1009B20
:103294009C465B46002B01D0264BF9546346002B19
:1032A400B0D0264BFC54ADE725B0F0BCBB46B246CB
:1032B400A946A046F0BD89229200B95C5246902AE4
:1032C4000FD0802A11D01E4ABA5CD2010A431D498C
:1032D40052188B2189007A50C5E70122494693464A
:1032E400C4E7174ABA5C002A16D1174ABA5C8A4264
:1032F400B9D1D822FF32BA5C002A08D0EB2252009E
:10330400BA5C002A03D00121104AB954ABE78C22DD
:1033140000219200B954A6E70D4D79558A21890000
:103324007A5401210B4AB9549DE7C04634EC00207D
:10333400C0D8002026020000320200002302000050
:103344002502000000E0FFFF2A0200003102000015
:1033540027020000290200007047C04610B5054846
:1033640002F0ECFB0448054B186007F0E9F8002074
:1033740010BDC04615020020C0D8002078DE002011
:1033840070B5734C01252000FDF77AFD714BB62210
:10339400236000235200A3500432A3506E49043228
:1033A400A3500432A150C6210432A3500432A350C6
:1033B4000432A3500432A350684A490062500431D5
:1033C40062508021CA22962009015200A150043281
:1033D400A350C0000432A05010200432A050604812
:1033E4000432A050D4200022400023520230225440
:1033F400023025500430235004302350043023502D
:10340400043023500430235004302350043023501C
:1034140004302350534D04302350043025500430DD
:1034240023500430235004302350043022540430F9
:1034340021500430235004302350043023500430EE
:1034440023500430235004302350043023500430DC
:10345400215083218020890063500431635004315A
:103464006352414940026254023163500431635053
:10347400043160503C20043163523C4962543C495D
:1034840060540131283060543A493B4862543B4906
:1034940060520231635004316352394B3949E2546A
:1034A4000A68394B9A4200D070BD8B88022BFBD13D
:1034B400CB88202BF8D1CB69344A9C4634480B780E
:1034C40001315A4013049B185B009B18DB009B18C6
:1034D400DB009B185B009A188142F0D19445E3D13C
:1034E400FC22284B52009968A1508022DB685201CB
:1034F400934228DB274BFE225200A3508022214B0B
:1035040052011B6993421ADB224B80229200A35082
:1035140080221C4B52015B6993420CDB1D4B8122C0
:103524009200A350174B1B7E082B00D90023D822EE
:10353400FF32A354B8E7DA43D2171340EFE7DA4374
:10354400D2171340E1E7DA43D2171340D3E7C0465A
:10355400C0D800207CBE0020E1AC0000E02E0000BA
:10356400007701000808000016020000260200008F
:1035740027020000290200003C6400002A02000027
:103584003202000000F01F10335A3143C59D1C81E4
:103594001CF01F10FF0F00000048704770CD002082
:1035A4000048704708CD002070B5002826D00328B5
:1035B40033D81B4B8000C458200006F049FEC3B228
:1035C400181C1F2B18D8C021C0B2421CD2B2520002
:1035D400890011430D00002B1CD0124B9C469A1CF1
:1035E4000023E15C01331180D9B202328842F8D859
:1035F400634660461D8070BD1F20E4E70A48C1256C
:103604000400074B0222196802F098F8A31E9C4696
:10361400AD00EDE7034B9C46EAE70020EBE7C0462C
:1036240020CF00208CE500208EE5002070B5164CDC
:1036340082B0200003F0F4FF002805D02500D92330
:103644002C3DEE5C002E02D0002002B070BD0120A3
:10365400E97805F0DFFD0028F6D020000B49EA8860
:1036640004F060F8E978041E0AD00300074A012038
:103674000196009605F01EFE0028E5D02000E4E740
:10368400012005F0EFFDDFE7C4D60020F0D60020CE
:10369400F0B5244C85B0DC220021200002F048F86B
:1036A400214E3568280001F0EBFF206407007068A4
:1036B40001F0E6FF03906064337A01215800C018DA
:1036C400400001F0FBFFE060002F26D0039B002B9D
:1036D40025D000281FD0AAB22000002501233900DC
:1036E4001830009503F066FFB28820002600616C54
:1036F400012348362C30009503F05CFF300000F0C5
:10370400ABFEA662260050363000656200F0A4FECF
:103714000120A663E56305B0F0BD3800FBE718009F
:10372400F9E7C04698D6002030CF002010B50E4CE3
:10373400206C002803D001F0E3FF00232364606CB5
:1037440000280CD001F0DCFF0023E068636400284B
:1037540003D001F0D5FF0023E360012010BDE06831
:103764000028F6D1F9E7C04698D60020F0B51C0031
:1037740083B001282AD1D923334DEA54002A25D114
:10378400AB788B4225D0EB788B4248D001201EE0E9
:1037940028002C3003F044FF002844D1002C42D0F0
:1037A4002000E98801F0C0FD0C1E3CD10120E9781D
:1037B40005F030FD002836D0E978230022000120EE
:1037C4000194009405F076FDA0422CD1002003B0B2
:1037D400F0BD002C19D0A40817D02634A4002E194B
:1037E4002C000027983402E00434A64209D0236850
:1037F400002BF9D004222100144804F09BF801376F
:10380400F2E7134B002B16D1A97800242A00AB88C9
:10381400287898320194009405F04CFDD7E7FFF71F
:1038240005FF0028B4D00B4B002BAFD00120FFF7CD
:1038340093FD0120CBE7002FE6D039000120FFF7EC
:10384400CFFCA978E1E7C04698D60020B0D6002086
:10385400F12F00206931002070B5012824D1134BC9
:10386400002B02D00021FFF7B1FC114C200004F022
:1038740015F920002500143004F010F9002300226B
:103884002000183D6B602B81FF332B60273BEA54EB
:1038940000210622083801F04BFF064B00211A7A5A
:1038A400E868920001F044FF70BDC046DD2F00209F
:1038B400B0D6002030CF0020F8B5DE4657464E463D
:1038C4004546E0B5012906D1D92100206A4C60544F
:1038D4005179012906D00020F0BCBB46B246A94666
:1038E400A046F8BD9079002101286BD00328F2D1BD
:1038F400157850194678B446242676426644012E3B
:1039040000D87FE06646052EE5D19278691889B221
:1039140062708B4200D8A0E0584A15685268A946E4
:103924009046002200259346924623E0252A29D07A
:10393400052AD0D14279057912022A43402A04D9B2
:10394400402202710022427140328578EE092DD165
:10395400E678677A3E43BED1424500D94246834663
:10396400E570E2800278511889B299424FD28018EA
:10397400427894466246242AD8D18278013A032AAE
:10398400A9D8EFE78278012AA5D1002DA3D0EA09AE
:1039940028D1E278AA429ED1627A002A9BD1C278C9
:1039A400627202780025511889B2DEE7A678277A78
:1039B4003E4300D08FE74A4500D94A468246A57067
:1039C400A280CFE7002B07D185E7107841181218A1
:1039D40089B250798B4210D90128F6D19079032805
:1039E400F3D183E7A278AA4200D074E7227A002AAE
:1039F40000D070E7C2782272D3E7012800D06AE7CA
:103A0400907973E78678012E00D064E77DE7E37848
:103A1400002B1AD0637A002B17D05346002B06D004
:103A24005146012005F080FC002800D153E75B4695
:103A3400002B06D05946012005F076FC002800D161
:103A440049E701230120237046E7A378002B00D126
:103A540041E7237A002BE0D13DE7E378002B02D045
:103A6400637A002BEDD1A378002B00D133E7237ABE
:103A7400002BE6D12FE7C04698D6002030CF002097
:103A840070B50E0082B001281ED1114CD823002538
:103A94002200E054A388A1782078983201950095FB
:103AA40005F008FC051E0FD00A4B002B07D0607AE6
:103AB400237AE278A17800900120FFF77FFB3100A0
:103AC400012005F059FC00E00025280002B070BD7B
:103AD40098D60020CD2F0020F0B557464E46DE463E
:103AE4004546E0B514000F00994685B001280ED173
:103AF40000290CD0002A0AD0002B08D0604D02AA5D
:103B04002800D11DA84603F083FE002808D1002612
:103B1400300005B0F0BCBB46B246A946A046F0BD95
:103B2400290002AAD37928001B0904223B70083912
:103B340003F0F8FD0428EAD1524B0026183D009307
:103B44001CE0009B9C4618885B46184240D102AB9F
:103B54004046D91D03F05CFE0028D9D002ABDB79C6
:103B64003A781B099A42D3D140460100042208390D
:103B740003F0D8FD0428CBD1B145C9D92B7C1B094E
:103B84003B702A7A9A42E2D901229A4093B29B4628
:103B94001123EB56697C002BD3DAF02911D0EF29DD
:103BA40035D80B090C3BDBB2012B46D90323032088
:103BB4009A46344A5B46944612889A4363461A806E
:103BC40015E0304B18889C465B46184363461880C2
:103BD4001223EB56AA7C002B3ADB1322EB7C0193D5
:103BE400AA560223002A2CDB01339A4618002170BE
:103BF40084460221504601346A18137C4A1C2370FF
:103C0400032101348242F7D9604636189FE7F72929
:103C14000ED8F32918D006D8F12915D00323F221A0
:103C240003209A46E3E70B000A33DBB2012B8ED85C
:103C3400012021703618013489E7022302209A46B4
:103C4400B7E7019BF72B18D0022302209A46CEE750
:103C5400F72A09D01322EB7C0193AA560123002AE8
:103C6400C2DA019BF72BE3D1012301339A465B4669
:103C74006246984310805046B9E70223F5E7C046F0
:103C8400B0D6002032EC00200123037000487047B6
:103C94003CCF002010B54024074A83009A181268CC
:103CA400C0005440C0222240044C1B191A60044B2B
:103CB400C018416010BDC04604C0014004D001409A
:103CC40000400140064B8000C3181B68C9009200E5
:103CD4000A435A400C231340024A80180360704779
:103CE40004C0014004D001408000002904D0054BE9
:103CF400C018402303607047034BC018402303607F
:103D0400F9E7C04604E0014004F001400123D02259
:103D14008340120693629361084A83009A181168DB
:103D24004022514080320A400549C0005B181A60A5
:103D3400044BC018052343607047C04604C00140CB
:103D440004D00140004001408023DB051868000FC7
:103D54007047C0460FB400B5084883B001F05EFE5A
:103D6400049B002B07D005A91800019101F0F4FC75
:103D7400034801F053FE012001F006FD80CB002032
:103D840090CB002070B58C461600EFF3108472B609
:103D94000F490B68002BFCD0BFF35F8F6346DB0831
:103DA400C5180722C05C63461A40012393401A00D9
:103DB4000240034207D118432870BFF35F8F0A60A3
:103DC40084F3108870BD61463000FFF7C3FFC0461E
:103DD4002C0100D0F8B5CE4647468C4680B51C0071
:103DE400EFF3108872B61C490B68002BFCD0BFF3AC
:103DF4005F8FA24221D80723994602E00132944200
:103E040018D34946012611408E40D308C718C35C15
:103E14001E42F3D1100033433B70BFF35F8F002287
:103E24000D4B1A6088F3108800280EDBC0BCB9461D
:103E3400B046F8BD01204042EFE7BFF35F8F002397
:103E44000B6088F31088012040426346002BEDD0BC
:103E54000898FFF77FFFC0462C0100D0044A107871
:103E6400431CDBB2172B00D9102313707047C046D4
:103E740058CF002000B5054B83B0010000931822F1
:103E84001F230348FFF7A6FF03B000BD94CB002017
:103E94005CE500200021044B044ABFF35F8F02C39A
:103EA4009342FAD17047C046000100D0800100D08F
:103EB400084B094A1360094A1360094A1360094A06
:103EC4001360094A1360094A1360094A1360094AD6
:103ED400136070478080808000E400E004E400E028
:103EE40008E400E00CE400E010E400E014E400E086
:103EF40018E400E01CE400E01F2318401E3B83404C
:103F0400002905D0C021044A49005350136070476A
:103F1400802201498B50FAE700E100E0012282404F
:103F2400034B1B6813405A1E9341D8B27047C046D6
:103F340000E100E070B50D00EFF3108672B60F4A91
:103F44001368002BFCD0BFF35F8F0D4B10309B68C0
:103F540084001B590B4A934203D09D4201D001F0C7
:103F64007BF8074B9B681D51BFF35F8FBFF35F8FD7
:103F74000022024B1A6086F3108870BD240100D021
:103F840000ED00E0C1010010F0B5DE4657464E4694
:103F94004546E0B5824683B08B461700EFF31088A0
:103FA40072B6604A1368002BFCD0BFF35F8F002504
:103FB4005D4B5D579946002D00DA9AE04A466B0046
:103FC4005A4C5E19B6000193A31900939B791370A0
:103FD400574B9A68534610339B00D15899460B1B94
:103FE4002F2B32D9534B994200D098E0019B0236D3
:103FF400ED18514BAD006353504BA619043B9B1B6A
:104004004F4A1B055B0D651913436B804D4B012112
:10401400AB80FF23AB715B46AB60009BEF710B433E
:1040240019004A46424B9B689950BFF35F8FBFF318
:104034005F8F00223B4B1A6088F3108803B0F0BCFA
:10404400BB46B246A946A046F0BD01200A00824301
:10405400D379B446BB422DD83B4BB51C1900130091
:104064001B1B5B415943090D8C46334B6519A35304
:10407400324B0099043B5B1B1B05314D5B0D2B43FD
:1040840004364B80A619131F9B1B1B055B0D1D4398
:1040940063468B715B468B602C4B8D80CF711360B4
:1040A4000143BEE75800C01880002018C679BE42FC
:1040B40025D902000623D356002BF3DA9A46131DA2
:1040C4009C4623486346009E9571043EF61A3605C5
:1040D4001B4B760D1E43019B96805A195346920042
:1040E400A418A3715B46194AA0802260E771A360FB
:1040F40097E700F0B1FF00254B465D575EE7664643
:104104009A46131D9C469088043640050015A6194E
:104114006044801B00050A4E400D3043D2E700F096
:104124009BFF63E7240100D03BEC00205CCF002020
:1041340000ED00E0C101001000A1FFFF8CCF0020C2
:1041440000E0FFFF01BDFFFFAAAA0000014880476D
:1041540001BD0000F0B54546DE4657464E46E0B583
:104164000D0083B0EFF3108872B6604A1368002B19
:10417400FCD0BFF35F8F5E4B5E499A680300103337
:104184009F00D45999468C423ED0AC424FD05A4EEF
:10419400A21B2F2A38D8594B1A689C4613000122B7
:1041A400824013401F22024001209A4690406346F9
:1041B400802283469850BFF35F8FEFF3058301930A
:1041C400002B36D0994501D000F046FF0123220090
:1041D4009A439068854208D176E04B005B189B00B7
:1041E400F3189868854236D01A00062151560029E2
:1041F400F3DA854254D05346002B27D0C0225946C7
:104204003E4B520099501960394B9B68DC51BFF307
:104214005F8FBFF35F8F0022344B1A6088F31088DE
:1042240003B0F0BCBB46B246A946A046F0BD0C00A4
:10423400EAE7220001339A4390688542D5D10620EB
:104244001056130000280ADA0C0031E08023594686
:104254002A4AD150D8E706201856002821DB42000C
:104264001118890075188946A9689960E979D97186
:10427400062169569971002924DBAD88F11A6D0570
:104284002D154D44491909051D4D490D29439980A2
:1042940013181C4A9B001178F31899711070AAE73F
:1042A40013000199002914D1FF31917116499180AD
:1042B40014490A789A71154A9B1B5B415A43120DA3
:1042C4000A7098E71049E2E7062010561300002808
:1042D400C5DA0F4A0F49D21A083A5002400D014379
:1042E40099800D4952080A43DA8084E7240100D0FA
:1042F40000ED00E0C10100105CCF002000E100E00F
:1043040000E0FFFF3BEC002001BDFFFFAAAA000074
:1043140096CF002000F0FFFF00F8FFFF084A830853
:104324009B009B181A6810B5140003221040C000AB
:10433400FC3282409443220081400A431A6010BD3B
:1043440000E400E00123034370B59C46EFF30581CC
:10435400EFF3108572B6214A1368002BFCD0BFF32B
:104364005F8F1F4B04001F4AE41A64416243120D1D
:104374001D4C8900A66852B2765866451CD00621A9
:10438400595691421CD012215956914222D01E21D5
:104394005956914220D02A2159560324914210D0D3
:1043A400124B19781A708171BFF35F8F00220B4B87
:1043B4001A6085F3108870BDA3680D4C5C50EFE75C
:1043C40000246100091989005B18FF2199710949CA
:1043D4009980E5E70124F4E70224F2E7240100D000
:1043E4005CCF0020AAAA000000ED00E03BEC002016
:1043F400C101001001BDFFFF024BC9188900016013
:104404007047C0464000003470B5114C114DAC42A9
:104414000FD2FF262368002B0CD0FFF71FFD0100ED
:104424002000FFF7E9FFA680BFF35F8F0834AC429A
:10443400F0D370BDFFF712FD01002000FFF7DCFF91
:104444002671BFF35F8F0834AC42E3D3F1E7C04673
:1044540040D6002050D6002010B50400FFF7FEFC23
:1044640001002000FFF7C8FFFF232371BFF35F8F14
:1044740010BDC04610B504000120FFF7FBFC034B40
:10448400C01880002060BFF35F8F10BD400000346F
:104494000A4B1968EFF3108072B60A68002AFCD040
:1044A400BFF35F8F1B68BFF35F8F00221A6080F336
:1044B400108840BF002000217047C0462CEC00202B
:1044C400F0B5DE4657464E464546E0B585B0EFF3B7
:1044D400058303221A40B34B91005F580123934094
:1044E4009B4602925A468846AF4B1A60AF4B0393E1
:1044F4005B46AF4843630823FE5E002E37DABB8871
:104504001BB2002B00DBA4E0BB79002B00D0E5E05C
:104514000823F95E002920DB4B007A695B18DB0075
:10452400D3189D68DC686B1C00D104E1A04801002D
:104534004144826A0B69AE1A9B1A9E4215D3012329
:10454400026A029883401A420FD0994800F0CEFBC9
:104554008C4202DCCCD18542CAD940BF05B0F0BC44
:10456400BB46B246A946A046F0BD0D61EDE77A69A7
:10457400730091469B19DB0099444B469C68DD68A7
:1045840000F0B4FB8D42BADC00D1F6E0002D00DA75
:10459400DBE04A464B4652691B699246039A9342B2
:1045A40000D1CCE04A460821785E52880004514686
:1045B40010439847009001910099019A0B0013430E
:1045C40000D1C2E013000A00002B00DBD9E0200078
:1045D4002900801A99414B469860D96000229B5E5D
:1045E400002B00DA8BE75D007C69EA18D200A21880
:1045F40000949468D268A2468A4200DD7FE702D123
:10460400844200D97BE70824A4463B81BC44009C37
:1046140000972F006546B4463E0006E05E00F2189F
:10462400D200A2189768D268BA468A4207DC00D141
:10463400B4E0F318DB00E518E35E002BEEDA66461F
:104644004A46009F13802E80BB881BB2002B00DAE1
:104654005AE73A69EFF3108172B61368002BFCD065
:10466400BFF35F8F0123BE885B42BB8036B23B69D8
:10467400BFF35F8F00221A6081F31088002E00DAE6
:1046840042E73B0008333A0099467D6973009B1961
:104694000824115FDB004846EB18002913DB9C68F3
:1046A4000093A446DC6806E0A34240D00023F95EF0
:1046B4003800002906DB4F007F18FF00EF19FB6864
:1046C400A342F1DD009B068000201E5E1980002EAF
:1046D400DCDA1700BB79002B00D119E70023BB718A
:1046E4000823F95E4B1C00D137E73D000835AC4682
:1046F4007C6903E084464B1C00D109E74B005B183E
:10470400DB00E0180A00E15E43881BB2002BF1DAFB
:1047140001256D42EE178560C66008257B5F9342D4
:10472400E9D0634619803B8903803A81E3E7BB689B
:104734006345BBD9C6E7631C00D0F7E605E75346DB
:1047440050461B699847002823D14B461B883A6979
:104754003B81EFF3108372B611680029FCD0BFF3DC
:104764005F8F49467A880A803A697E80BFF35F8FFB
:104774000021116083F31088C1E6844200D805E764
:10478400BDE60B4800F0B2FA009B019CC0186141E1
:1047940021E753460CCB009201930DE7824500D8E4
:1047A40047E74CE710EC00203C700540D142002064
:1047B4000040054070B52D4C2569002D04D00A2118
:1047C4002B48FFF719FE70BD2A4E0321294800F03B
:1047D40083FAE660FFF742FB274B0322C018D0237D
:1047E40022701B061B6801216370244B8000A360A8
:1047F4000F2320610220638063694942A1801980EC
:104804000231198647311D83585218315A52753274
:104814005C39995218320131995218320131995246
:10482400183201319952083518329D52023118322A
:104834009952183201319952183201319952183271
:104844000131995218320131995218320131995279
:104854000B4B0C49DC6001303562FFF76BFB012127
:104864000320FFF749FB084B1D60A8E7A4CF0020F5
:104874002CEC00200040054040000034FFFF1000F5
:1048840010EC0020D14200203860054070B582B0A1
:104894000092019301000269EFF3108472B6136869
:1048A400002BFCD0BFF35F8F0223C85E0D69002884
:1048B4003FDB4A69430016001B18DB00D218F35A89
:1048C4004B80BFF35F8F00232B6084F31088069B1B
:1048D4001361079B5361009B019C9360D4605388D0
:1048E40001335B045B0C1D1C002B20D0ACB2030411
:1048F400558023430D69EFF3108C72B62C68002C9D
:10490400FCD0BFF35F8F8C88148088800A69BFF362
:104914005F8F002010608CF310880A78013090407B
:10492400CA68084952181060180002B070BD012509
:10493400DCE7BFF35F8F00232B6084F31088013B17
:10494400F2E7C0463C20000010B543890A149342A4
:104954001ADD53009B184269DB00D3180469EFF396
:10496400108C72B62268002AFCD0BFF35F8F5A887D
:10497400090494B2090C8A4208D00369BFF35F8F1B
:1049840000221A608CF31088002010BD094A2243CB
:104994005A80012302698371BFF35F8F0021116084
:1049A4008CF31088027804499340C268012052189D
:1049B4001360EAE70080FFFF3C200000F0B5C64624
:1049C40000B582B004000D0000F098F924184D41A0
:1049D400002D02DA01242F4D644206267642F71791
:1049E40036196F41AF4214D811D000F087F9320064
:1049F4003B00121A8B41002B15DC002B46D0200003
:104A0400290000F085F902B080BCB846F0BDA6428A
:104A1400EBD90026002700F071F932003B00121A8E
:104A24008B41002BE9DD00F069F932003B00121ADA
:104A34008B41002B0ADB00230193174B32000093B8
:104A440016483B00FFF722FF0130D8D0002339007D
:104A5400B0469C46124A1348536A994204D8966A4F
:104A64004645CCD29942CAD10668EFF3108772B694
:104A74003368002BFCD0BFF35F8F0368BFF35F8FF5
:104A840066461E6087F3108820BFE5E7002AB6D08B
:104A9400C9E7C046FFFFFF7FA1420020A4CF00204A
:104AA400004005402CEC0020F0B5C64600B582B0AD
:104AB400040000F023F9FA2206000F00200000236E
:104AC4000021920000F0BEFC8019794104000D1E03
:104AD40002DA01242E4D644206267642F71736196F
:104AE4006F41AF4214D811D000F008F932003B00F6
:104AF400121A8B41002B15DC002B46D02000290014
:104B040000F006F902B080BCB846F0BDA642EBD96D
:104B14000026002700F0F2F832003B00121A8B4105
:104B2400002BE9DD00F0EAF832003B00121A8B4159
:104B3400002B0ADB00230193164B32000093164826
:104B44003B00FFF7A3FE0130D8D000233900B04664
:104B54009C46124A1248536A994204D8966A4645BA
:104B6400CCD29942CAD10668EFF3108772B6336883
:104B7400002BFCD0BFF35F8F0368BFF35F8F6646E3
:104B84001E6087F3108820BFE5E7002AB6D0C9E786
:104B9400FFFFFF7FA1420020A4CF0020004005407A
:104BA4002CEC0020F0B5CE46474680B504000D003D
:104BB40085B0EFF305868946002E10D036490020D3
:104BC4004B6AAB4206D38A6A5B1B591E8B41A242D5
:104BD4004041184305B0C0BCB946B046F0BD2F4FA4
:104BE400FB683A7898461800039200F07FF8039A1D
:104BF400131D42469B009B5822001B1A9C462B0007
:104C0400121A8B419E4210DC0DD020BF224A002094
:104C1400536A4B45DED3926A5B1B591E8B41A242F9
:104C240040411843D6E79445EFD900F067F82200D5
:104C34002B00121A8B41002B1BDB00230193184B12
:104C44002200009338002B00FFF720FE002810DD1F
:104C5400114B5A6A4A451CD39B6AA34217D30100DD
:104C64003800FFF771FE0C4A0020536A4B45B1D35C
:104C7400D1E7094A0020536A4B45ABD30020926A1E
:104C84005B1BA24240415A1E93411843A2E74A4586
:104C9400E5D120BFE3E7C04600400540A4CF002093
:104CA400A1420020036808499C464A6A43680020E0
:104CB400934207D89B1A5A1E93416246896A9142CD
:104CC400404118437047C046004005400CC00148AD
:104CD4007047C046B54A002010B5024A0248FFF7A3
:104CE40051F810BDB0CB002060E500200300416AFC
:104CF4000A00986A596A8A42FAD17047034B596A82
:104D04000A00986A596A9142FAD1704700400540F6
:104D1400064A536A9942FCD807D1044B02E05A6A06
:104D2400914202D19A6A9042F9D8704700400540F6
:104D3400F8B5DE464E4645465746E0B505008B4677
:104D440018000A99914600F0EFFA0A9B6C001E02C3
:104D54006419304BA400E418636880469E4200D96D
:104D640066602F1FFBB29A46012B2FD9C0238022E5
:104D7400294FAD009B0179591201E3181A600029EB
:104D84001BD14B4622685B015340E0221340802232
:104D94005201A21813605346012B2FD9802380227D
:104DA4009B01E31812011A60434666607B51F0BC14
:104DB400BB46B246A946A046F8BD786900F0B4FAED
:104DC400013043001B18033BFDD2DAE75B46012B9D
:104DD400CCD1C02303229B01E3181A60023AA368D2
:104DE4001A42FCD04A46236852015A40E023134039
:104DF40080225201A218084F1360AD0058460323C5
:104E0400216841400B40136001228240A3681A428A
:104E1400FCD0C3E70080004064E50020F0B5D6462E
:104E24004F464646440098462418324BA400E418E2
:104E340063688A469146C0B5FF2B02D880235B0085
:104E44006360061FF6B2012E2FD9C02380222A4F99
:104E540085009B0179591201E3181A6000291BD1BE
:104E64004B4622685B015340E022134080225201EA
:104E7400A2181360012E30D9802380229B01E318ED
:104E840012011A6080235B00636043467B51E0BCDF
:104E9400BA46B146A846F0BD786900F045FA01303B
:104EA40043001B18033BFDD2DAE75346012BCCD158
:104EB400C02303229B01E3181A60023AA3681A4232
:104EC400FCD04A46236852015A40E0231340802212
:104ED4005201A218084F136085005046032321682D
:104EE40041400B40136001228240A3681A42FCD067
:104EF400C2E7C0460080004064E50020014B80000A
:104F0400C058704764E50020F0B5C646040000B5FB
:104F14002348160098460D0000F006FA0100300000
:104F240000F002FA4346069A1B04120313439C46FC
:104F340023680600002B22DB1A4B1B48E218531E81
:104F44009A4180235242120B9B011203D218174B31
:104F54001A60174B1A60130001688B43FBD121229E
:104F6400144B2560E318A6601A602268002AFCDA54
:104F74006246E26008221A6080BCB846F0BD3F2356
:104F840022681340AB42D7D1A3681B051B0D834293
:104F9400D2D1EE22E368D20213406345CCD1EBE7D1
:104FA400001BB7000040FDBF08C0004000E0004007
:104FB40000F00040043000008023024A9B000B43B1
:104FC400D362704700800540002310B50100988A21
:104FD4001B8B984710BDC046162310B501001888D6
:104FE4005B88984710BDC046F8B54746CE4680B5A5
:104FF4000F1E18D0142399460433040000250126FB
:1050040098464B461888434621681B88984701C434
:10501400431E984101350640AF42F2D13000C0BC76
:10502400B946B046F8BD0126F8E7C046AA23064AA9
:105034001B0113602133FF33D3600449044B19600F
:105044005368002BFCDA70470040024000B0FA00BD
:10505400006002407047C04610B50148FEF77AFE72
:10506400D4CB002070B5074D074EB54209D20024B9
:10507400013E761BB608013608CD01349847B44288
:10508400FAD170BD50D600208CD6002070B5074DE3
:10509400074EB54209D20024013E761BB6080136FC
:1050A40008CD01349847B442FAD170BD84D60020AB
:1050B4008CD60020054B064A06491A60064A074B5F
:1050C4001A6010000B689843FBD1704700E0004061
:1050D400BFCDFBFE08C00040FE7F3C0000F0004056
:1050E400044BDB6C002B03D18022034BD2021A60E9
:1050F4007047C046000011504C201150044A054B23
:105104001A60054A1368DB018033FBD17047C0463F
:10511400FFFFFF0100F0004008C000404022034BA5
:105124009A675A671A67DA667047C04600F001400A
:1051340010B5FEF7AFFE10BD70B52849284D294EB5
:105144006D1AAC102200302C00D9302230009200AD
:1051540000F0F4FABC2D3DD823002A3B224A052B4B
:105164001DD9302075196D07A446001BEB0F002DC7
:1051740003DA611C8C46A1007250C01AE3189B002C
:105184004108F318C900C9181A605A6008339942D3
:10519400FAD1012303421DD0984360440400A300C4
:1051A400F250631C2F2C15D09B00F250A31C2E2C04
:1051B40010D09B00F250E31C2D2C0BD09B00F2501E
:1051C400231D2C2C06D09B00F250631D2B2C01D0E8
:1051D4009B00F250054B9E6070BDC046000100105C
:1051E400C001001000000020C101001000ED00E02B
:1051F400002310B5294C82B0A367FFF717FF0122E3
:10520400274B1A60636C012BFCD10322254B1A60D7
:10521400224A936B012BFCD1013300930121224AD2
:1052240022480433FFF770FE052301210093204A2E
:105234002048FFF769FE0022022104201E4BFFF7DD
:10524400EDFD0022012105201C4BFFF7E7FD0022A4
:10525400002107201A4BFFF7E1FD0022002108205E
:10526400174BFFF7DBFD8023DB00009300220021B6
:105274000920134BFFF75CFD0022104B0021062090
:10528400FFF7CCFD0420FFF739FE0E4900F04CF87F
:1052940001000020FFF790FE02B010BD0080004026
:1052A4003CB0004030B00040002F685900800240FC
:1052B400008C864700C00240001BB70040597307AA
:1052C400006CDC0240420F0001480421014B1847E6
:1052D400C0CF0020F94D0020124A936F9B0815D2CD
:1052E4009066D166002905D0FFE7FFE7FFE7516F1D
:1052F400106F704704B580210906C2175140002879
:1053040000D0C84304F03CFC002104BDF0B5146E89
:10531400556E576F166FFFF7E3FF146655665767B0
:105324001667F0BD000000D0114A936F9B0813D29A
:1053340010665166002905D0FFE7FFE7FFE7516FCC
:10534400106F704704B5002801D00020C04304F05A
:1053540017FC002104BDC046F0B5146E556E576F9E
:10536400166FFFF7E5FF1466556657671667F0BDBD
:10537400000000D0132370B51D78012D19D014DD61
:105384001F48FFF729FE06001E48FFF725FE1E4CA6
:1053940080223100200000F0D1F9022D2DD01B48CD
:1053A400FFF712FE1A4B186070BD1A4B164CA3641B
:1053B400F5E7184B144C23606360A360E36023613A
:1053C4006361A361E36123626362A362E3622363B3
:1053D4006363A363E36323646364A364E364236593
:1053E4006365A365E36523666366A366E366236773
:1053F4006367A367E367A364D1E7064BA364CEE7BF
:10540400534400005346000078DC00204C33000075
:1054140028EC00202952002007B5604601880A0ABA
:105424000230DF2AFAD1C9B2820804D30288408844
:105434000004104300E00068014A5050039007BD87
:1054440078DC002051434343C9188C46110C83B2C5
:105454004B4310B4040C614392B280B25043624394
:105464001C041B0C001910BC59411304120CC01865
:1054740051416144704700004840414048400E4B50
:105484005B6818470C4B1B6818470C4A936F9B08C2
:1054940002D2094BDB681847F0B5146E556E576F8E
:1054A400166FFFF7F6FF054A1466556657671667C9
:1054B400F0BD014B9B68184778DD0020000000D048
:1054C40007B548404140484001E0C04607B54200A6
:1054D400120E03D0FF2A03D1420218D8C00DC00512
:1054E4004A00120E03D0FF2A03D14A020FD8C90D75
:1054F400C9050122414005D4414001D5814207BD7F
:10550400884207BD0143491801D0C043001807BDB4
:1055140000B5FFF7DBFF01D0002000BD012000BD76
:10552400C10FC90700D54042002817D0F44603B480
:105534000B4B1B68984706BC81409E384042803123
:1055440007D20B0607D04900490AC0051043084397
:1055540060470130F8E7490A8902F5E7704700001F
:1055640028EC002041000A0E80231B067E2A0BDD56
:105574009E3A0BDAC1174002400818435242D04009
:10558400490001314843704700207047C00FC018DC
:1055940001387047C0420DD300B5400040080021D7
:1055A40000F012F8002801D4404200BD802000061B
:1055B40000BD0000034BDB69FC4618471CDF79542F
:1055C4000020000078DD0020014B5B6A18470000D2
:1055D40078DD0020132310B51C781348FFF7FCFC7A
:1055E400012C0BD004DD01008022104800F0A6F845
:1055F4000F48FFF7E9FC0F4B186010BD0B4C01007E
:105604005422200000F09AF80B4B6365A365E36510
:1056140023666366A366E36623676367A367E3673A
:105624002362E361E4E7C0465346000078DD0020CE
:105634004C33000028EC00204D54002007B5604690
:1056440001880A0A0230DF2AFAD1C9B2820804D3D7
:10565400028840880004104300E00068014A50506A
:10566400039007BD78DD00200021C215803280320E
:1056740001D0024A1047002070470000CD2A0000E4
:1056840070B504000A4E300005F04CFB200004F015
:10569400DFFA0500300005F0FBFB002D05D0054BBB
:1056A4002C199C4201D8280070BD0348FEF752FB18
:1056B40040D6002000000420E0CB0020F8B507000D
:1056C4000C000C4E300005F02DFB2100380004F0D6
:1056D40059FA0500300005F0DBFB002D06D07C43B1
:1056E400054B2C199C4201D82800F8BD0348FEF74D
:1056F40031FBC04640D6002000000420E0CB00204F
:1057040070B50500054C200005F00CFB280004F0E2
:10571400A9FA200005F0BCFB70BDC04640D60020AD
:1057240001480421014B1847D0CF0020F94D002037
:10573400014B1B6818470000D0CF0020014B5B6869
:1057440018470000D0CF002010B5002800D110BDAC
:1057540000F01AF9FBE7C04610B5094A03001468C3
:1057640084B0002C08D0012200910648524203A9BB
:10577400A047012004B010BD00F050F90020F9E763
:10578400F0EB00205955002000BEFDE7094A1368DC
:10579400002B06D008491818884208D81060180051
:1057A4007047064B0449181813608842F6D9012340
:1057B4005B42F4E7DCE70020000004203CEC00201E
:1057C40010B5FFF7E1FFC04670B5FFF74BFC074D7E
:1057D400074EB54209D20024013E761BB6080136B5
:1057E40008CD01349847B442FAD170BD8CD600205C
:1057F40098D60020030010B5080011001B689847D4
:1058040010BDC046F8B5437D07000D001600002BFF
:1058140038D0002A1ADD0B780A2B18D00020012E6C
:1058240009D0012421006B5C01340A2B1AD0B44244
:10583400F8D1864203DD311A3B6828189847AD1920
:10584400013D2B780D3B5A4253413B75F8BD037D16
:10585400002BE3D102210E483B689847012EEED07D
:105864000120DEE76B1E5B5C0D2BE0D0884203DA7F
:10587400091A3B6828189847054802213B6898474D
:105884002000D4E70368110028009847DEE7C046EB
:10589400D8CD0020F0B54646D6464F46C0B582B0B6
:1058A40090461C0006000D00FFF728FA00232F4A3B
:1058B40012184B41002B02DA01222D4B52422D4982
:1058C40008008A4605F052FA81466B1C03D1300069
:1058D40004F0BEFC0500002C27D0274F274B1C6882
:1058E400002C18D04346002B21D1254B984602E0CA
:1058F4002469002C0FD02368002BF9D043461B6881
:10590400002B01D09C42F3D120002A003100B8477B
:105914002469002CEFD14B46002B23D1280002B080
:10592400E0BCBA46B146A846F0BD164FD6E7144BC4
:10593400984602E02469002CEDD02368002BF9D0AE
:1059440043461B68002B01D0A342F3D12A00310047
:105954002000B8476B460A222000DA71D91D093AA3
:10596400B847E7E7504605F093FAD7E740420F00FF
:10597400FFFFFF7F48D6002015560020CCE500200D
:10598400D8E7002005560020F0B5CE46474680B53E
:1059940083B06B460600DD1D2870FFF7AFF90023C6
:1059A400194A12184B41002B02DA0122174B5242BA
:1059B40017490800894605F0D9F9164B80461C683A
:1059C400002C14D0144F02E02469002C0FD023685B
:1059D400002BF9D03B68002B01D09C42F4D120006D
:1059E40001222900FFF70EFF2469002CEFD1434662
:1059F400002B05D1300003B0C0BCB946B046F0BDA1
:105A0400484605F045FAF5E740420F00FFFFFF7FE7
:105A140048D60020CCE50020D8E7002070B504006B
:105A240004F016FC01230100050001222000FFF709
:105A340031FF084B1C68002C06D06368002B05D08E
:105A440098472469002CF8D1280070BD2469002CE3
:105A5400F3D1F9E7CCE5002010B5024800F004F8D2
:105A640010BDC04620EC002010B588B004000D2203
:105A740000216846FFF75CFE0D22002104A8FFF711
:105A840057FE4B236A466846137004A90D2205F09D
:105A9400FDFA1521082220006944FFF74FFE08B0E3
:105AA40010BDC04603BDC04610B50400FFF7EEFAB2
:105AB400A04710BDF0B5C64600B5040086B00F205F
:105AC4000D001700FEF72AFA002180460F20FEF78A
