:020000041000EA
:1000000000B5324B212058609868022188439860DF
:10001000D860186158612E4B002199600221596106
:100020000121F02299502B49196001219960352056
:1000300000F044F80222904214D00621196600F024
:1000400034F8196E01211966002018661A6600F04E
:100050002CF8196E196E196E052000F02FF8012189
:100060000842F9D1002199601B49196000215960AB
:100070001A491B48016001219960EB211966A021F2
:10008000196600F012F800219960164914480160C1
:100090000121996001BC002800D000471248134993
:1000A000086003C880F30888084703B5996A0420EC
:1000B0000142FBD001200142F8D103BD02B5186610
:1000C0001866FFF7F2FF186E186E02BD00000240BE
:1000D000000000180000070000035F00212200005C
:1000E000F4000018222000A00001001008ED00E03C
:1000F00000000000000000000000000074B24E7A12
:1001000000200420F7010010CB010010CD010010E9
:10011000C9010010C9010010C9010010C901001077
:10012000C9010010C9010010C9010010CF01001061
:10013000C9010010C9010010D1010010D301001045
:10014000C1010010C1010010C1010010C101001067
:10015000C1010010C1010010C1010010C101001057
:10016000C1010010C1010010C1010010C101001047
:10017000C1010010C1010010C1010010C101001037
:10018000C1010010C1010010C1010010C101001027
:10019000C1010010C1010010C1010010C101001017
:1001A000C1010010C1010010C1010010C101001007
:1001B000C1010010C1010010C1010010C1010010F7
:1001C000EFF30580103800BE00BE00BE00BE00BECA
:1001D00000BE00BEF2EB887190020010B402001065
:1001E0003802001090A31AE721482249086006C887
:1001F00081F30888104720480068002801D01C4877
:10020000F3E70DA40ECC002902D000F012F8F9E7B4
:100210001A491B4A002000E001C19142FCD1194952
:100220008847194988471949884700BEFDE701C931
:1002300001C29A42FBD37047B4020010C0000020F4
:10024000ECC40020E0C60010F0C4002038F8002004
:1002500028FA0010000004200000042028FA0010F2
:10026000001004200010042000000000704700006F
:100270000000000008ED00E0000000D038F8002089
:100280008C1201207D7700205152002075770020CC
:1002900020EF00202CEF002038EF002044EF00205A
:1002A00050EF00205CEF002068EF0020A4F0002059
:0402B00098F00020A2
:1002B400F8B5C04606480749091A8B10C90FC91872
:1002C40010B5491003D0044B002B00D0984710BD43
:1002D40038F8002038F8002000000000054B10B565
:1002E400002B03D00449054800E000BFFFF7E2FFFC
:1002F40010BDC0460000000048120120ECC40020DC
:10030400A423082130B5FF24134A1448D1501449BA
:1003140002680B680D689B1AA343521BD218026033
:10032400104A1B02944612680F4853401B0C0F4D91
:100334001B0403602A684B6849689B1AA343521A3A
:10034400D2182A6062461B0212681B0C53401B041D
:100354001B0C036030BDC04600000540F0040120C2
:10036400B4F000204800054048100540F404012082
:10037400F0B5502387B017256A460405240F1C43A3
:100384006D44AF3393750F00287006F089FD002388
:10039400194A80185941002902DA012017494042BC
:1003A40000230290039100932A0021001448013392
:1003B40007F05AFF00281ADD06F072FD00230E4AEA
:1003C40080185941002902DA01200C4940420023D7
:1003D40016220290039100932100094801336A44D4
:1003E40007F062FF002802DD6B46987D02E00123DE
:1003F40000203B7007B0F0BD10270000FFFFFF7F17
:1004040080F10020F0B5DE464E4657464546E0B53D
:10041400564C6420A54406F019FCF023544EF35CBA
:100424000C2B01D000F085FED0231B065A688023D4
:1004340010005B0318401A423ED00124012314AA81
:10044400C532FF320020138085A908F0EBF8002C98
:100454003AD0DC2714AB9B46464BFF000993029627
:1004640001200021404208F051F940235A4600215E
:10047400002008F099FE81465E46D9440028EFD05A
:100484003D4B3E4C9846029D07E0511C29513C4986
:10049400AA1853540136B145E2D03378F02B1ED05C
:1004A400EA5D002A20D0F72B76D02A596F2AECD99E
:1004B40001234246AB54EDE7022314AAC532FF32AE
:1004C400138085A90AF0B6F90120002140420AF000
:1004D40069FC0120002140420AF064FCF4E7002397
:1004E4002B510133EB53D5E7F72BD3D859B200295D
:1004F40001DA00F0CCFD234AA85C0F2201009143ED
:1005040000910100103201909143802902D0009A99
:10051400E02ABFD19522920094466046AA5C511C01
:10052400C9B229541848AA1813540129B2D900236E
:100534006246AB54154B0199EA5C0F230B4093427E
:10054400A8D1009B2A5C902B01D100F0A7FD802B41
:1005540001D100F0A7FD0E4BEB5CDB0113430D4A08
:100564009B1897229200AB5094E7C046D4F9FFFF42
:1005740060FA0020C4000120E1060000DC0600004F
:100584006C060000510200005202000062020000EA
:100594005302000000E0FFFF0023EB554346EB5CF1
:1005A400002B00D076E7FC4BEB58052B00D871E705
:1005B400FA49FB4A6958914200D06BE7CE22D20037
:1005C400AA5C332A00D065E7F64AAA5C9246033A4D
:1005D400012A01D800F07CFD5246013A012A00D9D3
:1005E40058E7672B00D055E7EF4B14AAEB5C423277
:1005F400129300231380FE22EC4B9201EB5CDB018F
:100604001340EB4AA95C7F220A4013438022520123
:10061400934201DB00F05FFE9BB20B93E54BFE219E
:10062400EA5CFE23D2019B011A40E34B4903EB5CD5
:100634009B030B401343E14AA95C7F220A40134306
:10064400DF4A0193934201D900F042FE019B002B43
:1006540001D100F039FEFE210B9A14AB40331A800D
:10066400019BD84A2593AA5C8901D2010A40D12171
:10067400C900685C7F2101400A43802149018A4204
:1006840001DB00F01EFE93B2CF4A0C93A95CFE225C
:10069400FE209201C9011140CC4A4003AA5C920396
:1006A40002400A43CA491300685C7F2101400B439E
:1006B400C34903938B4201D900F000FE039B002B36
:1006C40001D100F0F7FD002114AB4A331980483101
:1006D40014AB5B180C991980039BBE492793685C83
:1006E400FE21C00189010840BB496B5C7F219C4607
:1006F40063461940014380204001814201DB00F040
:10070400D6FD8BB2D2210D93C900685CFE21FE2375
:100714008901C0010840B1495B03695C8903194040
:100724000143AF482B5C7F209C466346184001433D
:1007340008000491A249884201D900F0B5FD049B48
:10074400002B01D100F0ACFD002114AB5233198011
:10075400503114AB5B180D991980049BA14929935E
:10076400685CFE21C001890108409F496B5C7F21C0
:100774009C4663461940014380204001814201DBCD
:1007840000F08BFD8BB299490E93685CFE21FE2329
:100794008901C001084096495B03695C89031940DB
:1007A400014394482B5C7F209C46634618400143D8
:1007B400080005918249884201D900F06BFD059B30
:1007C400002B01D100F062FD002114AB5A331980D3
:1007D400583114AB5B180E991980D321059BC900BD
:1007E4002B93685CFE21C0018901084082496B5C3F
:1007F4007F219C4663461940014380204001814289
:1008040001DB00F040FD8BB27C490F93685CFE2154
:10081400FE238901C001084079495B03695C8903AF
:100824001940014377482B5C7F209C46634618405F
:100834000143080006916249884201D900F020FD75
:10084400069B002B01D100F017FD002114AB62338D
:100854001980603114AB5B180F991980069B6A49A3
:100864002D93685CFE21C0018901084067496B5CD7
:100874007F219C4663461940014380204001814208
:1008840001DB00F0F6FC8BB261491093685CFE2139
:10089400C00189010840D421FE23C900695C5B03BF
:1008A4008903194001435B482B5C7F209C466346C7
:1008B40018400143080007914149884201D900F0DA
:1008C400D5FC079B002B01D100F097FC002114AB51
:1008D4006A331980683114AB5B1810991980079B2F
:1008E4004D492F93685CFE21C001890108404B49A2
:1008F4006B5C7F219C466346194001438020400184
:10090400814201DB00F076FC8BB245491193685CAF
:10091400FE21FE238901C001084042495B03695C52
:1009240089031940014340482B5C7F209C46634661
:1009340018400143080008912149884201D900F078
:1009440056FC089B002B01D100F04DFC002114AB98
:1009540072331980703114AB5B1811991980089B9C
:1009640032493193685CFE21C00189010840304955
:100974006B5C7F219C466346194001438020400103
:10098400814201DB00F02CFC0A912A49FE23685CB9
:10099400FE21C00150E0C046DC0600006C060000E9
:1009A4007D43315A7106000072060000840600007F
:1009B4008306000086060000870600008506000006
:1009C40000EE0200890600008B0600008C06000081
:1009D4008A0600008E0600008D06000091060000C5
:1009E4008F060000930600009206000095060000A2
:1009F4009606000094060000970600009A06000080
:100A04009B060000990600009D0600009C0600005D
:100A14009F0600009E060000A2060000A10600003A
:100A2400A4060000A5060000A3060000A706000017
:100A3400A6060000A906000089010840F1495B03ED
:100A4400695C890319400143D520C0002B5C7F20D9
:100A54009C4663461840014308000091EA498842D5
:100A640000D9BBE3009B002B00D1B4E3002114ABFD
:100A74007A331980783114AB5B180A991980009B7A
:100A8400E2493393685CFE21C00189010840E049D2
:100A94006B5C7F219C4663461940014380204001E2
:100AA400814200DB95E3FE20FE231391D9494003E4
:100AB400695C9B0189030140D748285CC001184048
:100AC4000843D6496B5C7F219C4663461940014329
:100AD400CD48814200D97AE3002900D175E300238F
:100AE4009C4614AA4033D21842206346135202385B
:100AF40014AA1318139A3591C9491A52685CFE2135
:100B0400C00189010840D621C9006B5C7F219C4645
:100B140063461940014380204001814200DB52E3D7
:100B2400FE20FE231391BF494003695C9B018903A6
:100B34000140BD48285CC00118400843BB496B5CB8
:100B44007F219C46634619400143AF48814200D946
:100B540037E3002900D132E300239C4614AA403332
:100B6400D2184A206346135214AA4033D318139A56
:100B740037910238AE491A52685CFE21C0018901DE
:100B84000840AC496B5C7F219C4663461940014395
:100B940080204001814200DB0FE3FE201391A6492F
:100BA4004003695CFE2389030140D720C000285C10
:100BB4009B01C00118400843A0496B5C7F219C46FF
:100BC4006346194001439048814200D9F3E2002969
:100BD40000D1EEE200239C4614AA4033D2185220DE
:100BE4006346135214AA4033D318139A3991023826
:100BF40093491A52685CFE21C00189010840914959
:100C04006B5C7F219C466346194001438020400170
:100C1400814200DBCBE2FE20FE2313918A4940038C
:100C2400695C9B01890301408848285CC001184025
:100C3400084387496B5C7F219C4663461940014306
:100C44007148814200D9B0E2002900D1ABE200230F
:100C54009C4614AA4033D2185A2063463B91D821AB
:100C6400135214AA4033D318139A02381A52C900E3
:100C7400685CFE21C0018901084076496B5C7F21D4
:100C84009C4663461940014380204001814200DBB9
:100C940087E2FE20FE2313916F494003695C9B01A8
:100CA400890301406D48285CC001184008436C4921
:100CB4006B5C7F219C466346194001435248814244
:100CC40000D96CE2002900D167E200239C4614AAF3
:100CD4004033D21862206346135214AA4033D31807
:100CE400139A3D9102385F491A52685CFE21C00193
:100CF400890108405C496B5C7F219C46634619402E
:100D0400014380204001814200DB44E2FE20139134
:100D140056498001695CFE23C9010140D920C00005
:100D2400285C5B0380031840084351496B5C7F21B6
:100D34009C466346194001433348814200D928E266
:100D4400002900D123E200239C4614AA4033D21880
:100D54006A206346135214AA4033D318139A3F915E
:100D6400023844491A52685CFE21C00189010840D6
:100D740041496B5C7F219C466346194001438020B6
:100D84004001814200DB00E2FE20FE2313913B4937
:100D94008001695C5B03C90101403948285C800318
:100DA4001840084337496B5C7F219C4663461940D1
:100DB40001431548814200D9E5E1002900D1E0E171
:100DC40000239C4614AA4033D2187220634613525F
:100DD40014AA4033D318139A419102382A491A525B
:100DE400685CFE21C0018901084028496B5C7F21B1
:100DF4009C4663461940014380204001814200DB48
:100E0400BDE145E0AA06000000EE0200AC060000C9
:100E1400AB060000AF060000AE060000AD06000001
:100E2400B1060000B4060000B3060000B2060000DC
:100E3400B6060000B5060000B9060000B7060000BB
:100E4400BB060000BA060000BE060000BD06000096
:100E5400BC060000BF060000C3060000C206000076
:100E6400C1060000C5060000C4060000C706000055
:100E7400C6060000CA060000C9060000CC06000031
:100E8400CD060000CB060000CF060000CE06000011
:100E9400FE20FE231391DB498001695C5B03C901D9
:100EA4000140D948285C800318400843DA21C9006E
:100EB4006B5C7F219C46634619400143D3488142C1
:100EC40000D95AE1002900D155E100239C4614AA17
:100ED4004033D2187A206346135214AA4033D318ED
:100EE400139A02381A520B9A0C9B4391111C9A4282
:100EF40000D23EE10D9B88B2984200D237E10E9BAE
:100F040088B2984200D230E10F9B88B2984200D256
:100F140029E1109B88B2984200D222E1119B88B249
:100F2400984200D21BE10A9B0B4399B2002901D1DC
:100F3400FFF7B0FA039A019B9B18049A9B18059A31
:100F44009B18069A9B18079A9B18089A9B18009A54
:100F54009B18F0229200934201D2FFF79BFA0723D9
:100F6400129A24A91A409923D0019B0028180092B0
:100F7400C018802206F0B4FC009AA549AB185B188F
:100F8400012119701300D8220933FF32AB54EB232B
:100F940000225B00EA545346022B01D0FFF77AFA91
:100FA4009C4A002185A806F095FC9B4B85939B4B9E
:100FB400869300231A000999C95C002903D00121F2
:100FC40099400A43D2B20133082BF4D114ABCD3388
:100FD400FF331A70924680229149D20089A806F004
:100FE4007FFC904A85A90B7814A85A4013049B18D7
:100FF4005B009B18DB009B18DB009B185B009A18B6
:10100400894B01311B188B42EDD103008221C5337A
:10101400FF33C9005A50854B7F4A1868904200D16B
:1010240070E1EFF3108A72B68021FF20490140037A
:101034000CF06CF80023009385AB013B04930195FD
:101044008022FF21520044A806F044FC009A78490B
:10105400049D891AAD180222FF3201239446039697
:1010640007E0EA5C14AEBF36F2540133634500D1A5
:1010740034E19942F5D180226E48520044A9039E7E
:10108400019D0CF08BF88AF31088FFF703FA6A4984
:101094006B5495239B00EA54FFF7FCF9674BEB5C18
:1010A400002B49D196239B00EB5C934201D0FFF7C0
:1010B400F1F9D823FF33EB5C002B4AD0EB235B0020
:1010C400EB5C002B45D001225D4BEA54FFF7E2F9BB
:1010D4000B2B01D0FFF7DEF95A49FE22685C7F2111
:1010E400594B9201EB5C0840DB01134003439A46E1
:1010F4000F235648285C1840554BEB5CDB011A4023
:10110400544BEB5C9C46634619400A438021090119
:101114008A421CDC832189006A50534680221201D2
:10112400934212DC84229200AB504B4BE854FFF7FD
:10113400B1F90224FFF782F948496A54484AAB548A
:101144000122484BEA54FFF7A5F91300EAE70A0025
:10115400E0E7982300229B00EA54FFF79BF9191C4F
:10116400E1E6191CDAE6191CD3E6191CCCE6191CB5
:10117400C5E6191CBEE60131A7E60100A5E63A4919
:1011840086E601311CE601001AE63749FCE5013127
:10119400D9E50100D7E53449B8E5013195E5010009
:1011A40093E5314975E5013151E501004FE52E49DB
:1011B40031E501310EE501000CE52B49EDE4013187
:1011C400CAE40100C8E42849AAE4013187E4010023
:1011D40085E4254967E40133009347E4009145E43D
:1011E4002149FFF7D1FB01330893FFF7AFFB0891C7
:1011F400FFF7ACFB1C49FFF787FB01330793FFF7AD
:1012040065FBC046D1060000D206000000EE0200D5
:1012140064060000140400004E4531430100140428
:10122400C4FC0020C59D1C81D405000000E01F10F3
:101234001504000000E41F005102000053020000E6
:1012440061020000740600007506000076060000C6
:1012540073060000720600006202000055020000DE
:101264005602000057020000FF0F00000791FFF72D
:101274002DFB3B49FFF707FB01330693FFF7E5FA24
:101284000691FFF7E2FA3649FFF7BDFA01330593F9
:10129400FFF79AFA0591FFF797FA3149FFF772FAC7
:1012A40001330493FFF750FA0491FFF74DFA2C49E8
:1012B400FFF727FA01330393FFF705FA0391FFF7CA
:1012C40002FA274AFFF7DFF901330193FFF7C3F965
:1012D4000192FFF7C0F9224BFFF79EF9FF2380220A
:1012E400009D5B03E818520044A9039E0BF056FFCF
:1012F400A0230135FF350095DB009D4200D09FE619
:10130400019DC0E69A88012A00D08AE6154AD88849
:10131400904200D085E6144859588446134A1878F8
:10132400013342406046424311488342F7D191421F
:1013340000D076E60F4B1B7A534500D071E60200CD
:101344000D4B04E00133934201D1FFF7A3F80B489E
:1013540014A90918C85C19788842F3D061E6C0461C
:10136400FF0F00001404000093010001C59D1C81BF
:1013740010E41F1000E01F1010E01F10C421E0EF64
:1013840010B5024B18680BF097FA10BDC804012081
:1013940070B5D02501220021072004F065FD01224B
:1013A4000021062004F060FD0122002105202D0605
:1013B40004F05AFD0120002105F0D2FB6A686C6834
:1013C4006B6864069B06E40FDB0F1B01A4001C433F
:1013D4001306DB0F0022012107201C4304F044FD07
:1013E40000220121062004F03FFD002201210520F6
:1013F40004F03AFD0120002105F0B2FB69686A6837
:1014040009066B68C90F52064900D20F9B060C43AC
:10141400D200DB0F5B0100210720144301221C438F
:1014240004F022FD01220021062004F01DFD64B217
:1014340001220021052004F017FD2A2C05D0302CB0
:1014440003D0FF200C2C00D070BDE0B2FCE7C046F6
:10145400F0B54E46DE4657464546E0B543182433BC
:101464001B7885B0994601900291002B00D129E2A6
:1014740080468B0003935B181B01984444462C2040
:10148400205606F01FF9DB4906F0E5F84546041C32
:10149400A86A06F017F9211C051C201C06F0DBF8CD
:1014A400211C061C281C06F0D6F84A46071C012AF3
:1014B40000D1A1E142463420105606F003F9CD498B
:1014C40006F0C9F842468246106B06F0FBF8514616
:1014D4008346201C06F0A8F85946041C281C06F074
:1014E400A3F85146051C504606F0B5F8011C301C03
:1014F40006F09AF85146061C584606F0ACF8011C52
:10150400381C06F091F84A46071C022A00D173E100
:1015140042463C20105606F0D5F8B64906F09BF832
:1015240042468246906B06F0CDF851468346201C15
:1015340006F07AF85946041C281C06F075F8514642
:10154400051C504606F087F8011C301C06F06CF8A8
:101554005146061C584606F07EF8011C381C06F05D
:1015640063F84A46071C032A00D145E14246442059
:10157400105606F0A7F89F4906F06DF842468246D9
:10158400106C06F09FF851468346201C06F04CF878
:101594005946041C281C06F047F85146051C5046C1
:1015A40006F059F8011C301C06F03EF85946061C9A
:1015B400504606F050F8011C381C06F035F84A462F
:1015C400071C042A00D117E142464C20105606F0AD
:1015D40079F8884906F03FF842468246906C06F056
:1015E40071F851468346201C06F01EF85946041C27
:1015F400281C06F019F85146051C504606F02BF835
:10160400011C301C06F010F85946061C504606F022
:1016140022F8011C381C06F007F84A46071C052A64
:1016240000D1E9E054234246D05606F04BF8714904
:1016340006F011F842468246106D06F043F8514612
:101644008346201C05F0F0FF5946041C281C05F0B5
:10165400EBFF5146051C504605F0FDFF011C301CF4
:1016640005F0E2FF5946061C504605F0F4FF011C44
:10167400381C05F0D9FF4A46071C062A00D1BBE0F6
:1016840042465C20105606F01DF85A4905F0E3FF67
:1016940042468246906D06F015F851468346201C5A
:1016A40005F0C2FF5946041C281C05F0BDFF514635
:1016B400051C504605F0CFFF011C301C05F0B4FF9B
:1016C4005946061C504605F0C6FF011C381C05F09F
:1016D400ABFF4A46071C072A00D18DE0424664202E
:1016E400105605F0EFFF434905F0B5FF4246824628
:1016F400106E05F0E7FF51468346201C05F094FF69
:101704005946041C281C05F08FFF5146051C504601
:1017140005F0A1FF011C301C05F086FF5946061C8C
:10172400504605F098FF011C381C05F07DFF4A4621
:10173400071C082A60D042466C20105605F0C2FFF0
:101744002C4905F088FF42468246906E05F0BAFFA8
:1017540051468046201C05F067FF4146041C281CA6
:1017640005F062FF5146051C504605F074FF011C4C
:10177400301C05F059FF4146061C504605F06BFF2E
:10178400011C381C05F050FF4A46071C092A33D0B7
:10179400019A02989046039B1B181B0198444346E8
:1017A4007420185605F08EFF124905F054FF434685
:1017B4008246186F05F086FF51468046201C05F0CE
:1017C40033FF4146041C281C05F02EFF5146051C1E
:1017D400504605F040FF011C301C05F025FF414632
:1017E400061C504605F037FF011C381C05F01CFF91
:1017F400071C01E0CDCCCC3D484605F063FF311C0D
:10180400804605F028FF211C061C201C05F023FF40
:10181400011C301C05F005FF0021061C05F04AFFE1
:10182400002841D1391C404605F015FF211C071C36
:10183400281C05F010FF011C381C05F0F2FE311CB9
:1018440005F0F5FE211C061C05F005FF011C281CF3
:1018540005F0E7FE414605F0EAFE1C49041C301C75
:1018640005F0F9FEFC21890505F0DEFE05F04CFFCC
:10187400FC2181468905201C05F0D6FE05F044FFB5
:10188400029B019A1B01D3181A00C83216605460D7
:101894004946D02299500432985005B0F0BCBB465A
:1018A400B246A946A046F0BD4146281C05F0BFFE3D
:1018B400FC218905041C05F0B7FE05F025FF002373
:1018C4009946DDE700200026014CD9E7ABAAAA3FE0
:1018D4000000C07FF0B5454657464E46DE4603003D
:1018E400E0B52433A1B00200059303232832140089
:1018F40000259846EC27CA4E069007924246059B5F
:1019040029005A5500232373C64B2771A36014235F
:101914002375C54B266023610698FFF799FD6B1C60
:1019240050340125022BE9D1133304AA991800205D
:10193400FEF71EFD152304AA991804020120FEF7E0
:1019440017FDBA4B04439C4200D060E1162304AA5D
:101954009B189A4617239B189846B54B00249B4620
:10196400FF2300279946B34E0AAD1BE005F098FA11
:1019740080197941002902DA0120AF49404200234D
:10198400029003910093524650215846013306F0C9
:101994008BFC002820DD53461B7801342B70013565
:1019A400582C1FD053464A461A7043461C7005F003
:1019B40077FA80197941002902DA01209E494042D0
:1019C400002302900391009342465021584601336C
:1019D40006F04AFC0028C9DC002301342B700135D1
:1019E400582CDFD10AA8954B954956300AAA20E015
:1019F4005B001CB2002C27DB5C0023B2002B28DB2D
:101A0400640023B2002B29DB640023B2002B2ADB01
:101A1400640023B2002B2BDB640023B2002B2CDBED
:101A2400640023B2002B2DDB630001329BB2904291
:101A34002ED01478240263401CB2002CD8DA64003F
:101A44004C4024B2231ED7DA64004C4023B21C1E3F
:101A5400D6DA5B004B401BB21C1ED5DA5B004B4050
:101A64001BB21C1ED4DA5B004B401BB21C1ED3DA23
:101A74005B004B401BB21C1ED2DA5B004B401BB216
:101A84001C1ED1DA5B004B4001329BB29042D0D194
:101A9400562204A918318A5A52BA92B29A4200D0F4
:101AA400B5E000262427079DB0460BAC13AE414693
:101AB4002378059A5354002B00D199E0A278E17859
:101AC400120609040A4361790A43217909020A4387
:101AD40061782A602971012B00D189E0E279217AA9
:101AE400120609040A43A17A0A43617A09020A43E5
:101AF400A179AA602973022B7AD0227B617B12061A
:101B040009040A43E17B0A43A17B09020A43E17AFF
:101B14002A612975032B6BD0627CA17C120609040F
:101B24000A43217D0A43E17C09020A43217CAA611C
:101B34002977042B5CD0A27DE17D120609040A43B7
:101B4400617E0A43217E09020A43617DE9552A62C6
:101B5400052B4DD0E27E217F120609040A43A17FA2
:101B6400A07E0A43617F09020A432C216854AA62B9
:101B7400062B3DD032787178120609040A43F178B5
:101B8400E07F0A43B17809020A43342168542A6386
:101B9400072B2DD07279B179120609040A43317AE0
:101BA40030790A43F17909020A433C216854AA6353
:101BB400082B1DD0B27AF17A120609040A43717B0C
:101BC400707A0A43317B09020A43442168542A6427
:101BD400092B0DD0F37B327C1B0612041343B27C19
:101BE400B17B1343727C120213434C22A954AB649D
:101BF40041460698FFF72CFC4346012229349046BF
:101C040050352936012B00D051E7002000E0012097
:101C140021B0F0BCBB46B246A946A046F0BDC046C2
:101C2400344E050050FC030040A90200D107000017
:101C340080F1002010270000FFFFFF7FFFFF00005E
:101C440021100000F8B5CE464746002580B50700B0
:101C5400EE4B1022036000210561C560856045607C
:101C64000562C56185614561F83005F033FE842362
:101C740038005B00FD520D30023308220021FD5272
:101C8400FF3005F027FE80238A221B015200BB523D
:101C94000232BB5238008C2300245B001D30FC54FC
:101CA4000021FE3AFF3005F015FE380035300622DB
:101CB4000021FF3005F00EFEB5235B00FC543E23EB
:101CC4000822FF33FC54D24B01261A60E022D14B88
:101CD400D2011B681340D04A13609D235B00FC545F
:101CE400063BFC543623FF33FC540133FC543823A5
:101CF400FF33FC540133FC543A23FF33FC54C74BE9
:101D0400C74C9846237804219946180004F094F8A7
:101D14004B460421581C04F08FF84B464A465B0896
:101D24001F2A00D9AAE107221A4093009B18BD4933
:101D3400BD4A9B009A18591815600D60BB49591883
:101D44000D60BB495B18414619601023536016604F
:101D54002378013359081F2B00DD8BE107220A4049
:101D640093009B18AF49B04A9B009A185918156004
:101D74000D60AE4959180D60AD495B1841461960B4
:101D840010235360166023785A081F2B00D938E1BA
:101D9400072111408A005218A44992005118096879
:101DA40040468C463100194049424140604601405A
:101DB400A0480133121811605A081F2B00DD1CE1E2
:101DC4000721114040468A00521898499200511840
:101DD400334009685B4243400B4096490234521831
:101DE4001360954B9C428DD105F0A8FF1F211B2049
:101DF40004F022F8002200211B2004F035F8002111
:101E04001B2004F043F81F211A2004F015F80022C7
:101E140000211A2004F028F800211A2004F036F8D2
:101E24001F211C2004F008F8002200211C2004F0CB
:101E34001BF800211C2004F029F81F211D2003F0A9
:101E4400FBFF002200211D2004F00EF800211D20BC
:101E540004F01CF8182004F02BF8192004F028F8DA
:101E6400D024802324065B04636280239B04636282
:101E7400082004F01DF880235B006362092063617D
:101E840004F016F880239B0063620220636104F06F
:101E94000FF804230022A3620121022003F0E4FFCF
:101EA400032004F005F80823644DA36200220121F5
:101EB400032003F0D9FF2800614905F09BFF0222AB
:101EC400904641466B68122013405E4A11600F220F
:101ED400296810255140C0320A405B490A605B4AB8
:101EE4000121136003F0A8FF0121132003F0A4FFD4
:101EF4000121152003F0A0FF0421172003F09CFF0B
:101F04000421162003F098FF0022474B5049DA635E
:101F14005A649A64D9641D64DE63DA635A649A6409
:101F2400D9641D64DE63FA234A499B040A680720C6
:101F340053401B0C484A1B041360FA2309689B0096
:101F44004B401B041B0C136003F0B2FF062003F08C
:101F5400AFFF052003F0ACFF8023A362403BA362E4
:101F6400203BA362142003F0A3FF002200211420CD
:101F740003F07AFF042003F09BFF65623749A561F3
:101F8400374806F049F90321102003F055FF0321D7
:101F9400112003F051FF002003F08AFF6662012044
:101FA40003F086FF434638006362FFF7F1F9F0233C
:101FB400F8543800FFF78EFC9F23464001205B0055
:101FC4003040F854563B9846B844404605F01EFE4F
:101FD40014264346234C244D03CB244A244B05F0BA
:101FE40003FB013E00196941002EF6D1434603C3A9
:101FF4003800C0BCB946B046F8BD032111400831D1
:10200400E0E6032111400831C4E6C0460CE000209C
:1020140000F0044000C0044000D00440FFFF000072
:10202400D0E4002008000540000005400C000540F5
:10203400100005400C100540D6E4002000C0034009
:10204400286BEE0004F0034000D0034004E003409A
:10205400CF0700004800054048100540A086010055
:1020640080F100204F8167F77E7B05142D7F954C0E
:102074002DF4515803220A40083271E603221A4013
:10208400083252E6F0B54546DE4657464E461C0039
:10209400D823E0B58BB00191FF33C35C05009046B3
:1020A4000393002B16D0EB235B00C25C002A11D0F3
:1020B400039B082B00D8B4E0093BDBB2072B06D8FE
:1020C400C118D048095C002901D000F0E0FDCE4BD6
:1020D4009A46ACE0E42300225B00EB580492984457
:1020E40080235B0198455FDBC84B9846159B01999B
:1020F4005B100293B62389465B00EA584746914435
:102104004A46EA50159B012B55DC7F433B0B069353
:102114004B469B0D5A000133BD4F9B055B0DBA5EC8
:10212400F95E4B469B02891A9B0D4B43E1009B12BF
:102134009B18091B9A460B0B0905090D9B460B00BE
:102144004B431B0B5A00D2184B431B0B5B00D31A97
:1021540000934B461E0DAF4B9C46B4446346059317
:102164004B46002B56DBAB4B7F2E01D800F0F7FB20
:102174005246D21094464A465400A20D51000132F0
:102184009205520D795EBA5E0794A402521AA40D08
:1021940054435A46A4126418062A01D900F0D6FC06
:1021A4009D4992008A5897464346DB434246DB17D3
:1021B4001A4090469AE7D82280215200AB588900F1
:1021C4000133AB508B4200D388E0DA235B00EF5835
:1021D4000433EE588022029952010B00914200DB35
:1021E4008A4B5B431B0B9800C0184000C018142195
:1021F40005F044F980234743BF1247445B019F42E3
:1022040004DB824F8011704381447EE7FB43DB177C
:102214001F40F7E7059B7F2B01D800F090FD7F4B13
:10222400A6E7013B7E49DBB29B005B589A46EA2352
:102234005B00EE5CD623FF33EB5C9946072E01D995
:1022440000F0F3FBF30053445F68002F78D0DE21E5
:1022540049006A5801326A501988E6235B00EB583A
:102264000491C81A504339000293009205F006F90C
:10227400029B009AC018E2235B00E850974245D9BC
:102284004B46072B01D900F041FD53460022403351
:102294004946C9005B185968002900D10131E0277B
:1022A4007F00E8590130E8511B88814200D8C2E31D
:1022B400E8225200AF58DB1B584305F0DFF8E42254
:1022C400C3195200AB50E2225200A8588022520196
:1022D400904200DA47E34D4A049200E70023D621F6
:1022E4005048AB508446DA2049006A584E4B4000AF
:1022F4005A4362445343170E6344803F2F501E0ECB
:102304006B50DC23803E5B00EE5063E7EA220499C5
:102314005200E950731CDE20DBB2AB5400224000B3
:102324002A50CD32FF32A9504A46072A01D900F07B
:10233400E4FC083B5A425341DAB253464033A7E720
:10234400013784E70122059C0792009A1B1B534323
:102354005246D4461B1306991B199B1A4B431B1355
:102364009C4481239B00EA58019813005343DB12D9
:1023740043431B13E246C118002A00DAC11AB823EA
:102384005B00EE588E19EE50029B002B00DDF0E24C
:1023940043465B431B0B0293B30D5A0001339B0569
:1023A4005B0DBA5EF95EB302891A9B0D4B439B1217
:1023B4009B180193330D9946164B4B440593002EFD
:1023C40000DA0AE34B4613497F2B00D857E3019BFD
:1023D400DB1098467000830D5A0001339B055B0D9A
:1023E400BA5EFB5E84029B1AA40D5C435B46A41296
:1023F4000690A418062B00D956E30C4A9B00D35828
:102404009F46C0466406000050E00020FF0F000015
:10241400D8E4002000F8FFFF58DF0020FF07000089
:10242400E4DF00205FF36E3C0D66190074DF0020CA
:102434004B46B84AD21A069B9B195B00980D410083
:1024440001308005400D795E385E9B02401A9B0D79
:1024540043439B125B1853431B1398460599AE4B99
:102464004A4352139044984500DA984680231B014E
:10247400984501DBA94B98464B467F2B01D800F0C9
:10248400F6FB80231B01994501D200F0F0FB4A467C
:10249400A04B51009B1AA24A5B00521AB400A41923
:1024A400A00D410001308005400D795E385EA40224
:1024B400401AA40D4443A41264185C4353432413E8
:1024C4009B13E418944B9C4200DA1C0080231B01EC
:1024D4009C4200DB914C4346009AE31A5343019A11
:1024E4001B13029943449B1A4B431B139B188222D0
:1024F4001C0080219200AA580901544324138A42E3
:1025040000DA0A00534352461B135343824A9B1278
:10251400934200DA130080221201934200DB7F4BC6
:102524005146149A14981201121A12025B1A1213C9
:1025340053431B135E18039B002B00D156E2BA22AF
:102544005200AB58002B00D14EE2013B1803AB50B4
:10255400C01A602104F0BAFF6E4B181A049B6E4A2D
:1025640058430013444370430313934200DA1300A7
:1025740080221201934200DB684BF222AB52664B7D
:1025840024139C4200DA1C0080231B019C4200DBC4
:10259400624CF423EC520BB0F0BCBB46B246A946E5
:1025A400A046F0BD0322230007926446CDE64B46C5
:1025B4007F2B00D8BFE3059B7F2B00D8CDE3019B85
:1025C4008846DC1087E74B467F2B00D8A9E3059BA0
:1025D4007F2B00D8CAE3079B062B00D9D3E3514ACB
:1025E4009B00D3589F464B465A0080231B019945B4
:1025F40000D320E3484B9C469444B3009B199C0DA4
:1026040060000134A405640D385E3C5F9B02241A0B
:102614009B0D63439B121B18534361461B1398463F
:102624004A433D4B92139044984500DA98468023E0
:102634001B01984501DB394B9846F3009E1BB20DF4
:1026440094465100785E990D4C0001318905490D7D
:102654003C5F795E624601329B0292059B0D091B29
:10266400520D5943BA5EB302121A9B0D5343891299
:1026740009199B121B184910CE184B4676107F2B54
:1026840000D853E2C0239B00994500D24EE2C023F8
:102694001B01994500D214E34B461803181A224B28
:1026A4002249C01804F0EAFE041147E2902109010E
:1026B4008E4200D348E33003801B04F0DFFE154B49
:1026C400164C181A40430013241A079A114B4A4413
:1026D4005200900D410001308005400D9B1B795E36
:1026E400385E9202401A920D424392125218059992
:1026F4005A434B4312135B13D318074A934200DA2D
:10270400130080221201934200DB044B052207923E
:102714001BE6C046FF0F000000F8FFFFFF070000A4
:10272400FF17000090DF002001E0FF00FF0300001E
:10273400079BD4484B445B00990D4A00013189053D
:10274400490DBA5E795E9B02891A9B0D4B43059C29
:102754009B12801B9B18434344431B1364131C1993
:10276400C94B9C4200DA1C0080231B019C4200DB05
:10277400C64C802372001B019E4200D257E2C4491A
:102784008B1A9C4642004B469B004B449E0D7000A6
:102794000136B605760D385EBE5F61469B02361A79
:1027A4009B0D73439B121B1853434A431B139213F1
:1027B4009B18B54A934200DA130080221201934217
:1027C40000DBB24B06220792BFE5902109018E423D
:1027D40000D217E204230793AB4BB6E57F2E00D853
:1027E40099E2059A1C007F2A00D8BAE253460222D5
:1027F400DB100792A9E590210901894500D3A9E2DC
:102804004B461803C01A04F039FE9E4B181A404375
:102814009E4B00131B1A98464A469A4B9B1A069ADB
:1028240094196400A10D4A0001318905490DBA5E6D
:10283400795EA402891AA40D4C43A412A418059A23
:102844005C43534324135B13E4188F4B9C4200DB1B
:102854003CE63AE64B467F2B04D990231B0199456D
:1028640000D373E24B4690211803C01A090104F007
:1028740005FE844BA046181A4043844C0013241AC6
:1028840029E6802372001B019E4200D3C8E17E4BDF
:10289400D31807934B469B004B449C0D60000134B6
:1028A400A405640D385E3C5F241AA4469C0263466A
:1028B400A40D5C43079BA412241854435A432413C5
:1028C4009213714BA4189C4200DA1C0080231B0154
:1028D4009C4200DB6D4C4B464A46DB009A1A910D34
:1028E40048000892385E07918446980D4200BA5E0B
:1028F400013091468005400D385E4A4607999B0297
:10290400013189059B0D801A490D5843795E634650
:10291400C91A089B80129B029B0D4B4348449B128F
:1029240063444010C018431099467F2E00D851E1EB
:10293400059B7F2B00D8C7E1C0239B009E4200D299
:1029440048E1C0231B019E4200D2BDE1514B30033C
:10295400301A5149C01804F091FD021141E14B4A6B
:102964009446FFF708FCC243D21710400490FFF7C7
:10297400B6FBD82280215200AB5889000133AB50FA
:102984008B4236D2DA235B00EB589946DC235B009A
:10299400EC58802302985B01984200DB394840439D
:1029A400000B83001B185B001818142104F066FD4B
:1029B4004B4643439B12984480235B01984505DBB7
:1029C400304B9846801144433619E1E44346DB43D7
:1029D4004246DB171A409046F4E72C497F2B00D976
:1029E400F5E4294B9846F5E42648B7E5254B0493CE
:1029F400A5E500238020AB50D622284940428C46CE
:102A040081465200AB58264C63436344190E8944F3
:102A1400DA2148465C43DC23644449006850AC50E6
:102A2400240E803C5B00EC50B3E7072B17D85346C9
:102A34004033FFF72DFCE42149006B504946D62072
:102A44000131FF30C9B229540020E851D130FF30A0
:102A54002B50002A00D136E4082900D033E4EB22BD
:102A640000235200AB540F4AAA5C002A00D004E1B0
:102A7400C533FF33E8580433EB58FFF727FC034B07
:102A84009846A7E4FF0F000000F8FFFFFF070000CF
:102A9400FF17000001E0FF00FF0300005FF36E3C3E
:102AA4000D66190061020000C0218900894500D328
:102AB400D2E04B461803C01A04F0E0FC834603112D
:102AC4000593F3009E1BB20D5100795E01328C46D2
:102AD400990D4C0001318905490D3C5F795E9B02DB
:102AE4009205091B9B0D520D4B43BA5E6146584635
:102AF400B602521AB60D56439B121B19B6125B103E
:102B040066449E197610704300138046059B9844D2
:102B1400D44B984500DA984680231B01984501DB85
:102B2400D14B98464B467F2B00D9ABE54B46C02191
:102B34001803C01A890004F0A1FC04117043C94BA6
:102B4400001304199C4200DBC0E4BEE4C0218900E8
:102B54008E4278D23003801B04F090FC031108905D
:102B640009934B464A46DB009A1A910D4800079296
:102B74003C5E980D89464200BA5E0130944649464F
:102B84008005400D385E624601318905490D801A81
:102B9400795E079A9B029B0D9202091B4343920D97
:102BA4004A439B126344921212195B10089C9B18AF
:102BB4005B105C439946099B2413E418A94B9C427F
:102BC40000DA1C0080231B019C4200DBA64C7F2EF4
:102BD40000D9ADE6C0213003801B890004F04EFC0F
:102BE40002114B46584303139B189E4A934200DA42
:102BF400130080221201934200DB9B4B07220792B1
:102C0400FFF7A3FB3003801B04F038FC0422974B2E
:102C14000792181A4043944B00131B1AFFF795FBB5
:102C2400924B93499B1B8A1A07925A0032E68D4BAA
:102C34009C469444A7E549468C4B5B1A8C498A1AF6
:102C440094465A00D9E4C0231B019E422ED2FF238E
:102C54000993864B089384E7C0231B0199451ED230
:102C6400FF230593814B9B462BE7059B98464B46D8
:102C74007C4A5B009A18FFF711FC98229200AB542F
:102C8400E2235B00E8580433EB58FFF71FFB99215C
:102C9400DB0189005B18EB189A46FFF7C8FA4B462C
:102CA4001803181A734B7449C01805E7714B3003A5
:102CB400301AC018704904F0E1FB0311089009931D
:102CC4004FE7FF24694839E7FF22684889E7664CE3
:102CD400059B9846FFF7FFFB059B0C009846FFF702
:102CE400FAFB059B984697E5059CB6E5059B984637
:102CF400FFF7C7FB019BDC10EAE7082B00D1AEE627
:102D0400E4235B000800EB58FFF7E0FAE4235B00E0
:102D1400EB58FFF7DBFA1C0002230793524BFFF733
:102D240014FB079B062B00D979E0544A9B00D35827
:102D34009F46059C96E588464B4CFFF7CCFB494AD9
:102D4400494B9446FFF717FA464CBEE4A046454C5F
:102D5400FFF7C1FB434B98465EE58846414CFFF7BD
:102D6400BAFB022307933F4BFFF7EFFA079B062BAF
:102D74002ED8434A9B00D3589F46059B9846FFF79D
:102D840086FB384CA4E707227243910D4B00FB5E8F
:102D94009C46F300980D440001308005400D3C5FD3
:102DA400385E9B02001B9B0D43439E124B1C9B05EC
:102DB4005B0DF95E6346C91A93029B0D4B433619AA
:102DC4009B1263447610F618059B7610984659E4D6
:102DD40007227243910D4B00FB5E9C46F300980D55
:102DE400440001308005400D3C5F385E9B02001BAF
:102DF4009B0D43439E124B1C9B055B0DF95E634682
:102E0400C91A93029B0D4B4336199B1263447610E7
:102E1400F618059BFF249846144876108EE6072280
:102E24007243910D4B00FB5E01319C46F300980DFB
:102E34004400013040003C5F385E9B02001B9B0D48
:102E4400434349009E12795E6346C91A93029B0D5F
:102E54004B4336199B1263447610F618059B761083
:102E6400984663E600F8FFFFFF070000FF0F00002D
:102E7400FF17000001E0FF00FF030000ACDF0020AB
:102E8400C8DF0020F0B53F4BC9B000933E4BD822B9
:102E9400019381239B00C6580433C358FF32039324
:102EA4009C4600231900029604930593855CD03A4E
:102EB400FF3AAA4259416C464A4269461540334A90
:102EC400257663766383079307A80B7801315A400C
:102ED40013049B185B009B18DB009B18DB009B18FA
:102EE4005B009A188842F0D12949E261254B0A68AF
:102EF4009A421BD0E022FF2110A804F0EBFC202210
:102F0400210008A804F0ECFCEFF3108472B68021D1
:102F1400204849010AF0FAF880221E48520008A904
:102F24000AF03CF984F3108849B0F0BD8B88022B79
:102F3400E0D1CB88202BDDD1CB69144A1F00164881
:102F44000B7801315A4013049B185B009B18DB007B
:102F54009B18DB009B185B009A188142F0D19742C2
:102F6400C8D10B4B9A689642C4D1DA689445C1D152
:102F74001A69002ABED15A69002ABBD11B7EAB4212
:102F8400B8D1D1E7335A314302002000C59D1C81DA
:102F940000F01F1000F01F001CF01F10F0B5DE46FB
:102FA40057464E464546E0B55B4B0400C25C8BB0C9
:102FB400002A12D00021C154584BC25C0333C254BE
:102FC400574BC25C574BC25401220733C252D82319
:102FD400FF33C35C002B00D007E38A235B00E05A75
:102FE400083BE358F0211BB29B4688235B00E3585F
:102FF40049001BB207933C23FF33E35C00B2039305
:10300400F823E7580433E2580433E6585133049262
:10301400FF33E25C635C002B1FD1D933FF33984646
:10302400414DE358AB4216D84146013363503F4902
:103034008B4212D9039B002B00D1F0E2E223FF3331
:10304400E35C002B00D0F1E2394BE15C002913D1A1
:103054000131E15410E001236354E223FF33E55CC2
:10306400002D00D0E2E2324BE15C002968D0039BE2
:10307400002B01D101F024F901232E496354022AC3
:1030840001D100F04BFF03998A4200D094E39423CA
:103094009B00E154183BE35C002B01D101F06CF977
:1030A400F4235B00E750244AA35C002B01D000F01A
:1030B4000EFFED33FF33E1582C33049DE358EB1A34
:1030C400DD175B196B403F2B08DD049D6B1ADD1780
:1030D4005B196B40602B01DC00F0F7FE049117498B
:1030E400635C002B14D1F133FF33E2582C33E358E3
:1030F400F31ADD175B196B403F2B00DC9CE3B31A1A
:10310400DD175B196B40602B00DD95E301236354ED
:10311400F8235B00E6503BE0570200005502000034
:1031240056020000590200009F8C0000DF2E0000B0
:103134004E0200004F020000390200003A02000073
:103144000131E1540399002996D10022E54BE15263
:103154000233E254143B049AE7500433E25004333C
:10316400E6501033E1500833E152942300229B00CF
:10317400E254DD4BE35C002B01D001F029F8E93384
:10318400FF33E7580433E3580493F8235B00E6580D
:103194001C33E358994684239B00E3589A465621EE
:1031A4000003FF3104F06AF998239B00E35C0500F7
:1031B400002B01D000F001FC80235B019F4201DA67
:1031C40000F0EAFBC94B9800C018C849000304F09A
:1031D40055F94519E023DB019D4200DD1D00C44B78
:1031E4009D4200DA1D00EB171A05120D1B0D521932
:1031F400ED182D0512132D0D0892ED1A04D5802318
:10320400013A5B01ED1808926B005B199F120C21C7
:103214003803804604F032F9B64ABB009B582D1A95
:1032240009938023069040465B01C0180C21059247
:1032340004F024F90699411AE80304F01FF9059AE9
:103244007B1C9B009A58099B0021D21A5043C0133F
:10325400C018A94A002304F0C7F9089B4904C50B08
:103264004D19002B00DABBE39D4080239B00E358FB
:10327400002B05D0EA1A551201D101F05DF95D1950
:1032840080239B00E5505B465F00049BFF1880236E
:103294005B019F4200DAE9E2944F079B5B009E19B1
:1032A40080235B019E4200DADCE2904E80235B01C6
:1032B400994500DAD0E28D4B9B4680235B019A4509
:1032C40000DAC3E2894B9A46FC235B00E258D30040
:1032D4009B1A5B001B130233102B00D91023D0223E
:1032E4005200A350983AA25C002A00D13DE3852203
:1032F4005200A25CD1B2002A00D036E3A532FF32DC
:10330400A1500121FA2299405200A0584A1E049269
:103314007A4A821802D580221201121ABC20400077
:103324002058D21084460120614608408146D620A8
:10333400400021587248484372494018FF2A08DC6B
:10334400D243D2B2010E8A4203D9012261468A4392
:103354009146D6225200A05048460200013B9A40B2
:1033640063465B081A43BC2304995B000A40E2509D
:103374003033E054AA209307DB0FFF302354CC23CF
:1033840000205B00E0501003801A04F09FF88022B4
:103394005A4B9200C01843001B189B021B13981829
:1033A40080231B01984200DB5748C023BE225B00E8
:1033B400E0505200A1580B015B1A1B181B11A350BB
:1033C4000832A3500123CE225200A3504B46002BB7
:1033D40004D1AA23FF33E35C002B0CD0CC2252008F
:1033E400A3580133A3509622D200934203D9D42385
:1033F40000225B00E2520A23FF33E35C002B0CD073
:103404000C23FF33E35CDAB2002B06D1D823FF335D
:10341400E35C002B01D000F094FF534601935B461C
:103424003A002900009320003300FEF72BFEC0234E
:1034340080215B00E2580901131C12B28A4200DBAE
:10344400314B2E4A1BB2934200DA13002E482F4907
:10345400C31A5A01D21A9200D3180B60C2238025D2
:103464005B00E2582D01131C12B2AA4200DB031CBC
:10347400224A1BB2934200DA1300234AD21A5301A0
:103484009B1A9B009B184B60D4235B00E35C002BCE
:1034940000D08CE2D02380221B0652005A61AA235A
:1034A400FF33E35C002B00D07BE2D02380221B0699
:1034B40092005A61164B7F4398461B683F125F4047
:1034C4004346764313493F043F0C0F601868331298
:1034D4001B0443401B0C1B040B6082239B00E35A18
:1034E4001AE0C0463E0200004F020000FF0F000039
:1034F40000E0FFFF1CE00020314D590000F8FFFF01
:103504000D6619005FF36E3CFF070000B4F0002065
:103514007000054070100540D64E5B4330681B02B6
:103524001B0C4340D44D1B041B0C2B6083239B00BA
:10353400E35A30685B431B121B0443401B0C1B04FF
:103544002B6084239B00E35ACC485B4307681B022F
:103554001B0C7B401B04CA4F1B0C3B60039B002BC2
:1035640000D1AFE103681B0C1B043B6000231A006D
:1035740091239B00E2500833E252043B9C46E358FB
:10358400002B2BD06246013BA350DB04BD4CDB0F68
:10359400BD4A013B23409B1842465B4314681B12FF
:1035A4005C402404240C0C6012681C046240120C5D
:1035B40012040A6032685A401204120C2A603268FB
:1035C4006240120C12042A60026853401B041B0C54
:1035D4003B60036863401B0C1B043B600BB0F0BCF6
:1035E400BB46B246A946A046F0BDB6235B00C15017
:1035F4000433C1505F320433C25001224833C150F6
:103604000833C1500833C1500833C152143BC15070
:103614000833C1500833C1500633C254DDE4E223F9
:103624000121FF33E15403990133E1540023F221D2
:10363400635202316352954B954919605960D02306
:1036440080211B064900596149185961914BE05C7E
:10365400914BE55C914BE65C914BE35C9C46CD233E
:10366400DB00E15C8F4B8946E35C04938E4BE35CA7
:1036740005938E4BE35C06932B18F31863445B1895
:1036840004995B1805995B1806995B18190098460C
:1036940080230931C9B25B019F4200DB9AE0FB43FE
:1036A400DB173B404B431B0BDFB28F4200D298E049
:1036B40047460837FFB2082F01D100F00FFF3B0047
:1036C400093BDBB2002805D0002B01D100F013FF29
:1036D4000A3FFBB2002D05D0002B01D100F00EFFF4
:1036E400013BDBB2002E05D0002B01D100F014FF0A
:1036F400013BDBB26146002905D0002B01D100F06B
:103704007DFE013BDBB24946002905D0002B01D1E7
:1037140000F078FE013BDBB20499002905D0002BB0
:1037240001D100F003FF013BDBB20599002905D06C
:10373400002B01D100F0FDFE013BDBB2069900290C
:1037440001D100F087FC002B01D000F083FC102194
:103754000820D823FF33E154554B1B6855491B04FB
:103764001B0C0B600021524B1B684B401B0C514936
:103774001B040B600423034059424B414E495B42F6
:103784003C480B404D495B1801684B401B043A49C7
:103794001B0C0B60036839481B0C1B040B6003688B
:1037A40037491B041B0C0B600068454B43401B0C42
:1037B4001B040B6000F079FC012900D02CE1012AE4
:1037C40001D000F0F2FD0A0094239B00E254183B60
:1037D400E35C61E42C4B4B431B0BDFB28F4200D301
:1037E40066E7082F00D96AE7D8210120FF31675422
:1037F40001001940184200D030492D48006841406A
:1038040009042C48090C01600220010019401842E7
:1038140000D02A492648090400684140090C25487B
:1038240009040160042108001840194201D100F084
:1038340021FC224800F01EFC83239B00E358160061
:10384400994684239B00E3589A46A8E45246D343FE
:10385400DB171A40924637E54A46D343DB171A4032
:1038640093462AE5F343DB171E401FE5FB43DB17B2
:103874001F4012E58400054084100540980005406F
:103884009810054001F0FFFFFF0F0000B4F0002086
:1038940083E7030064060000650600006606000076
:1038A40067060000690600006A0600006B06000057
:1038B40070000540701005402000FFFFE0FF00008D
:1038C4000000E0FF0268484B53401B0C1B043B60A4
:1038D40093239B00E55C002D0CD091229200A35809
:1038E40042498B4200D83BE3414EA35D002B01D1FA
:1038F40000F0A0FD92239B00E358002B00D16DE65D
:10390400013BDD04ED0F92229200A3506B425D4116
:10391400384A6B421340384A38499B185B430A685B
:103924001B125A4036481204120C026009681A0429
:103934005140090C334C0904016021683248594054
:103944000904090C016021685140090C0904016053
:103954002E4801684B401B042D491B0C0B60036867
:103964005A40120C12040A6038E6D2214900625807
:103974002848824200D9B0E201326250D422CE23D8
:103984005200A25C5B0091469622E358D200934217
:1039940000D31BE5013316E5FB43DB173B40FFF780
:1039A40012FCD02380221B0692009A6182E5D02368
:1039B40080221B0652009A6171E596239B00E05C0D
:1039C4000C212438000303F059FD97239B000700C2
:1039D4000C21E05803F052FD38184519FFF7FAFBA3
:1039E4005B42DD4041E4C0460000E0FFFFDB050030
:1039F4004D02000001F0FFFFFF0F000070000540C2
:103A0400701005408400054084100540980005406E
:103A140098100540FF760100022900D0D3E6002368
:103A2400E44A0498A3540132A3521C3AA750043226
:103A3400A0500432A6502832A15400210C3AA350BD
:103A44000832A352FC235B00E2582C33E358049D54
:103A5400EB1AD8171B1843403F2B01DD00F0B7FCCD
:103A6400002900D1C4E2FE2331005B00E650D300FC
:103A74009B1A5B001B130233102B00D91023D02296
:103A84005200A350983AA25C002A00D1EAE18522B0
:103A94005200A25CD0B2002A00D0E3E1A532FF328A
:103AA400A0500121FA2299405200A058C24A01397B
:103AB400821802D580221201121ABC204000275815
:103AC4007838FF3806008446AC30FF302558BB48B0
:103AD400D2106843BA4D3E404019FF2A06DCD54354
:103AE400EDB2020E954201D96646BE43D62252007B
:103AF400A0503200013B9A401300BC22AA207F0848
:103B04003B430B405200A3503032A6549A07D20FC5
:103B1400FF302254CC2200205200A0501803C01AB7
:103B240003F0D4FCA44BC018802345002D18AD022B
:103B34009B002D13ED1880231B019D4200DBA14D3A
:103B4400C0235B00E550043BE2581001801A401981
:103B54000011E0500833E050002E01D100F08CFC3D
:103B6400D823FF33E35C002B01D100F0ACFCDE2250
:103B740000235200A3500832A3500832A350083245
:103B8400A352143AA3500832A3500832A35001336D
:103B94000632A3543A3AA350CC225200A35801331C
:103BA400A3509622D200934203D9D42300225B006F
:103BB400E252802229B22B1C1201914200DB814B7C
:103BC4007D4A1BB2934200DA13007E4E7E49F31AFB
:103BD4005A01D21A9200D31880220B60031C00B23F
:103BE4001201904200DB331C734A1BB2934200DA89
:103BF4001300744AD21A53019B1A9B009B184B6002
:103C0400F42380225B00E3585201934200DA52E12C
:103C14006E4B9800C0186D49000303F02FFCAB00F5
:103C24005B19DB021B13C018E023DB01984200DDA3
:103C34001800674B984200DA1800C3171F051B0DC4
:103C4400C5183F0D2D053F182D0D3F13ED1A03D553
:103C540080235B01ED18013F6E007619B612300324
:103C64000C21804603F00AFC5A4AB3009B58049086
:103C7400059380232D1A40465B01C0180C21039242
:103C840003F0FCFB04990136411AE80303F0F6FB48
:103C9400039AB600B358059A00219B1A5843C013DF
:103CA400801800234C4A03F09FFC4904C00B0818F9
:103CB400002F00DA37E3B84080239B00E358002B41
:103CC40005D0C21A501201D100F03BFC1818802311
:103CD40080229B00E050079BD200934200DD13003A
:103CE4003E4A934200DA1300F8225200A2585B00C5
:103CF4009B18F0221201934200DCE0E013008021C3
:103D04005A46C9008A4200DD0A0034498A4200DA70
:103D14000A00F6214900615852005218F0210901A5
:103D24008A4200DCC1E00A008421890061580191C3
:103D3400832189006158009101002000FEF7A2F957
:103D4400D4235B00E35C002B00D045E1D023802228
:103D54001B0652005A61AA23FF33E35C002B00D0F8
:103D640040E1D02380221B0692005A61BC225200FB
:103D7400A2580123110019401A4200D01849194BC6
:103D8400194A1B684B401B041B0C1360BC225200D5
:103D9400A2580223110019401A4200D01349114BB2
:103DA400114A1B684B401B0C1B041360BC225200BD
:103DB400A2581DE03B02000000F8FFFF0D66190049
:103DC4005FF36E3CFF070000B4F00020FF0F00001B
:103DD40000E0FFFF1CE00020314D590000FCFFFF14
:103DE400E0FF000070000540701005400000E0FF97
:103DF4000423100018401A4200D0E248E249E34A82
:103E04000B6843401B041B0C136084235B00E35CBE
:103E14000B6896201B0C1B041360D0235B00E25834
:103E2400C00013039B1A1B031B0C5B43D84A1B02E1
:103E340011681B0C4B401B04D6491B0C0B60CE2392
:103E44005B00E458002384425B4180205B42800392
:103E54000340D14812681B1853401B0C1B040B6011
:103E6400FFF7BCFBD22040002258CC4DAA4200D917
:103E7400E8E201322250CE22C020D42196265200FC
:103E84004000A358255849000430615C2058F600CE
:103E9400B34200D2F5E2002900D07DE6AA23FF3325
:103EA400E35C002B00D184E676E6FF2A00DD3BE7E5
:103EB4008022520038E7DA43D2171340A9E6FF2BD9
:103EC40000DD1CE780235B0019E70123A354F623DC
:103ED400049A5B00E250FFF702F9FE225200A15857
:103EE400683A9046A2588A1AD01712184240402ABB
:103EF40000DD94E0D52240465200A25C2150002A05
:103F040000D192E0C6225200A258C4204000215899
:103F14000131914200D309E221502FE5039A022A8C
:103F240025D0012A00D04FE48E2300229B00E252C8
:103F34009B4BE254049A263BE7500433E250039A25
:103F44000433E6503433E254683BE2588E239B003A
:103F5400E35C002B01D0FFF7A3F81700FFF7A3F8E9
:103F64000133A3508F4A934200D0C3E4BCE4110050
:103F740094228D4D9200A154625D912094468F222B
:103F84009200A25C80009046884AA15C00222250E4
:103F9400083022526246002A12D188229200A25886
:103FA400BA1AD017121842403F2A0CDDFA225200E6
:103FB400A258BA1AD01712184240602A03DC63557B
:103FC400FA235B00E7504346002B00D13AE5FC237B
:103FD400049A5B00E25043E5D02380221B06520082
:103FE4009A61B8E6D02380221B0692009A61BDE64E
:103FF400FE235B00E1582C33E358F31AD8171B183F
:1040040043403F2B00DC32E5731AD8171B1843409A
:10401400602B00DD2BE50121644BE15423E5D5221F
:1040240000205200A0544246A150802252019142E5
:1040340000DBD9E1CA43D2170A405D498A1A5243C8
:10404400110B5C4A4A435C49120B5218C6214900C1
:1040540062505AE7D82300215848FF33E1540368DB
:1040640057491B041B0C0B60036800201B0C1B042A
:104074000B600023444DDB08296841400904434890
:10408400090C0160002B00D115E12968424B4B401B
:104094001B0C1B0403603E483E4903681B041B0CB5
:1040A4000B6003681B0C1B040B60F1235B00E15CD9
:1040B400002900D1F8E0E4230399FF33E55C0029EB
:1040C40000D0AAE1002D4AD0002A48D1EE225200A5
:1040D400A3583C498B4200D838E2F2267600A35D0F
:1040E400002B45D12000FEF7CDFE0123A355364B0E
:1040F40092229200A3506B425D41344B6D421D40AD
:104104002B4B2E4AED186D4313682D126B402C492E
:104114001B041B0C0B6012682B045A40120C1A4827
:1041240012040A60026819496A401204120C0A60F7
:10413400026817485A40120C12040A6002681549B2
:104144006A401204120C0A60026853401B0C1B04E0
:104154000B609423039A9B00E254FFF73FFAE42296
:1041640001230021FF32A3540132A154083AA35081
:1041740092239B00E358002BEBD0013BDD04ED0FB1
:10418400B6E7C046E0FF0000840005408410054007
:1041940098000540981005400000E0FFFF760100FC
:1041A4003A02000000DC05003B0200003D02000072
:1041B400FF0F0000A8DE0000B80B000070000540EF
:1041C40070100540FFDB05007FBB000001F0FFFF1E
:1041D400E24BE35C002B00D1E6E1E14BFB183E2B04
:1041E40000D8A7E08122DF4B9200FB18A350DA1716
:1041F4009B18534080225B005201934200DACFE1C6
:104204008223D94A9B00E250D84AA35C002B14D1E4
:1042140083239B00E5582433E358049FA946FB1AE3
:10422400D9175B184B403F2B0CDD7B1BD9175B1850
:104234004B40602B06DC0123A354049A832391464C
:104244009B00E25090229200A35C002B13D18423A4
:104254009B00E5582433E358AA46F31AD9175B1890
:104264004B403F2B15DD731BD9175B184B40602B5C
:104274000FDC0123A35484239B00E650283BE7581A
:104284000433E358B2460493F8235B00E658FEF780
:1042940086FFF4235B00E7580433E3580493F823C0
:1042A4005B00E658FEF77BFF039A002A00D150E733
:1042B4000122E2544DE72B681B0C1B040360EAE661
:1042C400022A00D092E0C4235B00A94AE35899185B
:1042D400A84A914209D8C8225200A350043AA350D4
:1042E400D5238C3A5B00FF3AE254C42300225B00DE
:1042F400E250942200239200A354043AA554974A0E
:10430400A352902300229B00E254143B049AE750EA
:104314000433E2500433E650974BE35C002B01D1A5
:10432400FEF72DFF70E77F42F840C5E400222250DB
:10433400FEF7E7FF812200239200A3500432A3502A
:1043440062E7B62360215B00E2500433E250043399
:10435400E1504833E2500833E2500833E250083366
:10436400E252143BE2500833E2500833E250012297
:104374000633E254FFF751F8E933FF33E2582C33A4
:10438400E358FB1AD9175B184B403F2B00DCDDE5E3
:10439400BB1AD9175B184B40602B00DDD6E58E2382
:1043A40001229B00E254FEF77BFE8E2300229B0039
:1043B400E252724BE254049A263BE7500433E25033
:1043C4000433E6503433E154683BE258BEE5AB1A9B
:1043D400D8171B184340602B01DDFFF741FB8F23E7
:1043E40001229B00E254F2E55F4A26E6002A01D14D
:1043F400FEF7BBFE551E6B425D417AE70C2104209B
:10440400FFF7A7F90D210520D823FF33E1545C4BB6
:1044140019685C4B4B40FFF7A1F9002D00D198E6D9
:10442400E2210022FF316254E254073BE250083398
:10443400E2548EE62000FEF725FD0123A355524BDE
:10444400FFF761FACA20400022588A1AD517521978
:104454006A40402A18DCD5225200A25C2150002A6E
:1044640017D0C6225200A258C4204000215801315E
:10447400914224D22150FEE4CE2301225B00E2507B
:104484000CE50133A35006E5D52200255200A554BE
:1044940021508022520191420DDB3349324A521A93
:1044A4005243110B394A4A433949120B5218C62157
:1044B40049006250D8E7CA43D2171140EEE7002200
:1044C4002250FFF7EEFA01229D33FF33E250983277
:1044D400FF32A3580133A350FFF76BFBD823FF33FC
:1044E400E754274B2B491B681B041B0C0B60082348
:1044F4000021FFF78FF90921012085E70A21022015
:10450400D823FF33E1541E4B1B6822491B041B0CA8
:104514000B602149FFF727F90B210320D823FF3330
:10452400E154174B1968174B4B40EEE70E21062058
:10453400E6E70F210720F1E7511E8A41D518FEF75F
:104544009FFE511E8A41D018FFF7C1FB0133A350CF
:10455400124A934200D00BE6BFE5C0463E0200007B
:104564001FF8FFFF00F8FFFFFF0F00003F020000ED
:104574009FF6FFFF9E6D01004F0200003A0200000B
:1045840070000540E0FF00007FBB0000A8DE0000D3
:10459400B80B0000701005400000E0FF00DC0500CF
:1045A40082229200A3502FE68B239B00E358FB1A30
:1045B400DA179B1853403F2B00DC25E68123802229
:1045C4009B00E35812019B188022520193420BDB9B
:1045D400074BFB1ADA179B185340602B00DD13E6D8
:1045E4000122044BE254F8E5DA43D2171340F0E712
:1045F400FF0F00003E020000024B1A78002A00D18F
:104604001870704784120120034B1A78824201D13A
:1046140000221A707047C04684120120F0B5DE46AD
:1046240057464E464546E0B5434A444C1278A544A5
:10463400824232D1002930D0002214A9DC27CA7169
:1046440016AA92463E4DFF00019014A980235246BB
:104654000198073101F012FB00281ED0394B504459
:10466400564680469946384C07E0511C2951374933
:10467400AA1853540136B045E7D03378F02B14D040
:10468400EA5D002A16D0F72B00D16DE02A596F2A73
:10469400EBD901234A46AB54ECE72D4B9D44F0BCC7
:1046A400BB46B246A946A046F0BD00232B510133B8
:1046B400EB53DFE7F72BDDD859B2002901DA00F01C
:1046C40068FD244AA85C0F22010091430291010075
:1046D400103203909143802902D0029AE02AC9D172
:1046E4009522920094466046AA5C511CC9B2295492
:1046F4001948AA1813540129BCD900236246AB54A3
:10470400164B0399EA5C0F230B409342B2D1029BF0
:104714002A5C902B01D100F043FD802B01D100F0E5
:1047240043FD0F4BEB5CDB0113430E4A9B189722AE
:104734009200AB509EE7C046841201208CF9FFFF23
:1047440060FA0020E1060000DC0600006C060000B0
:1047540074060000510200005202000062020000D0
:104764005302000000E0FFFF0023EB554B46EB5CD7
:10477400002B00D07EE7F04BEB58052B00D879E7EF
:10478400EE49EF4A6958914200D073E7CE22D20035
:10479400AA5C332A00D06DE7EA4AAA5C9346033A3E
:1047A400012A01D800F018FD5A46013A012A00D91D
:1047B40060E7672B00D05DE7E34BFE22EB5C36A994
:1047C400129300234B80E14B9201EB5CDB0113401D
:1047D400DF4AA85C7F2202401343802252019342A5
:1047E40000DBDC4B9BB20B93DB4BFE20EA5CFE232D
:1047F400D2019B011A40D94B4003EB5C9B0303405D
:104804001343D74AA85C7F2202401343D54A03933B
:10481400934201D800F02BFD03920B9BD24A0B80EC
:10482400039B4B60A85CFE22C00192011040D12280
:10483400D200AB5C7F221A400243802040018242B6
:1048440000DBC44A93B2C94A0C93A85CFE22FE233F
:104854009201C0011040C64A5B03AA5C92031A404D
:104864000243C4482B5C7F2018400243100004928A
:10487400BC4A904201D800F01AFD049200220C9B1D
:104884004A810B81049BBC4ACB60A85CFE22C00118
:1048940092011040B94AAB5C7F221A400243802047
:1048A4004001824200DBAB4A93B2D2220D93D20084
:1048B400A85CFE22FE239201C0011040B04A5B03B3
:1048C400AA5C92031A400243AE482B5C7F20184036
:1048D400024310000592A34A904201D800F0DFFC85
:1048E400059200220D9B4A820B82059BA64A4B61CE
:1048F400A85CFE22C00192011040A44AAB5C7F2256
:104904001A40024380204001824200DB914A93B264
:104914009F4A0E93A85CFE22FE239201C001104020
:104924009C4A5B03AA5C92031A4002439A482B5C9C
:104934007F2018400243100006928A4A904201D810
:1049440000F0A5FC069200224A83D3220E9BD200DB
:104954000B83069BCB61A85CFE22C0019201104030
:104964008E4AAB5C7F221A4002438020400182427F
:1049740000DB784A93B28A4A0F93A85CFE22FE2396
:104984009201C0011040874A5B03AA5C92031A405B
:10499400024385482B5C7F20184002431000079295
:1049A400704A904201D800F06AFC079200220F9BE3
:1049B4004A840B84079B7D4A4B62A85CFE22C0019B
:1049C400920110407A4AAB5C7F221A400243802055
:1049D4004001824200DB5F4A93B2764A1093A85C9E
:1049E400FE22C00192011040D422FE23D200AA5C10
:1049F4005B0392031A4002436F482B5C7F201840EC
:104A0400024310000892574A904201D800F080FCFB
:104A140008920022109B4A850B85089B674ACB624B
:104A2400A85CFE22C00192011040654AAB5C7F2263
:104A34001A40024380204001824200DB454A93B27F
:104A4400604A1193A85CFE22FE239201C00110402B
:104A54005D4A5B03AA5C92031A4002435B482B5CE9
:104A64007F2018400243100009923E4A904201D828
:104A740000F046FC09920022119B4A860B86099B92
:104A8400534A4B63A85CFE22C00192011040514A74
:104A9400AB5C7F221A40024380204001824200DB4B
:104AA4002C4A0A924C4AFE23A85CFE22C0019201C1
:104AB40010404A4A5B03AA5C92031A400243D52081
:104AC400C0002B5C7F201840024310000292254A4C
:104AD400904201D800F00CFC029200220A9B4A8703
:104AE4000B87029B3E4ACB63A85CFE22C001920165
:104AF40010403C4AAB5C7F221A40024380204001B4
:104B0400824200DB134AFE20FE231392364A4003FE
:104B1400AA5C9B01920302403448285CC0011840FF
:104B24001043334AAB5C7F221A4002430D48824251
:104B340000D8D8E302005DE0DC0600006C0600004B
:104B44007D43315A7106000072060000840600009D
:104B540083060000FF0F00008606000087060000A1
:104B64008506000000EE0200890600008B060000A6
:104B74008C0600008A0600008E0600008D060000E8
:104B8400910600008F0600009306000092060000C4
:104B940095060000960600009406000097060000A3
:104BA4009A0600009B060000990600009D0600007E
:104BB4009C0600009F0600009E060000A20600005E
:104BC400A1060000A4060000A5060000A30600003C
:104BD400A7060000A6060000A9060000AA06000019
:104BE400AC060000AB060000AF060000AE060000F5
:104BF400AD060000422000230B52139B4A64023886
:104C0400ED4A0B52A85CFE22C00192011040D6224C
:104C1400D200AB5C7F221A400243802040018242D2
:104C240000DBE64AFE20FE231392E54A4003AA5C19
:104C34009B0192030240E348285CC00118401043E2
:104C4400E14AAB5C7F221A400243E048824200D82A
:104C540044E302004A2000230B52139BCA64023827
:104C6400DB4A0B52A85CFE22C00192011040D94AD3
:104C7400AB5C7F221A40024380204001824200DB69
:104C8400CE4AFE201392D44A4003AA5CFE23920328
:104C94000240D720C000285C9B01C001184010438B
:104CA400CE4AAB5C7F221A400243C848824200D8F5
:104CB4000FE30200522000230B52139B4A65023873
:104CC400C74A0B52A85CFE22C00192011040C54A9B
:104CD400AB5C7F221A40024380204001824200DB09
:104CE400B64AFE20FE231392BF4A4003AA5C9B01EE
:104CF40092030240BD48285CC00118401043BC4ADE
:104D0400AB5C7F221A400243B048824200D8DBE207
:104D140002005A200023CA65D8220B52139B023882
:104D24000B52D200A85CFE22C00192011040B14A8D
:104D3400AB5C7F221A40024380204001824200DBA8
:104D44009E4AFE20FE231392AB4A4003AA5C9B01B9
:104D540092030240A948285CC00118401043A84AA5
:104D6400AB5C7F221A4002439848824200D8A6E2F4
:104D74000200622000230B52139B4A660238A14AA8
:104D84000B52A85CFE22C001920110409E4AAB5C0B
:104D94007F221A40024380204001824200DB874A7E
:104DA400FE201392994A8001AA5CFE23D20102409C
:104DB400D920C000285C5B03800318401043944A48
:104DC400AB5C7F221A4002438048824200D849E209
:104DD40002006A2000230B52139BCA6602388D4AD4
:104DE4000B52A85CFE22C001920110408A4AAB5CBF
:104DF4007F221A40024380204001824200DB6F4A36
:104E0400FE20FE231392854A8001AA5C5B03D20133
:104E140002408348285C800318401043814AAB5CFD
:104E24007F221A4002436948824200D815E20200F8
:104E3400722000230B52139B4A6702387A4A0B52A2
:104E4400A85CFE22C00192011040784AAB5C7F222C
:104E54001A40024380204001824200DB574AFE2070
:104E6400FE231392724A8001AA5C5B03D2010240C2
:104E74007048285C800318401043DA22D200AB5CEF
:104E84007F221A4002435148824200D8E0E10200E6
:104E94007A2000230B52139B02380B520B9B0C9865
:104EA400CA671A1C834200D2021C0D9B90B298421E
:104EB40000D21A1C0E9B90B2984200D21A1C0F9B6F
:104EC40090B2984200D21A1C109B90B2984200D221
:104ED4001A1C119B90B2984200D21A1C0A9B1343CD
:104EE4009AB2002A01D1FFF7C5FB049B059A9C46A0
:104EF400039B63449B18069A9B18079A9B18089A6D
:104F04009B18099A9B18029A9B18F02292009342CC
:104F140001D2FFF7AFFB0723129A1A409923D0015D
:104F24009B0028180292C018802202F0D9FC029932
:104F3400414A6B189B1801221A700B00D8220933BE
:104F4400FF32AB54EB2300225B00EA545B46022B96
:104F540001D0FFF78FFB97AB00211800374A9B461F
:104F640002F0B8FC364B9BA89793364B9893364B7C
:104F7400EA5C042352421340344AAA5C52001343AD
:104F84002D4AAA5C1343324AA95C082249420A40CA
:104F94001343CD22D200A95C102249420A40134394
:104FA4002C4AA95C202249420A4013432A4AA95C9C
:104FB400402249420A4051E0B1060000FF0F0000C0
:104FC400B4060000B3060000B206000000EE0200C2
:104FD400B6060000B5060000B9060000B7060000DA
:104FE400BB060000BA060000BE060000BD060000B5
:104FF400BC060000BF060000C3060000C206000095
:10500400C1060000C5060000C4060000C706000073
:10501400C6060000CA060000C9060000CC0600004F
:10502400CD060000CB060000CF060000CE0600002F
:10503400D1060000D206000064060000140400003B
:105044004E45314301001404660600006506000065
:1050540067060000690600006A0600007F2113430A
:10506400D84AAA5C52428A4313435A46DBB21372AB
:10507400029399239B00E918802202F031FCB923A2
:105084009B00E9188022BBA802F02AFCD9239B00CC
:10509400E9188022DBA802F023FCF9239B00E9181D
:1050A4008022FBA802F01CFCC74BFFA8E918802251
:1050B400703002F015FCC54BFFA8E9188022F030CF
:1050C40002F00EFCC24BC348E91814AB8022C0188E
:1050D40002F006FCC04BC148E91814AB8022C0188A
:1050E40002F0FEFB5946BE4814ABBE4AC0180B780A
:1050F40001315A4013049B185B009B18DB009B187A
:10510400DB009B185B009A188842F0D18223594631
:10511400DB00CA50B449B54A0868904200D119E18D
:10512400EFF3108372B68021FF20490140030393FB
:1051340007F0ECFF5B46AE4A93464246B0465E1E1D
:105144002B005D469B4602928022FF21520056A806
:1051540002F0C0FB0222FF320123944608E014A8A7
:10516400F25C0830FF30C2540133634500D1DDE006
:105174009D42F4D18022029B9E48520056A9464685
:105184005D46984608F00AF8039B83F31088FFF7FE
:1051940071FA99496B5495239B00EA54FFF76AFA14
:1051A400964BEB5C002B46D196239B00EB5C934221
:1051B40001D0FFF75FFAD823FF33EB5C002B00D15B
:1051C400AEE0EB235B00EB5C002B00D1A8E00122F6
:1051D4008B4BEA54FFF74EFA0B2B01D0FFF74AFA38
:1051E4008849FE22685C7F21874B9201EB5C084072
:1051F400DB01134003439B460F238448285C18407B
:10520400834BEB5CDB011A40824BEB5C19400A4395
:10521400802109018A4219DC832189006A505B4696
:105224008022120193420FDC84229200AB507A4B0D
:10523400E854FFF71FFA79496A54794AAB540122BA
:10524400784BEA54FFF716FA1300EDE70A00E3E798
:10525400002A00D01CE601321AE6002A00D0E7E555
:105264000132E5E5002A00D0B3E50132B1E5002BB7
:1052740001D0FFF7D2FA01330393FFF7CEFA031EEE
:1052840001D0FFF793FB01330793FFF78FFB031E56
:1052940001D0FFF758FB01330693FFF754FB031EBD
:1052A40001D0FFF71EFB01330593FFF71AFB031E22
:1052B40001D0FFF7E3FA01330493FFF7DFFA002A82
:1052C40000D056E5013254E5002A00D021E5013230
:1052D4001FE5002A00D0EDE40132EBE4002A00D0FF
:1052E400B8E40132B6E4002A00D083E4013281E458
:1052F400031E01D0FFF7F1FB01330293FFF7EDFB2F
:10530400031E01D0FFF7B7FB01330993FFF7B3FB8B
:10531400031E01D0FFF77DFB01330893FFF779FBF0
:10532400982300229B00EA54FFF7A4F980223E4808
:105334005200401B013D56A9FF3D07F02FFF2B00F3
:105344000136FF36EB3300D0FEE6029B46465D464F
:10535400984619E78A88012A00D0E1E6334AC888CA
:10536400904200D0DCE6C858314B1E4A9C460B786C
:1053740001315A4013049B185B009B18DB009B18F7
:10538400DB009B185B009A186145F0D1904200D075
:10539400C6E6154B029A1B7A934200D0C0E6254913
:1053A40014AA8918AC46244B214A02E001339342E3
:1053B40005D0CD5C18788542F8D06546B0E66546E0
:1053C400FFF758F96B06000064040000E4040000D1
:1053D400640500001C050000E40500009C050000B5
:1053E4001C060000C59D1C8100E01F104E45314382
:1053F4001504000000E41F005102000053020000E5
:1054040061020000740600007506000076060000C4
:1054140073060000720600006202000055020000DC
:10542400560200005702000015E41F001404000097
:1054340010E41F100C22E0EF10E01F107047C0466C
:1054440010B5054802F04CFC0448054B186007F001
:1054540047F9002010BDC0461502002060FA002064
:10546400C8040120F0B5C646994C00B52000FCF7ED
:10547400E9FB984B00252360B6235B00E550043319
:10548400E550954A0433E5500433E250C622043310
:10549400E5500433E5500433E5500433E5508F4BB5
:1054A4005200A3500432A350802396211B010432DE
:1054B400A3500432A550C9000432A1501021043273
:1054C400A15087490432A150D4210022D62049009A
:1054D400655202316254AA39FF3940002150043028
:1054E4002550043025500430255004302550043014
:1054F4002550043025500430255004302550794E71
:105504000430255004302650FC2604302550043045
:1055140025500430255004302254043023500430E4
:10552400255004302550043023506F487600A05194
:105534000436A3510436A5510436A5510436A551A9
:105544000436A5510436A5510436A3510436A55199
:105554000436A5510436A3510436A0518A20800094
:105564002350043023508C239B00E5505F480433C0
:10557400E5500433E05002200433FF30E05004339C
:10558400E2540433E5500433E5500433E550043366
:10559400E1500433E254564B3B31E154554B28312E
:1055A400E154554B5549E2540133E1520433E5507B
:1055B4000433E552524B0021E25480220233E018B6
:1055C400D20002F087F94F4B08220021E01802F0C4
:1055D40081F94D4B70220021E01802F07BF94B4B0E
:1055E4004B49E5500433E5520A684A4B9A4207D0C6
:1055F40049494A4B0A689A4233D080BCB846F0BD48
:105604008B88022BF4D1CB88202BF1D1CD69444A6D
:1056140044480B7801315A4013049B185B009B18D3
:10562400DB009B18DB009B185B009A188142F0D1C9
:105634009542DDD18122364B92009968A150802297
:10564400DB68520193423EDB274B82229200A35037
:105654002F4B1B7E082B00D90023D822FF32A354E2
:10566400C6E78B88012BC8D12F4BCA889A42C4D174
:10567400043BCC582A4A2D480B7801315A40130474
:105684009B185B009B18DB009B18DB009B185B00DE
:105694009A188142F0D19442AFD1254B0024984608
:1056A4000125244F1C4E244BE10180227818C9188F
:1056B40002F016F9337A4246E3402B401355013485
:1056C400082CF0D199E7DA43D2171340BDE7C0465E
:1056D40060FA002018E00020E1AC0000E02E000099
:1056E4000077010008080000FF0F0000010101011C
:1056F4005502000056020000570200003C640000FE
:1057040062020000640600006C060000DC06000073
:1057140000F01F10335A314300E01F104E4531434F
:10572400C59D1C811CF01F101404000010E41F1000
:10573400C4000120C4FC002010E01F100048704782
:105744000CEF002000487047A4EE002070B500283C
:1057540026D0032833D81B4B8000C458200006F001
:1057640049FEC3B2181C1F2B18D8C021C0B2421C5A
:10577400D2B25200890011430D00002B1CD0124BF1
:105784009C469A1C0023E15C01331180D9B2023299
:105794008842F8D8634660461D8070BD1F20E4E748
:1057A4000A48C1250400074B0222196802F098F840
:1057B400A31E9C46AD00EDE7034B9C46EAE70020A0
:1057C400EBE7C046BCF00020DC0B0120DE0B01201F
:1057D40070B5164C82B0200003F0F4FF002805D009
:1057E4002500D9232C3DEE5C002E02D0002002B00F
:1057F40070BD0120E97805F0DFFD0028F6D0200017
:105804000B49EA8804F060F8E978041E0AD0030022
:10581400074A01200196009605F01EFE0028E5D0F7
:105824002000E4E7012005F0EFFDDFE764F8002045
:1058340090F80020F0B5244C85B0DC220021200033
:1058440002F048F8214E3568280001F0EBFF20648F
:105854000700706801F0E6FF03906064337A012169
:105864005800C018400001F0FBFFE060002F26D074
:10587400039B002B25D000281FD0AAB220000025AE
:10588400012339001830009503F066FFB288200028
:105894002600616C012348362C30009503F05CFF30
:1058A400300000F0ABFEA662260050363000656280
:1058B40000F0A4FE0120A663E56305B0F0BD380046
:1058C400FBE71800F9E7C04638F80020D0F00020C4
:1058D40010B50E4C206C002803D001F0E3FF002328
:1058E4002364606C00280CD001F0DCFF0023E06826
:1058F4006364002803D001F0D5FF0023E360012096
:1059040010BDE0680028F6D1F9E7C04638F8002059
:10591400F0B51C0083B001282AD1D923334DEA54B1
:10592400002A25D1AB788B4225D0EB788B4248D026
:1059340001201EE028002C3003F044FF002844D14D
:10594400002C42D02000E98801F0C0FD0C1E3CD19F
:105954000120E97805F030FD002836D0E9782300ED
:10596400220001200194009405F076FDA0422CD180
:10597400002003B0F0BD002C19D0A40817D02634A1
:10598400A4002E192C000027983402E00434A64207
:1059940009D02368002BF9D004222100144804F014
:1059A4009BF80137F2E7134B002B16D1A97800249A
:1059B4002A00AB88287898320194009405F04CFDB5
:1059C400D7E7FFF705FF0028B4D00B4B002BAFD06F
:1059D4000120FFF733FD0120CBE7002FE6D039008B
:1059E4000120FEF71BFEA978E1E7C04638F8002045
:1059F40050F800202D4400204D52002070B501289D
:105A040024D1134B002B02D00021FEF7FDFD114CD5
:105A1400200004F015F920002500143004F010F9DA
:105A2400002300222000183D6B602B81FF332B6084
:105A3400273BEA5400210622083801F04BFF064BAD
:105A440000211A7AE868920001F044FF70BDC04654
:105A54001944002050F80020D0F00020F8B5DE46AC
:105A640057464E464546E0B5012906D1D9210020C6
:105A74006A4C60545179012906D00020F0BCBB4621
:105A8400B246A946A046F8BD9079002101286BD002
:105A94000328F2D1157850194678B4462426764264
:105AA4006644012E00D87FE06646052EE5D1927843
:105AB400691889B262708B4200D8A0E0584A156810
:105AC4005268A9469046002200259346924623E058
