:020000041000EA
:1000000000B5324B212058609868022188439860DF
:10001000D860186158612E4B002199600221596106
:100020000121F02299502B49196001219960352056
:1000300000F044F80222904214D00621196600F024
:1000400034F8196E01211966002018661A6600F04E
:100050002CF8196E196E196E052000F02FF8012189
:100060000842F9D1002199601B49196000215960AB
:100070001A491B48016001219960EB211966A021F2
:10008000196600F012F800219960164914480160C1
:100090000121996001BC002800D000471248134993
:1000A000086003C880F30888084703B5996A0420EC
:1000B0000142FBD001200142F8D103BD02B5186610
:1000C0001866FFF7F2FF186E186E02BD00000240BE
:1000D000000000180000070000035F00212200005C
:1000E000F4000018222000A00001001008ED00E03C
:1000F00000000000000000000000000074B24E7A12
:1001000000200420F7010010CB010010CD010010E9
:10011000C9010010C9010010C9010010C901001077
:10012000C9010010C9010010C9010010CF01001061
:10013000C9010010C9010010D1010010D301001045
:10014000C1010010C1010010C1010010C101001067
:10015000C1010010C1010010C1010010C101001057
:10016000C1010010C1010010C1010010C101001047
:10017000C1010010C1010010C1010010C101001037
:10018000C1010010C1010010C1010010C101001027
:10019000C1010010C1010010C1010010C101001017
:1001A000C1010010C1010010C1010010C101001007
:1001B000C1010010C1010010C1010010C1010010F7
:1001C000EFF30580103800BE00BE00BE00BE00BECA
:1001D00000BE00BEF2EB887190020010B402001065
:1001E0003802001090A31AE721482249086006C887
:1001F00081F30888104720480068002801D01C4877
:10020000F3E70DA40ECC002902D000F012F8F9E7B4
:100210001A491B4A002000E001C19142FCD1194952
:100220008847194988471949884700BEFDE701C931
:1002300001C29A42FBD37047B4020010C0000020F4
:1002400094BD002088BF0010A0BD0020E8F0002071
:10025000D0F200100000042000000420D0F20010B2
:10026000001004200010042000000000704700006F
:100270000000000008ED00E0000000D0E8F00020E1
:10028000B4070120257000209D4B00201D70002028
:10029000D0E70020DCE70020E8E70020F4E70020BA
:1002A00000E800200CE8002018E8002054E90020B5
:0402B00048E90020F9
:1002B400F8B5C04606480749091A8B10C90FC91872
:1002C40010B5491003D0044B002B00D0984710BD43
:1002D400E8F00020E8F0002000000000054B10B515
:1002E400002B03D00449054800E000BFFFF7E2FFFC
:1002F40010BDC046000000007007012094BD00201E
:10030400A423082130B5FF24134A1448D1501449BA
:1003140002680B680D689B1AA343521BD218026033
:10032400104A1B02944612680F4853401B0C0F4D91
:100334001B0403602A684B6849689B1AA343521A3A
:10034400D2182A6062461B0212681B0C53401B041D
:100354001B0C036030BDC0460000054018FA0020A5
:1003640064E9002048000540481005401CFA0020BC
:10037400F0B5502387B017256A460405240F1C43A3
:100384006D44AF3393750F00287006F0DDF9002338
:10039400194A80185941002902DA012017494042BC
:1003A40000230290039100932A0021001448013392
:1003B40007F0AEFB00281ADD06F0C6F900230E4A4A
:1003C40080185941002902DA01200C4940420023D7
:1003D40016220290039100932100094801336A44D4
:1003E40007F0B6FB002802DD6B46987D02E001238E
:1003F40000203B7007B0F0BD10270000FFFFFF7F17
:1004040030EA0020F0B5DE4657464E464546E0B594
:100414006420C3B006F06EF8F0238E4FFB5C0C2B07
:1004240001D000F065FED0231B065A68802310001B
:100434005B0318401A4200D1C7E00124012312AA29
:1004440040321380002022A907F040FD12AB9B46E6
:10045400002C00D1C0E001200021404207F0AAFD99
:1004640040235A460021002008F0F2FA0028F2D076
:100474005C462378584405005A46F02B22D0D622F5
:100484009200BE580432BA5C9046734ABA5C9146F4
:100494004246002A01D100F022FE002200219246A9
:1004A40010004A46F72B2FD06F2E00D89FE001345E
:1004B400AC4201D100F09CFD237801200122F02BF5
:1004C400F0D12200541CAC4278D05378F02B00D1E8
:1004D400ADE0F72B01D100F0A3FD012000228046FE
:1004E4005E489146561C0134BA1801211354AC429B
:1004F40000D187E00122237892462200F02BE1D03C
:100504004A464046F72BCFD191468046002A00D177
:10051400B0E0621CAA4201D100F08EFD6378F02B9A
:1005240001D100F06AFD0121404602960390049136
:10053400F72B38D858B2002801DA00F047FD4848B4
:10054400395C0F200C00844310308C4601948143A5
:10055400802901D0E02C26D195218900785C414E78
:10056400441CE4B238187C548355012C1BD9002355
:100574007B543D4B6146F85C0F230B40834212D100
:10058400019BB85D902B01D100F05AFD802B01D165
:1005940000F05AFD354B3649FB5CDB0103439720E1
:1005A4005B1880003B500132AA4201D100F019FDD2
:1005B4001378F02BBCD1541CAC4286D10023264ABC
:1005C400BB54053ABB5001332DE0022312AA40323A
:1005D400138022A909F082FD0120002140420AF083
:1005E40035F80120002140420AF030F8F4E7914642
:1005F400320080461948561C0134BA181354AC42D0
:1006040000D077E701239A464246002A02D04846A2
:10061400114AB8545246002A02D0D6229200BE5043
:10062400002900D117E7D7229200BB5413E7941C8A
:10063400AC4201D100F05FFD9378F02B00D140E78C
:100644000122924600229146013210000121002627
:100654004A4627E710F300205D030000E50200008E
:100664005102000052020000620200005302000026
:1006740000E0FFFF052E00D84BE7B923FF229B00C3
:10068400FB589343F14A934200D042E7BA229200C6
:10069400EF4BBA5A9A4200D03BE7EE4BFB5CDA1EB2
:1006A400012A01D800F0E6FC012B00D031E7672EC7
:1006B40000D02EE74A4612AB42331A80FE22E64BA4
:1006C4009201FB5CDB011340BF229200B95C7F22E4
:1006D4000A40134380225201934200DBDF4BFE2287
:1006E4009BB20A93DE4B9201FB5CFE21DB011340BB
:1006F400C0229200BA5C490392030A401343D94AC8
:10070400B95C7F220A401343D74A0293934201D82B
:1007140000F03AFD0292FE210A9A12AB40331A808D
:10072400029BD24A2393BA5C8901D2010A40D04980
:10073400785C7F2101400A43802149018A4200DB21
:10074400C64A93B2C1220B939200B95CFE22FE20EA
:100754009201C9011140C74A4003BA5C92030240A6
:100764000A43C5491300785C7F2101400B43BE490D
:1007740003938B4201D800F0FEFC0391002112ABDD
:100784004A331980483112AB5B180B991980039BCB
:10079400BA492593785CFE21C00189010840B84913
:1007A4007B5C7F219C4663461940014380204001C5
:1007B400814200DBA9498BB2B2490C93785CFE21DB
:1007C400FE238901C0010840AF495B03795C8903BA
:1007D40019400143C22080003B5C7F209C46634655
:1007E40018400143080004919F49884201D800F051
:1007F400B9FC0491002112AB52331980503112AB71
:100804005B180C991980C321049B89002793785C99
:10081400FE21C001890108409C497B5C7F219C46E4
:1008240063461940014380204001814200DB8B492B
:100834008BB297490D93785CFE21FE238901C00198
:10084400084094495B03795C890319400143924849
:100854003B5C7F209C466346184001430800059199
:100864008149884201D800F074FC0591002112AB43
:100874005A331980583112AB5B180D991980059BB6
:1008840086492993785CFE21C00189010840C4216E
:1008940089007B5C7F219C4663461940014380208C
:1008A4004001814200DB6D498BB27D490E93785C37
:1008B400FE21C00189010840C521FE238900795C1D
:1008C4005B0389031940014376483B5C7F209C46C7
:1008D400634618400143080006916349884201D8E1
:1008E40000F088FC0691002112AB6233198060315C
:1008F40012AB5B180E991980069B6B492B93785C9D
:10090400FE21C0018901084068497B5C7F219C4627
:1009140063461940014380204001814200DB4F4976
:100924008BB2C6210F938900785CFE21FE238901D6
:10093400C00108405E495B03795C890319400143A7
:100944005C483B5C7F209C4663461840014308009A
:1009540007914549884201D800F043FC07910021E2
:1009640012AB6A331980683112AB5B180F99198086
:10097400079B51492D93785CFE21C00189010840F1
:100984004E497B5C7F219C4663461940014380208D
:100994004001814200DB31498BB249491093785CB4
:1009A400FE21FE238901C001084046495B03795CAE
:1009B400890319400143C72080003B5C7F209C468B
:1009C400634618400143080008912749884201D82A
:1009D40000F0FEFB0891002112AB723319807031D4
:1009E40012AB5B1810991980C821089B89002F93BA
:1009F400785CFE21C0018901084033497B5C7F217A
:100A04009C4663461940014380204001814200DB3B
:100A1400124909912D49FE23785CFE21C001890108
:100A240008402B495B03795C890319400143294839
:100A34003B5C7F209C4663461840014308000191BB
:100A44000949884200D8BCE3019145E0007D433167
:100A54005A330000EA020000FD020000FF0F00000C
:100A6400FF020000FE02000000EE0200020300008C
:100A74000103000005030000030300000703000056
:100A840006030000090300000A0300000B03000032
:100A94000E0300000F0300000D030000110300000B
:100AA40013030000120300001603000015030000E6
:100AB40019030000170300001B0300001A030000C1
:100AC4001D0300001E0300001F030000220300009A
:100AD4002303000021030000002112AB7A331980A4
:100AE400783112AB5B1809991980019BE94931935C
:100AF400785CFE21C00189010840C92189007B5C22
:100B04007F219C4663461940014380204001814275
:100B140000DBE1491191CA21FE20FE238900795CA2
:100B2400400389030140DD489B01385CC001184043
:100B34000843DB497B5C7F219C46634619400143A3
:100B4400D848814200D837E3010000239C4612AA0A
:100B54004033D218422063461352023812AA1318A3
:100B6400119A1A523391D049785CFE21C00189014F
:100B74000840CE497B5C7F219C4663461940014373
:100B840080204001814200DBC349FE201191C84905
:100B94004003795CFE2389030140CB208000385C4C
:100BA4009B01C00118400843C2497B5C7F219C46DD
:100BB400634619400143BB48814200D8F7E2010073
:100BC40000239C4612AA4033D2184A20634613528B
:100BD40012AA4033D318119A02381A523591B649E1
:100BE400785CFE21C00189010840B4497B5C7F2107
:100BF4009C4663461940014380204001814200DB4A
:100C0400A549FE20FE231191AD494003795C9B0167
:100C140089030140AB48385CC00118400843CC212B
:100C240089007B5C7F219C466346194001439D48B3
:100C3400814200D8B6E2010000239C4612AA403348
:100C4400D21852206346135212AA4033D318119A71
:100C540002381A523791CD218900785CFE21C001F7
:100C64008901084098497B5C7F219C466346194072
:100C7400014380204001814200DB8749FE20FE239E
:100C8400119192494003795C9B018903014090488A
:100C9400385CC001184008438E497B5C7F219C4628
:100CA4006346194001437F48814200D875E2010040
:100CB40000239C4612AA4033D2185A20634613528A
:100CC40012AA4033D318119A02381A523991824920
:100CD400785CFE21C00189010840CE2189007B5C3B
:100CE4007F219C4663461940014380204001814294
:100CF40000DB6949FE20119178498001795CFE236B
:100D0400C9010140CF208000385C5B038003184098
:100D1400084373497B5C7F219C4663461940014329
:100D24006048814200D80FE2010000239C4612AAC9
:100D34004033D21862206346135212AA4033D318A8
:100D4400119A02381A523B916649785CFE21C0011F
:100D54008901084064497B5C7F219C4663461940B5
:100D6400014380204001814200DB4B491191D02195
:100D7400FE20FE238900795C8001C90101405B48A3
:100D84005B03385C80031840084359497B5C7F212E
:100D94009C466346194001434248814200D8CEE153
:100DA400010000239C4612AA4033D2186A206346ED
:100DB400135212AA4033D318119A02381A523D9191
:100DC4004C49785CFE21C001890108404A497B5C9A
:100DD4007F219C46634619400143802040018142A3
:100DE40000DB2D49FE20FE23119144498001795CEA
:100DF4005B03C90101404248385C80031840084342
:100E0400D12189007B5C7F219C46634619400143C4
:100E14002448814200D88DE1010000239C4612AA97
:100E24004033D21872206346135212AA4033D318A7
:100E3400119A02381A523F91D2218900785CFE211E
:100E4400C001890108402F497B5C7F219C46634691
:100E54001940014380204001814200DB0E49FE20FD
:100E6400FE23119128498001795C5B03C90101408B
:100E74002648385C80031840084325497B5C7F2161
:100E84009C466346194001430648814200D84CE120
:100E940001003FE025030000FF0F000027030000CE
:100EA4002603000000EE02002A03000029030000CC
:100EB4002D0300002B0300002F0300002E0300006D
:100EC4003203000031030000330300003703000045
:100ED4003603000035030000390300003B03000023
:100EE4003A0300003E0300003D03000041030000FC
:100EF4003F030000430300004203000045030000D9
:100F040046030000470300004A0300004B030000AF
:100F14004903000000239C4612AA4033D2187A20C9
:100F24006346135212AA4033D318119A02381A5244
:100F34000A9A0B9B4191111C9A4200D2191C0C9BDA
:100F440088B2984200D2191C0D9B88B2984200D2F4
:100F5400191C0E9B88B2984200D2191C0F9B88B2B0
:100F6400984200D2191C109B88B2984200D2191CD6
:100F7400099B0B4399B2002901D1FFF7CAFA039ADE
:100F8400029B9B18049A9B18059A9B18069A9B1817
:100F9400079A9B18089A9B18019A9B18F0229200B2
:100FA400934201D2FFF7B5FA99239B008022F818E7
:100FB40022A906F0E9F8B92301229B00FA549022F1
:100FC4000F3BFF3B1201FA52FFF7A3FA8E4801329E
:100FD4003B54952300209B00F854AA4201D0FFF70C
:100FE400E7FA039B029E984604990023FFF70CFB43
:100FF400012201239146FFF70AFB0234AC427AD066
:10100400012290460022237891460132924600261E
:1010140001212200F02B01D0FFF772FAFFF752FAF8
:10102400012398460023621C9946013300269A4600
:10103400AA4201D0FFF772FA01210023FFF7E4FA74
:10104400724BFB5C002B5DD196239B00FB5C8342BF
:1010540001D0FFF7A8FAD823FF33FB5C002B5ED046
:10106400EB235B00FB5C002B59D00120684BF85448
:10107400FFF799FA0B2E01D0FFF74BFAFE22654BCE
:101084009201FB5CDB011340634AB95C7F220A4096
:1010940013438022520193423FDA0F215F4AFE201C
:1010A400BA5C80011140BB229200BA5CD2010240BA
:1010B4005B480192385C84467F2062461040019A66
:1010C400024380204001824225DA832080003A5086
:1010D40084229200BB50534BF954FFF71AFA0021B3
:1010E40040465A468A46029603900491FFF720FA36
:1010F4000224FFF7A3F9012300269A461900B146FA
:10110400FFF785FA484C385548483B540120484B72
:10111400F854FFF748FA474AD7E7464BBDE7982308
:1011240000209B00F854FFF73EFA002900D0F1E6B6
:101134000131EFE6002900D06FE601316DE60029A8
:1011440000D02EE601312CE6002900D0EDE5013176
:10115400EBE5059B002B01D0FFF788FB01330593DA
:10116400FFF784FB049B002B01D0FFF743FB013303
:101174000493FFF73FFB039B002B01D0FFF7FEFA1C
:1011840001330393FFF7FAFA029B002B01D0FFF718
:10119400C2FA01330293FFF7BEFA002900D087E5B3
:1011A400013185E5002900D046E5013144E50029F7
:1011B40000D005E5013103E5002900D0C5E4013183
:1011C400C3E4019B002B00D086E40133019383E444
:1011D400089B002B01D0FFF7FEFB01330893FFF7B8
:1011E400FAFB079B002B01D0FFF7B9FB01330793F0
:1011F400FFF7B5FB069B002B01D0FFF774FB01330F
:101204000693FFF770FBC046510200005302000032
:1012140061020000EE020000ED020000EF02000097
:10122400EB020000620200005502000056020000BA
:1012340057020000FF0F000010B5024B18680AF0B7
:1012440093FF10BDF0F9002070B5D02501220021D4
:10125400072004F05DFA01220021062004F058FA68
:101264000122002105202D0604F052FA012000215C
:1012740005F0CAF86A686C686B6864069B06E40F3C
:10128400DB0F1B01A4001C431306DB0F002201210A
:1012940007201C4304F03CFA00220121062004F03C
:1012A40037FA00220121052004F032FA012000213E
:1012B40005F0AAF869686A6809066B68C90F5206DE
:1012C4004900D20F9B060C43D200DB0F5B010021C7
:1012D4000720144301221C4304F01AFA01220021BE
:1012E400062004F015FA64B201220021052004F05E
:1012F4000FFA2A2C05D0302C03D0FF200C2C00D060
:1013040070BDE0B2FCE7C046F0B54E46DE46574637
:101314004546E0B5431824331B7885B099460190BF
:101324000291002B00D129E280468B0003935B18C5
:101334001B01984444462C20205605F017FEDB4937
:1013440005F0DDFD4546041CA86A05F00FFE211CCE
:10135400051C201C05F0D3FD211C061C281C05F0CF
:10136400CEFD4A46071C012A00D1A1E142463420A1
:10137400105605F0FBFDCD4905F0C1FD42468246FD
:10138400106B05F0F3FD51468346201C05F0A0FDCB
:101394005946041C281C05F09BFD5146051C50466B
:1013A40005F0ADFD011C301C05F092FD5146061CF4
:1013B400584605F0A4FD011C381C05F089FD4A4679
:1013C400071C022A00D173E142463C20105605F066
:1013D400CDFDB64905F093FD42468246906B05F07B
:1013E400C5FD51468346201C05F072FD5946041C78
:1013F400281C05F06DFD5146051C504605F07FFD87
:10140400011C301C05F064FD5146061C584605F0CD
:1014140076FD011C381C05F05BFD4A46071C032AB7
:1014240000D145E142464420105605F09FFD9F49F6
:1014340005F065FD42468246106C05F097FD514665
:101444008346201C05F044FD5946041C281C05F065
:101454003FFD5146051C504605F051FD011C301C52
:1014640005F036FD5946061C504605F048FD011CA2
:10147400381C05F02DFD4A46071C042A00D117E14B
:1014840042464C20105605F071FD884905F037FDA1
:1014940042468246906C05F069FD51468346201C05
:1014A40005F016FD5946041C281C05F011FD514693
:1014B400051C504605F023FD011C301C05F008FDF9
:1014C4005946061C504605F01AFD011C381C05F04F
:1014D400FFFC4A46071C052A00D1E9E05423424692
:1014E400D05605F043FD714905F009FD4246824698
:1014F400106D05F03BFD51468346201C05F0E8FCC9
:101504005946041C281C05F0E3FC5146051C5046B2
:1015140005F0F5FC011C301C05F0DAFC5946061CEC
:10152400504605F0ECFC011C381C05F0D1FC4A4681
:10153400071C062A00D1BBE042465C20105605F089
:1015440015FD5A4905F0DBFC42468246906D05F0D4
:101554000DFD51468346201C05F0BAFC5946041C77
:10156400281C05F0B5FC5146051C504605F0C7FC87
:10157400011C301C05F0ACFC5946061C504605F015
:10158400BEFC011C381C05F0A3FC4A46071C072AB4
:1015940000D18DE042466420105605F0E7FC434933
:1015A40005F0ADFC42468246106E05F0DFFC514664
:1015B4008346201C05F08CFC5946041C281C05F0AD
:1015C40087FC5146051C504605F099FC011C301C53
:1015D40005F07EFC5946061C504605F090FC011CA3
:1015E400381C05F075FC4A46071C082A60D04246A0
:1015F4006C20105605F0BAFC2C4905F080FC4246DC
:101604008246906E05F0B2FC51468046201C05F0DF
:101614005FFC4146041C281C05F05AFC5146051C7D
:10162400504605F06CFC011C301C05F051FC414691
:10163400061C504605F063FC011C381C05F048FCF0
:101644004A46071C092A33D0019A02989046039B04
:101654001B181B01984443467420185605F086FC59
:10166400124905F04CFC43468246186F05F07EFC97
:1016740051468046201C05F02BFC4146041C281CC6
:1016840005F026FC5146051C504605F038FC011CAB
:10169400301C05F01DFC4146061C504605F02FFC8D
:1016A400011C381C05F014FC071C01E0CDCCCC3D1A
:1016B400484605F05BFC311C804605F020FC211CEB
:1016C400061C201C05F01BFC011C301C05F0FDFB56
:1016D4000021061C05F042FC002841D1391C40467B
:1016E40005F00DFC211C071C281C05F008FC011C3E
:1016F400381C05F0EAFB311C05F0EDFB211C061C2F
:1017040005F0FDFB011C281C05F0DFFB414605F03C
:10171400E2FB1C49041C301C05F0F1FBFC2189058B
:1017240005F0D6FB05F044FCFC2181468905201C0C
:1017340005F0CEFB05F03CFC029B019A1B01D3187B
:101744001A00C832166054604946D02299500432B7
:10175400985005B0F0BCBB46B246A946A046F0BDC1
:101764004146281C05F0B7FBFC218905041C05F043
:10177400AFFB05F01DFC00239946DDE700200026A1
:10178400014CD9E7ABAAAA3F0000C07FF0B545469B
:1017940057464E46DE460300E0B52433A1B00200AE
:1017A400059303232832140000259846EC27CA4EDB
:1017B400069007924246059B29005A55002323733D
:1017C400C64B2771A36014232375C54B2660236180
:1017D4000698FFF799FD6B1C50340125022BE9D1C3
:1017E400133304AA99180020FEF7C2FD152304AA96
:1017F400991804020120FEF7BBFDBA4B04439C4236
:1018040000D060E1162304AA9B189A4617239B185C
:101814009846B54B00249B46FF2300279946B34EB8
:101824000AAD1BE004F090FF80197941002902DA27
:101834000120AF4940420023029003910093524695
:1018440050215846013306F083F9002820DD534621
:101854001B7801342B700135582C1FD053464A464F
:101864001A7043461C7004F06FFF801979410029F7
:1018740002DA01209E494042002302900391009322
:10188400424650215846013306F042F90028C9DC8B
:10189400002301342B700135582CDFD10AA8954B55
:1018A400954956300AAA20E05B001CB2002C27DBC5
:1018B4005C0023B2002B28DB640023B2002B29DB5D
:1018C400640023B2002B2ADB640023B2002B2BDB41
:1018D400640023B2002B2CDB640023B2002B2DDB2D
:1018E400630001329BB290422ED0147824026340EC
:1018F4001CB2002CD8DA64004C4024B2231ED7DA80
:1019040064004C4023B21C1ED6DA5B004B401BB271
:101914001C1ED5DA5B004B401BB21C1ED4DA5B00E4
:101924004B401BB21C1ED3DA5B004B401BB21C1E87
:10193400D2DA5B004B401BB21C1ED1DA5B004B4079
:1019440001329BB29042D0D1562204A918318A5A4E
:1019540052BA92B29A4200D0B5E000262427079DDD
:10196400B0460BAC13AE41462378059A5354002B72
:1019740000D199E0A278E178120609040A4361795A
:101984000A43217909020A4361782A602971012BEB
:1019940000D189E0E279217A120609040A43A17A86
:1019A4000A43617A09020A43A179AA602973022BC6
:1019B4007AD0227B617B120609040A43E17B0A4345
:1019C400A17B09020A43E17A2A612975032B6BD0B2
:1019D400627CA17C120609040A43217D0A43E17C4E
:1019E40009020A43217CAA612977042B5CD0A27DD9
:1019F400E17D120609040A43617E0A43217E09023D
:101A04000A43617DE9552A62052B4DD0E27E217F90
:101A1400120609040A43A17FA07E0A43617F0902DA
:101A24000A432C216854AA62062B3DD0327871787F
:101A3400120609040A43F178E07F0A43B1780902E7
:101A44000A43342168542A63072B2DD07279B17963
:101A5400120609040A43317A30790A43F1790902FA
:101A64000A433C216854AA63082B1DD0B27AF17A48
:101A7400120609040A43717B707A0A43317B090216
:101A84000A43442168542A64092B0DD0F37B327C29
:101A94001B0612041343B27CB17B1343727C120203
:101AA40013434C22A954AB6441460698FFF72CFC1F
:101AB400434601222934904650352936012B00D063
:101AC40051E7002000E0012021B0F0BCBB46B24643
:101AD400A946A046F0BDC046344E050050FC0300A4
:101AE40040A90200D107000030EA002010270000BE
:101AF400FFFFFF7FFFFF000021100000F8B5CE4676
:101B04004746002580B50700EE4B102203600021F4
:101B14000561C560856045600562C5618561456193
:101B2400F83005F02BFB842338005B00FD520D30A8
:101B3400023308220021FD52FF3005F01FFB8023F1
:101B44008A221B015200BB520232BB5238008C2342
:101B540000245B001D30FC540021FE3AFF3005F0E8
:101B64000DFB3800353006220021FF3005F006FB5E
:101B7400B5235B00FC543E230822FF33FC54D24BB4
:101B840001261A60E022D14BD2011B681340D04ACF
:101B940013609D235B00FC54063BFC543623FF3347
:101BA400FC540133FC543823FF33FC540133FC54FC
:101BB4003A23FF33FC54C74BC74C9846237804217F
:101BC4009946180003F08CFD4B460421581C03F081
:101BD40087FD4B464A465B081F2A00D9AAE1072223
:101BE4001A4093009B18BD49BD4A9B009A18591886
:101BF40015600D60BB4959180D60BB495B1841461F
:101C040019601023536016602378013359081F2B81
:101C140000DD8BE107220A4093009B18AF49B04ACC
:101C24009B009A18591815600D60AE4959180D603B
:101C3400AD495B1841461960102353601660237840
:101C44005A081F2B00D938E1072111408A00521885
:101C5400A44992005118096840468C463100194045
:101C64004942414060460140A048013312181160C6
:101C74005A081F2B00DD1CE10721114040468A0051
:101C84005218984992005118334009685B42434006
:101C94000B409649023452181360954B9C428DD1E7
:101CA40005F0A0FC1F211B2003F01AFD00220021D7
:101CB4001B2003F02DFD00211B2003F03BFD1F2101
:101CC4001A2003F00DFD002200211A2003F020FD4C
:101CD40000211A2003F02EFD1F211C2003F000FD1B
:101CE400002200211C2003F013FD00211C2003F01E
:101CF40021FD1F211D2003F0F3FC002200211D20E3
:101D040003F006FD00211D2003F014FD182003F04C
:101D140023FD192003F020FDD024802324065B0436
:101D2400636280239B046362082003F015FD802313
:101D34005B0063620920636103F00EFD80239B0056
:101D440063620220636103F007FD04230022A3629F
:101D54000121022003F0DCFC032003F0FDFC082336
:101D6400644DA36200220121032003F0D1FC28006A
:101D7400614905F093FC0222904641466B681220AB
:101D840013405E4A11600F22296810255140C03269
:101D94000A405B490A605B4A0121136003F0A0FC1E
:101DA4000121132003F09CFC0121152003F098FC71
:101DB4000421172003F094FC0421162003F090FC66
:101DC4000022474B5049DA635A649A64D9641D640B
:101DD400DE63DA635A649A64D9641D64DE63FA23A9
:101DE4004A499B040A68072053401B0C484A1B04B9
:101DF4001360FA2309689B004B401B041B0C1360FF
:101E040003F0AAFC062003F0A7FC052003F0A4FCC1
:101E14008023A362403BA362203BA362142003F00F
:101E24009BFC00220021142003F072FC042003F028
:101E340093FC65623749A561374805F041FE0321EB
:101E4400102003F04DFC0321112003F049FC002075
:101E540003F082FC6662012003F07EFC43463800F6
:101E64006362FFF7F1F9F023F8543800FFF78EFCB2
:101E74009F23464001205B003040F854563B98466F
:101E8400B844404605F016FB14264346234C244D23
:101E940003CB244A244B04F0FBFF013E00196941A3
:101EA400002EF6D1434603C33800C0BCB946B04641
:101EB400F8BD032111400831E0E603211140083147
:101EC400C4E6C046BCD8002000F0044000C0044072
:101ED40000D00440FFFF000080DD00200800054022
:101EE400000005400C000540100005400C100540A2
:101EF40086DD002000C00340286BEE0004F00340A0
:101F040000D0034004E00340CF0700004800054030
:101F140048100540A086010030EA00204F8167F791
:101F24007E7B05142D7F954C2DF4515803220A40D5
:101F3400083271E603221A40083252E6F0B54546EB
:101F4400DE4657464E461C00D823E0B58BB00291BE
:101F5400FF33C35C050090460393002B00D18CE053
:101F6400EB235B00C25C002A00D186E0039B092BB3
:101F740001D100F0B1FC013BDBB2072B01D900F029
:101F84003BFCC6499B005B589A46EA235B00EE5C27
:101F9400D623FF33EB5C9946072E01D900F096FC5B
:101FA400F30053445F68002F00D10137DE2149005C
:101FB4006A5801326A501988E6235B00EB58059190
:101FC400C81A504339000493019204F0ABFE049BF9
:101FD400019AC018E2235B00E850974201D900F04F
:101FE400ADFCEA2205995200E950731CDE20DBB2F5
:101FF400AB54002240002A50CD32FF32A9504A4649
:10200400072A01D900F0DEFD083B5A425341DAB2F7
:10201400534640334946C9005B185968002900D12A
:102024000131E0277F00E8590130E8511B888142E3
:1020340001D800F05DFCE8225200AF58DB1B584386
:1020440004F070FEE422C3195200AB50E2225200A5
:10205400A85880225201904201DA00F0D1FB984442
:1020640080238F4A5B010492984510DA4346DB4390
:102074004246DB171A4090460BE0E42300225B0043
:10208400EB580492984480235B019845EEDB844B23
:102094009846B62302995B008946EA58474691441C
:1020A4004A46EA50159B002B4DDC7F433B0B0693BD
:1020B4004B469B0D5A0001337A4F9B055B0DBA5E6C
:1020C400F95E4B469B02891A9B0D4B43E1009B1220
:1020D4009B18091B9A460B0B0905090D9B460B001F
:1020E4004B431B0B5A00D2184B431B0B5B00D31AF8
:1020F40001934B461E0D6C4B9C46B44463460593BA
:102104004B46002B4CDB684B7F2E00D871E35246C4
:10211400D21094464A465400A20D51000132920551
:10212400520D795EBA5E0794A402521AA40D544368
:102134005A46A4126418062A01D900F06FFC5B49C0
:1021440092008A589746D82280215200AB588900C1
:102154000133AB508B422AD2DA235B00EF580433AD
:10216400EE588022159B5201934200DB4C4B5B439B
:102174001B0B9800C0184000C018142104F0D2FDB5
:1021840080234743BF1247445B019F4204DB444F13
:1021940080117043814488E7FB43DB171F40F7E756
:1021A400059B7F2B01D800F029FD414BAFE70023AD
:1021B400D6214048AB508446DA2049006A583E4B49
:1021C40040005A4362445343170E6344803F2F50E8
:1021D4001E0E6B50DC23803E5B00EE50C1E70122F3
:1021E400059C0892019A1B1B53435246D4461B1369
:1021F40006991B199B1A4B431B139C4481239B0078
:10220400EA58029813005343DB1243431B13E2467C
:10221400C118002A00DAC11AB8235B00EE588E19DF
:10222400EE50159B002B00DDEFE243465B431B0B96
:102234000593B30D5A0001339B055B0DBA5EF95E3D
:10224400B302891A9B0D4B439B129B180293330DC7
:102254009946154B4B440693002E00DA09E34B468E
:1022640011497F2B00D872E3029BDB109846700063
:10227400830D5A0001339B055B0DBA5EFB5E84023D
:102284009B1AA40D5C435B46A4120790A418062B6A
:1022940000D971E3094A9B00D3589F4694D8002083
:1022A400FF0F000088DD002000F8FFFF08D80020A1
:1022B400FF0700005FF36E3C0D66190024D8002070
:1022C4004B46D14AD21A079B9B195B00980D4100DB
:1022D40001308005400D795E385E9B02401A9B0DEB
:1022E40043439B125B1853431B1398460699C74BF1
:1022F4004A4352139044984500DA984680231B01C0
:10230400984501DBC24B98464B467F2B01D800F021
:102314000BFC80231B01994501D200F005FC4A46C1
:10232400B94B51009B1ABB4A5B00521AB400A41962
:10233400A00D410001308005400D795E385EA40295
:10234400401AA40D4443A41264185C435343241359
:102354009B13E418AD4B9C4200DA1C0080231B0144
:102364009C4200DBAA4C4346019AE31A5343029A67
:102374001B13059943449B1A4B431B139B1882223E
:102384001C0080219200AA580901544324138A4254
:1023940000DA0A00534352461B1353439B4A9B12D1
:1023A400934200DA130080221201934200DB984B1F
:1023B4005146149A14981201121A12025B1A12133B
:1023C40053431B135E18039B002B00D158E2BA221F
:1023D4005200AB58002B00D15AE2013B1803AB501A
:1023E400C01A602104F0C6FC874B181A049B874A64
:1023F40058430013444370430313934200DA130019
:1024040080221201934200DB814BF222AB527F4BBC
:1024140024139C4200DA1C0080231B019C4200DB35
:102424007B4CF423EC520BB0F0BCBB46B246A9463D
:10243400A046F0BD0322230008926446D2E64B4630
:102444007F2B00D8C7E3069B7F2B01D800F0E4FB69
:10245400029B8846DC1086E74B467F2B00D8C4E3FA
:10246400069B7F2B01D800F0E0FB089B062B01D9CB
:1024740000F0E8FB684A9B00D3589F464B465A003D
:1024840080231B01994500D344E3604B9C4694444C
:10249400B3009B199C0D60000134A405640D385EE3
:1024A4003C5F9B02241A9B0D63439B121B185343EE
:1024B40061461B1398464A43544B921390449845E3
:1024C40000DA984680231B01984501DB504B98465F
:1024D400F3009E1BB20D94465100785E990D4C009A
:1024E40001318905490D3C5F795E624601329B02E8
:1024F40092059B0D091B520D5943BA5EB302121A81
:102504009B0D5343891209199B121B184910CE18AD
:102514004B4676107F2B00D870E2C0239B00994570
:1025240000D26BE2C0231B01994500D229E34B463C
:102534001803181A394B3A49C01804F0F3FB041174
:1025440064E27F2E00D84AE3059A1C007F2A00D853
:1025540066E353460222DB10089243E6079B2A48AF
:102564004B445B00990D4A0001318905490DBA5E5F
:10257400795E9B02891A9B0D4B43059C9B12801B21
:102584009B18434344431B1364131C191F4B9C4265
:1025940000DA1C0080231B019C4200DB1C4C8023BE
:1025A40072001B019E4200D2CBE21A498B1A9C4650
:1025B40042004B469B004B449E0D70000136B6050D
:1025C400760D385EBE5F61469B02361A9B0D7343DF
:1025D4009B121B1853434A431B1392139B180B4A19
:1025E400934200DA130080221201934200DB084B6D
:1025F40006220892F6E5902109018E4200D269E292
:1026040004230893014BEDE5FF0F000000F8FFFFE2
:10261400FF070000FF17000040D8002001E0FF0082
:10262400FF03000090210901894500D3EBE24B46EA
:102634001803C01A04F076FBC64B181A4043C64B65
:1026440000131B1A98464A46C24B9B1A079A9419C0
:102654006400A10D4A0001318905490DBA5E795E15
:10266400A402891AA40D4C43A412A418069A5C432C
:10267400534324135B13E418B84B9C4200DB6DE610
:102684006BE6902109018E4200D3C3E23003801B24
:1026940004F048FBAF4BB04C181A40430013241A03
:1026A400079AAC4B4A445200900D4100013080051A
:1026B400400D9B1B795E385E9202401A920D424394
:1026C4009212521805995A434B4312135B13D318B1
:1026D400A24A934200DA130080221201934200DBE3
:1026E4009D4B052208927DE5802372001B019E42CA
:1026F40000D31FE2994BD31807934B469B004B44DE
:102704009C0D60000134A405640D385E3C5F241AFE
:10271400A4469C026346A40D5C43079BA4122418A0
:1027240054435A43241392138C4BA4189C4200DA4A
:102734001C0080231B019C4200DB874C4B464A460D
:10274400DB009A1A910D48000892385E079184467E
:10275400980D4200BA5E013091468005400D385E06
:102764004A4607999B02013189059B0D801A490D40
:102774005843795E6346C91A089B80129B029B0DDD
:102784004B4348449B1263444010C018431099467D
:102794007F2E00D886E1059B7F2B00D8F4E1C0236F
:1027A4009B009E4200D27DE1C0231B019E4200D2C9
:1027B400EAE16B4B3003301A6A49C01804F0B2FAEC
:1027C400021176E14B467F2B04D990231B019945D6
:1027D40000D31BE24B4690211803C01A090104F0F0
:1027E400A1FA5C4BA046181A40435B4C0013241A10
:1027F400B9E5594A94468DE45B4B9A46FFF7C5FB0D
:10280400C243D217104004903CE4D82280215200E5
:10281400AB5889000133AB508B423BD2DA235B00C7
:10282400EB589946DC235B00EC58802315985B0138
:10283400984200DB47484043000B83001B185B00B1
:102844001818142104F06EFA4B4643439B12984423
:1028540080235B01984505DB3E4B98468011444339
:102864003619E2E44346DB434246DB171A409046FE
:10287400F4E739497F2B00D9F6E4384B9846F6E45F
:10288400BA22344B52000493AB58002B00D0A4E579
:102894003048ABE500238020AB50D6223349404278
:1028A4008C4681465200AB58314C63436344190E45
:1028B4008944DA2148465C43DC2364444900685077
:1028C400AC50240E803C5B00EC50AEE7072B25D8BF
:1028D40053464033FFF79EFBB9239B00C35C002B98
:1028E4008AD099239B009C468444E246FFF74DFB23
:1028F400E42149006B504946D6200131FF30C9B26A
:1029040029540020E851D130FF302B50002A01D146
:10291400FFF79CFB082901D0FFF798FBEB2200236B
:102924005200AB54134AAA5C002A00D00DE1C5330F
:10293400FF33E8580433EB58FFF78BFB4B46072B68
:1029440000D93AE1534600224033FFF763FB024BC0
:1029540098468CE4FF0F0000FF07000000F8FFFF1B
:1029640001E0FF00FF03000000D900205FF36E3C8C
:102974000D66190061020000C0218900894500D359
:10298400B6E04B461803C01A04F0CCF98346031191
:102994000693F3009E1BB20D5100795E01328C4602
:1029A400990D4C0001318905490D3C5F795E9B020C
:1029B4009205091B9B0D520D4B43BA5E6146584666
:1029C400B602521AB60D56439B121B19B6125B106F
:1029D40066449E197610704300138046069B984403
:1029E400D04B984500DA984680231B01984501DBBB
:1029F400CD4B98464B467F2B00D98EE54B46C021E4
:102A04001803C01A890004F08DF904117043C54BF2
:102A1400001304199C4200DBA0E49EE4C021890059
:102A24008E426ED23003801B04F07CF903110890AF
:102A340009934B464A46DB009A1A910D48000792C7
:102A44003C5E980D89464200BA5E01309446494680
:102A54008005400D385E624601318905490D801AB2
:102A6400795E079A9B029B0D9202091B4343920DC8
:102A74004A439B126344921212195B10089C9B18E0
:102A84005B105C439946099B2413E418A54B9C42B4
:102A940000DA1C0080231B019C4200DBA24C7F2E29
:102AA40000D978E6C0213003801B890004F03AF98C
:102AB40002114B46584303139B189A4A934200DA77
:102AC400130080221201934200DB974B07220892E5
:102AD400FFF788FB3003801B04F024F90422934B96
:102AE4000892181A4043904B00131B1AFFF77AFB05
:102AF400C0231B0199453DD2FF2306938B4B9B4674
:102B040047E7C0231B019E4229D2FF230993874B29
:102B140008938EE74946854B5B1A85498A1A944681
:102B24005A00B5E4069B98464B467E4A5B009A18C9
:102B3400FFF7FCFB7D4B7E499B1B8A1A07925A00C8
:102B4400DBE5784B9C46944433E598229200AB54E1
:102B5400E2235B00E8580433EB58FFF77AFA754B2D
:102B64003003301AC018744904F0DCF803110890DB
:102B740009935EE74B461803181A6E4B6E49C0184A
:102B840002E7FF24694841E7FF22684891E7664C61
:102B9400069B9846FFF7E7FB069B984653E5069B82
:102BA4000C009846FFF7DFFB069C0EE6069B984652
:102BB400FFF7AFFB029BDC10EAE7E4235B00EB5872
:102BC400FFF747FA082B00D1A8E6E4235B000800CE
:102BD400EB58FFF73EFA8846534CFFF7C4FB1C0042
:102BE40002230893504BFFF7FDFA089B062B75D878
:102BF400524A9B00D3589F46069CEBE5494A4A4BF0
:102C04009446FFF787FA474B98461CE5A046454C87
:102C1400FFF7A9FB434C43E58846424CFFF7A3FB6F
:102C2400022308933F4BFFF7DDFA089B062B2ED8AF
:102C3400434A9B00D3589F46069B9846FFF76FFB79
:102C4400384CA5E707227243910D4B00FB5E9C466E
:102C5400F300980D440001308005400D3C5F385E60
:102C64009B02001B9B0D43439E124B1C9B055B0D5B
:102C7400F95E6346C91A93029B0D4B4336199B12A6
:102C840063447610F618069B7610984645E40722AE
:102C94007243910D4B00FB5E9C46F300980D44007B
:102CA40001308005400D3C5F385E9B02001B9B0D8C
:102CB40043439E124B1C9B055B0DF95E6346C91A88
:102CC40093029B0D4B4336199B1263447610F618FE
:102CD400069BFF2498461548761097E60722724310
:102CE400910D4B00FB5E01319C46F300980D4400AE
:102CF400013040003C5F385E9B02001B9B0D434348
:102D040049009E12795E6346C91A93029B0D4B4398
:102D140036199B1263447610F618069B7610984673
:102D24006CE6C04600F8FFFFFF070000FF0F00003D
:102D3400FF17000001E0FF00FF0300005CD8002043
:102D440078D80020F0B53F4BC9B000933E4BD82251
:102D5400019381239B00C6580433C358FF32039365
:102D64009C4600231900029604930593855CD03A8F
:102D7400FF3AAA4259416C464A4269461540334AD1
:102D8400257663766383079307A80B7801315A404D
:102D940013049B185B009B18DB009B18DB009B183B
:102DA4005B009A188842F0D12949E261254B0A68F0
:102DB4009A421BD0E022FF2110A804F0DFF9202260
:102DC400210008A804F0E0F9EFF3108472B6802122
:102DD4002048490109F0F2FD80221E48520008A94A
:102DE40009F034FE84F3108849B0F0BD8B88022BBF
:102DF400E0D1CB88202BDDD1CB69144A1F001648C3
:102E04000B7801315A4013049B185B009B18DB00BC
:102E14009B18DB009B185B009A188142F0D1974203
:102E2400C8D10B4B9A689642C4D1DA689445C1D193
:102E34001A69002ABED15A69002ABBD11B7EAB4253
:102E4400B8D1D1E7335A314302002000C59D1C811B
:102E540000F01F1000F01F001CF01F10F0B5DE463C
:102E640057464E464546E0B5554B0400C25C8BB010
:102E7400002A12D00021C154524BC25C0333C25405
:102E8400514BC25C514BC25401220733C252D82366
:102E9400FF33C35C002B00D056E28A235B00E05A68
:102EA4000233E35A80221BB2059386235B00E35866
:102EB4005200029388235B00E358F02107933C23DC
:102EC400FF33E35C49009846F823E6580433E3589B
:102ED400A25800B2914694229200A25C9446625C8D
:102EE400002A1DD1EC256D006259394FBA4215D81C
:102EF4003849013262518A4212D94246002A00D12D
:102F04005CE2E222FF32A25C002A00D05DE2324A97
:102F1400A15C002913D10131A15410E001226254B3
:102F2400E222FF32A15C002900D04EE22A4D625D0C
:102F3400002A59D04246002A01D100F02FFF012176
:102F4400264AA1546246022A01D100F05FFEC4451C
:102F540000D0F6E2942241469200A154183AA25CB1
:102F6400002A01D100F05AFFF4225200A6501C4955
:102F7400625C002A00D106E3F6225200A3500693B5
:102F8400184AA35C002B15D14D46F133FF33E158A9
:102F94002C33E358EB1ADF17DB197B403F2B00DCA3
:102FA40020E36B1ADD175B196B40602B00DD19E31E
:102FB4000123A354F8234A465B00E2501C3340E04B
:102FC400570200005502000056020000590200009A
:102FD4009F8C0000DF2E00004E0200004F02000014
:102FE400390200003A020000013262554246002ACA
:102FF400A5D14146E14AA15200210232A1544946D9
:10300400143AA6500432A3500432A150414610325F
:10301400A1500832A152942200219200A154D84A0E
:10302400A25C002A01D000F042FEF4235B00E658C3
:103034000433E3580693F8235B00E358994683234B
:103044009B00E3589B4684239B00E3589A466B46B7
:10305400562108229B5E0003FF31089303F062FEB1
:1030640098239B00E35C0500002B00D042E38023FF
:103074005B019E4200DA39E3C24B9800C018C14993
:10308400000303F04FFE4519E023DB019D4200DD00
:103094001D00BD4B9D4200DA1D00EB171A05120DF1
:1030A4001B0D5219ED182D0512132D0D0492ED1A56
:1030B40004D58023013A5B01ED1804926E00761961
:1030C400B61230030C21070003F02CFE03902D1AD6
:1030D40038008027AD4AB3009B587F010C21C019EA
:1030E4000292099303F01EFE03990136411AE80384
:1030F40003F018FE029AB600099BB2580021D21AB6
:103104005043C013C018A24A002303F0C1FE4B046D
:10311400C10B5918049B002B00DAFDE2994080236F
:103124009B00E358002B05D0CA1A511201D100F0BC
:1031340090FF591880239B00E150059B5D00069B7E
:10314400ED1880235B019D4200DA6AE28D4D089BF5
:103154005E0080234E445B019E4200DA51E2434606
:10316400884E002B00D053E26B461C229A5E002A44
:1031740000DCD4E25B465200D31880225201934211
:1031840000DBA5E2DA43D2171340802252019245B4
:1031940000DA31E27B4A0A20FF30205C00280DD09F
:1031A4000C20FF30205CC7B2BC46002806D1D820D2
:1031B400FF30205C002801D000F04BFE0192009308
:1031C4002A0033002000FEF7B9FEC02380215B00F3
:1031D400E2580901131C12B28A4200DB6D4B6E4A9D
:1031E4001BB2934200DA13006A486C49C31A5A01AD
:1031F400D21A9200D3180B60C22380275B00E258D6
:103204003F01131C12B2BA4200DB031C624A1BB218
:10321400934200DA13005F4AD21A53019B1A9B00AF
:103224009B184B60D4235B00E35C002B00D057E277
:10323400D02380221B0652005A61AA23FF33E35C89
:10324400002B00D046E2D02380221B0692005A6154
:103254006D43534A2B12116876434B401B0451496A
:103264001B0C0B60106833121B0443401B0C1B0423
:103274000B6082239B00E35A4B4E5B4330681B0276
:103284001B0C4340494D1B041B0C2B6083239B00E8
:10329400E35A30685B431B121B0443401B0C1B04A2
:1032A4002B6084239B00E35A41485B4307681B025D
:1032B4001B0C7B401B043F4F1B0C3B604346BC462E
:1032C400002B00D1B1E103681B0C1B043B6091236C
:1032D40000279B00E7500833E7529227BF00E359C9
:1032E400002B2AD0013BE351DB04334CDB0F013BC1
:1032F4002340244C1B195B4314681B125C402404B8
:10330400240C0C6012681C046240120C12040A6043
:1033140032685A401204120C2A6032686240120C5D
:1033240012042A600268534062461B041B0C13609B
:10333400036863401B0C1B0413600BB0F0BCBB465A
:10334400B246A946A046F0BDB6235B00C150043383
:10335400C1505F320433C25001224833C150083394
:10336400C1500833C1500833C152143BC150083313
:10337400C1500833C1500633C2548EE53E020000EA
:103384004F020000FF0F000000E0FFFFCCD8002038
:10339400314D5900FF07000000F8FFFF64E90020E9
:1033A40070000540701005408400054084100540FD
:1033B400980005409810054001F0FFFFE223012228
:1033C400FF33E25442460133E2540023F222A35273
:1033D4000232A352D94BDA4A1A605A60D0238022AF
:1033E4001B0652005A6192185A6180235B019E4267
:1033F40000DBE3E0F243D2173240D1008918D8222F
:1034040001200B0BFF32A35402001A40184200D0D3
:10341400CC4ACD4B1B685A401204CC4B120C1A6098
:1034240080220B0092011340114200D0C54BC64AC2
:103434001B04126853401B0CC44A1B0413608023F2
:103444000A00DB011A40194200D0BE4AC048C90B29
:10345400036853401B04BF4A1B0C1360002900D0AF
:10346400A8E003681B0C1B041360BB4BBB4A1B681E
:103474001B041B0C1360B84BB84A1B681B0C1B04C1
:103484001360F1235B00E25C002A01D100F07DFCB3
:10349400E4234246FF33E55C002A01D000F022FD1C
:1034A400002D00D18CE06346002B00D088E0EE2292
:1034B4005200A358AA498B4201D800F0C1FDF2265C
:1034C4007600A35D002B00D083E02000FFF73AFCD8
:1034D4000123A355A34B92229200A3506B425D415A
:1034E400A14B6D421D40A14B974AED186D431368E3
:1034F4002D126B4095491B041B0C0B6012682B04A6
:103504005A40120C924812040A60026891496A40B7
:103514001204120C0A6002688F485A40120C1204FA
:103524000A6002688D496A401204120C0A6002683B
:1035340053401B0C1B040B60942342469B00E25433
:10354400FBE64246012A00D018E16246012A00D176
:1035540000E58E2200219200A152854AA1544946D9
:10356400263AA6500432A3500432A15041463432C4
:10357400A154683AA1588E229200A25C002A00D07D
:10358400F2E40E00F3E4ED32FF32A5582C32A258D7
:1035940006959A1AD717D2197A403F2A00DCEFE42D
:1035A4005A1BD51752196A40602A00DDE8E401224B
:1035B4006254E1E401686F4B4B4053E76B4A1CE7EC
:1035C400E42201230021FF32A3540132A154083A1A
:1035D400A35092239B00E358002BADD0013BDD04A4
:1035E400ED0F78E783239B00E35889469B468423A9
:1035F4009B00E3589A462AE55046C243D21702403C
:10360400C9E5F343DB171E404346002B00D1ABE56D
:1036140080235B019B455BDA5A46D343DB17134097
:10362400B3E5EB43DB171D4091E50268514B534072
:103634001B0C1B043B6093239B00E55C002D0CD00A
:1036440091229200A35846498B4200D8EBE24A4E9D
:10365400A35D002B01D100F073FC92239B00E3587F
:10366400002B00D169E6013BDD04ED0F92229200AC
:10367400A3506B425D413C4A6B4213403B4A324982
:103684009B185B430A681B125A4030481204120C00
:10369400026009681A045140090C2D4C09040160A8
:1036A40021682C4859400904090C016021685140E3
:1036B400090C09040160284801684B401B04274990
:1036C4001B0C0B6003685A40120C12040A6034E6A7
:1036D400264B5AE5D02380221B0692009A61B7E557
:1036E400D02380221B0652009A61A6E5F343DB1720
:1036F4003340C2E496239B00E05C0C212438000391
:1037040003F010FB97239B0006000C21E05803F004
:1037140009FB36187519B7E45B42D940FFE4002A67
:1037240000D175E780235B019B4500DA76E20F4BFD
:1037340050465200821A924627E5C04664E90020AA
:1037440083E70300E0FF00007000054070100540AF
:1037540084000540841005409800054098100540F9
:10376400FFDB05007FBB000001F0FFFFFF0F00003F
:103774003A0200000000E0FF4D020000022A01D0DE
:10378400FFF7E8FB00224846E549625401316252E2
:103794001C3966500431635004316050404628316E
:1037A400605400200C39625008316252FC225200ED
:1037B400A1582C32A2589A1AD51752196A403F2A96
:1037C40000DD7AE30B00002800D03DE2FE224D46E6
:1037D4005200A1582C32A258AA1AD01712184240EB
:1037E4003F2A00DD26E28946DA00D31A5B001B1368
:1037F4000233102B00D91023D0225200A350983A40
:10380400A25C002A00D1D2E185225200A25CD1B28E
:10381400002A00D0CBE1D2225200A1500121FA2289
:1038240099405200A058BF4A0139821802D580221B
:103834001201121ABC20400025587838FF380600BF
:103844008046AC30FF302058D2100700B6482E40D6
:103854007843B64FC019FF2A06DCD243D2B2070E12
:10386400BA4201D94646AE43D6225200A050320095
:10387400013B9A401300BC22AA206D082B430B4045
:103884005200A3503032A6549A07D20FFF3022546C
:10389400CC2200205200A0501803C01A03F06AFA88
:1038A400A04BC018802345002D18AD029B002D139A
:1038B400ED1880231B019D4200DB9D4DC0235B005E
:1038C400E550043BE2581001801A40190011E05001
:1038D4000833E050002E00D155E3D823FF33E35CD6
:1038E400002B00D176E3DE2200235200A3500832DD
:1038F400A3500832A3500832A352143AA3500832FA
:10390400A3500832A35001330632A3543A3AA350C9
:10391400CC225200A3580133A3509622D2009342E2
:1039240003D9D42300225B00E252802229B22B1C4B
:103934001201914200DB7E4B7A4A1BB2934200DAB9
:1039440013007B4E7B49F31A5A01D21A9200D31802
:1039540080220B60031C00B21201904200DB331C76
:10396400704A1BB2934200DA1300714AD21A53010F
:103974009B1A9B009B184B60F42380225B00E35846
:103984005201934200DA3DE16B4B9800C0186A493A
:10399400000303F0C7F9AB005B19DB021B13C0186B
:1039A400E023DB01984200DD1800644B984200DA02
:1039B4001800C3171F051B0DC5183F0D2D053F1813
:1039C4002D0D3F13ED1A03D580235B01ED18013F44
:1039D4006E007619B61230030C21804603F0A2F96A
:1039E400574AB3009B580390049380232D1A4046F2
:1039F4005B01C0180C21029203F094F9039901367B
:103A0400411AE80303F08EF9029AB600049BB258F7
:103A14000021D21A5043C013C0184A4A002303F0AD
:103A240037FA4904C00B0818002F00DAECE1B8405B
:103A340080239B00E358002B04D0C21A501200D1FB
:103A4400D2E21818802380229B00E050103BE358F8
:103A54005201934200DAD1E0374BF6228021520022
:103A6400A25849018A4200DAC4E0334A8421890019
:103A7400615801918321890061580091010020005F
:103A8400FEF75CFAD4235B00E35C002B00D008E172
:103A9400D02380221B0652005A61AA23FF33E35C21
:103AA400002B00D0F7E0D02380221B0692005A613D
:103AB400BC225200A2580123110019401A4200D01E
:103AC4002149224B224A1B684B401B041B0C1360E8
:103AD400BC225200A2580223110019401A4200D0FD
:103AE4001C491A4B1A4A1B684B401B0C1B041360DD
:103AF400BC225200A2580423100018401A4200D0DD
:103B040011481549154A0B6843401B041B0C1360EC
:103B140084235B00E35C0B6896201B0C20E0C0460A
:103B24003B02000000F8FFFF0D6619005FF36E3CD6
:103B3400FF07000064E90020FF0F000000E0FFFF22
:103B4400CCD80020314D5900E0FF00007000054042
:103B5400701005400000E0FF84000540841005401B
:103B64001B041360D0235B00E258C00013039B1AAC
:103B74001B031B0C5B43E34A1B0211681B0C4B40E9
:103B84001B04E1491B0C0B60CE235B00E4580023AB
:103B940084425B4180205B4280030340DB4812681F
:103BA4001B1853401B0C1B040B60FFF7C6FBD221F0
:103BB40049006258D648824200D9C9E101326250B4
:103BC400CE22C020D421962652004000A358255866
:103BD40049000430615C2058F600B34200D2D7E1BA
:103BE400002900D094E6AA23FF33E35C002B00D124
:103BF4009BE68DE6D543ED172A4037E7DA43D21723
:103C040013402AE7DA43D2171340BEE64246022A9B
:103C14001FD0012A01D0FFF79DF99AE45846C34307
:103C2400DB17034084E50133A350BA4A934200D022
:103C340013E50CE56A1AD01712184240602A00DD19
:103C4400D1E50121B44AA154FE2249465200A150B3
:103C5400CAE5942240469200B04FA054E25D9125FB
:103C640094468F229200A25CAD009046AA4AA05CC2
:103C740000226251083562536246002A00D106E1EF
:103C8400FA225200A6504246002A00D18EE5FC22B8
:103C94005200A35097E5D02380221B0692009A611C
:103CA40006E7D02380221B0652009A61F5E69C4A5F
:103CB400A25C002A00D19FE19A4AB2183E2A00D899
:103CC400A5E0994AB61881229200A650F217B618B8
:103CD4005640802276005201964200DA88E1822220
:103CE40092499200A1509249625C002A13D1832226
:103CF4009200A5582432A258AB469A1AD6179219A4
:103D040072403F2A0BDD5A1BD61792197240602A63
:103D140005DC0122625483229B469200A350902228
:103D24009200A35C002B14D184234E469B00E558DB
:103D34002433E358AA46F31AD9175B184B403F2B98
:103D440017DD731BD9175B184B40602B11DC012363
:103D5400A35484234A469B00E250283BE65804338C
:103D6400E358CA460693F8235B00E3589946FFF7E5
:103D74006EF9F4235B00E6580433E3580693F82302
:103D84005B00E3589946FFF762F94246002A01D1E5
:103D9400FFF7D2FB0122E254FFF7CEFB6246022A70
:103DA40000D096E0C422634D5200AC46A258624F44
:103DB40094446546BD4209D8C8256D006251043D4E
:103DC4006251D5228C3D5200FF3DA554C4220025EA
:103DD4005200A55000229446942265469200A554B0
:103DE400043AA15449464E4AA5520232A554143A03
:103DF400A6500432A3500432A150504AA25C002AB7
:103E040001D1FFF712F96EE77F42F84010E68122F4
:103E140000219200A1500432A15064E7E932FF323C
:103E2400A1582C32A258B21AD51752196A403F2A07
:103E340001DCFFF7A0FB721AD51752196A40602AF9
:103E440001DDFFF798FB8E2201219200A154FFF7B8
:103E54008BF8B620400027500430275060270430E8
:103E640027506746483027500830275008302750DD
:103E7400083027521438275008302750083027506C
:103E8400EB27D038FF387F00E055FFF797F98822F9
:103E94009200A258B21AD51752196A403F2A00DC80
:103EA400F1E6FA225200A258B21AD51752196A4002
:103EB400602A00DDE7E6E155E2E65A1AD517521901
:103EC4006A40602A00DD7DE48F2201219200A15422
:103ED400DDE6002A01D1FFF79EF8614601394A4226
:103EE400514177E7002D01D1FFF726FBE2210022A3
:103EF400FF316254E254073BE2500833E254FFF7C7
:103F04001BFBC04698000540981005400000E0FFE8
:103F1400FF76010000DC05003D0200003B020000CA
:103F24003E0200001FF8FFFF00F8FFFFFF0F000034
:103F34003F0200009FF6FFFF9E6D01004F0200004C
:103F44002000FEF7FFFE0123A355444BFFF78EFB31
:103F5400CA214D4649006258AA1AD0171218424085
:103F6400402A18DCD5225200A25C6550002A17D0E2
:103F7400C6225200A258C420400021580131914267
:103F840025D221501CE6CE2301225B00E2502AE612
:103F94000133A35024E6D52200205200A0546550DA
:103FA4008022520191450DDB2D492D4A521A52436C
:103FB400110B2C4A4A432C49120B5218C6214900B2
:103FC4006250D8E74A46D143C9171140EDE70022B1
:103FD400225023E401229D33FF33E2509832FF3212
:103FE400A3580133A350A0E4511E8A41D01829E5F7
:103FF40082229200A65076E68B229200A258B21A30
:10400400D11752184A403F2A00DC6CE681228021F5
:104014009200A25809015218802149018A420BDBFF
:104024000F4AB21AD11752184A40602A00DD5AE6E4
:1040340001210E4AA1543FE6D143C9170A40F0E7D3
:104044000133A3500A4A934201D0FFF7C2FAFFF7A3
:1040540036FA511E8A41D118FFF76CF87FBB000075
:10406400FF0F0000A8DE0000B80B00003E020000B5
:1040740000DC0500024B1A78002A00D11870704742
:10408400AC070120034B1A78824201D100221A7036
:104094007047C046AC070120F0B5DE4657464E4691
:1040A4004546E0B5854BD7B01B780290834200D0DB
:1040B400C2E0002900D1BFE0002314AAD37116ABDB
:1040C4009A467F4B9B4614A9802352460298073197
:1040D40001F028FA002800D1AEE054462378504479
:1040E40005005246F02B21D0754A1100D6229200C9
:1040F4008E5804328F5C734A8A5C9146002F01D13A
:1041040000F06CFD00220021019200274A46F72BA3
:104114002CD06F2E00D896E00134AC4200D1B2E02E
:10412400237801270122F02BF1D12200541CAC4248
:1041340078D05378F02B00D195E0F72B01D100F023
:104144002BFD0020002281465F48561C01345A444E
:10415400012101271354AC4200D17EE001222378CF
:1041640001924A46F02BE0D0F72BD2D19146002A97
:1041740000D1B5E0621CAA4201D100F009FD6378C8
:10418400F02BD3D0012158468846BB460596F72B21
:104194003CD859B2002901DA00F0E8FC4B49465CEE
:1041A4000F21340037008C43103104948F43802F47
:1041B40001D0E02C2AD19527BF00C45D611C0419ED
:1041C4000394434CC9B2A446039CC1556444237070
:1041D40001291BD90023C3553E4BC15C0F23334037
:1041E4008B4213D16346C15C049B902B01D100F038
:1041F400DBFC802B01D100F0DBFC374BC35CDB0123
:104204000B4336495B189721890043500132AA4277
:1042140001D100F0B6FC1378F02BB8D1541C8346BE
:10422400AC4286D1264B002298464146254B0026B7
:10423400CA540123012133E057B0F0BCBB46B24657
:10424400A946A046F0BD914632001F48561C0134D1
:104254005A441354AC4200D080E701220123019256
:10426400002F13D117E0941CAC4201D100F0F7FCED
:104274009378F02B00D158E7012201210192002606
:104284000022012743E70122012391460C4A4C46B0
:1042940010000C4A8454019A002A05D0084A90461A
:1042A400D622404692008650002900D10BE7044AEA
:1042B4001100D72292008B5405E7C046AC070120B9
:1042C40010F300205D030000E5020000510200002D
:1042D40052020000620200005302000000E0FFFFEF
:1042E400052E00D846E7F14B9846B92342469B0079
:1042F400D358FF229343EE4A934200D03AE7BA22BE
:1043040041469200EB4B8A5A9A4200D032E7EA4B7C
:10431400CB5CDA1E012A01D800F069FC012B00D025
:1043240028E7672E00D025E74B46424636A94B8046
:10433400E24B4046D35CFE22DB0192011340BF22D4
:104344009200805C7F2202401343802252019342F8
:1043540000DBDB4B42469BB20C93DA4B4046D25C0B
:10436400FE23D2019B011A40C0239B00C35CFE20A4
:104374009B034003034040461343D34A805C7F229F
:1043840002401343D14A0493934201D800F088FCBD
:1043940004920C9BFE200B80049BCD4A4B60434649
:1043A4009A5C8001D2010240CA481B5C7F201840FD
:1043B400024380204001824200DBC14A93B2C12201
:1043C4000D9343469200985CFE22C0019201104076
:1043D400C14A9A5CFE2392035B031A40434602439C
:1043E400BE481B5C7F201840024310000592B74A68
:1043F400904201D800F07CFC05920D9B00220B81B9
:10440400059B4A81CB604346B54A985CFE22C001B5
:1044140092011040B34A9B5C7F221A4002438020E1
:104424004001824200DBA64A93B20E934346AE4A51
:10443400985CFE22C00192011040AC4A9A5CFE23B3
:1044440092035B031A400243C220434680001B5C74
:104454007F2018400243100006929C4A904201D8E3
:1044640000F03EFC069200220E9B4A820B82069BC1
:10447400C3224B6143469200985CFE22C001920124
:1044840010409B4A9B5C7F221A40024380204001DB
:10449400824200DB8A4A93B20F934346954A985C62
:1044A400FE22C00192011040934A9A5CFE239203BB
:1044B4005B031A404346024390481B5C7F2018402C
:1044C400024310000792814A904201D800F000FC98
:1044D40007920F9B00220B83079B4A83CB614346C1
:1044E400874A985CFE22C00192011040C4229200C7
:1044F4009B5C7F221A40024380204001824200DB01
:104504006F4A93B2109343467E4A985CFE22C001E0
:1045140092011040C52292009A5CFE2392035B0331
:104524001A404346024378481B5C7F2018400243EC
:1045340010000892654A904200D8C3E30892109B89
:1045440000220B84089B4A844B6243466F4A985C62
:10455400FE22C001920110406D4A9B5C7F221A40EA
:10456400024380204001824200DB554A93B2C622B6
:10457400119343469200985CFE22C00192011040C0
:10458400644A9A5CFE2392035B031A404346024347
:1045940061481B5C7F2018400243100009924B4A7B
:1045A400904200D8D1E30992119B00220B85099B0C
:1045B4004A85CB624346594A985CFE22C001920167
:1045C4001040574A9B5C7F221A40024380204001DE
:1045D400824200DB3A4A93B212934346514A985CB2
:1045E400FE22C001920110404F4A9A5CFE239203BE
:1045F4005B031A400243C720434680001B5C7F20B4
:104604001840024310000A92304A904200D896E3C0
:104614000A920022129B4A860B860A9BC8224B638D
:1046240043469200985CFE22C001920110403F4A2A
:104634009B5C7F221A40024380204001824200DBBF
:104644001F4A43460B923A4A985CFE22C0019201EB
:104654001040384A9A5CFE2392035B031A40434697
:10466400024335481B5C7F2018400243100003922C
:10467400164A904200D85CE303920B9B00220B87FE
:10468400039B4A87CB6343462C4A985CFE22C001B5
:1046940092011040C92292009B5C7F221A4002437F
:1046A4008020400182424CDB4AE0C04610F30020E7
:1046B400007D43315A330000EA020000FD0200008D
:1046C400FF0F0000FF020000FE02000000EE0200E7
:1046D40002030000010300000503000003030000BF
:1046E4000703000006030000090300000A0300009A
:1046F4000B0300000E0300000F0300000D03000075
:10470400110300001303000012030000160300004D
:104714001503000019030000170300001B03000029
:104724001A0300001D0300001E0300001F03000005
:1047340022030000230300002103000025030000DE
:10474400EB4A1392CA224346FE2092009A5C40032D
:1047540092030240E748185CFE23C0019B01184005
:1047640043461043E44A9B5C7F221A400243E348D9
:10477400824200D8D8E20200422000230B52139B4D
:1047840002380B5243464A64DD4A985CFE22C0015B
:1047940092011040DB4A9B5C7F221A400243802036
:1047A4004001824200DBD24A4346FE201392D64A9D
:1047B40040039A5C92030240CB208000185CFE23E5
:1047C400C0019B01184043461043D04A9B5C7F22A2
:1047D4001A400243C948824200D8A0E202004A209B
:1047E40000230B52139B02380B524346CA64C84A37
:1047F400985CFE22C00192011040C64A9B5C7F2255
:104804001A40024380204001824200DBB84A4346FA
:10481400FE201392C04A40039A5C92030240BF48B0
:10482400185CFE23C0019B0118401043CC22434670
:1048340092009B5C7F221A400243B048824200D817
:1048440068E20200522000230B52139B4A6502388F
:10485400CD220B5243469200985CFE22C001920185
:104864001040AF4A9B5C7F221A40024380204001E3
:10487400824200DB9E4A4346FE201392A94A40032B
:104884009A5C92030240A848185CFE23C0019B0175
:10489400184043461043A54A9B5C7F221A400243BA
:1048A4009648824200D830E202005A2000230B527C
:1048B400139B02380B524346CA659D4A985CFE22FC
:1048C400C00192011040CE2292009B5C7F221A40CC
:1048D400024380204001824200DB854A4346FE2099
:1048E4001392944A80019A5CD2010240CF20800046
:1048F400185CFE2380035B031840434610438E4A32
:104904009B5C7F221A4002437C48824200D8F7E134
:104914000200622000230B52139B02380B524346C1
:104924004A66864A985CFE22C00192011040844A7D
:104934009B5C7F221A40024380204001824200DBBC
:104944006B4A1392D0224346FE2092009A5C800167
:10495400D20102407B48185CFE2380035B031840AD
:1049640043461043784A9B5C7F221A4002436348C3
:10497400824200D8A1E102006A2000230B52139B5B
:1049840002380B524346CA66704A985CFE22C00144
:10499400920110406E4A9B5C7F221A4002438020A1
:1049A4004001824200DB524A4346FE201392694A88
:1049B40080019A5CD20102406748185CFE238003A0
:1049C4005B0318401043D122434692009B5C7F2234
:1049D4001A4002434948824200D869E10200722029
:1049E40000230B52139B4A670238D2220B524346D0
:1049F4009200985CFE22C00192011040574A9B5CD1
:104A04007F221A40024380204001824200DB384A60
:104A14004346FE201392524A80019A5CD20102401E
:104A24005048185CFE2380035B0318404346104340
:104A34004D4A9B5C7F221A4002433048824200D890
:104A440029E102007A2000230B52139B02380B52F7
:104A54000C9B0D98CA671A1C834200D2021C0E9B41
:104A640090B2984200D21A1C0F9B90B2984200D286
:104A74001A1C109B90B2984200D21A1C119B90B23F
:104A8400984200D21A1C129B90B2984200D21A1C6F
:104A94000B9B13439AB2002A01D1FFF76BFB059BD2
:104AA400069A9C46049B63449B18079A9B18089A91
:104AB4009B18099A9B180A9A9B18039A9B18F02230
:104AC4009200934201D2FFF755FB99208000802287
:104AD400404402F059FBB923012241469B00CA54C9
:104AE40090220F3BFF3B1201CA52FFF743FBC04623
:104AF400FF0F0000270300002603000000EE020061
:104B04002A030000290300002D0300002B030000EA
:104B14002F0300002E0300003203000031030000C5
:104B240033030000370300003603000035030000A0
:104B3400390300003B0300003A0300003E03000079
:104B44003D030000410300003F0300004303000055
:104B54004203000045030000460300004703000031
:104B64004A0300004B030000490300007A49013264
:104B74004354952300219B00C154AA4201D0FFF75E
:104B84004AFB5F46414683460023059EFFF768FBC8
:104B940000230121FFF764FB002399460133012719
:104BA40000260193FFF7E6FA6C4BC35C002B5FD140
:104BB40096239B00C35C8B4201D0FFF727FBD823CD
:104BC400FF33C35C002B60D0EB235B00C35C002B82
:104BD4005BD00121624BC154FFF718FB00215846FA
:104BE40052468846BB4601910596FFF7D0FA0B2E34
:104BF40001D0FFF7BFFAFE225A4B9201CB5CDB01D6
:104C04001340594A895C7F220A401343802252018F
:104C1400934238DA4146554A40468A5C0F21114096
:104C2400BB2203919200825CFE2041468001D201A6
:104C340002404F48095C7F20084002438020400125
:104C440082421EDA8320414680000A508422920068
:104C54008B504246474B0399D154FFF78BFA0122FC
:104C6400019200220026012391460121FFF70EFB49
:104C7400414C0155414943540121414BC154FFF773
:104C8400C5FA404ADEE73F4BC4E7982300219B0066
:104C9400C154FFF7BBFA002A00D0D3E60132D1E6B3
:104CA400002B01D0FFF775FB01330493FFF771FB71
:104CB400002A00D093E6013291E6002A00D05BE698
:104CC400013259E6031E00D039E40133089336E477
:104CD400031E01D0FFF7FDFB01330793FFF7F9FB38
:104CE400031E01D0FFF7BFFB01330693FFF7BBFBA5
:104CF400031E01D0FFF781FB01330593FFF77DFB12
:104D0400002A00D005E6013203E6002A00D0CCE5F3
:104D14000132CAE5002A00D094E5013292E5002A66
:104D240000D05CE501325AE5002A00D024E50132C6
:104D340022E5031E00D0A0E4013303939DE4031E87
:104D440000D066E401330A9363E4031E00D02BE42D
:104D54000133099328E4C0465102000053020000C5
:104D640061020000EE020000ED020000EF0200000C
:104D7400EB0200006202000055020000560200002F
:104D840057020000FF0F00007047C04610B50548E9
:104D940002F0FAFB0448054B186007F0F9F800200C
:104DA40010BDC0461502002010F30020F0F90020C9
:104DB40070B57A4C00252000FCF7A0FE784B794AA8
:104DC4002360B6235B00E5500433E5500433E5501B
:104DD4000433E250C6220433E5500433E55004336F
:104DE400E5500433E550704B5200A3500432A350F5
:104DF400802396211B010432A3500432A550C9001C
:104E04000432A15010210432A15068490026043212
:104E1400A150D6210432A5520232A654AA3AFF3A2E
:104E240049006250043165500431655004316550C5
:104E340004316550043165500431655004316550C6
:104E4400043165505A480431655004316050FC20E7
:104E540004316550043165500431655004316654A1
:104E6400043163500431655004316550043163509A
:104E74005049400021500430235004302550043060
:104E8400255004302550043025500430255004307A
:104E9400235004302550043025500430235004306E
:104EA40021508A2189006350043163508C239B0074
:104EB400E55041490433E5500433E1500221043301
:104EC400FF31E1500433E6540433E5500433E55034
:104ED4000433E5500433E2500433E654374B3B3299
:104EE400E254374B2832E254364B374AE654013306
:104EF400E2520433E5500433E552344B8022E65445
:104F040002330021E01802F039F9B9239B00E6547A
:104F14002F4B70220021E01802F030F9D6232D49DE
:104F24009B00E5500433E5520A682B4B9A4200D0AB
:104F340070BD8B88022BFBD1CB88202BF8D1CD6997
:104F4400264A27480B7801315A4013049B185B000A
:104F54009B18DB009B18DB009B185B009A188142AE
:104F6400F0D19542E4D181221A4B92009968A15064
:104F74008022DB68520193420CDB0E4B82229200AA
:104F8400A350144B1B7E082B00D90023D822FF32D8
:104F9400A354CDE7DA43D2171340EFE710F3002010
:104FA400C8D80020E1AC0000E02E0000007701002A
:104FB40008080000FF0F0000010101015502000074
:104FC40056020000570200003C6400006202000028
:104FD400E502000000F01F10335A3143C59D1C81C7
:104FE4001CF01F1000487047BCE7002000487047C1
:104FF40054E7002070B5002826D0032833D81B4B73
:105004008000C458200006F049FEC3B2181C1F2BB0
:1050140018D8C021C0B2421CD2B252008900114338
:105024000D00002B1CD0124B9C469A1C0023E15C03
:1050340001331180D9B202328842F8D863466046FF
:105044001D8070BD1F20E4E70A48C1250400074BFA
:105054000222196802F098F8A31E9C46AD00EDE701
:10506400034B9C46EAE70020EBE7C0466CE90020CE
:10507400040101200601012070B5164C82B0200005
:1050840003F0F4FF002805D02500D9232C3DEE5C65
:10509400002E02D0002002B070BD0120E97805F096
:1050A400DFFD0028F6D020000B49EA8804F060F800
:1050B400E978041E0AD00300074A012001960096ED
:1050C40005F01EFE0028E5D02000E4E7012005F0ED
:1050D400EFFDDFE714F1002040F10020F0B5244C8F
:1050E40085B0DC220021200002F048F8214E35680A
:1050F400280001F0EBFF20640700706801F0E6FF70
:1051040003906064337A01215800C018400001F014
:10511400FBFFE060002F26D0039B002B25D0002846
:105124001FD0AAB2200000250123390018300095B1
:1051340003F066FFB28820002600616C0123483624
:105144002C30009503F05CFF300000F0ABFEA6624B
:10515400260050363000656200F0A4FE0120A663EC
:10516400E56305B0F0BD3800FBE71800F9E7C04679
:10517400E8F0002080E9002010B50E4C206C0028D7
:1051840003D001F0E3FF00232364606C00280CD0FB
:1051940001F0DCFF0023E0686364002803D001F021
:1051A400D5FF0023E360012010BDE0680028F6D19C
:1051B400F9E7C046E8F00020F0B51C0083B00128F0
:1051C4002AD1D923334DEA54002A25D1AB788B4216
:1051D40025D0EB788B4248D001201EE028002C30EB
:1051E40003F044FF002844D1002C42D02000E98879
:1051F40001F0C0FD0C1E3CD10120E97805F030FD22
:10520400002836D0E978230022000120019400947C
:1052140005F076FDA0422CD1002003B0F0BD002C97
:1052240019D0A40817D02634A4002E192C00002766
:10523400983402E00434A64209D02368002BF9D044
:1052440004222100144804F09BF80137F2E7134BC1
:10525400002B16D1A97800242A00AB88287898322C
:105264000194009405F04CFDD7E7FFF705FF0028F3
:10527400B4D00B4B002BAFD00120FFF785FD0120EC
:10528400CBE7002FE6D039000120FEF705FFA9780F
:10529400E1E7C046E8F0002000F10020A93E00202C
:1052A400994B002070B5012824D1134B002B02D058
:1052B4000021FEF7E7FE114C200004F015F9200050
:1052C4002500143004F010F9002300222000183DBA
:1052D4006B602B81FF332B60273BEA5400210622AD
:1052E400083801F04BFF064B00211A7AE868920057
:1052F40001F044FF70BDC046953E002000F100203F
:1053040080E90020F8B5DE4657464E464546E0B5EE
:10531400012906D1D92100206A4C60545179012910
:1053240006D00020F0BCBB46B246A946A046F8BD54
:105334009079002101286BD00328F2D115785019F7
:105344004678B446242676426644012E00D87FE08F
:105354006646052EE5D19278691889B262708B424F
:1053640000D8A0E0584A15685268A9469046002221
:1053740000259346924623E0252A29D0052AD0D138
:105384004279057912022A43402A04D94022027143
:105394000022427140328578EE092DD1E678677A91
:1053A4003E43BED1424500D942468346E570E28081
:1053B4000278511889B299424FD2801842789446A3
:1053C4006246242AD8D18278013A032AA9D8EFE781
:1053D4008278012AA5D1002DA3D0EA0928D1E27848
:1053E400AA429ED1627A002A9BD1C2786272027864
:1053F4000025511889B2DEE7A678277A3E4300D00B
:105404008FE74A4500D94A468246A570A280CFE775
:10541400002B07D185E710784118121889B250790A
:105424008B4210D90128F6D190790328F3D183E770
:10543400A278AA4200D074E7227A002A00D070E74A
:10544400C2782272D3E7012800D06AE7907973E723
:105454008678012E00D064E77DE7E378002B1AD02C
:10546400637A002B17D05346002B06D051460120F7
:1054740005F080FC002800D153E75B46002B06D0E2
:105484005946012005F076FC002800D149E70123A4
:105494000120237046E7A378002B00D141E7237A4B
:1054A400002BE0D13DE7E378002B02D0637A002B98
:1054B400EDD1A378002B00D133E7237A002BE6D17A
:1054C4002FE7C046E8F0002080E9002070B50E0008
:1054D40082B001281ED1114CD82300252200E054AB
:1054E400A388A178207898320195009505F008FCEE
:1054F400051E0FD00A4B002B07D0607A237AE2787E
:10550400A17800900120FEF7B5FD3100012005F0DF
:1055140059FC00E00025280002B070BDE8F000202E
:10552400853E0020F0B557464E46DE464546E0B57A
:1055340014000F00994685B001280ED100290CD023
:10554400002A0AD0002B08D0604D02AA2800D11DE1
:10555400A84603F083FE002808D10026300005B0D9
:10556400F0BCBB46B246A946A046F0BD290002AA3B
:10557400D37928001B0904223B70083903F0F8FD95
:105584000428EAD1524B0026183D00931CE0009BEE
:105594009C4618885B46184240D102AB4046D91D50
:1055A40003F05CFE0028D9D002ABDB793A781B0902
:1055B4009A42D3D1404601000422083903F0D8FDB1
:1055C4000428CBD1B145C9D92B7C1B093B702A7A5D
:1055D4009A42E2D901229A4093B29B461123EB5698
:1055E400697C002BD3DAF02911D0EF2935D80B09C7
:1055F4000C3BDBB2012B46D9032303209A46344AE1
:105604005B46944612889A4363461A8015E0304BF1
:1056140018889C465B461843634618801223EB5651
:10562400AA7C002B3ADB1322EB7C0193AA560223BB
:10563400002A2CDB01339A4618002170844602218B
:10564400504601346A18137C4A1C23700321013428
:105654008242F7D9604636189FE7F7290ED8F32916
:1056640018D006D8F12915D00323F22103209A4635
:10567400E3E70B000A33DBB2012B8ED80120217043
:105684003618013489E7022302209A46B7E7019BC2
:10569400F72B18D0022302209A46CEE7F72A09D026
:1056A4001322EB7C0193AA560123002AC2DA019B40
:1056B400F72BE3D1012301339A465B4662469843B4
:1056C40010805046B9E70223F5E7C04600F10020F8
:1056D400AA07012001230370004870478CE90020C9
:1056E40010B54024074A83009A181268C000544039
:1056F400C0222240044C1B191A60044BC01841609C
:1057040010BDC04604C0014004D001400040014027
:10571400064B8000C3181B68C90092000A435A4014
:105724000C231340024A80180360704704C00140F0
:1057340004D001408000002904D0054BC018402348
:1057440003607047034BC01840230360F9E7C04669
:1057540004E0014004F001400123D02283401206FA
:1057640093629361084A83009A1811684022514059
:1057740080320A400549C0005B181A60044BC01807
:10578400052343607047C04604C0014004D0014073
:10579400004001408023DB051868000F7047C046B5
:1057A4000FB400B5084883B001F05EFE049B002BE3
:1057B40007D005A91800019101F0F4FC034801F099
:1057C40053FE012001F006FDCCE50020DCE50020BD
:1057D40070B58C461600EFF3108472B60F490B684F
:1057E400002BFCD0BFF35F8F6346DB08C51807228C
:1057F400C05C63461A40012393401A0002400342EE
:1058040007D118432870BFF35F8F0A6084F31088B0
:1058140070BD61463000FFF7C3FFC0462C0100D0C5
:10582400F8B5CE4647468C4680B51C00EFF3108889
:1058340072B61C490B68002BFCD0BFF35F8FA242E9
:1058440021D80723994602E00132944218D34946ED
:10585400012611408E40D308C718C35C1E42F3D101
:10586400100033433B70BFF35F8F00220D4B1A606F
:1058740088F3108800280EDBC0BCB946B046F8BDDA
:1058840001204042EFE7BFF35F8F00230B6088F3F2
:105894001088012040426346002BEDD00898FFF7A2
:1058A4007FFFC0462C0100D0044A1078431CDBB2B1
:1058B400172B00D9102313707047C046A8E90020A5
:1058C40000B5054B83B00100009318221F23034841
:1058D400FFF7A6FF03B000BDE0E50020D4000120DF
:1058E4000021044B044ABFF35F8F02C39342FAD1F1
:1058F4007047C046000100D0800100D0084B094A1F
:105904001360094A1360094A1360094A1360094A7B
:105914001360094A1360094A1360094A1360704707
:105924008080808000E400E004E400E008E400E01B
:105934000CE400E010E400E014E400E018E400E00B
:105944001CE400E01F2318401E3B8340002905D0BF
:10595400C021044A49005350136070478022014912
:105964008B50FAE700E100E001228240034B1B6800
:1059740013405A1E9341D8B27047C04600E100E07C
:1059840070B50D00EFF3108672B60F4A1368002B42
:10599400FCD0BFF35F8F0D4B10309B6884001B5904
:1059A4000B4A934203D09D4201D001F07BF8074B90
:1059B4009B681D51BFF35F8FBFF35F8F0022024BC3
:1059C4001A6086F3108870BD240100D000ED00E059
:1059D400C1010010F0B5DE4657464E464546E0B5D7
:1059E400824683B08B461700EFF3108872B6604A84
:1059F4001368002BFCD0BFF35F8F00255D4B5D5710
:105A04009946002D00DA9AE04A466B005A4C5E191A
:105A1400B6000193A31900939B791370574B9A68AE
:105A2400534610339B00D15899460B1B2F2B32D968
:105A3400534B994200D098E0019B0236ED18514B2C
:105A4400AD006353504BA619043B9B1B4F4A1B05E7
:105A54005B0D651913436B804D4B0121AB80FF2314
:105A6400AB715B46AB60009BEF710B4319004A4678
:105A7400424B9B689950BFF35F8FBFF35F8F002247
:105A84003B4B1A6088F3108803B0F0BCBB46B246A7
:105A9400A946A046F0BD01200A008243D379B4464A
:105AA400BB422DD83B4BB51C190013001B1B5B419B
:105AB4005943090D8C46334B6519A353324B009956
:105AC400043B5B1B1B05314D5B0D2B4304364B80A4
