:020000041000EA
:1000000000B5324B212058609868022188439860DF
:10001000D860186158612E4B002199600221596106
:100020000121F02299502B49196001219960352056
:1000300000F044F80222904214D00621196600F024
:1000400034F8196E01211966002018661A6600F04E
:100050002CF8196E196E196E052000F02FF8012189
:100060000842F9D1002199601B49196000215960AB
:100070001A491B48016001219960EB211966A021F2
:10008000196600F012F800219960164914480160C1
:100090000121996001BC002800D000471248134993
:1000A000086003C880F30888084703B5996A0420EC
:1000B0000142FBD001200142F8D103BD02B5186610
:1000C0001866FFF7F2FF186E186E02BD00000240BE
:1000D000000000180000070000035F00212200005C
:1000E000F4000018222000A00001001008ED00E03C
:1000F00000000000000000000000000074B24E7A12
:1001000000200420F7010010C3010010C5010010F9
:10011000C1010010C1010010C1010010C101001097
:10012000C1010010C1010010C1010010C701001081
:10013000C1010010C1010010C9010010CB01001065
:10014000CD010010CD010010CD010010CD01001037
:10015000CD010010CD010010CD010010CD01001027
:10016000CD010010CD010010CD010010CD01001017
:10017000CD010010CD010010CD010010CD01001007
:10018000CD010010CD010010CD010010CD010010F7
:10019000CD010010CD010010CD010010CD010010E7
:1001A000CD010010CD010010CD010010CD010010D7
:1001B000CD010010CD010010CD010010CD010010C7
:1001C00000BE00BE00BE00BE00BE00BEEFF3058054
:1001D000103800BEF2EB8871209505104C95051083
:1001E0003802001090A31AE71E481F49086006C88D
:1001F00081F3088810471D480068002801D019487D
:10020000F3E70DA40ECC002902D000F012F8F9E7B4
:100210001749184A002000E001C19142FCD116495B
:100220008847164988471649884700BEFDE701C937
:1002300001C29A42FBD370474C950510C0000020C4
:100240008819002014AE05100000042000000420CE
:1002500014AE05100010042000100420000000005F
:10026000704700000000000008ED00E0000000D032
:1002700088190020AC340020B1B700106539001097
:1002800071B70010F8B5C04606480749091A8B1027
:10029000C90FC91810B5491003D0044B002B00D06A
:1002A000984710BD88190020881900200000000020
:1002B000054B10B5002B03D00449054800E000BFF2
:1002C000FFF7E2FF10BDC046000000002030002014
:1002D000CC3C041010B50121040011F053FB01388F
:1002E00004F014FC011C20000FF090F9012010BD57
:1002F00010B5012111F046FB034B010018000BF073
:10030000F9FC002010BDC046D03C041010B50121FE
:10031000040011F037FB104B1B68002B12D0421E5B
:10032000012A0FD8012813D0F622985A00B208F0FB
:1003300059FF0A4908F0F3FEE821890508F0EFFEAD
:10034000011C00E0002120000FF060F9012010BD29
:10035000F422985A00B2EAE7C41E00200000C04010
:1003600010B50121040011F00DFB2100013803F04C
:10037000E9FF0321200049420EF098FB002010BD48
:1003800070B50121040011F0FDFA022105002000E2
:1003900011F0F8FA0100681E04F006F803212000AD
:1003A00049420EF083FB002070BDC04670B50121AC
:1003B000040011F0E7FA02210500494220000EF086
:1003C00075FB681E04F084F8010020000FF026F988
:1003D000012070BD074B10B51B68002B06D05933A8
:1003E000FF3319680FF01AF9012010BD00210FF03A
:1003F00015F9F9E7C41E002010B50121040011F021
:10040000C1FA013804F07CF80221200049420EF0C4
:100410004DFB002010BDC04670B50121040011F055
:10042000B1FA02210500200011F0ACFA0321060008
:10043000200011F06FFA3100021C681E04F06CF805
:100440000421200049420EF031FB002070BDC0465F
:1004500070B50121040011F095FA02210500200079
:1004600011F090FA0100681E04F068F80321051CE1
:10047000494220000EF01AFB2000291C0FF0C6F89C
:10048000012070BD70B50121040011F07BFA02213A
:100490000500200011F03EFA041C681EC0B204F0F2
:1004A000D3FE00280CD0221C064904F019FF201CA2
:1004B00008F008FF02000B00034829000BF01AFCAB
:1004C000002070BDCD0400100C3D041070B5134A1F
:1004D00086B013680600013313600D1C082200214A
:1004E00004A809F0F7FB0E4B01AC019301236660F1
:1004F0002373A56006F020FC00290AD0FA2200230D
:10050000920007F093FD2061200005F07FFA06B00D
:1005100070BDFA21890007F04BFDF4E7D81E0020DA
:100520008D17001070B5194A86B0136804000133A6
:100530000D1C136007280BD8FC21281C890508F026
:100540003BFE431E9841124B1A57824217D0185552
:100550000822002104A809F0BDFB0E4B01AE019357
:100560007460B56006F0E8FB00290AD0FA22002387
:10057000920007F05BFD3061300005F047FA06B0ED
:1005800070BDFA21890007F013FDF4E7D41E0020A6
:1005900040100020DD15001010B5040006F0CCFB63
:1005A000002912D0FA220023920007F03FFD07F045
:1005B000DDFF0022074B07F048FF08F05BF8011C45
:1005C00020000FF023F8012010BDFA21890007F068
:1005D000EFFCECE700408F40F0B5DE4657464E4654
:1005E00045460400E0B52D4887B00BF083FB0121A0
:1005F000200011F0C7F902210500200011F08AF94E
:1006000003218146200011F085F900228246042151
:10061000200011F043F90400484608F053FE04900E
:100620000591504608F04EFE049A059B06000F0007
:100630001B4829000096019702940BF05BFB681E93
:10064000C0B204F001FE8046002821D0200004F052
:100650000FFE834621005A4612480BF04BFB5B46C7
:100660004A46404610490093534604F051FE049A0E
:10067000059B2900009601970C4802940BF03AFB69
:10068000002007B0F0BCBB46B246A946A046F0BD6C
:10069000290007480BF02EFBF2E7C046343D04105A
:1006A0005C3D0410943D041025050010BC3D041071
:1006B000F43D0410F0B5CE46474680B5012185B023
:1006C000040011F05FF902210500200011F022F969
:1006D0000321061C200011F01DF904218046200092
:1006E00011F018F98146681EC0B204F0ADFD002873
:1006F0001CD001234246104900934B4604F008FEEB
:10070000301C08F0DFFD060048460F0008F0DAFD57
:1007100002900391404608F0D5FD084C00900191ED
:1007200032003B00290020000BF0E4FA002005B065
:10073000C0BCB946B046F0BD250500101C3E0410F3
:10074000F0B5CE46474680B5012193B0040011F0C4
:1007500019F90221804620000EF0F4FA052808D08D
:1007600025480BF0C7FA002013B0C0BCB946B0460C
:10077000F0BD0321200011F0CDF8022181462000B8
:100780000EF034FE0700102831DC002815DD0125AD
:1007900002AE2A00022120000FF092F9012100226E
:1007A000494220000EF0ECFC022101C64942200023
:1007B00001350EF07BF9AF42EBDA4346581EC0B26A
:1007C00004F042FD0028CED04B4602AA00930B490C
:1007D0003B0004F0DFFE484608F074FD084C009032
:1007E00001913A00414620000BF084FABBE7102744
:1007F0000028CCDCE1E7C046583E0410250F00106D
:10080000843E0410F0B5C64600B5012194B0040042
:1008100011F0B8F80221060020000EF093FA00272C
:1008200005282CD00321200011F074F80421051CA8
:10083000200011F06FF88046701EC0B204F004FD75
:10084000002817D0434604AA2049019300953B0095
:1008500004F07CFD404608F035FD02900391281C11
:1008600008F030FD1A4C009001913A003100200050
:100870000BF040FA002014B080BCB846F0BD022155
:1008800020000EF0B3FD070010281BDC0028C9DD96
:1008900004AB984601252A00022120000FF010F930
:1008A00001210022494220000EF06AFC4346022149
:1008B00001C349422000013598460EF0F7F8AF42D7
:1008C000E9DAAFE710270028E2DCABE7250F0010DC
:1008D000B43E041070B50121040011F053F8022158
:1008E0000500200011F016F8041C681EC0B204F0C8
:1008F000ABFC00280CD0221C064904F09FFE201CF3
:1009000008F0E0FC02000B00034829000BF0F2F9AC
:10091000002070BD250F0010F03E0410F0B5C64653
:1009200000B5012182B0040011F02CF8022105006D
:10093000200010F0EFFF0321061C200010F0EAFF5A
:100940008046681EC0B204F07FFC002815D0321C1F
:1009500043460C4904F0A8FE301C08F0B3FC060026
:1009600040460F0008F0AEFC074C009001913200A9
:100970003B00290020000BF0BDF9002002B080BC34
:10098000B846F0BD250F0010183F041070B50121C6
:10099000040010F0F7FF02210500200010F0BAFF5C
:1009A000041C681EC0B204F04FFC00280CD0221CAE
:1009B000064904F0AFFE201C08F084FC02000B0086
:1009C000034829000BF096F9002070BD250F001098
:1009D000483F041010B5012110F0D4FF0400013885
:1009E000C0B204F031FC002805D004F06FFC2100F7
:1009F00002480BF07FF9002010BDC046883F04106C
:100A000070B50121050010F0BDFF0221040028008F
:100A100010F080FF051C011C200004F059FF281C69
:100A200008F050FC02000B00024821000BF062F9B4
:100A3000002070BDB43F041070B50121050010F016
:100A4000A1FF02210400280010F064FF051C011C16
:100A5000200004F03DFF200004F0FAFE281C08F0FE
:100A600031FC02000B00034821000BF043F9002089
:100A700070BDC046D43F041010B5012110F082FFB4
:100A8000040004F005FF210002480BF033F90020B8
:100A900010BDC046FC3F041070B50121050010F0E8
:100AA00071FF02210400280010F06CFF0500010016
:100AB000200004F01FFF2A00210002480BF01AF961
:100AC000002070BD1040041070B584B00C0003AB62
:100AD00002AA01A9060006F05DFF051E04D1002C44
:100AE00009D1200004B070BD039A0299019806F064
:100AF00075FE2C00F5E73100014805F09DFBC0466E
:100B00002C400410F0B5C64600B582B004000DF0CC
:100B1000C5FF2049070020000EF038FE002F2CDD15
:100B20000023012598460121200049420EF0DAF801
:100B3000290020000EF0D6F84346012201212000B2
:100B4000009300230FF022FB0121002220004942E4
:100B50000EF0D4FB061E08D0012D02D009200AF0A9
:100B6000FBFF31000C480BF0C5F802212000494280
:100B700001350DF09BFFAF42D5DA08480BF036F88F
:100B8000074B1B68986832F053FE002002B080BC0F
:100B9000B846F0BD60400410C05B0410583D04101E
:100BA000D0170020F0B5C64600B504000DF076FF62
:100BB0000100022855DD00220121200010F06EFE08
:100BC00002210500200010F0DDFE4E49060028003D
:100BD00037F07AF900281BD028004B4937F074F918
:100BE000002854D02800494937F06EF900283CD13C
:100BF0000321200010F08EFE08F064FB02000B00C1
:100C0000434831000BF076F8002080BCB846F0BDB8
:100C10002000032110F07EFE3E4D041C2B681F2B8C
:100C200029DD3D4B1D68002DEED0771E032FEBD83C
:100C30003A49201C08F0C0FA002833D13849201C5A
:100C400008F0A4FA002842D1201C364908F067FABF
:100C500008F0EAFA34498046C00207F081F904B28C
:100C600024E032480BF046F8CEE732002900304845
:100C70000BF040F8C8E708F025FB0B00020031003C
:100C80002C480BF037F82B6801332B60C9E70321A0
:100C9000200010F077FE284B0200310018000BF006
:100CA00029F8B1E7204B80249846240142463900B8
:100CB000224804F05BFF032E17D0042E09D0022E29
:100CC00002D0D223EC529FE7D423EC529CE7144885
:100CD000BBE71B4B1A681B4B1B1BDB031B0C534056
:100CE0001B04194A1B0C13608EE7154B1A68154B31
:100CF0001B1B5B101B0453401B0C134A1B0413608B
:100D000082E7C046E8650410B4400410EC400410CB
:100D1000F4400410DC1E0020C41E00200000C0406F
:100D20000000C0C000007A44701700006C4004103E
:100D30001C41041094400410BC400410601E0020AC
:100D400048000540FF07000048100540F0B5DE46AA
:100D500057464E464546E0B56448C5B00AF046FFE2
:100D600063480AF043FF05F0D7F880220023614E64
:100D7000614C002130005200236008F0ABFF5F4B54
:100D80005F4F9A465F4B01935F4B03935F4B9946CE
:100D90005F4B98465F4B9B465F4B0293FA20800067
:100DA0000AF08EFE0500831C47D02368002B02DB6F
:100DB0002368FF2B0ADD50460AF018FF802200232B
:100DC000002130005200236008F084FF2368FE2BCE
:100DD0004BDC00222368F554236801332360236829
:100DE000F2542368002B28D0721ED25C0D2A24D81E
:100DF0004A4BD340DB0720D522680AE0511E735CC2
:100E0000093BDBB2172B43D84548D840C0073FD534
:100E10000A00002AF2DC0023B354002A3AD12260EF
:100E200001320021FF32300008F054FFFA20800028
:100E30000AF046FE0500831CB7D1802104A84900B2
:100E400005F098F80028A9D004A948460AF052FFF6
:100E5000414604A834F0A2FA00280FD03B689868F5
:100E600032F0E6FC05F09CF898E780220023002190
:100E700030005200236008F02DFFAAE7594604A86D
:100E800034F08CFA0028E9D102980AF0AFFEE5E7C9
:100E90000023B354300005F051F8002808D0802218
:100EA0000023002130005200236008F013FFC4E744
:100EB00005F042FF002912D0FA220023920007F029
:100EC000B5F80500FA22019B92001B68EB1A9342C9
:100ED000E5D903980AF08AFE019B1D60DFE7FA213D
:100EE000890007F065F80500ECE7C04648410410AA
:100EF0007C410410581D0020741E0020A4410410E1
:100F0000D0170020B4200020D8410410C05B04108A
:100F1000903D04108C450410583D0410012400003D
:100F20001300800070B5194A86B0136804000133BD
:100F30000D1C136007280BD8FC21281C890508F01C
:100F40003BF9431E9841124B1A57824217D018554D
:100F50000822002104A808F0BDFE0E4B01AE01934B
:100F60007460B56005F0E8FE00290AD0FA2200237B
:100F7000920007F05BF83061300004F047FD06B0E6
:100F800070BDFA21890007F013F8F4E7D41E0020A1
:100F900040100020DD150010F0B5DE4657464E46E5
:100FA0004546E0B59BB0040004F04AFFCF4AD04963
:100FB000136801338B4200D9CEE11360FA21CD4A88
:100FC0008900136801338B4239D300231360F42264
:100FD000A35AF623E15AA05AE55A00B208F002F9E2
:100FE000C54908F09CF8E821890508F098F8FC212B
:100FF0004000400889052DB208F0DEF8002811D124
:10100000280008F0EFF8BC4908F089F8E8218905C4
:1010100008F085F8FC2140004008890508F0CCF86C
:10102000002807D0B54BB64A1B68DB431B041B0CDA
:10103000136005E0B14BB24A1B681B041B0C136024
:10104000F423E05A00B208F0CDF8AB4908F067F895
:10105000E821890508F063F8F623061CE05A00B27F
:1010600008F0C0F8A44908F05AF8E821890508F00A
:1010700056F8A449A44F0B68051C9A00D6511A00D3
:10108000203292000133D0511F2B00DD04E20B60AF
:101090000021301C08F072F8002812D19B4B311C43
:1010A0001868984608F088F8002801D043461E606A
:1010B000974B311C18689A4608F068F8002800D051
:1010C00011E10021281C08F059F8002812D1914B99
:1010D000291C1868994608F06FF8002801D04B4683
:1010E0001D608D4B291C18689B4608F04FF800289E
:1010F00000D089E0894A7E49136801338B4200D9C8
:101100008BE01360864A136801332F2B07DC1360D2
:101110001BB0F0BCBB46B246A946A046F0BD0023BA
:101120001360804B9A461B78002B00D0C0E17E4BA9
:10113000002699467D4F30223900300003F06AFDC9
:1011400039003022300003F0BFFD731C9846BC23E9
:10115000FD586949281C08F02FF8002826D1744949
:10116000281C08F013F800284CD1281C714907F0FE
:10117000D6FF08F059F870498346C00206F0F0FE29
:101180005A46310005B2484604F0F0FC4346032BB2
:1011900018D16A4B03261A68694B5B1B5B101B0452
:1011A00053401B0C674A1B041360C4E7624B3100B9
:1011B0009B4648465A46802504F0D8FC43462D01FC
:1011C000032BE6D0042B05D0022B17D0D223012607
:1011D000E552B0E7594B1A68594B5B1BDB031B0CFC
:1011E00053401B04574A1B0C136053461B78002BBB
:1011F00000D18DE7544842F0DFFC89E7D423022672
:10120000E55298E74A48B1E75B46444A1D601368D7
:10121000374901338B4200D873E700230020136065
:1012200004F012F80700012004F00EF8374B01908B
:101230009846002F00D1A5E01B684449181C994628
:1012400007F0A4FF324B9A46002800D19CE01B68AF
:101250003F49181C9B4607F0AFFF002800D193E0E0
:101260005946484607F098FF002800D18CE04946CF
:10127000584607F03AFF019B0290002B00D180E115
:10128000244B324999461B68181C049307F07EFFD3
:10129000214B9B4600280ED01B682D49181C059336
:1012A00007F08AFF002806D00599049807F074FF1C
:1012B000002800D074E1274B9C461B78D9B2002B44
:1012C00000D0DEE0029B08950993002301250796D4
:1012D0000A933B7C07AA1361FB6AF86902933E6A92
:1012E0003B6B03957FE053461E60EAE6A01F00209B
:1012F0007FBB0000A41F00200000C04098000540F4
:1013000098100540B0200020AC1F00205410002091
:10131000501000204C10002048100020AC2000206D
:10132000A81F00209F340020601E0020E01E002027
:101330000000C0C000007A4470170000480005405B
:10134000FF07000048100540581E002020BCBE4C7E
:1013500020BCBECC9E340020002301211360924BA0
:1013600092481A784A401A7003689149DB431B0C73
:101370001B040B60002A00D020E603681B0C1B0432
:101380000B601BE68B4B9A46019B002B00D1A3E020
:10139000894B8A4999461B68181C049307F0F6FE8E
:1013A000002800D088E000230393854B0020002113
:1013B0009B460290834B9C461B78002B61D1029B7D
:1013C00007AA079655609360D060002F00D19CE07B
:1013D0003B7C019D1361FB6AF86902933E6A3B6B9B
:1013E000002D00D1B5E0019F3D7C9061F869556109
:1013F000D061386A1662506202989062F86A13638C
:10140000019BD0621B6B0193484241410A23039F19
:101410004942013F07989F4399436B4B43259E6C7C
:10142000186090685937986010695931186190694F
:1014300001369861106A1862906A9862106B18639E
:1014400038201D5402301D5402301F5400205768AC
:1014500018645F60D768DF6057695F61D769DF61D3
:10146000576AD26A5F62DA62019A5A6339229D54DE
:1014700002329D5402329954586462469E6401239C
:10148000137043465146514A1A60514B0B6049460E
:101490000A605A46136035E6002300200B60F96F9E
:1014A00004F040F9FC230120F95804F03BF9EFE582
:1014B000484842F0E1FB3AE6414B47499B461B68EE
:1014C000181C059307F078FE00280ED10020002399
:1014D0000021029003936DE700200393364B002117
:1014E0009946374B02909B4664E70599049807F0AC
:1014F00053FE0023029300284ED000230393049947
:10150000059807F0F2FD012154E7019B1761002BBC
:101510002CD018001B7C97615361C3691762D3619B
:10152000036AC06A53620023936268E70023089548
:101530000125079609900A933B7C03951E4D0B935A
:10154000A9461F4DFB6AAB460293F8693E6A3B6BA6
:1015500007AA906102980025906200205561D5612C
:1015600016625562D062136301904DE75361936137
:10157000D3611362536200239362D36213630193B6
:1015800042E7104B9C461B78D9B2002BCED00A4BB9
:1015900099460B4B9B4674E70021181C039109E701
:1015A00001230393ABE7C046A03400209800054018
:1015B00098100540501000204C10002020BCBE4C5C
:1015C000481000209E340020781E0020286B6E4EAC
:1015D000286B6ECE581E002020BCBECCF0B5604AF1
:1015E000604D1368A3B0013313605F4B1C682B6818
:1015F000002B00D16DE05D495D4A0B68DB431B04A5
:101600001B0C1360002C67D0FC214768890580689B
:1016100007F0D2FD431E9841564E01373B00009023
:101620003200802102A809F0CFFF2B682068002B30
:1016300030D04E4B4E4A1B68DB431B0C1B0413601F
:10164000002814D0237B002B29D102A910F046FCDE
:10165000031E206845D1019300930022002300213E
:101660000EF0BAFD00285CD12B68002B10D0424B45
:10167000424A1B683D49DB431B041B0C13600B688B
:101680003B4A1B041B0C13600B681B0C1B041360F0
:1016900023B0F0BD0028FBD0237B002BD5D0261D26
:1016A000300042F0E9FA206800280ED002A910F0BC
:1016B00015FC031E206824D101930093002200230F
:1016C00000210EF089FD002837D1300042F074FA75
:1016D000CAE7002C98D1DBE70B681B041B0C1360D6
:1016E000D6E70121002249420DF008FE011E22D05A
:1016F00023480AF0FFFA0221206849420DF0D6F98A
:10170000B2E70121002249420DF0F8FD011E1ED072
:101710001B480AF0EFFA0221206849420DF0C6F991
:10172000D3E701210022494220680DF0E7FD011EA8
:101730000FD01448DDE71449DAE7012100224942BD
:1017400020680DF0DBFD011E06D00E48E1E70E49D2
:10175000DEE70D490B48CCE70B490A48D9E7C046FC
:10176000CC1E0020C41E0020C81E002070000540B2
:1017700070100540084204108400054084100540A4
:101780003C42041054420410F8410410F0B5544A8D
:10179000544E1368A3B001331360534B1C68336875
:1017A000002B36D05149524A0B68DB431B0C1B04FB
:1017B0001360002C4DD04768806807F083FD4D4DC5
:1017C0000137009001913B002A00802102A809F016
:1017D000FBFE2068002811D0237B002B1CD102A91E
:1017E00010F07CFB031E206838D101930093002287
:1017F000002300210EF0F0FC002842D13368002BBA
:1018000005D03A4B3A4A1B681B0C1B04136023B0EB
:10181000F0BD002CCFD1FAE7251D280042F02CFAAC
:10182000206800280ED002A910F058FB031E206883
:1018300036D1019300930022002300210EF0CCFC4E
:1018400000283FD1280042F0B7F93368002BD8D1E7
:10185000DDE70B681B0C1B041360D8E70121002295
:1018600049420DF04BFD011E15D023480AF042FA03
:101870000221206849420DF019F93368002BC0D1CC
:10188000C5E701210022494220680DF037FD011E05
:1018900003D01A48EAE71A49E7E719491748E5E784
:1018A0000121002249420DF029FD011E08D01248F5
:1018B0000AF020FA0221206849420DF0F7F8C1E74A
:1018C0000F49F4E701210022494220680DF016FD7E
:1018D000011E01D00948EBE709490848E8E7C0467E
:1018E000D01E0020C41E0020C81E00208400054019
:1018F000841005406C4204103C4204105442041011
:10190000F841041070B5D02501220021072005F010
:1019100099FD01220021062005F094FD01220021FD
:1019200005202D0605F08EFD0120002105F078F838
:101930006A686C686B6864069B06E40FDB0F1B012A
:10194000A4001C431306DB0F0022012107201C43C7
:1019500005F078FD00220121062005F073FD00222C
:101960000121052005F06EFD0120002105F058F849
:1019700069686A6809066B68C90F5206490064B253
:10198000D20F9B060C43D200DB0F5B010021072026
:10199000144301221C4305F055FD012200210620BD
:1019A00005F050FD64B201220021052005F04AFD3A
:1019B0002A2C05D0302C03D0FF200C2C00D070BD79
:1019C000E0B2FCE7F0B54E46DE465746454603001A
:1019D0008C46E0B563441B7985B09946019002912D
:1019E000002B00D135E280468B00039363441B013A
:1019F000984444460C20205607F0F4FBE84907F0D1
:101A00008EFB071CA06807F0EDFB00218246381C06
:101A100007F06EFB0021041C504607F069FB391CDF
:101A2000051C381C07F07BFB002107F061FB391C0B
:101A3000061C504607F073FB002107F059FB4A468D
:101A4000071C012A00D1A5E142461420105607F0D8
:101A5000C9FBD34907F063FB42468246106907F091
:101A6000C1FB51468346201C07F042FB5946041C2B
:101A7000281C07F03DFB5146051C504607F04FFB64
:101A8000011C301C07F034FB5146061C584607F079
:101A900046FB011C381C07F02BFB4A46071C022A98
:101AA00000D177E142461C20105607F09BFBBC4951
:101AB00007F035FB42468246906907F093FB51469A
:101AC0008346201C07F014FB5946041C281C07F011
:101AD0000FFB5146051C504607F021FB011C301C32
:101AE00007F006FB5146061C584607F018FB011C80
:101AF000381C07F0FDFA4A46071C032A00D149E1C9
:101B0000424600202432105607F06CFBA44907F02F
:101B100006FB42468246106A07F064FB5146834644
:101B2000201C07F0E5FA5946041C281C07F0E0FACF
:101B30005146051C504607F0F2FA011C301C07F014
:101B4000D7FA5946061C504607F0E9FA011C381C22
:101B500007F0CEFA4A46071C042A00D11AE1424691
:101B600000202C32105607F03DFB8D4907F0D7FAC4
:101B700042468246906A07F035FB51468346201C58
:101B800007F0B6FA5946041C281C07F0B1FA514672
:101B9000051C504607F0C3FA011C301C07F0A8FAD8
:101BA0005946061C504607F0BAFA011C381C07F0CB
:101BB0009FFA4A46071C052A00D1EBE04246002066
:101BC0003432105607F00EFB754907F0A8FA42466A
:101BD0008246106B07F006FB51468346201C07F037
:101BE00087FA5946041C281C07F082FA5146051C46
:101BF000504607F094FA011C301C07F079FA594658
:101C0000061C504607F08BFA011C381C07F070FACE
:101C10004A46071C062A00D1BCE0424600203C325E
:101C2000105607F0DFFA5E4907F079FA424682461D
:101C3000906B07F0D7FA51468346201C07F058FAFC
:101C40005946041C281C07F053FA5146051C5046FF
:101C500007F065FA011C301C07F04AFA5946061CC9
:101C6000504607F05CFA011C381C07F041FA4A465E
:101C7000071C072A00D18DE042460020443210564E
:101C800007F0B0FA464907F04AFA42468246106C1D
:101C900007F0A8FA51468346201C07F029FA594656
:101CA000041C281C07F024FA5146051C504607F076
:101CB00036FA011C301C07F01BFA5946061C504628
:101CC00007F02DFA011C381C07F012FA4A46071CCF
:101CD000082A5FD0424600204C32105607F082FAA4
:101CE0002F4907F01CFA42468246906C07F07AFAB8
:101CF00051468046201C07F0FBF94146041C281C75
:101D000007F0F6F95146051C504607F008FA011C89
:101D1000301C07F0EDF94146061C504607F0FFF96C
:101D2000011C381C07F0E4F94A46071C092A31D087
:101D30000298019A84469046039B63441B01984491
:101D400042465423D05607F04DFA154907F0E7F9FB
:101D500043468246186D07F045FA51468046201CDE
:101D600007F0C6F94146041C281C07F0C1F951468A
:101D7000051C504607F0D3F9011C301C07F0B8F9D8
:101D80004146061C504607F0CAF9011C381C07F0F2
:101D9000AFF9071C211C201C07F0C1F9804601E0A7
:101DA000CDCCCC3D484607F01DFA311C814607F0EA
:101DB000B6F9414607F099F90021061C07F0DEF953
:101DC000002842D1391C484607F0A9F9291C071CF4
:101DD000201C07F0A4F9011C381C07F086F9311CFF
:101DE00007F089F91E49071C07F099F9FC218905BC
:101DF00007F07EF907F018FA8046029B211C1E01AD
:101E0000019B381C9C4666443300A8331F6007F0D2
:101E100086F9011C281C07F068F9494607F06BF9A0
:101E20003300AC3342461860FC21B0238905F250E0
:101E300007F05EF907F0F8F9B423F05005B0F0BCF4
:101E4000BB46B246A946A046F0BD002300279846EF
:101E5000D3E7002398461F1C1E1C1D1C1C1CA1E759
:101E6000ABAAAA3FF0B5DE464E4645465746E0B51A
:101E7000EC250700002414225C269DB0CB49057395
:101E8000CB4B0390CB483961B8603A77BB613C7566
:101E9000BD55B86564203C5439666C217A5402AA59
:101EA0009446BB660F23A336634498461E70C24B0C
:101EB0001474994606AA01231C39484600940CF074
:101EC000C5FC012342465021484600940CF0C8FC52
:101ED00043466A461D781E700123502113764846FA
:101EE00006AA00940CF0B2FC012342465021484659
:101EF00000940CF0B5FC43461B782D021D43AF4BFC
:101F00009D4200D04AE102AB9C46FF2306AA0E2563
:101F1000160000249B460027924665445B462B70C2
:101F2000434642461C7050210123484600970CF05E
:101F30008DFC01232A005021484600970CF090FCAC
:101F40002B78013433700136582CE7D106AC524659
:101F50009B499C48563427E049008BB209B20029BE
:101F60002EDB5B0099B21BB2002B2FDB49008BB23A
:101F700009B2002930DB5B0099B21BB2002B31DBC8
:101F800049008BB209B2002932DB5B009DB21BB263
:101F9000002B33DB6D00A9B22DB2002D34DB4900DC
:101FA000013289B2944235D013781B0259400BB2EA
:101FB000002BD1DA5B00434019B29BB20029D0DA82
:101FC000490041400BB289B2002BCFDA5B0043409D
:101FD00019B29BB20029CEDA490041400BB289B256
:101FE000002BCDDA5B00434019B29BB20029CCDA5A
:101FF0004D0045402BB2ADB2002BCBDA5900414029
:102000000DB289B2002DCADA6D0045400132A9B285
:102010009442C9D11020562302AA1218D35A5BBA8F
:102020009BB28B4200D0B9E0039B00221D00043319
:102030009946242317009A4607AC08350FAE4A4646
:102040002378D355002B00D19AE0A278E1781206CC
:1020500009040A4361790A43217909020A43617834
:102060002A602971012B00D18AE0E279217A1206D7
:1020700009040A43A17A0A43617A09020A43A17951
:10208000AA602973022B7BD0227B617B1206090494
:102090000A43E17B0A43A17B09020A43E17A2A61F0
:1020A0002975032B6CD0A27C617C120409060A43BB
:1020B000217D0A43E17C09020A43217CAA61297738
:1020C000042B5DD05046A27DE17D120609040A432F
:1020D000617E0A43217E09020A43617D29542A62F6
:1020E000052B4DD0E27E217F120609040A43A17F11
:1020F000A07E0A43617F09020A432C216854AA6228
:10210000062B3DD032787178120609040A43F17823
:10211000E07F0A43B17809020A43342168542A63F4
:10212000072B2DD07279B179120609040A43317A4E
:1021300030790A43F17909020A433C216854AA63C1
:10214000082B1DD0B27AF17A120609040A43717B7A
:10215000707A0A43317B09020A43442168542A6495
:10216000092B0DD0F37B327C1B0612041343B27C87
:10217000B17B1343727C120213434C22A954AB640B
:1021800039000398FFF71EFC7B1C293401275035CA
:102190002936022B00D052E7002000E001201DB0BC
:1021A000F0BCBB46B246A946A046F0BD50FC0300B9
:1021B00040A90200344E050030110020D107000074
:1021C000FFFF000021100000F0B5D6464F464646FE
:1021D000C0B50700EE4B102203600021D83007F095
:1021E00079FD0023E8223800BB520232BB520021A5
:1021F000E23AEC3007F06EFD8023F4221B01BB5263
:1022000002320024BB523800F8230021FC54DE3A8D
:10221000FC3007F05FFD3800153006220021FF304A
:1022200007F058FDA4235B00FC541E230822FF3353
:10223000FC54D84B00251A60E022D74BD2011B6812
:1022400001261340D54A13608D235B00FC54063BE6
:10225000FC541623FF33FC540133FC541823FF3382
:10226000FC540133FC541A23FF33FC54CC4CA31D03
:102270009946CC4B9846237804219A46180005F0DD
:10228000C7F853460421581C05F0C2F8534652467D
:102290005B081F2A00D977E107221A4093009B1898
:1022A000C149C24A9B009A18591815600D60C0496F
:1022B00059180D60BF498C4641466344196010238C
:1022C000536016602378013359081F2B00DD57E156
:1022D00007220A4093009B18B349B44A9B009A18FE
:1022E000591815600D60B24959180D60B1498C46F6
:1022F00041466344196010235360166023785A08DE
:102300001F2B00D938E1072111408A005218A84933
:1023100092005118096840468C46310019404942E4
:10232000414060460140A448013384466244116044
:102330005A081F2B00DD1BE10721114040468A008F
:1023400052189B4992005118334009685B42434040
:102350000B40994902348C4662441360A1458AD1EE
:10236000072005F097F8062005F094F8D024052002
:1023700005F090F880232406A362403BA362203B33
:10238000A3623800FFF7BEFAD023F854142005F0FA
:1023900081F800220021142005F054F8042005F0F3
:1023A00079F810236362A36198460CF063FA1F2149
:1023B0001B2005F02DF8002200211B2005F042F81B
:1023C00000211B2005F052F81F211A2005F020F8EB
:1023D000002200211A2005F035F800211A2005F00E
:1023E00045F81F211C2005F013F8002200211C20B5
:1023F00005F028F800211C2005F038F81F211D20C9
:1024000005F006F8002200211D2005F01BF8002130
:102410001D2005F02BF8182005F03CF8192005F0D8
:1024200039F880235B04636280239B046362082085
:1024300005F030F880235B0063620920636105F0DA
:1024400029F880239B0063620220636105F022F873
:1024500004230022A3620121022004F0F3FF0320E1
:1024600005F018F808230022A3620121032004F0DC
:10247000E9FF524B5249994618000CF017FA022511
:102480004B46504A5B6815604A4611680F2251401E
:10249000C0320A404C492B400A604C4A012113606B
:1024A000122004F0B5FF0121132004F0B1FF012137
:1024B000152004F0ADFF464946480CF09FF9032172
:1024C000102004F0A5FF0321112004F0A1FF042136
:1024D000172004F09DFF0421162004F099FF00222C
:1024E0004046324B3C49DA635A649A64D9641864B2
:1024F000DE63DA635A649A64D9641864DE63802305
:102500003649DB040A68002053401B0C344A1B0484
:10251000136080230968DB004B401B041B0C136015
:1025200004F0B8FF6662012004F0B4FF6562380071
:10253000FFF798FCC8239846B844404603F058FE7D
:1025400014264346274C284D18685968274A284BBB
:1025500006F0AEFD013E00196941002EF6D143465A
:10256000186059603800E0BCBA46B146A846F0BDD4
:10257000032111400831E1E6032111400831C4E68E
:1025800003220A400832A5E603221A40083285E6F3
:10259000D889041000F0044000C0044000D004407A
:1025A00008D90410FFFF00000800054000000540A6
:1025B0000C000540100005400C10054000C0034011
:1025C000286BEE0004F0034000D0034004E0034019
:1025D000A086010030110020FF07000048000540E0
:1025E000481005404F8167F77E7B05142D7F954C81
:1025F0002DF45158F0B5DE4657464E464546E0B5F7
:1026000085B004000CF04AFA012806D02000DC490D
:102610000DF02CF820000DF043FF012120000CF0FC
:1026200091FB05282ED0D74920000DF0AFF80121ED
:1026300020000CF057FB0023012201212000009311
:102640000DF0A4FD01210022494220000CF056FEAD
:10265000011E02D0CC4809F04DFB02212000494266
:102660000CF024FAC94809F0C1FAC94B1B689868F4
:1026700031F0DEF8002005B0F0BCBB46B246A946FA
:10268000A046F0BDC34B18009B4609F0AFFA2000EE
:102690000CF0B6FF01212000BF4D0DF013FF002804
:1026A00000D1C9E0280009F025FB022120004942A1
:1026B0000CF048FB042800D1C2E00221200049426E
:1026C0000CF040FB032800D17AE1B44809F012FB7A
:1026D0000121200049420CF035FB05287CD1200067
:1026E0000CF0DCF90700010020000CF02BFB0528A2
:1026F00000D0B1E0B946584609F078FA20000CF055
:102700007FFFA74EA54B49462000B0461E000DF0A6
:10271000D9FE002858D0280009F0ECFA280009F06A
:10272000E9FA0221200049420CF00CFB042800D1F8
:102730009FE00221200049420CF004FB032800D155
:10274000C3E1300009F0D6FA0121200049420CF023
:10275000F9FA052800D085E020000CF09FF9070069
:10276000010020000CF0EEFA052800D18DE085492B
:1027700020000DF00BF8390020000CF0B3FA002314
:1027800001220121200000930DF000FD0121002213
:10279000494220000CF0B2FD011E02D07A4809F037
:1027A000A9FA0221200049420CF080F9404609F0C4
:1027B0001DFA0221200049420CF078F94946200018
:1027C0000DF080FE0028A6D1280009F093FA7D20A4
:1027D000464609F0C1F920E06A4920000CF0D6FF16
:1027E0000221494220000CF07DFA00230122012140
:1027F000200000930DF0CAFC012100224942200074
:102800000CF07CFD011E02D05F4809F073FA022132
:10281000200049420CF04AF9614E300009F0E6F917
:102820000221200049420CF041F9012120000DF065
:1028300049FE002800D035E77D2009F08DF911E729
:1028400002210022200049420CF058FD554B0100A6
:10285000180009F04FFA3BE74A4920000CF096FFB8
:102860003900BFE7474920000CF090FF02214942A0
:1028700082E702210022200049420CF03FFD494B33
:102880000100180009F036FA5EE7B2463E005846ED
:1028900009F0ACF920000CF0B3FE404B31002000F1
:1028A00002930DF00FFE002858D0280009F022FAFC
:1028B000280009F01FFA280009F01CFA0221200064
:1028C00049420CF03FFA04286ED002212000494210
:1028D0000CF038FA032800D105E1029809F00AFA51
:1028E0000121200049420CF02DFA052841D1200099
:1028F0000CF0D4F80700010020000CF023FA0528A2
:102900006CD0204920000CF041FF390020000CF071
:10291000E9F9002301220121200000930DF036FC8B
:1029200001210022494220000CF0E8FC011E02D0E7
:10293000154809F0DFF90221200049420CF0B6F8F1
:10294000404609F053F90221200049420CF0AEF84C
:10295000310020000DF0B6FD0028A6D1280009F0B6
:10296000C9F9280009F0C6F97D20564609F0F4F8A7
:102970001CE7044920000CF009FF02214942C5E789
:10298000C842041060400410C05B0410583D04109D
:10299000D0170020A0420410A4420410BC4204102E
:1029A000C4420410A842041002210022200049421F
:1029B0000CF0A4FC5A4B0100180009F09BF98FE7BA
:1029C00002210022200049420CF0DAFB06F07AFCDA
:1029D00002000B00534809F08DF979E6584609F0DA
:1029E00005F920000CF00CFE4F4B3900200003933A
:1029F0000DF068FD00284FD0280009F07BF9280071
:102A000009F078F9280009F075F9280009F072F941
:102A10000221200049420CF095F9042849D00221F6
:102A2000200049420CF08EF903286AD0039809F07F
:102A300061F90121200049420CF084F93B49200052
:102A40000CF0A4FE0221200049420CF04BF90023B7
:102A500001220121200000930DF098FB01210022AA
:102A6000494220000CF04AFC011E02D0304809F017
:102A700041F90221200049420CF018F8404609F0C3
:102A8000B5F80221200049420CF010F8390020006E
:102A90000DF018FD0028AFD1280009F02BF928000F
:102AA00009F028F9280009F025F97D2009F054F8EB
:102AB00046E702210022200049420CF01FFC184B7F
:102AC0000100180009F016F9B3E7022100222000E6
:102AD00049420CF055FB06F0F5FB02000B001148D3
:102AE00009F008F930E602210022200049420CF0EA
:102AF00047FB06F0E7FB02000B000A4809F0FAF872
:102B0000EEE602210022200049420CF039FB06F0DB
:102B1000D9FB02000B00034809F0ECF889E7C04636
:102B2000A8420410B0420410BC42041060400410DB
:102B3000C05B041070B50368040082B0002B00D1A4
:102B40009AE0BF4809F052F80022BE4B2068BE4907
:102B50000092BE4A0FF0B2F9031E00D07CE020685C
:102B6000012201930093002100230DF035FB051E87
:102B700072D1B74E206831000DF092F83100206814
:102B80000CF004FEB34920680DF08AF8B24809F051
:102B90002DF8B24B2068B249B24A00950FF08EF979
:102BA000031E00D06CE020680022019300930021F6
:102BB00000230DF011FB002862D1AB4920680FF013
:102BC0008DF9031E00D109E101210022494220684C
:102BD0000CF094FB011E00D121E1A44809F08AF811
:102BE0000221206849420BF061FFA14808F0FEFF76
:102BF0000022A04B2068A0490092A04A0FF05EF985
:102C0000031E48D1206801220021019300930DF09A
:102C1000E3FA00283FD19A4920680DF041F899491C
:102C200020680FF05BF9031E0BD101222068002100
:102C300001930093524200230DF0CEFA002800D1F8
:102C4000F5E001210022494220680CF057FB011EEB
:102C500000D1E9E08C4828E00121002249422068A7
:102C60000CF04CFB011E09D0884809F043F8022102
:102C7000206849420BF01AFF02B070BD8449F3E7A7
:102C800001210022494220680CF038FB011E00D1CE
:102C9000A1E08048E9E701210022494220680CF0C8
:102CA0002DFB011E00D1B6E07B4809F023F802217C
:102CB000206849420BF0FAFE784809F01BF8002220
:102CC000774B206877490092774A0FF0F7F8031E98
:102CD00029D1206801220021019300930DF07CFA94
:102CE000002820D1714920680CF0DAFF7049206873
:102CF0000FF0F4F8031E0BD101222068002101938C
:102D00000093524200230DF067FA002800D192E0B0
:102D100001210022494220680CF0F0FA011E00D186
:102D20007FE0644808E001210022494220680CF05D
:102D3000E5FA011E6DD0604808F0DCFF0221206832
:102D400049420BF0B3FE5D4808F0D4FF00225C4B13
:102D500020685C4900925C4A0FF0B0F8031E10D165
:102D6000206801220021019300930DF035FA00281C
:102D700007D1206855490CF093FF554808F0BAFF79
:102D80000FE001210022494220680CF0B7FA011E31
:102D90003DD0504808F0AEFF0221206849420BF0B8
:102DA00085FE4D4920680FF099F8031E23D00121BC
:102DB0000022494220680CF0A1FA011E2DD047489C
:102DC00008F098FF0221206849420BF06FFE44484A
:102DD00008F090FF50E72E492E4846E70122206870
:102DE000002101930093524200230DF0F5F90028D1
:102DF00000D0E9E6F9E60122206800210193009362
:102E0000524200230DF0E8F90028D0D1DFE7204935
:102E1000BFE71F498FE71E4946E71D49CFE71C4919
:102E2000DBE61B49234887E7194917483DE72D484A
:102E300008F060FF40E72C4808F05CFF83E7C046DD
:102E4000F04204101443041090C6041075120000E0
:102E50001C4304102043041024430410484304106E
:102E6000ECBF0410A1060000744304104444041095
:102E70006844041090440410D8B40410120B0000ED
:102E80009C440410A4440410B4450410544304109A
:102E9000F84104102044041070450410D845041073
:102EA0000046041054A20410831200000C460410C3
:102EB00014460410F8460410A04604101C470410E1
:102EC000444704100C970410450B000050470410B1
:102ED0005847041088470410A8470410F44A041007
:102EE0001C4B041090450410C046041070B504003B
:102EF0000068002801D024F03BFA0FF0E3FA2060CC
:102F0000002800D11BE11AF05FFE00228E492068E4
:102F10000CF0F0FB8D4D206829000CF0C1FE002262
:102F20008B4920680CF0E6FB8A4920680CF0B8FE5B
:102F30000022894920680CF0DDFB884920680CF0EC
:102F4000AFFE0022002120680CF0FCFD0022844925
:102F500020680CF0CFFB02212A00206849420CF0C7
:102F6000E1FE804920680CF09BFE00227E4920682B
:102F70000CF0C0FB7D4920680CF092FE00227C49D9
:102F800020680CF0B7FB7B4920680CF089FE00221A
:102F9000794920680CF0AEFB784920680CF080FE7F
:102FA0000022774920680CF0A5FB764920680CF0D8
:102FB00077FE0022744920680CF09CFB734920685E
:102FC0000CF06EFE0022724920680CF093FB7149F0
:102FD00020680CF065FE00226F4920680CF08AFB27
:102FE0006E4920680CF05CFE00226D4920680CF0F0
:102FF00081FB6C4920680CF053FE00226A4920686E
:103000000CF078FB694920680CF04AFE0022684900
:1030100020680CF06FFB674920680CF041FE00222D
:10302000654920680CF066FB644920680CF038FEA6
:103030000022634920680CF05DFB624920680CF0B7
:103040002FFE0022604920680CF054FB5F49206885
:103050000CF026FE00225E4920680CF04BFB5D4917
:1030600020680CF01DFE00225B4920680CF042FB3A
:103070005A4920680CF014FE0022594920680CF0CF
:1030800039FB584920680CF00BFE00225649206895
:103090000CF030FB554920680CF002FE0022544928
:1030A00020680CF027FB534920680CF0F9FD002242
:1030B000514920680CF01EFB504920680CF0F0FDCF
:1030C00000224F4920680CF015FB4E4920680CF097
:1030D000E7FD00224C4920680CF00CFB4B492068AE
:1030E0000CF0DEFD00224A4920680CF003FB494940
:1030F00020680CF0D5FD0022002120680CF022FD94
:103100000022454920680CF0F5FA0221434A206864
:1031100049420CF007FE424920680CF0C1FD002036
:1031200001F0E0F8012001F0DDF8022001F0DAF80A
:10313000032001F0D7F82000FFF7FCFC70BD3948F0
:1031400008F054FDFAE7C046050B0010684B041068
:1031500099050010886F0410D5030010704B0410FF
:10316000F5250010804B041061030010844B0410FF
:1031700081030010944B0410AD030010A04B041009
:10318000F9030010B04B041019040010C44B0410D4
:1031900051040010D44B0410D5020010E44B04106D
:1031A000F1020010F44B04100D030010084C041041
:1031B00085040010184C0410D90500102C4C041084
:1031C00041070010404C041005080010544C041036
:1031D000D5080010644C04101D090010784C041030
:1031E0008D090010884C0410B5060010984C04108E
:1031F000D5090010A84C0410390A0010B84C04106E
:10320000790A0010C44C0410010A0010D04C0410BC
:10321000990A0010E04C0410A50B0010F04C0410AB
:10322000F84C0410444B0410F0B5DE4645465746B2
:103230004E46E0B5D64CA5440400D64808F05AFDE9
:1032400032AA961DD44A23009346D44A9A460C9239
:10325000D34A0D92D34A0E92D34A0B922200C8321F
:103260000A92D24A1392D24A1492D24A1592D24A60
:103270001692D24A1792D24A1892D24A1992D24A38
:103280001A92D24A1B92D24A1292D24A1E92D24A21
:103290001F92D24A2092D24A2692D24A2792D24AEA
:1032A0000592D24A0792D24A0992D24A2992D24A28
:1032B0002A92D24A2B92D24A2C92D24A2392D24AB2
:1032C0001C92D24A1D92D24A2492D24A9046D24AA5
:1032D0000692D24AD24D0392D24AD34C0F92D34A8D
:1032E0000492D34A1192D34A0892D34A2192D34AE4
:1032F0001092D34A2892D34A2292D34A2D92D34A8B
:103300002E92D34A2F92D34A3092D34A3192D34A43
:10331000259225E002F02AFB2B78002B1DD0236894
:10332000A3682369A369236AA36A236B3823E35C38
:103330003A23E35C3C23E35C236C6368E3686369E2
:10334000E369636AE36A636B3923E35C3B23E35C11
:103350003D23E35C636C00232B70012003F0D6FB5C
:10336000802134A802F028FE0028D3D034A834F0FD
:1033700041FE022800D899E0594634AB301803E0EA
:103380000133984200D190E01A785E2AF8D15A7839
:103390005E2AF5D19A78463AD2B2312AF0D8920014
:1033A0008A5897461B988B46AA2702F023FE12984C
:1033B00008F0A0FC53467F00DB59002B00D15DE2F2
:1033C0001E9808F097FC5346D85900230093209983
:1033D0001F9BA34A00680EF071FD011E00D1E0E1C1
:1033E000AA23524601215B00D358494200221868A3
:1033F0000BF084FF011E00D147E21C9808F07AFC14
:10340000AA23524602215B00D358494218680BF0A8
:103410004DFB1D9802F0EEFD0EE08B4680210A9BCD
:1034200049001A685B6854A8009201930B9A08F04F
:10343000CBF854A802F0DEFD02F0D2FD6AE78B461D
:1034400080210E9B0D9A009349000C9B54A808F014
:10345000BBF854A802F0CEFDEEE719988B4602F0B7
:10346000C9FDE9E717988B4602F0C4FDE4E714981C
:103470008B4602F0BFFDDFE713988B4602F0BAFDE2
:10348000DAE715988B4602F0B5FDD5E71A988B461A
:1034900002F0B0FDD0E716988B4602F0ABFDCBE70B
:1034A00018988B4602F0A6FDC6E78B46414634A825
:1034B00034F00AFDAA235B00994653464A469F58BA
:1034C000002825D1002FB7D038680028B4D006993D
:1034D0000EF004FD031E38682BD1019300930022E7
:1034E000002300210CF078FE0028A5D00121002245
:1034F000494238680BF002FF011E00D14FE10998E4
:1035000008F0F8FB0221386849420BF0CFFA93E744
:10351000039934A834F0D8FC00281BD1002F8BD09D
:103520003868002888D00F990EF0D8FC031E386840
:10353000D3D00121002249420BF0E0FE011E00D150
:10354000D4E0079808F0D6FB0221386849420BF016
:10355000ADFA71E7049934A834F0B6FC002800D025
:1035600080E0002F00D167E73868002800D163E7CA
:1035700011990EF0B3FC031E3868AED00121002271
:1035800049420BF0BBFE011E00D17BE10798B7E773
:10359000ACFDFFFFFC4C041008890410204D041002
:1035A0002C4D0410584D0410644D04107C4D041033
:1035B000944D0410A44D0410B04D0410CC4D0410D3
:1035C000E44D0410F44D04100C4E04101C4E041075
:1035D000304E0410644E0410944E0410E889041018
:1035E000A04E0410D04E0410F84104103C420410C8
:1035F00054420410004F0410344F0410A44F041020
:10360000E04F0410185004102C5004104C500410BB
:103610006450041088500410A8500410CC500410BA
:103620009E340020E8500410781E0020045104103D
:103630001851041030510410485104106451041002
:103640007851041090510410A4510410CC5104106E
:10365000EC5104100052041020520410C452041003
:10366000220D0000089934A834F02EFC002819D14E
:10367000002F00D1E0E63868002800D1DCE621996F
:103680000EF02CFC81464B463868002B00D075E7C5
:103690004A464946019300930CF09EFD002800D154
:1036A000CAE623E7109934A834F00EFC002808D1AC
:1036B000002F00D1C0E63868002800D1BCE6289968
:1036C000DEE7229934A834F0FFFB002810D1002F48
:1036D00000D1B1E62D9808F00DFB53464A469858A4
:1036E000FFF728FA2E9808F005FBA5E6059928E7CC
:1036F0002F9934A834F0E8FB00282DD1002F00D1F9
:103700009AE6309808F0F6FA4A4653469B581868ED
:103710009946002800D1CAE031990EF0DFFB4A46F5
:10372000031E106800D0B2E000273B003A003900C9
:10373000019700970CF050FDB84200D1B7E04B461E
:1037400001213A00494218680BF0D8FD0100B84247
:1037500000D1FAE00998A2E0002F00D16CE63868A9
:10376000002800D168E634A90EF0B8FB031E3868C3
:1037700000D003E700231A00190001930093994633
:103780000CF02AFD484500D156E601214A4649423F
:1037900038680BF0B3FD0100484500D0AFE605994D
:1037A000ADE65346D859019100910B000A0000681C
:1037B0000CF012FD3290002800D011E6269808F097
:1037C00099FA5346DB5918689946002800D182E0DF
:1037D00027990EF083FB4B46071E18686BD13B0000
:1037E0003A003900019700970CF0F6FC002800D051
:1037F00089E0AA2352465B00D358186899460028EE
:1038000000D17CE02A990EF069FB4B46071E186830
:1038100065D13B003A003900019700970CF0DCFCC1
:10382000002800D07AE05246F423D05A023300B286
:10383000D75A05F0D7FC464905F071FCE821890507
:1038400005F06DFC05F03EFD3FB23290339138003B
:1038500005F0C8FC3E4905F062FCE821890505F049
:103860005EFC05F02FFD329A339B009001912C985D
:1038700008F040FA239802F0BDFBDDE5249802F041
:10388000B9FBD9E5059907983AE60599B5E501210F
:10389000002249420BF032FD011E54D0079808F077
:1038A00029FA02214B46494218680BF0FFF8259887
:1038B00008F020FAC0E50121329A49420BF01EFDC2
:1038C000011E3ED0079808F015FA02214B464942E6
:1038D00018680BF0EBF8299808F00CFA89E7012139
:1038E000002249420BF00AFD011E22D0079808F081
:1038F00001FA02214B46494218680BF0D7F82B9881
:1039000008F0F8F98FE74B4601213A004942186860
:103910000BF0F4FC011E11D00998D4E74B460121AD
:103920003A00494218680BF0E9FC011E03D00998DF
:10393000DDE70599DAE705990998D8E70599099827
:10394000C1E70599BEE70599A8E705990998A6E793
:103950000000C040024B1868002800D00068704783
:10396000C81E0020F0B50021D9B04848FDF7ACF8DA
:10397000002800D17EE008F09BF8454B02221B682E
:103980000021986800232FF091FF002503F0D4F95F
:10399000404C24184D41002D02DA01243E4D644272
:1039A00008F034FD002859D03C4A3D493D4808F014
:1039B000A1F96846FEF708FC802200276D46012623
:1039C000394B00210093394B520039481F6006F0F3
:1039D00081F9329A339B56925793364B04201D60DF
:1039E00001F01AF8042001F025F9334808F0FEF838
:1039F000324803F0E7FC324B32481E7008F0F6F80C
:103A0000022001F0F7FB304802F098F82F4808F048
:103A1000EDF801F089FF082002F01CF9082001F000
:103A2000F3FE102006F078F90400294B07601860B7
:103A3000043003F0C7FC2748267308F0D7F82000AD
:103A4000FFF754FAAA2324485B00EC500AF082FDE9
:103A50008D2368465B00EE54FFF7E6FB03F06CF93C
:103A600022002B00121A8B41002B99DC9CD1002ADA
:103A700096D199E700211948FDF726F8002800D0D3
:103A800079E701211648FDF71FF874E7400D0300A0
:103A9000D017002060E31600FFFFFF7F584D041091
:103AA000204D0410E8520410E4890410741E002014
:103AB000581D0020C41E002038530410581E00203A
:103AC0009F34002068530410601E002084530410AB
:103AD000C81E0020B05304104D0D0010F049020024
:103AE0008807020070B505000C00514A23790A2BA3
:103AF00000D99BE09B00D3589F462188280066315F
:103B0000C9006918FFF7EEFF4A4B1A88272A05D823
:103B10001A886632D200505128221A8070BD24685B
:103B20006634E4002C19E1E72488424B1C8066349B
:103B3000E4002C19DAE7218828006631C9006918E9
:103B4000FFF7D0FF80231B069C466044E6E72188F0
:103B500028006631C9006918FFF7C4FF6188061C98
:103B60006631C90069182800FFF7BCFF0100301C4E
:103B700005F0BEFAD2E7218828006631C90069182D
:103B8000FFF7B0FF6188061C6631C900691828007C
:103B9000FFF7A8FF0100301C05F0A7FABEE7218857
:103BA00028006631C9006918FFF79CFF6188061C70
:103BB0006631C90069182800FFF794FF0100301C26
:103BC00005F0ADFAAAE7218828006631C900691816
:103BD000FFF788FF6188061C6631C9006918280054
:103BE000FFF780FF0100301C05F085FA96E7218879
:103BF00028006631C9006918FFF774FF6188061C48
:103C00006631C90069182800FFF76CFF011C041C0D
:103C1000301C05F070FA05F0DBFC011C201C05F0DF
:103C20007EFA011C301C05F060FA77E7206875E722
:103C300010D904109C340020574B8200F0B5D458A2
:103C400000234E464546DE4657469946534BE0B55F
:103C5000E226984685B003907600A7597B6A3A6AB7
:103C6000934200DB68E09A00D55901337B62002D56
:103C700062D02B7E082BF0D842469B00D3589F463B
:103C800029002823464F200008313B80FFF72AFFF8
:103C90003B88272B03D83B886633DB00185141490A
:103CA00005F03DFA28238246290020003B80FFF7DB
:103CB00019FF3B88272B03D83B886633DB0018515C
:103CC000290028238346103120003B80FFF70AFF9C
:103CD0003B88272B03D83B886633DB001851324AD8
:103CE0005946C3B200920398524600F01DFF0021CE
:103CF000504605F061FA0028AFD005B0F0BCBB46D5
:103D0000B246A946A046F0BD254B29009B46282374
:103D10005A4620001380FFF7E5FE5B461B88272BE1
:103D200004D85B461B886633DB001851002105F080
:103D300033FA002800D190E7BA6A002ADDDB4B464F
:103D40007B62CB239B00E2502C235343C933FF33C8
:103D5000E318A35181E70122144BE2547DE70022CE
:103D6000134BE25479E70122114BE25475E7CB2360
:103D70002A689B00E2502C235343E222C933FF33CD
:103D8000E3185200A35068E700237B6265E7002236
:103D9000064BE25461E7C046F82300203CD90410EA
:103DA0009C34002000007A44B53D001075040000EA
:103DB0007404000010B5032801D8FFF73DFF10BDC3
:103DC000F0B5C64600B5804682B0180014000F005A
:103DD00005F008FA011C061C20000BF017FC02215C
:103DE000200049420BF00AFD0121200049420AF05F
:103DF000A9FF02210500494220000AF057FE042DC8
:103E000052D01FDC012D00D16EE0032D48D12000DF
:103E1000311C0BF0FBFB0221200049420BF0EEFCB1
:103E20000121200049420DF075FD051C02212000F2
:103E300049420AF03BFE00233D603B7102B080BC6A
:103E4000B846F0BD052D2BD12000311C0BF0DEFB58
:103E50000221200049420BF0D1FCFE2120008905FF
:103E60000BF0D4FB0221200049420BF0C7FC0121DA
:103E70000022494220000DF011FD0221057849423F
:103E800020000AF013FE4E2D4DD8222D41D92B00D3
:103E9000233BDBB22B2B3CD86A4A9B00D3589F466E
:103EA000694807F0A3FEC9E72000311C0BF0AEFB08
:103EB0000221200049420BF0A1FC012100224942CD
:103EC00020000DF0EBFC0221037801AD2B7043784C
:103ED000494220006B700AF0E9FD280000F0F0FD77
:103EE000012338703B71A9E72000311C0BF08EFBD9
:103EF0000221200049420BF081FC012120004942AF
:103F00000BF0C4F90025002800D18FE7FE25AD0590
:103F10008CE729004D4807F0EDFE022120004942C0
:103F20000AF0C4FD8AE704237E2DF2D18E223B7174
:103F30004346D2009B58272B7DDC4046591C8150BC
:103F40003B806633D9002200022340464144FFF7FC
:103F500037FFE2E780212000C9050BF057FB022163
:103F6000200049420BF04AFC0121200049420DF09B
:103F700009FD02210500494220000AF097FD0323B4
:103F80003D803B71C9E70323D0E780212000C905AC
:103F90000BF03CFB0221200049420BF02FFC0121D9
:103FA000200049420DF0EEFC0221050049422000AC
:103FB0000AF07CFD02233D603B71AEE708238E22B0
:103FC0003B714346D2009B58272B2EDC4046591CA0
:103FD00081503B806633D900220002234046414491
:103FE000FFF7EEFE8E224346D2009B58272B16DCAD
:103FF0004046591C81507B806633D9002200032340
:1040000040464144FFF7DCFE87E70623D7E7052358
:10401000D5E70723D3E70923D1E70A2386E70C482E
:1040200007F0E4FD01235B42E5E7094807F0DEFD08
:1040300001235B42CDE7064807F0D8FD01235B4230
:104040007EE7C04660D9041010540410E8530410F1
:10405000C8530410F0B50C00D64646464F46FE2124
:10406000C0B58905050020000BF0D0FA0221200020
:1040700049420BF0C3FB0121200049420AF062FED5
:1040800002210600494220000AF010FD042E00D152
:1040900073E0052E66D1E0225200AB580F2B00DDF5
:1040A000B3E0DE00F61AB6000133AE19AB50E223DE
:1040B0005B00EF583B6A072B00DD9AE09A00013362
:1040C000D651CA203B620323800033762A58072A40
:1040D00000DD93E02C2353431900E227C931FF315F
:1040E00069187F00EB18E9511F000021E937FF37FD
:1040F00039607960CB2189006F58F133FF331F603D
:10410000531C6A502B5001213260200049420BF0B1
:104110006DF90126071E17DD300005F063F8011C5C
:1041200020000BF073FA0221200049420BF066FBDD
:1041300021002800FFF78EFF0221200049420136AE
:104140000AF0B4FCB742E7DAE2225200AB58996AAF
:10415000CB239B00E9502C234B43C933FF33EB188F
:10416000AB5005E0584807F041FD584807F03EFDC8
:10417000E0BCBA46B146A846F0BDE0235B00EF586C
:104180000F2F44DCFA00D11B90468A0091467A1C1E
:10419000EA50E223AA465B00EE58CA44336A072B72
:1041A00022DC51469A009151FE21013333622000F6
:1041B00089050BF02BFA0221200049420BF01EFB6F
:1041C00001210022494220000DF068FB02210678FF
:1041D0004942483E2000F6B20AF068FC0F2E1AD879
:1041E0003B4AB300D3589F463A4807F0FFFC336A76
:1041F000D7E7384807F0FAFC3B6A5FE7364807F034
:10420000F5FCCB239B00EA587DE700264FE73348B7
:1042100007F0ECFCACE7324807F0E8FCA8E74346BF
:104220000822DB1B9B00EB181A76A1E7434601220C
:10423000DB1B9B00EB181A769AE7022322005146FB
:104240002800FFF7BDFD494608310323220028005E
:104250006918FFF7B5FD49461031042322002800F4
:104260006918FFF7ADFD43460022DB1B9B00EB18EE
:104270001A767DE743460622DB1B9B00EB181A7675
:1042800076E70223220051462800FFF799FD4346B6
:104290000222DB1B9B00EB181A7669E743460722D4
:1042A000DB1B9B00EB181A7662E743460422DB1BFC
:1042B0009B00EB181A765BE743460522DB1B9B004D
:1042C000EB181A7654E7C04694540410B054041006
:1042D00010DA0410485404107854041028540410C0
:1042E0006054041010B50400032822D88F20C000A9
:1042F00005F078FC002819D00F4BE022A400E05014
:104300000023520083500200E221C9324900FF32EB
:104310004250CA22C63992008350FF39043281507C
:104320004532FF328350054A835210BD044807F0DE
:104330005DFC0020F9E7C046F8230020740400006B
:104340000455041010B503282BD8164B8000C05814
:10435000E022040000235200C9348350FF340432A9
:1043600084500124283283502C3283502C328350C5
:104370002C3283502C3283502C3283502C32835079
:104380002C328350393AFF3A8350644208328450C9
:104390003D32FF328350CA2301229B00C250FFF7F7
:1043A00059FE10BDF8230020F0B5D6464F464646CC
:1043B0000400C0B503284ED8404E8300F0589A46FA
:1043C0003F4BC25C002A00D072E0012951D0002985
:1043D0006AD13C4BC35C002B66D000239846CB23AC
:1043E0009B009C462C27C531FF3143585A6A1D6AF1
:1043F000AA421DDA9500ED5801325A62002D17D0FD
:104400002A7E062A21D0022AEFD19A6A002AECDB02
:1044100000255D62CB239B00C2502C235343C9333C
:10442000FF33C318435043585A6A1D6AAA42E1DB5E
:104430009A6A002A14DB45465D626346C2507A439D
:10444000C932FF3282184250CFE700221D4BC254BE
:104450002000FFF7F1FBE0BCBA46B146A846F0BD2C
:10446000194807F0C3FB5346F058154BC35C002BAB
:10447000F1D10200E223C932FF325B00C250F622C2
:104480000023520083502C3283502C3283502C3224
:1044900083502C3283502C3283502C3283502C3258
:1044A0008350084A8352D3E7084807F09FFBD2E7BE
:1044B0000229D0D10022C254CDE7C046F823002003
:1044C00075040000740400002055041014550410F5
:1044D00010B503280DD8084B8000C2588E23DB008E
:1044E000D058272802DC411CD15010BD034807F0EA
:1044F0007DFB01204042F8E7F8230020C853041058
:10450000032806D8034B8000C2588E230021DB000D
:10451000D1507047F823002003280BD8064B8000A9
:10452000C358C9005B18CC2189005A50CD22002104
:10453000920099547047C046F823002010B5032814
:1045400010D8CD22084B8000C358C9005B189200D8
:104550009A5C002A03D1CC229200985810BD0348DF
:1045600007F044FB0020F9E7F8230020445504102D
:10457000011C802010B5C00505F0C0F810BDC04674
:10458000F8B5037B06000D001400022B38D025D8A7
:10459000002B13D02800424901F094FC414B01004C
:1045A0002200180001F0A4FC22003F4901F05EFC4B
:1045B000BF212200090601F085FC05002200316AB6
:1045C000280001F07FFC2200B16801F04FFC374B5E
:1045D0009C466444A40063597362F8BD032B20D148
:1045E0002800314901F042FC2200314901F06AFC07
:1045F000304B01002200180001F07AFC0500DDE7D5
:1046000028002D4901F05EFC2A4B01002200180011
:1046100001F06EFCFE212200890501F03DFC050041
:10462000CCE7002AD9DD0027052B1AD0042B2DD08A
:104630002968306A04F073FDB16804F059FD013750
:10464000706201C5BC42F3D1C7E70021306A04F0B3
:1046500066FDB16804F04CFD0137706201C5BC42D3
:10466000BBD00021286804F097FD0028EDD1316A05
:10467000B068EFE70021306A04F051FDB16804F042
:1046800037FD0137706201C5BC42A6D0FE21286803
:10469000890504F089FD0028ECD0B168306AEEE7A6
:1046A000DB0F4940F9920010000080BFFFFFFF3F81
:1046B0000000204171450010000020C1F0B54646C1
:1046C000D6464F46C369C0B504008846181C002171
:1046D00016009A4604F060FD002800D0AEE03000DD
:1046E00004F080FD071C011C504604F065FD002805
:1046F0007CD1002E00DC9BE04746A169606904F094
:10470000F7FCFE2160618905051C504604F0EDFCB4
:104710000021E061B946043704F03EFD002800D0D6
:10472000C4E0237B052B0BD8B04A9B00D3589F468F
:104730000021281C04F030FD002818D1FE25AD050D
:10474000216A281C04F0EBFCA16804F0D1FC4B4664
:10475000013E60621860002E6AD0E3699A46CCE799
:10476000FE21281C890504F01FFD0028E6D1002544
:10477000E6E7281C04F0A6FD00229D4B03F053FE43
:1047800000229C4B03F07FFE03F074FF011C80208D
:10479000C00504F0B3FF051CD2E79749281C04F0BC
:1047A000BEFC011C8020C00504F0A8FF011CFE20F7
:1047B000800504F09AFC051CC2E7281C04F082FD69
:1047C0008E4A8F4B03F05FFE03F054FF04F094FD1C
:1047D00004F078FD0022864B03F025FE0022894B71
:1047E00003F051FE03F046FF051CA9E70021206AF3
:1047F00004F0C4FC00283CD0002E09DD0023414613
:1048000065699A0001338D509E42F8D1E3699A465A
:104810005046391C04F069FC42467B4BE061F318BA
:104820009B009B586361320041462000FFF7A8FEC1
:104830004046E0BCBA46B146A846F0BD002E09DDB0
:104840000023404661699A00013381509E42F8D1AD
:10485000E3699A4650466D4904F0AEFC0028E2D068
:10486000300004F0BFFC011C504604F03EFCE06147
:10487000D9E7A5690021281C04F080FC0028BBD1E1
:104880006169281C04F034FC4346C14601251860C8
:10489000012EBBDD04239C46A169E14404F028FC01
:1048A0004B4601351860AE42F4D1AFE7FE239B05BD
:1048B00063612369002B28D000222261626820688E
:1048C000626298472269237B002A1FD06069052B0A
:1048D0000AD84F4A9B00D3589F46002104F05CFC45
:1048E000002848D1FE208005216A04F018FCA16848
:1048F00004F0FEFB4B4660621860012E98D0390030
:104900002000721EFFF7DAFE92E7237BFE200022D2
:1049100080056061A261022B66D0216A04F0FFFB72
:10492000A16804F0E5FB4B466062751E1860002329
:10493000012E05D061699A000133B9509D42F9D129
:10494000E6693249301C04F037FC002807D0280003
:1049500004F048FC011C301C04F0C7FBE0612A0095
:1049600039002000FFF70CFE62E7FE21890504F004
:104970001BFC0028B6D10020B6E704F0A3FC0022FF
:104980001B4B03F050FD00221A4B03F07CFD03F09B
:1049900071FE011C8020C00504F0B0FEA4E716499A
:1049A00004F0BDFB011C8020C00504F0A7FE011C23
:1049B000FE20800504F099FB96E704F083FC0F4A83
:1049C0000F4B03F060FD03F055FE04F095FC04F07E
:1049D00079FC0022064B03F026FD0022094B03F070
:1049E00052FD03F047FE7FE70A4896E750DA0410CD
:1049F0000000F03F00002440000020C1182D445466
:104A0000FB2109400000E0BFFFFFFF3F000080C422
:104A100068DA041000C07F3F254B10B51870830082
:104A20001818C00005F0DEF8224B186000283BD0B3
:104A3000012484620400002300221F4928340260FC
:104A4000027302614360836043618361C1610362F9
:104A50004362C3620363227302240465040050347A
:104A60008263C363036441648364C3644365836591
:104A70002273032484677D34026643668366C166BD
:104A800003674367C36703510400783422738824A3
:104A900002518C32835004328350043281500432EC
:104AA00083500432835010BD044807F09FF8FAE7A2
:104AB000AA3400204C310020000080BF5C55041057
:104AC0000378602B01D82033DBB2653BDBB2122BBD
:104AD00003D80D4A9B00D3589F46002070470520FD
:104AE000FCE740786F38434258414000F6E7042025
:104AF000F4E70620F2E70820F0E70720EEE70320BE
:104B0000ECE70120EAE7C04680DA0410032807D862
:104B1000044B1A6883001B18DB00D318586A7047CF
:104B20000020FCE74C310020F0B5C6460D1C00B556
:104B3000161C03282CD80027314982000C68121853
:104B4000D200A4182373069B65602361E369391CB6
:104B5000301C984604F020FB00281CD1616A281CF8
:104B6000A16004F0C2FA27492062301C04F0D7FA91
:104B7000011C051CFE20800504F0BDFA391C061C32
:104B8000404604F003FB002815D1E561A66167618A
:104B900080BCB846F0BDFE239B054046A56065621B
:104BA00027626361391C04F007FB0028F0D08023E2
:104BB0001B06E361ECE74046134904F0FDFA0028C8
:104BC000E3D080231B0643441800311CA66104F087
:104BD000A6FA391C04F08CFA41466061281C04F0E6
:104BE00087FA391CE06104F0D7FA0028D0D00748D2
:104BF00006F0FCFF064BE361FE239B056361C7E7FC
:104C00004C3100200000404200C07FC474550410A5
:104C1000ACC5273710B5032808D8054C83001B18EE
:104C20002068DB00C018FFF749FD0100080010BD37
:104C30004C310020F8B5DE4657464E4645461E4BE1
:104C4000E0B518604301181A800004F0CBFF1B4B3D
:104C5000060000271860002829D00C239B46184B1B
:104C60009A46FE239B05994600239846350000246A
:104C700080C5200004F0B6FA013401C5182CF8D123
:104C80005B4673665346B3664B46F3664346002263
:104C900033677423F25443460137B3677C36042FDD
:104CA000E4D1F0BCBB46B246A946A046F8BD0548D3
:104CB00006F09CFFF5E7C0460028002004280020ED
:104CC0000000404194550410030010B50800032B68
:104CD0000DD8002A0BDD06498C4662449200145818
:104CE000044A11685A01D31A9B00CB189C6710BD67
:104CF000FFFFFF3F042800207047C046F0B5C646BE
:104D0000866F040000B50D1C002E00DCB4E0816B42
:104D1000281C04F03BFA002800D0ADE0012E00D1A1
:104D2000B1E0E16B281C04F031FA002800D0ACE0BF
:104D3000022E00D1ACE0216C281C04F027FA0028D8
:104D400000D0A7E0032E00D1A7E0616C281C04F07E
:104D50001DFA002800D0A2E0042E00D1A2E0A16C30
:104D6000281C04F013FA002800D09DE0052E00D185
:104D70009DE0E16C281C04F009FA002800D098E0BE
:104D8000062E00D17BE0216D281C04F0FFF90028DD
:104D900000D091E0072E00D191E0616D281C04F055
:104DA000F5F9002800D08CE0082E00D18CE0A16D30
:104DB000281C04F0EBF9002800D087E0092E00D170
:104DC00087E0E16D281C04F0E1F9002800D082E0C2
:104DD0000A2E00D182E0216E281C04F0D7F90028A9
:104DE00000D07DE00B2E00D17DE0616E281C04F028
:104DF000CDF9002800D078E00C2E00D178E0A16E2B
:104E0000281C04F0C3F9002800D073E00D2E00D157
:104E100073E0E16E281C04F0B9F9002800D06EE0C0
:104E20000E2E2ED0216F281C04F0B0F900286BD173
:104E30000F2E67D0291C606F04F0BEF910250F26D5
:104E4000002802D110260F2502358023E358AB42FB
:104E50000FD0A768002F0AD0227828009046AB42D6
:104E600000DBF04304F0BEF9011C4046B847802344
:104E7000E55080BCB846F0BD01250026E5E70525D4
:104E8000E2E70D25E0E70025DEE702250126DCE765
:104E90000125D9E703250226D7E70225D4E7042513
:104EA0000326D2E70325CFE705250426CDE7042511
:104EB000CAE706250526C8E707250626C5E706250D
:104EC000C2E708250726C0E70725BDE7092508260C
:104ED000BBE70825B8E70A250926B6E70925B3E7A1
:104EE0000B250A26B1E70A25AEE70C250B26ACE711
:104EF0000B25A9E70D250C26A7E70C25A4E70E2511
:104F00000D26A2E70E259FE70F250E269DE7C0463A
:104F1000F423F0B5C646C658050000B5002E17D0DC
:104F2000336849004C08211C181C984604F0DDF831
:104F30004146071C201C04F03FF9002811D1F168FC
:104F4000381C04F0ECF8211C04F0D2F8011C30608D
:104F5000FC22AB58013BAB50002B04DD80BCB846B3
:104F6000F0BDB168ECE7F823EB58AB50AB68002B11
:104F7000F4D028789847F1E7F423F0B5C646C55831
:104F8000060000B50C1C002D17D02B684C006408DF
:104F9000211C181C984604F0A8F84146071C201C48
:104FA00004F00AF9002845D1E968381C04F0B7F884
:104FB000211C04F09DF8041C2860F068211C04F0FA
:104FC000E5F8251C00280ED186235B00F058211C33
:104FD00004F08BF884235B00F15804F0A0F8211C46
:104FE00004F086F8051C86235B00F5500C3BF05856
:104FF0000433F158337C002B0CD004F076F8291CD4
:1050000004F0DAF8002801D000233374F46080BC87
:10501000B846F0BD04F06CF8291C04F0B7F800287D
:10502000F4D001233374B368002BEFD00021307823
:105030009847EBE7A968B8E7F8B504004E4645463F
:10504000DE4657468434E0B50600A06D0D1C04F022
:105050009DF8002805D1E06D291C04F0ADF800286A
:1050600074D0E36CA76C181C291C984604F040F817
:10507000391C04F040F8051C04F0AAFA04F0D4F836
:10508000606604F0AFF8236C814618009A4604F07D
:10509000A9F849468346281C04F027F8011C584605
:1050A00004F03DF804F094FA04F0BEF805008245DF
:1050B00052DDEB438422DB171D40AB002566F3185D
:1050C0009B5848469A46636C191C9B4604F027F887
:1050D000514604F00DF85946A066504604F00BF80E
:1050E000494604F005F8391C04F019F8B368E06685
:1050F000002B0AD0002130789847606E04F072F8D7
:10510000E36C81469846256EA76C266D280004F056
:1051100069F8311C04F003F8391C051C484603F0FB
:10512000FEFF011C281C03F0E3FF414603F0DDFFF6
:10513000676D051C391C03F0D8FF391CE065281C7D
:1051400003F0D6FF311C03F0D3FFA065F0BCBB46D3
:10515000B246A946A046F8BD5546013DA9E7C0465E
:10516000836A10B5013B8362002B00DD10BD436AEA
:1051700083628368002BF9D000789847F6E7C04631
:1051800070B50400227CC06A236B0D1C002A17D066
:10519000191C03F0AAFF291C04F00EF800280ED0F9
:1051A00000232374236A013323623423E356012B43
:1051B00005D0A368002B02D000212078984770BD4D
:1051C000011C181C03F094FF291C03F0DFFF0028CA
:1051D000F5D001232374E3690133E3613423E356FB
:1051E0000133ECD0A368002BE9D0FE21207889059B
:1051F0009847E4E78821F8B50F4B4900186006008E
:1052000004F00EFD0D4A03001060002E13DD002295
:105210000020002100250A4F0A4C1A709C61DD61B4
:10522000D8601974586119625F6099600132113356
:10523000FF339642F1D1F8BD702900207429002077
:10524000F94C0010C77ED300074A03001268904251
:1052500008DA064A1068002803D01A01D3181B0187
:10526000C01870470020FCE7702900207429002036
:1052700010B5041E1FD0124932F026FE002818D0A7
:105280002378752B0DD020000E4932F01DFE00282A
:1052900013D020000C4932F017FE434258414042DF
:1052A00010BD6378702BEED1A3780120002BF7D0CE
:1052B000E9E70120F4E70020F2E701204042EFE7B0
:1052C000AC550410B4550410A87E0410002803D077
:1052D000024B4360002383607047C046F94C0010C6
:1052E00010B50400101C002C0BD0074BA1606360AC
:1052F000064903F014FF03F097FF002802DD606207
:10530000A06210BD0120FAE7615100100080BB448B
:1053100070B500261D1C04AB04009E5700280ED05B
:10532000084B81604360C2620749281C03F02EFFCE
:10533000002805D134232563E6540023237470BD6F
:10534000014DF7E7815100106F12833AF0B5C64660
:10535000050000B5002800D18EE0002A00D18BE0C6
:10536000102B00DD88E02C00A9607B48069984346E
:1053700068606164079984262364A164002B00D1CE
:105380007DE03DDD1168A951012B39D05168616084
:10539000022B35D09168A160032B31D0D168E16038
:1053A000042B2DD011692161052B29D05169616130
:1053B000062B25D09169A161072B21D0D169E1612C
:1053C000082B1DD0116A2162092B19D0516A616224
:1053D0000A2B15D0916AA1620B2B11D0D16AE16220
:1053E0000C2B0DD0116B21630D2B09D0516B616318
:1053F0000E2B05D0916BA163102B01D1D26BE26310
:10540000180003F0EFFE8046FC210798890503F0A1
:1054100086FE069903F06FFE4146E064051C07987E
:1054200003F069FE4D492065071C03F064FE4C49FA
:10543000061C03F0ABFE002800D0494E49490798EE
:10544000666503F06CFE00218046381C03F067FEA1
:10545000011C404603F04CFE291C03F046FE311CA3
:10546000051C03F042FE291CE065301C03F040FEE1
:10547000391C03F03DFEA06580BCB846F0BD832119
:105480000698C90503F098FE002848D0102323642D
:105490000023AB51FE239B0563608023DB05A360E3
:1054A0008323DB05984610272F4BE360042FABD0F6
:1054B0008123DB052361052FA6D02C4B6361062FCA
:1054C000A2D02B4BA361072F9ED02A4BE361082F5C
:1054D0009AD08223DB052362092F95D0264B636285
:1054E0000A2F00D190E7254BA3620B2F00D18BE749
:1054F000234BE3620C2F00D186E7224B23630D2F51
:1055000000D181E7204B63630E2F00D17CE71F4B56
:10551000A3630F2F00D177E71D4BE36374E7069871
:1055200003F082FE2064070003F05CFE8046002F3B
:1055300000DC69E70023AB51012F00D164E7FE23B3
:105540009B056360022F00D15EE78023DB05A3602B
:10555000032FA9D158E7C046395000100000A041E0
:10556000A69BC43B000020C1000040400000A040BA
:105570000000C0400000E040000010410000204159
:1055800000003041000040410000504100006041F7
:105590000000704110B500284CD0002A4AD0102BD2
:1055A00048DC254C816002994460C1670024802159
:1055B00083674450002B3DDD11688163012B39D096
:1055C0005168C163022B35D091680164032B31D03F
:1055D000D1684164042B2DD011698164052B29D039
:1055E0005169C164062B25D091690165072B21D033
:1055F000D1694165082B1DD0116A8165092B19D02D
:10560000516AC1650A2B15D0916A01660B2B11D026
:10561000D16A41660C2B0DD0116B81660D2B09D020
:10562000516BC1660E2B05D0916B0167102B01D118
:10563000D36B436710BDC046FD4C001070B504002D
:10564000151C002812D0F426124B81604360835948
:10565000002B0ED01049281C03F061FD03F0E4FD7F
:10566000002804DDF823E0500433E05070BD012031
:10567000F8E7102004F0B6FA002809D000230360F0
:10568000064BA0514360064B8360064BC360E1E7C5
:10569000A051DFE7114F00100080BB44BC74933C65
:1056A000DB0D7D3F31B47F3FF8B50400161C1D1C97
:1056B000002813D0F427124B81604360C359002B9C
:1056C0000DD080235B00E6500E4A0433E5500433CE
:1056D000E25000220433E25000232374F8BD10206E
:1056E00004F080FA002809D000230360064BE05143
:1056F0004360064B8360064BC360E2E7E051E0E79E
:10570000794F00100AD7233CEC51383E31B47F3F2B
:105710006AF87F3F002802D0014B816043607047E8
:10572000F94C0010134B70B51B680D1C834218DD3B
:10573000114B1C68002C14D003011B181B01E4182A
:10574000A2690E4B9A4205D00D4E3368002B09D04A
:105750000A4BA36163686561002B02D02000291CFD
:10576000984770BD074B0100180006F0C3FA0123EB
:105770003360EDE77029002074290020C77ED30034
:1057800098340020BC550410010010B5002802D048
:10579000014806F0AFFA10BDE455041070B5164E7E
:1057A000840033682418A4001B191969050000F04F
:1057B0003BFA336811491B191A6901328A4200DD2C
:1057C0000A00D9681A61002901DB914200DB70BD33
:1057D000002D0CDB0A4A1268954208DA1A79002A71
:1057E000F5D1013228001A7100F092FAEFE705486E
:1057F00006F0FCF9EBE7C046382F0020FEFFFF7FE4
:10580000302F0020F855041070B504000E4B1860BE
:1058100080000019800004F0E5F90C4A03001060D4
:10582000002C0FDDFE250120002201260021AD0500
:1058300040421A6001321E719D60D86019611433B4
:105840009442F6D170BDC046302F0020382F002082
:1058500010B5002803DB0A4B1B68834203DC0948B0
:1058600006F0C4F910BD084B08491A6883001B18DC
:105870009B00D31800221A7100F020FAF2E7C0460C
:10588000302F002010560410382F00209D57001094
:1058900010B500280DDB0B4B1B68834209DD0A4A5B
:1058A000830012681B189B00D3181A79002A04D0B1
:1058B00010BD064806F09AF9FAE701321A7100F0B5
:1058C00027FAF5E7302F0020382F0020F855041074
:1058D00010B5002803DB054B1B68834203DC04483A
:1058E00006F084F910BD00F033FAFBE7302F0020FA
:1058F0002856041010B500280BDB084B1B688342A8
:1059000007DD074B1A6883001B189B00D318D9606A
:1059100010BD044806F06AF9FAE7C046302F0020AF
:10592000382F0020445604100B4810B501F04AFDF2
:1059300001220A4B00211A700022094B09481A6003
:10594000094B1A6093009B189B00C4180132A16098
:10595000C150282AF6D110BD84290020A834002087
:105960005430002058310020182B0020224B70B5F5
:10597000197800291ED1EFF3108C72B61F4B204A04
:1059800018681268904212D01A689400A4181D4A30
:10599000A400A4181A681A6801321A60282A00D1D3
:1059A00019608CF3108820002368984701E08CF37D
:1059B000108870BD144D28003EF05EF90F4B104A60
:1059C00019681268914212D01A689400A4180D4AFE
:1059D000A400A4181A681A6801321A60282A03D091
:1059E00028003EF0E9F8DEE700221A60F8E7280018
:1059F0003EF0E2F8DDE7C046A8340020182B002076
:105A0000543000205831002084290020F8B5444B40
:105A100005001B78002B53D1EFF3108072B6414C78
:105A2000414E2368591C273B5A1E93415B42194043
:105A30003368994231D02B6827689C46BA00D21946
:105A400067463A4B9200D7502768BA00D2199200A5
:105A50006F689A1857602768BA00D21992009B188D
:105A6000AA689A60216080F310882B7B304A052B4E
:105A700003D89B00D1580131D15021683368994235
:105A800019DB236831685B1A3C215354916B9942AE
:105A900001D30120F8BD9363FBE780F3108825480C
:105AA000FFF772FE224B00201A6B01321A635A6B09
:105AB00001325A63EEE7316823685B1A2833E3E763
:105AC0001D4F38003EF0D8F8164C174E2368591C6D
:105AD000273B5A1E93415B42194033688B421BD0CF
