:020000041000EA
:1000000000B5324B212058609868022188439860DF
:10001000D860186158612E4B002199600221596106
:100020000121F02299502B49196001219960352056
:1000300000F044F80222904214D00621196600F024
:1000400034F8196E01211966002018661A6600F04E
:100050002CF8196E196E196E052000F02FF8012189
:100060000842F9D1002199601B49196000215960AB
:100070001A491B48016001219960EB211966A021F2
:10008000196600F012F800219960164914480160C1
:100090000121996001BC002800D000471248134993
:1000A000086003C880F30888084703B5996A0420EC
:1000B0000142FBD001200142F8D103BD02B5186610
:1000C0001866FFF7F2FF186E186E02BD00000240BE
:1000D000000000180000070000035F00212200005C
:1000E000F4000018222000A00001001008ED00E03C
:1000F00000000000000000000000000074B24E7A12
:1001000000200420F7010010CB010010CD010010E9
:10011000C9010010C9010010C9010010C901001077
:10012000C9010010C9010010C9010010CF01001061
:10013000C9010010C9010010D1010010D301001045
:10014000C1010010C1010010C1010010C101001067
:10015000C1010010C1010010C1010010C101001057
:10016000C1010010C1010010C1010010C101001047
:10017000C1010010C1010010C1010010C101001037
:10018000C1010010C1010010C1010010C101001027
:10019000C1010010C1010010C1010010C101001017
:1001A000C1010010C1010010C1010010C101001007
:1001B000C1010010C1010010C1010010C1010010F7
:1001C000EFF30580103800BE00BE00BE00BE00BECA
:1001D00000BE00BEF2EB887190020010B402001065
:1001E0003802001090A31AE721482249086006C887
:1001F00081F30888104720480068002801D01C4877
:10020000F3E70DA40ECC002902D000F012F8F9E7B4
:100210001A491B4A002000E001C19142FCD1194952
:100220008847194988471949884700BEFDE701C931
:1002300001C29A42FBD37047B4020010C0000020F4
:10024000C4C20020B8C40010D0C20020F8F50020BD
:10025000E0F700100000042000000420E0F7001088
:10026000001004200010042000000000704700006F
:100270000000000008ED00E0000000D0F8F50020CC
:100280004C10012055750020295000204D7500208C
:10029000E4EC0020F0EC0020FCEC002008ED002055
:1002A00014ED002020ED00202CED002068EE002051
:0402B0005CEE0020E0
:1002B400F8B5C04606480749091A8B10C90FC91872
:1002C40010B5491003D0044B002B00D0984710BD43
:1002D400F8F50020F8F5002000000000054B10B5EB
:1002E400002B03D00449054800E000BFFFF7E2FFFC
:1002F40010BDC0460000000008100120C4C2002048
:10030400A423082130B5FF24134A1448D1501449BA
:1003140002680B680D689B1AA343521BD218026033
:10032400104A1B02944612680F4853401B0C0F4D91
:100334001B0403602A684B6849689B1AA343521A3A
:10034400D2182A6062461B0212681B0C53401B041D
:100354001B0C036030BDC04600000540B002012004
:1003640078EE00204800054048100540B402012002
:10037400F0B5502387B017256A460405240F1C43A3
:100384006D44AF3393750F00287006F075FC00239D
:10039400194A80185941002902DA012017494042BC
:1003A40000230290039100932A0021001448013392
:1003B4000BF064FB00281ADD06F05EFC00230E4AF5
:1003C40080185941002902DA01200C4940420023D7
:1003D40016220290039100932100094801336A44D4
:1003E4000BF06CFB002802DD6B46987D02E00123D4
:1003F40000203B7007B0F0BD10270000FFFFFF7F17
:1004040080EF0020F0B5DE464E4657464546E0B53F
:10041400564C6420A54406F005FBF023544EF35CCF
:100424000C2B01D000F088FED0231B065A688023D1
:1004340010005B0318401A423ED00124012314AA81
:10044400C532FF320020138085A907F001FD002C7E
:100454003AD0DC2714AB9B46464BFF000993029627
:1004640001200021404207F067FD40235A46002145
:10047400002008F0AFFA81465E46D9440028EFD048
:100484003D4B3E4C9846029D07E0511C29513C4986
:10049400AA1853540136B145E2D03378F02B1ED05C
:1004A400EA5D002A20D0F72B76D02A596F2AECD99E
:1004B40001234246AB54EDE7022314AAC532FF32AE
:1004C400138085A909F0CCFD0120002140420AF0E7
:1004D4007FF80120002140420AF07AF8F4E7002373
:1004E4002B510133EB53D5E7F72BD3D859B200295D
:1004F40001DA00F0CCFD234AA85C0F2201009143ED
:1005040000910100103201909143802902D0009A99
:10051400E02ABFD19522920094466046AA5C511C01
:10052400C9B229541848AA1813540129B2D900236E
:100534006246AB54154B0199EA5C0F230B4093427E
:10054400A8D1009B2A5C902B01D100F0A7FD802B41
:1005540001D100F0A7FD0E4BEB5CDB0113430D4A08
:100564009B1897229200AB5094E7C046D4F9FFFF42
:1005740020F8002084FE0020E1060000DC060000D4
:100584006C060000510200005202000062020000EA
:100594005302000000E0FFFF0023EB554346EB5CF1
:1005A400002B00D076E7FC4BEB58052B00D871E705
:1005B400FA49FB4A6958914200D06BE7CE22D20037
:1005C400AA5C332A00D065E7F64AAA5C9246033A4D
:1005D400012A01D800F07CFD5246013A012A00D9D3
:1005E40058E7672B00D055E7EF4B14AAEB5C423277
:1005F400129300231380FE22EC4B9201EB5CDB018F
:100604001340EB4AA95C7F220A4013438022520123
:10061400934201DB00F061FE9BB20B93E54BFE219C
:10062400EA5CFE23D2019B011A40E34B4903EB5CD5
:100634009B030B401343E14AA95C7F220A40134306
:10064400DF4A0193934201D900F044FE019B002B41
:1006540001D100F03BFEFE210B9A14AB40331A800B
:10066400019BD84A2593AA5C8901D2010A40D12171
:10067400C900685C7F2101400A43802149018A4204
:1006840001DB00F020FE93B2CF4A0C93A95CFE225A
:10069400FE209201C9011140CC4A4003AA5C920396
:1006A40002400A43CA491300685C7F2101400B439E
:1006B400C34903938B4201D900F002FE039B002B34
:1006C40001D100F0F9FD002114AB4A3319804831FF
:1006D40014AB5B180C991980039BBE492793685C83
:1006E400FE21C00189010840BB496B5C7F219C4607
:1006F40063461940014380204001814201DB00F040
:10070400D8FD8BB2D2210D93C900685CFE21FE2373
:100714008901C0010840B1495B03695C8903194040
:100724000143AF482B5C7F209C466346184001433D
:1007340008000491A249884201D900F0B7FD049B46
:10074400002B01D100F0AEFD002114AB523319800F
:10075400503114AB5B180D991980049BA14929935E
:10076400685CFE21C001890108409F496B5C7F21C0
:100774009C4663461940014380204001814201DBCD
:1007840000F08DFD8BB299490E93685CFE21FE2327
:100794008901C001084096495B03695C89031940DB
:1007A400014394482B5C7F209C46634618400143D8
:1007B400080005918249884201D900F06DFD059B2E
:1007C400002B01D100F064FD002114AB5A331980D1
:1007D400583114AB5B180E991980D321059BC900BD
:1007E4002B93685CFE21C0018901084082496B5C3F
:1007F4007F219C4663461940014380204001814289
:1008040001DB00F042FD8BB27C490F93685CFE2152
:10081400FE238901C001084079495B03695C8903AF
:100824001940014377482B5C7F209C46634618405F
:100834000143080006916249884201D900F022FD73
:10084400069B002B01D100F019FD002114AB62338B
:100854001980603114AB5B180F991980069B6A49A3
:100864002D93685CFE21C0018901084067496B5CD7
:100874007F219C4663461940014380204001814208
:1008840001DB00F0F8FC8BB261491093685CFE2137
:10089400C00189010840D421FE23C900695C5B03BF
:1008A4008903194001435B482B5C7F209C466346C7
:1008B40018400143080007914149884201D900F0DA
:1008C400D7FC079B002B01D100F0CEFC002114AB18
:1008D4006A331980683114AB5B1810991980079B2F
:1008E4004D492F93685CFE21C001890108404B49A2
:1008F4006B5C7F219C466346194001438020400184
:10090400814201DB00F079FC8BB245491193685CAC
:10091400FE21FE238901C001084042495B03695C52
:1009240089031940014340482B5C7F209C46634661
:1009340018400143080008912149884201D900F078
:1009440059FC089B002B01D100F050FC002114AB92
:1009540072331980703114AB5B1811991980089B9C
:1009640032493193685CFE21C00189010840304955
:100974006B5C7F219C466346194001438020400103
:10098400814201DB00F02FFC0A912A49FE23685CB6
:10099400FE21C00150E0C046DC0600006C060000E9
:1009A4007D43315A7106000072060000840600007F
:1009B4008306000086060000870600008506000006
:1009C40000EE0200890600008B0600008C06000081
:1009D4008A0600008E0600008D06000091060000C5
:1009E4008F060000930600009206000095060000A2
:1009F4009606000094060000970600009A06000080
:100A04009B060000990600009D0600009C0600005D
:100A14009F0600009E060000A2060000A10600003A
:100A2400A4060000A5060000A3060000A706000017
:100A3400A6060000A906000089010840F1495B03ED
:100A4400695C890319400143D520C0002B5C7F20D9
:100A54009C4663461840014308000091EA498842D5
:100A640000D9BEE3009B002B00D1B7E3002114ABF7
:100A74007A331980783114AB5B180A991980009B7A
:100A8400E2493393685CFE21C00189010840E049D2
:100A94006B5C7F219C4663461940014380204001E2
:100AA400814200DB98E3FE20FE231391D9494003E1
:100AB400695C9B0189030140D748285CC001184048
:100AC4000843D6496B5C7F219C4663461940014329
:100AD400CD48814200D97DE3002900D178E3002389
:100AE4009C4614AA4033D21842206346135202385B
:100AF40014AA1318139A3591C9491A52685CFE2135
:100B0400C00189010840D621C9006B5C7F219C4645
:100B140063461940014380204001814200DB55E3D4
:100B2400FE20FE231391BF494003695C9B018903A6
:100B34000140BD48285CC00118400843BB496B5CB8
:100B44007F219C46634619400143AF48814200D946
:100B54003AE3002900D135E300239C4614AA40332C
:100B6400D2184A206346135214AA4033D318139A56
:100B740037910238AE491A52685CFE21C0018901DE
:100B84000840AC496B5C7F219C4663461940014395
:100B940080204001814200DB12E3FE201391A6492C
:100BA4004003695CFE2389030140D720C000285C10
:100BB4009B01C00118400843A0496B5C7F219C46FF
:100BC4006346194001439048814200D9F6E2002966
:100BD40000D1F1E200239C4614AA4033D2185220DB
:100BE4006346135214AA4033D318139A3991023826
:100BF40093491A52685CFE21C00189010840914959
:100C04006B5C7F219C466346194001438020400170
:100C1400814200DBCEE2FE20FE2313918A49400389
:100C2400695C9B01890301408848285CC001184025
:100C3400084387496B5C7F219C4663461940014306
:100C44007148814200D9B3E2002900D1AEE2002309
:100C54009C4614AA4033D2185A2063463B91D821AB
:100C6400135214AA4033D318139A02381A52C900E3
:100C7400685CFE21C0018901084076496B5C7F21D4
:100C84009C4663461940014380204001814200DBB9
:100C94008AE2FE20FE2313916F494003695C9B01A5
:100CA400890301406D48285CC001184008436C4921
:100CB4006B5C7F219C466346194001435248814244
:100CC40000D96FE2002900D16AE200239C4614AAED
:100CD4004033D21862206346135214AA4033D31807
:100CE400139A3D9102385F491A52685CFE21C00193
:100CF400890108405C496B5C7F219C46634619402E
:100D0400014380204001814200DB47E2FE20139131
:100D140056498001695CFE23C9010140D920C00005
:100D2400285C5B0380031840084351496B5C7F21B6
:100D34009C466346194001433348814200D92BE263
:100D4400002900D126E200239C4614AA4033D2187D
:100D54006A206346135214AA4033D318139A3F915E
:100D6400023844491A52685CFE21C00189010840D6
:100D740041496B5C7F219C466346194001438020B6
:100D84004001814200DB03E2FE20FE2313913B4934
:100D94008001695C5B03C90101403948285C800318
:100DA4001840084337496B5C7F219C4663461940D1
:100DB40001431548814200D9E8E1002900D1E3E16B
:100DC40000239C4614AA4033D2187220634613525F
:100DD40014AA4033D318139A419102382A491A525B
:100DE400685CFE21C0018901084028496B5C7F21B1
:100DF4009C4663461940014380204001814200DB48
:100E0400C0E145E0AA06000000EE0200AC060000C6
:100E1400AB060000AF060000AE060000AD06000001
:100E2400B1060000B4060000B3060000B2060000DC
:100E3400B6060000B5060000B9060000B7060000BB
:100E4400BB060000BA060000BE060000BD06000096
:100E5400BC060000BF060000C3060000C206000076
:100E6400C1060000C5060000C4060000C706000055
:100E7400C6060000CA060000C9060000CC06000031
:100E8400CD060000CB060000CF060000CE06000011
:100E9400FE20FE231391DA498001695C5B03C901DA
:100EA4000140D848285C800318400843DA21C9006F
:100EB4006B5C7F219C46634619400143D2488142C2
:100EC40000D95DE1002900D158E100239C4614AA11
:100ED4004033D2187A206346135214AA4033D318ED
:100EE400139A02381A520B9A0C9B4391111C9A4282
:100EF40000D241E10D9B88B2984200D23AE10E9BA8
:100F040088B2984200D233E10F9B88B2984200D253
:100F14002CE1109B88B2984200D225E1119B88B243
:100F2400984200D21EE10A9B0B4399B2002901D1D9
:100F3400FFF7B0FA039A019B9B18049A9B18059A31
:100F44009B18069A9B18079A9B18089A9B18009A54
:100F54009B18F0229200934201D2FFF79BFA0723D9
:100F6400129A24A91A409923D0019B0028180092B0
:100F7400C018802206F0A0FB009AA449AB185B18A5
:100F8400012119701300D8220933FF32AB54EB232B
:100F940000225B00EA545346022B01D0FFF77AFA91
:100FA4009B4A002185A806F081FB9A4B85939A4BB6
:100FB400869300231A000999C95C002903D00121F2
:100FC40099400A43D2B20133082BF4D114ABCD3388
:100FD400FF331A70924680229049D20089A806F005
:100FE4006BFB8F4A85A90B7814A85A4013049B18ED
:100FF4005B009B18DB009B18DB009B185B009A18B6
:10100400884B01311B188B42EDD103008221C5337B
:10101400FF33C9005A50844B7E4A1868904200D16D
:1010240072E1EFF3108A72B68021FF204901400378
:101034000BF05CFF0023009385AB013B0493019507
:101044008022FF21520044A806F030FB009A774921
:10105400049D891AAD180222FF3201239446039697
:1010640007E0EA5C14AEBF36F2540133634500D1A5
:1010740036E19942F5D180226D48520044A9039E7D
:10108400019D0BF07BFF8AF31088FFF703FA69498F
:101094006B5495239B00EA54FFF7FCF9664BEB5C19
:1010A400002B4CD196239B00EB5C934201D0FFF7BD
:1010B400F1F9D823FF33EB5C002B4DD0EB235B001D
:1010C400EB5C002B48D001225C4BEA54FFF7E2F9B9
:1010D4000B2B01D0FFF7DEF9FE22594B9201EB5C9A
:1010E400DB011340574AA95C7F220A401343802244
:1010F400520193422EDA0F21FE20534A8001AA5C4A
:101104001140524AAA5CD201024051489246285CDE
:1011140084467F20624610405246024380204001AC
:10112400824215DA832080002A5084229200AB5038
:10113400484BE954FFF7AEF90224FFF77FF946491B
:101144006A54464AAB540122454BEA54FFF7A2F9CC
:10115400444AE7E7434BCEE7982300229B00EA5436
:10116400FFF798F9191CDEE6191CD7E6191CD0E61E
:10117400191CC9E6191CC2E6191CBBE60131A4E618
:101184000100A2E6374983E6013119E6010017E6BA
:101194003449F9E50131D6E50100D4E53149B5E535
:1011A400013192E5010090E52E4972E501314EE5E9
:1011B40001004CE52B492EE501310BE5010009E561
:1011C4002849EAE40131C7E40100C5E42549A7E45C
:1011D400013184E4010082E4224964E40133009390
:1011E40044E4009142E41F49FFF7CEFB0133089326
:1011F400FFF7ACFB0891FFF7A9FB1A49FFF784FB43
:10120400D1060000D206000000EE020064060000D1
:10121400140400004E4531430100140484FA0020F4
:10122400C59D1C81D405000000E01F1015040000BA
:1012340000E41F005102000053020000610200009C
:1012440075060000740600007606000073060000B0
:1012540072060000620200005502000056020000FF
:1012640057020000FF0F000001330793FFF72EFB26
:101274000791FFF72BFB3B49FFF705FB013306936F
:10128400FFF7E3FA0691FFF7E0FA3649FFF7BBFAF6
:1012940001330593FFF798FA0591FFF795FA314961
:1012A400FFF770FA01330493FFF74EFA0491FFF746
:1012B4004BFA2C49FFF725FA01330393FFF703FA9E
:1012C4000391FFF700FA274AFFF7DDF90133019391
:1012D400FFF7C1F90192FFF7BEF9224BFFF79CF922
:1012E400FF238022009D5B03E818520044A9039E5B
:1012F4000BF044FEA0230135FF350095DB009D4231
:1013040000D09DE6019DBEE69A88012A00D088E6B9
:10131400154AD888904200D083E614485958844628
:10132400134A1878013342406046424311488342CD
:10133400F7D1914200D074E60F4B1B7A534500D08D
:101344006FE602000D4B04E00133934201D1FFF735
:10135400A1F80B4814A90918C85C19788842F3D07D
:101364005FE6C046FF0F0000140400009301000173
:10137400C59D1C8110E41F1000E01F1010E01F1019
:10138400C421E0EF10B5024B18680BF085F910BDCD
:101394008802012070B5D02501220021072004F025
:1013A4004FFC01220021062004F04AFC0122002106
:1013B40005202D0604F044FC0120002105F0BCFAB0
:1013C4006A686C686B6864069B06E40FDB0F1B019C
:1013D400A4001C431306DB0F0022012107201C4339
:1013E40004F02EFC00220121062004F029FC002236
:1013F4000121052004F024FC0120002105F09CFAC1
:1014040069686A6809066B68C90F52064900D20FF9
:101414009B060C43D200DB0F5B0100210720144321
:1014240001221C4304F00CFC01220021062004F0DC
:1014340007FC64B201220021052004F001FC2A2CDF
:1014440005D0302C03D0FF200C2C00D070BDE0B2AE
:10145400FCE7C046F0B54E46DE4657464546E0B585
:10146400431824331B7885B0994601900291002BD0
:1014740000D129E280468B0003935B181B0198443A
:1014840044462C20205606F009F8DB4905F0CFFF2E
:101494004546041CA86A06F001F8211C051C201C02
:1014A40005F0C5FF211C061C281C05F0C0FF4A4698
:1014B400071C012A00D1A1E142463420105605F050
:1014C400EDFFCD4905F0B3FF42468246106B05F0AF
:1014D400E5FF51468346201C05F092FF5946041C43
:1014E400281C05F08DFF5146051C504605F09FFF52
:1014F400011C301C05F084FF5146061C584605F0BB
:1015040096FF011C381C05F07BFF4A46071C022A83
:1015140000D173E142463C20105605F0BFFFB649A6
:1015240005F085FF42468246906B05F0B7FF5146B1
:101534008346201C05F064FF5946041C281C05F052
:101544005FFF5146051C504605F071FF011C301C1D
:1015540005F056FF5146061C584605F068FF011C6D
:10156400381C05F04DFF4A46071C032A00D145E10B
:1015740042464420105605F091FF9F4905F057FF5D
:1015840042468246106C05F089FF51468346201C72
:1015940005F036FF5946041C281C05F031FF51465E
:1015A400051C504605F043FF011C301C05F028FFC4
:1015B4005946061C504605F03AFF011C381C05F03C
:1015C4001FFF4A46071C042A00D117E142464C205B
:1015D400105605F063FF884905F029FF424682460C
:1015E400906C05F05BFF51468346201C05F008FF14
:1015F4005946041C281C05F003FF5146051C50469F
:1016040005F015FF011C301C05F0FAFE5946061CB6
:10161400504605F00CFF011C381C05F0F1FE4A464B
:10162400071C052A00D1E9E054234246D05605F0B0
:1016340035FF714905F0FBFE42468246106D05F008
:101644002DFF51468346201C05F0DAFE5946041C42
:10165400281C05F0D5FE5146051C504605F0E7FE52
:10166400011C301C05F0CCFE5946061C504605F002
:10167400DEFE011C381C05F0C3FE4A46071C062A80
:1016840000D1BBE042465C20105605F007FF5A49E2
:1016940005F0CDFE42468246906D05F0FFFE5146B0
:1016A4008346201C05F0ACFE5946041C281C05F09A
:1016B400A7FE5146051C504605F0B9FE011C301C1E
:1016C40005F09EFE5946061C504605F0B0FE011C6E
:1016D400381C05F095FE4A46071C072A00D18DE008
:1016E40042466420105605F0D9FE434905F09FFE9A
:1016F40042468246106E05F0D1FE51468346201CB8
:1017040005F07EFE5946041C281C05F079FE51465E
:10171400051C504605F08BFE011C301C05F070FEC4
:101724005946061C504605F082FE011C381C05F083
:1017340067FE4A46071C082A60D042466C201056B1
:1017440005F0ACFE2C4905F072FE42468246906ECE
:1017540005F0A4FE51468046201C05F051FE41468A
:10176400041C281C05F04CFE5146051C504605F08F
:101774005EFE011C301C05F043FE4146061C50462B
:1017840005F055FE011C381C05F03AFE4A46071CBC
:10179400092A33D0019A02989046039B1B181B0117
:1017A400984443467420185605F078FE124905F013
:1017B4003EFE43468246186F05F070FE5146804651
:1017C400201C05F01DFE4146041C281C05F018FED3
:1017D4005146051C504605F02AFE011C301C05F03C
:1017E4000FFE4146061C504605F021FE011C381C24
:1017F40005F006FE071C01E0CDCCCC3D484605F0C3
:101804004DFE311C804605F012FE211C061C201CD6
:1018140005F00DFE011C301C05F0EFFD0021061C37
:1018240005F034FE002841D1391C404605F0FFFD87
:10183400211C071C281C05F0FAFD011C381C05F0AE
:10184400DCFD311C05F0DFFD211C061C05F0EFFD5D
:10185400011C281C05F0D1FD414605F0D4FD1C49AE
:10186400041C301C05F0E3FDFC21890505F0C8FDCE
:1018740005F036FEFC2181468905201C05F0C0FDDB
:1018840005F02EFE029B019A1B01D3181A00C832E0
:10189400166054604946D02299500432985005B0DD
:1018A400F0BCBB46B246A946A046F0BD4146281C42
:1018B40005F0A9FDFC218905041C05F0A1FD05F036
:1018C4000FFE00239946DDE700200026014CD9E7EE
:1018D400ABAAAA3F0000C07FF0B5454657464E4626
:1018E400DE460300E0B52433A1B0020005930323D0
:1018F4002832140000259846EC27CA4E0690079219
:101904004246059B29005A5500232373C64B277171
:10191400A36014232375C54B266023610698FFF743
:1019240099FD6B1C50340125022BE9D1133304AA11
:1019340099180020FEF71CFD152304AA9918040227
:101944000120FEF715FDBA4B04439C4200D060E130
:10195400162304AA9B189A4617239B189846B54B3E
:1019640000249B46FF2300279946B34E0AAD1BE093
:1019740005F082F980197941002902DA0120AF4982
:10198400404200230290039100935246502158464E
:1019940001330AF093F8002820DD53461B78013404
:1019A4002B700135582C1FD053464A461A704346B3
:1019B4001C7005F061F980197941002902DA0120CF
:1019C4009E494042002302900391009342465021D5
:1019D400584601330AF052F80028C9DC00230134C8
:1019E4002B700135582CDFD10AA8954B95495630F8
:1019F4000AAA20E05B001CB2002C27DB5C0023B2A7
:101A0400002B28DB640023B2002B29DB640023B203
:101A1400002B2ADB640023B2002B2BDB640023B2EF
:101A2400002B2CDB640023B2002B2DDB630001327E
:101A34009BB290422ED01478240263401CB2002C36
:101A4400D8DA64004C4024B2231ED7DA64004C4038
:101A540023B21C1ED6DA5B004B401BB21C1ED5DA27
:101A64005B004B401BB21C1ED4DA5B004B401BB224
:101A74001C1ED3DA5B004B401BB21C1ED2DA5B0087
:101A84004B401BB21C1ED1DA5B004B4001329BB2AF
:101A94009042D0D1562204A918318A5A52BA92B22D
:101AA4009A4200D0B5E000262427079DB0460BAC2F
:101AB40013AE41462378059A5354002B00D199E084
:101AC400A278E178120609040A4361790A4321796C
:101AD40009020A4361782A602971012B00D189E047
:101AE400E279217A120609040A43A17A0A43617A47
:101AF40009020A43A179AA602973022B7AD0227BB6
:101B0400617B120609040A43E17B0A43A17B0902B3
:101B14000A43E17A2A612975032B6BD0627CA17C8C
:101B2400120609040A43217D0A43E17C09020A439F
:101B3400217CAA612977042B5CD0A27DE17D120669
:101B440009040A43617E0A43217E09020A43617D36
:101B5400E9552A62052B4DD0E27E217F1206090445
:101B64000A43A17FA07E0A43617F09020A432C2114
:101B74006854AA62062B3DD03278717812060904A3
:101B84000A43F178E07F0A43B17809020A43342119
:101B940068542A63072B2DD07279B179120609048F
:101BA4000A43317A30790A43F17909020A433C2124
:101BB4006854AA63082B1DD0B27AF17A120609047C
:101BC4000A43717B707A0A43317B09020A43442138
:101BD40068542A64092B0DD0F37B327C1B06120453
:101BE4001343B27CB17B1343727C120213434C2225
:101BF400A954AB6441460698FFF72CFC43460122E6
:101C04002934904650352936012B00D051E7002065
:101C140000E0012021B0F0BCBB46B246A946A04674
:101C2400F0BDC046344E050050FC030040A902003C
:101C3400D107000080EF002010270000FFFFFF7F86
:101C4400FFFF000021100000F8B5CE4647460025EE
:101C540080B50700EE4B1022036000210561C560CA
:101C6400856045600562C56185614561F83005F0B0
:101C74001DFD842338005B00FD520D300233082221
:101C84000021FD52FF3005F011FD80238A221B0143
:101C94005200BB520232BB5238008C2300245B003A
:101CA4001D30FC540021FE3AFF3005F0FFFC3800E3
:101CB400353006220021FF3005F0F8FCB5235B0027
:101CC400FC543E230822FF33FC54D24B01261A60F5
:101CD400E022D14BD2011B681340D04A13609D23EC
:101CE4005B00FC54063BFC543623FF33FC540133A5
:101CF400FC543823FF33FC540133FC543A23FF33A0
:101D0400FC54C74BC74C98462378042199461800C5
:101D140003F07EFF4B460421581C03F079FF4B4629
:101D24004A465B081F2A00D9AAE107221A409300F9
:101D34009B18BD49BD4A9B009A18591815600D603F
:101D4400BB4959180D60BB495B1841461960102303
:101D5400536016602378013359081F2B00DD8BE193
:101D640007220A4093009B18AF49B04A9B009A1877
:101D7400591815600D60AE4959180D60AD495B18CE
:101D84004146196010235360166023785A081F2BAC
:101D940000D938E1072111408A005218A449920061
:101DA4005118096840468C46310019404942414067
:101DB40060460140A0480133121811605A081F2BD5
:101DC40000DD1CE10721114040468A005218984961
:101DD40092005118334009685B4243400B409649D6
:101DE400023452181360954B9C428DD109F0B0FB1C
:101DF4001F211B2003F00CFF002200211B2003F0F5
:101E04001FFF00211B2003F02DFF1F211A2003F0C8
:101E1400FFFE002200211A2003F012FF00211A20E5
:101E240003F020FF1F211C2003F0F2FE00220021FA
:101E34001C2003F005FF00211C2003F013FF1F21C9
:101E44001D2003F0E5FE002200211D2003F0F8FE12
:101E540000211D2003F006FF182003F015FF1920B0
:101E640003F012FFD024802324065B0463628023E2
:101E74009B046362082003F007FF80235B00636216
:101E84000920636103F000FF80239B00636202204A
:101E9400636103F0F9FE04230022A36201210220FE
:101EA40003F0CEFE032003F0EFFE0823644DA3628B
:101EB40000220121032003F0C3FE2800614909F038
:101EC400A3FB0222904641466B68122013405E4AEF
:101ED40011600F22296810255140C0320A405B4925
:101EE4000A605B4A0121136003F092FE0121132072
:101EF40003F08EFE0121152003F08AFE0421172031
:101F040003F086FE0421162003F082FE0022474BD4
:101F14005049DA635A649A64D9641D64DE63DA63EF
:101F24005A649A64D9641D64DE63FA234A499B04A3
:101F34000A68072053401B0C484A1B041360FA2309
:101F440009689B004B401B041B0C136003F09CFEB0
:101F5400062003F099FE052003F096FE8023A36279
:101F6400403BA362203BA362142003F08DFE0022B9
:101F74000021142003F064FE042003F085FE656252
:101F84003749A561374809F051FD0321102003F0BA
:101F94003FFE0321112003F03BFE002003F074FEFA
:101FA4006662012003F070FE434638006362FFF767
:101FB400F1F9F023F8543800FFF78EFC9F234640D4
:101FC40001205B003040F854563B9846B8444046E4
:101FD40005F008FD14264346234C244D03CB244A24
:101FE400244B05F0EDF9013E00196941002EF6D1AC
:101FF400434603C33800C0BCB946B046F8BD03210C
:1020040011400831E0E6032111400831C4E6C0461E
:10201400ECDD002000F0044000C0044000D0044087
:10202400FFFF0000B0E2002008000540000005406A
:102034000C000540100005400C100540B6E20020DD
:1020440000C00340286BEE0004F0034000D00340BE
:1020540004E00340CF070000480005404810054055
:10206400A086010080EF00204F8167F77E7B051476
:102074002D7F954C2DF4515803220A40083271E605
:1020840003221A40083252E6F0B54546DE4657466A
:102094004E461C00D823E0B58BB00291FF33C35CDD
:1020A400050090460393002B16D0EB235B00C25C23
:1020B400002A11D0039B082B00D8B0E0093BDBB207
:1020C400072B06D8C118CE48095C002901D000F0BE
:1020D400DCFDCC4B9A46A8E0E42300225B00EB58DD
:1020E4000492984480235B0198455CDBC64B984678
:1020F400B62302995B008946EA58474691444A460A
:10210400EA50159B002B55DC7F433B0B06934B4653
:102114009B0D5A000133BD4F9B055B0DBA5EF95E02
:102124004B469B02891A9B0D4B43E1009B129B1863
:10213400091B9A460B0B0905090D9B460B004B43E3
:102144001B0B5A00D2184B431B0B5B00D31A019391
:102154004B461E0DAE4B9C46B444634605934B461A
:10216400002B55DBAA4B7F2E01D800F0F6FB52461C
:10217400D21094464A465400A20D510001329205F1
:10218400520D795EBA5E0794A402521AA40D544308
:102194005A46A4126418062A01D900F0D5FC9D49B8
:1021A40092008A5897464346DB434246DB171A405F
:1021B40090469DE7D82280215200AB588900013314
:1021C400AB508B4200D387E0DA235B00EF58043333
:1021D400EE588022159B5201934200DB8A4B5B43ED
:1021E4001B0B9800C0184000C018142105F032F8E9
:1021F40080234743BF1247445B019F4204DB824F65
:102204008011704381447FE7FB43DB171F40F7E7EE
:10221400059B7F2B01D800F090FD7F4BA7E7013B86
:102224007E49DBB29B005B589A46EA235B00EE5C76
:10223400D623FF33EB5C9946072E01D900F0F3FB5C
:10224400F30053445F68002F78D0DE2149006A58B8
:1022540001326A501988E6235B00EB580591C81ACD
:10226400504339000493019204F0F4FF049B019A53
:10227400C018E2235B00E850974245D94B46072B30
:1022840001D900F041FD5346002240334946C900BC
:102294005B185968002900D10131E0277F00E85913
:1022A4000130E8511B88814200D8C2E3E822520081
:1022B400AF58DB1B584304F0CDFFE422C31952008E
:1022C400AB50E2225200A85880225201904200DA18
:1022D40047E34D4A049204E70023D6215048AB500B
:1022E4008446DA2049006A584E4B40005A436244FF
:1022F4005343170E6344803F2F501E0E6B50DC2354
:10230400803E5B00EE5064E7EA2205995200E950F2
:10231400731CDE20DBB2AB54002240002A50CD32C5
:10232400FF32A9504A46072A01D900F0E4FC083BD1
:102334005A425341DAB253464033A7E7013784E7A0
:102344000122059C0892019A1B1B53435246D44612
:102354001B1306991B199B1A4B431B139C44812383
:102364009B00EA58029813005343DB1243431B13A8
:10237400E246C118002A00DAC11AB8235B00EE58FD
:102384008E19EE50159B002B00DDF0E243465B43B3
:102394001B0B0593B30D5A0001339B055B0DBA5E0D
:1023A400F95EB302891A9B0D4B439B129B1802934F
:1023B400330D9946164B4B440693002E00DA0AE37C
:1023C4004B4613497F2B00D857E3029BDB109846FA
:1023D4007000830D5A0001339B055B0DBA5EFB5EF2
:1023E40084029B1AA40D5C435B46A4120790A418B4
:1023F400062B00D956E30C4A9B00D3589F46C0468F
:102404006406000030DE0020FF0F0000B8E2002068
:1024140000F8FFFF38DD0020FF070000C4DD0020C6
:102424005FF36E3C0D66190054DD00204B46B84A3C
:10243400D21A079B9B195B00980D4100013080055F
:10244400400D795E385E9B02401A9B0D43439B12FC
:102454005B1853431B1398460699AE4B4A435213D9
:102464009044984500DA984680231B01984501DB87
:10247400A94B98464B467F2B01D800F0F6FB8023EE
:102484001B01994501D200F0F0FB4A46A04B5100D4
:102494009B1AA24A5B00521AB400A419A00D410071
:1024A40001308005400D795E385EA402401AA40D07
:1024B4004443A41264185C43534324139B13E41849
:1024C400944B9C4200DA1C0080231B019C4200DBDD
:1024D400914C4346019AE31A5343029A1B130599FC
:1024E40043449B1A4B431B139B1882221C008021DC
:1024F4009200AA580901544324138A4200DA0A00BC
:10250400534352461B135343824A9B12934200DAAD
:10251400130080221201934200DB7F4B5146149A30
:1025240014981201121A12025B1A121353431B134A
:102534005E18039B002B00D156E2BA225200AB581E
:10254400002B00D14EE2013B1803AB50C01A6021AE
:1025540004F0A8FE6E4B181A049B6E4A58430013ED
:10256400444370430313934200DA130080221201A0
:10257400934200DB684BF222AB52664B24139C421D
:1025840000DA1C0080231B019C4200DB624CF42314
:10259400EC520BB0F0BCBB46B246A946A046F0BD17
:1025A4000322230008926446CDE64B467F2B00D8D5
:1025B400BFE3069B7F2B00D8CDE3029B8846DC104B
:1025C40087E74B467F2B00D8A9E3069B7F2B00D8D7
:1025D400CAE3089B062B00D9D3E3514A9B00D35886
:1025E4009F464B465A0080231B01994500D320E3A4
:1025F400484B9C469444B3009B199C0D60000134E5
:10260400A405640D385E3C5F9B02241A9B0D634352
:102614009B121B18534361461B1398464A433D4B78
:1026240092139044984500DA984680231B019845FC
:1026340001DB394B9846F3009E1BB20D94465100C2
:10264400785E990D4C0001318905490D3C5F795E36
:10265400624601329B0292059B0D091B520D5943A0
:10266400BA5EB302121A9B0D5343891209199B12C5
:102674001B184910CE184B4676107F2B00D853E216
:10268400C0239B00994500D24EE2C0231B0199450B
:1026940000D214E34B461803181A224B2249C018DF
:1026A40004F0D8FD041147E2902109018E4200D3C1
:1026B40048E33003801B04F0CDFD154B164C181A6B
:1026C40040430013241A079A114B4A445200900DB8
:1026D400410001308005400D9B1B795E385E9202FB
:1026E400401A920D42439212521805995A434B4391
:1026F40012135B13D318074A934200DA13008022A3
:102704001201934200DB044B052208921BE6C046EB
:10271400FF0F000000F8FFFFFF070000FF17000095
:1027240070DD002001E0FF00FF030000079BD44898
:102734004B445B00990D4A0001318905490DBA5E8D
:10274400795E9B02891A9B0D4B43059C9B12801B4F
:102754009B18434344431B1364131C19C94B9C42E9
:1027640000DA1C0080231B019C4200DBC64C802342
:1027740072001B019E4200D257E2C4498B1A9C4648
:1027840042004B469B004B449E0D70000136B6053B
:10279400760D385EBE5F61469B02361A9B0D73430D
:1027A4009B121B1853434A431B1392139B18B54A9D
:1027B400934200DA130080221201934200DBB24BF1
:1027C40006220892BFE5902109018E4200D217E249
:1027D40004230893AB4BB6E57F2E00D899E2059A03
:1027E4001C007F2A00D8BAE253460222DB1008926A
:1027F400A9E590210901894500D3A9E24B461803B4
:10280400C01A04F027FD9E4B181A40439E4B001338
:102814001B1A98464A469A4B9B1A079A94196400C5
:10282400A10D4A0001318905490DBA5E795EA40201
:10283400891AA40D4C43A412A418069A5C4353436A
:1028440024135B13E4188F4B9C4200DB3CE63AE60E
:102854004B467F2B04D990231B01994500D373E287
:102864004B4690211803C01A090104F0F3FC844B71
:10287400A046181A4043844C0013241A29E68023E6
:1028840072001B019E4200D3C8E17E4BD31807930C
:102894004B469B004B449C0D60000134A405640D21
:1028A400385E3C5F241AA4469C026346A40D5C4334
:1028B400079BA412241854435A4324139213714BB4
:1028C400A4189C4200DA1C0080231B019C4200DBFC
:1028D4006D4C4B464A46DB009A1A910D480008920B
:1028E400385E07918446980D4200BA5E01309146E5
:1028F4008005400D385E4A4607999B0201318905DF
:102904009B0D801A490D5843795E6346C91A089B8A
:1029140080129B029B0D4B4348449B12634440101E
:10292400C018431099467F2E00D851E1059B7F2B98
:1029340000D8C7E1C0239B009E4200D248E1C023D7
:102944001B019E4200D2BDE1514B3003301A514964
:10295400C01804F07FFC021141E14B4A9446FFF792
:1029640009FCC243D21710400490FFF7BAFBD822E7
:1029740080215200AB5889000133AB508B4236D2D0
:10298400DA235B00EB589946DC235B00EC58802388
:1029940015985B01984200DB39484043000B8300E3
:1029A4001B185B001818142104F054FC4B464343D5
:1029B4009B12984480235B01984505DB304B984675
:1029C400801144433619E1E44346DB434246DB17B6
:1029D4001A409046F4E72C497F2B00D9F5E4294BA3
:1029E4009846F5E42648B7E5254B0493A5E500236E
:1029F4008020AB50D622284940428C468146520062
:102A0400AB58264C63436344190E8944DA21484683
:102A14005C43DC23644449006850AC50240E803C81
:102A24005B00EC50B3E7072B17D853464033FFF74E
:102A34002DFCE42149006B504946D6200131FF307A
:102A4400C9B229540020E851D130FF302B50002A5C
:102A540000D136E4082900D033E4EB2200235200ED
:102A6400AB540F4AAA5C002A00D004E1C533FF33FB
:102A7400E8580433EB58FFF727FC034B9846A7E4C8
:102A8400FF0F000000F8FFFFFF070000FF17000022
:102A940001E0FF00FF0300005FF36E3C0D661900C8
:102AA40061020000C0218900894500D3D2E04B4671
:102AB4001803C01A04F0CEFB834603110693F300F7
:102AC4009E1BB20D5100795E01328C46990D4C006B
:102AD40001318905490D3C5F795E9B029205091B12
:102AE4009B0D520D4B43BA5E61465846B602521ACC
:102AF400B60D56439B121B19B6125B1066449E1901
:102B04007610704300138046069B9844D44B984536
:102B140000DA984680231B01984501DBD14B984687
:102B24004B467F2B00D9ABE54B46C0211803C01A96
:102B3400890004F08FFB04117043C94B001304197E
:102B44009C4200DBC0E4BEE4C02189008E4278D2FE
:102B54003003801B04F07EFB0311089009934B465D
:102B64004A46DB009A1A910D480007923C5E980D84
:102B740089464200BA5E0130944649468005400DBC
:102B8400385E624601318905490D801A795E079ADB
:102B94009B029B0D9202091B4343920D4A439B12D5
:102BA4006344921212195B10089C9B185B105C43DF
:102BB4009946099B2413E418A94B9C4200DA1C0093
:102BC40080231B019C4200DBA64C7F2E00D9ADE67E
:102BD400C0213003801B890004F03CFB02114B46EA
:102BE400584303139B189E4A934200DA1300802231
:102BF4001201934200DB9B4B07220892FFF7A3FBD1
:102C04003003801B04F026FB0422974B0892181A09
:102C14004043944B00131B1AFFF795FB924B9349C7
:102C24009B1B8A1A07925A0032E68D4B9C469444A9
:102C3400A7E549468C4B5B1A8C498A1A94465A007C
:102C4400D9E4C0231B019E422ED2FF230993864B55
:102C5400089384E7C0231B0199451ED2FF230693E2
:102C6400814B9B462BE7069B98464B467C4A5B0070
:102C74009A18FFF711FC98229200AB54E2235B00F0
:102C8400E8580433EB58FFF71FFB9921DB01890057
:102C94005B18EB189A46FFF7C8FA4B461803181A44
:102CA400734B7449C01805E7714B3003301AC018D0
:102CB400704904F0CFFA0311089009934FE7FF24F9
:102CC400694839E7FF22684889E7664C069B9846BD
:102CD400FFF7FFFB069B0C009846FFF7FAFB069BE9
:102CE400984697E5069CB6E5069B9846FFF7C7FB12
:102CF400029BDC10EAE7082B00D1AEE6E4235B007C
:102D04000800EB58FFF7E0FAE4235B00EB58FFF709
:102D1400DBFA1C0002230893524BFFF714FB089BB9
:102D2400062B00D979E0544A9B00D3589F46069C51
:102D340096E588464B4CFFF7CCFB494A494B9446F1
:102D4400FFF718FA464CBEE4A046454CFFF7C1FB1A
:102D5400434B98465EE58846414CFFF7BAFB022395
:102D640008933F4BFFF7EFFA089B062B2ED8434AF4
:102D74009B00D3589F46069B9846FFF786FB384C2A
:102D8400A4E707227243910D4B00FB5E9C46F300BF
:102D9400980D440001308005400D3C5F385E9B0275
:102DA400001B9B0D43439E124B1C9B055B0DF95E60
:102DB4006346C91A93029B0D4B4336199B12634415
:102DC4007610F618069B7610984659E4072272434B
:102DD400910D4B00FB5E9C46F300980D44000130BE
:102DE4008005400D3C5F385E9B02001B9B0D4343F6
:102DF4009E124B1C9B055B0DF95E6346C91A930238
:102E04009B0D4B4336199B1263447610F618069BB0
:102E1400FF249846144876108EE607227243910DDB
:102E24004B00FB5E01319C46F300980D44000130D9
:102E340040003C5F385E9B02001B9B0D43434900EE
:102E44009E12795E6346C91A93029B0D4B43361951
:102E54009B1263447610F618069B7610984663E638
:102E640000F8FFFFFF070000FF0F0000FF1700003E
:102E740001E0FF00FF0300008CDD0020A8DD00203E
:102E8400F0B53F4BC9B000933E4BD8220193812348
:102E94009B00C6580433C358FF3203939C46002357
:102EA4001900029604930593855CD03AFF3AAA422E
:102EB40059416C464A4269461540334A2576637641
:102EC4006383079307A80B7801315A4013049B18B6
:102ED4005B009B18DB009B18DB009B185B009A18B7
:102EE4008842F0D12949E261254B0A689A421BD0F5
:102EF400E022FF2110A804F0D9FB2022210008A819
:102F040004F0DAFBEFF3108472B680212048490103
:102F140009F0ECFF80221E48520008A90AF02EF89E
:102F240084F3108849B0F0BD8B88022BE0D1CB88A4
:102F3400202BDDD1CB69144A1F0016480B780131D0
:102F44005A4013049B185B009B18DB009B18DB00A2
:102F54009B185B009A188142F0D19742C8D10B4B61
:102F64009A689642C4D1DA689445C1D11A69002A94
:102F7400BED15A69002ABBD11B7EAB42B8D1D1E77E
:102F8400335A314302002000C59D1C8100F01F10FC
:102F940000F01F001CF01F10F0B5DE4657464E46E9
:102FA4004546E0B55C4B0400C25C8BB0002A12D0ED
:102FB4000021C154594BC25C0333C254584BC25C08
:102FC400584BC25401220733C252D823FF33C35C87
:102FD400002B00D052E28A235B00E05A083BE358FE
:102FE40080221BB2059388235B00E35852001BB276
:102FF40006933C23FF33E35CF0259946F823E75816
:103004000433E358A2586D00904694229200A15CC8
:10301400625D00B2002A1FD1D932FF329446424E7B
:10302400A258B24216D86546013262513F4DAA42B7
:1030340012D94A46002A00D15AE2E222FF32A25CA7
:10304400002A00D05BE23A4AA55C002D14D1013578
:10305400A55411E001226255E222FF32A25C94469B
:10306400002A00D04BE2324AA55C002D68D04A46C3
:10307400002A01D101F020F801222E4D62550229C7
:1030840000D13FE3494500D0FFE294229200A154CD
:10309400183AA25C002A01D101F065F8F42252002A
:1030A400A7502549625C002A01D000F06EFEED3283
:1030B400FF32A6582C32A25808969A1AD5175219DC
:1030C4006A403F2A07DD9A1BD51752196A40602AC5
:1030D40001DC00F058FE1949635C002B15D146460B
:1030E400F133FF33E2582C33E358F31ADD175B193D
:1030F4006B403F2B00DC25E3B31ADD175B196B40F3
:10310400602B00DD1EE301236354F82342465B0079
:10311400E2501C3341E0C046570200005502000053
:1031240056020000590200009F8C0000DF2E0000B0
:103134004E0200004F020000390200003A02000073
:103144000135A5544A46002A96D14946D84AA15287
:1031540000210232A1544146143AA7500432A3502C
:103164000432A15049461032A1500832A15294228F
:1031740000219200A154CF4AA25C002A01D000F0A1
:1031840021FFF4235B00E7580433E3580893F82342
:103194005B00E358984683239B00E3589A468423B4
:1031A4009B00E3589B4656210003FF3104F052F87C
:1031B40098239B00E35C0500002B00D046E38023AA
:1031C4005B019F4200DA3DE3BB4B9800C018BA494B
:1031D400000304F03FF84519E023DB019D4200DDC4
:1031E4001D00B64B9D4200DA1D00EB171A05120DA7
:1031F4001B0D5219ED182D0512132D0D0792ED1A02
:1032040004D58023013A5B01ED1807926B005B192A
:103214009F120C213803060004F01CF804902D1AA8
:1032240030008026A64ABB009B5876010C218019E9
:103234000392099304F00EF80499411AE80304F088
:1032440009F8039A7B1C9B009A58099B0021D21A07
:103254005043C013C0189B4A002304F0B1F84B0438
:10326400C10B5918079B002B00DA01E39940802316
:103274009B00E358002B05D0CA1A511201D101F06A
:1032840047F8591880239B00E150059B5F00089B79
:10329400FF1880235B019F4200DA6BE2864F069B96
:1032A4005D00802345445B019D4200DA5EE2824D6D
:1032B40080235B019A4500DA53E27F4B802252015E
:1032C400934500DA48E27C4A0A20FF30205C00285B
:1032D4000DD00C20FF30205CC6B2B446002806D1C5
:1032E400D820FF30205C002801D000F020FF01929C
:1032F40000933A002B002000FEF7C6FEC023802175
:103304005B00E2580901131C12B28A4200DB6E4BC7
:103314006E4A1BB2934200DA13006B486C49C31A1D
:103324005A01D21A9200D3180B60C22380265B0084
:10333400E2583601131C12B2B24200DB031C634A8A
:103344001BB2934200DA13005F4AD21A53019B1A4C
:103354009B009B184B60D4235B00E35C002B00D0E4
:103364005FE2D02380221B0652005A61AA23FF3356
:10337400E35C002B00D05FE2D02380221B06920086
:103384005A613B007B43534A1B1211686D434B4007
:103394001B0451491B0C0B6010682B121B04434087
:1033A4001B0C1B040B6082239B00E35A4B4F5B43B3
:1033B40038681B021B0C4340494D1B041B0C2B603B
:1033C40083239B00E35A38685B431B121B0443406E
:1033D4001B0C1B042B6084239B00E35A41485B4372
:1033E40006681B021B0C73401B043F4E1B0C33600E
:1033F4004B46B446002B00D1C0E103681B0C1B04F0
:103404003360912300269B00E6500833E65292264F
:10341400B600A359002B2AD0013BA351DB04334C43
:10342400DB0F013B2340244C1B195B4314681B1224
:103434005C402404240C0C6012681C046240120CCE
:1034440012040A603A685A401204120C2A603A685C
:103454006240120C12042A600268534062461B0444
:103464001B0C1360036863401B0C1B0413600BB03C
:10347400F0BCBB46B246A946A046F0BDB6235B00ED
:10348400C1500433C1505F320433C2500122483367
:10349400C1500833C1500833C1500833C152143BE2
:1034A400C1500833C1500833C1500633C25492E5A9
:1034B4003E0200004F020000FF0F000000E0FFFF8B
:1034C400FCDD0020314D5900FF07000000F8FFFF2C
:1034D40078EE00207000054070100540840005401F
:1034E40084100540980005409810054001F0FFFF46
:1034F400E2230122FF33E2544A460133E25400231B
:10350400F222A3520232A352DB4BDC4A1A605A6005
:10351400D02380221B0652005A6192185A61D84B5C
:10352400E05CD84BE55CD84BE35C9C46D74BE25C53
:103534000133E65CD64B9246E35CB3460393D54B2A
:10354400E35C0493D44BE35C05932B1863449B180E
:10355400039A9B199B18049A9B18059A9E189A180B
:1035640080230932D2B25B019F4200DB9AE0FB4325
:10357400DB173B4053431B0BDFB2974200D298E06A
:1035840037000837FFB2082F01D100F08FFE3B004F
:10359400093BDBB2002805D0002B01D100F093FEDB
:1035A4000A3FFBB2002D05D0002B01D100F08EFEA6
:1035B400013BDBB26246002A05D0002B01D100F0AA
:1035C40093FE013BDBB25246002A05D0002B01D109
:1035D40000F005FE013BDBB25A46002A05D0002B61
:1035E40001D100F0F1FD013BDBB2039A002A05D0C2
:1035F400002B01D100F082FE013BDBB2049A002AC9
:1036040005D0002B01D100F07CFE013BDBB2059A12
:10361400002A01D100F01FFC002B01D000F01BFC9C
:1036240010220820D823FF33E2549C4B1B689C4A89
:103634001B041B0C13600022984B1B6853401B0C8B
:10364400974A1B041360042303405A425341954A8A
:103654005B4295481340954A9B18026853401B04EB
:10366400934A1B0C1360036892481B0C1B041360E1
:103674000368914A1B041B0C136000688F4B434082
:103684001B0C1B04136000F011FC4A46012A00D0F5
:1036940020E101293CD1942249469200A154183AD0
:1036A400A25CF7E4864B53431B0BDFB2974200D373
:1036B40066E7082F00D96AE7D8220120FF32A75411
:1036C40002001A40184200D0784A74480068424008
:1036D40012047348120C0260022002001A401842BD
:1036E40000D0724A6D48120400684240120C6C48C3
:1036F400120402600422100018401A4200D1BAE3F6
:103704006A48B8E34946022900D14BE30129C2D1F2
:103714008E2200219200A1526A4AA1544146263ABF
:10372400A7500432A3500432A15049463432A15464
:10373400683AA1588E229200A25C002A00D0ADE41F
:103744000F00AEE483239B00E35890469A468423FB
:103754009B00E3589B4626E55846C243D2170240D5
:10376400B2E55246D343DB171340A7E5EB43DB171F
:103774001D409DE5FB43DB171F4090E502684F4B5E
:1037840053401B0C1B04336093239B00E55C002D0A
:103794000CD091229200A3584B498B4200D8FAE2F4
:1037A4004A4EA35D002B01D100F02AFD92239B0019
:1037B400E358002B00D15AE6013BDD04ED0F9222C1
:1037C4009200A3506B425D41414A6B4213403C4A14
:1037D40032499B185B430A681B125A403048120452
:1037E400120C026009681A045140090C2E4C090499
:1037F400016021682E4859400904090C01602168C0
:103804005140090C090401602A4801684B401B041B
:1038140029491B0C0B6003685A40120C12040A60FD
:1038240025E6D02380221B0652009A61AA23FF3387
:10383400E35C002B00D19FE5D02380221B0692007D
:103844009A619EE5FB43DB173B40BEE496239B0055
:10385400E05C0C212438000303F0FCFC97239B005C
:1038640007000C21E05803F0F5FC38184519B3E4BF
:103874005B42D940FBE4C04678EE002083E70300B6
:103884006406000065060000660600006706000086
:10389400690600006A0600006B060000700005401F
:1038A400701005402000FFFF84000540E0FF000089
:1038B4008410054098000540981005400000E0FF82
:1038C400FF0F00003A020000FFDB05004D0200007C
:1038D40001F0FFFF022A00D0DDE600224046E44961
:1038E4006254013162521C3967500431635004310F
:1038F40060504846283160540C3962500831625295
:1039040000218920FC22800020585200181AC51773
:103914004019A25868403F2801DD00F03FFC00290F
:1039240000D174E2FE2341465B00E150D3009B1AB0
:103934005B001B130233102B00D91023D02252003A
:10394400A350983AA25C002A00D1E9E185225200F2
:10395400A25CD1B2002A00D0E2E1D2225200A150EE
:103964000121FA2299405200A058C24A0139821812
:1039740002D580221201121ABC2040002758783840
:10398400FF3806008446AC30FF302558BA48D210C0
:103994006843BA4D3E404019FF2A06DCD543EDB2D8
:1039A400020E954201D96646BE43D6225200A0506B
:1039B4003200013B9A401300BC22AA207F083B43FB
:1039C4000B405200A3503032A6549A07D20FFF3056
:1039D4002254CC2200205200A0501803C01A03F035
:1039E40061FCA44BC018802345002D18AD029B0038
:1039F4002D13ED1880231B019D4200DBA04DC02335
:103A04005B00E550043BE2581001801A4019001194
:103A1400E0500833E050002E01D100F014FCD8230C
:103A2400FF33E35C002B01D100F035FCDE220023E0
:103A34005200A3500832A3500832A3500832A352B4
:103A4400143AA3500832A3500832A350013306326B
:103A5400A3543A3AA350CC225200A3580133A350A2
:103A64009622D200934203D9D42300225B00E2526F
:103A7400802229B22B1C1201914200DB804B7D4A2B
:103A84001BB2934200DA13007D4E7E49F31A5A01A9
:103A9400D21A9200D31880220B60031C00B21201C8
:103AA400904200DB331C734A1BB2934200DA1300CA
:103AB400734AD21A53019B1A9B009B184B60F42340
:103AC40080225B00E3585201934200DA57E16E4BC7
:103AD4009800C0186C49000303F0BCFBAB005B19F1
:103AE400DB021B13C018E023DB01984200DD180041
:103AF400664B984200DA1800C3171F051B0DC51842
:103B04003F0D2D053F182D0D3F13ED1A03D58023CE
:103B14005B01ED18013F6E007619B61230030C21DB
:103B2400804603F097FB5A4AB3009B5804900793CE
:103B340080232D1A40465B01C0180C21039203F028
:103B440089FB04990136411AE80303F083FB039AC5
:103B5400B600079BB2580021D21A5043C013C018B4
:103B64004C4A002303F02CFC4904C00B0818002F16
:103B740000DAD2E2B84080239B00E358002B04D043
:103B8400C21A501200D1BFE31818802380229B0070
:103B9400E050069BD200934200DD13003E4A93425C
:103BA40000DA1300F8225200A2585B009B18F0229E
:103BB4001201934200DCDCE013008021059AC90065
:103BC4008A4200DD0A0034498A4200DA0A00F621FA
:103BD4004900615852005218F02109018A4200DC60
:103BE400C1E00A0084218900615801918321890080
:103BF4006158009101002000FEF746FAD4235B00CF
:103C0400E35C002B00D020E1D02380221B0652006D
:103C14005A61AA23FF33E35C002B00D00FE1D023C9
:103C240080221B0692005A61BC225200A258012332
:103C3400110019401A4200D01849194B194A1B683F
:103C44004B401B041B0C1360BC225200A2580223DD
:103C5400110019401A4200D01349114B114A1B6834
:103C64004B401B0C1B041360BC225200A2581DE0E5
:103C74003B02000000F8FFFF0D6619005FF36E3C85
:103C8400FF07000078EE0020FF0F000000E0FFFFB8
:103C9400FCDD0020314D590000FCFFFFE0FF000077
:103CA40070000540701005400000E0FF0423100080
:103CB40018401A4200D0B348B349B44A0B68434091
:103CC4001B041B0C136084235B00E35C0B689620CD
:103CD4001B0C1B041360D0235B00E258C0001303C9
:103CE4009B1A1B031B0C5B43A94A1B0211681B0C88
:103CF4004B401B04A7491B0C0B60CE235B00E4580C
:103D0400002384425B4180205B4280030340A2483D
:103D140012681B1853401B0C1B040B60FFF7A7FB16
:103D2400D221490062589D48824200D970E2013292
:103D34006250CE22C020D421962652004000A358BF
:103D4400255849000430615C2058F600B34200D283
:103D54007EE2002900D07EE6AA23FF33E35C002B39
:103D640000D185E677E6FF2A00DD3BE7802252009A
:103D740038E7FF2B00DD20E780235B001DE7DA43F3
:103D8400D2171340A4E601226254F6225200A35033
:103D94000893FFF7A0F90133A350814A934200D05E
:103DA40004E5FDE49421484689007E4E6054A15DFB
:103DB40091208C468F2100258900615C8000894612
:103DC4007949615C2550083025526046002812D19B
:103DD400882080002058381AC517401968403F28A9
:103DE4000CDDFA2040002058381AC51740196840E5
:103DF400602803DCA255FA225200A7504A46002A42
:103E040000D17EE5FC225200A3501A0087E5FE2370
:103E140045465B00E1582C33E358EB1AD8171B18BE
:103E240043403F2B09DD6B1AD8171B184340602B06
:103E340003DC01215C4BE15474E5884676E5D0232C
:103E440080221B0692009A61EEE6D02380221B0694
:103E540052009A61DDE6D82300225448FF33E2542D
:103E64000368534A1B041B0C1360036800201B0CDB
:103E74001B0413600023444DDB082A6842401204EB
:103E84004248120C0260002B00D110E12A68424B18
:103E940053401B0C1B0403603D483E4A03681B044B
:103EA4001B0C136003681B0C1B041360F1235B00E1
:103EB400E25C002A00D1F3E0E4234A46FF33E55CE8
:103EC400002A00D08FE1002D4AD0002948D1EE22EB
:103ED4005200A35837498B4200D865E2F2277F008D
:103EE400E35D002B45D12000FEF7CAFF0123E35513
:103EF400314B92229200A3506B425D412F4B6D4295
:103F04001D402F4B294AED186D4313682D126B4049
:103F140027491B041B0C0B6012682B045A40120C1B
:103F2400194812040A60026818496A401204120C03
:103F34000A60026816485A40120C12040A600268A9
:103F440014496A401204120C0A60026853401B0CA4
:103F54001B040B6094234A469B00E254FFF787FA44
:103F6400E42201230021FF32A3540132A154083A70
:103F7400A35092239B00E358002BEBD0013BDD04BC
:103F8400ED0FB6E7E0FF0000840005408410054013
:103F940098000540981005400000E0FFFF760100FE
:103FA40000DC05003B0200003D02000070000540FB
:103FB40070100540FFDB05007FBB000001F0FFFF30
:103FC400FF0F0000D74AA25C002A00D1C8E1D64AFC
:103FD400BA183E2A00D8A3E08121D44A8900BA182D
:103FE4006250D11752184A408021520049018A4236
:103FF40000DA92E18222CE499200A150CD49625C5E
:10400400002A13D183229200A6582432A258B24621
:104014009A1AD51752196A403F2A0BDD9A1BD517F5
:1040240052196A40602A05DC0122625483229A46AE
:104034009200A35090229200A35C002B14D18423FD
:1040440046469B00E5582433E358AB46F31AD91788
:104054005B184B403F2B17DD731BD9175B184B4084
:10406400602B11DC0123A354842342469B00E250BD
:10407400283BE7580433E358C3460893F8235B000E
:10408400E3589846FFF78FF8F4235B00E7580433AE
:10409400E3580893F8235B00E3589846FFF783F846
:1040A4004A46002A00D155E70122E25452E72B6820
:1040B4001B0C1B040360EFE602297CD1C4225200CE
:1040C4009D49A25855189D498D4209D8C8214900D7
:1040D400625004396250D5228C395200FF39A15400
:1040E400C42200215200A15094220021654692006E
:1040F400A154043AA5548B4AA1520232A154414618
:10410400143AA7500432A3500432A1508C4AA25C42
:10411400002A01D1FFF735F870E77F42F8402AE51D
:1041240081210022890062500431625066E7B62082
:10413400400026500430265060260430265066463F
:104144004830265008302650083026500830265271
:1041540014382650083026500830265001260630E0
:104164002654FFF7C4F8E932FF32A1582C32A25882
:10417400BA1AD51752196A403F2A01DCFFF7DAFA56
:104184007A1AD51752196A40602A01DDFFF7D2FA6C
:104194008E2201219200A154FEF780FF981AC517C0
:1041A40040196840602801DDFFF7B9FB8F22012028
:1041B4009200A05426E6002901D1FEF7D8FF013968
:1041C4004A424A4194468FE70D220520D823FF3303
:1041D400E2545C4B1A685C4B5340FFF728FA0C22FC
:1041E4000420FFF71FFA002D00D1B3E6E2210022DC
:1041F400FF316254E254073BE2500833E254A9E62B
:104204002000FEF73DFE0123A355504BFFF7D7FADC
:10421400CA21454649006258AA1AD01712184240CA
:10422400402A18DCD5225200A25C6550002A17D01F
:10423400C6225200A258C4204000215801319142A4
:1042440025D2215075E5CE2301225B00E25083E59F
:104254000133A3507DE5D52200205200A0546550BF
:104264008022520190450DDB3149314A521A5243A2
:10427400110B374A4A433749120B5218C6214900D9
:104284006250D8E74246D143C9171140EDE70022F6
:104294002250FFF765FB01229D33FF33E250983231
:1042A400FF32A3580133A350FFF7E2FBD823FF33B7
:1042B400E754244B284A1B681B041B0C1360082377
:1042C4000022FFF70FFA092201207FE70A220220C9
:1042D400D823FF33E2541B4B1B681F4A1B041B0CDF
:1042E40013601E4AFFF7A8F90B220320D823FF33DB
:1042F400E254144B1A68144B5340EEE70E22062086
:10430400E6E70F220720F1E7511E8A41D0183CE46A
:10431400511E8A41D118FEF7B5FF822189006250EF
:104324006CE6C0463E0200001FF8FFFF00F8FFFFE6
:10433400FF0F00003F0200009FF6FFFF9E6D01008B
:104344004F02000070000540E0FF00007FBB00004A
:10435400A8DE0000B80B0000701005400000E0FF6C
:104364008B229200A258BA1AD11752184A403F2AF7
:1043740000DC43E6812280219200A25809015218F0
:10438400802149018A420BDB0B4ABA1AD117521811
:104394004A40602A00DD31E60121084AA15416E6AC
:1043A400D143C9170A40F0E70133A350044A9342AA
:1043B40000D0DEE592E5C046FF0F00003E0200009B
:1043C40000DC0500024B1A78002A00D118707047EF
:1043D40044100120034B1A78824201D100221A7042
:1043E4007047C04644100120F0B5DE4657464E469D
:1043F4004546E0B5434A444C1278A544824232D142
:10440400002930D0002214A9DC27CA7116AA9246CA
:104414003E4DFF00019014A98023524601980731B4
:1044240001F018FB00281ED0394B504456468046F4
:104434009946384C07E0511C29513749AA1853545E
:104444000136B045E7D03378F02B14D0EA5D002A6A
:1044540016D0F72B00D16DE02A596F2AEBD901232E
:104464004A46AB54ECE72D4B9D44F0BCBB46B246E8
:10447400A946A046F0BD00232B510133EB53DFE7DF
:10448400F72BDDD859B2002901DA00F068FD244A7F
:10449400A85C0F22010091430291010010320390A5
:1044A4009143802902D0029AE02AC9D19522920030
:1044B40094466046AA5C511CC9B229541948AA18EA
:1044C40013540129BCD900236246AB54164B0399FB
:1044D400EA5C0F230B409342B2D1029B2A5C902BDF
:1044E40001D100F043FD802B01D100F043FD0F4BBF
:1044F400EB5CDB0113430E4A9B1897229200AB50EE
:104504009EE7C046441001208CF9FFFF20F80020EC
:10451400E1060000DC0600006C06000074060000E2
:104524005102000052020000620200005302000027
:1045340000E0FFFF0023EB554B46EB5C002B00D063
:104544007EE7F04BEB58052B00D879E7EE49EF4AAC
:104554006958914200D073E7CE22D200AA5C332A74
:1045640000D06DE7EA4AAA5C9346033A012A01D8CF
:1045740000F018FD5A46013A012A00D960E7672B7A
:1045840000D05DE7E34BFE22EB5C36A912930023D7
:104594004B80E14B9201EB5CDB011340DF4AA85CEA
:1045A4007F220240134380225201934200DBDC4B02
:1045B4009BB20B93DB4BFE20EA5CFE23D2019B01F2
:1045C4001A40D94B4003EB5C9B0303401343D74A87
:1045D400A85C7F2202401343D54A0393934201D837
:1045E40000F02FFD03920B9BD24A0B80039B4B6080
:1045F400A85CFE22C00192011040D122D200AB5C23
:104604007F221A40024380204001824200DBC44AD8
:1046140093B2C94A0C93A85CFE22FE239201C00106
:104624001040C64A5B03AA5C92031A400243C44882
:104634002B5C7F201840024310000492BC4A904235
:1046440001D800F01EFD049200220C9B4A810B81CC
:10465400049BBC4ACB60A85CFE22C00192011040BE
:10466400B94AAB5C7F221A40024380204001824257
:1046740000DBAB4A93B2D2220D93D200A85CFE2297
:10468400FE239201C0011040B04A5B03AA5C92036E
:104694001A400243AE482B5C7F20184002431000AE
:1046A4000592A34A904201D800F0E3FC059200224F
:1046B4000D9B4A820B82059BA64A4B61A85CFE2295
:1046C400C00192011040A44AAB5C7F221A4002430D
:1046D40080204001824200DB914A93B29F4A0E93AC
:1046E400A85CFE22FE239201C00110409C4A5B0399
:1046F400AA5C92031A4002439A482B5C7F2018401C
:104704000243100006928A4A904201D800F0A9FCA4
:10471400069200224A83D3220E9BD2000B83069B6F
:10472400CB61A85CFE22C001920110408E4AAB5CB2
:104734007F221A40024380204001824200DB784AF3
:1047440093B28A4A0F93A85CFE22FE239201C00111
:104754001040874A5B03AA5C92031A4002438548CF
:104764002B5C7F201840024310000792704A90424D
:1047740001D800F06EFC079200220F9B4A840B8440
:10478400079B7D4A4B62A85CFE22C0019201104047
:104794007A4AAB5C7F221A40024380204001824265
:1047A40000DB5F4A93B2764A1093A85CFE22C001F4
:1047B40092011040D422FE23D200AA5C5B03920330
:1047C4001A4002436F482B5C7F20184002431000BC
:1047D4000892574A904201D800F084FC08920022C3
:1047E400109B4A850B85089B674ACB62A85CFE2216
:1047F400C00192011040654AAB5C7F221A4002431B
:1048040080204001824200DB454A93B2604A119302
:10481400A85CFE22FE239201C00110405D4A5B03A6
:10482400AA5C92031A4002435B482B5C7F20184029
:104834000243100009923E4A904201D800F04AFC1B
:1048440009920022119B4A860B86099B534A4B63AB
:10485400A85CFE22C00192011040514AAB5C7F2249
:104864001A40024380204001824200DB2C4A0A9213
:104874004C4AFE23A85CFE22C001920110404A4A21
:104884005B03AA5C92031A400243D520C0002B5C50
:104894007F201840024310000292254A904201D81A
:1048A40000F010FC029200220A9B4A870B87029BAD
:1048B4003E4ACB63A85CFE22C001920110403C4AF0
:1048C400AB5C7F221A40024380204001824200DB1D
:1048D400134AFE20FE231392364A4003AA5C9B012E
:1048E400920302403448285CC00118401043334A04
:1048F400AB5C7F221A4002430D48824200D8DCE3BD
:1049040002005DE0DC0600006C0600007D43315AC5
:104914007106000072060000840600008306000091
:10492400FF0F0000860600008706000085060000D1
:1049340000EE0200890600008B0600008C060000D1
:104944008A0600008E0600008D0600009106000015
:104954008F060000930600009206000095060000F2
:104964009606000094060000970600009A060000D0
:104974009B060000990600009D0600009C060000AE
:104984009F0600009E060000A2060000A10600008B
:10499400A4060000A5060000A3060000A706000068
:1049A400A6060000A9060000AA060000AC06000046
:1049B400AB060000AF060000AE060000AD06000026
:1049C400422000230B52139B4A640238ED4A0B52D7
:1049D400A85CFE22C00192011040D622D200AB5C3A
:1049E4007F221A40024380204001824200DBE64AD3
:1049F400FE20FE231392E54A4003AA5C9B01920326
:104A04000240E348285CC00118401043E14AAB5C13
:104A14007F221A400243E048824200D848E3020061
:104A24004A2000230B52139BCA640238DB4A0B5200
:104A3400A85CFE22C00192011040D94AAB5C7F22DF
:104A44001A40024380204001824200DBCE4AFE200D
:104A54001392D44A4003AA5CFE2392030240D72057
:104A6400C000285C9B01C00118401043CE4AAB5CD7
:104A74007F221A400243C848824200D813E302004E
:104A8400522000230B52139B4A650238C74A0B522B
:104A9400A85CFE22C00192011040C54AAB5C7F2293
:104AA4001A40024380204001824200DBB64AFE20C5
:104AB400FE231392BF4A4003AA5C9B019203024067
:104AC400BD48285CC00118401043BC4AAB5C7F223F
:104AD4001A400243B048824200D8DFE202005A2062
:104AE4000023CA65D8220B52139B02380B52D20002
:104AF400A85CFE22C00192011040B14AAB5C7F2247
:104B04001A40024380204001824200DB9E4AFE207C
:104B1400FE231392AB4A4003AA5C9B01920302401A
:104B2400A948285CC00118401043A84AAB5C7F2206
:104B34001A4002439848824200D8AAE20200622046
:104B440000230B52139B4A660238A14A0B52A85CFD
:104B5400FE22C001920110409E4AAB5C7F221A40A3
:104B6400024380204001824200DB874AFE201392E8
:104B7400994A8001AA5CFE23D2010240D920C000D8
:104B8400285C5B03800318401043944AAB5C7F228B
:104B94001A4002438048824200D84DE202006A2053
:104BA40000230B52139BCA6602388D4A0B52A85C31
:104BB400FE22C001920110408A4AAB5C7F221A4057
:104BC400024380204001824200DB6F4AFE20FE2324
:104BD4001392854A8001AA5C5B03D2010240834898
:104BE400285C800318401043814AAB5C7F221A4042
:104BF40002436948824200D819E20200722000236D
:104C04000B52139B4A6702387A4A0B52A85CFE2265
:104C1400C00192011040784AAB5C7F221A400243E3
:104C240080204001824200DB574AFE20FE2313927B
:104C3400724A8001AA5C5B03D20102407048285C7E
:104C4400800318401043DA22D200AB5C7F221A4062
:104C540002435148824200D8E4E102007A20002352
:104C64000B52139B02380B520B9B0C98CA671A1CED
:104C7400834200D2021C0D9B90B2984200D21A1CAF
:104C84000E9B90B2984200D21A1C0F9B90B298428D
:104C940000D21A1C109B90B2984200D21A1C119B8D
:104CA40090B2984200D21A1C0A9B13439AB2002A6B
:104CB40001D1FFF7C5FB049B059A9C46039B634403
:104CC4009B18069A9B18079A9B18089A9B18099A8E
:104CD4009B18029A9B18F0229200934201D2FFF78C
:104CE400AFFB0723129A1A409923D0019B0028187E
:104CF4000292C018802202F0DFFC0299414A6B182C
:104D04009B1801221A700B00D8220933FF32AB54CE
:104D1400EB2300225B00EA545B46022B01D0FFF731
:104D24008FFB97AB00211800374A9B4602F0BEFC6C
:104D3400364B9BA89793364B9893364BEA5C0423E7
:104D440052421340344AAA5C520013432D4AAA5CCF
:104D54001343324AA95C082249420A401343CD2234
:104D6400D200A95C102249420A4013432C4AA95C90
:104D7400202249420A4013432A4AA95C402249425C
:104D84000A4051E0B1060000FF0F0000B406000025
:104D9400B3060000B206000000EE0200B6060000F2
:104DA400B5060000B9060000B7060000BB06000007
:104DB400BA060000BE060000BD060000BC060000E6
:104DC400BF060000C3060000C2060000C1060000C2
:104DD400C5060000C4060000C7060000C6060000A1
:104DE400CA060000C9060000CC060000CD0600007B
:104DF400CB060000CF060000CE060000D10600005E
:104E0400D206000064060000140400004E4531433D
:104E14000100140466060000650600006706000031
:104E2400690600006A0600007F211343DA4AAA5C7F
:104E340052428A4313435A46DBB2137202939923B4
:104E44009B00E918802202F037FCB9239B00E91883
:104E54008022BBA802F030FCD9239B00E9188022F1
:104E6400DBA802F029FCF9239B00E9188022FBA8A7
:104E740002F022FCC94BFFA8E9188022703002F02E
:104E84001BFCC74BFFA8E9188022F03002F014FC89
:104E9400C44BC548E91814AB8022C01802F00CFCBE
:104EA400C24BC348E91814AB8022C01802F004FCBA
:104EB4005946C04814ABC04AC0180B7801315A4057
:104EC40013049B185B009B18DB009B18DB009B18EA
:104ED4005B009A188842F0D182235946DB00CA50FD
:104EE400B649B74A0868904200D11DE1EFF3108338
:104EF40072B68021FF2049014003039307F0F6FFB7
:104F04005B46B04A93464246B0465E1E2B005D4661
:104F14009B4602928022FF21520056A802F0C6FB53
:104F24000222FF320123944608E014A8F25C083000
:104F3400FF30C2540133634500D1E1E09D42F4D116
:104F44008022029BA048520056A946465D469846D8
:104F540008F014F8039B83F31088FFF771FA9B4958
:104F64006B5495239B00EA54FFF76AFA984BEB5C69
:104F7400002B4AD196239B00EB5C934201D0FFF7B0
:104F84005FFAD823FF33EB5C002B00D1B2E0EB23B4
:104F94005B00EB5C002B00D1ACE001228D4BEA54AA
:104FA400FFF74EFA0B2B01D0FFF74AFAFE228A4B89
:104FB4009201EB5CDB011340884AA95C7F220A4022
:104FC40013438022520193422ADA0F21FE20844A9D
:104FD4008001AA5C1140834AAA5CD2010240824843
:104FE4009346285C02007F2010405A4602438020EA
:104FF4004001824212DA832080002A5084229200E7
:10500400AB507A4BE954FFF71BFA79496A54794A51
:10501400AB540122784BEA54FFF712FA774AEAE7D5
:10502400764BD2E7002A00D018E6013216E6002AB1
:1050340000D0E3E50132E1E5002A00D0AFE501321A
:10504400ADE5002B01D0FFF7CEFA01330393FFF750
:10505400CAFA031E01D0FFF78FFB01330793FFF752
:105064008BFB031E01D0FFF754FB01330693FFF7BC
:1050740050FB031E01D0FFF71AFB01330593FFF722
:1050840016FB031E01D0FFF7DFFA01330493FFF789
:10509400DBFA002A00D052E5013250E5002A00D0A4
:1050A4001DE501321BE5002A00D0E9E40132E7E402
:1050B400002A00D0B4E40132B2E4002A00D07FE434
:1050C40001327DE4031E01D0FFF7EDFB01330293AF
:1050D400FFF7E9FB031E01D0FFF7B3FB013309938C
:1050E400FFF7AFFB031E01D0FFF779FB01330893F1
:1050F400FFF775FB982300229B00EA54FFF7A0F901
:1051040080223F485200401B013D56A9FF3D07F055
:1051140035FF2B000136FF36EB3300D0FAE6029B55
:1051240046465D46984615E78A88012A00D0DDE6A2
:10513400344AC888904200D0D8E6C858324B1E4A38
:105144009C460B7801315A4013049B185B009B1852
:10515400DB009B18DB009B185B009A186145F0D1BB
:10516400904200D0C2E6154B029A1B7A934200D0BB
:10517400BCE6264914AA8918AC46254B224A02E00B
:105184000133934205D0CD5C18788542F8D065464A
:10519400ACE66546FFF754F96B06000064040000B2
:1051A400E4040000640500001C050000E4050000A0
:1051B4009C0500001C060000C59D1C8100E01F101A
:1051C4004E4531431504000000E41F005102000065
:1051D400530200006102000075060000740600001E
:1051E40076060000730600007206000062020000EA
:1051F400550200005602000057020000FF0F000095
:1052040015E41F001404000010E41F100C22E0EF4A
:1052140010E01F107047C04610B5054802F04CFC62
:105224000448054B186007F04BF9002010BDC04638
:105234001502002020F8002088020120F0B5C6469F
:10524400994C00B52000FCF7FFFC984B0025236027
:10525400B6235B00E5500433E550954A0433E5502A
:105264000433E250C6220433E5500433E5500433DA
:10527400E5500433E5508F4B5200A3500432A35041
:10528400802396211B010432A3500432A550C90087
:105294000432A15010210432A15087490432A15094
:1052A400D4210022D6204900655202316254AA3921
:1052B400FF3940002150043025500430255004307B
:1052C4002550043025500430255004302550043036
:1052D400255004302550794E043025500430265092
:1052E400FC26043025500430255004302550043069
:1052F4002254043023500430255004302550043007
:1053040023506F487600A0510436A3510436A551AA
:105314000436A5510436A5510436A5510436A551C9
:105324000436A3510436A5510436A5510436A351BD
:105334000436A0518A2080002350043023508C234B
:105344009B00E5505F480433E5500433E0500220ED
:105354000433FF30E0500433E2540433E5500433A3
:10536400E5500433E5500433E1500433E254564B22
:105374003B31E154554B2831E154554B5549E254E6
:105384000133E1520433E5500433E552524B00211A
:10539400E25480220233E018D20002F087F94F4B26
:1053A40008220021E01802F081F94D4B70220021FF
:1053B400E01802F07BF94B4B4B49E5500433E552BE
:1053C4000A684A4B9A4207D049494A4B0A689A42AA
:1053D40033D080BCB846F0BD8B88022BF4D1CB8887
:1053E400202BF1D1CD69444A44480B7801315A400D
:1053F40013049B185B009B18DB009B18DB009B18B5
:105404005B009A188142F0D19542DDD18122364B5E
:1054140092009968A1508022DB68520193423EDBDE
:10542400274B82229200A3502F4B1B7E082B00D9BE
:105434000023D822FF32A354C6E78B88012BC8D19E
:105444002F4BCA889A42C4D1043BCC582A4A2D48CF
:105454000B7801315A4013049B185B009B18DB0046
:105464009B18DB009B185B009A188142F0D1944290
:10547400AFD1254B002498460125244F1C4E244BC4
:10548400E10180227818C91802F016F9337A4246ED
:10549400E3402B4013550134082CF0D199E7DA434B
:1054A400D2171340BDE7C04620F80020F8DD0020E5
:1054B400E1AC0000E02E00000077010008080000C5
:1054C400FF0F000001010101550200005602000017
:1054D400570200003C640000620200006406000001
:1054E4006C060000DC06000000F01F10335A314344
:1054F40000E01F104E453143C59D1C811CF01F1058
:105504001404000010E41F1084FE002084FA00201C
:1055140010E01F1000487047D0EC0020004870478E
:1055240068EC002070B5002826D0032833D81B4B24
:105534008000C458200006F049FEC3B2181C1F2B7B
:1055440018D8C021C0B2421CD2B252008900114303
:105554000D00002B1CD0124B9C469A1C0023E15CCE
:1055640001331180D9B202328842F8D863466046CA
:105574001D8070BD1F20E4E70A48C1250400074BC5
:105584000222196802F098F8A31E9C46AD00EDE7CC
:10559400034B9C46EAE70020EBE7C04680EE002080
:1055A4009C0901209E09012070B5164C82B0200090
:1055B40003F01EFD002805D02500D9232C3DEE5C08
:1055C400002E02D0002002B070BD0120E97805F061
:1055D40009FB0028F6D020000B49EA8803F08AFD75
:1055E400E978041E0AD00300074A012001960096B8
:1055F40005F048FB0028E5D02000E4E7012005F091
:1056040019FBDFE724F6002050F60020F0B5244C07
:1056140085B0DC220021200002F048F8214E3568D4
:10562400280001F0EBFF20640700706801F0E6FF3A
:1056340003906064337A01215800C018400001F0DF
:10564400FBFFE060002F26D0039B002B25D0002811
:105654001FD0AAB22000002501233900183000957C
:1056640003F090FCB28820002600616C01234836C8
:105674002C30009503F086FC300000F0ABFEA662EF
:10568400260050363000656200F0A4FE0120A663B7
:10569400E56305B0F0BD3800FBE71800F9E7C04644
:1056A400F8F5002090EE002010B50E4C206C002878
:1056B40003D001F0E3FF00232364606C00280CD0C6
:1056C40001F0DCFF0023E0686364002803D001F0EC
:1056D400D5FF0023E360012010BDE0680028F6D167
:1056E400F9E7C046F8F50020F0B51C0083B00128A6
:1056F4002AD1D923334DEA54002A25D1AB788B42E1
:1057040025D0EB788B4248D001201EE028002C30B5
:1057140003F06EFC002844D1002C42D02000E9881C
:1057240001F0C0FD0C1E3CD10120E97805F05AFAC5
:10573400002836D0E9782300220001200194009447
:1057440005F0A0FAA0422CD1002003B0F0BD002C3B
:1057540019D0A40817D02634A4002E192C00002731
:10576400983402E00434A64209D02368002BF9D00F
:1057740004222100144803F0C5FD0137F2E7134B5E
:10578400002B16D1A97800242A00AB8828789832F7
:105794000194009405F076FAD7E7FFF705FF002897
:1057A400B4D00B4B002BAFD00120FFF733FD012009
:1057B400CBE7002FE6D039000120FEF715FEA978CB
:1057C400E1E7C046F8F5002010F60020F94100207A
:1057D4002550002070B5012824D1134B002B02D092
:1057E4000021FEF7F7FD114C200003F03FFE2000DE
:1057F4002500143003F03AFE002300222000183D57
:105804006B602B81FF332B60273BEA540021062277
:10581400083801F04BFF064B00211A7AE868920021
:1058240001F044FF70BDC046E541002010F60020A1
:1058340090EE0020F8B5DE4657464E464546E0B5A4
:10584400012906D1D92100206A4C605451790129DB
:1058540006D00020F0BCBB46B246A946A046F8BD1F
:105864009079002101286BD00328F2D115785019C2
:105874004678B446242676426644012E00D87FE05A
:105884006646052EE5D19278691889B262708B421A
:1058940000D8A0E0584A15685268A94690460022EC
:1058A40000259346924623E0252A29D0052AD0D103
:1058B4004279057912022A43402A04D9402202710E
:1058C4000022427140328578EE092DD1E678677A5C
:1058D4003E43BED1424500D942468346E570E2804C
:1058E4000278511889B299424FD28018427894466E
:1058F4006246242AD8D18278013A032AA9D8EFE74C
:105904008278012AA5D1002DA3D0EA0928D1E27812
:10591400AA429ED1627A002A9BD1C278627202782E
:105924000025511889B2DEE7A678277A3E4300D0D5
:105934008FE74A4500D94A468246A570A280CFE740
:10594400002B07D185E710784118121889B25079D5
:105954008B4210D90128F6D190790328F3D183E73B
:10596400A278AA4200D074E7227A002A00D070E715
:10597400C2782272D3E7012800D06AE7907973E7EE
:105984008678012E00D064E77DE7E378002B1AD0F7
:10599400637A002B17D05346002B06D051460120C2
:1059A40005F0AAF9002800D153E75B46002B06D086
:1059B4005946012005F0A0F9002800D149E7012348
:1059C4000120237046E7A378002B00D141E7237A16
:1059D400002BE0D13DE7E378002B02D0637A002B63
:1059E400EDD1A378002B00D133E7237A002BE6D145
:1059F4002FE7C046F8F5002090EE002070B50E00A9
:105A040082B001281ED1114CD82300252200E05475
:105A1400A388A178207898320195009505F032F991
:105A2400051E0FD00A4B002B07D0607A237AE27848
:105A3400A17800900120FEF7C5FC3100012005F09B
:105A440083F900E00025280002B070BDF8F50020BD
:105A5400D5410020F0B557464E46DE464546E0B5F2
:105A640014000F00994685B001280ED100290CD0EE
:105A7400002A0AD0002B08D0604D02AA2800D11DAC
:105A8400A84603F0ADFB002808D10026300005B07D
:105A9400F0BCBB46B246A946A046F0BD290002AA06
:105AA400D37928001B0904223B70083903F022FB38
:105AB4000428EAD1524B0026183D00931CE0009BB9
:105AC4009C4618885B46184240D102AB4046D91D1B
