:020000041000EA
:1000000000B5324B212058609868022188439860DF
:10001000D860186158612E4B002199600221596106
:100020000121F02299502B49196001219960352056
:1000300000F044F80222904214D00621196600F024
:1000400034F8196E01211966002018661A6600F04E
:100050002CF8196E196E196E052000F02FF8012189
:100060000842F9D1002199601B49196000215960AB
:100070001A491B48016001219960EB211966A021F2
:10008000196600F012F800219960164914480160C1
:100090000121996001BC002800D000471248134993
:1000A000086003C880F30888084703B5996A0420EC
:1000B0000142FBD001200142F8D103BD02B5186610
:1000C0001866FFF7F2FF186E186E02BD00000240BE
:1000D000000000180000070000035F00212200005C
:1000E000F4000018222000A00001001008ED00E03C
:1000F00000000000000000000000000074B24E7A12
:1001000000200420F7010010CB010010CD010010E9
:10011000C9010010C9010010C9010010C901001077
:10012000C9010010C9010010C9010010CF01001061
:10013000C9010010C9010010D1010010D301001045
:10014000C1010010C1010010C1010010C101001067
:10015000C1010010C1010010C1010010C101001057
:10016000C1010010C1010010C1010010C101001047
:10017000C1010010C1010010C1010010C101001037
:10018000C1010010C1010010C1010010C101001027
:10019000C1010010C1010010C1010010C101001017
:1001A000C1010010C1010010C1010010C101001007
:1001B000C1010010C1010010C1010010C1010010F7
:1001C000EFF30580103800BE00BE00BE00BE00BECA
:1001D00000BE00BEF2EB887190020010B002001069
:1001E0003802001090A31AE721482249086006C887
:1001F00081F30888104720480068002801D01C4877
:10020000F3E70DA40ECC002902D000F012F8F9E7B4
:100210001A491B4A002000E001C19142FCD1194952
:100220008847194988471949884700BEFDE701C931
:1002300001C29A42FBD37047B0020010C0000020F8
:10024000446400203466001050640020807F002049
:10025000648100100000042000000420648100106C
:10026000001004200010042000000000704700006F
:100270000000000008ED00E0000000D0807F0020BA
:10028000FC8E00202D3F0020BD1E0020253F0020B9
:100290002C7D0020387D0020447D0020507D0020F2
:1002A0005C7D0020687D0020747D00204C7E002055
:1002B000F8B5C04606480749091A8B10C90FC91876
:1002C00010B5491003D0044B002B00D0984710BD47
:1002D000807F0020807F002000000000054B10B5CB
:1002E000002B03D00449054800E000BFFFF7E2FF00
:1002F00010BDC04600000000B48E00204464002001
:10030000A423082130B5FF24134A1448D1501449BE
:1003100002680B680D689B1AA343521BD218026037
:10032000104A1B02944612680F4853401B0C0F4D95
:100330001B0403602A684B6849689B1AA343521A3E
:10034000D2182A6062461B0212681B0C53401B0421
:100350001B0C036030BDC04600000540C88600206D
:10036000607E00204800054048100540CC860020F3
:10037000F0B5502387B017256A460405240F1C43A7
:100380006D44AF3393750F00287002F0ADFF00236A
:10039000194A80185941002902DA012017494042C0
:1003A00000230290039100932A0021001448013396
:1003B00006F0CCF800281ADD02F096FF00230E4A62
:1003C00080185941002902DA01200C4940420023DB
:1003D00016220290039100932100094801336A44D8
:1003E00006F0D4F8002802DD6B46987D02E0012378
:1003F00000203B7007B0F0BD10270000FFFFFF7F1B
:10040000207F002010B5034B0348186006F018F950
:1004100010BDC046A08600204880002070B5D025C1
:1004200001220021072001F0C1FF01220021062046
:1004300001F0BCFF0122002105202D0601F0B6FFCE
:100440000120002102F02EFE6A686C686B68640669
:100450009B06E40FDB0F1B01A4001C431306DB0FFC
:100460000022012107201C4301F0A0FF00220121EE
:10047000062001F09BFF00220121052001F096FFDC
:100480000120002102F00EFE69686A6809066B68A7
:10049000C90F52064900D20F9B060C43D200DB0F56
:1004A0005B0100210720144301221C4301F07EFF61
:1004B00001220021062001F079FF64B2012200210F
:1004C000052001F073FF2A2C05D0302C03D0FF202B
:1004D0000C2C00D070BDE0B2FCE7C046F0B54E4633
:1004E000DE4657464546E0B5431824331B7885B0B1
:1004F000994601900291002B00D12DE280468B009D
:1005000003935B181B01984444462C20205603F0AB
:100510001BFDE54903F0E1FC071CA06A03F014FD94
:1005200000218246381C03F0C1FC0021041C504607
:1005300003F0BCFC391C051C381C03F0CEFC002168
:1005400003F0B4FC391C061C504603F0C6FC002125
:1005500003F0ACFC4A46071C012A00D19EE142464A
:100560003420105603F0F0FCCF4903F0B6FC4246AD
:100570008246106B03F0E8FC51468346201C03F0D2
:1005800095FC5946041C281C03F090FC5146051CA0
:10059000504603F0A2FC011C301C03F087FC5146BE
:1005A000061C584603F099FC011C381C03F07EFC25
:1005B0004A46071C022A00D170E142463C201056F0
:1005C00003F0C2FCB84903F088FC42468246906BB7
:1005D00003F0BAFC51468346201C03F067FC5946E1
:1005E000041C281C03F062FC5146051C504603F015
:1005F00074FC011C301C03F059FC5146061C584683
:1006000003F06BFC011C381C03F050FC4A46071C2D
:10061000032A00D142E142464420105603F094FCE4
:10062000A14903F05AFC42468246106C03F08CFC50
:1006300051468346201C03F039FC5946041C281CF3
:1006400003F034FC5146051C504603F046FC011CE7
:10065000301C03F02BFC5946061C504603F03DFCB1
:10066000011C381C03F022FC4A46071C042A00D156
:1006700014E142464C20105603F066FC8A4903F010
:100680002CFC42468246906C03F05EFC5146834649
:10069000201C03F00BFC5946041C281C03F006FC2C
:1006A0005146051C504603F018FC011C301C03F099
:1006B000FDFB5946061C504603F00FFC011C381C7C
:1006C00003F0F4FB4A46071C052A00D1E6E0542358
:1006D0004246D05603F038FC734903F0FEFB424615
:1006E0008246106D03F030FC51468346201C03F017
:1006F000DDFB5946041C281C03F0D8FB5146051CA1
:10070000504603F0EAFB011C301C03F0CFFB5946B6
:10071000061C504603F0E1FB011C381C03F0C6FB2D
:100720004A46071C062A00D1B8E042465C20105613
:1007300003F00AFC5C4903F0D0FB42468246906D10
:1007400003F002FC51468346201C03F0AFFB5946E0
:10075000041C281C03F0AAFB5146051C504603F05C
:10076000BCFB011C301C03F0A1FB5946061C504683
:1007700003F0B3FB011C381C03F098FB4A46071C2E
:10078000072A00D18AE042466420105603F0DCFBC1
:10079000454903F0A2FB42468246106E03F0D4FBAB
:1007A00051468346201C03F081FB5946041C281C3B
:1007B00003F07CFB5146051C504603F08EFB011CE8
:1007C000301C03F073FB5946061C504603F085FBB2
:1007D000011C381C03F06AFB4A46071C082A5DD03E
:1007E00042466C20105603F0AFFB2F4903F075FB17
:1007F00042468246906E03F0A7FB51468046201C7D
:1008000003F054FB4146041C281C03F04FFB5146E7
:10081000051C504603F061FB011C301C03F046FB35
:100820004146061C504603F058FB011C381C03F0DF
:100830003DFB4A46071C092A30D0019A029890468F
:10084000039B1B181B01984443467420185603F061
:100850007BFB154903F041FB43468246186F03F0CA
:1008600073FB51468046201C03F020FB4146041CCC
:10087000281C03F01BFB5146051C504603F02DFBC2
:10088000011C301C03F012FB4146061C504603F0CD
:1008900024FB011C381C03F009FB071C211C201C35
:1008A00003F01BFB804601E0CDCCCC3D484603F075
:1008B0004BFB311C814603F010FB414603F0F3FA79
:1008C0000021061C03F038FB002841D1391C4846A2
:1008D00003F003FB291C071C201C03F0FEFA011C7B
:1008E000381C03F0E0FA311C03F0E3FA1E49071C40
:1008F00003F0F3FAFC21890503F0D8FA03F046FB74
:100900008046029B211C1E01019B381C9E1933004E
:10091000C8331F6003F0E1FA011C281C03F0C3FA7E
:10092000494603F0C6FA3300CC3342461860FC2136
:10093000D0238905F25003F0B9FA03F027FBD42342
:10094000F05005B0F0BCBB46B246A946A046F0BD8B
:10095000002300279846D4E7002398461F1C1E1C3E
:100960001D1C1C1CA2E7C046ABAAAA3FF0B5454619
:1009700057464E46DE460300E0B52433A1B00200E0
:10098000059303232832140000259846EC27CA4E0D
:10099000069007924246059B29005A55002323736F
:1009A000C64B2771A36014232375C54B26602361B2
:1009B0000698FFF793FD6B1C50340125022BE9D1FB
:1009C000133304AA99180020FFF7D2FC152304AAB8
:1009D000991804020120FFF7CBFCBA4B04439C4258
:1009E00000D060E1162304AA9B189A4617239B188F
:1009F0009846B54B00249B46FF2300279946B34EEB
:100A00000AAD1BE002F070FC80197941002902DA7E
:100A10000120AF49404200230290039100935246C7
:100A200050215846013305F0B1FD002820DD534622
:100A30001B7801342B700135582C1FD053464A4681
:100A40001A7043461C7002F04FFC8019794100294E
:100A500002DA01209E494042002302900391009354
:100A6000424650215846013305F070FD0028C9DC8C
:100A7000002301342B700135582CDFD10AA8954B87
:100A8000954956300AAA20E05B001CB2002C27DBF7
:100A90005C0023B2002B28DB640023B2002B29DB8F
:100AA000640023B2002B2ADB640023B2002B2BDB73
:100AB000640023B2002B2CDB640023B2002B2DDB5F
:100AC000630001329BB290422ED01478240263401E
:100AD0001CB2002CD8DA64004C4024B2231ED7DAB2
:100AE00064004C4023B21C1ED6DA5B004B401BB2A4
:100AF0001C1ED5DA5B004B401BB21C1ED4DA5B0017
:100B00004B401BB21C1ED3DA5B004B401BB21C1EB9
:100B1000D2DA5B004B401BB21C1ED1DA5B004B40AB
:100B200001329BB29042D0D1562204A918318A5A80
:100B300052BA92B29A4200D0B5E000262427079D0F
:100B4000B0460BAC13AE41462378059A5354002BA4
:100B500000D199E0A278E178120609040A4361798C
:100B60000A43217909020A4361782A602971012B1D
:100B700000D189E0E279217A120609040A43A17AB8
:100B80000A43617A09020A43A179AA602973022BF8
:100B90007AD0227B617B120609040A43E17B0A4377
:100BA000A17B09020A43E17A2A612975032B6BD0E4
:100BB000627CA17C120609040A43217D0A43E17C80
:100BC00009020A43217CAA612977042B5CD0A27D0B
:100BD000E17D120609040A43617E0A43217E09026F
:100BE0000A43617DE9552A62052B4DD0E27E217FC3
:100BF000120609040A43A17FA07E0A43617F09020D
:100C00000A432C216854AA62062B3DD032787178B1
:100C1000120609040A43F178E07F0A43B178090219
:100C20000A43342168542A63072B2DD07279B17995
:100C3000120609040A43317A30790A43F17909022C
:100C40000A433C216854AA63082B1DD0B27AF17A7A
:100C5000120609040A43717B707A0A43317B090248
:100C60000A43442168542A64092B0DD0F37B327C5B
:100C70001B0612041343B27CB17B1343727C120235
:100C800013434C22A954AB6441460698FFF726FC57
:100C9000434601222934904650352936012B00D095
:100CA00051E7002000E0012021B0F0BCBB46B24675
:100CB000A946A046F0BDC046344E050050FC0300D6
:100CC00040A90200D1070000207F0020102700006B
:100CD000FFFFFF7FFFFF000021100000F8B5CE46A8
:100CE0004746002580B50700EE4B10220360002127
:100CF0000561C560856045600562C56185614561C6
:100D0000F83003F0D9F9842338005B00FD520D3030
:100D1000023308220021FD52FF3003F0CDF9802379
:100D20008A221B015200BB520232BB5238008C2374
:100D300000245B001D30FC540021FE3AFF3003F01C
:100D4000BBF93800353006220021FF3003F0B4F93A
:100D5000B5235B00FC543E230822FF33FC54D24BE6
:100D600001261A60E022D14BD2011B681340D04A01
:100D700013609D235B00FC54063BFC543623FF3379
:100D8000FC540133FC543823FF33FC540133FC542E
:100D90003A23FF33FC54C74BC74C984623780421B1
:100DA0009946180001F0EAFA4B460421581C01F05C
:100DB000E5FA4B464A465B081F2A00D9AAE10722FA
:100DC0001A4093009B18BD49BD4A9B009A185918B8
:100DD00015600D60BB4959180D60BB495B18414651
:100DE00019601023536016602378013359081F2BB4
:100DF00000DD8BE107220A4093009B18AF49B04AFF
:100E00009B009A18591815600D60AE4959180D606D
:100E1000AD495B1841461960102353601660237872
:100E20005A081F2B00D938E1072111408A005218B7
:100E3000A44992005118096840468C463100194077
:100E40004942414060460140A048013312181160F8
:100E50005A081F2B00DD1CE10721114040468A0083
:100E60005218984992005118334009685B42434038
:100E70000B409649023452181360954B9C428DD119
:100E800005F0CEF81F211B2001F078FA0022002186
:100E90001B2001F08BFA00211B2001F099FA1F2181
:100EA0001A2001F06BFA002200211A2001F07EFACC
:100EB00000211A2001F08CFA1F211C2001F05EFA9B
:100EC000002200211C2001F071FA00211C2001F0F9
:100ED0007FFA1F211D2001F051FA002200211D2060
:100EE00001F064FA00211D2001F072FA182001F0CF
:100EF00081FA192001F07EFAD024802324065B04B5
:100F0000636280239B046362082001F073FA8023EC
:100F10005B0063620920636101F06CFA80239B002F
:100F200063620220636101F065FA04230022A36278
:100F30000121022001F03AFA032001F05BFA0823B4
:100F4000644DA36200220121032001F02FFA280042
:100F5000614905F0C1F80222904641466B681220B3
:100F600013405E4A11600F22296810255140C0329B
:100F70000A405B490A605B4A0121136001F0FEF9F7
:100F80000121132001F0FAF90121152001F0F6F9F1
:100F90000421172001F0F2F90421162001F0EEF9E6
:100FA0000022474B5049DA635A649A64D9641D643D
:100FB000DE63DA635A649A64D9641D64DE63FA23DB
:100FC0004A499B040A68072053401B0C484A1B04EB
:100FD0001360FA2309689B004B401B041B0C136031
:100FE00001F008FA062001F005FA052001F002FAE6
:100FF0008023A362403BA362203BA362142001F044
:10100000F9F900220021142001F0D0F9042001F0A8
:10101000F1F965623749A561374805F06FFA032198
:10102000102001F0ABF90321112001F0A7F90020F5
:1010300001F0E0F96662012001F0DCF94346380076
:101040006362FFF7EBF9F023F8543800FFF78EFCEA
:101050009F23464001205B003040F854563B9846A1
:10106000B844404603F0B2F914264346234C244DBD
:1010700003CB244A244B02F0F9FE013E00196941DA
:10108000002EF6D1434603C33800C0BCB946B04673
:10109000F8BD032111400831E0E603211140083179
:1010A000C4E6C046047C002000F0044000C00440B8
:1010B00000D00440FFFF0000A47C00200800054091
:1010C000000005400C000540100005400C100540D4
:1010D000AA7C002000C00340286BEE0004F003400F
:1010E00000D0034004E00340CF0700004800054063
:1010F00048100540A0860100207F00204F8167F73F
:101100007E7B05142D7F954C2DF4515803220A4007
:10111000083271E603221A40083252E6F8B5474613
:10112000CE4680B5B427BF00C35991465A035A40F2
:10113000530C53408846590159400F234A030B4032
:1011400051404A0C4A40550155406F4A9C000600E8
:10115000C551A158280002F0FBFD00294AD16B03BC
:101160006B405A0C5A4053015340FF22F3511A402E
:1011700042453FD8B6201F215A035A40530C5340D2
:101180005A015A40400033191C5811400F390919AF
:10119000FF2933DDFF211950510351404A0C4A40C9
:1011A00051015140480305004D406C0C6C406501F5
:1011B000B427FF226C404D46BF00F1510A40022D7A
:1011C00000D182E0012D1DD0272A00D87BE001212B
:1011D0002140952A1CD9F451DB2A00D884E000294B
:1011E00000D18CE021000522600317E02022F621C7
:1011F00049005A50C0BCB946B046F8BD1429CADAF5
:101200001421C8E74F2A5ED949462140C72A67D82A
:10121000F45100295FD02100012260034840D62408
:10122000410C484041014140AF2064001D598000FD
:1012300052191A513058AD3C0C40C01084420CD2A7
:1012400048034140480C48404101414001200924E5
:1012500008400138A04305301218182A2BDD182247
:10126000D62040001A504A0351404A0C4A405101CE
:101270008B2451403F22A40018590A401F3A1218EB
:10128000FF2A1CDDFF221A514A0351404A0C4A40F2
:1012900051015140B4229200B1501F220A40F62160
:1012A000490058580F3A12181F2A9FDDFF2A9EDD69
:1012B000FF225A509EE7D043C0170240D0E7D043E8
:1012C000C0170240DFE70022A8E7783A632AFAD87D
:1012D000F451E2079FD401222100524260039DE7AE
:1012E000F451EF2A00D97AE7002903D02100022225
:1012F000600393E702222100524260038EE7052239
:1013000021005242600389E7147C0020F0B5DE46DC
:1013100057464E464546A922E0B59200835889B00B
:1013200001338350B5239B00C35C0400002B00D124
:101330007DE3F823E3589846FC23E0580433E15852
:101340000C33E258043312B2521010188022E358C2
:101350005201904200DA22E1934A91461BB25B109F
:101360005A1880235B019A4200DA13E18E4B9A46A9
:101370003C23FF33E35C01930A23FF33E35CDBB2DE
:1013800003938A4B1A78002A13D01A788849013AB5
:101390001A709B2301229B005242E25000223C33F0
:1013A000E250AC2201239200A3540432A150043233
:1013B000A352804B1A78002A0CD01A78013A1A707E
:1013C000AE2201239200A354083AA354AD23784AD5
:1013D0009B00E250784B1A78002A0FD01A78013A15
:1013E0001A70AC2200239200A3540432A35004329A
:1013F000A352724BE35C002B00D0F3E20123AE2634
:10140000AC20AD219C466E4A694F6E4DB6008000FF
:1014100089001378002B00D1DEE01378013B1370B4
:10142000A35D002BF5D0634623546750635D013301
:10143000DBB26355052BECD9002363550933FF3329
:10144000E35C002B00D0D6E35F4B63509B239B00F3
:10145000E3585A1C93460F2A00DD90E20323110043
:1014600019400091012111409B235A464D469B0093
:10147000E250564B9700ED18B623E7195B00FB5876
:101480002D11ED18FF2D00DCCDE2FF25B4208000EA
:101490002258530353405A0C5A4053015340FF22E1
:1014A0001A400292AA42924123505242403822549A
:1014B00000986A10022800D12832002903D001992F
:1014C000002900D1D2E302990026A9420DD2590386
:1014D0004B40590C59404B014B40FF36B4211E4044
:1014E0009642B641890063507642394B0521E65455
:1014F000E53BFB581800984602F002FC43001B181D
:101500009B0030330493B3239B00E1584046059180
:10151000052102F0F5FB05982E4A83001B185B1885
:101520009B009B58049AD31800D562E37F2B00DD03
:101530007F239C229200A350F6238B215B00FA5854
:101540008900D033E058795853105B1841105B186C
:1015500000D54CE3FF2B00DDFF239D218900635064
:10156000029BAB4200D3C0E2A7239B00E158083B9B
:10157000E150002E00D16EE3A8239B00E158083B08
:10158000E15009491C3BE150A02153110E33890061
:10159000635040E3D343DB171A409246E8E6C24368
:1015A000D21710408146D9E6FF0F0000F68E0020CA
:1015B00080BB0000F38E0020F78E0020BA020000EE
:1015C000F28E0020B90200007FBB000000F8FFFF90
:1015D00091020000547C00200933FF33E35C002BB0
:1015E00000D0B7E1AD229200A358002B01D000F04B
:1015F000A3FCAC229200A354019B012B00D1E5E394
:10160000002B00D1FEE200230021B1229200A35062
:101610004246DD4BAB205343FA221B0BD201D31AB7
:101620009B22800023509200A258D84D2A40012AC4
:1016300001D100F0EDFBAA218900625801329A42E3
:1016400000D37FE36250A5229200A358002B00DC58
:10165000A2E2013BA350A42304329B00E15CA35807
:10166000002B00DC4FE3013BA350C94BE25C002997
:1016700001D100F080FCD02380211B064900996134
:10168000002A00D149E3802292009A6178239D21AB
:101690009C228900615892008B46BE49A258615C29
:1016A000002927D11F27BC49BC4E625431780092D3
:1016B00001310F40BA4909788F4218D05946572056
:1016C0004843011230782831450040199025019196
:1016D000B4494554307845004019081842703078B4
:1016E0004500AC46844401986144887037700120FD
:1016F000A849605401210091FF211140D022A25835
:101700003C394A43D421615812115218D143C917A8
:101710000A40802109038A4200DBA34A5101891A49
:1017200089008A18A149D2110A60B2225D4692004E
:10173000A0582D1A6D112D189D48A5502A01121878
:10174000C020C000824200DC9BE281389210FF384A
:1017500012189748824200DA02008020000182427B
:1017600000DB944AA0269348B600801A4201121A60
:10177000920012189E204A60A25980009446225876
:1017800062441105090D21509F21890067582831B5
:10179000605880210901114052058B46520D002FDF
:1017A00000DC92E2C10704D4012149428C44614625
:1017B000A1516146032903DCA0210426890066505B
:1017C0005946002900D18FE28021C900891A3A13B5
:1017D0000132BF1A9F2249009200002F00DA8EE2E8
:1017E000A7503A00C0274A43FF001112B94200DC5B
:1017F0003EE290219212C9005218F2216252A322B5
:10180000A22792009446A258BF009346E259802630
:101810005A441105090DE151A121360189001640F4
:1018200067585205520D9046002F00DC31E25946B0
:101830000139182900DA18216246A150002E04D07F
:101840008021424609018A1A90465B494144490079
:10185000082F00DC40E2B42292009046A258160005
:1018600052035640720C7240560172404646A251D5
:101870007E120136BF1B00D453E3A1220021920047
:10188000A1504B4A934200DA130080221201934286
:1018900000DB484BF4226021A35202F059FA0029E0
:1018A00051D1EA00D343DB171A4080235B019A42EF
:1018B00000DB424AAF2380209B00E3584001DB005D
:1018C000834200DB3D4B009E3D48013E06403D48C3
:1018D0003D4F84463868664470403C4D0004000C1F
:1018E0002860484640433E68001200047040000CE7
:1018F0000004286050464043354D00122E68524384
:1019000070400004334E000C30602868121212043C
:101910004240120C12043260AC229200A25C002AF7
:1019200000D061462C481B0402681B0C4A405B43F4
:101930002A491204120C0A6002681B121B0453404D
:101940001B0C1B040B6009B0F0BCBB46B246A94699
:10195000A046F0BD85235B00E35C002B00D041E690
:10196000AC2301229B00E2541D4A0433E2509B2326
:101970009B00E3585A1C93460F2A00DC6EE50023B7
:1019800000219B4600936FE5487100000100008034
:1019900091020000BA020000BB020000F58E002098
:1019A000F48E00204C8A0020FFFF0700607E00209C
:1019B00000F8FFFFFF07000000FCFFFFFF0F000023
:1019C0002000FFFFE0FF00007000054070100540A0
:1019D000840005408410054098000540981005409B
:1019E0007FBB00001F22DD4B197801310A40DC4922
:1019F00009788A4213D01E78DA497000801980264F
:101A0000655CD94946541E787000801908184570E5
:101A10001D78680040190918002088701A7000228B
:101A2000D24BE254EAE4EB43DB171D402EE506AD52
:101A3000280002F0C3FC2A7853039A185B0C534029
:101A40006A7812025A405B0153405A0353405A0CC1
:101A50005A40AB781B045340520153405A03534041
:101A60005A0C5A40EB781B065340520153405A031C
:101A700053405A0C5A402B795340520153405A0359
:101A800053405A0C5A406B791B0253405201534049
:101A90005A0353405A0C5A40AB791B04534052012D
:101AA00053405A0353405A0C5A40EB791B0653409B
:101AB000520153405A0353405A0C5A40F823E358FA
:101AC0005B0053405201534086225200A25812B28A
:101AD000D200934200D19FE15340B4229200A35020
:101AE000B52301229B00E25423E4A52300219B009F
:101AF000E150002E00D089E0A6239B00E650039B16
:101B0000002B00D193E00099002900D09BE5B02282
:101B1000AF239200A05C9B00E758002800D158E159
:101B20000137E750DC2F00DDA1545B46002B00D0CD
:101B300089E5B4239B00E3585A035A40530C5340A1
:101B40005D015D405B0700D16CE15346FA101B114B
:101B50009B18FF2B00DDFF23019A022A00D15DE1D3
:101B6000012A00D103E2FF22D31A6A036A40510C12
:101B700051404A014A40FF211140042B00DA04235E
:101B8000994200D92DE1B4239B00E250A522920096
:101B9000A358002B00DD5CE5A423A62200219B00B6
:101BA0009200E154A358002B00DCBDE0013BA350A0
:101BB0006F4BE25C782351420B40D0218020090614
:101BC00040004861002A00D1B6E0802292008A617C
:101BD0009D219C228900615892008B466349A2583E
:101BE000615C002900D0CDE00021009184E5002354
:101BF000B3E400239DE485235B00E35C002B00D06D
:101C000022E4ADE682235B001900FEE4A8239B00DA
:101C1000E158083BE150A12356499B00D210E15006
:101C20001C320833E250039B002B00D06BE7534675
:101C3000C01019110918FF2900DDFF21019A2000A9
:101C4000FFF76CFA9B239B00E3581A009B46032383
:101C50001A40009257E7A62346499B00E6505211CE
:101C60001C3BE1500E320433E25048E71E322AE4B6
:101C7000414E424F92129219B94200DABDE50A0074
:101C8000BBE53E48824200DB63E53B4892101218F8
:101C90005FE5002E5AD000267D31FF31891A4900B8
:101CA00079438A1292199B18C022D200934204DD14
:101CB000813A9B10FF3A9B18E3E5304A934200DBE0
:101CC000DFE52D4A9B109B18DBE5002942D08021DF
:101CD000C900891A490084E57A1EA127BF00E25194
:101CE0004A4392129B18CCE5254951183A13013208
:101CF000BF1A9F2249009200002F00DB70E50021EF
:101D0000A150002279E50022194BE25400290DD0A0
:101D1000D02380221B0652009A61D02380221B060A
:101D200092005A610023B2E4114BE154D023802287
:101D30001B0652005A610023D0228021120689001E
:101D4000516145E700236350FFF780FB0C49414494
:101D50004900A5E70A495118490042E5F58E0020DF
:101D6000F48E0020BB0200004C8A0020BA02000062
:101D700091020000FF0F000080FBFFFF00FAFFFF51
:101D800000FCFFFF1F278449087801300740834883
:101D90000078874216D00E78814875007619802524
:101DA000205C84467F4835540E7875007619654668
:101DB000861975700D78AC466E0066448019002651
:101DC00086700F700020784960540DE778237821E1
:101DD0001BE4013FE750272F00DDA6E60123A354B3
:101DE000A3E653035A40530C53405A015A4053033D
:101DF0005340590C59404B014B400321114200D034
:101E0000A5E0B4229200A3500B40043AA3501AE478
:101E10005B182350FFF70FFC644B5EE69B10FD320E
:101E2000D31AA2E66B036B405A0C5A40530153403D
:101E30000322590359401A404B0C4B405D015D4051
:101E400003232B40990002919A4200D17DE61601AE
:101E5000A0191E01B446B621A4446646490000906C
:101E6000405817327050D620009940000958173357
:101E70003150F621009849004058120170500098E6
:101E8000403140581B0170508026B046A218E3181C
:101E900010685168186059609844106C516C18644F
:101EA000596411004646803103C903C6C032C033AD
:101EB00003CA03C3BC23664600995B00CA58D620F8
:101EC000F2504033CA584000F2504033CA58F250E2
:101ED0004033CA58F2506B036B405A0C5A405301BE
:101EE0005340590359404A0C4A4055015540B422C9
:101EF0009200A5500322029913405E18B600A6195D
:101F000033580321013B2800009301F021FF009B7F
:101F10005B1835D40E2B32DDD6220E235200B3507F
:101F200013E6A126B600A751863EFF3E3240803A16
:101F3000D2007A439612B3E6AC218900615C013B82
:101F4000A350002901D0FFF77EFBFFF755FBB42219
:101F500001209200A35003405A1EB3239B008243EA
:101F6000E0580132121810D5E150FFF76CFB5B10FE
:101F7000FE32D31AF9E5782351420B401DE69B4609
:101F8000D6235A465B00F250DFE5032A00DD00222B
:101F9000E250FFF758FBC046F58E0020F48E00207B
:101FA000BB0200004C8A0020BA020000BEBAFECA82
:101FB00010B5024B186804F02FFC10BDA08600205D
:101FC000F0B5C64600B5324E324D334C334F92B069
:101FD0000021002003F024FA002828D0402300210B
:101FE000002002AA03F02EFA0028F1D002AB181844
:101FF0000BE0FA2A13D0FB2A15D0FC2A02D13A783A
:1020000001323A7001338342E2D01A78F82AF0D1D3
:102010002278FF2AF6D0227801322270F2E72A785D
:1020200001322A70EEE7327801323270EAE71C4C56
:102030001C4F23783A789A4226D01F231A4E98468E
:1020400001AD08E042462378013313402370227823
:102050003B789A4218D0227853009B18F15C227882
:10206000297053009B18F318587822786870530031
:102070009B18F3189B782A00AB70002103230020E3
:1020800003F072FA0028DDD112B080BCB846F0BD72
:10209000F38E0020F68E0020F28E0020F78E0020B6
:1020A000F48E0020F58E00204C8A002000B585B00B
:1020B000104803AB02AA01A901F0F6FA002803D1E7
:1020C0000D480C4900F0BAF9039A0299019801F001
:1020D00011FA03F09BFF0021080003F08DFC074874
:1020E00002F0DEF901200021404202F019FCFFF766
:1020F00067FFF7E780320200647A002015020020B3
:10210000F0B5C646754C00B52000FEF7E7FD744BF0
:10211000012223609B2352429B00E250A4210433FE
:102120003132E2500023A720C8259D228900635246
:1021300004316350043163508000243121506D001C
:1021400004302550FA259200A3500432A3500432E3
:10215000A3500432A3500432A3500430043223505D
:10216000A350043004322350A350043000222D0128
:102170002550C0250430225404302350AD050430CE
:1021800025504020012560500431655404316350CE
:1021900004316350534804316350043160500431BA
:1021A0006254D62280218B20B8265200A3504032A0
:1021B000A1508D3AFF3A80002250DA27A138FF382B
:1021C0007600A0514036A5514036A1514036A2516B
:1021D000BC3EA051733EFF3EB0467F00E651403703
:1021E000E1514037E251BC3FE05101364037E65102
:1021F0004037E1514037E251B4467C3F0136E65169
:1022000046464037E1514037E251BC3FE05140374C
:10221000E3514037E1514037E251BC3FE051403794
:10222000E5514037E1514037E251BC3FE051403782
:10223000E65166464037E1514037E2517C3FE65176
:102240004037E1514037E251BC3FE0510136403761
:10225000E6514037E1514037E251BC3FE051403751
:10226000E3514037E1514037E251BC3FE051403744
:10227000E55186254746AD006151403562517C3DB0
:10228000675167464035615140356251BC3D6051F0
:10229000403567514035615140356251BC3D605118
:1022A000403566514035615140356251BC3D605109
:1022B0005D30FF3023508A239B00E1504033E250D1
:1022C000FC3B9F32E250903B7D32A3501032A35032
:1022D0001032A35080BCB846F0BDC04648800020F4
:1022E000107C0020BEBAFECA00487047187D00204E
:1022F00000487047B07C002070B5002826D0042824
:1023000033D81B4B8000C458200004F061F9C3B2DD
:10231000181C1F2B18D8C021C0B2421CD2B25200C8
:10232000890011430D00002B1CD0124B9C469A1CB7
:102330000023E15C01331180D9B202328842F8D81F
:10234000634660461D8070BD1F20E4E70A48C12532
:102350000400074B0222196801F0B4FEA31E9C463C
:10236000AD00EDE7034B9C46EAE70020EBE7C046F3
:10237000687E0020008A0020028A002010B54024D8
:10238000074A83009A181268C0005440C0222240B5
:10239000044C1B191A60044BC018416010BDC046A4
:1023A00004C0014004D0014000400140064B8000C1
:1023B000C3181B68C90092000A435A400C231340FB
:1023C000024A80180360704704C0014004D00140F5
:1023D0008000002904D0054BC018402303607047DB
:1023E000034BC01840230360F9E7C04604E00140F6
:1023F00004F001400123D0228340120693629361CE
:10240000084A83009A1811684022514080320A40DD
:102410000549C0005B181A60044BC01805234360CF
:102420007047C04604C0014004D001400040014054
:102430008023DB051868000F7047C0460FB400B555
:10244000084883B001F094FF049B002B07D005A936
:102450001800019101F044FE034801F089FF0120BA
:1024600001F056FEE87A0020F87A002070B58C461C
:102470001600EFF3108472B60F490B68002BFCD0E6
:10248000BFF35F8F6346DB08C5180722C05C634655
:102490001A40012393401A000240034207D1184317
:1024A0002870BFF35F8F0A6084F3108870BD6146A7
:1024B0003000FFF7C3FFC0462C0100D0F8B5CE4670
:1024C00047468C4680B51C00EFF3108872B61C4955
:1024D0000B68002BFCD0BFF35F8FA24221D80723EB
:1024E000994602E00132944218D349460126114030
:1024F0008E40D308C718C35C1E42F3D1100033438B
:102500003B70BFF35F8F00220D4B1A6088F3108879
:1025100000280EDBC0BCB946B046F8BD01204042E1
:10252000EFE7BFF35F8F00230B6088F31088012073
:1025300040426346002BEDD00898FFF77FFFC0466E
:102540002C0100D0044A1078431CDBB2172B00D9B1
:10255000102313707047C0467C7E002000B5054BE9
:1025600083B00100009318221F230348FFF7A6FF42
:1025700003B000BDFC7A0020D08900200021044B6C
:10258000044ABFF35F8F02C39342FAD17047C0463B
:10259000000100D0800100D0084B094A1360094AAD
:1025A0001360094A1360094A1360094A1360094A13
:1025B0001360094A1360094A136070478080808065
:1025C00000E400E004E400E008E400E00CE400E0E3
:1025D00010E400E014E400E018E400E01CE400E093
:1025E0001F2318401E3B8340002905D0C021044A08
:1025F0004900535013607047802201498B50FAE71D
:1026000000E100E001228240034B1B6813405A1E88
:102610009341D8B27047C04600E100E070B50D00AC
:10262000EFF3108672B60F4A1368002BFCD0BFF38D
:102630005F8F0D4B10309B6884001B590B4A9342EF
:1026400003D09D4201D001F01BFA074B9B681D513E
:10265000BFF35F8FBFF35F8F0022024B1A6086F3D8
:10266000108870BD240100D000ED00E0C101001011
:10267000F0B5DE4657464E464546E0B5824683B045
:102680008B461700EFF3108872B6604A1368002B70
:10269000FCD0BFF35F8F00255D4B5D579946002D41
:1026A00000DA9AE04A466B005A4C5E19B600019374
:1026B000A31900939B791370574B9A6853461033B4
:1026C0009B00D15899460B1B2F2B32D9534B994263
:1026D00000D098E0019B0236ED18514BAD006353DA
:1026E000504BA619043B9B1B4F4A1B055B0D6519FC
:1026F00013436B804D4B0121AB80FF23AB715B46D5
:10270000AB60009BEF710B4319004A46424B9B683C
:102710009950BFF35F8FBFF35F8F00223B4B1A606E
:1027200088F3108803B0F0BCBB46B246A946A04669
:10273000F0BD01200A008243D379B446BB422DD8B4
:102740003B4BB51C190013001B1B5B415943090D82
:102750008C46334B6519A353324B0099043B5B1BEA
:102760001B05314D5B0D2B4304364B80A619131FFF
:102770009B1B1B055B0D1D4363468B715B468B608A
:102780002C4B8D80CF7113600143BEE75800C018F9
:1027900080002018C679BE4225D902000623D356F0
:1027A000002BF3DA9A46131D9C4623486346009E8D
:1027B0009571043EF61A36051B4B760D1E43019BA0
:1027C00096805A1953469200A418A3715B46194A81
:1027D000A0802260E771A36097E701F051F900251E
:1027E0004B465D575EE766469A46131D9C469088A9
:1027F000043640050015A6196044801B00050A4EEA
:10280000400D3043D2E701F03BF963E7240100D0EB
:10281000F88E0020807E002000ED00E0C101001055
:1028200000A1FFFFB07E002000E0FFFF01BDFFFF21
:10283000AAAA00000148804701BD0000F0B5454646
:10284000DE4657464E46E0B50D0083B0EFF31088E4
:1028500072B6604A1368002BFCD0BFF35F8F5E4BEB
:102860005E499A68030010339F00D45999468C4200
:102870003ED0AC424FD05A4EA21B2F2A38D8594BCB
:102880001A689C4613000122824013401F22024016
:1028900001209A4690406346802283469850BFF3B9
:1028A0005F8FEFF305830193002B36D0994501D05C
:1028B00001F0E6F8012322009A439068854208D18E
:1028C00076E04B005B189B00F3189868854236D081
:1028D0001A00062151560029F3DA854254D0534696
:1028E000002B27D0C02259463E4B52009950196008
:1028F000394B9B68DC51BFF35F8FBFF35F8F0022C2
:10290000344B1A6088F3108803B0F0BCBB46B24663
:10291000A946A046F0BD0C00EAE7220001339A4325
:1029200090688542D5D106201056130000280ADA97
:102930000C0031E0802359462A4AD150D8E70620BE
:102940001856002821DB42001118890075188946A5
:10295000A9689960E979D9710621695699710029A8
:1029600024DBAD88F11A6D052D154D444919090573
:102970001D4D490D2943998013181C4A9B0011785D
:10298000F31899711070AAE713000199002914D166
:10299000FF3191711649918014490A789A71154A4C
:1029A0009B1B5B415A43120D0A7098E71049E2E7FE
:1029B0000620105613000028C5DA0F4A0F49D21A14
:1029C000083A5002400D014399800D4952080A43CC
:1029D000DA8084E7240100D000ED00E0C10100109E
:1029E000807E002000E100E000E0FFFFF88E002084
:1029F00001BDFFFFAAAA0000BA7E002000F0FFFF81
:102A000000F8FFFF084A83089B009B181A6810B55E
:102A1000140003221040C000FC3282409443220084
:102A200081400A431A6010BD00E400E00123034323
:102A300070B59C46EFF30581EFF3108572B6214A1D
:102A40001368002BFCD0BFF35F8F1F4B04001F4A9D
:102A5000E41A64416243120D1D4C8900A66852B20B
:102A6000765866451CD00621595691421CD0122139
:102A70005956914222D01E215956914220D02A21E6
:102A800059560324914210D0124B19781A70817153
:102A9000BFF35F8F00220B4B1A6085F3108870BD67
:102AA000A3680D4C5C50EFE7002461000919890010
:102AB0005B18FF21997109499980E5E70124F4E742
:102AC0000224F2E7240100D0807E0020AAAA0000A0
:102AD00000ED00E0F88E0020C101001001BDFFFFF5
:102AE000024BC918890001607047C046400000349D
:102AF00070B5114C114DAC420FD2FF262368002B4C
:102B00000CD0FFF71FFD01002000FFF7E9FFA680B2
:102B1000BFF35F8F0834AC42F0D370BDFFF712FDF6
:102B200001002000FFF7DCFF2671BFF35F8F083440
:102B3000AC42E3D3F1E7C046287F0020387F002075
:102B400010B50400FFF7FEFC01002000FFF7C8FFEE
:102B5000FF232371BFF35F8F10BDC04610B5040083
:102B60000120FFF7FBFC034BC01880002060BFF37F
:102B70005F8F10BD400000340A4B1968EFF31080DE
:102B800072B60A68002AFCD0BFF35F8F1B68BFF3E0
:102B90005F8F00221A6080F3108840BF0020002160
:102BA0007047C046E88E0020F0B5DE4657464E46D8
:102BB0004546E0B585B0EFF3058303221A40B34BD9
:102BC00091005F58012393409B4602925A468846E3
:102BD000AF4B1A60AF4B03935B46AF484363082388
:102BE000FE5E002E37DABB881BB2002B00DBA4E0B0
:102BF000BB79002B00D0E5E00823F95E002920DB3B
:102C00004B007A695B18DB00D3189D68DC686B1C8D
:102C100000D104E1A04801004144826A0B69AE1A68
:102C20009B1A9E4215D30123026A029883401A42DE
:102C30000FD0994800F050FB8C4202DCCCD1854289
:102C4000CAD940BF05B0F0BCBB46B246A946A046B3
:102C5000F0BD0D61EDE77A69730091469B19DB00C9
:102C600099444B469C68DD6800F036FB8D42BADC27
:102C700000D1F6E0002D00DADBE04A464B4652690F
:102C80001B699246039A934200D1CCE04A46082140
:102C9000785E528800045146104398470090019195
:102CA0000099019A0B00134300D1C2E013000A00FF
:102CB000002B00DBD9E020002900801A99414B4607
:102CC0009860D96000229B5E002B00DA8BE75D00E4
:102CD0007C69EA18D200A21800949468D268A246CF
:102CE0008A4200DD7FE702D1844200D97BE70824D5
:102CF000A4463B81BC44009C00972F006546B44627
:102D00003E0006E05E00F218D200A2189768D26872
:102D1000BA468A4207DC00D1B4E0F318DB00E518BC
:102D2000E35E002BEEDA66464A46009F13802E8053
:102D3000BB881BB2002B00DA5AE73A69EFF3108127
:102D400072B61368002BFCD0BFF35F8F0123BE88DF
:102D50005B42BB8036B23B69BFF35F8F00221A60D3
:102D600081F31088002E00DA42E73B0008333A0076
:102D700099467D6973009B190824115FDB00484662
:102D8000EB18002913DB9C680093A446DC6806E07E
:102D9000A34240D00023F95E3800002906DB4F0033
:102DA0007F18FF00EF19FB68A342F1DD009B06804E
:102DB00000201E5E1980002EDCDA1700BB79002B84
:102DC00000D119E70023BB710823F95E4B1C00D129
:102DD00037E73D000835AC467C6903E084464B1C70
:102DE00000D109E74B005B18DB00E0180A00E15E48
:102DF00043881BB2002BF1DA01256D42EE17856086
:102E0000C66008257B5F9342E9D0634619803B8901
:102E100003803A81E3E7BB686345BBD9C6E7631C1F
:102E200000D0F7E605E7534650461B69984700284F
:102E300023D14B461B883A693B81EFF3108372B66E
:102E400011680029FCD0BFF35F8F49467A880A8059
:102E50003A697E80BFF35F8F0021116083F3108891
:102E6000C1E6844200D805E7BDE60B4800F034FA1D
:102E7000009B019CC018614121E753460CCB009296
:102E800001930DE7824500D847E74CE7CC8E002040
:102E90003C700540B92900200040054070B52D4C1C
:102EA0002569002D04D00A212B48FFF719FE70BDBB
:102EB0002A4E0321294800F005FAE660FFF742FB9D
:102EC000274B0322C018D02322701B061B68012148
:102ED0006370244B8000A3600F2320610220638075
:102EE00063694942A18019800231198647311D83E7
:102EF000585218315A5275325C3999521832013190
:102F000099521832013199521832013199520835CB
:102F100018329D52023118329952183201319952A9
:102F20001832013199521832013199521832013157
:102F300099521832013199520B4B0C49DC60013027
:102F40003562FFF76BFB01210320FFF749FB084BBC
:102F50001D60A8E7C87E0020E88E002000400540E4
:102F600040000034FFFF1000CC8E0020B929002063
:102F70003860054070B582B000920193010002698B
:102F8000EFF3108472B61368002BFCD0BFF35F8F91
:102F90000223C85E0D6900283FDB4A694300160022
:102FA0001B18DB00D218F35A4B80BFF35F8F00234E
:102FB0002B6084F31088069B1361079B5361009B71
:102FC000019C9360D460538801335B045B0C1D1C2F
:102FD000002B20D0ACB20304558023430D69EFF3DE
:102FE000108C72B62C68002CFCD0BFF35F8F8C88DD
:102FF000148088800A69BFF35F8F002010608CF313
:1030000010880A7801309040CA6808495218106048
:10301000180002B070BD0125DCE7BFF35F8F00230D
:103020002B6084F31088013BF2E7C0463C2000008F
:1030300010B543890A1493421ADD53009B18426964
:10304000DB00D3180469EFF3108C72B62268002AF3
:10305000FCD0BFF35F8F5A88090494B2090C8A42EE
:1030600008D00369BFF35F8F00221A608CF31088C9
:10307000002010BD094A22435A800123026983714E
:10308000BFF35F8F002111608CF310880278044930
:103090009340C268012052181360EAE70080FFFFE6
:1030A0003C200000F0B5C64600B582B004000D001B
:1030B00000F01AF924184D41002D02DA01242F4D99
:1030C000644206267642F71736196F41AF4214D88C
:1030D00011D000F009F932003B00121A8B41002B8D
:1030E00015DC002B46D02000290000F007F902B0C3
:1030F00080BCB846F0BDA642EBD90026002700F000
:10310000F3F832003B00121A8B41002BE9DD00F08E
:10311000EBF832003B00121A8B41002B0ADB002334
:103120000193174B3200009316483B00FFF722FF34
:103130000130D8D000233900B0469C46124A1348CB
:10314000536A994204D8966A4645CCD29942CAD16C
:103150000668EFF3108772B63368002BFCD0BFF31C
:103160005F8F0368BFF35F8F66461E6087F310882A
:1031700020BFE5E7002AB6D0C9E7C046FFFFFF7FC2
:1031800089290020C87E002000400540E88E0020EC
:10319000F0B5CE46474680B504000D0085B0EFF38C
:1031A00005868946002E10D0364900204B6AAB4276
:1031B00006D38A6A5B1B591E8B41A24240411843C9
:1031C00005B0C0BCB946B046F0BD2F4FFB683A7899
:1031D00098461800039200F07FF8039A131D4246A8
:1031E0009B009B5822001B1A9C462B00121A8B41F5
:1031F0009E4210DC0DD020BF224A0020536A4B456E
:10320000DED3926A5B1B591E8B41A2424041184398
:10321000D6E79445EFD900F067F822002B00121A88
:103220008B41002B1BDB00230193184B22000093E2
:1032300038002B00FFF79EFE002810DD114B5A6A64
:103240004A451CD39B6AA34217D301003800FFF7FD
:10325000EFFE0C4A0020536A4B45B1D3D1E7094A2F
:103260000020536A4B45ABD30020926A5B1BA242FD
:1032700040415A1E93411843A2E74A45E5D120BF79
:10328000E3E7C04600400540C87E002089290020B1
:10329000036808499C464A6A43680020934207D85D
:1032A0009B1A5A1E93416246896A914240411843D3
:1032B0007047C046004005400CC001487047C046FA
:1032C000A130002010B5024A0248FFF7CFF810BD28
:1032D000187B0020D48900200300416A0A00986A04
:1032E000596A8A42FAD17047034B596A0A00986AB0
:1032F000596A9142FAD1704700400540064A536A24
:103300009942FCD807D1044B02E05A6A914202D19B
:103310009A6A9042F9D8704700400540F8B5DE46F9
:103320004E4645465746E0B505008B4618000A99BB
:10333000914600F00DFD0A9B6C001E026419304B93
:10334000A400E418636880469E4200D966602F1F7F
:10335000FBB29A46012B2FD9C0238022294FAD0002
:103360009B0179591201E3181A6000291BD14B46C1
:1033700022685B015340E022134080225201A218D0
:1033800013605346012B2FD9802380229B01E31821
:1033900012011A60434666607B51F0BCBB46B246E0
:1033A000A946A046F8BD786900F0D2FC0130430080
:1033B0001B18033BFDD2DAE75B46012BCCD1C023BF
:1033C00003229B01E3181A60023AA3681A42FCD058
:1033D0004A46236852015A40E0231340802252019A
:1033E000A218084F1360AD005846032321684140DE
:1033F0000B40136001228240A3681A42FCD0C3E74D
:1034000000800040D8890020F0B5D6464F46464699
:10341000440098462418324BA400E41863688A4696
:103420009146C0B5FF2B02D880235B006360061F66
:10343000F6B2012E2FD9C02380222A4F85009B018E
:1034400079591201E3181A6000291BD14B462268F2
:103450005B015340E022134080225201A218136006
:10346000012E30D9802380229B01E31812011A60BB
:1034700080235B00636043467B51E0BCBA46B146A3
:10348000A846F0BD786900F063FC013043001B18CA
:10349000033BFDD2DAE75346012BCCD1C0230322F4
:1034A0009B01E3181A60023AA3681A42FCD04A460C
:1034B000236852015A40E023134080225201A2188F
:1034C000084F1360850050460323216841400B409C
:1034D000136001228240A3681A42FCD0C2E7C046B2
:1034E00000800040D8890020014B8000C058704700
:1034F000D8890020F0B5C64600B55B4B15005A6868
:1035000084460F0082B0FF2A02D8802252005A60FF
:103510000322564B54481A60012382681342FCD0A0
:10352000202201685140C0320A4051490A600268B5
:103530004D485A40032313400B6002238268134214
:10354000FCD0802280264B4B12011A604A4C4B4B18
:10355000760046606246636101213B004848009561
:10356000E04600F0E5F929004046794300F0F0FB21
:10357000444B05005A68FF2A00D85E608022424B07
:1035800012011A602169002907D0606900F0E0FB90
:10359000013043001B18033BFDD2E023394A3B486E
:1035A00011680B40036002231168594001330B403E
:1035B0000421036093681942FCD08021344B090137
:1035C00019608021334B490051602361264B5A68B2
:1035D000FF2A00D8596003220121244B1A60224A95
:1035E00093681942FCD0E023106803402048036030
:1035F000126803234A40022113401B4A0360936868
:103600001942FCD080211B4B090119608021224BFB
:103610004900516065615A68FF2A00D859608022CC
:103620001E4B12011A60A169002907D0606900F0E1
:103630008FFB013043001B18033BFDD2402316498A
:103640000A685A40A0331340154A13608022154B74
:1036500012011A6080235B004B60084BA36102B02B
:1036600080BCB846F0BDC0463C8000403CB0004045
:103670003C9000403CA00040D8890020006CDC0257
:10368000008002403080004030B000403090004068
:1036900030A00040001BB7004880004048B0004008
:1036A0004890004048A00040F0B545468046A02024
:1036B00057464E46DE461C00984B400081469A46CF
:1036C000E0B585B0019102920394954B9A4509D9D2
:1036D00001235B429944934B9A444B460F2BF4D100
:1036E00000208EE00725904C54442F006F432000AB
:1036F000390000F02DFBAB466E1E404553D075439C
:10370000200029002F0000F023FB80455CD04346B9
:10371000751EA8461D005B46FF1A3900200000F008
:1037200017FB85425DD0B31E9846022E00D1BAE049
:103730005B46FF1A3900200000F00AFB854267D083
:10374000F31E9846032E69D05B46FF1A390020000D
:1037500000F0FEFA854200D176E0331F9846042E31
:1037600000D178E05B46FF1A3900200000F0F0FA43
:10377000854200D17EE0052E00D180E05B4620002E
:10378000F91AA84600F0E4FA06258045ADD10029D3
:10379000ABD1CA460199D946029A039C053D28E05F
:1037A0002B00454698463900200000F0D1FA002948
:1037B00000D1A4E06E1EAB467543200029002F0007
:1037C00000F0C6FA8045A2D13900200000F0C0FA0E
:1037D00000299CD1CA463500D9460199029A039C1A
:1037E00007E000299FD1CA464546D9460199029A69
:1037F000039C50464D4B43430B604B4601201360E6
:10380000256005B0F0BCBB46B246A946A046F0BD57
:103810000029E8D0F31E9846032E95D103230921F1
:1038200020000927984600F093FAA842B8D0032355
:10383000062120009B460226033F00F089FA8542BC
:1038400048D00123984666E70029CCD0331F98461C
:10385000042E00D086E723099D4256D00C27200075
:103860003900B346013E00F073FA854232D002239C
:10387000984650E70029B6D0052E00D07EE71921E2
:103880002000192700F064FA85422DD01421200071
:10389000053F00F05DFA854217D005239B46023BA9
:1038A0000426984637E7A846A1088D4214D061083F
:1038B0008D421CD0444500D00AE70123CA460125A9
:1038C00099460199029A039C93E70523A8469B46D3
:1038D000042679E7A84677E70223CA4602259946D7
:1038E0000199029A039C84E7A84605255BE7022319
:1038F000CA46012599460199029A039C79E7CA466E
:103900000199A946029A039C73E70423CA461D0045
:1039100099460199029A039C6BE7C04650262F00F6
:1039200050F80C0020D1FFFFB0710B00001BB70056
:10393000F0B5C646040000B52348160098460D00B1
:1039400000F006FA0100300000F002FA4346069A41
:103950001B04120313439C4623680600002B22DB42
:103960001A4B1B48E218531E9A4180235242120BF5
:103970009B011203D218174B1A60174B1A601300E1
:1039800001688B43FBD12122144B2560E318A6600C
:103990001A602268002AFCDA6246E26008221A6095
:1039A00080BCB846F0BD3F2322681340AB42D7D15C
:1039B000A3681B051B0D8342D2D1EE22E368D2021D
:1039C00013406345CCD1EBE7001BB7000040FDBFBF
:1039D00008C0004000E0004000F00040043000005B
:1039E0008023024A9B000B43D3627047008005404E
:1039F000002310B50100988A1B8B984710BDC04664
:103A0000162310B5010018885B88984710BDC04682
:103A1000F8B54746CE4680B50F1E18D014239946F8
:103A2000043304000025012698464B461888434677
:103A300021681B88984701C4431E98410135064000
:103A4000AF42F2D13000C0BCB946B046F8BD012645
:103A5000F8E7C046AA23064A1B0113602133FF334F
:103A6000D3600449044B19605368002BFCDA70479B
:103A70000040024000B0FA00006002407047C046BB
:103A800010B50148FEF7DAFC3C7B002070B5074D0D
:103A9000074EB54209D20024013E761BB608013616
:103AA00008CD01349847B442FAD170BD387F002068
:103AB000747F002070B5074D074EB54209D200242F
:103AC000013E761BB608013608CD01349847B44252
:103AD000FAD170BD6C7F0020747F0020054B064A30
:103AE00006491A60064A074B1A6010000B68984393
:103AF000FBD1704700E00040BFCDFBFE08C0004096
:103B0000FE7F3C0000F00040044BDB6C002B03D137
:103B10008022034BD2021A607047C0460000115049
:103B20004C201150044A054B1A60054A1368DB010A
:103B30008033FBD17047C046FFFFFF0100F000401B
:103B400008C000404022034B9A675A671A67DA663A
:103B50007047C04600F0014010B5FEF70FFD10BDE4
:103B600070B52849284D294E6D1AAC102200302C12
:103B700000D930223000920000F0A4FABC2D3DD8CC
:103B800023002A3B224A052B1DD9302075196D07C9
:103B9000A446001BEB0F002D03DA611C8C46A1002C
:103BA0007250C01AE3189B004108F318C900C918E5
:103BB0001A605A6008339942FAD1012303421DD09A
:103BC000984360440400A300F250631C2F2C15D0CE
:103BD0009B00F250A31C2E2C10D09B00F250E31C33
:103BE0002D2C0BD09B00F250231D2C2C06D09B00BB
:103BF000F250631D2B2C01D09B00F250054B9E60B0
:103C000070BDC04600010010C0010010000000207F
:103C1000C101001000ED00E0002310B5294C82B076
:103C2000A367FFF717FF0122274B1A60636C012B74
:103C3000FCD10322254B1A60224A936B012BFCD145
:103C4000013300930121224A22480433FFF770FE1A
:103C5000052301210093204A2048FFF769FE002236
:103C6000022104201E4BFFF7CFFB0022012105207B
:103C70001C4BFFF7C9FB0022002107201A4BFFF75E
:103C8000C3FB002200210820174BFFF7BDFB802358
:103C9000DB000093002200210920134BFFF73EFBBD
:103CA0000022104B00210620FFF7AEFB0420FFF797
:103CB0001BFC0E4900F04CF801000020FFF790FEBD
:103CC00002B010BD008000403CB0004030B0004069
:103CD000002F685900800240008C864700C00240D7
:103CE000001BB70040597307006CDC0240420F0014
:103CF00001480421014B1847E07E002021380020B4
:103D0000124A936F9B0815D29066D166002905D0A0
:103D1000FFE7FFE7FFE7516F106F704704B58021A1
:103D20000906C2175140002800D0C84302F04EFCDB
:103D3000002104BDF0B5146E556E576F166FFFF776
:103D4000E3FF1466556657671667F0BD000000D0A4
:103D5000114A936F9B0813D210665166002905D053
:103D6000FFE7FFE7FFE7516F106F704704B50028CA
:103D700001D00020C04302F029FC002104BDC04650
:103D8000F0B5146E556E576F166FFFF7E5FF1466AA
:103D9000556657671667F0BD000000D0132370B555
:103DA0001D78012D19D014DD1F48FFF729FE0600EC
:103DB0001E48FFF725FE1E4C80223100200000F037
:103DC00081F9022D2DD01B48FFF712FE1A4B186007
:103DD00070BD1A4B164CA364F5E7184B144C2360C6
:103DE0006360A360E36023616361A361E3612362B5
:103DF0006362A362E36223636363A363E363236495
:103E00006364A364E36423656365A365E365236674
:103E10006366A366E36623676367A367E367A364D8
:103E2000D1E7064BA364CEE753440000534600009D
:103E3000A08400204C330000E48E0020513C002080
:103E400007B5604601880A0A0230DF2AFAD1C9B2F2
:103E5000820804D3028840880004104300E0006810
:103E6000014A5050039007BDA084002051434343B2
:103E7000C9188C46110C83B24B4310B4040C614337
:103E800092B280B2504362431C041B0C001910BC58
:103E900059411304120CC01851416144704700008D
:103EA0004840414048400E4B5B6818470C4B1B682C
:103EB00018470C4A936F9B0802D2094BDB681847DE
:103EC000F0B5146E556E576F166FFFF7F6FF054A83
:103ED0001466556657671667F0BD014B9B68184717
:103EE000A0850020000000D007B548404140484070
:103EF00001E0C04607B54200120E03D0FF2A03D1ED
:103F0000420218D8C00DC0054A00120E03D0FF2A85
:103F100003D14A020FD8C90DC9050122414005D479
:103F2000414001D5814207BD884207BD0143491880
:103F300001D0C043001807BD00B5FFF7DBFF01D07B
:103F4000002000BD012000BDC10FC90700D54042BF
:103F5000002817D0F44603B40B4B1B68984706BCE7
:103F600081409E384042803107D20B0607D049007D
:103F7000490AC0051043084360470130F8E7490A81
:103F80008902F5E770470000E48E002041000A0E28
:103F900080231B067E2A0BDD9E3A0BDAC1174002F6
:103FA000400818435242D04049000131484370470D
:103FB00000207047C00FC01801387047C0420DD3B1
:103FC00000B540004008002100F012F8002801D49C
:103FD000404200BD8020000600BD0000034BDB69AD
:103FE000FC4618471CDFA13E00200000A0850020F1
:103FF000014B5B6A18470000A0850020132310B511
:104000001C781348FFF7FCFC012C0BD004DD0100E9
:104010008022104800F056F80F48FFF7E9FC0F4BDC
:10402000186010BD0B4C01005422200000F04AF82B
:104030000B4B6365A365E36523666366A366E3666E
:1040400023676367A367E3672362E361E4E7C0462E
:1040500053460000A08500204C330000E48E002071
:10406000753E002007B5604601880A0A0230DF2A43
:10407000FAD1C9B2820804D30288408800041043F0
:1040800000E00068014A5050039007BDA085002061
:104090000021C2158032803201D0024A1047002030
:1040A00070470000CD2A000001480421014B184749
:1040B000F07E002021380020014B1B6818470000CB
:1040C000F07E0020014B5B6818470000F07E002066
:1040D00010B5002800D110BD00F000F9FBE7C04684
:1040E00010B5094A0300146884B0002C08D00122DE
:1040F00000910648524203A9A047012004B010BD18
:1041000000F036F90020F9E7AC8E0020E13E0020F7
:1041100000BEFDE710B5FFF7FBFFC04670B5FFF727
:10412000B5FC074D074EB54209D20024013E761B6F
:10413000B608013608CD01349847B442FAD170BDB3
:10414000747F0020807F0020030010B5080011005C
:104150001B68984710BDC046F8B5437D07000D00A9
:104160001600002B38D0002A1ADD0B780A2B18D045
:104170000020012E09D0012421006B5C01340A2BA0
:104180001AD0B442F8D1864203DD311A3B682818B0
:104190009847AD19013D2B780D3B5A4253413B7571
:1041A000F8BD037D002BE3D102210E483B68984700
:1041B000012EEED00120DEE76B1E5B5C0D2BE0D004
:1041C000884203DA091A3B682818984705480221F3
:1041D0003B6898472000D4E70368110028009847FF
:1041E000DEE7C046807D0020F0B54646D6464F4605
:1041F000C0B582B090461C0006000D00FFF774F8B1
:1042000000232F4A12184B41002B02DA01222D4BBA
:1042100052422D4908008A4602F016FE81466B1C68
:1042200003D1300002F0D4F90500002C27D0274F2D
:10423000274B1C68002C18D04346002B21D1254B5E
:10424000984602E02469002C0FD02368002BF9D097
:1042500043461B68002B01D09C42F3D120002A006A
:104260003100B8472469002CEFD14B46002B23D1F5
:10427000280002B0E0BCBA46B146A846F0BD164FD1
:10428000D6E7144B984602E02469002CEDD0236851
:10429000002BF9D043461B68002B01D0A342F3D179
:1042A0002A0031002000B8476B460A222000DA714C
:1042B000D91D093AB847E7E7504602F057FED7E75D
:1042C00040420F00FFFFFF7F307F0020693F00204A
:1042D000408A0020488A0020593F0020F0B5CE4691
:1042E000474680B583B06B460600DD1D2870FEF79B
:1042F000FBFF0023194A12184B41002B02DA01225E
:10430000174B524217490800894602F09DFD164B93
:1043100080461C68002C14D0144F02E02469002C45
:104320000FD02368002BF9D03B68002B01D09C42B2
:10433000F4D1200001222900FFF70EFF2469002C90
:10434000EFD14346002B05D1300003B0C0BCB946C5
:10435000B046F0BD484602F009FEF5E740420F00C6
:10436000FFFFFF7F307F0020408A0020488A002026
:1043700070B5040002F02CF90123010005000122B0
:104380002000FFF731FF084B1C68002C06D0636843
:10439000002B05D098472469002CF8D1280070BD67
:1043A0002469002CF3D1F9E7408A002010B50248B7
:1043B00000F00CF810BDC046DC8E002010B50822BD
:1043C0000149FFF77FFE10BDDC8E002010B588B0DC
:1043D00004000D2200216846FFF76EFE0D22002129
:1043E00004A8FFF769FE4B236A466846137004A9C8
:1043F0000D2202F029FE1521082220006944FFF752
:1044000061FE08B010BDC04603BDC04610B5040033
:10441000FFF750FBA04710BDF0B5C64600B504003D
:1044200086B00F200D001700FEF7ECF80021804643
:104430000F20FEF7D5F80023009301930133029378
:10444000D023049505946E46002400250121022006
:1044500003971B06002C13D01A6D1042FCD05C652C
:1044600040BF1A6D114203D120BF1A6D1142FBD01B
:104470009A6DA24209D00025AA00B458EAE79A6DC5
:104480001A6D1142FBD140BFE6E70135062DF3D18D
:1044900041460F20FEF7A4F806B080BCB846F0BD38
:1044A0000E4B0F4A10B50400934211D30D4A9918D0
:1044B0001A000D48806884460A481450043013508E
:1044C0000A4B0B48135062460A48FFF7A5FF10BD80
:1044D00001235B421A000849EBE7C04600080420AC
:1044E00000000420F407000000ED00E01D42002061
:1044F000FC07000019420020F3070000F8B500F0A7
:1045000047F90C23194DFF22AB6705201849FEF728
:10451000AFF8184C402200212000FFF7CDFD4027C6
:10452000002301262121144A66702783A2601360AC
:1045300063545F31618445396354104A10496360A4
:10454000E2602787A1620B606362E26202F00EFE06
:1045500080239B052E64EB6490230A4A0120EA50D5
:104560008022094B5202DA64F8BDC04600001150A7
:104570006D700020AC8A00208400105000011050A3
:104580008000105010D001000020115010B5012102
:104590000520FEF725F810BD10B5002200210248C5
:1045A00000F016F910BDC046CC8A0020044B1970EB
:1045B000002904D080219023024A8902D1507047FB
:1045C000EF8E0020002011500B785B0600D0704762
:1045D0004B78052BFBD18A78014B1A60F7E7C04670
:1045E00000001150F8B5CE464746C87880B5800720
:1045F000830F1800012B61D08B780A799C464B7988
:104600007F211B0213435B055E0D63461940DC09E5
:104610004B001A191F0063462F4D5201AA189370C0
:1046200001236340537000231683D370D076B146C4
:10463000CA00012C31D0294E92198E01B446AC44E7
:104640006646B2601360002931D0254BC900C918F5
:1046500071604B463F339B09022836D09B012148AD
:1046600039190268490169180E00CA601E49D31839
:1046700003608B422BD83B195B01ED18EB7E1B4985
:104680009B064A4013438022120613436A68136054
:104690000120C0BCB946B046F8BD154E92198E0136
:1046A000B446AC446646B2621360002908D10023C8
:1046B00064012C1963600F4BE360E9E70020E8E731
:1046C0000A4BC900C9187162C3E7DB01C7E7FFF7EE
:1046D000D7F9F268CFE7C046AC8A002084001050BA
:1046E00004001050B08E0020FF0F1050000010503A
:1046F000800010500001105010B502F037FD10BDC1
:104700007F2010B508404000C90940181100044A34
:10471000400180181A0000F05BF8012010BDC0466F
:10472000AC8A00207F23180000B5084083B00B42FC
:1047300004D14B424B41084A013393668022C90998
:104740004000064B401840010021C018120103F040
:104750001BF903B000BDC04600201150AC8A0020F8
:104760007F22130010B50B400A4200D110BDC909C9
:104770005B005B1804485B01C0180023002203495A
:10478000C37003F001F9F1E7AC8A0020FFF7FFFFE7
:1047900080220A4B520410B51A60094B09491A606D
:1047A00010000B689843FBD180220021520106487B
:1047B000FFF782FC0922054B5A6710BD00E000405C
:1047C00000F0004008C000400000105000001150F0
:1047D000002310B5C3820133828283760161040015
:1047E00003F0A0F8002804D080219023074A890212
:1047F000D150200003F0AAF8002802D0012323772B
:1048000010BD200003F0E8F8FAE7C0460020115080
:10481000002070477047C0467047C0460020704770
:1048200000207047002070477047C0467047C04660
:104830007047C0467047C046F0B5D6464F4646461C
:10484000C0B52C4B814698461B788A46FF2B4BD12E
:1048500000293BD0002154222748FFF72DFC0022DD
:10486000264C274B20001A70FEF76AF9254B1C6076
:10487000254C2000143CFEF771F9200001F0A6FB46
:10488000224B234D1C60234B002B04D0280000E05A
:1048900000BF214B186000242B78204F1E4E0DE0E6
:1048A000336862019B18002B10D05B68002B0DD081
:1048B000984701342B78E4B2A34209D3A342EFD83E
:1048C000E31A5B01DB195B68002BF1D100200CE0DF
:1048D00042464B46514648461370FFF70FFE0028EC
:1048E000F4D04846FFF752FE0120E0BCBA46B1467C
:1048F000A846F0BD1C7F0020B4870020AC870020B4
:10490000F08E002008880020147F00200C880020F2
:10491000EE8E002000000000D08600202C7E0020BB
:10492000F0B5DE4657464E464546E0B5C84B91B019
:1049300003931B78FF2B00D142E1C64BC64E1F00EC
:10494000C64B0DAC0293C64B019335686A69EFF311
:10495000108172B61368002BFCD0BFF35F8FA96182
:104960002800210001F068F96A69AB69BFF35F8F25
:104970000021116083F31088002800D120E16378C2
:10498000082BE2D89B00FB589F466368002BDCD0C5
:10499000A0689847D9E77F222179B04D0A4053009B
:1049A000EB189846C8098044404601233030057909
:1049B0009D430571057903339D430571002A00D19C
:1049C00005E14346A74A1B7D1278934200D3F5E0E8
:1049D000A54A5B011568ED18002D00D1F0E0A36831
:1049E00062792078AD69A847AFE7A04B1A78002A12
:1049F00000D1E5E01A78013A1A701B78002BA4D197
:104A00000122964D01212B78042013432B7034236F
:104A1000EA5C8A43EA54EA5C8243EA540133EA5C82
:104A20008A43EA54EA5C8243EA54237800209B4696
:104A300000F03CFC602223791A40602A00D1F1E0AA
:104A4000402A00D1F7E0DB06DB0E012B00D115E197
:104A5000022B00D1CAE0002B00D0E3E0202A00D1D5
:104A600011E2002A00D0DDE06379092B00D9D9E0FA
:104A70007F4A9B00D3589F46784D2B78DB0700D4A4
:104A800063E7FFF7D7FE60E7029BDB78DB0700D424
:104A90005BE76068FFF7C0FE57E7704D2B78DB07D8
:104AA00000D452E728780007C00FFFF7C1FE4CE79B
:104AB00023786B4A994693466A4B6B4A98469246CE
:104AC0003A00002547461B78B0464E4691460EE018
:104AD00053461B686A019B18002B00D17DE0DB6800
:104AE0003000984701353B78EDB2AB420CD3AB4276
:104AF000EED8EB1A5B015B44DB6830009847013568
:104B00003B78EDB2AB42F2D2544D54220021280042
:104B1000FFF7D2FA1022FF21281DFFF7CDFA280057
:104B20002022FF21143046464F46FFF7C5FA00F019
:104B3000B3FB2379AB7008E723784B4A9946494B7E
:104B4000924698463200BB464E460025474691465F
:104B50001B780DE053461B686A019B18002B40D060
:104B6000DB683000984701353B78EDB2AB420DD39E
:104B70009D42EFD3019AEB1A5B01D318DB6830003A
:104B8000984701353B78EDB2AB42F1D2029D5422F9
:104B900000212800FFF790FA1022FF213548FFF787
:104BA0008BFA28002022FF2114304E465F46FFF783
:104BB00083FA00F071FBFFF739FEC6E6934213D08B
:104BC00011B0F0BCBB46B246A946A046F0BDA368F2
:104BD0006279207800F07EFBB7E646464F461F4DCF
:104BE000A5E74E465F46E4E71D4DF8E67023217ABF
:104BF0000B4217D1C80982460F330B405B00984621
:104C00001848EB1853441B7D0078834264D2164841
:104C10005B01006881469944002A00D155E14B466A
:104C2000002B61D120780021FFF77CFD80212078C6
:104C3000FFF778FD89E6104800F038FB012158465F
:104C40000EAAFFF7E5FD002800D07EE6EAE7C046A1
:104C50001C7F0020847D00200C880020B487002069
:104C60002C7E0020EE8E0020D0860020F08E0020CA
:104C7000A87D0020B887002021460020237A2289C1
:104C80000F2BCFD8FF231340D14AEB181B79127892
:104C9000934234D3C6D1CF4D686900F007FB0121A0
:104CA00058466B690EAA9847002800D04DE660224E
:104CB000150023791D401A42B4D163790A3B012BB8
:104CC000B0D800F0F3FA63790A2B00D18AE1584694
:104CD0000EA900F07BFA38E6834200D0F0E0BD4B2D
:104CE0009946002A00D1F0E04B46586900F0DEFA00
:104CF0004B46012158465B690EAA9847A3E7B64A7E
:104D00005B011568ED18002DC6D18BE7A379994694
:104D10006B789945DBD06B78002B00D02CE14B46AB
:104D20006B70002B00D124E148460138C0B2FDF77A
:104D3000DFFA002800D174E143780793022B00D0FA
:104D40006FE10122C179B1468B11491113400A402C
:104D5000302112015B0113432A78A8468A4313438A
:104D60002B7009239A4682445646BA46C378827805
:104D70001B021343C3180593954B0493954B08935B
:104D8000954B0993954B0A93059BB34200D84BE191
:104D9000737801220B2B03D13378F278F6187378ED
:104DA000042B00D03AE1059B00279B1B9BB2069386
:104DB000049B0B921D7819E0099A7B011568ED1888
:104DC000002D00D12AE1310058462B69069A9847F8
:104DD0008446082803D9069A824200D30BE1049B3B
:104DE00001371D78FFB2BD4200D217E1BD42E3D8C2
:104DF000089B7D1B6D015D19E5E76B780CAA0232FB
:104E00001370584601230EA900F0F6F99DE5E088DD
:104E1000030AC0B20F2B00D904E771499A008A58DF
:104E200097460EA800F048FA5846A179FFF7B4FB60
:104E300002222B7813432B7087E5E388012B00D0E7
:104E4000F0E608222B78584693430EA92B7000F009
:104E5000BDF97AE5022029780CAB9A1C8B068908EB
:104E6000DB0F01400B431380584602230EA900F0CC
:104E7000C3F96AE5E388012B00D0D3E608222B783A
:104E800013432B7023E7237A22890F2B00D9C9E61D
:104E9000FF2313404E4AEB181B791278934228D215
:104EA0004D4A5B011568ED18002D00D1BAE668691E
:104EB00000F0FCF9012158466B690EAA9847C2E63A
:104EC000002A00D0AEE60023994662790220130042
:104ED00004928343012B11D0002A00D0A2E62B00BC
:104EE0004344534430331B790CAA9B07DB0F023237
:104EF000B9E7934200D095E6364DD8E7E388002B1A
:104F000012D1039B1878049B012B23D0FFF70AFCD6
:104F100043460221EB18534430331A790A430121E6
:104F20001A711A790A431A714B46002B00D10CE50D
:104F3000586900F0BBF94B4601215B690EAA58463F
:104F40009847002000F0B2F93523EB5CDB0700D571
:104F5000FBE4BCE6FFF704FC43460221EB18534494
:104F600030331A798A431A711A7904998A431A716B
:104F7000DAE7FFF75BFCAAE600215846FFF716FBCD
:104F80005846FFF7B9FB00229246124AAB780592C9
:104F9000114A049306922A000D4B554698469246B4
:104FA0001B780EE0069B6A011B689B18002B54D0EF
:104FB000DB6858469847434601351B78EDB2AB4253
:104FC00037D3AB42EED8059AEB1A5B01D318EFE763
:104FD000EE8E00202C7E0020D0860020C887002086
:104FE000D07D00200CAB9A1C584601230EA91570E9
:104FF00000F002F9A9E40B9A012A4CD0002A3CD017
:105000000023B07804E00133DBB20F71934234D255
:10501000C118C9B241440D79FF2DF4D04E46454622
:10502000574600236B70FDE54E465746FFF7FCFBE5
:105030004DE65546542200212800FFF73DF8102286
:10504000FF21281DFFF738F828002022FF21143007
:10505000FFF732F8049BAB7061E65546FAE7FFF7BD
:10506000DDFB021E00D1DDE5D37891781B020B43F6
:1050700058460EA900F0C0F8E5E565463B00310052
:105080002A000A9800F05CFD049B76191B78BB424D
:1050900000D379E6C2E7174B29699942B0D1079A44
:1050A000AEE7FFF7BDFB021E00D1BBE55846137803
:1050B0000EA900F0A1F8C6E52189FDF71DF9021E31
:1050C000F4D1AFE5022B0FD0FFF7ACFB021ECBD122
:1050D000A8E5FDF709F9021E00D1A3E51223584601
:1050E0000EA900F089F8AEE5FDF702F9021EBBD16A
:1050F00098E5C046E5550020702270B58B780C000D
:105100001A4201D0002070BD064B20001D78064BCE
:10511000997800F0DBFC0028F4D021002800FFF78C
:1051200061FAF0E71C7F0020B48700207F20074B46
:1051300010B51A680840CB0934334000C018044B3E
:105140001100C01800F07EFC10BDC0460888002089
:10515000B48700207F20074B10B51A680840CB09A0
:1051600034334000C018044B1100C01800F092FC0A
:1051700010BDC04608880020B487002070B57F2489
:10518000C80984460C400F48640004196444303454
:105190002079C00701D5002070BD0B48012500789B
:1051A00084462079284320716046FFF7A9FA002839
:1051B000F2D101222379934323712379033293435C
:1051C0002371E8E7B48700201C7F002070B5094CEC
:1051D0000600082220000D00FEF774FF0023802146
:1051E000E360A3602B783000994300220023FFF78F
:1051F000C5FF70BD14870020F0B5C646244C1700CB
:1052000080460822200000B50D001E00FEF75AFF60
:105210000023A760E381EB79AA791B0213431A1CD0
:10522000B34200D9321C96B2A281002B0CD0002EC2
:1052300015D0002F2AD0402E1AD8237896B27F2B73
:105240001BD80021134A0EE080212B7800229943BD
:1052500040460023FFF792FF80BCB846F0BD7F2395
:1052600000222178994333004046FFF787FFF3E798
:105270004022237896B27F2BE3D9064C32003900C6
:105280002000FEF71FFF80212200ECE70020E3E76B
:1052900014870020D486002010B514220021024873
:1052A000FEF70AFF10BDC04614870020014B1861AD
:1052B0007047C0461487002010B5054C0100082235
:1052C0002000FEF7FFFE0023A360E36010BDC04690
:1052D0001487002070B5374C1D0023780600DA09CA
:1052E000C9098A4210D00020002D00D070BD2100D5
:1052F0003000FFF769F92369002B03D02200032156
:10530000300098470120F1E77F2B06D8A0680028DD
:10531000ECD02A002849FEF7D5FEE289A16852198F
:10532000E38892B24919E281A160934214D03F2DE3
:1053300012D9A389981A051C80B2402828D8207851
:10534000ADB27F2826D800219A4230D01A4A2B00CD
:105350003000FFF713FFC9E72369002B05D02200B7
:10536000022130009847002808D0802123780022AD
:10537000994330000023FFF701FFB7E70021300019
:10538000FFF7D0F930008021FFF7CCF90120ADE71D
:105390004025D4E79A4207D0074C2A002000FEF7A8
:1053A00091FE80212200D2E780210022CFE7002257
:1053B000CDE7C04614870020D4860020F8B5C82465
:1053C00044432500144E2435AD190700280000F091
:1053D00007FC002801D10020F8BD361900207178A3
:1053E000FFF7A4FE0028F6D00C4BFC01E4182100C6
:1053F0002800402200F06EFC7178051E08D00300E2
:1054000022000020FFF7BAFE0028E4D02800E3E7DE
:105410000020FFF79FFEDEE7807F00202887002026
:1054200070B5C82545432800054C1030001900F020
:10543000D7FB6419A37B627B9B1ADBB2181870BD83
:10544000807F0020F0B557464546DE464E46E0B523
:1054500083B090461F1E019054D0C82343431A00C6
:105460003D4E0932B21892461A001032B218F618A0
:10547000002393469946B47B01E0002F44D0002CD2
:105480001DD0717B641ABC4200D93C00FF25254029
:10549000BD4237D8013140462A005144FEF712FE82
:1054A000737BA9441B19B47BDBB27373A8447F1BC5
:1054B000A342E2D100237373B373002F24D0B378D7
:1054C000002B21D004225146584600F003FC040072
:1054D000584600F09BFB3F2821D8042C14D10F2301
:1054E000727A13400122110099400B001B490B42B4
:1054F0002AD10321194205D1194803420CD00124B5
:10550000B273BEE700239946484603B0F0BCBB46E1
:10551000B246A946A046F0BD0324B173B1E700200E
:10552000B178FFF703FE0028D7D0584600F06EFB95
:10553000B1783F280CD9019B0A4ADB019A18002058
:105540004023FFF71BFEC8E702230224B37398E74A
:105550000020FFF7FFFDC0E7807F002044300000FF
:105560002080000068870020F0B5DE464E464546A4
:105570005746E0B51E00C82343438B466849904612
:10558000CC18627885B001900091002A00D19EE08D
:10559000002E53D01F002437CF19B24600253E00FD
:1055A0000333CA1803930292300000F02FFB032844
:1055B00000D88EE043465A5DE3790135002B2AD1AD
:1055C0000221E0780F33E17122710340042B48D0AF
:1055D0009E2301271009DB01C340BC461F40B9468A
:1055E00067461F4236D103000C3B012B68D90F28B8
:1055F00000D174E05B460F221B011343E3704B465E
:105600006371A371C823019A02205343009AD318EF
:1056100002221A723FE0032B14D8E118CA70E17815
:10562000581C0F000F21C0B2E0713940042928D066
:10563000237A83422DD0AA45B6D156460198FFF76A
:10564000BDFE3500280005B0F0BCBB46B246A946F9
:10565000A046F0BD5B461B010343E37004232372A5
:10566000E9E7F72AFBD15B4605221B011343E370F0
:10567000C823019A02205343009AD31802221A72B7
:1056800009E0F72AD4D15A46043312011343E370D8
:105690002072042809D00422039B121AC018009B10
:1056A0000021D2B21818FEF707FD0422300002993B
:1056B00000F0D8FB00232372E3710428BBD0C1E7BC
:1056C0005B461B010343E37003232372B3E700250A
:1056D000B8E72E000198FFF771FE3500B2E7F02A17
:1056E00008D013008B43F12B17D0F22A12D00522D9
:1056F000022101E004220421C823019843430098B9
:10570000C3185846000102431972DA70022992D177
:105710000220C0E703220421EEE702220321EBE787
:10572000807F0020F0B5154C83B0C82200212000F6
:10573000FEF7C2FC00252100200001234022383161
:105740000095103000F016FA2700210020002600F6
:10575000012340227831B8370095243000F00AFA4E
:10576000C0363800FDF7ECF93000FDF7E9F9E561E6
:1057700027622663656303B0F0BDC046807F0020CA
:105780000A4B196B1A6A00290CD0002A07D0002294
:10579000DA615A631A6300221A62012070475A6361
:1057A0001A63FAE7002AF8D0D961F4E7807F002075
:1057B00010B5074C102200212000FEF77DFC2000D0
:1057C000103000F003FC2000243000F0FFFB10BD7F
:1057D000807F0020F0B54646D6464F46C0B54B798F
:1057E00080461500012B02D18B79012B06D00024B5
:1057F0002000E0BCBA46B146A846F0BDCB79002BEC
:10580000F5D10B78CE187278242A07D009E03278C7
:10581000B618D31872789BB2242A02D19D42F6D2D0
:10582000E5E7042AE3D17279012AE0D1B279032AAB
:10583000DDD1F279002ADAD12C494A788A46002A49
:10584000D5D18A789146002AD1D15146B2780A70D2
:1058500032783179D3189CB2002925D0B71807E0E7
:10586000BC463A78141994446746A4B249451BD9FA
:10587000A54219D37B78052BF2D139004046FFF7BA
:105880003BFC0028B3D0BB78DA09012A26D0524667
:105890009370BC463B7831799C441C194B460133CC
:1058A000DBB267469946DBE7114D280000F0AEF900
:1058B0003F289DD92E00103E0020B178FFF736FC1E
:1058C000002895D0280000F0A1F9B1783F2808D928
:1058D0004023084A0020FFF751FC89E752465370E5
:1058E000D7E70020FFF736FC82E7C046807F002024
:1058F000907F00206887002000207047F8B5384C62
:105900000700A0781E0088422CD06078884201D021
:105910000020F8BD334800F063F900280BD1314C6A
:10592000200000F05DF9002803D1002E01D0B3065D
:105930003FD00120EDE700206178FFF7F7FB00285A
:10594000EDD029494022274800F0C4F961780028A9
:1059500043D00300244A0020FFF710FC0028DED0CB
:105960000120D6E7200021499AB210300D0000F046
:1059700079FA1F4B002B02D0002000E000BF1D4829
:1059800000F044F93F28D4D9154B00209978FFF74F
:10599000CDFB0028CDD0174800F038F9104B99788E
:1059A0003F2815D940232A000020FFF7E7FB0120FC
:1059B000AFE7243C38006178FFF7B8FB0028B8D087
:1059C000002338001A006178FFF7D8FB0120A0E718
:1059D0000020FFF7BFFB01209BE7FFF7BBFB9EE723
:1059E000807F0020A47F0020288700206887002077
:1059F00000000000907F002000B5030083B0002964
:105A000010D00020012B07D80A78002A04D00C48B7
:105A1000C2540120012A01D003B000BD1800FEF7D6
:105A20000BFFF9E701236A46002001A99380FEF7E6
:105A300003FF0028F0D00122014B1A70ECE7C046AA
:105A4000A887002070B5040023780800DB070E004B
:105A5000DD0F002B16D123785B0701D5280070BD20
:105A60000121494201F03CFA2378DB07DD0F002BCE
:105A70000AD123785B0708D4042223780125134335
:105A8000237002E00025E9E70025300001F06EFAFE
:105A9000E4E7C04670B50D0001210400494228002A
:105AA00001F01EFA23785B07DE0F002B04DB2800D1
:105AB00001F05CFA300070BD2378DB0704D40422C7
:105AC000237893432370F2E70026F0E743790279C5
:105AD0001B021343C2785B0592075B0D920F022AEB
