:020000041000EA
:1000000000B5324B212058609868022188439860DF
:10001000D860186158612E4B002199600221596106
:100020000121F02299502B49196001219960352056
:1000300000F044F80222904214D00621196600F024
:1000400034F8196E01211966002018661A6600F04E
:100050002CF8196E196E196E052000F02FF8012189
:100060000842F9D1002199601B49196000215960AB
:100070001A491B48016001219960EB211966A021F2
:10008000196600F012F800219960164914480160C1
:100090000121996001BC002800D000471248134993
:1000A000086003C880F30888084703B5996A0420EC
:1000B0000142FBD001200142F8D103BD02B5186610
:1000C0001866FFF7F2FF186E186E02BD00000240BE
:1000D000000000180000070000035F00212200005C
:1000E000F4000018222000A00001001008ED00E03C
:1000F00000000000000000000000000074B24E7A12
:1001000000200420F7010010C3010010C5010010F9
:10011000C1010010C1010010C1010010C101001097
:10012000C1010010C1010010C1010010C701001081
:10013000C1010010C1010010C9010010CB01001065
:10014000CD010010CD010010CD010010CD01001037
:10015000CD010010CD010010CD010010CD01001027
:10016000CD010010CD010010CD010010CD01001017
:10017000CD010010CD010010CD010010CD01001007
:10018000CD010010CD010010CD010010CD010010F7
:10019000CD010010CD010010CD010010CD010010E7
:1001A000CD010010CD010010CD010010CD010010D7
:1001B000CD010010CD010010CD010010CD010010C7
:1001C00000BE00BE00BE00BE00BE00BEEFF3058054
:1001D000103800BEF2EB887148D9051074D90510AB
:1001E0003802001090A31AE71E481F49086006C88D
:1001F00081F3088810471D480068002801D019487D
:10020000F3E70DA40ECC002902D000F012F8F9E7B4
:100210001749184A002000E001C19142FCD116495B
:100220008847164988471649884700BEFDE701C937
:1002300001C29A42FBD3704774D90510C000002058
:10024000881900203CF20510000004200000042062
:100250003CF20510001004200010042000000000F3
:10026000704700000000000008ED00E0000000D032
:1002700088190020AC340020C1BA0010753C001071
:1002800081BA0010F8B5C04606480749091A8B1014
:10029000C90FC91810B5491003D0044B002B00D06A
:1002A000984710BD88190020881900200000000020
:1002B000054B10B5002B03D00449054800E000BFF2
:1002C000FFF7E2FF10BDC046000000002030002014
:1002D000DC3F041010B50121040011F0DBFC0138F3
:1002E00004F09CFD011C20000FF018FB012010BD44
:1002F00010B5012111F0CEFC034B010018000BF0EA
:1003000081FE002010BDC046E03F041010B5012161
:10031000040011F0BFFC104B1B68002B12D0421ED2
:10032000012A0FD8012813D0F622985A00B209F0FA
:10033000E1F80A4909F07BF8E821890509F077F826
:10034000011C00E0002120000FF0E8FA012010BDA0
:10035000F422985A00B2EAE7C41E00200000C04010
:1003600010B50121040011F095FC2100013804F0C2
:1003700071F90321200049420EF020FD002010BD3C
:1003800070B50121040011F085FC02210500200058
:1003900011F080FC0100681E04F08EF9032120009A
:1003A00049420EF00BFD002070BDC04670B5012122
:1003B000040011F06FFC02210500494220000EF0FC
:1003C000FDFC681E04F00CFA010020000FF0AEFAEC
:1003D000012070BD074B10B51B68002B06D05933A8
:1003E000FF3319680FF0A2FA012010BD00210FF0B1
:1003F0009DFAF9E7C41E002010B50121040011F098
:1004000049FC013804F004FA0221200049420EF0B0
:10041000D5FC002010BDC04670B50121040011F0CC
:1004200039FC02210500200011F034FC03210600F4
:10043000200011F0F7FB3100021C681E04F0F4F9F3
:100440000421200049420EF0B9FC002070BDC046D6
:1004500070B50121040011F01DFC022105002000EF
:1004600011F018FC0100681E04F0F0F90321051CCE
:10047000494220000EF0A2FC2000291C0FF04EFA89
:10048000012070BD70B50121040011F003FC0221B0
:100490000500200011F0C6FB041C681EC0B205F068
:1004A0005BF800280CD0221C064905F0A1F8201C9E
:1004B00009F090F802000B00034829000BF0A2FDA0
:1004C000002070BDCD0400101C40041070B5134A0C
:1004D00086B013680600013313600D1C082200214A
:1004E00004A809F07FFD0E4B01AC01930123666067
:1004F0002373A56006F0A8FD00290AD0FA22002384
:10050000920007F01BFF2061200005F007FC06B0F9
:1005100070BDFA21890007F0D3FEF4E7D81E002051
:100520001D1A001070B5194A86B013680400013313
:100530000D1C136007280BD8FC21281C890508F026
:10054000C3FF431E9841124B1A57824217D01855C9
:100550000822002104A809F045FD0E4B01AE0193CD
:100560007460B56006F070FD00290AD0FA220023FD
:10057000920007F0E3FE3061300005F0CFFB06B0DB
:1005800070BDFA21890007F09BFEF4E7D41E00201D
:10059000401000206D18001010B5040006F054FD46
:1005A000002912D0FA220023920007F0C7FE08F0BB
:1005B00065F90022074B08F0D0F808F0E3F9011CB8
:1005C00020000FF0ABF9012010BDFA21890007F0DF
:1005D00077FEECE700408F40F0B5DE4657464E46CA
:1005E00045460400E0B52D4887B00BF00BFD012116
:1005F000200011F04FFB02210500200011F012FB3A
:1006000003218146200011F00DFB002282460421C7
:10061000200011F0CBFA0400484608F0DBFF0490FC
:100620000591504608F0D6FF049A059B06000F007E
:100630001B4829000096019702940BF0E3FC681E0A
:10064000C0B204F089FF8046002821D0200004F0C9
:1006500097FF834621005A4612480BF0D3FC5B46B5
:100660004A46404610490093534604F0D9FF049A85
:10067000059B2900009601970C4802940BF0C2FCE0
:10068000002007B0F0BCBB46B246A946A046F0BD6C
:10069000290007480BF0B6FCF2E7C04644400410BE
:1006A0006C400410A440041025050010CC40041038
:1006B00004410410F0B5CE46474680B5012185B00F
:1006C000040011F0E7FA02210500200011F0AAFA57
:1006D0000321061C200011F0A5FA04218046200009
:1006E00011F0A0FA8146681EC0B204F035FF002860
:1006F0001CD001234246104900934B4604F090FF62
:10070000301C08F067FF060048460F0008F062FF43
:1007100002900391404608F05DFF084C0090019163
:1007200032003B00290020000BF06CFC002005B0DB
:10073000C0BCB946B046F0BD250500102C410410E0
:10074000F0B5CE46474680B5012193B0040011F0C4
:10075000A1FA0221804620000EF07CFC052808D07A
:1007600025480BF04FFC002013B0C0BCB946B04682
:10077000F0BD0321200011F055FA0221814620002E
:100780000EF0BCFF0700102831DC002815DD012524
:1007900002AE2A00022120000FF01AFB01210022E4
:1007A000494220000EF074FE022101C64942200099
:1007B00001350EF003FBAF42EBDA4346581EC0B2E0
:1007C00004F0CAFE0028CED04B4602AA00930B4983
:1007D0003B0005F067F8484608F0FCFE084C009026
:1007E00001913A00414620000BF00CFCBBE71027BA
:1007F0000028CCDCE1E7C04668410410B5110010C8
:1008000094410410F0B5C64600B5012194B004002F
:1008100011F040FA0221060020000EF01BFC002718
:1008200005282CD00321200011F0FCF90421051C1F
:10083000200011F0F7F98046701EC0B204F08CFE63
:10084000002817D0434604AA2049019300953B0095
:1008500004F004FF404608F0BDFE02900391281CFE
:1008600008F0B8FE1A4C009001913A0031002000C7
:100870000BF0C8FB002014B080BCB846F0BD0221CC
:1008800020000EF03BFF070010281BDC0028C9DD0C
:1008900004AB984601252A00022120000FF098FAA7
:1008A00001210022494220000EF0F2FD43460221C0
:1008B00001C349422000013598460EF07FFAAF424D
:1008C000E9DAAFE710270028E2DCABE7B51100104A
:1008D000C441041070B50121040011F0DBF90221BC
:1008E0000500200011F09EF9041C681EC0B204F03F
:1008F00033FE00280CD0221C064905F027F8201CE6
:1009000008F068FE02000B00034829000BF07AFB98
:10091000002070BDB511001000420410F0B5C646AD
:1009200000B5012182B0040011F0B4F902210500E4
:10093000200011F077F90321061C200011F072F954
:100940008046681EC0B204F007FE002815D0321C95
:1009500043460C4905F030F8301C08F03BFE060019
:1009600040460F0008F036FE074C0090019132001F
:100970003B00290020000BF045FB002002B080BCAA
:10098000B846F0BDB51100102842041070B5012121
:10099000040011F07FF902210500200011F042F956
:1009A000041C681EC0B204F0D7FD00280CD0221C25
:1009B000064905F037F8201C08F00CFE02000B0079
:1009C000034829000BF01EFB002070BDB51100107C
:1009D0005842041010B5012111F05CF904000138EF
:1009E000C0B204F0B9FD002805D004F0F7FD2100E5
:1009F00002480BF007FB002010BDC04698420410CF
:100A000070B50121050011F045F90221040028000C
:100A100011F008F9051C011C200005F0E1F8281C64
:100A200008F0D8FD02000B00024821000BF0EAFAA2
:100A3000002070BDC442041070B50121050011F002
:100A400029F902210400280011F0ECF8051C011C12
:100A5000200005F0C5F8200005F082F8281C08F0F9
:100A6000B9FD02000B00034821000BF0CBFA002077
:100A700070BDC046E442041010B5012111F00AF91E
:100A8000040005F08DF8210002480BF0BBFA0020AD
:100A900010BDC0460C43041070B50121050011F0D3
:100AA000F9F802210400280011F0F4F80500010013
:100AB000200005F0A7F82A00210002480BF0A2FA56
:100AC000002070BD2043041070B584B00C0003AB4F
:100AD00002AA01A9060007F0E5F8051E04D1002CC2
:100AE00009D1200004B070BD039A0299019806F064
:100AF000FDFF2C00F5E73100014805F025FDC0465B
:100B00003C430410F0B5C64600B582B004000EF0B8
:100B10004DF92049070020000EF0C0FF002F2CDD0A
:100B20000023012598460121200049420EF062FA77
:100B3000290020000EF05EFA434601220121200028
:100B4000009300230FF0AAFC01210022200049425B
:100B50000EF05CFD061E08D0012D02D009200BF01E
:100B600083F931000C480BF04DFA02212000494274
:100B700001350EF023F9AF42D5DA08480BF0BEF983
:100B8000074B1B68986832F0DBFF002002B080BC86
:100B9000B846F0BD704304100462041068400410AD
:100BA000D017002010B5040082B018480BF0A6F949
:100BB00000220092A8222000154B1649D20011F005
:100BC00005FB002809D1019000900023002200219C
:100BD00020000FF089FC002814D001210022494296
:100BE00020000EF013FD011E0AD00B480BF00AFA8C
:100BF0000221200049420EF0E1F8002002B010BDB1
:100C00000649F2E706480BF079F9F6E78C43041041
:100C1000B44304102C900410F84304107C430410D7
:100C2000CC43041010B5040082B018480BF066F9EC
:100C3000002220000092164B1649174A11F0C6FAFE
:100C4000002809D1019000900023002200212000FB
:100C50000FF04AFC002814D0012100224942200054
:100C60000EF0D4FC011E0AD00C480BF0CBF9022187
:100C7000200049420EF0A2F8002002B010BD084941
:100C8000F2E708480BF03AF9F6E7C04620440410B2
:100C9000584404106C950410480D0000A84404103A
:100CA0007C4304107444041010B5040082B018484A
:100CB0000BF024F9002220000092164B1649174A27
:100CC00011F084FA002809D101900090002300223D
:100CD000002120000FF008FC002814D00121002280
:100CE000494220000EF092FC011E0AD00C480BF085
:100CF00089F90221200049420EF060F8002002B07C
:100D000010BD0849F2E708480BF0F8F8F6E7C046CE
:100D1000D8440410F8440410B4A20410D304000012
:100D20003C4504107C4304101045041010B5040029
:100D300082B018480BF0E2F8002220000092164B17
:100D40001649174A11F042FA002809D10190009083
:100D500000230022002120000FF0C6FB002814D041
:100D600001210022494220000EF050FC011E0AD051
:100D70000C480BF047F90221200049420EF01EF802
:100D8000002002B010BD0849F2E708480BF0B6F8A1
:100D9000F6E7C046644504108C45041088A704108B
:100DA000D31B0000E04504107C430410AC45041044
:100DB00010B5040082B018480BF0A0F80022200003
:100DC0000092164B1649174A11F000FA002809D173
:100DD0000190009000230022002120000FF084FBEE
:100DE000002814D001210022494220000EF00EFC00
:100DF000011E0AD00C480BF005F9022120004942DF
:100E00000DF0DCFF002002B010BD0849F2E70848F1
:100E10000BF074F8F6E7C046104604103C46041088
:100E20005CC30410B40A0000984604107C4304100C
:100E300060460410F0B5C64600B504000DF0B6FFDC
:100E40000100022855DD00220121200010F0AEFE35
:100E500002210500200010F01DFF4E490600280069
:100E600037F0BAF900281BD028004B4937F0B4F905
:100E7000002854D02800494937F0AEF900283CD169
:100E80000321200010F0CEFE08F0A4FB02000B00AE
:100E9000434831000BF0B6F8002080BCB846F0BDE6
:100EA0002000032110F0BEFE3E4D041C2B681F2BBA
:100EB00029DD3D4B1D68002DEED0771E032FEBD8AA
:100EC0003A49201C08F000FB002833D13849201C87
:100ED00008F0E4FA002842D1201C364908F0A7FAAD
:100EE00008F02AFB34498046C00207F0C1F904B279
:100EF00024E032480BF086F8CEE732002900304873
:100F00000BF080F8C8E708F065FB0B000200310029
:100F10002C480BF077F82B6801332B60C9E70321CD
:100F2000200010F0B7FE284B0200310018000BF033
:100F300069F8B1E7204B80249846240142463900E5
:100F4000224804F09BFF032E17D0042E09D0022E56
:100F500002D0D223EC529FE7D423EC529CE71448F2
:100F6000BBE71B4B1A681B4B1B1BDB031B0C5340C3
:100F70001B04194A1B0C13608EE7154B1A68154B9E
:100F80001B1B5B101B0453401B0C134A1B041360F8
:100F900082E7C0462C6C0410144704104C47041020
:100FA00054470410DC1E0020C41E00200000C04076
:100FB0000000C0C000007A4470170000CC46041046
:100FC0007C470410F44604101C470410601E0020E7
:100FD00048000540FF07000048100540F0B5DE4618
:100FE00057464E464546E0B56448C5B00AF086FF10
:100FF00063480AF083FF05F017F980220023614E51
:10100000614C002130005200236008F0EBFF5F4B81
:101010005F4F9A465F4B01935F4B03935F4B99463B
:101020005F4B98465F4B9B465F4B0293FA208000D4
:101030000AF0CEFE0500831C47D02368002B02DB9C
:101040002368FF2B0ADD50460AF058FF8022002358
:10105000002130005200236008F0C4FF2368FE2BFB
:101060004BDC00222368F554236801332360236896
:10107000F2542368002B28D0721ED25C0D2A24D88B
:101080004A4BD340DB0720D522680AE0511E735C2F
:10109000093BDBB2172B43D84548D840C0073FD5A2
:1010A0000A00002AF2DC0023B354002A3AD122605D
:1010B00001320021FF32300008F094FFFA20800056
:1010C0000AF086FE0500831CB7D1802104A84900E0
:1010D00005F0D8F80028A9D004A948460AF092FFE4
:1010E000414604A834F0E2FA00280FD03B68986823
:1010F00032F026FD05F0DCF898E78022002300217D
:1011000030005200236008F06DFFAAE7594604A89A
:1011100034F0CCFA0028E9D102980AF0EFFEE5E7B6
:101120000023B354300005F091F8002808D0802245
:101130000023002130005200236008F053FFC4E771
:1011400005F082FF002912D0FA220023920007F056
:10115000F5F80500FA22019B92001B68EB1A9342F6
:10116000E5D903980AF0CAFE019B1D60DFE7FA216A
:10117000890007F0A5F80500ECE7C046A847041071
:10118000DC470410581D0020741E00200448041081
:10119000D0170020B4200020384804100462041046
:1011A000A0400410D04B041068400410012400003B
:1011B0001300800070B5194A86B01368040001332B
:1011C0000D1C136007280BD8FC21281C890508F08A
:1011D0007BF9431E9841124B1A57824217D018557B
:1011E0000822002104A808F0FDFE0E4B01AE019379
:1011F0007460B56005F028FF00290AD0FA220023A8
:10120000920007F09BF83061300004F087FD06B0D3
:1012100070BDFA21890007F053F8F4E7D41E0020CE
:10122000401000206D180010F0B5DE4657464E46BF
:101230004546E0B59BB0040004F08AFFCF4AD04990
:10124000136801338B4200D9CEE11360FA21CD4AF5
:101250008900136801338B4239D300231360F422D1
:10126000A35AF623E15AA05AE55A00B208F042F90F
:10127000C54908F0DCF8E821890508F0D8F8FC2118
:101280004000400889052DB208F01EF9002811D150
:10129000280008F02FF9BC4908F0C9F8E8218905B1
:1012A00008F0C5F8FC2140004008890508F00CF959
:1012B000002807D0B54BB64A1B68DB431B041B0C48
:1012C000136005E0B14BB24A1B681B041B0C136092
:1012D000F423E05A00B208F00DF9AB4908F0A7F882
:1012E000E821890508F0A3F8F623061CE05A00B2AD
:1012F00008F000F9A44908F09AF8E821890508F0F7
:1013000096F8A449A44F0B68051C9A00D6511A0000
:10131000203292000133D0511F2B00DD04E20B601C
:101320000021301C08F0B2F8002812D19B4B311C70
:101330001868984608F0C8F8002801D043461E6097
:10134000974B311C18689A4608F0A8F8002800D07E
:1013500011E10021281C08F099F8002812D1914BC6
:10136000291C1868994608F0AFF8002801D04B46B0
:101370001D608D4B291C18689B4608F08FF80028CB
:1013800000D089E0894A7E49136801338B4200D935
:101390008BE01360864A136801332F2B07DC136040
:1013A0001BB0F0BCBB46B246A946A046F0BD002328
:1013B0001360804B9A461B78002B00D0C0E17E4B17
:1013C000002699467D4F30223900300003F0AAFDF7
:1013D00039003022300003F0FFFD731C9846BC2317
:1013E000FD586949281C08F06FF8002826D1744977
:1013F000281C08F053F800284CD1281C714908F02B
:1014000016F808F099F870498346C00206F030FFDC
:101410005A46310005B2484604F030FD4346032BDE
:1014200018D16A4B03261A68694B5B1B5B101B04BF
:1014300053401B0C674A1B041360C4E7624B310026
:101440009B4648465A46802504F018FD43462D0128
:10145000032BE6D0042B05D0022B17D0D223012674
:10146000E552B0E7594B1A68594B5B1BDB031B0C69
:1014700053401B04574A1B0C136053461B78002B28
:1014800000D18DE7544842F01FFD89E7D42302269E
:10149000E55298E74A48B1E75B46444A1D60136845
:1014A000374901338B4200D873E7002300201360D3
:1014B00004F052F80700012004F04EF8374B019079
:1014C0009846002F00D1A5E01B684449181C994696
:1014D00007F0E4FF324B9A46002800D19CE01B68DD
:1014E0003F49181C9B4607F0EFFF002800D193E00E
:1014F0005946484607F0D8FF002800D18CE04946FD
:10150000584607F07AFF019B0290002B00D180E142
:10151000244B324999461B68181C049307F0BEFF00
:10152000214B9B4600280ED01B682D49181C0593A3
:1015300007F0CAFF002806D00599049807F0B4FF09
:10154000002800D074E1274B9C461B78D9B2002BB1
:1015500000D0DEE0029B0895099300230125079641
:101560000A933B7C07AA1361FB6AF86902933E6AFF
:101570003B6B03957FE053461E60EAE6A01F002008
:101580007FBB0000A41F00200000C0409800054061
:1015900098100540B0200020AC1F002054100020FF
:1015A000501000204C10002048100020AC200020DB
:1015B000A81F00209F340020601E0020E01E002095
:1015C0000000C0C000007A447017000048000540C9
:1015D000FF07000048100540581E002020BCBE4CEC
:1015E00020BCBECC9E340020002301211360924B0E
:1015F00092481A784A401A7003689149DB431B0CE1
:101600001B040B60002A00D020E603681B0C1B049F
:101610000B601BE68B4B9A46019B002B00D1A3E08D
:10162000894B8A4999461B68181C049307F036FFBA
:10163000002800D088E000230393854B0020002180
:101640009B460290834B9C461B78002B61D1029BEA
:1016500007AA079655609360D060002F00D19CE0E8
:101660003B7C019D1361FB6AF86902933E6A3B6B08
:10167000002D00D1B5E0019F3D7C9061F869556176
:10168000D061386A1662506202989062F86A1363F9
:10169000019BD0621B6B0193484241410A23039F87
:1016A0004942013F07989F4399436B4B43259E6CEA
:1016B00018609068593798601069593118619069BD
:1016C00001369861106A1862906A9862106B18630C
:1016D00038201D5402301D5402301F54002057681A
:1016E00018645F60D768DF6057695F61D769DF6141
:1016F000576AD26A5F62DA62019A5A6339229D544C
:1017000002329D5402329954586462469E64012309
:10171000137043465146514A1A60514B0B6049467B
:101720000A605A46136035E6002300200B60F96F0B
:1017300004F080F9FC230120F95804F07BF9EFE56F
:10174000484842F021FC3AE6414B47499B461B681A
:10175000181C059307F0B8FE00280ED100200023C6
:101760000021029003936DE700200393364B002184
:101770009946374B02909B4664E70599049807F019
:1017800093FE0023029300284ED000230393049974
:10179000059807F032FE012154E7019B1761002BE9
:1017A0002CD018001B7C97615361C3691762D36109
:1017B000036AC06A53620023936268E700230895B6
:1017C0000125079609900A933B7C03951E4D0B93C8
:1017D000A9461F4DFB6AAB460293F8693E6A3B6B14
:1017E00007AA906102980025906200205561D5619A
:1017F00016625562D062136301904DE753619361A5
:10180000D3611362536200239362D3621363019323
:1018100042E7104B9C461B78D9B2002BCED00A4B26
:1018200099460B4B9B4674E70021181C039109E76E
:1018300001230393ABE7C046A03400209800054085
:1018400098100540501000204C10002020BCBE4CC9
:10185000481000209E340020781E0020286B6E4E19
:10186000286B6ECE581E002020BCBECCF0B5604A5E
:10187000604D1368A3B0013313605F4B1C682B6885
:10188000002B00D16DE05D495D4A0B68DB431B0412
:101890001B0C1360002C67D0FC2147688905806809
:1018A00007F012FE431E9841564E01373B00009050
:1018B0003200802102A80AF00FF82B682068002B64
:1018C00030D04E4B4E4A1B68DB431B0C1B0413608D
:1018D000002814D0237B002B29D102A910F086FC0C
:1018E000031E206845D101930093002200230021AC
:1018F0000EF0FAFD00285CD12B68002B10D0424B73
:10190000424A1B683D49DB431B041B0C13600B68F8
:101910003B4A1B041B0C13600B681B0C1B0413605D
:1019200023B0F0BD0028FBD0237B002BD5D0261D93
:10193000300042F029FB206800280ED002A910F0E8
:1019400055FC031E206824D101930093002200233C
:1019500000210EF0C9FD002837D1300042F0B4FA62
:10196000CAE7002C98D1DBE70B681B041B0C136043
:10197000D6E70121002249420DF048FE011E22D087
:1019800023480AF03FFB0221206849420DF016FA75
:10199000B2E70121002249420DF038FE011E1ED09F
:1019A0001B480AF02FFB0221206849420DF006FA7D
:1019B000D3E701210022494220680DF027FE011ED5
:1019C0000FD01448DDE71449DAE70121002249422B
:1019D00020680DF01BFE011E06D00E48E1E70E49FF
:1019E000DEE70D490B48CCE70B490A48D9E7C0466A
:1019F000CC1E0020C41E0020C81E00207000054020
:101A000070100540584804108400054084100540BB
:101A10008C480410A44804107C430410F0B5544AC8
:101A2000544E1368A3B001331360534B1C683368E2
:101A3000002B36D05149524A0B68DB431B0C1B0468
:101A40001360002C4DD04768806807F0C3FD4D4DF2
:101A50000137009001913B002A00802102A809F083
:101A60003BFF2068002811D0237B002B1CD102A94A
:101A700010F0BCFB031E206838D1019300930022B4
:101A8000002300210EF030FD002842D13368002BE6
:101A900005D03A4B3A4A1B681B0C1B04136023B059
:101AA000F0BD002CCFD1FAE7251D280042F06CFADA
:101AB000206800280ED002A910F098FB031E2068B1
:101AC00036D1019300930022002300210EF00CFD7B
:101AD00000283FD1280042F0F7F93368002BD8D115
:101AE000DDE70B681B0C1B041360D8E70121002203
:101AF00049420DF08BFD011E15D023480AF082FAF1
:101B00000221206849420DF059F93368002BC0D1F9
:101B1000C5E701210022494220680DF077FD011E32
:101B200003D01A48EAE71A49E7E719491748E5E7F1
:101B30000121002249420DF069FD011E08D0124822
:101B40000AF060FA0221206849420DF037F9C1E736
:101B50000F49F4E701210022494220680DF056FDAB
:101B6000011E01D00948EBE709490848E8E7C046EB
:101B7000D01E0020C41E0020C81E00208400054086
:101B800084100540BC4804108C480410A44804107C
:101B90007C43041070B5D02501220021072005F0F8
:101BA000D9FD01220021062005F0D4FD01220021EB
:101BB00005202D0605F0CEFD0120002105F0B8F826
:101BC0006A686C686B6864069B06E40FDB0F1B0198
:101BD000A4001C431306DB0F0022012107201C4335
:101BE00005F0B8FD00220121062005F0B3FD00221A
:101BF0000121052005F0AEFD0120002105F098F837
:101C000069686A6809066B68C90F5206490064B2C0
:101C1000D20F9B060C43D200DB0F5B010021072093
:101C2000144301221C4305F095FD012200210620EA
:101C300005F090FD64B201220021052005F08AFD27
:101C40002A2C05D0302C03D0FF200C2C00D070BDE6
:101C5000E0B2FCE7F0B54E46DE4657464546030087
:101C60008C46E0B563441B7985B09946019002919A
:101C7000002B00D135E280468B00039363441B01A7
:101C8000984444460C20205607F034FCE84907F0FD
:101C9000CEFB071CA06807F02DFC00218246381CF3
:101CA00007F0AEFB0021041C504607F0A9FB391CCD
:101CB000051C381C07F0BBFB002107F0A1FB391CF9
:101CC000061C504607F0B3FB002107F099FB4A467B
:101CD000071C012A00D1A5E142461420105607F046
:101CE00009FCD34907F0A3FB42468246106907F07E
:101CF00001FC51468346201C07F082FB5946041C18
:101D0000281C07F07DFB5146051C504607F08FFB51
:101D1000011C301C07F074FB5146061C584607F0A6
:101D200086FB011C381C07F06BFB4A46071C022A85
:101D300000D177E142461C20105607F0DBFBBC497E
:101D400007F075FB42468246906907F0D3FB514687
:101D50008346201C07F054FB5946041C281C07F03E
:101D60004FFB5146051C504607F061FB011C301C1F
:101D700007F046FB5146061C584607F058FB011C6D
:101D8000381C07F03DFB4A46071C032A00D149E1F5
:101D9000424600202432105607F0ACFBA44907F05D
:101DA00046FB42468246106A07F0A4FB5146834632
:101DB000201C07F025FB5946041C281C07F020FBBB
:101DC0005146051C504607F032FB011C301C07F041
:101DD00017FB5946061C504607F029FB011C381C0E
:101DE00007F00EFB4A46071C042A00D11AE14246BE
:101DF00000202C32105607F07DFB8D4907F017FBB1
:101E000042468246906A07F075FB51468346201C85
:101E100007F0F6FA5946041C281C07F0F1FA51465F
:101E2000051C504607F003FB011C301C07F0E8FAC4
:101E30005946061C504607F0FAFA011C381C07F0F8
:101E4000DFFA4A46071C052A00D1EBE04246002093
:101E50003432105607F04EFB754907F0E8FA424657
:101E60008246106B07F046FB51468346201C07F064
:101E7000C7FA5946041C281C07F0C2FA5146051C33
:101E8000504607F0D4FA011C301C07F0B9FA594645
:101E9000061C504607F0CBFA011C381C07F0B0FABC
:101EA0004A46071C062A00D1BCE0424600203C32CC
:101EB000105607F01FFB5E4907F0B9FA424682460A
:101EC000906B07F017FB51468346201C07F098FAE9
:101ED0005946041C281C07F093FA5146051C50462D
:101EE00007F0A5FA011C301C07F08AFA5946061CB7
:101EF000504607F09CFA011C381C07F081FA4A464C
:101F0000071C072A00D18DE04246002044321056BB
:101F100007F0F0FA464907F08AFA42468246106C0A
:101F200007F0E8FA51468346201C07F069FA594643
:101F3000041C281C07F064FA5146051C504607F0A3
:101F400076FA011C301C07F05BFA5946061C504615
:101F500007F06DFA011C381C07F052FA4A46071CBC
:101F6000082A5FD0424600204C32105607F0C2FAD1
:101F70002F4907F05CFA42468246906C07F0BAFAA5
:101F800051468046201C07F03BFA4146041C281CA1
:101F900007F036FA5146051C504607F048FA011C76
:101FA000301C07F02DFA4146061C504607F03FFA58
:101FB000011C381C07F024FA4A46071C092A31D0B4
:101FC0000298019A84469046039B63441B019844FF
:101FD00042465423D05607F08DFA154907F027FAE8
:101FE00043468246186D07F085FA51468046201C0C
:101FF00007F006FA4146041C281C07F001FA514676
:10200000051C504607F013FA011C301C07F0F8F9C4
:102010004146061C504607F00AFA011C381C07F01E
:10202000EFF9071C211C201C07F001FA804601E093
:10203000CDCCCC3D484607F05DFA311C814607F017
:10204000F6F9414607F0D9F90021061C07F01EFAFF
:10205000002842D1391C484607F0E9F9291C071C21
:10206000201C07F0E4F9011C381C07F0C6F9311CEC
:1020700007F0C9F91E49071C07F0D9F9FC218905A9
:1020800007F0BEF907F058FA8046029B211C1E019A
:10209000019B381C9C4666443300A8331F6007F040
:1020A000C6F9011C281C07F0A8F9494607F0ABF94E
:1020B0003300AC3342461860FC21B0238905F2504E
:1020C00007F09EF907F038FAB423F05005B0F0BCE1
:1020D000BB46B246A946A046F0BD0023002798465D
:1020E000D3E7002398461F1C1E1C1D1C1C1CA1E7C7
:1020F000ABAAAA3FF0B5DE464E4645465746E0B588
:10210000EC250700002414225C269DB0CB49057302
:10211000CB4B0390CB483961B8603A77BB613C75D3
:10212000BD55B86564203C5439666C217A5402AAC6
:102130009446BB660F23A336634498461E70C24B79
:102140001474994606AA01231C39484600940CF0E1
:1021500005FD012342465021484600940CF008FD3D
:1021600043466A461D781E70012350211376484667
:1021700006AA00940CF0F2FC012342465021484686
:1021800000940CF0F5FC43461B782D021D43AF4B29
:102190009D4200D04AE102AB9C46FF2306AA0E25D1
:1021A000160000249B460027924665445B462B7030
:1021B000434642461C7050210123484600970CF0CC
:1021C000CDFC01232A005021484600970CF0D0FC9A
:1021D0002B78013433700136582CE7D106AC5246C7
:1021E0009B499C48563427E049008BB209B200292C
:1021F0002EDB5B0099B21BB2002B2FDB49008BB2A8
:1022000009B2002930DB5B0099B21BB2002B31DB35
:1022100049008BB209B2002932DB5B009DB21BB2D0
:10222000002B33DB6D00A9B22DB2002D34DB490049
:10223000013289B2944235D013781B0259400BB257
:10224000002BD1DA5B00434019B29BB20029D0DAEF
:10225000490041400BB289B2002BCFDA5B0043400A
:1022600019B29BB20029CEDA490041400BB289B2C3
:10227000002BCDDA5B00434019B29BB20029CCDAC7
:102280004D0045402BB2ADB2002BCBDA5900414096
:102290000DB289B2002DCADA6D0045400132A9B2F3
:1022A0009442C9D11020562302AA1218D35A5BBAFD
:1022B0009BB28B4200D0B9E0039B00221D00043387
:1022C0009946242317009A4607AC08350FAE4A46B4
:1022D0002378D355002B00D19AE0A278E17812063A
:1022E00009040A4361790A43217909020A436178A2
:1022F0002A602971012B00D18AE0E279217A120645
:1023000009040A43A17A0A43617A09020A43A179BE
:10231000AA602973022B7BD0227B617B1206090401
:102320000A43E17B0A43A17B09020A43E17A2A615D
:102330002975032B6CD0A27C617C120409060A4328
:10234000217D0A43E17C09020A43217CAA612977A5
:10235000042B5DD05046A27DE17D120609040A439C
:10236000617E0A43217E09020A43617D29542A6263
:10237000052B4DD0E27E217F120609040A43A17F7E
:10238000A07E0A43617F09020A432C216854AA6295
:10239000062B3DD032787178120609040A43F17891
:1023A000E07F0A43B17809020A43342168542A6362
:1023B000072B2DD07279B179120609040A43317ABC
:1023C00030790A43F17909020A433C216854AA632F
:1023D000082B1DD0B27AF17A120609040A43717BE8
:1023E000707A0A43317B09020A43442168542A6403
:1023F000092B0DD0F37B327C1B0612041343B27CF5
:10240000B17B1343727C120213434C22A954AB6478
:1024100039000398FFF71EFC7B1C29340127503537
:102420002936022B00D052E7002000E001201DB029
:10243000F0BCBB46B246A946A046F0BD50FC030026
:1024400040A90200344E050030110020D1070000E1
:10245000FFFF000021100000F0B5D6464F4646466B
:10246000C0B50700EE4B102203600021D83007F002
:10247000B9FD0023E8223800BB520232BB520021D2
:10248000E23AEC3007F0AEFD8023F4221B01BB5290
:1024900002320024BB523800F8230021FC54DE3AFB
:1024A000FC3007F09FFD3800153006220021FF3078
:1024B00007F098FDA4235B00FC541E230822FF3381
:1024C000FC54D84B00251A60E022D74BD2011B6880
:1024D00001261340D54A13608D235B00FC54063B54
:1024E000FC541623FF33FC540133FC541823FF33F0
:1024F000FC540133FC541A23FF33FC54CC4CA31D71
:102500009946CC4B9846237804219A46180005F04A
:1025100007F953460421581C05F002F95346524668
:102520005B081F2A00D977E107221A4093009B1805
:10253000C149C24A9B009A18591815600D60C049DC
:1025400059180D60BF498C464146634419601023F9
:10255000536016602378013359081F2B00DD57E1C3
:1025600007220A4093009B18B349B44A9B009A186B
:10257000591815600D60B24959180D60B1498C4663
:1025800041466344196010235360166023785A084B
:102590001F2B00D938E1072111408A005218A849A1
:1025A00092005118096840468C4631001940494252
:1025B000414060460140A4480133844662441160B2
:1025C0005A081F2B00DD1BE10721114040468A00FD
:1025D00052189B4992005118334009685B424340AE
:1025E0000B40994902348C4662441360A1458AD15C
:1025F000072005F0D7F8062005F0D4F8D0240520F0
:1026000005F0D0F880232406A362403BA362203B60
:10261000A3623800FFF7BEFAD023F854142005F067
:10262000C1F800220021142005F094F8042005F0E0
:10263000B9F810236362A36198460CF0A3FA1F2136
:102640001B2005F06DF8002200211B2005F082F808
:1026500000211B2005F092F81F211A2005F060F8D8
:10266000002200211A2005F075F800211A2005F03B
:1026700085F81F211C2005F053F8002200211C20A2
:1026800005F068F800211C2005F078F81F211D20B6
:1026900005F046F8002200211D2005F05BF800211E
:1026A0001D2005F06BF8182005F07CF8192005F0C6
:1026B00079F880235B04636280239B0463620820B3
:1026C00005F070F880235B0063620920636105F008
:1026D00069F880239B0063620220636105F062F861
:1026E00004230022A3620121022005F033F8032015
:1026F00005F058F808230022A3620121032005F009
:1027000029F8524B5249994618000CF057FA022505
:102710004B46504A5B6815604A4611680F2251408B
:10272000C0320A404C492B400A604C4A01211360D8
:10273000122004F0F5FF0121132004F0F1FF012124
:10274000152004F0EDFF464946480CF0DFF903215F
:10275000102004F0E5FF0321112004F0E1FF042123
:10276000172004F0DDFF0421162004F0D9FF002219
:102770004046324B3C49DA635A649A64D96418641F
:10278000DE63DA635A649A64D9641864DE63802372
:102790003649DB040A68002053401B0C344A1B04F2
:1027A000136080230968DB004B401B041B0C136083
:1027B00004F0F8FF6662012004F0F4FF656238005F
:1027C000FFF798FCC8239846B844404603F098FEAB
:1027D00014264346274C284D18685968274A284B29
:1027E00006F0EEFD013E00196941002EF6D1434688
:1027F000186059603800E0BCBA46B146A846F0BD42
:10280000032111400831E1E6032111400831C4E6FB
:1028100003220A400832A5E603221A40083285E660
:102820001C90041000F0044000C0044000D004409C
:10283000301D0510FFFF00000800054000000540A6
:102840000C000540100005400C10054000C003407E
:10285000286BEE0004F0034000D0034004E0034086
:10286000A086010030110020FF070000480005404D
:10287000481005404F8167F77E7B05142D7F954CEE
:102880002DF45158F0B5DE4657464E464546E0B564
:1028900085B004000CF08AFA012806D02000DC493B
:1028A0000DF06CF820000DF083FF012120000CF0EA
:1028B000D1FB05282ED0D74920000DF0EFF80121DB
:1028C00020000CF097FB002301220121200000933F
:1028D0000DF0E4FD01210022494220000CF096FE9B
:1028E000011E02D0CC4809F08DFB02212000494294
:1028F0000CF064FAC94809F001FBC94B1B689868E1
:1029000031F01EF9002005B0F0BCBB46B246A94626
:10291000A046F0BDC34B18009B4609F0EFFA20001B
:102920000CF0F6FF01212000BF4D0DF053FF0028F1
:1029300000D1C9E0280009F065FB022120004942CE
:102940000CF088FB042800D1C2E00221200049429B
:102950000CF080FB032800D17AE1B44809F052FB67
:102960000121200049420CF075FB05287CD1200094
:102970000CF01CFA0700010020000CF06BFB05288E
:1029800000D0B1E0B946584609F0B8FA20000CF082
:10299000BFFFA74EA54B49462000B0461E000DF0D4
:1029A00019FF002858D0280009F02CFB280009F056
:1029B00029FB0221200049420CF04CFB042800D1E5
:1029C0009FE00221200049420CF044FB032800D183
:1029D000C3E1300009F016FB0121200049420CF050
:1029E00039FB052800D085E020000CF0DFF9070056
:1029F000010020000CF02EFB052800D18DE0854958
:102A000020000DF04BF8390020000CF0F3FA002301
:102A100001220121200000930DF040FD0121002240
:102A2000494220000CF0F2FD011E02D07A4809F064
:102A3000E9FA0221200049420CF0C0F9404609F0B1
:102A40005DFA0221200049420CF0B8F94946200005
:102A50000DF0C0FE0028A6D1280009F0D3FA7D2091
:102A6000464609F001FA20E06A4920000DF016F808
:102A70000221494220000CF0BDFA0023012201216D
:102A8000200000930DF00AFD0121002249422000A0
:102A90000CF0BCFD011E02D05F4809F0B3FA022120
:102AA000200049420CF08AF9614E300009F026FA04
:102AB0000221200049420CF081F9012120000DF093
:102AC00089FE002800D035E77D2009F0CDF911E717
:102AD00002210022200049420CF098FD554B0100D4
:102AE000180009F08FFA3BE74A4920000CF0D6FFA6
:102AF0003900BFE7474920000CF0D0FF02214942CE
:102B000082E702210022200049420CF07FFD494B60
:102B10000100180009F076FA5EE7B2463E0058461A
:102B200009F0ECF920000CF0F3FE404B31002000DE
:102B300002930DF04FFE002858D0280009F062FAE9
:102B4000280009F05FFA280009F05CFA0221200051
:102B500049420CF07FFA04286ED00221200049423D
:102B60000CF078FA032800D105E1029809F04AFA3E
:102B70000121200049420CF06DFA052841D12000C6
:102B80000CF014F90700010020000CF063FA05288E
:102B90006CD0204920000CF081FF390020000CF09F
:102BA00029FA002301220121200000930DF076FC78
:102BB00001210022494220000CF028FD011E02D014
:102BC000154809F01FFA0221200049420CF0F6F8DE
:102BD000404609F093F90221200049420CF0EEF83A
:102BE000310020000DF0F6FD0028A6D1280009F0E4
:102BF00009FA280009F006FA7D20564609F034F952
:102C00001CE7044920000CF049FF02214942C5E7B6
:102C10001849041070430410046204106840041042
:102C2000D0170020F0480410F44804100C49041098
:102C300014490410F84804100221002220004942DF
:102C40000CF0E4FC5A4B0100180009F0DBF98FE7A7
:102C500002210022200049420CF01AFC06F0BAFCC6
:102C600002000B00534809F0CDF979E6584609F007
:102C700045F920000CF04CFE4F4B39002000039327
:102C80000DF0A8FD00284FD0280009F0BBF928005E
:102C900009F0B8F9280009F0B5F9280009F0B2F9EF
:102CA0000221200049420CF0D5F9042849D0022124
:102CB000200049420CF0CEF903286AD0039809F0AD
:102CC000A1F90121200049420CF0C4F93B49200040
:102CD0000CF0E4FE0221200049420CF08BF90023A5
:102CE00001220121200000930DF0D8FB01210022D8
:102CF000494220000CF08AFC011E02D0304809F045
:102D000081F90221200049420CF058F8404609F0B0
:102D1000F5F80221200049420CF050F8390020005B
:102D20000DF058FD0028AFD1280009F06BF92800FC
:102D300009F068F9280009F065F97D2009F094F898
:102D400046E702210022200049420CF05FFC184BAC
:102D50000100180009F056F9B3E702210022200013
:102D600049420CF095FB06F035FC02000B001148BF
:102D700009F048F930E602210022200049420CF017
:102D800087FB06F027FC02000B000A4809F03AF91D
:102D9000EEE602210022200049420CF079FB06F009
:102DA00019FC02000B00034809F02CF989E7C04622
:102DB000F8480410004904100C4904107043041032
:102DC0000462041070B50368040082B0002B00D1C7
:102DD0009AE0BF4809F092F80022BE4B2068BE4935
:102DE0000092BE4A0FF0F2F9031E00D07CE020688A
:102DF000012201930093002100230DF075FB051EB5
:102E000072D1B74E206831000DF0D2F83100206841
:102E10000CF044FEB34920680DF0CAF8B24809F03E
:102E20006DF8B24B2068B249B24A00950FF0CEF966
:102E3000031E00D06CE02068002201930093002163
:102E400000230DF051FB002862D1AB4920680FF040
:102E5000CDF9031E00D109E1012100224942206879
:102E60000CF0D4FB011E00D121E1A44809F0CAF8FE
:102E70000221206849420BF0A1FFA14809F03EF869
:102E80000022A04B2068A0490092A04A0FF09EF9B2
:102E9000031E48D1206801220021019300930DF008
:102EA00023FB00283FD19A4920680DF081F8994909
:102EB00020680FF09BF9031E0BD10122206800212E
:102EC00001930093524200230DF00EFB002800D125
:102ED000F5E001210022494220680CF097FB011E19
:102EE00000D1E9E08C4828E0012100224942206815
:102EF0000CF08CFB011E09D0884809F083F80221F0
:102F0000206849420BF05AFF02B070BD8449F3E7D4
:102F100001210022494220680CF078FB011E00D1FB
:102F2000A1E08048E9E701210022494220680CF035
:102F30006DFB011E00D1B6E07B4809F063F8022169
:102F4000206849420BF03AFF784809F05BF800220C
:102F5000774B206877490092774A0FF037F9031EC4
:102F600029D1206801220021019300930DF0BCFAC1
:102F7000002820D1714920680DF01AF870492068A6
:102F80000FF034F9031E0BD10122206800210193B8
:102F90000093524200230DF0A7FA002800D192E0DE
:102FA00001210022494220680CF030FB011E00D1B3
:102FB0007FE0644808E001210022494220680CF0CB
:102FC00025FB011E6DD0604809F01CF80221206825
:102FD00049420BF0F3FE5D4809F014F800225C4B07
:102FE00020685C4900925C4A0FF0F0F8031E10D193
:102FF000206801220021019300930DF075FA00284A
:1030000007D1206855490CF0D3FF554808F0FAFF66
:103010000FE001210022494220680CF0F7FA011E5E
:103020003DD0504808F0EEFF0221206849420BF0E5
:10303000C5FE4D4920680FF0D9F8031E23D00121A9
:103040000022494220680CF0E1FA011E2DD04748C9
:1030500008F0D8FF0221206849420BF0AFFE444837
:1030600008F0D0FF50E72E492E4846E7012220689D
:10307000002101930093524200230DF035FA0028FD
:1030800000D0E9E6F9E601222068002101930093CF
:10309000524200230DF028FA0028D0D1DFE7204962
:1030A000BFE71F498FE71E4946E71D49CFE71C4987
:1030B000DBE61B49234887E7194917483DE72D48B8
:1030C00008F0A0FF40E72C4808F09CFF83E7C046CB
:1030D0004049041064490410B80A05107512000034
:1030E0006C49041070490410744904109849041084
:1030F00014040510A1060000C4490410944A0410E9
:10310000B84A0410C043041000F90410120B000068
:10311000E04A0410E84A0410F84B0410A4490410D3
:103120007C430410704A0410B44B04101C4C04106F
:10313000444C04107CE6041083120000504C041030
:10314000584C04103C4D0410E44C0410604D041025
:10315000884D041034DB0410450B0000944D04101E
:103160009C4D0410CC4D0410EC4D0410385104104B
:1031700060510410D44B0410044D041070B50400C9
:103180000068002801D024F07BFA0FF023FB2060B8
:10319000002800D148E11AF09FFE0022A4492068CF
:1031A0000CF030FCA34D206829000CF001FF002238
:1031B000A14920680CF026FCA04920680CF0F8FE1C
:1031C00000229F4920680CF01DFC9E4920680CF0ED
:1031D000EFFE00229C4920680CF014FC9B492068FB
:1031E0000CF0E6FE00229A4920680CF00BFC99498D
:1031F00020680CF0DDFE0022974920680CF002FCEC
:10320000964920680CF0D4FE0022954920680CF005
:10321000F9FB944920680CF0CBFE0022924920680B
:103220000CF0F0FB914920680CF0C2FE0022002156
:1032300020680CF00FFE00228D4920680CF0E2FBA4
:1032400002212A00206849420CF0F4FE89492068D6
:103250000CF0AEFE0022884920680CF0D3FB8749B1
:1032600020680CF0A5FE0022854920680CF0CAFBFE
:10327000844920680CF09CFE0022834920680CF0F1
:10328000C1FB824920680CF093FE0022804920682F
:103290000CF0B8FB7F4920680CF08AFE00227E49C2
:1032A00020680CF0AFFB7D4920680CF081FE002205
:1032B0007B4920680CF0A6FB7A4920680CF078FE68
:1032C0000022794920680CF09DFB784920680CF0B9
:1032D0006FFE0022764920680CF094FB7549206847
:1032E0000CF066FE0022744920680CF08BFB7349D9
:1032F00020680CF05DFE0022714920680CF082FB12
:10330000704920680CF054FE00226F4920680CF0D0
:1033100079FB6E4920680CF04BFE00226C49206856
:103320000CF070FB6B4920680CF042FE00226A49E9
:1033300020680CF067FB694920680CF039FE002218
:10334000674920680CF05EFB664920680CF030FE8F
:103350000022654920680CF055FB644920680CF098
:1033600027FE0022624920680CF04CFB614920686E
:103370000CF01EFE0022604920680CF043FB5F4900
:1033800020680CF015FE00225D4920680CF03AFB25
:103390005C4920680CF00CFE00225B4920680CF0B0
:1033A00031FB5A4920680CF003FE0022584920687E
:1033B0000CF028FB574920680CF0FAFD0022564912
:1033C00020680CF01FFB554920680CF0F1FD00222D
:1033D000534920680CF016FB524920680CF0E8FDB8
:1033E0000022002120680CF035FD00224E492068A3
:1033F0000CF008FB02214D4A206849420CF01AFEED
:103400004B4920680CF0D4FD002001F0F3F80120B6
:1034100001F0F0F8022001F0EDF8032001F0EAF8E5
:103420002000FFF7CFFC70BD424808F067FDFAE7C7
:10343000050B0010AC51041099050010CC75041058
:10344000D5030010B4510410B10D0010C451041084
:103450002D0D0010E4510410A90C001000520410AE
:10346000250C001014520410A50B00102C5204104F
:1034700085280010405204106103001044520410CB
:103480008103001054520410AD0300106052041068
:10349000F903001070520410190400108452041033
:1034A0005104001094520410D5020010A4520410CC
:1034B000F1020010B45204100D030010C8520410A1
:1034C00085040010D8520410D9050010EC520410E5
:1034D0004107001000530410050800101453041095
:1034E000D5080010245304101D090010385304108F
:1034F0008D09001048530410B506001058530410ED
:10350000D509001068530410390A001078530410CC
:10351000790A001084530410010A0010905304101B
:10352000990A0010A0530410350E0010B053041077
:10353000B853041088510410F0B5DE46454657468E
:103540004E46E0B5D64CA5440400D64808F05AFDD6
:1035500032AA961DD44A23009346D44A9A460C9226
:10356000D34A0D92D34A0E92D34A0B922200C8320C
:103570000A92D24A1492D24A1592D24A1692D24A4A
:103580001792D24A1892D24A1992D24A1A92D24A21
:103590001192D24A1292D24A1392D24A1D92D24A20
:1035A0001E92D24A2092D24A2D92D24A2E92D24ACA
:1035B0000592D24A0792D24A0892D24A2F92D24A10
:1035C0002392D24A2492D24A2592D24A2692D24AB1
:1035D0001C92D24A1F92D24A2C92D24A9046D24A88
:1035E0000692D24AD24D0392D24AD34C0F92D34A7A
:1035F0000492D34A1B92D34A0992D34A2192D34AC6
:103600001092D34A3192D34A2292D34A2792D34A74
:103610002892D34A2992D34A2A92D34A2B92D34A48
:10362000309225E002F02AFB2B78002B1DD0236876
:10363000A3682369A369236AA36A236B3823E35C25
:103640003A23E35C3C23E35C236C6368E3686369CF
:10365000E369636AE36A636B3923E35C3B23E35CFE
:103660003D23E35C636C00232B70012003F0D6FB49
:10367000802134A802F028FE0028D3D034A834F0EA
:1036800041FE022800D899E0594634AB301803E0D7
:103690000133984200D190E01A785E2AF8D15A7826
:1036A0005E2AF5D19A78463AD2B2312AF0D8920001
:1036B0008A58974612988B46AA2702F023FE139841
:1036C00008F0A0FC53467F00DB59002B00D15DE2DF
:1036D0001D9808F097FC5346D85900230093209971
:1036E0001E9BA34A00680EF071FD011E00D1E0E1AF
:1036F000AA23524601215B00D35849420022186890
:103700000BF084FF011E00D147E21C9808F07AFC00
:10371000AA23524602215B00D358494218680BF095
:103720004DFB1F9802F0EEFD0EE08B4680210A9BB8
:1037300049001A685B6854A8009201930B9A08F03C
:10374000CBF854A802F0DEFD02F0D2FD6AE78B460A
:1037500080210E9B0D9A009349000C9B54A808F001
:10376000BBF854A802F0CEFDEEE71A988B4602F0A3
:10377000C9FDE9E718988B4602F0C4FDE4E7159807
:103780008B4602F0BFFDDFE714988B4602F0BAFDCE
:10379000DAE716988B4602F0B5FDD5E711988B460F
:1037A00002F0B0FDD0E717988B4602F0ABFDCBE7F7
:1037B00019988B4602F0A6FDC6E78B46414634A811
:1037C00034F00AFDAA235B00994653464A469F58A7
:1037D000002825D1002FB7D038680028B4D006992A
:1037E0000EF004FD031E38682BD1019300930022D4
:1037F000002300210CF078FE0028A5D00121002232
:10380000494238680BF002FF011E00D14FE10898D1
:1038100008F0F8FB0221386849420BF0CFFA93E731
:10382000039934A834F0D8FC00281BD1002F8BD08A
:103830003868002888D00F990EF0D8FC031E38682D
:10384000D3D00121002249420BF0E0FE011E00D13D
:10385000D4E0079808F0D6FB0221386849420BF003
:10386000ADFA71E7049934A834F0B6FC002800D012
:1038700080E0002F00D167E73868002800D163E7B7
:103880001B990EF0B3FC031E3868AED00121002254
:1038900049420BF0BBFE011E00D17BE10798B7E760
:1038A000ACFDFFFFBC5304104C8F0410E053041018
:1038B000EC53041018540410245404103C54041005
:1038C0005454041064540410705404108C540410A4
:1038D000A4540410B4540410CC540410DC54041048
:1038E000F0540410245504105455041010CE041044
:1038F00060550410905504107C4304108C4804104B
:10390000A4480410C0550410F45504106456041063
:10391000A0560410D8560410EC5604100C5704108E
:1039200024570410C451041048570410E4510410E3
:103930009E3400206C570410781E002000520410A2
:103940008857041014520410A05704102C5204106D
:10395000BC570410D4570410E85704101058041032
:1039600030580410445804106458041008590410C6
:10397000220D0000099934A834F02EFC002819D13A
:10398000002F00D1E0E63868002800D1DCE621995C
:103990000EF02CFC81464B463868002B00D075E7B2
:1039A0004A464946019300930CF09EFD002800D141
:1039B000CAE623E7109934A834F00EFC002808D199
:1039C000002F00D1C0E63868002800D1BCE631994C
:1039D000DEE7229934A834F0FFFB002810D1002F35
:1039E00000D1B1E6279808F00DFB53464A46985897
:1039F000FFF7E8F9289808F005FBA5E6059928E700
:103A0000299934A834F0E8FB00282DD1002F00D1EB
:103A10009AE62A9808F0F6FA4A4653469B581868E0
:103A20009946002800D1CAE02B990EF0DFFB4A46E8
:103A3000031E106800D0B2E000273B003A003900B6
:103A4000019700970CF050FDB84200D1B7E04B460B
:103A500001213A00494218680BF0D8FD0100B84234
:103A600000D1FAE00898A2E0002F00D16CE6386897
:103A7000002800D168E634A90EF0B8FB031E3868B0
:103A800000D003E700231A00190001930093994620
:103A90000CF02AFD484500D156E601214A4649422C
:103AA00038680BF0B3FD0100484500D0AFE605993A
:103AB000ADE65346D859019100910B000A00006809
:103AC0000CF012FD3290002800D011E62D9808F07D
:103AD00099FA5346DB5918689946002800D182E0CC
:103AE0002E990EF083FB4B46071E18686BD13B00E6
:103AF0003A003900019700970CF0F6FC002800D03E
:103B000089E0AA2352465B00D358186899460028DA
:103B100000D17CE023990EF069FB4B46071E186824
:103B200065D13B003A003900019700970CF0DCFCAE
:103B3000002800D07AE05246F423D05A023300B273
:103B4000D75A05F0D7FC464905F071FCE8218905F4
:103B500005F06DFC05F03EFD3FB232903391380028
:103B600005F0C8FC3E4905F062FCE821890505F036
:103B70005EFC05F02FFD329A339B00900191259851
:103B800008F040FA269802F0BDFBDDE52C9802F023
:103B9000B9FBD9E5059907983AE60599B5E50121FC
:103BA000002249420BF032FD011E54D0079808F064
:103BB00029FA02214B46494218680BF0FFF8309869
:103BC00008F020FAC0E50121329A49420BF01EFDAF
:103BD000011E3ED0079808F015FA02214B464942D3
:103BE00018680BF0EBF82F9808F00CFA89E7012120
:103BF000002249420BF00AFD011E22D0079808F06E
:103C000001FA02214B46494218680BF0D7F8249874
:103C100008F0F8F98FE74B4601213A00494218684D
:103C20000BF0F4FC011E11D00898D4E74B4601219B
:103C30003A00494218680BF0E9FC011E03D00898CD
:103C4000DDE70599DAE705990898D8E70599089816
:103C5000C1E70599BEE70599A8E705990898A6E781
:103C60000000C040024B1868002800D00068704770
:103C7000C81E0020F0B50021D9B04848FCF724FF49
:103C8000002800D17EE008F09BF8454B02221B681B
:103C90000021986800232FF091FF002503F0D4F94C
:103CA000404C24184D41002D02DA01243E4D64425F
:103CB00008F034FD002859D03C4A3D493D4808F001
:103CC000A1F96846FEF7C8FB802200276D46012651
:103CD000394B00210093394B520039481F6006F0E0
:103CE00081F9329A339B56925793364B04201D60CC
:103CF00001F01AF8042001F025F9334808F0FEF825
:103D0000324803F0E7FC324B32481E7008F0F6F8F8
:103D1000022001F0F7FB304802F098F82F4808F035
:103D2000EDF801F089FF082002F01CF9082001F0ED
:103D3000F3FE102006F078F90400294B07601860A4
:103D4000043003F0C7FC2748267308F0D7F820009A
:103D5000FFF714FAAA2324485B00EC500AF082FD16
:103D60008D2368465B00EE54FFF7E6FB03F06CF929
:103D700022002B00121A8B41002B99DC9CD1002AC7
:103D800096D199E700211948FCF79EFE002800D043
:103D900079E701211648FCF797FE74E7400D030010
:103DA000D017002060E31600FFFFFF7F18540410B7
:103DB000E05304102C59041028900410741E0020A5
:103DC000581D0020C41E00207C590410581E0020DD
:103DD0009F340020AC590410601E0020C859041004
:103DE000C81E0020F4590410DD0F0010F049020035
:103DF0008807020070B505000C00514A23790A2B90
:103E000000D99BE09B00D3589F462188280066314B
:103E1000C9006918FFF7EEFF4A4B1A88272A05D810
:103E20001A886632D200505128221A8070BD246848
:103E30006634E4002C19E1E72488424B1C80663488
:103E4000E4002C19DAE7218828006631C9006918D6
:103E5000FFF7D0FF80231B069C466044E6E72188DD
:103E600028006631C9006918FFF7C4FF6188061C85
:103E70006631C90069182800FFF7BCFF0100301C3B
:103E800005F0BEFAD2E7218828006631C90069181A
:103E9000FFF7B0FF6188061C6631C9006918280069
:103EA000FFF7A8FF0100301C05F0A7FABEE7218844
:103EB00028006631C9006918FFF79CFF6188061C5D
:103EC0006631C90069182800FFF794FF0100301C13
:103ED00005F0ADFAAAE7218828006631C900691803
:103EE000FFF788FF6188061C6631C9006918280041
:103EF000FFF780FF0100301C05F085FA96E7218866
:103F000028006631C9006918FFF774FF6188061C34
:103F10006631C90069182800FFF76CFF011C041CFA
:103F2000301C05F070FA05F0DBFC011C201C05F0CC
:103F30007EFA011C301C05F060FA77E7206875E70F
:103F4000381D05109C340020574B8200F0B5D45822
:103F500000234E464546DE4657469946534BE0B54C
:103F6000E226984685B003907600A7597B6A3A6AA4
:103F7000934200DB68E09A00D55901337B62002D43
:103F800062D02B7E082BF0D842469B00D3589F4628
:103F900029002823464F200008313B80FFF72AFFE5
:103FA0003B88272B03D83B886633DB0018514149F7
:103FB00005F03DFA28238246290020003B80FFF7C8
:103FC00019FF3B88272B03D83B886633DB00185149
:103FD000290028238346103120003B80FFF70AFF89
:103FE0003B88272B03D83B886633DB001851324AC5
:103FF0005946C3B200920398524600F01DFF0021BB
:10400000504605F061FA0028AFD005B0F0BCBB46C1
:10401000B246A946A046F0BD254B29009B46282361
:104020005A4620001380FFF7E5FE5B461B88272BCE
:1040300004D85B461B886633DB001851002105F06D
:1040400033FA002800D190E7BA6A002ADDDB4B463C
:104050007B62CB239B00E2502C235343C933FF33B5
:10406000E318A35181E70122144BE2547DE70022BB
:10407000134BE25479E70122114BE25475E7CB234D
:104080002A689B00E2502C235343E222C933FF33BA
:10409000E3185200A35068E700237B6265E7002223
:1040A000064BE25461E7C046F8230020641D05106A
:1040B0009C34002000007A44C540001075040000C4
:1040C0007404000010B5032801D8FFF73DFF10BDB0
:1040D000F0B5C64600B5804682B0180014000F0047
:1040E00005F008FA011C061C20000BF017FC022149
:1040F000200049420BF00AFD0121200049420AF04C
:10410000A9FF02210500494220000AF057FE042DB4
:1041100052D01FDC012D00D16EE0032D48D12000CC
:10412000311C0BF0FBFB0221200049420BF0EEFC9E
:104130000121200049420DF075FD051C02212000DF
:1041400049420AF03BFE00233D603B7102B080BC57
:10415000B846F0BD052D2BD12000311C0BF0DEFB45
:104160000221200049420BF0D1FCFE2120008905EC
:104170000BF0D4FB0221200049420BF0C7FC0121C7
:104180000022494220000DF011FD0221057849422C
:1041900020000AF013FE4E2D4DD8222D41D92B00C0
:1041A000233BDBB22B2B3CD86A4A9B00D3589F465B
:1041B000694807F0A3FEC9E72000311C0BF0AEFBF5
:1041C0000221200049420BF0A1FC012100224942BA
:1041D00020000DF0EBFC0221037801AD2B70437839
:1041E000494220006B700AF0E9FD280000F0F0FD64
:1041F000012338703B71A9E72000311C0BF08EFBC6
:104200000221200049420BF081FC0121200049429B
:104210000BF0C4F90025002800D18FE7FE25AD057D
:104220008CE729004D4807F0EDFE022120004942AD
:104230000AF0C4FD8AE704237E2DF2D18E223B7161
:104240004346D2009B58272B7DDC4046591C8150A9
:104250003B806633D9002200022340464144FFF7E9
:1042600037FFE2E780212000C9050BF057FB022150
:10427000200049420BF04AFC0121200049420DF088
:1042800009FD02210500494220000AF097FD0323A1
:104290003D803B71C9E70323D0E780212000C90599
:1042A0000BF03CFB0221200049420BF02FFC0121C6
:1042B000200049420DF0EEFC022105004942200099
:1042C0000AF07CFD02233D603B71AEE708238E229D
:1042D0003B714346D2009B58272B2EDC4046591C8D
:1042E00081503B806633D90022000223404641447E
:1042F000FFF7EEFE8E224346D2009B58272B16DC9A
:104300004046591C81507B806633D900220003232C
:1043100040464144FFF7DCFE87E70623D7E7052345
:10432000D5E70723D3E70923D1E70A2386E70C481B
:1043300007F0E4FD01235B42E5E7094807F0DEFDF5
:1043400001235B42CDE7064807F0D8FD01235B421D
:104350007EE7C046881D0510545A04102C5A0410DC
:104360000C5A0410F0B50C00D64646464F46FE21C6
:10437000C0B58905050020000BF0D0FA022120000D
:1043800049420BF0C3FB0121200049420AF062FEC2
:1043900002210600494220000AF010FD042E00D13F
:1043A00073E0052E66D1E0225200AB580F2B00DDE2
:1043B000B3E0DE00F61AB6000133AE19AB50E223CB
:1043C0005B00EF583B6A072B00DD9AE09A0001334F
:1043D000D651CA203B620323800033762A58072A2D
:1043E00000DD93E02C2353431900E227C931FF314C
:1043F00069187F00EB18E9511F000021E937FF37EA
:1044000039607960CB2189006F58F133FF331F6029
:10441000531C6A502B5001213260200049420BF09E
:104420006DF90126071E17DD300005F063F8011C49
:1044300020000BF073FA0221200049420BF066FBCA
:1044400021002800FFF78EFF02212000494201369B
:104450000AF0B4FCB742E7DAE2225200AB58996A9C
:10446000CB239B00E9502C234B43C933FF33EB187C
:10447000AB5005E0584807F041FD584807F03EFDB5
:10448000E0BCBA46B146A846F0BDE0235B00EF5859
:104490000F2F44DCFA00D11B90468A0091467A1C0B
:1044A000EA50E223AA465B00EE58CA44336A072B5F
:1044B00022DC51469A009151FE21013333622000E3
:1044C00089050BF02BFA0221200049420BF01EFB5C
:1044D00001210022494220000DF068FB02210678EC
:1044E0004942483E2000F6B20AF068FC0F2E1AD866
:1044F0003B4AB300D3589F463A4807F0FFFC336A63
:10450000D7E7384807F0FAFC3B6A5FE7364807F020
:10451000F5FCCB239B00EA587DE700264FE73348A4
:1045200007F0ECFCACE7324807F0E8FCA8E74346AC
:104530000822DB1B9B00EB181A76A1E743460122F9
:10454000DB1B9B00EB181A769AE7022322005146E8
:104550002800FFF7BDFD494608310323220028004B
:104560006918FFF7B5FD49461031042322002800E1
:104570006918FFF7ADFD43460022DB1B9B00EB18DB
:104580001A767DE743460622DB1B9B00EB181A7662
:1045900076E70223220051462800FFF799FD4346A3
:1045A0000222DB1B9B00EB181A7669E743460722C1
:1045B000DB1B9B00EB181A7662E743460422DB1BE9
:1045C0009B00EB181A765BE743460522DB1B9B003A
:1045D000EB181A7654E7C046D85A0410F45A04105F
:1045E000381E05108C5A0410BC5A04106C5A041062
:1045F000A45A041010B50400032822D88F20C0004C
:1046000005F078FC002819D00F4BE022A400E05000
:104610000023520083500200E221C9324900FF32D8
:104620004250CA22C63992008350FF390432815069
:104630004532FF328350054A835210BD044807F0CB
:104640005DFC0020F9E7C046F82300207404000058
:10465000485B041010B503282BD8164B8000C058B7
:10466000E022040000235200C9348350FF34043296
:1046700084500124283283502C3283502C328350B2
:104680002C3283502C3283502C3283502C32835066
:104690002C328350393AFF3A8350644208328450B6
:1046A0003D32FF328350CA2301229B00C250FFF7E4
:1046B00059FE10BDF8230020F0B5D6464F464646B9
:1046C0000400C0B503284ED8404E8300F0589A46E7
:1046D0003F4BC25C002A00D072E0012951D0002972
:1046E0006AD13C4BC35C002B66D000239846CB2399
:1046F0009B009C462C27C531FF3143585A6A1D6ADE
:10470000AA421DDA9500ED5801325A62002D17D0E9
:104710002A7E062A21D0022AEFD19A6A002AECDBEF
:1047200000255D62CB239B00C2502C235343C93329
:10473000FF33C318435043585A6A1D6AAA42E1DB4B
:104740009A6A002A14DB45465D626346C2507A438A
:10475000C932FF3282184250CFE700221D4BC254AB
:104760002000FFF7F1FBE0BCBA46B146A846F0BD19
:10477000194807F0C3FB5346F058154BC35C002B98
:10478000F1D10200E223C932FF325B00C250F622AF
:104790000023520083502C3283502C3283502C3211
:1047A00083502C3283502C3283502C3283502C3245
:1047B0008350084A8352D3E7084807F09FFBD2E7AB
:1047C0000229D0D10022C254CDE7C046F8230020F0
:1047D0007504000074040000645B0410585B04104E
:1047E00010B503280DD8084B8000C2588E23DB007B
:1047F000D058272802DC411CD15010BD034807F0D7
:104800007DFB01204042F8E7F82300200C5A0410F9
:10481000032806D8034B8000C2588E230021DB00FA
:10482000D1507047F823002003280BD8064B800096
:10483000C358C9005B18CC2189005A50CD220021F1
:10484000920099547047C046F823002010B5032801
:1048500010D8CD22084B8000C358C9005B189200C5
:104860009A5C002A03D1CC229200985810BD0348CC
:1048700007F044FB0020F9E7F8230020885B0410D0
:10488000011C802010B5C00505F0C0F810BDC04661
:10489000F8B5037B06000D001400022B38D025D894
:1048A000002B13D02800424901F094FC414B010039
:1048B0002200180001F0A4FC22003F4901F05EFC38
:1048C000BF212200090601F085FC05002200316AA3
:1048D000280001F07FFC2200B16801F04FFC374B4B
:1048E0009C466444A40063597362F8BD032B20D135
:1048F0002800314901F042FC2200314901F06AFCF4
:10490000304B01002200180001F07AFC0500DDE7C1
:1049100028002D4901F05EFC2A4B010022001800FE
:1049200001F06EFCFE212200890501F03DFC05002E
:10493000CCE7002AD9DD0027052B1AD0042B2DD077
:104940002968306A04F073FDB16804F059FD01373D
:10495000706201C5BC42F3D1C7E70021306A04F0A0
:1049600066FDB16804F04CFD0137706201C5BC42C0
:10497000BBD00021286804F097FD0028EDD1316AF2
:10498000B068EFE70021306A04F051FDB16804F02F
:1049900037FD0137706201C5BC42A6D0FE212868F0
:1049A000890504F089FD0028ECD0B168306AEEE793
:1049B000DB0F494009960010000080BFFFFFFF3F5A
:1049C0000000204181480010000020C1F0B546469B
:1049D000D6464F46C369C0B504008846181C00215E
:1049E00016009A4604F060FD002800D0AEE03000CA
:1049F00004F080FD071C011C504604F065FD0028F2
:104A00007CD1002E00DC9BE04746A169606904F080
:104A1000F7FCFE2160618905051C504604F0EDFCA1
:104A20000021E061B946043704F03EFD002800D0C3
:104A3000C4E0237B052B0BD8B04A9B00D3589F467C
:104A40000021281C04F030FD002818D1FE25AD05FA
:104A5000216A281C04F0EBFCA16804F0D1FC4B4651
:104A6000013E60621860002E6AD0E3699A46CCE786
:104A7000FE21281C890504F01FFD0028E6D1002531
:104A8000E6E7281C04F0A6FD00229D4B03F053FE30
:104A900000229C4B03F07FFE03F074FF011C80207A
:104AA000C00504F0B3FF051CD2E79749281C04F0A9
:104AB000BEFC011C8020C00504F0A8FF011CFE20E4
:104AC000800504F09AFC051CC2E7281C04F082FD56
:104AD0008E4A8F4B03F05FFE03F054FF04F094FD09
:104AE00004F078FD0022864B03F025FE0022894B5E
:104AF00003F051FE03F046FF051CA9E70021206AE0
:104B000004F0C4FC00283CD0002E09DD00234146FF
:104B100065699A0001338D509E42F8D1E3699A4647
:104B20005046391C04F069FC42467B4BE061F318A7
:104B30009B009B586361320041462000FFF7A8FEAE
:104B40004046E0BCBA46B146A846F0BD002E09DD9D
:104B50000023404661699A00013381509E42F8D19A
:104B6000E3699A4650466D4904F0AEFC0028E2D055
:104B7000300004F0BFFC011C504604F03EFCE06134
:104B8000D9E7A5690021281C04F080FC0028BBD1CE
:104B90006169281C04F034FC4346C14601251860B5
:104BA000012EBBDD04239C46A169E14404F028FCEE
:104BB0004B4601351860AE42F4D1AFE7FE239B05AA
:104BC00063612369002B28D000222261626820687B
:104BD000626298472269237B002A1FD06069052BF7
:104BE0000AD84F4A9B00D3589F46002104F05CFC32
:104BF000002848D1FE208005216A04F018FCA16835
:104C000004F0FEFB4B4660621860012E98D039001C
:104C10002000721EFFF7DAFE92E7237BFE200022BF
:104C200080056061A261022B66D0216A04F0FFFB5F
:104C3000A16804F0E5FB4B466062751E1860002316
:104C4000012E05D061699A000133B9509D42F9D116
:104C5000E6693249301C04F037FC002807D02800F0
:104C600004F048FC011C301C04F0C7FBE0612A0082
:104C700039002000FFF70CFE62E7FE21890504F0F1
:104C80001BFC0028B6D10020B6E704F0A3FC0022EC
:104C90001B4B03F050FD00221A4B03F07CFD03F088
:104CA00071FE011C8020C00504F0B0FEA4E7164987
:104CB00004F0BDFB011C8020C00504F0A7FE011C10
:104CC000FE20800504F099FB96E704F083FC0F4A70
:104CD0000F4B03F060FD03F055FE04F095FC04F06B
:104CE00079FC0022064B03F026FD0022094B03F05D
:104CF00052FD03F047FE7FE70A4896E7781E05104D
:104D00000000F03F00002440000020C1182D445452
:104D1000FB2109400000E0BFFFFFFF3F000080C40F
:104D2000901E051000C07F3F254B10B51870830002
:104D30001818C00005F0DEF8224B186000283BD0A0
:104D4000012484620400002300221F4928340260E9
:104D5000027302614360836043618361C1610362E6
:104D60004362C36203632273022404650400503467
:104D70008263C363036441648364C364436583657E
:104D80002273032484677D34026643668366C166AA
:104D900003674367C3670351040078342273882490
:104DA00002518C32835004328350043281500432D9
:104DB00083500432835010BD044807F09FF8FAE78F
:104DC000AA3400204C310020000080BFA05B0410FA
:104DD0000378602B01D82033DBB2653BDBB2122BAA
:104DE00003D80D4A9B00D3589F46002070470520EA
:104DF000FCE740786F38434258414000F6E7042012
:104E0000F4E70620F2E70820F0E70720EEE70320AA
:104E1000ECE70120EAE7C046A81E0510032807D8E2
:104E2000044B1A6883001B18DB00D318586A7047BC
:104E30000020FCE74C310020F0B5C6460D1C00B543
:104E4000161C03282CD80027314982000C68121840
:104E5000D200A4182373069B65602361E369391CA3
:104E6000301C984604F020FB00281CD1616A281CE5
:104E7000A16004F0C2FA27492062301C04F0D7FA7E
:104E8000011C051CFE20800504F0BDFA391C061C1F
:104E9000404604F003FB002815D1E561A661676177
:104EA00080BCB846F0BDFE239B054046A560656208
:104EB00027626361391C04F007FB0028F0D08023CF
:104EC0001B06E361ECE74046134904F0FDFA0028B5
:104ED000E3D080231B0643441800311CA66104F074
:104EE000A6FA391C04F08CFA41466061281C04F0D3
:104EF00087FA391CE06104F0D7FA0028D0D00748BF
:104F000006F0FCFF064BE361FE239B056361C7E7E8
:104F10004C3100200000404200C07FC4B85B041048
:104F2000ACC5273710B5032808D8054C83001B18DB
:104F30002068DB00C018FFF749FD0100080010BD24
:104F40004C310020F8B5DE4657464E4645461E4BCE
:104F5000E0B518604301181A800004F0CBFF1B4B2A
:104F6000060000271860002829D00C239B46184B08
:104F70009A46FE239B059946002398463500002457
:104F800080C5200004F0B6FA013401C5182CF8D110
:104F90005B4673665346B3664B46F3664346002250
:104FA00033677423F25443460137B3677C36042FCA
:104FB000E4D1F0BCBB46B246A946A046F8BD0548C0
:104FC00006F09CFFF5E7C0460028002004280020DA
:104FD00000004041D85B0410030010B50800032B0B
:104FE0000DD8002A0BDD06498C4662449200145805
:104FF000044A11685A01D31A9B00CB189C6710BD54
:10500000FFFFFF3F042800207047C046F0B5C646AA
:10501000866F040000B50D1C002E00DCB4E0816B2F
:10502000281C04F03BFA002800D0ADE0012E00D18E
:10503000B1E0E16B281C04F031FA002800D0ACE0AC
:10504000022E00D1ACE0216C281C04F027FA0028C5
:1050500000D0A7E0032E00D1A7E0616C281C04F06B
:105060001DFA002800D0A2E0042E00D1A2E0A16C1D
:10507000281C04F013FA002800D09DE0052E00D172
:105080009DE0E16C281C04F009FA002800D098E0AB
:10509000062E00D17BE0216D281C04F0FFF90028CA
:1050A00000D091E0072E00D191E0616D281C04F042
:1050B000F5F9002800D08CE0082E00D18CE0A16D1D
:1050C000281C04F0EBF9002800D087E0092E00D15D
:1050D00087E0E16D281C04F0E1F9002800D082E0AF
:1050E0000A2E00D182E0216E281C04F0D7F9002896
:1050F00000D07DE00B2E00D17DE0616E281C04F015
:10510000CDF9002800D078E00C2E00D178E0A16E17
:10511000281C04F0C3F9002800D073E00D2E00D144
:1051200073E0E16E281C04F0B9F9002800D06EE0AD
:105130000E2E2ED0216F281C04F0B0F900286BD160
:105140000F2E67D0291C606F04F0BEF910250F26C2
:10515000002802D110260F2502358023E358AB42E8
:105160000FD0A768002F0AD0227828009046AB42C3
:1051700000DBF04304F0BEF9011C4046B847802331
:10518000E55080BCB846F0BD01250026E5E70525C1
:10519000E2E70D25E0E70025DEE702250126DCE752
:1051A0000125D9E703250226D7E70225D4E7042500
:1051B0000326D2E70325CFE705250426CDE70425FE
:1051C000CAE706250526C8E707250626C5E70625FA
:1051D000C2E708250726C0E70725BDE709250826F9
:1051E000BBE70825B8E70A250926B6E70925B3E78E
:1051F0000B250A26B1E70A25AEE70C250B26ACE7FE
:105200000B25A9E70D250C26A7E70C25A4E70E25FD
:105210000D26A2E70E259FE70F250E269DE7C04627
:10522000F423F0B5C646C658050000B5002E17D0C9
:10523000336849004C08211C181C984604F0DDF81E
:105240004146071C201C04F03FF9002811D1F168E9
:10525000381C04F0ECF8211C04F0D2F8011C30607A
:10526000FC22AB58013BAB50002B04DD80BCB846A0
:10527000F0BDB168ECE7F823EB58AB50AB68002BFE
:10528000F4D028789847F1E7F423F0B5C646C5581E
:10529000060000B50C1C002D17D02B684C006408CC
:1052A000211C181C984604F0A8F84146071C201C35
:1052B00004F00AF9002845D1E968381C04F0B7F871
:1052C000211C04F09DF8041C2860F068211C04F0E7
:1052D000E5F8251C00280ED186235B00F058211C20
:1052E00004F08BF884235B00F15804F0A0F8211C33
:1052F00004F086F8051C86235B00F5500C3BF05843
:105300000433F158337C002B0CD004F076F8291CC0
:1053100004F0DAF8002801D000233374F46080BC74
:10532000B846F0BD04F06CF8291C04F0B7F800286A
:10533000F4D001233374B368002BEFD00021307810
:105340009847EBE7A968B8E7F8B504004E4645462C
:10535000DE4657468434E0B50600A06D0D1C04F00F
:105360009DF8002805D1E06D291C04F0ADF8002857
:1053700074D0E36CA76C181C291C984604F040F804
:10538000391C04F040F8051C04F0AAFA04F0D4F823
:10539000606604F0AFF8236C814618009A4604F06A
:1053A000A9F849468346281C04F027F8011C5846F2
:1053B00004F03DF804F094FA04F0BEF805008245CC
:1053C00052DDEB438422DB171D40AB002566F3184A
:1053D0009B5848469A46636C191C9B4604F027F874
:1053E000514604F00DF85946A066504604F00BF8FB
:1053F000494604F005F8391C04F019F8B368E06672
:10540000002B0AD0002130789847606E04F072F8C3
:10541000E36C81469846256EA76C266D280004F043
:1054200069F8311C04F003F8391C051C484603F0E8
:10543000FEFF011C281C03F0E3FF414603F0DDFFE3
:10544000676D051C391C03F0D8FF391CE065281C6A
:1054500003F0D6FF311C03F0D3FFA065F0BCBB46C0
:10546000B246A946A046F8BD5546013DA9E7C0464B
:10547000836A10B5013B8362002B00DD10BD436AD7
:1054800083628368002BF9D000789847F6E7C0461E
:1054900070B50400227CC06A236B0D1C002A17D053
:1054A000191C03F0AAFF291C04F00EF800280ED0E6
:1054B00000232374236A013323623423E356012B30
:1054C00005D0A368002B02D000212078984770BD3A
:1054D000011C181C03F094FF291C03F0DFFF0028B7
:1054E000F5D001232374E3690133E3613423E356E8
:1054F0000133ECD0A368002BE9D0FE212078890588
:105500009847E4E78821F8B50F4B4900186006007A
:1055100004F00EFD0D4A03001060002E13DD002282
:105520000020002100250A4F0A4C1A709C61DD61A1
:10553000D8601974586119625F6099600132113343
:10554000FF339642F1D1F8BD702900207429002064
:1055500009500010C77ED300074A0300126890422A
:1055600008DA064A1068002803D01A01D3181B0174
:10557000C01870470020FCE7702900207429002023
:1055800010B5041E1FD0124932F026FE002818D094
:105590002378752B0DD020000E4932F01DFE002817
:1055A00013D020000C4932F017FE434258414042CC
:1055B00010BD6378702BEED1A3780120002BF7D0BB
:1055C000E9E70120F4E70020F2E701204042EFE79D
:1055D000F05B0410F85B0410EC840410002803D086
:1055E000024B4360002383607047C046095000109F
:1055F00010B50400101C002C0BD0074BA160636099
:10560000064903F014FF03F097FF002802DD6062F3
:10561000A06210BD0120FAE7715400100080BB4465
:1056200070B500261D1C04AB04009E5700280ED048
:10563000084B81604360C2620749281C03F02EFFBB
:10564000002805D134232563E6540023237470BD5C
:10565000014DF7E7915400106F12833AF0B5C6463A
:10566000050000B5002800D18EE0002A00D18BE0B3
:10567000102B00DD88E02C00A9607B48069984345B
:1056800068606164079984262364A164002B00D1BB
:105690007DE03DDD1168A951012B39D05168616071
:1056A000022B35D09168A160032B31D0D168E16025
:1056B000042B2DD011692161052B29D0516961611D
:1056C000062B25D09169A161072B21D0D169E16119
:1056D000082B1DD0116A2162092B19D0516A616211
:1056E0000A2B15D0916AA1620B2B11D0D16AE1620D
:1056F0000C2B0DD0116B21630D2B09D0516B616305
:105700000E2B05D0916BA163102B01D1D26BE263FC
:10571000180003F0EFFE8046FC210798890503F08E
:1057200086FE069903F06FFE4146E064051C07986B
:1057300003F069FE4D492065071C03F064FE4C49E7
:10574000061C03F0ABFE002800D0494E49490798DB
:10575000666503F06CFE00218046381C03F067FE8E
:10576000011C404603F04CFE291C03F046FE311C90
:10577000051C03F042FE291CE065301C03F040FECE
:10578000391C03F03DFEA06580BCB846F0BD832106
:105790000698C90503F098FE002848D0102323641A
:1057A0000023AB51FE239B0563608023DB05A360D0
:1057B0008323DB05984610272F4BE360042FABD0E3
:1057C0008123DB052361052FA6D02C4B6361062FB7
:1057D000A2D02B4BA361072F9ED02A4BE361082F49
:1057E0009AD08223DB052362092F95D0264B636272
:1057F0000A2F00D190E7254BA3620B2F00D18BE736
:10580000234BE3620C2F00D186E7224B23630D2F3D
:1058100000D181E7204B63630E2F00D17CE71F4B43
:10582000A3630F2F00D177E71D4BE36374E706985E
:1058300003F082FE2064070003F05CFE8046002F28
:1058400000DC69E70023AB51012F00D164E7FE23A0
:105850009B056360022F00D15EE78023DB05A36018
:10586000032FA9D158E7C046495300100000A041BA
:10587000A69BC43B000020C1000040400000A040A7
:105880000000C0400000E040000010410000204146
:1058900000003041000040410000504100006041E4
:1058A0000000704110B500284CD0002A4AD0102BBF
:1058B00048DC254C816002994460C1670024802146
:1058C00083674450002B3DDD11688163012B39D083
:1058D0005168C163022B35D091680164032B31D02C
:1058E000D1684164042B2DD011698164052B29D026
:1058F0005169C164062B25D091690165072B21D020
:10590000D1694165082B1DD0116A8165092B19D019
:10591000516AC1650A2B15D0916A01660B2B11D013
:10592000D16A41660C2B0DD0116B81660D2B09D00D
:10593000516BC1660E2B05D0916B0167102B01D105
:10594000D36B436710BDC0460D50001070B5040006
:10595000151C002812D0F426124B81604360835935
:10596000002B0ED01049281C03F061FD03F0E4FD6C
:10597000002804DDF823E0500433E05070BD01201E
:10598000F8E7102004F0B6FA002809D000230360DD
:10599000064BA0514360064B8360064BC360E1E7B2
:1059A000A051DFE7215200100080BB44BC74933C3F
:1059B000DB0D7D3F31B47F3FF8B50400161C1D1C84
:1059C000002813D0F427124B81604360C359002B89
:1059D0000DD080235B00E6500E4A0433E5500433BB
:1059E000E25000220433E25000232374F8BD10205B
:1059F00004F080FA002809D000230360064BE05130
:105A00004360064B8360064BC360E2E7E051E0E78A
:105A1000895200100AD7233CEC51383E31B47F3F05
:105A20006AF87F3F002802D0014B816043607047D5
:105A300009500010134B70B51B680D1C834218DD14
:105A4000114B1C68002C14D003011B181B01E41817
:105A5000A2690E4B9A4205D00D4E3368002B09D037
:105A60000A4BA36163686561002B02D02000291CEA
:105A7000984770BD074B0100180006F0C3FA0123D8
:105A80003360EDE77029002074290020C77ED30021
:105A900098340020005C0410010010B5002802D0EA
:105AA000014806F0AFFA10BD285C041070B5164E20
:105AB000840033682418A4001B191969050000F03C
:105AC0003BFA336811491B191A6901328A4200DD19
:105AD0000A00D9681A61002901DB914200DB70BD20
