:020000041000EA
:1000000000B5324B212058609868022188439860DF
:10001000D860186158612E4B002199600221596106
:100020000121F02299502B49196001219960352056
:1000300000F044F80222904214D00621196600F024
:1000400034F8196E01211966002018661A6600F04E
:100050002CF8196E196E196E052000F02FF8012189
:100060000842F9D1002199601B49196000215960AB
:100070001A491B48016001219960EB211966A021F2
:10008000196600F012F800219960164914480160C1
:100090000121996001BC002800D000471248134993
:1000A000086003C880F30888084703B5996A0420EC
:1000B0000142FBD001200142F8D103BD02B5186610
:1000C0001866FFF7F2FF186E186E02BD00000240BE
:1000D000000000180000070000035F00212200005C
:1000E000F4000018222000A00001001008ED00E03C
:1000F00000000000000000000000000074B24E7A12
:1001000000200420F7010010CB010010CD010010E9
:10011000C9010010C9010010C9010010C901001077
:10012000C9010010C9010010C9010010CF01001061
:10013000C9010010C9010010D1010010D301001045
:10014000C1010010C1010010C1010010C101001067
:10015000C1010010C1010010C1010010C101001057
:10016000C1010010C1010010C1010010C101001047
:10017000C1010010C1010010C1010010C101001037
:10018000C1010010C1010010C1010010C101001027
:10019000C1010010C1010010C1010010C101001017
:1001A000C1010010C1010010C1010010C101001007
:1001B000C1010010C1010010C1010010C1010010F7
:1001C000EFF30580103800BE00BE00BE00BE00BECA
:1001D00000BE00BEF2EB887190020010B402001065
:1001E0003802001090A31AE721482249086006C887
:1001F00081F30888104720480068002801D01C4877
:10020000F3E70DA40ECC002902D000F012F8F9E7B4
:100210001A491B4A002000E001C19142FCD1194952
:100220008847194988471949884700BEFDE701C931
:1002300001C29A42FBD37047B4020010C0000020F4
:100240008CA5002080A7001090A50020D8D8002001
:10025000C8DA00100000042000000420C8DA0010F2
:10026000001004200010042000000000704700006F
:100270000000000008ED00E0000000D0D8D8002009
:10028000A4EE00201D5800208133002015580020C6
:10029000C0CF0020CCCF0020D8CF0020E4CF00205A
:1002A000F0CF0020FCCF002008D0002044D1002057
:0402B00038D1002021
:1002B400F8B5C04606480749091A8B10C90FC91872
:1002C40010B5491003D0044B002B00D0984710BD43
:1002D400D8D80020D8D8002000000000054B10B565
:1002E400002B03D00449054800E000BFFFF7E2FFFC
:1002F40010BDC0460000000060EE00208CA5002068
:10030400A423082130B5FF24134A1448D1501449BA
:1003140002680B680D689B1AA343521BD218026033
:10032400104A1B02944612680F4853401B0C0F4D91
:100334001B0403602A684B6849689B1AA343521A3A
:10034400D2182A6062461B0212681B0C53401B041D
:100354001B0C036030BDC0460000054008E10020CE
:1003640054D1002048000540481005400CE100200D
:10037400F0B5502387B017256A460405240F1C43A3
:100384006D44AF3393750F00287004F0D9FD00233A
:10039400194A80185941002902DA012017494042BC
:1003A40000230290039100932A0021001448013392
:1003B40005F0AAFF00281ADD04F0C2FD00230E4A4E
:1003C40080185941002902DA01200C4940420023D7
:1003D40016220290039100932100094801336A44D4
:1003E40005F0B2FF002802DD6B46987D02E0012390
:1003F40000203B7007B0F0BD10270000FFFFFF7F17
:1004040020D20020F0B5DE4657464E464546E0B5BC
:10041400642091B004F06AFCF0235E4FFB5C0C2B6B
:1004240000D0B5E0D0231B065A68802310005B037C
:1004340018401A425CD0012401236A466946002010
:10044400138006F03FF9002C58D0012000214042CF
:1004540006F0ACF940236A460021002006F0F4FEC1
:100464000028F2D000224C4B9346F95C4B4B944647
:10047400FB5C0F3298464A4B9246FC5CB9466B468D
:1004840068441BE0554627002600AF431F25AE43B2
:10049400802E01D0E02F0ED194254E1CAD0049448E
:1004A400F6B24A55012E47D952462240424530D031
:1004B400012200219346013398420DD01A78F72A7D
:1004C400F9D856B2002EDDDA140001220133934626
:1004D400002194469842F1D15B464F46002B01D04F
:1004E4002D4BF9546346002BAFD02D4BFC54ACE795
:1004F40002236A466946138008F0ECF901200021C2
:10050400404208F09FFC01200021404208F09AFC80
:10051400F4E794214A468900515C902F10D0802F33
:1005240013D04D461F4AAA5CD2010A431E495218F1
:10053400962189006A50BBE7012231009346BAE74D
:100544004D46184AAA5C002A12D14D46174AAA5CA5
:100554008A42ADD1D822FF32AA5C002A12D0EB2203
:100564005200AA5C002A0DD00121114AA9549FE728
:10057400104EA955952189006A54494601250E4A11
:100584008D5495E7972200214D469200A9548FE798
:10059400022451E700DB0020520200005E0200004A
:1005A4004F0200005102000000E0FFFF560200006D
:1005B4005D020000530200005502000010B5024B1A
:1005C40018680AF0C9F910BDE0E0002070B5D02524
:1005D40001220021072003F097FC012200210620BC
:1005E40003F092FC0122002105202D0603F08CFC6F
:1005F4000120002104F004FB6A686C686B686406DF
:100604009B06E40FDB0F1B01A4001C431306DB0F46
:100614000022012107201C4303F076FC0022012163
:10062400062003F071FC00220121052003F06CFC7C
:100634000120002104F0E4FA69686A6809066B681D
:10064400C90F52064900D20F9B060C43D200DB0FA0
:100654005B0100210720144301221C4303F054FCD6
:1006640001220021062003F04FFC64B20122002184
:10067400052003F049FC2A2C05D0302C03D0FF20A0
:100684000C2C00D070BDE0B2FCE7C046F0B54E467D
:10069400DE4657464546E0B5431824331B7885B0FB
:1006A400994601900291002B00D129E280468B00EB
:1006B40003935B181B01984444462C20205605F0F4
:1006C40051F8DB4905F017F84546041CA86A05F003
:1006D40049F8211C051C201C05F00DF8211C061CE2
:1006E400281C05F008F84A46071C012A00D1A1E19C
:1006F40042463420105605F035F8CD4904F0FBFF8E
:1007040042468246106B05F02DF851468346201C64
:1007140004F0DAFF5946041C281C04F0D5FF5146A6
:10072400051C504604F0E7FF011C301C04F0CCFF0C
:100734005146061C584604F0DEFF011C381C04F028
:10074400C3FF4A46071C022A00D173E142463C20FB
:10075400105605F007F8B64904F0CDFF424682462C
:10076400906B04F0FFFF51468346201C04F0ACFF5D
:100774005946041C281C04F0A7FF5146051C50468A
:1007840004F0B9FF011C301C04F09EFF5146061C06
:10079400584604F0B0FF011C381C04F095FF4A468B
:1007A400071C032A00D145E142464420105604F0B8
:1007B400D9FF9F4904F09FFF42468246106C04F023
:1007C400D1FF51468346201C04F07EFF5946041C89
:1007D400281C04F079FF5146051C504604F08BFF99
:1007E400011C301C04F070FF5946061C504604F0EE
:1007F40082FF011C381C04F067FF4A46071C042AC8
:1008040000D117E142464C20105604F0ABFF884952
:1008140004F071FF42468246906C04F0A3FF5146F7
:100824008346201C04F050FF5946041C281C04F085
:100834004BFF5146051C504604F05DFF011C301C63
:1008440004F042FF5946061C504604F054FF011CB4
:10085400381C04F039FF4A46071C052A00D1E9E098
:1008640054234246D05604F07DFF714904F043FFFF
:1008740042468246106D04F075FF51468346201CA3
:1008840004F022FF5946041C281C04F01DFF5146A5
:10089400051C504604F02FFF011C301C04F014FF0B
:1008A4005946061C504604F026FF011C381C04F06F
:1008B4000BFF4A46071C062A00D1BBE042465C20D7
:1008C400105604F04FFF5A4904F015FF4246824681
:1008D400906D04F047FF51468346201C04F0F4FE5B
:1008E4005946041C281C04F0EFFE5146051C5046D2
:1008F40004F001FF011C301C04F0E6FE5946061CFE
:10090400504604F0F8FE011C381C04F0DDFE4A4693
:10091400071C072A00D18DE042466420105604F0DB
:1009240021FF434904F0E7FE42468246106E04F07C
:1009340019FF51468346201C04F0C6FE5946041C88
:10094400281C04F0C1FE5146051C504604F0D3FE99
:10095400011C301C04F0B8FE5946061C504604F035
:10096400CAFE011C381C04F0AFFE4A46071C082AC4
:1009740060D042466C20105604F0F4FE2C4904F07A
:10098400BAFE42468246906E04F0ECFE5146804622
:10099400201C04F099FE4146041C281C04F094FE1B
:1009A4005146051C504604F0A6FE011C301C04F000
:1009B4008BFE4146061C504604F09DFE011C381C6B
:1009C40004F082FE4A46071C092A33D0019A029891
:1009D4009046039B1B181B019844434674201856E9
:1009E40004F0C0FE124904F086FE43468246186FA6
:1009F40004F0B8FE51468046201C04F065FE4146D2
:100A0400041C281C04F060FE5146051C504604F0EA
:100A140072FE011C301C04F057FE4146061C504671
:100A240004F069FE011C381C04F04EFE071C01E0B2
:100A3400CDCCCC3D484604F095FE311C804604F0F4
:100A44005AFE211C061C201C04F055FE011C301CFF
:100A540004F037FE0021061C04F07CFE002841D17E
:100A6400391C404604F047FE211C071C281C04F0D6
:100A740042FE011C381C04F024FE311C04F027FE45
:100A8400211C061C04F037FE011C281C04F019FE6E
:100A9400414604F01CFE1C49041C301C04F02BFECF
:100AA400FC21890504F010FE04F07EFEFC21814641
:100AB4008905201C04F008FE04F076FE029B019ACE
:100AC4001B01D3181A00C832166054604946D0225C
:100AD40099500432985005B0F0BCBB46B246A946C2
:100AE400A046F0BD4146281C04F0F1FDFC21890517
:100AF400041C04F0E9FD04F057FE00239946DDE7E9
:100B040000200026014CD9E7ABAAAA3F0000C07F11
:100B1400F0B5454657464E46DE460300E0B524335D
:100B2400A1B002000593032328321400002598463F
:100B3400EC27CA4E069007924246059B29005A5557
:100B440000232373C64B2771A36014232375C54B5D
:100B5400266023610698FFF799FD6B1C503401252C
:100B6400022BE9D1133304AA99180020FFF700FCE3
:100B7400152304AA991804020120FFF7F9FBBA4BC4
:100B840004439C4200D060E1162304AA9B189A46B1
:100B940017239B189846B54B00249B46FF23002738
:100BA4009946B34E0AAD1BE004F0CAF980197941A5
:100BB400002902DA0120AF49404200230290039148
:100BC4000093524650215846013305F0BDFB0028DE
:100BD40020DD53461B7801342B700135582C1FD06F
:100BE40053464A461A7043461C7004F0A9F980190A
:100BF4007941002902DA01209E49404200230290F3
:100C040003910093424650215846013305F07CFB82
:100C14000028C9DC002301342B700135582CDFD1A6
:100C24000AA8954B954956300AAA20E05B001CB2ED
:100C3400002C27DB5C0023B2002B28DB640023B2EA
:100C4400002B29DB640023B2002B2ADB640023B2CF
:100C5400002B2BDB640023B2002B2CDB640023B2BB
:100C6400002B2DDB630001329BB290422ED014780E
:100C7400240263401CB2002CD8DA64004C4024B235
:100C8400231ED7DA64004C4023B21C1ED6DA5B0064
:100C94004B401BB21C1ED5DA5B004B401BB21C1E22
:100CA400D4DA5B004B401BB21C1ED3DA5B004B4012
:100CB4001BB21C1ED2DA5B004B401BB21C1ED1DAE5
:100CC4005B004B4001329BB29042D0D1562204A922
:100CD40018318A5A52BA92B29A4200D0B5E000262C
:100CE4002427079DB0460BAC13AE41462378059AE2
:100CF4005354002B00D199E0A278E178120609043C
:100D04000A4361790A43217909020A4361782A6016
:100D14002971012B00D189E0E279217A12060904B4
:100D24000A43A17A0A43617A09020A43A179AA60B3
:100D34002973022B7AD0227B617B120609040A43B1
:100D4400E17B0A43A17B09020A43E17A2A612975FE
:100D5400032B6BD0627CA17C120609040A43217D1B
:100D64000A43E17C09020A43217CAA612977042B06
:100D74005CD0A27DE17D120609040A43617E0A4328
:100D8400217E09020A43617DE9552A62052B4DD073
:100D9400E27E217F120609040A43A17FA07E0A4352
:100DA400617F09020A432C216854AA62062B3DD0B4
:100DB40032787178120609040A43F178E07F0A4315
:100DC400B17809020A43342168542A63072B2DD0D1
:100DD4007279B179120609040A43317A30790A43E7
:100DE400F17909020A433C216854AA63082B1DD0F7
:100DF400B27AF17A120609040A43717B707A0A43C3
:100E0400317B09020A43442168542A64092B0DD01A
:100E1400F37B327C1B0612041343B27CB17B134375
:100E2400727C120213434C22A954AB6441460698C7
:100E3400FFF72CFC434601222934904650352936CD
:100E4400012B00D051E7002000E0012021B0F0BCCC
:100E5400BB46B246A946A046F0BDC046344E050086
:100E640050FC030040A90200D107000020D200205A
:100E740010270000FFFFFF7FFFFF0000211000008C
:100E8400F8B5CE464746002580B50700EE4B102244
:100E9400036000210561C560856045600562C56128
:100EA40085614561F83004F065FD842338005B00FA
:100EB400FD520D30023308220021FD52FF3004F0B0
:100EC40059FD80238A221B015200BB520232BB52BD
:100ED40038008C2300245B001D30FC540021FE3AB2
:100EE400FF3004F047FD3800353006220021FF3082
:100EF40004F040FDB5235B00FC543E230822FF337D
:100F0400FC54D24B01261A60E022D14BD2011B685B
:100F14001340D04A13609D235B00FC54063BFC54F1
:100F24003623FF33FC540133FC543823FF33FC5481
:100F34000133FC543A23FF33FC54C74BC74C984647
:100F4400237804219946180002F0C6FF4B46042179
:100F5400581C02F0C1FF4B464A465B081F2A00D9C1
:100F6400AAE107221A4093009B18BD49BD4A9B0081
:100F74009A18591815600D60BB4959180D60BB4982
:100F84005B184146196010235360166023780133BF
:100F940059081F2B00DD8BE107220A4093009B18A0
:100FA400AF49B04A9B009A18591815600D60AE49B4
:100FB40059180D60AD495B18414619601023536000
:100FC400166023785A081F2B00D938E107211140F5
:100FD4008A005218A44992005118096840468C4668
:100FE400310019404942414060460140A048013364
:100FF400121811605A081F2B00DD1CE10721114053
:1010040040468A00521898499200511833400968A2
:101014005B4243400B409649023452181360954B8F
:101024009C428DD104F0DAFE1F211B2002F054FFF4
:10103400002200211B2002F067FF00211B2002F088
:1010440075FF1F211A2002F047FF002200211A20F9
:1010540002F05AFF00211A2002F068FF1F211C2011
:1010640002F03AFF002200211C2002F04DFF002173
:101074001C2002F05BFF1F211D2002F02DFF002227
:1010840000211D2002F040FF00211D2002F04EFF30
:10109400182002F05DFF192002F05AFFD0248023AB
:1010A40024065B04636280239B046362082002F0CD
:1010B4004FFF80235B0063620920636102F048FFF5
:1010C40080239B0063620220636102F041FF0423DA
:1010D4000022A3620121022002F016FF032002F085
:1010E40037FF0823644DA36200220121032002F08C
:1010F4000BFF2800614904F0CDFE022290464146D0
:101104006B68122013405E4A11600F222968102573
:101114005140C0320A405B490A605B4A01211360B6
:1011240002F0DAFE0121132002F0D6FE012115207F
:1011340002F0D2FE0421172002F0CEFE0421162074
:1011440002F0CAFE0022474B5049DA635A649A649B
:10115400D9641D64DE63DA635A649A64D9641D64D5
:10116400DE63FA234A499B040A68072053401B0C98
:10117400484A1B041360FA2309689B004B401B0474
:101184001B0C136002F0E4FE062002F0E1FE0520D1
:1011940002F0DEFE8023A362403BA362203BA362F5
:1011A400142002F0D5FE00220021142002F0ACFE2F
:1011B400042002F0CDFE65623749A561374805F089
:1011C4007BF80321102002F087FE0321112002F096
:1011D40083FE002002F0BCFE6662012002F0B8FE2D
:1011E400434638006362FFF7F1F9F023F8543800FE
:1011F400FFF78EFC9F23464001205B003040F854EB
:10120400563B9846B844404604F050FD14264346E5
:10121400234C244D03CB244A244B04F035FA013EDD
:1012240000196941002EF6D1434603C33800C0BCFF
:10123400B946B046F8BD032111400831E0E6032168
:1012440011400831C4E6C046ACC0002000F00440A0
:1012540000C0044000D00440FFFF000070C500201F
:1012640008000540000005400C0005401000054042
:101274000C10054076C5002000C00340286BEE002A
:1012840004F0034000D0034004E00340CF07000013
:101294004800054048100540A086010020D20020E7
:1012A4004F8167F77E7B05142D7F954C2DF45158A3
:1012B40003220A40083271E603221A40083252E639
:1012C400F0B54546DE4657464E461C00D823E0B5E9
:1012D4008BB00291FF33C35C050090460393002B4F
:1012E40074D0EB235B00C25C002A6FD0039B013BEC
:1012F400DBB2072B00D903E1CC499B005B589A462B
:10130400EA235B00EE5CD623FF33EB5C9946072EA1
:1013140001D900F098FCF30053445F68002F00D11A
:1013240023E1DE2149006A5801326A501988E62314
:101334005B00EB580591C81A50433900049301929D
:1013440004F0ECF8049B019AC018E2235B00E85017
:10135400974200D8EFE04B46072B01D900F0D7FDA8
:101364005346002240334946C9005B185968002996
:1013740000D10131E0277F00E8590130E8511B8892
:10138400814201D800F065FCE8225200AF58DB1B13
:10139400584304F0C3F8E422C3195200AB50E222CC
:1013A4005200A85880225201904201DA00F0E9FB71
:1013B400984480239E4A5B010492984510DA434680
:1013C400DB434246DB171A4090460BE0E42300223D
:1013D4005B00EB580492984480235B019845EEDB54
:1013E400934B9846B62302995B008946EA584746D0
:1013F40091444A46EA50159B002B4DDC7F433B0B3E
:1014040006934B469B0D5A0001338A4F9B055B0D97
:10141400BA5EF95E4B469B02891A9B0D4B43E10071
:101424009B129B18091B9A460B0B0905090D9B4639
:101434000B004B431B0B5A00D2184B431B0B5B0096
:10144400D31A01934B461E0D7B4B9C46B444634612
:1014540005934B46002B4CDB774B7F2E00D88DE356
:101464005246D21094464A465400A20D510001320D
:101474009205520D795EBA5E0794A402521AA40D25
:1014840054435A46A4126418062A01D900F070FC89
:101494006A4992008A589746D82280215200AB5854
:1014A40089000133AB508B422DD2DA235B00EF5815
:1014B4000433EE588022159B5201934200DB5C4BAF
:1014C4005B431B0B9800C0184000C018142104F0A3
:1014D40025F880234743BF1247445B019F4204DB46
:1014E400534F80117043814488E7FB43DB171F404F
:1014F400F7E7059B7F2B01D800F02BFD504BAFE79E
:10150400504B9A46FCE60023D6214F48AB50844604
:10151400DA2049006A584D4B40005A436244534311
:10152400170E6344803F2F501E0E6B50DC23803E09
:101534005B00EE50BEE7EA2205995200E950731CA5
:10154400DE20DBB2AB54002240002A50CD32FF3201
:10155400A9504A46072A01D900F0DEFC083B5A424A
:101564005341DAB253464033FDE60137D9E601224E
:10157400059C0892019A1B1B53435246D4461B13E5
:1015840006991B199B1A4B431B139C4481239B00F4
:10159400EA58029813005343DB1243431B13E246F9
:1015A400C118002A00DAC11AB8235B00EE588E195C
:1015B400EE50159B002B00DDE9E243465B431B0B19
:1015C4000593B30D5A0001339B055B0DBA5EF95EBA
:1015D400B302891A9B0D4B439B129B180293330D44
:1015E4009946154B4B440693002E00DA03E34B4611
:1015F40011497F2B00D852E3029BDB109846700000
:10160400830D5A0001339B055B0DBA5EFB5E8402B9
:101614009B1AA40D5C435B46A4120790A418062BE6
:1016240000D953E30A4A9B00D3589F4684C0002044
:10163400FF0F000078C5002000F8FFFFF8BF00206E
:10164400FF070000F0C000205FF36E3C0D66190038
:1016540014C000204B46BA4AD21A079B9B195B0060
:10166400980D410001308005400D795E385E9B0283
:10167400401A9B0D43439B125B1853431B1398461C
:101684000699B04B4A4352139044984500DA984661
:1016940080231B01984501DBAB4B98464B467F2BBF
:1016A40001D800F0DEFB80231B01994501D200F034
:1016B400D8FB4A46A24B51009B1AA44A5B00521A1B
:1016C400B400A419A00D410001308005400D795EDD
:1016D400385EA402401AA40D4443A41264185C4367
:1016E400534324139B13E418964B9C4200DA1C00CA
:1016F40080231B019C4200DB934C4346019AE31A6E
:101704005343029A1B13059943449B1A4B431B13DF
:101714009B1882221C0080219200AA58090154437C
:1017240024138A4200DA0A00534352461B135343DC
:10173400844A9B12934200DA1300802212019342DE
:1017440000DB814B5146149A14981201121A1202AA
:101754005B1A121353431B135E18039B002B00D117
:1017640052E2BA225200AB58002B00D14AE2013BAC
:101774001803AB50C01A602103F0F8FE704B181A1E
:10178400049B704A58430013444370430313934229
:1017940000DA130080221201934200DB6A4BF2222A
:1017A400AB52684B24139C4200DA1C0080231B01BB
:1017B4009C4200DB644CF423EC520BB0F0BCBB46FF
:1017C400B246A946A046F0BD03222300089264460F
:1017D400D0E6802372001B019E4200D347E3594B9D
:1017E400D31807934B469B004B449C0D6000013477
:1017F400A405640D385E3C5F241AA4469C0263462B
:10180400A40D5C43079BA412241854435A43241385
:1018140092134C4BA4189C4200DA1C0080231B0139
:101824009C4200DB484C4B464A46DB009A1A910D19
:1018340048000892385E07918446980D4200BA5ECB
:10184400013091468005400D385E4A4607999B0257
:10185400013189059B0D801A490D5843795E634611
:10186400C91A089B80129B029B0D4B4348449B1250
:1018740063444010C018431099467F2E00D8BBE241
:10188400059B7F2B00D829E3C0239B009E4200D2F6
:10189400B2E2C0231B019E4200D21FE32C4B300353
:1018A400301A2C49C01803F039FE0211ABE27F2E26
:1018B40000D83AE3059A1C007F2A00D857E3534620
:1018C4000222DB10089255E6902109018E4200D2D3
:1018D400AAE2042308931B4B4CE6902109018E4293
:1018E40000D342E33003801B03F018FE144B164C64
:1018F400181A40430013241A079A114B4A44520001
:10190400900D410001308005400D9B1B795E385ECF
:101914009202401A920D42439212521805995A4368
:101924004B4312135B13D318064A934200DA130095
:1019340080221201934200DB034B0522089219E630
:10194400FF0F000000F8FFFFFF070000FF17000073
:1019540001E0FF00FF030000079BD2484B445B00FB
:10196400990D4A0001318905490DBA5E795E9B02E1
:10197400891A9B0D4B43059C9B12801B9B18434368
:1019840044431B1364131C19C74B9C4200DA1C000C
:1019940080231B019C4200DBC44C802372001B018A
:1019A4009E4200D257E2C2498B1A9C4642004B46E3
:1019B4009B004B449E0D70000136B605760D385ED3
:1019C400BE5F61469B02361A9B0D73439B121B1824
:1019D40053434A431B1392139B18B34A934200DAAE
:1019E400130080221201934200DBB04B06220892BE
:1019F400C0E54B467F2B00D8A7E2069B7F2B00D87F
:101A0400C7E2029B8846DC1077E64B467F2B00D862
:101A140091E2069B7F2B00D8AEE2089B062B00D9EF
:101A2400BBE2A44A9B00D3589F464B465A008023EE
:101A34001B01994500D32AE29B4B9C469444B30076
:101A44009B199C0D60000134A405640D385E3C5F55
:101A54009B02241A9B0D63439B121B18534361463C
:101A64001B1398464A43904B92139044984500DACE
:101A7400984680231B01984501DB8C4B9846F30064
:101A84009E1BB20D94465100785E990D4C000131B5
:101A94008905490D3C5F795E624601329B029205DD
:101AA4009B0D091B520D5943BA5EB302121A9B0DCA
:101AB4005343891209199B121B184910CE184B461F
:101AC40076107F2B00D843E1C0239B00994500D2B8
:101AD4003EE1C0231B01994500D2FCE14B461803AB
:101AE400181A754B7549C01803F018FD041137E135
:101AF40090210901894500D334E24B461803C01AEA
:101B040003F00CFD674B181A4043684B00131B1A73
:101B140098464A46634B9B1A079A94196400A10D90
:101B24004A0001318905490DBA5E795EA402891A19
:101B3400A40D4C43A412A418069A5C4353432413E3
:101B44005B13E418584B9C4200DBD1E5CFE54B46D0
:101B54007F2B04D990231B01994500D3FEE14B460A
:101B640090211803C01A090103F0D8FC4D4BA0467C
:101B7400181A40434D4C0013241ABEE54B4A9446B0
:101B840071E4C243D21710400490FFF724FCD8221A
:101B940080215200AB5889000133AB508B4236D2BE
:101BA400DA235B00EB589946DC235B00EC58802376
:101BB40015985B01984200DB3A484043000B8300D0
:101BC4001B185B001818142103F0A8FC4B46434370
:101BD4009B12984480235B01984505DB314B984662
:101BE400801144433619E8E44346DB434246DB179D
:101BF4001A409046F4E72D497F2B00D9FCE42A4B88
:101C04009846FCE42748BBE5264B0493A9E500234A
:101C14008020AB50D6222A4940428C46814652004D
:101C2400AB58284C63436344190E8944DA2148466F
:101C34005C43DC23644449006850AC50240E803C6F
:101C44005B00EC50B3E7072B19D853464033FFF73A
:101C54008AFBE42149006B504946D6200131FF300C
:101C6400C9B229540020E851D130FF302B50002A4A
:101C740001D1FFF794FB082901D0FFF790FBEB2279
:101C840000235200AB54104AAA5C002A00D006E19B
:101C9400C533FF33E8580433EB58FFF783FB034B9A
:101CA4009846ACE4FF0F000000F8FFFFFF070000B8
:101CB400FF17000030C0002001E0FF00FF03000018
:101CC4005FF36E3C0D6619005D020000C0218900BF
:101CD400894500D3D2E04B461803C01A03F01EFC1A
:101CE400834603110693F3009E1BB20D5100795EE7
:101CF40001328C46990D4C0001318905490D3C5F38
:101D0400795E9B029205091B9B0D520D4B43BA5EF3
:101D140061465846B602521AB60D56439B121B1919
:101D2400B6125B1066449E19761070430013804609
:101D3400069B9844D04B984500DA984680231B01B3
:101D4400984501DBCD4B98464B467F2B00D9BBE62B
:101D54004B46C0211803C01A890003F0DFFB0411AD
:101D64007043C54B001304199C4200DBC0E4BEE47D
:101D7400C02189008E4265D23003801B03F0CEFB64
:101D84000311089009934B464A46DB009A1A910DB9
:101D9400480007923C5E980D89464200BA5E0130C5
:101DA400944649468005400D385E624601318905F6
:101DB400490D801A795E079A9B029B0D9202091BBA
:101DC4004343920D4A439B126344921212195B10CF
:101DD400089C9B185B105C439946099B2413E418E8
:101DE400A54B9C4200DA1C0080231B019C4200DBB3
:101DF400A24C7F2E00D943E5C0213003801B89000B
:101E040003F08CFB02114B46584303139B189A4A68
:101E1400934200DA130080221201934200DB974BB5
:101E240007220892FFF7A6FB3003801B03F076FB22
:101E34000422934B0892181A4043904B00131B1A28
:101E4400FFF798FBC0231B019E4239D2FF2309935D
:101E54008B4B089397E7884B9C469444A7E5069BD5
:101E640098464B46844A5B009A18FFF729FC844B3A
:101E740084499B1B8A1A07925A00B3E4C0231B01AE
:101E8400994516D2FF2306937D4B9B462BE7494683
:101E94007B4B5B1A7B498A1A94465A00CFE59722FA
:101EA4009200AB54E2235B00E8580433EB58FFF78D
:101EB40079FA4B461803181A734B7449C0180DE786
:101EC400714B3003301AC018704903F027FB03111B
:101ED4000890099357E7FF24694841E7FF226848BF
:101EE40091E7664C069B9846FFF707FC069B0C009F
:101EF4009846FFF702FC069B98460AE6069C29E6EC
:101F0400069B9846FFF7CFFB029BDC10EAE7E4232D
:101F14005B00EB58FFF746FA082B00D1AFE6E42349
:101F24005B000800EB58FFF73DFA1C0002230893FE
:101F3400524BFFF71FFB089B062B00D979E0544A4C
:101F44009B00D3589F46069C09E688464B4CFFF7F6
:101F5400D4FB494A494B9446FFF785FAA046464CC0
:101F6400FFF7CBFB444B9846D3E5434CC4E4022330
:101F74000893414BFFF7FEFA089B062B32D8454ADB
:101F84009B00D3589F46069B9846FFF792FB3A4C1A
:101F9400A8E78846384CFFF7B0FB07227243910D3F
:101FA4004B00FB5E9C46F300980D44000130800515
:101FB400400D3C5F385E9B02001B9B0D43439E1209
:101FC4004B1C9B055B0DF95E6346C91A93029B0D7E
:101FD4004B4336199B1263447610F618069B761011
:101FE400984671E507227243910D4B00FB5E9C46B7
:101FF400F300980D440001308005400D3C5F385ECD
:102004009B02001B9B0D43439E124B1C9B055B0DC7
:10201400F95E6346C91A93029B0D4B4336199B1212
:1020240063447610F618069BFF24984614487610ED
:1020340096E607227243910D4B00FB5E01319C46EC
:10204400F300980D4400013040003C5F385E9B0271
:10205400001B9B0D434349009E12795E6346C91AD7
:1020640093029B0D4B4336199B1263447610F6186A
:10207400069B761098466BE600F8FFFFFF0700000A
:10208400FF0F0000FF17000001E0FF00FF03000046
:102094004CC0002068C00020F0B54746CE4680B54D
:1020A400404BC9B00093404B6C46019381239B0085
:1020B400C35869460293984682239B00C758043349
:1020C400C6580433C558D823039704960595FF339F
:1020D400C35C364A9C462376002307A86376638351
:1020E40007930B7801315A4013049B185B009B182B
:1020F400DB009B18DB009B185B009A188842F0D128
:102104002B49E261274B0A689A421ED0E022FF2144
:1021140010A803F02FFC2022210008A803F030FCB3
:10212400EFF3108472B680212248490109F03EF889
:1021340080222048520008A909F080F884F310880E
:1021440049B0C0BCB946B046F0BD8B88022BDDD186
:10215400CB88202BDAD1CB69144A994616480B78E0
:1021640001315A4013049B185B009B18DB009B1839
:10217400DB009B185B009A188142F0D19145C5D1D0
:102184000B4B9A689045C1D1DA689742BED11A695F
:102194009642BBD15A699542B8D11B7E6345B5D1ED
:1021A400CEE7C046335A314302002000C59D1C814E
:1021B40000F01F1000F01F001CF01F10F0B5DE46E9
:1021C40057464E464546E0B5364B0400C25C8BB0DC
:1021D400002A13D00021C154334BC25C334BC25488
:1021E400023BC25C324BC25401220533C252D82393
:1021F400FF33C35C002B01D000F0B6FC8A235B00E4
:10220400E05A0233E35A00B21BB2059386235B0003
:10221400E3589B4688235B00E35807933C23FF3332
:10222400E35C0293F823E5580433E1580433894608
:10223400F0214900E758625C1E4B9846E35C002A93
:1022440040D1D932FF3294461B4EA258B24237D8FD
:1022540061460132625019498A4233D9029A002AEE
:1022640001D100F08BFDE222FF32A25C002A01D0F2
:1022740000F08BFD029A934201D000F0B7FF1300E7
:102284004246A354022B01D100F06BFF8E239B0026
:10229400E35C002B01D100F0D7FFF4235B00E55091
:1022A40000F09BFE5502000053020000560200009D
:1022B400570200004E0200009F8C0000DF2E000039
:1022C40001226254E222FF32A25C002A01D000F013
:1022D4005CFD022B00D13DE2029A934201D100F051
:1022E4005EFC012A01D100F063FE022A01D000F055
:1022F40056FC00234946EC4AA3540132A3521C3A2B
:10230400A5500432A15002210432A750E74AA15437
:102314000A3AA3500832A3520022FC234D465B0024
:10232400E1582C33E358EB1AD8171B1843403F2BC2
:1023340001DD00F038FF8946002A01D000F0F1FEEB
:10234400FE235B00E2582C33E358FB1AD9175B18C1
:102354004B403F2B01DD00F0D9FE17004A46D30065
:102364009B1A5B001B130233102B00D91023D022BD
:102374005200A350983AA25C002A01D100F083FED7
:1023840085225200A25CD1B2002A01D000F07BFE6B
:10239400D2225200A1500121FA2299405200A058A1
:1023A400C34A0139821802D580221201121ABC20B4
:1023B400400025587838FF3806008046AC30FF309E
:1023C4002058D2100700BB482E407843BA4FC0199A
:1023D400FF2A06DCD243D2B2070EBA4201D94646DE
:1023E400AE43D6225200A0503200013B9A40130063
:1023F400BC22AA206D082B430B405200A35030325C
:10240400A6549A07D20FFF302254CC220020520047
:10241400A0501803C01A03F0A9F8A54BC0188023D4
:1024240045002D18AD029B002D13ED1880231B01D0
:102434009D4200DBA14DC0235B00E550043BE25804
:102444001001801A40190011E0500833E050002EAA
:1024540001D100F02CFFD823FF33E35C002B01D122
:1024640000F04CFFDE2200235200A3500832A35098
:102474000832A3500832A352143AA3500832A3508E
:102484000832A35001330632A3543A3AA350CC2263
:102494005200A3580133A3509622D200934203D989
:1024A400D42300225B00E252802229B22B1C1201A9
:1024B400914200DB814B7E4A1BB2934200DA130047
:1024C4007E4E7F49F31A5A01D21A9200D318802201
:1024D4000B60031C00B21201904200DB331C744AEF
:1024E4001BB2934200DA1300744AD21A53019B1AA6
:1024F4009B009B184B60F42380225B00E35852013D
:10250400934201DA00F0EFFD6E4B9800C0186D495C
:10251400000303F003F8AB005B19DB021B13C018C4
:10252400E023DB01984200DD1800674B984200DA93
:102534001800C3171F051B0DC5183F0D2D053F18A7
:102544002D0D3F13ED1A03D580235B01ED18013FD8
:102554006E007619B61230030C21804602F0DEFFBD
:102564005A4AB3009B5882469B4680232D1A404604
:102574005B01C0180C21914602F0D0FF5146411A6C
:10258400E80302F0CBFF4A465B460136B600B25878
:102594000021D21A5043C013C0184D4A002303F03F
:1025A40073F84904C00B0818002F01DA00F0D3FDBA
:1025B400B84080239B00E358002B05D0C21A501268
:1025C40001D100F0CEFE1818802380229B00E05039
:1025D400103BE3585201934201DA00F07FFD394B7E
:1025E400F62280215200A25849018A4201DA00F001
:1025F40070FD344A84218900615801918321890046
:102604006158009101002000FEF75AFED4235B00BC
:10261400E35C002B01D000F090FDD02380221B0648
:1026240052005A61AA23FF33E35C002B01D000F06F
:102634007DFDD02380221B0692005A61BC225200E9
:10264400A2580123110019401A4200D02149224BFB
:10265400224A1B684B401B041B0C1360BC22520013
:10266400A2580223110019401A4200D01C491A4BE7
:102674001A4A1B684B401B0C1B041360BC225200FB
:10268400A2580423100018401A4200D011481549DA
:10269400154A0B6843401B041B0C136084235B0026
:1026A400E35C0B68962021E03B0200004E02000030
:1026B40000F8FFFF0D6619005FF36E3CFF07000092
:1026C40054D10020FF0F000000E0FFFFBCC0002039
:1026D400314D5900E0FF00007000054070100540C6
:1026E4000000E0FF84000540841005401B0C1B041F
:1026F4001360D0235B00E258C00013039B1A1B0332
:102704001B0C5B43104A1B0211681B0C4B401B043F
:102714000E491B0C0B60CE235B00E458002384425B
:102724005B4180205B4280030340094812681B1808
:1027340053401B0C1B040B600BB0F0BCBB46B246F1
:10274400A946A046F0BDC046980005409810054033
:102754000000E0FF029E002E01D000F00DFCC42119
:10276400E64E4900B4466258E54E9444B44509D84F
:10277400C8267600A251043EA251D5228C3E5200B6
:10278400FF3EA654029EDF4A6650A654013B5A42BD
:10279400534193229200A3540022DB4BE2520233B2
:1027A400E2544A46143BE5500433E2500433E75004
:1027B400D64AA35C002B14D183234E469B00E558D4
:1027C4002433E358AA46F31AD9175B184B403F2B1E
:1027D4000CDD731BD9175B184B40602B06DC0123FF
:1027E400A35483234A46CA469B00E25090218900A1
:1027F400635C002B14D184239B00E2582433E358F8
:10280400FB1ADD175B196B403F2B00DCBEE3BB1AE0
:10281400DD175B196B40602B00DDB7E301236354C4
:1028240084239B00E750283BE5580433E35899463A
:10283400F8235B00E35806935B4656211BB2000362
:10284400FF31089302F06AFE97239B00E35C0600C5
:10285400002B00D07EE280235B019D4200DB52E32B
:10286400EB43DB172B409800C018A949000302F082
:1028740055FE8619E023DB019E4200DD1E00A54BB8
:102884009E4200DA1E00F3171A051B0D120DF518EF
:1028940092192D0512132D0D9346ED1A04D580239C
:1028A400013A93465B01ED186E007619B6123003B7
:1028B4000C21804602F032FE974AB3009B580490E4
:1028C400099380232D1A40465B01C0180C21039202
:1028D40002F024FE04990136411AE80302F01EFEB8
:1028E400039AB600099BB2580021D21A5043C01370
:1028F400C0188A4A002302F0C7FE4B04C10B5918C2
:102904005B46002B00DA36E2994080239B00E358B3
:10291400002B05D0CA1A511201D100F04EFD5918EE
:1029240080239B00E150059B5D0080234D445B01A7
:102934009D4200DAABE1764D089B5E00069BF618DB
:1029440080235B019E4200DA9DE1714E029B002BC5
:1029540000D056E16B461C229A5E002A00DC45E159
:1029640053465200D31880225201934200DB88E17F
:10297400DA43D217134080225201974200DB4DE123
:102984000A20FA43FF30205CD2173A40002800D0D6
:102994004BE1019200932A0033002000FEF790FCE3
:1029A400C02380215B00E2580901131C12B28A4241
:1029B40000DB5B4B5B4A1BB2934200DA13005848BE
:1029C4005949C31A5A01D21A9200D3180B60C22370
:1029D40080275B00E2583F01131C12B2BA4200DBAD
:1029E400031C504A1BB2934200DA13004C4AD21A19
:1029F40053019B1A9B009B184B60D4235B00E35C40
:102A0400002B00D0A0E1D02380221B0652005A6183
:102A1400AA23FF33E35C002B00D08FE1D023802274
:102A24001B0692005A61414B6D43984619682B125C
:102A34004B401B043E491B0C0B604346764318680D
:102A440033121B0443401B0C1B040B6082239B00AA
:102A5400E35A384E5B4330681B021B0C4340364D2F
:102A64001B041B0C2B6083239B00E35A30685B43DD
:102A74001B121B0443401B0C1B042B6084239B0070
:102A8400E35A2E485B4307681B021B0C7B401B0464
:102A94002B4F1B0C3B60029B002B00D1FBE0036817
:102AA4001B0C1B043B6000231A0091239B00E25083
:102AB4000833E252043B9C46E358002B00D13BE62A
:102AC4006246013BA350DB041E4CDB0F104A013B62
:102AD40023409B1842465B4314681B125C40240449
:102AE400240C0C6012681C046240120C12040A606C
:102AF40032685A401204120C2A6025E09FF6FFFF48
:102B04009E6D01004E0200003E0200003F020000E4
:102B1400FF0F000000E0FFFFBCC00020314D590052
:102B2400FF07000000F8FFFF54D1002070000540AB
:102B3400701005408400054084100540980005404D
:102B44009810054001F0FFFF32686240120C120435
:102B54002A60026853401B041B0C3B6003686340FB
:102B64001B0C1B043B60E7E5B6235B00C150043338
:102B7400C1505F320433C25001224833C15008337C
:102B8400C1500833C1500833C152143BC1500833FB
:102B9400C1500833C1500633C254FFF72FFBE14A3A
:102BA4000299A154002901D0FFF770FB002B00D03B
:102BB400ECE5DD4BE35C002B00D1D7E3DB4BEB18FA
:102BC4003E2B00D898E1DA4BED1881239B00E550A9
:102BD400EB17ED185D4080236D005B019D4200DA28
:102BE400B3E38223D34A9B00E250E1E5002A08D0F4
:102BF40080235B019A4500DA83E2CE4B5200BF1A70
:102C040007E080235B019A453BDA5246D343DB1746
:102C1400134080225201974200DAB1E60A20FF30C5
:102C2400205CC44A002800D1B3E60C20FF30205CAD
:102C3400C7B2B846002800D0ABE6D820FF30205CED
:102C4400002800D1A5E6B6204000275004302750C4
:102C5400BA271138FF387F00E05147465D30FF3016
:102C6400275008302750083027500830275214388E
:102C740027500830275008302750012706302754A2
:102C840087E6AC4BC5E7F343DB171E405EE6EB4338
:102C9400DB171D4050E60268A74B53401B0C1B0476
:102CA4003B6093239B00E55C002D0CD091229200A5
:102CB400A358A2498B4200D927E10133A350A04A6B
:102CC400934200D121E192239B00E358002B00D1D1
:102CD40032E5013BDD04ED0F92229200A3506B42DA
:102CE4005D41984A6B421340924A97499B185B4353
:102CF4000A681B125A4095481204120C02600968B3
:102D04001A045140090C924C09040160216891484D
:102D140059400904090C016021685140090C090457
:102D240001608D4801684B401B048C491B0C0B60EF
:102D340003685A40120C12040A60FDE4D023802276
:102D44001B0692009A616EE6D02380221B06520075
:102D54009A615DE6824B0C21E05C2438000302F0AA
:102D6400DDFB96239B0005000C21E05802F0D6FB06
:102D74002D18AE197EE55B42D940C6E5E222012159
:102D8400FF32A15402990132A1540022F22162526D
:102D940002316252734A744911605160D022802119
:102DA400120649005161491851618022520195422D
:102DB40000DBFBE0E943C9172940C8004018D821CB
:102DC4000125020BFF31625429001140154200D045
:102DD40066495D4A1268514009045C4A090C116055
:102DE4008021020089010A40084200D05F4A564906
:102DF400120409684A40120C544912040A608022E1
:102E04000100D2011140104200D05849504DC00B6E
:102E14002A684A4012044F49120C0A60002800D064
:102E2400C0E02A68120C12040A604B4A4B4912682B
:102E34001204120C0A60484A48491268120C12041F
:102E44000A60F1225200A15C002900D17CE1E42255
:102E54000299FF32A55C002900D0E8E1002D00D1E1
:102E6400FEE0002B00D0FBE0EE225200A3583349D1
:102E74008B4200D86EE2F2267600A35D002B00D0D0
:102E8400F7E02000FFF708F90123A355384B9222FD
:102E94009200A3506B425D412A4B6D421D40254B6D
:102EA400294AED186D4313682D126B4027491B0402
:102EB4001B0C0B6012682B045A40120C2448120499
:102EC4000A60026823496A401204120C0A6002680C
:102ED40021485A40120C12040A6002681F496A40D1
:102EE4001204120C0A60026853401B0C1B040B6092
:102EF4000C4B029AE2541FE4812200239200A35057
:102F04000432A35054E40B4BADE41A4EA35D002BE2
:102F140000D0D8E62000FFF7BFF80123A355144BD7
:102F2400DAE6C0464E0200003E0200001FF8FFFF32
:102F340000F8FFFFFF0F00000000E0FFFFDB0500CB
:102F440000DC050001F0FFFF700005407010054033
:102F54008400054084100540980005409810054001
:102F64005602000054D1002083E70300E0FF000074
:102F74007FBB00004D020000022E00D1EFE0012EC5
:102F840000D13EE1E34BE654FFF780F9F4235B0004
:102F9400E5580433E35817009946F8235B00E358D7
:102FA400069349E42868DC4A42403BE7DB4904E7EE
:102FB400012B00D1F0E08E2300229B00E252D84B7B
:102FC400E2544A46263BE5500433E25001220433DE
:102FD400E750D04BE254663BE558D24AA35C002B41
:102FE40016D14E46ED33FF33E1582C33E358F31A30
:102FF400DE179B1973403F2B00DC16E14B465B1A2E
:10300400DE179B197340602B00DD0EE10123A354EE
:10301400F6234A465B00E250C14AA35C002B13D15D
:10302400F133FF33E6582C33E3580696FB1AD917CD
:103034005B184B403F2B5BDDBB1BD9175B184B4028
:10304400602B55DC0123A354F8235B00E7501C33A9
:10305400E35806979A4684239B00E758FFF7ECFB56
:10306400E42201230021FF32A3540132A154083A7F
:10307400A35092239B00E358002B00D138E7013B77
:10308400DD04ED0F03E7D22149006258A6488242CD
:1030940000D9F2E001326250CE22C020D42196261B
:1030A40052004000A358255849000430615C205860
:1030B400F600B34200D2FFE0002901D0FFF7E7F9A0
:1030C400AA23FF33E35C002B01D1FFF7EDF9FFF7EF
:1030D400DEF9D543ED172A40FFF78CFADA43D2170D
:1030E4001340FFF77DFADA43D2171340FFF70DFAC6
:1030F40083239B00E3589A4684239B00E758FFF7F9
:103104009BFB5046C343DB17034077E5BB1AD91733
:103114005B184B40602B01DDFFF71FF90122834B45
:10312400E254FE235B00E750FFF718F9D023802216
:103134001B0692009A61FFF781FAD02380221B06B6
:1031440052009A61FFF76EFA029B002B00D1CFE682
:103154000123A354CCE67F42F840FFF72AFA6D4BD3
:10316400E654734B9120E65C0133E15C6F4B8000C5
:10317400E25C0023235008302352002E20D0FA238F
:103184005B00E550002901D1FFF7C7F8FC2349464D
:103194005B00E150FFF7D0F85E4AA3548E239B00F6
:1031A400E35CFFF776F86B1AD8171B184340602BC3
:1031B40001DDFFF7C0F88F2301219B00E154E5E70F
:1031C40088239B00E358EB1AD8171B1843403F2B66
:1031D400D8DDFA235B00E358EB1AD8171B184340D9
:1031E400602BCFDC0120524BE054C8E7012A00D108
:1031F400DEE6022A00D1A1E013004246A354FFF701
:1032040045F88E239B00E2520022454BE2544A4685
:10321400263BE5500433E2500433E750029A3D4B19
:10322400E254663BE5580433E1588946F4E6002D40
:1032340000D15DE6E2210023FF316354A354073A31
:10324400A3500832A35453E6E933FF33E2582C3336
:10325400E358EB1AD9175B184B403F2B0BDDAB1A25
:10326400D9175B184B40602B05DC8E2301229B0091
:10327400E254FFF712F81500AFE6CA21490062587C
:10328400BA1AD01712184240402A18DCD52252002C
:10329400A25C6750002A17D0C6225200A258C4204C
:1032A400400021580131914224D22150F4E6CE232A
:1032B40001225B00E25003E70133A350FCE6D52270
:1032C40000205200A05467508022520197420DDB27
:1032D4001249124A521A5243110B164A4A431649CA
:1032E400120B5218C62149006250D8E7F943C91796
:1032F4003940EEE700222250FFF74DF801229D33BA
:10330400FF33E2509832FF32A3580133A350FFF742
:10331400CBF8C0464E0200000000E0FFFF0F0000A3
:103324003A02000039020000FF7601003D0200006D
:103334003B020000A8DE0000B80B0000022B01D005
:10334400FEF7D7FF4246A3540BE782239B00E550C8
:10335400FFF72EFA0133A3501A4A934200D088E6AD
:1033640089E5511E8A41D018FFF72EF98B239B0063
:10337400E358EB1ADA179B1853403F2B01DCFFF795
:1033840017FA812380229B00E35812019B188022A4
:10339400520193420DDB0C4BEB1ADA179B18534086
:1033A400602B01DDFFF704FA0122084BE254FFF71A
:1033B40005FCDA43D2171340EEE7511E8A41D118B7
:1033C400FFF7AEFA00DC0500FF0F00003E0200002C
:1033D400024B1A78002A00D1187070479CEE002026
:1033E400034B1A78824201D100221A707047C046FA
:1033F4009CEE0020F0B54546DE4657464E46E0B505
:103404004F4B80461B78A5B0834257D1002955D035
:10341400002302AA4B4FD37102A98023404604AA79
:10342400073100F07BFC002848D00022464B93462D
:10343400F95C464BFB5C0193454BFC5C04ABC01848
:10344400009220E00F252600AE43B2462600103538
:10345400AE43802E02D05546E02D11D14D1CEDB265
:10346400A94694257918AD004A554A46012A3ED901
:103474000F22019922408A4227D00122002193463B
:10348400013398420DD01A78F72AF9D856B2002E93
:10349400D8DA1400012201339346002100929842A5
:1034A400F1D1009B9C465B46002B01D0264BF9547E
:1034B4006346002BB0D0264BFC54ADE725B0F0BCDE
:1034C400BB46B246A946A046F0BD94229200B95C20
:1034D4005246902A0FD0802A11D01E4ABA5CD201DB
:1034E4000A431D495218962189007A50C5E70122E2
:1034F40049469346C4E7174ABA5C002A16D1174ACC
:10350400BA5C8A42B9D1D822FF32BA5C002A08D008
:10351400EB225200BA5C002A03D00121104AB954AC
:10352400ABE7972200219200B954A6E70D4D7955D7
:10353400952189007A5401210B4AB9549DE7C0466C
:103544009CEE002000DB0020520200005E0200001E
:103554004F0200005102000000E0FFFF560200008D
:103564005D02000053020000550200007047C0468F
:1035740010B5054802F004FC0448054B186007F038
:10358400FFF8002010BDC0461502002000DB00201B
:10359400E0E0002070B57F4C01252000FDF770FCB1
:1035A4007D4BB622236000235200A3500432A35063
:1035B4007A490432A3500432A150C6210432A350E4
:1035C4000432A3500432A3500432A350744A490075
:1035D40062500431625080229620120104316250FC
:1035E40004316350C0000431605010200431605035
:1035F4006C4804316050D420002140002352023032
:103604002154023025500430235004302350043018
:10361400235004302350043023500430235004300A
:10362400235004302350604D04302350043025507F
:10363400FC2504302350043023500430235004303C
:1036440021540430225004302350043023500430D9
:10365400225056486D00605104356251043563515F
:1036640004356351043563510435635104356351A2
:103674000435625104356351043563510435625194
:10368400043560518A2080002250043022508C225C
:103694009200A35046480432A3500432A0500220A2
:1036A4000432FF30A05080200432A1540432A350CD
:1036B4000432A35040020432A0503C200432A352EE
:1036C4003C4AA1543C4AA05401322830A0543B4AFD
:1036D4003B48A1543B4AA0520232A3500432A352A5
:1036E400394BE15439493A4B0A689A4200D070BDCB
:1036F4008B88022BFBD1CB88202BF8D1CD69354A9E
:1037040035480B7801315A4013049B185B009B1811
:10371400DB009B18DB009B185B009A188142F0D1F8
:103724009542E4D18122294B92009968A1508022CC
:10373400DB685201934228DB1C4B82229200A35087
:103744008022224B52011B6993421ADB174B8322BE
:103754009200A35080221D4B52015B6993420CDB03
:10376400124B84229200A350184B1B7E082B00D9C5
:103774000023D822FF32A354B9E7DA43D217134007
:10378400EFE7DA43D2171340E1E7DA43D2171340E5
:10379400D3E7C04600DB0020B8C00020E1AC000045
:1037A400E02E00000077010008080000FF0F000071
:1037B4000101010152020000530200005502000001
:1037C4003C640000560200005E02000000F01F107E
:1037D400335A3143C59D1C811CF01F1000487047AB
:1037E400ACCF00200048704744CF002070B50028BB
:1037F40026D0032833D81B4B8000C458200006F081
:1038040049FEC3B2181C1F2B18D8C021C0B2421CD9
:10381400D2B25200890011430D00002B1CD0124B70
:103824009C469A1C0023E15C01331180D9B2023218
:103834008842F8D8634660461D8070BD1F20E4E7C7
:103844000A48C1250400074B0222196802F098F8BF
:10385400A31E9C46AD00EDE7034B9C46EAE700201F
:10386400EBE7C0465CD10020F4E70020F6E7002037
:1038740070B5164C82B0200003F0F4FF002805D088
:103884002500D9232C3DEE5C002E02D0002002B08E
:1038940070BD0120E97805F0DFFD0028F6D0200096
:1038A4000B49EA8804F060F8E978041E0AD00300A2
:1038B400074A01200196009605F01EFE0028E5D077
:1038C4002000E4E7012005F0EFFDDFE704D9002044
:1038D40030D90020F0B5244C85B0DC220021200032
:1038E40002F048F8214E3568280001F0EBFF20640F
:1038F4000700706801F0E6FF03906064337A0121E9
:103904005800C018400001F0FBFFE060002F26D0F3
:10391400039B002B25D000281FD0AAB2200000252D
:10392400012339001830009503F066FFB2882000A7
:103934002600616C012348362C30009503F05CFFAF
:10394400300000F0ABFEA6622600503630006562FF
:1039540000F0A4FE0120A663E56305B0F0BD3800C5
:10396400FBE71800F9E7C046D8D8002070D1002042
:1039740010B50E4C206C002803D001F0E3FF0023A7
:103984002364606C00280CD001F0DCFF0023E068A5
:103994006364002803D001F0D5FF0023E360012015
:1039A40010BDE0680028F6D1F9E7C046D8D8002059
:1039B400F0B51C0083B001282AD1D923334DEA5431
:1039C400002A25D1AB788B4225D0EB788B4248D0A6
:1039D40001201EE028002C3003F044FF002844D1CD
:1039E400002C42D02000E98801F0C0FD0C1E3CD11F
:1039F4000120E97805F030FD002836D0E97823006D
:103A0400220001200194009405F076FDA0422CD1FF
:103A1400002003B0F0BD002C19D0A40817D0263420
:103A2400A4002E192C000027983402E00434A64286
:103A340009D02368002BF9D004222100144804F093
:103A44009BF80137F2E7134B002B16D1A978002419
:103A54002A00AB88287898320194009405F04CFD34
:103A6400D7E7FFF705FF0028B4D00B4B002BAFD0EE
:103A74000120FFF77BFD0120CBE7002FE6D03900C2
:103A84000120FFF7B7FCA978E1E7C046D8D80020A9
:103A9400F0D80020053200207D33002070B50128C5
:103AA40024D1134B002B02D00021FFF799FC114CB9
:103AB400200004F015F920002500143004F010F95A
:103AC400002300222000183D6B602B81FF332B6004
:103AD400273BEA5400210622083801F04BFF064B2D
:103AE40000211A7AE868920001F044FF70BDC046D4
:103AF400F1310020F0D8002070D10020F8B5DE4666
:103B040057464E464546E0B5012906D1D921002045
:103B14006A4C60545179012906D00020F0BCBB46A0
:103B2400B246A946A046F8BD9079002101286BD081
:103B34000328F2D1157850194678B44624267642E3
:103B44006644012E00D87FE06646052EE5D19278C2
:103B5400691889B262708B4200D8A0E0584A15688F
:103B64005268A9469046002200259346924623E0D7
:103B7400252A29D0052AD0D14279057912022A436F
:103B8400402A04D9402202710022427140328578D1
:103B9400EE092DD1E678677A3E43BED1424500D97D
:103BA40042468346E570E2800278511889B2994210
:103BB4004FD28018427894466246242AD8D182781B
:103BC400013A032AA9D8EFE78278012AA5D1002D6A
:103BD400A3D0EA0928D1E278AA429ED1627A002AC7
:103BE4009BD1C278627202780025511889B2DEE74F
:103BF400A678277A3E4300D08FE74A4500D94A4643
:103C04008246A570A280CFE7002B07D185E7107804
:103C14004118121889B250798B4210D90128F6D173
:103C240090790328F3D183E7A278AA4200D074E7FD
:103C3400227A002A00D070E7C2782272D3E70128E2
:103C440000D06AE7907973E78678012E00D064E7A4
:103C54007DE7E378002B1AD0637A002B17D0534604
:103C6400002B06D05146012005F080FC002800D12D
:103C740053E75B46002B06D05946012005F076FC3D
:103C8400002800D149E701230120237046E7A378E7
:103C9400002B00D141E7237A002BE0D13DE7E37804
:103CA400002B02D0637A002BEDD1A378002B00D136
:103CB40033E7237A002BE6D12FE7C046D8D800207B
:103CC40070D1002070B50E0082B001281ED1114CB5
:103CD400D82300252200E054A388A17820789832C4
:103CE4000195009505F008FC051E0FD00A4B002B2A
:103CF40007D0607A237AE278A17800900120FFF758
:103D040067FB3100012005F059FC00E00025280084
:103D140002B070BDD8D80020E1310020F0B557467C
:103D24004E46DE464546E0B514000F00994685B080
:103D340001280ED100290CD0002A0AD0002B08D06B
:103D4400604D02AA2800D11DA84603F083FE002876
:103D540008D10026300005B0F0BCBB46B246A946E7
:103D6400A046F0BD290002AAD37928001B09042229
:103D74003B70083903F0F8FD0428EAD1524B0026C1
:103D8400183D00931CE0009B9C4618885B46184233
:103D940040D102AB4046D91D03F05CFE0028D9D0C7
:103DA40002ABDB793A781B099A42D3D14046010031
:103DB4000422083903F0D8FD0428CBD1B145C9D970
:103DC4002B7C1B093B702A7A9A42E2D901229A4041
:103DD40093B29B461123EB56697C002BD3DAF0296E
:103DE40011D0EF2935D80B090C3BDBB2012B46D996
:103DF400032303209A46344A5B46944612889A4326
:103E040063461A8015E0304B18889C465B4618437D
:103E1400634618801223EB56AA7C002B3ADB13224C
:103E2400EB7C0193AA560223002A2CDB01339A4629
:103E34001800217084460221504601346A18137C0C
:103E44004A1C2370032101348242F7D96046361894
:103E54009FE7F7290ED8F32918D006D8F12915D0F1
:103E64000323F22103209A46E3E70B000A33DBB273
:103E7400012B8ED8012021703618013489E70223E2
:103E840002209A46B7E7019BF72B18D002230220A1
:103E94009A46CEE7F72A09D01322EB7C0193AA565F
:103EA4000123002AC2DA019BF72BE3D1012301335A
:103EB4009A465B466246984310805046B9E702230F
:103EC400F5E7C046F0D800209AEE002001230370E5
:103ED400004870477CD1002010B54024074A830075
:103EE4009A181268C0005440C0222240044C1B1986
:103EF4001A60044BC018416010BDC04604C00140A4
:103F040004D0014000400140064B8000C3181B68E8
:103F1400C90092000A435A400C231340024A8018F5
:103F24000360704704C0014004D0014080000029B0
:103F340004D0054BC018402303607047034BC018DE
:103F440040230360F9E7C04604E0014004F0014067
:103F54000123D0228340120693629361084A8300AE
:103F64009A1811684022514080320A400549C00025
:103F74005B181A60044BC018052343607047C046A1
:103F840004C0014004D00140004001408023DB050F
:103F94001868000F7047C0460FB400B5084883B0D6
:103FA40001F05EFE049B002B07D005A918000191C7
:103FB40001F0F4FC034801F053FE012001F006FD7A
:103FC400BCCD0020CCCD002070B58C461600EFF39C
:103FD400108472B60F490B68002BFCD0BFF35F8FBF
:103FE4006346DB08C5180722C05C63461A400123F8
:103FF40093401A000240034207D118432870BFF3CC
:104004005F8F0A6084F3108870BD61463000FFF74B
:10401400C3FFC0462C0100D0F8B5CE4647468C46B7
:1040240080B51C00EFF3108872B61C490B68002B96
:10403400FCD0BFF35F8FA24221D80723994602E048
:104044000132944218D34946012611408E40D308C8
:10405400C718C35C1E42F3D1100033433B70BFF357
:104064005F8F00220D4B1A6088F3108800280EDB46
:10407400C0BCB946B046F8BD01204042EFE7BFF3EB
:104084005F8F00230B6088F3108801204042634651
:10409400002BEDD00898FFF77FFFC0462C0100D01D
:1040A400044A1078431CDBB2172B00D91023137079
:1040B4007047C04698D1002000B5054B83B001007D
:1040C400009318221F230348FFF7A6FF03B000BD87
:1040D400D0CD0020C4E700200021044B044ABFF3E4
:1040E4005F8F02C39342FAD17047C046000100D0EB
:1040F400800100D0084B094A1360094A1360094A39
:104104001360094A1360094A1360094A1360094A93
:104114001360094A136070478080808000E400E0E7
:1041240004E400E008E400E00CE400E010E400E053
:1041340014E400E018E400E01CE400E01F2318404D
:104144001E3B8340002905D0C021044A4900535036
:1041540013607047802201498B50FAE700E100E0C8
:1041640001228240034B1B6813405A1E9341D8B26C
:104174007047C04600E100E070B50D00EFF3108613
:1041840072B60F4A1368002BFCD0BFF35F8F0D4B40
:1041940010309B6884001B590B4A934203D09D4204
:1041A40001D001F07BF8074B9B681D51BFF35F8F73
:1041B400BFF35F8F0022024B1A6086F3108870BD34
:1041C400240100D000ED00E0C1010010F0B5DE468E
:1041D40057464E464546E0B5824683B08B461700A7
:1041E400EFF3108872B6604A1368002BFCD0BFF35B
:1041F4005F8F00255D4B5D579946002D00DA9AE0EC
:104204004A466B005A4C5E19B6000193A3190093F9
:104214009B791370574B9A68534610339B00D158BF
:1042240099460B1B2F2B32D9534B994200D098E05F
:10423400019B0236ED18514BAD006353504BA61948
:10424400043B9B1B4F4A1B055B0D651913436B8095
:104254004D4B0121AB80FF23AB715B46AB60009BF0
:10426400EF710B4319004A46424B9B689950BFF3C8
:104274005F8FBFF35F8F00223B4B1A6088F3108877
:1042840003B0F0BCBB46B246A946A046F0BD01202F
:104294000A008243D379B446BB422DD83B4BB51CAC
:1042A400190013001B1B5B415943090D8C46334B0A
:1042B4006519A353324B0099043B5B1B1B05314D1D
:1042C4005B0D2B4304364B80A619131F9B1B1B0548
:1042D4005B0D1D4363468B715B468B602C4B8D805D
:1042E400CF7113600143BEE75800C0188000201846
:1042F400C679BE4225D902000623D356002BF3DA31
:104304009A46131D9C4623486346009E9571043EBD
:10431400F61A36051B4B760D1E43019B96805A19DF
:1043240053469200A418A3715B46194AA0802260E8
:10433400E771A36097E700F0B1FF00254B465D5796
:104344005EE766469A46131D9C46908804364005EF
:104354000015A6196044801B00050A4E400D304329
:10436400D2E700F09BFF63E7240100D0A3EE002016
:104374009CD1002000ED00E0C101001000A1FFFF6E
:10438400CCD1002000E0FFFF01BDFFFFAAAA00007E
:104394000148804701BD0000F0B54546DE4657465A
:1043A4004E46E0B50D0083B0EFF3108872B6604A54
:1043B4001368002BFCD0BFF35F8F5E4B5E499A6895
:1043C400030010339F00D45999468C423ED0AC422E
:1043D4004FD05A4EA21B2F2A38D8594B1A689C46E4
:1043E40013000122824013401F22024001209A46FA
:1043F40090406346802283469850BFF35F8FEFF36B
:1044040005830193002B36D0994501D000F046FF77
:10441400012322009A439068854208D176E04B003C
:104424005B189B00F3189868854236D01A00062161
:1044340051560029F3DA854254D05346002B27D035
:10444400C02259463E4B520099501960394B9B6823
:10445400DC51BFF35F8FBFF35F8F0022344B1A60D0
:1044640088F3108803B0F0BCBB46B246A946A04608
:10447400F0BD0C00EAE7220001339A4390688542BC
:10448400D5D106201056130000280ADA0C0031E0BA
:10449400802359462A4AD150D8E7062018560028C6
:1044A40021DB42001118890075188946A9689960B2
:1044B400E979D971062169569971002924DBAD88FF
:1044C400F11A6D052D154D44491909051D4D490D68
:1044D4002943998013181C4A9B001178F318997189
:1044E4001070AAE713000199002914D1FF319171CA
:1044F4001649918014490A789A71154A9B1B5B41AD
:104504005A43120D0A7098E71049E2E70620105644
:1045140013000028C5DA0F4A0F49D21A083A50028C
:10452400400D014399800D4952080A43DA8084E71B
:10453400240100D000ED00E0C10100109CD1002056
:1045440000E100E000E0FFFFA3EE002001BDFFFF5B
:10455400AAAA0000D6D1002000F0FFFF00F8FFFF58
:10456400084A83089B009B181A6810B5140003229C
:104574001040C000FC3282409443220081400A4330
:104584001A6010BD00E400E00123034370B59C46AB
:10459400EFF30581EFF3108572B6214A1368002BFF
:1045A400FCD0BFF35F8F1F4B04001F4AE41A644121
:1045B4006243120D1D4C8900A66852B276586645B6
:1045C4001CD00621595691421CD0122159569142B1
:1045D40022D01E215956914220D02A215956032413
:1045E400914210D0124B19781A708171BFF35F8F0A
:1045F40000220B4B1A6085F3108870BDA3680D4C24
:104604005C50EFE700246100091989005B18FF2161
:10461400997109499980E5E70124F4E70224F2E756
:10462400240100D09CD10020AAAA000000ED00E0E3
:10463400A3EE0020C101001001BDFFFF024BC91809
:10464400890001607047C0464000003470B5114CC9
:10465400114DAC420FD2FF262368002B0CD0FFF77C
:104664001FFD01002000FFF7E9FFA680BFF35F8F65
:104674000834AC42F0D370BDFFF712FD01002000F6
:10468400FFF7DCFF2671BFF35F8F0834AC42E3D33E
:10469400F1E7C04680D8002090D8002010B504006F
:1046A400FFF7FEFC01002000FFF7C8FFFF23237182
:1046B400BFF35F8F10BDC04610B504000120FFF7A3
:1046C400FBFC034BC01880002060BFF35F8F10BD5C
:1046D400400000340A4B1968EFF3108072B60A6880
:1046E400002AFCD0BFF35F8F1B68BFF35F8F0022EB
:1046F4001A6080F3108840BF002000217047C04634
:1047040094EE0020F0B5DE4657464E464546E0B5E9
:1047140085B0EFF3058303221A40B34B91005F5831
:10472400012393409B4602925A468846AF4B1A6037
:10473400AF4B03935B46AF4843630823FE5E002EF2
:1047440037DABB881BB2002B00DBA4E0BB79002B5B
:1047540000D0E5E00823F95E002920DB4B007A69EC
:104764005B18DB00D3189D68DC686B1C00D104E186
:10477400A04801004144826A0B69AE1A9B1A9E420A
:1047840015D30123026A029883401A420FD0994834
:1047940000F0CEFB8C4202DCCCD18542CAD940BFAA
:1047A40005B0F0BCBB46B246A946A046F0BD0D61BB
:1047B400EDE77A69730091469B19DB0099444B46F7
:1047C4009C68DD6800F0B4FB8D42BADC00D1F6E0F1
:1047D400002D00DADBE04A464B4652691B699246DB
:1047E400039A934200D1CCE04A460821785E52886D
:1047F4000004514610439847009001910099019A92
:104804000B00134300D1C2E013000A00002B00DBAD
:10481400D9E020002900801A99414B469860D9605C
:1048240000229B5E002B00DA8BE75D007C69EA18AE
:10483400D200A21800949468D268A2468A4200DD8D
:104844007FE702D1844200D97BE70824A4463B8158
:10485400BC44009C00972F006546B4463E0006E029
:104864005E00F218D200A2189768D268BA468A424B
:1048740007DC00D1B4E0F318DB00E518E35E002B9D
:10488400EEDA66464A46009F13802E80BB881BB230
:10489400002B00DA5AE73A69EFF3108172B6136815
:1048A400002BFCD0BFF35F8F0123BE885B42BB802B
:1048B40036B23B69BFF35F8F00221A6081F3108820
:1048C400002E00DA42E73B0008333A0099467D693E
:1048D40073009B190824115FDB004846EB1800297C
:1048E40013DB9C680093A446DC6806E0A34240D036
:1048F4000023F95E3800002906DB4F007F18FF0013
:10490400EF19FB68A342F1DD009B068000201E5EC8
:104914001980002EDCDA1700BB79002B00D119E7CF
:104924000023BB710823F95E4B1C00D137E73D001F
:104934000835AC467C6903E084464B1C00D109E78A
:104944004B005B18DB00E0180A00E15E43881BB2F1
:10495400002BF1DA01256D42EE178560C66008254B
:104964007B5F9342E9D0634619803B8903803A8197
:10497400E3E7BB686345BBD9C6E7631C00D0F7E631
:1049840005E7534650461B699847002823D14B46F8
:104994001B883A693B81EFF3108372B611680029D2
:1049A400FCD0BFF35F8F49467A880A803A697E80DB
:1049B400BFF35F8F0021116083F31088C1E6844246
:1049C40000D805E7BDE60B4800F0B2FA009B019C55
:1049D400C018614121E753460CCB009201930DE7C7
:1049E400824500D847E74CE778EE00203C7005404C
:1049F400154500200040054070B52D4C2569002D5B
:104A040004D00A212B48FFF719FE70BD2A4E03215A
:104A1400294800F083FAE660FFF742FB274B0322A4
:104A2400C018D02322701B061B6801216370244B1D
:104A34008000A3600F2320610220638063694942E0
:104A4400A18019800231198647311D8358521831CB
:104A54005A5275325C3999521832013199521832CE
:104A640001319952183201319952083518329D5248
:104A740002311832995218320131995218320131E7
:104A8400995218320131995218320131995218321F
:104A9400013199520B4B0C49DC6001303562FFF750
:104AA4006BFB01210320FFF749FB084B1D60A8E7BE
:104AB400E4D1002094EE0020004005404000003482
:104AC400FFFF100078EE00201545002038600540F7
:104AD40070B582B00092019301000269EFF3108473
:104AE40072B61368002BFCD0BFF35F8F0223C85E3D
:104AF4000D6900283FDB4A69430016001B18DB00E0
:104B0400D218F35A4B80BFF35F8F00232B6084F3DA
:104B14001088069B1361079B5361009B019C936063
:104B2400D460538801335B045B0C1D1C002B20D024
:104B3400ACB20304558023430D69EFF3108C72B6B5
:104B44002C68002CFCD0BFF35F8F8C881480888085
:104B54000A69BFF35F8F002010608CF310880A7815
:104B640001309040CA68084952181060180002B019
:104B740070BD0125DCE7BFF35F8F00232B6084F356
:104B84001088013BF2E7C0463C20000010B5438981
:104B94000A1493421ADD53009B184269DB00D318B0
:104BA4000469EFF3108C72B62268002AFCD0BFF3BC
:104BB4005F8F5A88090494B2090C8A4208D00369A9
:104BC400BFF35F8F00221A608CF31088002010BDA1
:104BD400094A22435A80012302698371BFF35F8F1C
:104BE400002111608CF31088027804499340C26854
:104BF400012052181360EAE70080FFFF3C20000008
:104C0400F0B5C64600B582B004000D0000F098F976
:104C140024184D41002D02DA01242F4D644206264A
:104C24007642F71736196F41AF4214D811D000F00D
:104C340087F932003B00121A8B41002B15DC002B44
:104C440046D02000290000F085F902B080BCB846A7
:104C5400F0BDA642EBD90026002700F071F932001E
:104C64003B00121A8B41002BE9DD00F069F9320098
:104C74003B00121A8B41002B0ADB00230193174BD4
:104C84003200009316483B00FFF722FF0130D8D0D2
:104C940000233900B0469C46124A1348536A99428D
:104CA40004D8966A4645CCD29942CAD10668EFF335
:104CB400108772B63368002BFCD0BFF35F8F036894
:104CC400BFF35F8F66461E6087F3108820BFE5E759
:104CD400002AB6D0C9E7C046FFFFFF7FE5440020A5
:104CE400E4D100200040054094EE0020F0B5C64613
:104CF40000B582B0040000F023F9FA2206000F0088
:104D0400200000230021920000F0BEFC80197941AC
:104D140004000D1E02DA01242E4D6442062676425A
:104D2400F71736196F41AF4214D811D000F008F9C3
:104D340032003B00121A8B41002B15DC002B46D0AD
:104D44002000290000F006F902B080BCB846F0BD8E
:104D5400A642EBD90026002700F0F2F832003B000F
:104D6400121A8B41002BE9DD00F0EAF832003B0017
:104D7400121A8B41002B0ADB00230193164B3200DD
:104D8400009316483B00FFF7A3FE0130D8D0002360
:104D94003900B0469C46124A1248536A994204D8D4
:104DA400966A4645CCD29942CAD10668EFF3108779
:104DB40072B63368002BFCD0BFF35F8F0368BFF378
:104DC4005F8F66461E6087F3108820BFE5E7002AE0
:104DD400B6D0C9E7FFFFFF7FE5440020E4D10020FF
:104DE4000040054094EE0020F0B5CE46474680B51D
:104DF40004000D0085B0EFF305868946002E10D01F
:104E0400364900204B6AAB4206D38A6A5B1B591EA3
:104E14008B41A2424041184305B0C0BCB946B046DC
:104E2400F0BD2F4FFB683A7898461800039200F0C3
:104E34007FF8039A131D42469B009B5822001B1ABD
:104E44009C462B00121A8B419E4210DC0DD020BFD1
:104E5400224A0020536A4B45DED3926A5B1B591EDB
:104E64008B41A24240411843D6E79445EFD900F064
:104E740067F822002B00121A8B41002B1BDB002346
:104E84000193184B2200009338002B00FFF720FEFB
:104E9400002810DD114B5A6A4A451CD39B6AA34271
:104EA40017D301003800FFF771FE0C4A0020536A43
:104EB4004B45B1D3D1E7094A0020536A4B45ABD3E4
:104EC4000020926A5B1BA24240415A1E9341184340
:104ED400A2E74A45E5D120BFE3E7C04600400540CC
:104EE400E4D10020E5440020036808499C464A6A4E
:104EF40043680020934207D89B1A5A1E9341624686
:104F0400896A9142404118437047C04600400540B9
:104F14000CC001487047C046F94C002010B5024A45
:104F24000248FFF751F810BDECCD0020C8E700207F
:104F34000300416A0A00986A596A8A42FAD17047A2
:104F4400034B596A0A00986A596A9142FAD1704728
:104F540000400540064A536A9942FCD807D1044BE5
:104F640002E05A6A914202D19A6A9042F9D8704793
:104F740000400540F8B5DE464E4645465746E0B586
:104F840005008B4618000A99914600F0EFFA0A9B37
:104F94006C001E026419304BA400E4186368804658
:104FA4009E4200D966602F1FFBB29A46012B2FD96F
:104FB400C0238022294FAD009B0179591201E318C7
:104FC4001A6000291BD14B4622685B015340E02242
:104FD400134080225201A21813605346012B2FD98B
:104FE400802380229B01E31812011A604346666005
:104FF4007B51F0BCBB46B246A946A046F8BD7869D1
:1050040000F0B4FA013043001B18033BFDD2DAE789
:105014005B46012BCCD1C02303229B01E3181A6009
:10502400023AA3681A42FCD04A46236852015A4005
:10503400E023134080225201A218084F1360AD00F0
:1050440058460323216841400B40136001228240EB
:10505400A3681A42FCD0C3E700800040CCE70020DC
:10506400F0B5D6464F464646440098462418324B7F
:10507400A400E41863688A469146C0B5FF2B02D8A1
:1050840080235B006360061FF6B2012E2FD9C02374
:1050940080222A4F85009B0179591201E3181A6076
:1050A40000291BD14B4622685B015340E022134088
:1050B40080225201A2181360012E30D9802380224D
:1050C4009B01E31812011A6080235B00636043466E
:1050D4007B51E0BCBA46B146A846F0BD786900F001
:1050E40045FA013043001B18033BFDD2DAE753466F
:1050F400012BCCD1C02303229B01E3181A60023A8E
:10510400A3681A42FCD04A46236852015A40E0235D
:10511400134080225201A218084F136085005046A4
:105124000323216841400B40136001228240A3689D
:105134001A42FCD0C2E7C04600800040CCE7002001
:10514400014B8000C0587047CCE70020F0B5C6463C
:10515400040000B52348160098460D0000F006FA36
:105164000100300000F002FA4346069A1B041203C1
:1051740013439C4623680600002B22DB1A4B1B4872
:10518400E218531E9A4180235242120B9B011203D0
:10519400D218174B1A60174B1A60130001688B431F
:1051A400FBD12122144B2560E318A6601A60226803
:1051B400002AFCDA6246E26008221A6080BCB84623
:1051C400F0BD3F2322681340AB42D7D1A3681B052F
:1051D4001B0D8342D2D1EE22E368D2021340634511
:1051E400CCD1EBE7001BB7000040FDBF08C0004076
:1051F40000E0004000F00040043000008023024A38
:105204009B000B43D362704700800540002310B518
:105214000100988A1B8B984710BDC046162310B511
:10522400010018885B88984710BDC046F8B547460A
:10523400CE4680B50F1E18D01423994604330400BB
:105244000025012698464B461888434621681B884A
:10525400984701C4431E984101350640AF42F2D13C
:105264003000C0BCB946B046F8BD0126F8E7C046D8
:10527400AA23064A1B0113602133FF33D360044978
:10528400044B19605368002BFCDA7047004002405D
:1052940000B0FA00006002407047C04610B50148F3
:1052A400FEF77AFE10CE002070B5074D074EB542CA
:1052B40009D20024013E761BB608013608CD01341C
:1052C4009847B442FAD170BD90D80020CCD80020C1
:1052D40070B5074D074EB54209D20024013E761B36
:1052E400B608013608CD01349847B442FAD170BDEE
:1052F400C4D80020CCD80020054B064A06491A60C1
:10530400064A074B1A6010000B689843FBD170479C
:1053140000E00040BFCDFBFE08C00040FE7F3C0023
:1053240000F00040044BDB6C002B03D18022034BC4
:10533400D2021A607047C046000011504C20115030
:10534400044A054B1A60054A1368DB018033FBD11C
:105354007047C046FFFFFF0100F0004008C0004056
:105364004022034B9A675A671A67DA667047C04649
:1053740000F0014010B5FEF7AFFE10BD70B528492E
:10538400284D294E6D1AAC102200302C00D9302241
:105394003000920000F0F4FABC2D3DD823002A3BE3
:1053A400224A052B1DD9302075196D07A446001B10
:1053B400EB0F002D03DA611C8C46A1007250C01A59
:1053C400E3189B004108F318C900C9181A605A6011
:1053D40008339942FAD1012303421DD09843604413
:1053E4000400A300F250631C2F2C15D09B00F25034
:1053F400A31C2E2C10D09B00F250E31C2D2C0BD0A0
:105404009B00F250231D2C2C06D09B00F250631DF0
:105414002B2C01D09B00F250054B9E6070BDC04602
:1054240000010010C001001000000020C1010010A4
:1054340000ED00E0002310B5294C82B0A367FFF70C
:1054440017FF0122274B1A60636C012BFCD1032246
:10545400254B1A60224A936B012BFCD10133009334
:105464000121224A22480433FFF770FE052301215B
:105474000093204A2048FFF769FE002202210420FD
:105484001E4BFFF7EDFD0022012105201C4BFFF709
:10549400E7FD0022002107201A4BFFF7E1FD00225F
:1054A40000210820174BFFF7DBFD8023DB0000936E
:1054B400002200210920134BFFF75CFD0022104B52
:1054C40000210620FFF7CCFD0420FFF739FE0E492A
:1054D40000F04CF801000020FFF790FE02B010BD70
:1054E400008000403CB0004030B00040002F6859BC
:1054F40000800240008C864700C00240001BB700B9
:1055040040597307006CDC0240420F00014804213B
:10551400014B184700D200203D500020124A936FDF
:105524009B0815D29066D166002905D0FFE7FFE7F6
:10553400FFE7516F106F704704B580210906C21749
:105544005140002800D0C84304F03CFC002104BDB5
:10555400F0B5146E556E576F166FFFF7E3FF1466C0
:10556400556657671667F0BD000000D0114A936F67
:105574009B0813D210665166002905D0FFE7FFE7A8
:10558400FFE7516F106F704704B5002801D0002069
:10559400C04304F017FC002104BDC046F0B5146EEE
:1055A400556E576F166FFFF7E5FF1466556657671C
:1055B4001667F0BD000000D0132370B51D78012DCF
:1055C40019D014DD1F48FFF729FE06001E48FFF717
:1055D40025FE1E4C80223100200000F0D1F9022D5E
:1055E4002DD01B48FFF712FE1A4B186070BD1A4BE2
:1055F400164CA364F5E7184B144C23606360A36056
:10560400E36023616361A361E36123626362A36274
:10561400E36223636363A363E36323646364A36454
:10562400E36423656365A365E36523666366A36634
:10563400E36623676367A367E367A364D1E7064B65
:10564400A364CEE75344000053460000E0DE00208C
:105654004C33000090EE00206D54002007B56046E6
:1056640001880A0A0230DF2AFAD1C9B2820804D3B7
:10567400028840880004104300E00068014A50504A
:10568400039007BDE0DE002051434343C9188C4614
:10569400110C83B24B4310B4040C614392B280B238
:1056A400504362431C041B0C001910BC59411304E1
:1056B400120CC018514161447047000048404140F9
:1056C40048400E4B5B6818470C4B1B6818470C4A44
:1056D400936F9B0802D2094BDB681847F0B5146E30
:1056E400556E576F166FFFF7F6FF054A1466556639
:1056F40057671667F0BD014B9B681847E0DF002031
:10570400000000D007B548404140484001E0C04691
:1057140007B54200120E03D0FF2A03D1420218D863
:10572400C00DC0054A00120E03D0FF2A03D14A025D
:105734000FD8C90DC9050122414005D4414001D506
:10574400814207BD884207BD0143491801D0C043C7
:10575400001807BD00B5FFF7DBFF01D0002000BD36
:10576400012000BDC10FC90700D54042002817D051
:10577400F44603B40B4B1B68984706BC81409E3823
:105784004042803107D20B0607D04900490AC005C0
:105794001043084360470130F8E7490A8902F5E7F6
:1057A4007047000090EE002041000A0E80231B0683
:1057B4007E2A0BDD9E3A0BDAC117400240081843DB
:1057C4005242D0404900013148437047002070479D
:1057D400C00FC01801387047C0420DD300B5400057
:1057E4004008002100F012F8002801D4404200BD16
:1057F4008020000600BD0000034BDB69FC4618470F
:105804001CDFBD5600200000E0DF0020014B5B6A76
:1058140018470000E0DF0020132310B51C7813485C
:10582400FFF7FCFC012C0BD004DD010080221048A2
:1058340000F0A6F80F48FFF7E9FC0F4B186010BD05
:105844000B4C01005422200000F09AF80B4B6365C6
:10585400A365E36523666366A366E36623676367FC
:10586400A367E3672362E361E4E7C04653460000AD
:10587400E0DF00204C33000090EE00209156002021
:1058840007B5604601880A0A0230DF2AFAD1C9B294
:10589400820804D3028840880004104300E00068B2
:1058A400014A5050039007BDE0DF00200021C215DB
:1058B4008032803201D0024A104700207047000035
:1058C400CD2A000070B504000A4E300005F04AFBF2
:1058D400200004F0DFFA0500300005F0F9FB002D8C
:1058E40005D0054B2C199C4201D8280070BD0348F3
:1058F400FEF752FB80D80020000004201CCE0020BC
:10590400F8B507000C000C4E300005F02BFB21000D
:10591400380004F059FA0500300005F0D9FB002DD9
:1059240006D07C43054B2C199C4201D82800F8BDB5
:105934000348FEF731FBC04680D800200000042055
:105944001CCE002070B50500054C200005F00AFBB4
:10595400280004F0A9FA200005F0BAFB70BDC04687
:1059640080D8002001480421014B184710D20020A0
:105974003D500020014B1B681847000010D2002046
:10598400014B5B681847000010D2002010B50028B6
:1059940000D110BD00F01AF9FBE7C04610B5094A62
:1059A4000300146884B0002C08D00122009106483A
:1059B400524203A9A047012004B010BD00F050F9E1
:1059C4000020F9E758EE00209D57002000BEFDE7B7
:1059D400094A1368002B06D008491818884208D8C9
:1059E400106018007047064B044918181360884269
:1059F400F6D901235B42F4E744EA002000000420C6
:105A0400A4EE002010B5FFF7E1FFC04670B5FFF724
:105A14004BFC074D074EB54209D20024013E761BCC
:105A2400B608013608CD01349847B442FAD170BDA6
:105A3400CCD80020D8D80020030010B508001100ED
:105A44001B68984710BDC046F8B5437D07000D009C
:105A54001600002B38D0002A1ADD0B780A2B18D038
:105A64000020012E09D0012421006B5C01340A2B93
:105A74001AD0B442F8D1864203DD311A3B682818A3
:105A84009847AD19013D2B780D3B5A4253413B7564
:105A9400F8BD037D002BE3D102210E483B689847F3
:105AA400012EEED00120DEE76B1E5B5C0D2BE0D0F7
:105AB400884203DA091A3B682818984705480221E6
:105AC4003B6898472000D4E70368110028009847F2
