:020000041000EA
:1000000000B5324B212058609868022188439860DF
:10001000D860186158612E4B002199600221596106
:100020000121F02299502B49196001219960352056
:1000300000F044F80222904214D00621196600F024
:1000400034F8196E01211966002018661A6600F04E
:100050002CF8196E196E196E052000F02FF8012189
:100060000842F9D1002199601B49196000215960AB
:100070001A491B48016001219960EB211966A021F2
:10008000196600F012F800219960164914480160C1
:100090000121996001BC002800D000471248134993
:1000A000086003C880F30888084703B5996A0420EC
:1000B0000142FBD001200142F8D103BD02B5186610
:1000C0001866FFF7F2FF186E186E02BD00000240BE
:1000D000000000180000070000035F00212200005C
:1000E000F4000018222000A00001001008ED00E03C
:1000F00000000000000000000000000074B24E7A12
:1001000000200420F7010010CB010010CD010010E9
:10011000C9010010C9010010C9010010C901001077
:10012000C9010010C9010010C9010010CF01001061
:10013000C9010010C9010010D1010010D301001045
:10014000C1010010C1010010C1010010C101001067
:10015000C1010010C1010010C1010010C101001057
:10016000C1010010C1010010C1010010C101001047
:10017000C1010010C1010010C1010010C101001037
:10018000C1010010C1010010C1010010C101001027
:10019000C1010010C1010010C1010010C101001017
:1001A000C1010010C1010010C1010010C101001007
:1001B000C1010010C1010010C1010010C1010010F7
:1001C000EFF30580103800BE00BE00BE00BE00BECA
:1001D00000BE00BEF2EB887190020010B402001065
:1001E0003802001090A31AE721482249086006C887
:1001F00081F30888104720480068002801D01C4877
:10020000F3E70DA40ECC002902D000F012F8F9E7B4
:100210001A491B4A002000E001C19142FCD1194952
:100220008847194988471949884700BEFDE701C931
:1002300001C29A42FBD37047B4020010C0000020F4
:10024000FCBD0020F0BF001000BE002048F10020DF
:1002500038F30010000004200000042038F30010E0
:10026000001004200010042000000000704700006F
:100270000000000008ED00E0000000D048F1002080
:100280009C0B01208D700020F54B00208570002014
:1002900030E800203CE8002048E8002054E8002036
:1002A00060E800206CE8002078E80020B4E9002035
:0402B000A8E9002099
:1002B400F8B5C04606480749091A8B10C90FC91872
:1002C40010B5491003D0044B002B00D0984710BD43
:1002D40048F1002048F1002000000000054B10B553
:1002E400002B03D00449054800E000BFFFF7E2FFFC
:1002F40010BDC04600000000580B0120FCBD0020CA
:10030400A423082130B5FF24134A1448D1501449BA
:1003140002680B680D689B1AA343521BD218026033
:10032400104A1B02944612680F4853401B0C0F4D91
:100334001B0403602A684B6849689B1AA343521A3A
:10034400D2182A6062461B0212681B0C53401B041D
:100354001B0C036030BDC0460000054000FE0020B9
:10036400C4E90020480005404810054004FE002070
:10037400F0B5502387B017256A460405240F1C43A3
:100384006D44AF3393750F00287006F011FA002303
:10039400194A80185941002902DA012017494042BC
:1003A40000230290039100932A0021001448013392
:1003B40007F0E2FB00281ADD06F0FAF900230E4AE2
:1003C40080185941002902DA01200C4940420023D7
:1003D40016220290039100932100094801336A44D4
:1003E40007F0EAFB002802DD6B46987D02E001235A
:1003F40000203B7007B0F0BD10270000FFFFFF7F17
:1004040090EA0020F0B5DE4657464E464546E0B534
:100414006420C3B006F0A2F8F0238F4FFB5C0C2BD2
:1004240001D000F082FED0231B065A6880231000FE
:100434005B0318401A4200D1C9E00124012312AA27
:1004440040321380002022A907F074FD12AB9B46B2
:10045400002C00D1C2E001200021404207F0DEFD63
:1004640040235A460021002008F026FB0028F2D041
:100474005C462378584405005A46F02B21D0774A2D
:10048400BE580432BA5C9046754ABA5C91464246FC
:10049400002A01D100F03AFE002200219246100009
:1004A4004A46F72B2FD06F2E00D8A2E00134AC427D
:1004B40001D100F0B8FD237801200122F02BF0D106
:1004C4002200541CAC427BD05378F02B00D1B0E016
:1004D400F72B01D100F0C3FD0120002280466148C2
:1004E4009146561C0134BA1801211354AC4200D170
:1004F4008AE00122237892462200F02BE1D04A467A
:100504004046F72BCFD191468046002A00D1B5E072
:10051400621CAA4201D100F09EFD6378F02B01D148
:1005240000F086FD0121019141460291F72B3CD850
:1005340058B2002801DA00F065FD4B48395C0F2001
:100544000C00844310308C4600948143802901D0F0
:10055400E02C2AD195218900785C441CE4B27C54B7
:1005640042493818884640440370012C1DD90023A1
:1005740002317B543E4B6146F85C0F230B408342AF
:1005840013D14346F85C009B902B01D100F070FD21
:10059400802B01D100F070FD364B3749FB5CDB0149
:1005A400034397205B1880003B500132AA4201D1DB
:1005B40000F033FD1378F02BB8D1541CAC4283D136
:1005C4000023274ABB54254ABB5001332DE00223A4
:1005D40012AA4032138022A909F0B4FD012000219F
:1005E40040420AF067F80120002140420AF062F814
:1005F400F4E79146320080461A48561C0134BA1872
:100604001354AC4200D074E70122012392464246BF
:10061400002A02D04846124AB8545246002A01D051
:100624000E4ABE50002900D115E7DC22D200BB548B
:1006340011E7941CAC4201D100F070FD9378F02BCB
:1006440000D13DE70122924600229146013210007A
:10065400002601214A4624E770F30020DC0600004E
:10066400E10600006C060000510200005202000086
:10067400620200005302000000E0FFFF052E00D8D4
:1006840046E7F14AF14BBA589A4200D040E7CE23EC
:10069400DB00FB5C332B00D03AE7ED4BFB5CDA1E4E
:1006A400012A01D800F0FEFC012B00D030E7672EB0
:1006B40000D02DE74A46E74BFB5C119312AB423363
:1006C4001A80FE22E44B9201FB5CDB011340E34AF7
:1006D400B95C7F220A40134380225201934200DB1B
:1006E400DF4B9BB20993DF4BFE21FA5CFE23D20160
:1006F4009B011A40DC4B4903FB5C9B030B401343F7
:10070400DA4AB95C7F220A401343D94A01939342DF
:1007140001D800F04FFD0192FE21099A12AB40333B
:100724001A80019BD34A2393BA5C8901D2010A40FF
:10073400D121C900785C7F2101400A43802149010D
:100744008A4200DBC64A93B2CB4A0A93B95CFE22C2
:10075400FE209201C9011140C84A4003BA5C9203C9
:1007640002400A43C6491300785C7F2101400B43D1
:10077400BF4902938B4201D800F013FD029100217E
:1007840012AB4A331980483112AB5B180A991980AD
:10079400029BBC492593785CFE21C0018901084075
:1007A400B9497B5C7F219C46634619400143802004
:1007B4004001814200DBAA498BB2D2210B93C900CC
:1007C400785CFE21FE238901C0010840AF495B0328
:1007D400795C890319400143AD483B5C7F209C460A
:1007E40063461840014308000391A149884201D897
:1007F40000F0CEFC0391002112AB5233198050312A
:1008040012AB5B180B991980039BA2492793785C60
:10081400FE21C001890108409F497B5C7F219C46E1
:1008240063461940014380204001814200DB8C492A
:100834008BB29A490C93785CFE21FE238901C00196
:10084400084097495B03795C890319400143954843
:100854003B5C7F209C46634618400143080004919A
:100864008349884201D800F08AFC0491002112AB2C
:100874005A331980583112AB5B180C991980D32163
:10088400049BC9002993785CFE21C00189010840BA
:1008940085497B5C7F219C46634619400143802047
:1008A4004001814200DB6E498BB280490D93785C34
:1008B400FE21FE238901C00108407D495B03795C68
:1008C4008903194001437B483B5C7F209C46634677
:1008D40018400143080005916549884201D800F099
:1008E4009FFC0591002112AB62331980603112AB79
:1008F4005B180D991980059B6F492B93785CFE2139
:10090400C001890108406D497B5C7F219C46634698
:100914001940014380204001814200DB50498BB2E1
:1009240067490E93785CFE21C00189010840D421F7
:10093400FE23C900795C5B038903194001436148C4
:100944003B5C7F209C4663461840014308000691A7
:100954004749884201D800F05AFC0691002112ABA5
:100964006A331980683112AB5B180E991980069BA3
:1009740055492D93785CFE21C001890108405349F3
:100984007B5C7F219C4663461940014380204001E3
:10099400814200DB32498BB24D490F93785CFE21D2
:1009A400FE238901C00108404A495B03795C89033D
:1009B4001940014348483B5C7F209C4663461840ED
:1009C4000143080007912A49884201D800F016FC27
:1009D4000791002112AB72331980703112AB5B188E
:1009E4000F991980079B3D492F93785CFE21C00124
:1009F400890108403A497B5C7F219C466346194043
:100A0400014380204001814200DB154908913549AA
:100A1400FE23785CFE21C0018901084032495B0352
:100A2400795C890319400143D520C0003B5C7F20D9
:100A34009C46634618400143080000910C498842D3
:100A440000D8D4E3009151E06C0600007D43315A94
:100A54007106000072060000840600008306000090
:100A6400FF0F0000860600008706000085060000D0
:100A740000EE0200890600008B0600008C060000D0
:100A84008A0600008E0600008D0600009106000014
:100A94008F060000930600009206000095060000F1
:100AA4009606000094060000970600009A060000CF
:100AB4009B060000990600009D0600009C060000AD
:100AC4009F0600009E060000A2060000A10600008A
:100AD400A4060000A5060000A3060000A706000067
:100AE400A6060000A9060000AA060000002112AB19
:100AF4007A331980783112AB5B1808991980009BFE
:100B0400E7493193785CFE21C00189010840E54939
:100B14007B5C7F219C466346194001438020400151
:100B2400814200DBE049FE20FE231091DF494003AF
:100B3400795C9B0189030140DD48385CC0011840A1
:100B44000843DC497B5C7F219C4663461940014392
:100B5400D948814200D845E3010000239C4612AAEB
:100B64004033D218422063461352023812AA131893
:100B7400109A1A523391D149785CFE21C00189013F
:100B84000840D621C9007B5C7F219C4663461940FE
:100B9400014380204001814200DBC349FE20FE2343
:100BA4001091C7494003795C9B0189030140C54802
:100BB400385CC00118400843C3497B5C7F219C46D4
:100BC400634619400143BC48814200D805E3010053
:100BD40000239C4612AA4033D2184A20634613527B
:100BE40012AA4033D318109A02381A523591B749D1
:100BF400785CFE21C00189010840B5497B5C7F21F6
:100C04009C4663461940014380204001814200DB39
:100C1400A549FE201091AF494003795CFE23890366
:100C24000140D720C000385C9B01C0011840084334
:100C3400A9497B5C7F219C466346194001439E4839
:100C4400814200D8C4E2010000239C4612AA40332A
:100C5400D21852206346135212AA4033D318109A62
:100C640002381A5237919D49785CFE21C0018901EE
:100C740008409B497B5C7F219C46634619400143A5
:100C840080204001814200DB8749FE20FE23109131
:100C940094494003795C9B01890301409248385C84
:100CA400C0011840084391497B5C7F219C46634600
:100CB400194001438048814200D884E201000023A6
:100CC4009C4612AA4033D2185A206346135212AAE1
:100CD4004033D318109A02381A523991D821C900D6
:100CE400785CFE21C0018901084081497B5C7F2139
:100CF4009C4663461940014380204001814200DB49
:100D04006949FE20FE2310917A498001795C5B03D6
:100D1400C90101407848385C80031840084377498A
:100D24007B5C7F219C4663461940014362488142B3
:100D340000D81FE2010000239C4612AA4033D218B7
:100D440062206346135212AA4033D318109A023811
:100D54001A523B916A49785CFE21C001890108401E
:100D640068497B5C7F219C4663461940014380208F
:100D74004001814200DB4C49FE2010916249800110
:100D8400795CFE23C9010140D920C000385C5B03B3
:100D94008003184008435D497B5C7F219C46634681
:100DA400194001434448814200D8DEE10100002398
:100DB4009C4612AA4033D2186A206346135212AAE0
:100DC4004033D318109A02381A523D915049785C36
:100DD400FE21C001890108404E497B5C7F219C466D
:100DE40063461940014380204001814200DB2E49C3
:100DF400FE20FE23109148498001795C5B03C90100
:100E040001404648385C80031840084344497B5CF1
:100E14007F219C466346194001432748814200D8FC
:100E24009EE1010000239C4612AA4033D21872208E
:100E34006346135212AA4033D318109A02381A5236
:100E44003F913849785CFE21C00189010840364948
:100E54007B5C7F219C46634619400143802040010E
:100E6400814200DB1049FE20FE2310912F498001AE
:100E7400795C5B03C90101402D48385C800318404C
:100E84000843DA21C9007B5C7F219C4663461940F4
:100E940001430948814200D85DE101004AE0C046AF
:100EA400AC060000AB060000FF0F0000AF06000018
:100EB400AE060000AD06000000EE0200B106000020
:100EC400B4060000B3060000B2060000B606000037
:100ED400B5060000B9060000B7060000BB06000016
:100EE400BA060000BE060000BD060000BC060000F5
:100EF400BF060000C2060000C3060000C1060000D1
:100F0400C5060000C4060000C7060000C6060000AF
:100F1400CA060000C9060000CC060000CD06000089
:100F2400CB060000CF060000CE060000D10600006C
:100F3400D206000000239C4612AA4033D2187A201D
:100F44006346135212AA4033D318109A02381A5225
:100F5400099A0A9B4191111C9A4200D2191C0B9BBD
:100F640088B2984200D2191C0C9B88B2984200D2D5
:100F7400191C0D9B88B2984200D2191C0E9B88B292
:100F8400984200D2191C0F9B88B2984200D2191CB7
:100F9400089B0B4399B2002901D1FFF7B9FA029AD1
:100FA400019B9B18039A9B18049A9B18059A9B18FB
:100FB400069A9B18079A9B18009A9B18F022920095
:100FC400934201D2FFF7A4FA072311998022194012
:100FD4009923C8019B0038180091C01822A906F073
:100FE40007F90099934A7B189B1801221A700B0089
:100FF400D8220933FF32BB54EB2300225B00FA549E
:10100400FFF786FA8C4801323B54952300209B005D
:10101400F854AA4201D0FFF7CDFA029B01999846F1
:101024000023FFF7F4FA012201239146FFF7F2FAB5
:101034000234AC4272D001229046002223789146B9
:1010440001329246012100262200F02B01D0FFF745
:1010540056FAFFF736FA01210023FFF7D8FA0123E5
:10106400984600239946013300269A46FFF750FA22
:10107400724BFB5C002B5BD196239B00FB5C834291
:1010840001D0FFF792FAD823FF33FB5C002B5CD02E
:10109400EB235B00FB5C002B57D00120684BF8541A
:1010A400FFF783FA0B2E01D0FFF732FAFE22654BCD
:1010B4009201FB5CDB011340634AB95C7F220A4066
:1010C40013438022520193423DDA0F21FE205F4AEE
:1010D4008001BA5C11405E4ABA5CD20102405D48AC
:1010E4000092385C84467F2062461040009A024396
:1010F40080204001824224DA832080003A508422F6
:101104009200BB50544BF954FFF702FA00218A466F
:10111400019141465A460291FFF708FA012100263F
:101124000B008A46B146FFF775FA0224FFF786F9E9
:101134004A4C38554A483B5401204A4BF854FFF76F
:1011440034FA494AD8E7484BBFE7982300209B006C
:10115400F854FFF72AFA002900D0EBE60131E9E65A
:10116400002900D05EE601315CE6002900D01EE6CD
:1011740001311CE6002900D0DDE50131DBE5049BEB
:10118400002B01D0FFF772FB01330493FFF76EFBD2
:10119400039B002B01D0FFF72EFB01330393FFF7D2
:1011A4002AFB029B002B01D0FFF7E9FA01330293DB
:1011B400FFF7E5FA019B002B01D0FFF7ADFA0133ED
:1011C4000193FFF7A9FA002900D078E5013176E50B
:1011D400002900D038E5013136E5002900D0F7E4D4
:1011E4000131F5E4002900D0B7E40131B5E4009BF6
:1011F400002B00D07AE40133009377E4079B002BA3
:1012040001D0FFF7E6FB01330793FFF7E2FB069BF0
:10121400002B01D0FFF7A2FB01330693FFF79EFBDF
:10122400059B002B01D0FFF75DFB01330593FFF70E
:1012340059FBC0466406000051020000530200003E
:1012440061020000750600007406000076060000C6
:1012540073060000720600006202000055020000DE
:101264005602000057020000FF0F000010B5024BA9
:1012740018680AF0A9FF10BDD8FD002070B5D0256C
:1012840001220021072004F077FA01220021062020
:1012940004F072FA0122002105202D0604F06CFAF4
:1012A4000120002105F0E4F86A686C686B68640644
:1012B4009B06E40FDB0F1B01A4001C431306DB0F8A
:1012C4000022012107201C4304F056FA00220121C8
:1012D400062004F051FA00220121052004F04CFA02
:1012E4000120002105F0C4F869686A6809066B6882
:1012F400C90F52064900D20F9B060C43D200DB0FE4
:101304005B0100210720144301221C4304F034FA3A
:1013140001220021062004F02FFA64B201220021E8
:10132400052004F029FA2A2C05D0302C03D0FF2004
:101334000C2C00D070BDE0B2FCE7C046F0B54E46C0
:10134400DE4657464546E0B5431824331B7885B03E
:10135400994601900291002B00D129E280468B002E
:1013640003935B181B01984444462C20205605F037
:1013740031FEDB4905F0F7FD4546041CA86A05F07B
:1013840029FE211C051C201C05F0EDFD211C061C5A
:10139400281C05F0E8FD4A46071C012A00D1A1E1FA
:1013A40042463420105605F015FECD4905F0DBFD0C
:1013B40042468246106B05F00DFE51468346201CC2
:1013C40005F0BAFD5946041C281C05F0B5FD51462C
:1013D400051C504605F0C7FD011C301C05F0ACFD92
:1013E4005146061C584605F0BEFD011C381C05F08C
:1013F400A3FD4A46071C022A00D173E142463C2061
:10140400105605F0E7FDB64905F0ADFD42468246AB
:10141400906B05F0DFFD51468346201C05F08CFDE2
:101424005946041C281C05F087FD5146051C5046EE
:1014340005F099FD011C301C05F07EFD5146061C8B
:10144400584605F090FD011C381C05F075FD4A4610
:10145400071C032A00D145E142464420105605F0FA
:10146400B9FD9F4905F07FFD42468246106C05F0A8
:10147400B1FD51468346201C05F05EFD5946041C0F
:10148400281C05F059FD5146051C504605F06BFD1E
:10149400011C301C05F050FD5946061C504605F051
:1014A40062FD011C381C05F047FD4A46071C042A4E
:1014B40000D117E142464C20105605F08BFD8849B7
:1014C40005F051FD42468246906C05F083FD51467D
:1014D4008346201C05F030FD5946041C281C05F0E9
:1014E4002BFD5146051C504605F03DFD011C301CEA
:1014F40005F022FD5946061C504605F034FD011C3A
:10150400381C05F019FD4A46071C052A00D1E9E0FC
:1015140054234246D05605F05DFD714905F023FD84
:1015240042468246106D05F055FD51468346201C07
:1015340005F002FD5946041C281C05F0FDFC51462B
:10154400051C504605F00FFD011C301C05F0F4FC91
:101554005946061C504605F006FD011C381C05F0D2
:10156400EBFC4A46071C062A00D1BBE042465C203D
:10157400105605F02FFD5A4905F0F5FC4246824607
:10158400906D05F027FD51468346201C05F0D4FCE0
:101594005946041C281C05F0CFFC5146051C504636
:1015A40005F0E1FC011C301C05F0C6FC5946061C84
:1015B400504605F0D8FC011C381C05F0BDFC4A4619
:1015C400071C072A00D18DE042466420105605F01E
:1015D40001FD434905F0C7FC42468246106E05F002
:1015E400F9FC51468346201C05F0A6FC5946041C10
:1015F400281C05F0A1FC5146051C504605F0B3FC1F
:10160400011C301C05F098FC5946061C504605F098
:10161400AAFC011C381C05F08FFC4A46071C082A4A
:1016240060D042466C20105605F0D4FC2C4905F0DD
:101634009AFC42468246906E05F0CCFC51468046A8
:10164400201C05F079FC4146041C281C05F074FCA0
:101654005146051C504605F086FC011C301C05F063
:101664006BFC4146061C504605F07DFC011C381CF1
:1016740005F062FC4A46071C092A33D0019A0298F5
:101684009046039B1B181B0198444346742018562C
:1016940005F0A0FC124905F066FC43468246186F2B
:1016A40005F098FC51468046201C05F045FC414657
:1016B400041C281C05F040FC5146051C504605F04E
:1016C40052FC011C301C05F037FC4146061C5046F8
:1016D40005F049FC011C381C05F02EFC071C01E038
:1016E400CDCCCC3D484605F075FC311C804605F058
:1016F4003AFC211C061C201C05F035FC011C301C86
:1017040005F017FC0021061C05F05CFC002841D103
:10171400391C404605F027FC211C071C281C05F039
:1017240022FC011C381C05F004FC311C05F007FCEC
:10173400211C061C05F017FC011C281C05F0F9FBF4
:10174400414605F0FCFB1C49041C301C05F00BFC55
:10175400FC21890505F0F0FB05F05EFCFC218146C7
:101764008905201C05F0E8FB05F056FC029B019A54
:101774001B01D3181A00C832166054604946D0229F
:1017840099500432985005B0F0BCBB46B246A94605
:10179400A046F0BD4146281C05F0D1FBFC2189057B
:1017A400041C05F0C9FB05F037FC00239946DDE76E
:1017B40000200026014CD9E7ABAAAA3F0000C07F55
:1017C400F0B5454657464E46DE460300E0B52433A1
:1017D400A1B0020005930323283214000025984683
:1017E400EC27CA4E069007924246059B29005A559B
:1017F40000232373C64B2771A36014232375C54BA1
:10180400266023610698FFF799FD6B1C503401256F
:10181400022BE9D1133304AA99180020FEF7A8FD7E
:10182400152304AA991804020120FEF7A1FDBA4B5E
:1018340004439C4200D060E1162304AA9B189A46F4
:1018440017239B189846B54B00249B46FF2300277B
:101854009946B34E0AAD1BE004F0AAFF8019794102
:10186400002902DA0120AF4940420023029003918B
:101874000093524650215846013306F09DF9002842
:1018840020DD53461B7801342B700135582C1FD0B2
:1018940053464A461A7043461C7004F089FF801967
:1018A4007941002902DA01209E4940420023029036
:1018B40003910093424650215846013306F05CF9E7
:1018C4000028C9DC002301342B700135582CDFD1EA
:1018D4000AA8954B954956300AAA20E05B001CB231
:1018E400002C27DB5C0023B2002B28DB640023B22E
:1018F400002B29DB640023B2002B2ADB640023B213
:10190400002B2BDB640023B2002B2CDB640023B2FE
:10191400002B2DDB630001329BB290422ED0147851
:10192400240263401CB2002CD8DA64004C4024B278
:10193400231ED7DA64004C4023B21C1ED6DA5B00A7
:101944004B401BB21C1ED5DA5B004B401BB21C1E65
:10195400D4DA5B004B401BB21C1ED3DA5B004B4055
:101964001BB21C1ED2DA5B004B401BB21C1ED1DA28
:101974005B004B4001329BB29042D0D1562204A965
:1019840018318A5A52BA92B29A4200D0B5E000266F
:101994002427079DB0460BAC13AE41462378059A25
:1019A4005354002B00D199E0A278E178120609047F
:1019B4000A4361790A43217909020A4361782A605A
:1019C4002971012B00D189E0E279217A12060904F8
:1019D4000A43A17A0A43617A09020A43A179AA60F7
:1019E4002973022B7AD0227B617B120609040A43F5
:1019F400E17B0A43A17B09020A43E17A2A61297542
:101A0400032B6BD0627CA17C120609040A43217D5E
:101A14000A43E17C09020A43217CAA612977042B49
:101A24005CD0A27DE17D120609040A43617E0A436B
:101A3400217E09020A43617DE9552A62052B4DD0B6
:101A4400E27E217F120609040A43A17FA07E0A4395
:101A5400617F09020A432C216854AA62062B3DD0F7
:101A640032787178120609040A43F178E07F0A4358
:101A7400B17809020A43342168542A63072B2DD014
:101A84007279B179120609040A43317A30790A432A
:101A9400F17909020A433C216854AA63082B1DD03A
:101AA400B27AF17A120609040A43717B707A0A4306
:101AB400317B09020A43442168542A64092B0DD05E
:101AC400F37B327C1B0612041343B27CB17B1343B9
:101AD400727C120213434C22A954AB64414606980B
:101AE400FFF72CFC43460122293490465035293611
:101AF400012B00D051E7002000E0012021B0F0BC10
:101B0400BB46B246A946A046F0BDC046344E0500C9
:101B140050FC030040A90200D107000090EA002015
:101B240010270000FFFFFF7FFFFF000021100000CF
:101B3400F8B5CE464746002580B50700EE4B102287
:101B4400036000210561C560856045600562C5616B
:101B540085614561F83005F045FB842338005B005E
:101B6400FD520D30023308220021FD52FF3005F0F2
:101B740039FB80238A221B015200BB520232BB5222
:101B840038008C2300245B001D30FC540021FE3AF5
:101B9400FF3005F027FB3800353006220021FF30E6
:101BA40005F020FBB5235B00FC543E230822FF33E1
:101BB400FC54D24B01261A60E022D14BD2011B689F
:101BC4001340D04A13609D235B00FC54063BFC5435
:101BD4003623FF33FC540133FC543823FF33FC54C5
:101BE4000133FC543A23FF33FC54C74BC74C98468B
:101BF400237804219946180003F0A6FD4B460421DE
:101C0400581C03F0A1FD4B464A465B081F2A00D925
:101C1400AAE107221A4093009B18BD49BD4A9B00C4
:101C24009A18591815600D60BB4959180D60BB49C5
:101C34005B18414619601023536016602378013302
:101C440059081F2B00DD8BE107220A4093009B18E3
:101C5400AF49B04A9B009A18591815600D60AE49F7
:101C640059180D60AD495B18414619601023536043
:101C7400166023785A081F2B00D938E10721114038
:101C84008A005218A44992005118096840468C46AB
:101C9400310019404942414060460140A0480133A7
:101CA400121811605A081F2B00DD1CE10721114096
:101CB40040468A00521898499200511833400968E6
:101CC4005B4243400B409649023452181360954BD3
:101CD4009C428DD105F0BAFC1F211B2003F034FD7A
:101CE400002200211B2003F047FD00211B2003F0EC
:101CF40055FD1F211A2003F027FD002200211A2080
:101D040003F03AFD00211A2003F048FD1F211C2096
:101D140003F01AFD002200211C2003F02DFD0021F8
:101D24001C2003F03BFD1F211D2003F00DFD0022AC
:101D340000211D2003F020FD00211D2003F02EFDB5
:101D4400182003F03DFD192003F03AFDD024802330
:101D540024065B04636280239B046362082003F00F
:101D64002FFD80235B0063620920636103F028FD7B
:101D740080239B0063620220636103F021FD04233E
:101D84000022A3620121022003F0F6FC032003F0E9
:101D940017FD0823644DA36200220121032003F0F0
:101DA400EBFC2800614905F0ADFC02229046414657
:101DB4006B68122013405E4A11600F2229681025B7
:101DC4005140C0320A405B490A605B4A01211360FA
:101DD40003F0BAFC0121132003F0B6FC0121152005
:101DE40003F0B2FC0421172003F0AEFC04211620FA
:101DF40003F0AAFC0022474B5049DA635A649A6400
:101E0400D9641D64DE63DA635A649A64D9641D6418
:101E1400DE63FA234A499B040A68072053401B0CDB
:101E2400484A1B041360FA2309689B004B401B04B7
:101E34001B0C136003F0C4FC062003F0C1FC052056
:101E440003F0BEFC8023A362403BA362203BA36259
:101E5400142003F0B5FC00220021142003F08CFCB4
:101E6400042003F0ADFC65623749A561374805F0ED
:101E74005BFE0321102003F067FC0321112003F013
:101E840063FC002003F09CFC6662012003F098FCD4
:101E9400434638006362FFF7F1F9F023F854380041
:101EA400FFF78EFC9F23464001205B003040F8542E
:101EB400563B9846B844404605F030FB142643464A
:101EC400234C244D03CB244A244B05F015F8013E42
:101ED40000196941002EF6D1434603C33800C0BC43
:101EE400B946B046F8BD032111400831E0E60321AC
:101EF40011400831C4E6C0461CD9002000F004405B
:101F040000C0044000D00440FFFF0000E0DD0020DA
:101F140008000540000005400C0005401000054085
:101F24000C100540E6DD002000C00340286BEE00E5
:101F340004F0034000D0034004E00340CF07000056
:101F44004800054048100540A086010090EA0020A2
:101F54004F8167F77E7B05142D7F954C2DF45158E6
:101F640003220A40083271E603221A40083252E67C
:101F7400F0B54546DE4657464E461C00D823E0B52C
:101F84008BB00291FF33C35C050090460393002B92
:101F940016D0EB235B00C25C002A11D0039B082BF4
:101FA40000D8B0E0093BDBB2072B06D8C118CE48F5
:101FB400095C002901D000F0DCFDCC4B9A46A8E076
:101FC400E42300225B00EB580492984480235B01D5
:101FD40098455CDBC64B9846B62302995B0089465C
:101FE400EA58474691444A46EA50159B002B55DC73
:101FF4007F433B0B06934B469B0D5A000133BD4F69
:102004009B055B0DBA5EF95E4B469B02891A9B0DDC
:102014004B43E1009B129B18091B9A460B0B0905C5
:10202400090D9B460B004B431B0B5A00D2184B4324
:102034001B0B5B00D31A01934B461E0DAE4B9C4603
:10204400B444634605934B46002B55DBAA4B7F2EC5
:1020540001D800F0F6FB5246D21094464A4654008A
:10206400A20D510001329205520D795EBA5E0794B9
:10207400A402521AA40D54435A46A4126418062A00
:1020840001D900F0D5FC9D4992008A5897464346F1
:10209400DB434246DB171A4090469DE7D822802155
:1020A4005200AB5889000133AB508B4200D387E018
:1020B400DA235B00EF580433EE588022159B52015B
:1020C400934200DB8A4B5B431B0B9800C018400013
:1020D400C018142104F05AFE80234743BF1247441A
:1020E4005B019F4204DB824F8011704381447FE790
:1020F400FB43DB171F40F7E7059B7F2B01D800F05C
:1021040090FD7F4BA7E7013B7E49DBB29B005B5808
:102114009A46EA235B00EE5CD623FF33EB5C9946D8
:10212400072E01D900F0F3FBF30053445F68002F3E
:1021340078D0DE2149006A5801326A501988E623B2
:102144005B00EB580591C81A50433900049301927F
:1021540004F01CFE049B019AC018E2235B00E850C3
:10216400974245D94B46072B01D900F041FD534610
:10217400002240334946C9005B185968002900D140
:102184000131E0277F00E8590130E8511B88814282
:1021940000D8C2E3E8225200AF58DB1B584304F0D6
:1021A400F5FDE422C3195200AB50E2225200A858B4
:1021B40080225201904200DA47E34D4A049204E738
:1021C4000023D6215048AB508446DA2049006A588F
:1021D4004E4B40005A4362445343170E6344803FBE
:1021E4002F501E0E6B50DC23803E5B00EE5064E7E4
:1021F400EA2205995200E950731CDE20DBB2AB548D
:10220400002240002A50CD32FF32A9504A46072A04
:1022140001D900F0E4FC083B5A425341DAB2534678
:102224004033A7E7013784E70122059C0892019A0D
:102234001B1B53435246D4461B1306991B199B1A66
:102244004B431B139C4481239B00EA5802981300C0
:102254005343DB1243431B13E246C118002A00DA3E
:10226400C11AB8235B00EE588E19EE50159B002B53
:1022740000DDF0E243465B431B0B0593B30D5A00AC
:1022840001339B055B0DBA5EF95EB302891A9B0D9F
:102294004B439B129B180293330D9946164B4B44A8
:1022A4000693002E00DA0AE34B4613497F2B00D82D
:1022B40057E3029BDB1098467000830D5A000133EC
:1022C4009B055B0DBA5EFB5E84029B1AA40D5C4306
:1022D4005B46A4120790A418062B00D956E30C4AB7
:1022E4009B00D3589F46C0466406000060D9002076
:1022F400FF0F0000E8DD002000F8FFFF68D8002091
:10230400FF070000F4D800205FF36E3C0D6619004F
:1023140084D800204B46B84AD21A079B9B195B000D
:10232400980D410001308005400D795E385E9B02B6
:10233400401A9B0D43439B125B1853431B1398464F
:102344000699AE4B4A4352139044984500DA984696
:1023540080231B01984501DBA94B98464B467F2BF4
:1023640001D800F0F6FB80231B01994501D200F04F
:10237400F0FB4A46A04B51009B1AA24A5B00521A3A
:10238400B400A419A00D410001308005400D795E10
:10239400385EA402401AA40D4443A41264185C439A
:1023A400534324139B13E418944B9C4200DA1C00FF
:1023B40080231B019C4200DB914C4346019AE31AA3
:1023C4005343029A1B13059943449B1A4B431B1313
:1023D4009B1882221C0080219200AA5809015443B0
:1023E40024138A4200DA0A00534352461B13534310
:1023F400824A9B12934200DA130080221201934214
:1024040000DB7F4B5146149A14981201121A1202DF
:102414005B1A121353431B135E18039B002B00D14A
:1024240056E2BA225200AB58002B00D14EE2013BD7
:102434001803AB50C01A602104F0D0FC6E4B181A7C
:10244400049B6E4A5843001344437043031393425E
:1024540000DA130080221201934200DB684BF2225F
:10246400AB52664B24139C4200DA1C0080231B01F0
:102474009C4200DB624CF423EC520BB0F0BCBB4634
:10248400B246A946A046F0BD032223000892644642
:10249400CDE64B467F2B00D8BFE3069B7F2B00D8AD
:1024A400CDE3029B8846DC1087E74B467F2B00D8A0
:1024B400A9E3069B7F2B00D8CAE3089B062B00D90F
:1024C400D3E3514A9B00D3589F464B465A0080237E
:1024D4001B01994500D320E3484B9C469444B30028
:1024E4009B199C0D60000134A405640D385E3C5FAB
:1024F4009B02241A9B0D63439B121B185343614692
:102504001B1398464A433D4B92139044984500DA76
:10251400984680231B01984501DB394B9846F3000C
:102524009E1BB20D94465100785E990D4C0001310A
:102534008905490D3C5F795E624601329B02920532
:102544009B0D091B520D5943BA5EB302121A9B0D1F
:102554005343891209199B121B184910CE184B4674
:1025640076107F2B00D853E2C0239B00994500D2FC
:102574004EE2C0231B01994500D214E34B461803D5
:10258400181A224B2249C01804F000FC041147E237
:10259400902109018E4200D348E33003801B04F0EC
:1025A400F5FB154B164C181A40430013241A079ACE
:1025B400114B4A445200900D410001308005400DFA
:1025C4009B1B795E385E9202401A920D424392122E
:1025D400521805995A434B4312135B13D318074AF5
:1025E400934200DA130080221201934200DB044B71
:1025F400052208921BE6C046FF0F000000F8FFFF0B
:10260400FF070000FF170000A0D8002001E0FF0032
:10261400FF030000079BD4484B445B00990D4A001C
:1026240001318905490DBA5E795E9B02891A9B0DB9
:102634004B43059C9B12801B9B18434344431B1331
:1026440064131C19C94B9C4200DA1C0080231B0133
:102654009C4200DBC64C802372001B019E4200D2C8
:1026640057E2C4498B1A9C4642004B469B004B449C
:102674009E0D70000136B605760D385EBE5F61466C
:102684009B02361A9B0D73439B121B1853434A43F8
:102694001B1392139B18B54A934200DA130080224D
:1026A4001201934200DBB24B06220892BFE590214F
:1026B40009018E4200D217E204230893AB4BB6E51E
:1026C4007F2E00D899E2059A1C007F2A00D8BAE22E
:1026D40053460222DB100892A9E59021090189459D
:1026E40000D3A9E24B461803C01A04F04FFB9E4BDB
:1026F400181A40439E4B00131B1A98464A469A4B9D
:102704009B1A079A94196400A10D4A0001318905A6
:10271400490DBA5E795EA402891AA40D4C43A41231
:10272400A418069A5C43534324135B13E4188F4B99
:102734009C4200DB3CE63AE64B467F2B04D99023CF
:102744001B01994500D373E24B4690211803C01A2C
:10275400090104F01BFB844BA046181A4043844C27
:102764000013241A29E6802372001B019E4200D321
:10277400C8E17E4BD31807934B469B004B449C0DFA
:1027840060000134A405640D385E3C5F241AA4463D
:102794009C026346A40D5C43079BA4122418544373
:1027A4005A4324139213714BA4189C4200DA1C0060
:1027B40080231B019C4200DB6D4C4B464A46DB00E8
:1027C4009A1A910D48000892385E07918446980D34
:1027D4004200BA5E013091468005400D385E4A469B
:1027E40007999B02013189059B0D801A490D5843B5
:1027F400795E6346C91A089B80129B029B0D4B436A
:1028040048449B1263444010C018431099467F2EDD
:1028140000D851E1059B7F2B00D8C7E1C0239B0062
:102824009E4200D248E1C0231B019E4200D2BDE17A
:10283400514B3003301A5149C01804F0A7FA021161
:1028440041E14B4A9446FFF709FCC243D2171040BA
:102854000490FFF7BAFBD82280215200AB588900BC
:102864000133AB508B4236D2DA235B00EB589946E6
:10287400DC235B00EC58802315985B01984200DB55
:1028840039484043000B83001B185B0018181421BF
:1028940004F07CFA4B4643439B12984480235B012B
:1028A400984505DB304B9846801144433619E1E4E2
:1028B4004346DB434246DB171A409046F4E72C4973
:1028C4007F2B00D9F5E4294B9846F5E42648B7E573
:1028D400254B0493A5E500238020AB50D62228493C
:1028E40040428C4681465200AB58264C63436344B5
:1028F400190E8944DA2148465C43DC2364444900C8
:102904006850AC50240E803C5B00EC50B3E7072BBE
:1029140017D853464033FFF72DFCE42149006B5090
:102924004946D6200131FF30C9B229540020E8516C
:10293400D130FF302B50002A00D136E4082900D0D2
:1029440033E4EB2200235200AB540F4AAA5C002A62
:1029540000D004E1C533FF33E8580433EB58FFF7E4
:1029640027FC034B9846A7E4FF0F000000F8FFFF85
:10297400FF070000FF17000001E0FF00FF03000055
:102984005FF36E3C0D66190061020000C0218900EE
:10299400894500D3D2E04B461803C01A04F0F6F977
:1029A400834603110693F3009E1BB20D5100795E1A
:1029B40001328C46990D4C0001318905490D3C5F6B
:1029C400795E9B029205091B9B0D520D4B43BA5E27
:1029D40061465846B602521AB60D56439B121B194D
:1029E400B6125B1066449E1976107043001380463D
:1029F400069B9844D44B984500DA984680231B01E3
:102A0400984501DBD14B98464B467F2B00D9ABE56B
:102A14004B46C0211803C01A890004F0B7F9041109
:102A24007043C94B001304199C4200DBC0E4BEE4AC
:102A3400C02189008E4278D23003801B04F0A6F9AD
:102A44000311089009934B464A46DB009A1A910DEC
:102A5400480007923C5E980D89464200BA5E0130F8
:102A6400944649468005400D385E62460131890529
:102A7400490D801A795E079A9B029B0D9202091BED
:102A84004343920D4A439B126344921212195B1002
:102A9400089C9B185B105C439946099B2413E4181B
:102AA400A94B9C4200DA1C0080231B019C4200DBE2
:102AB400A64C7F2E00D9ADE6C0213003801B8900CF
:102AC40004F064F902114B46584303139B189E4AC1
:102AD400934200DA130080221201934200DB9B4BE5
:102AE40007220892FFF7A3FB3003801B04F04EF982
:102AF4000422974B0892181A4043944B00131B1A54
:102B0400FFF795FB924B93499B1B8A1A07925A0035
:102B140032E68D4B9C469444A7E549468C4B5B1AA0
:102B24008C498A1A94465A00D9E4C0231B019E4258
:102B34002ED2FF230993864B089384E7C0231B01FD
:102B440099451ED2FF230693814B9B462BE7069B98
:102B540098464B467C4A5B009A18FFF711FC982272
:102B64009200AB54E2235B00E8580433EB58FFF7C0
:102B74001FFB9921DB0189005B18EB189A46FFF7CC
:102B8400C8FA4B461803181A734B7449C01805E762
:102B9400714B3003301AC018704904F0F7F8031170
:102BA400089009934FE7FF24694839E7FF226848F2
:102BB40089E7664C069B9846FFF7FFFB069B0C00D3
:102BC4009846FFF7FAFB069B984697E5069CB6E500
:102BD400069B9846FFF7C7FB029BDC10EAE7082B2D
:102BE40000D1AEE6E4235B000800EB58FFF7E0FAFF
:102BF400E4235B00EB58FFF7DBFA1C000223089385
:102C0400524BFFF714FB089B062B00D979E0544A7A
:102C14009B00D3589F46069C96E588464B4CFFF78D
:102C2400CCFB494A494B9446FFF718FA464CBEE49C
:102C3400A046454CFFF7C1FB434B98465EE58846EA
:102C4400414CFFF7BAFB022308933F4BFFF7EFFA1F
:102C5400089B062B2ED8434A9B00D3589F46069BBD
:102C64009846FFF786FB384CA4E707227243910D80
:102C74004B00FB5E9C46F300980D44000130800538
:102C8400400D3C5F385E9B02001B9B0D43439E122C
:102C94004B1C9B055B0DF95E6346C91A93029B0DA1
:102CA4004B4336199B1263447610F618069B761034
:102CB400984659E407227243910D4B00FB5E9C46F3
:102CC400F300980D440001308005400D3C5F385EF0
:102CD4009B02001B9B0D43439E124B1C9B055B0DEB
:102CE400F95E6346C91A93029B0D4B4336199B1236
:102CF40063447610F618069BFF2498461448761011
:102D04008EE607227243910D4B00FB5E01319C4617
:102D1400F300980D4400013040003C5F385E9B0294
:102D2400001B9B0D434349009E12795E6346C91AFA
:102D340093029B0D4B4336199B1263447610F6188D
:102D4400069B7610984663E600F8FFFFFF07000035
:102D5400FF0F0000FF17000001E0FF00FF03000069
:102D6400BCD80020D8D80020F0B53F4BC9B00093A0
:102D74003E4BD822019381239B00C6580433C35889
:102D8400FF3203939C460023190002960493059393
:102D9400855CD03AFF3AAA4259416C464A42694698
:102DA4001540334A257663766383079307A80B7827
:102DB40001315A4013049B185B009B18DB009B18DD
:102DC400DB009B185B009A188842F0D12949E26124
:102DD400254B0A689A421BD0E022FF2110A804F078
:102DE40001FA2022210008A804F002FAEFF310846B
:102DF40072B680212048490109F010FE80221E4845
:102E0400520008A909F052FE84F3108849B0F0BDBD
:102E14008B88022BE0D1CB88202BDDD1CB69144ADF
:102E24001F0016480B7801315A4013049B185B00AD
:102E34009B18DB009B18DB009B185B009A188142EF
:102E4400F0D19742C8D10B4B9A689642C4D1DA6844
:102E54009445C1D11A69002ABED15A69002ABBD14E
:102E64001B7EAB42B8D1D1E7335A31430200200074
:102E7400C59D1C8100F01F1000F01F001CF01F10E6
:102E8400F0B5DE4657464E464546E0B5554B040080
:102E9400C25C8BB0002A12D00021C154524BC25CD8
:102EA4000333C254514BC25C514BC2540122073309
:102EB400C252D823FF33C35C002B00D056E28A23CE
:102EC4005B00E05A0233E35A80221BB20593862347
:102ED4005B00E3585200029388235B00E358F0211F
:102EE40007933C23FF33E35C49009846F823E658F4
:102EF4000433E358A25800B2914694229200A25C93
:102F04009446625C002A1DD1EC256D006259394F4C
:102F1400BA4215D83849013262518A4212D942461E
:102F2400002A00D15CE2E222FF32A25C002A00D037
:102F34005DE2324AA15C002913D10131A15410E0B1
:102F440001226254E222FF32A15C002900D04EE249
:102F54002A4D625D002A59D04246002A01D100F070
:102F64002FFF0121264AA1546246022A01D100F012
:102F74005FFEC44500D0F6E2942241469200A1547B
:102F8400183AA25C002A01D100F05AFFF422520040
:102F9400A6501C49625C002A00D106E3F6225200C6
:102FA400A3500693184AA35C002B15D14D46F13368
:102FB400FF33E1582C33E358EB1ADF17DB197B405E
:102FC4003F2B00DC20E36B1ADD175B196B40602B91
:102FD40000DD19E30123A354F8234A465B00E250C1
:102FE4001C3340E057020000550200005602000066
:102FF400590200009F8C0000DF2E00004E020000EA
:103004004F020000390200003A020000013262550A
:103014004246002AA5D14146E14AA152002102328A
:10302400A1544946143AA6500432A3500432A15084
:1030340041461032A1500832A1529422002192003C
:10304400A154D84AA25C002A01D000F042FEF42325
:103054005B00E6580433E3580693F8235B00E35817
:10306400994683239B00E3589B4684239B00E358A3
:103074009A466B46562108229B5E0003FF31089353
:1030840003F084FE98239B00E35C0500002B00D032
:1030940042E380235B019E4200DA39E3C24B98008D
:1030A400C018C149000303F071FE4519E023DB0198
:1030B4009D4200DD1D00BD4B9D4200DA1D00EB1753
:1030C4001A05120D1B0D5219ED182D0512132D0D95
:1030D4000492ED1A04D58023013A5B01ED180492A1
:1030E4006E007619B61230030C21070003F04EFE71
:1030F40003902D1A38008027AD4AB3009B587F01F6
:103104000C21C0190292099303F040FE0399013681
:10311400411AE80303F03AFE029AB600099BB2583A
:103124000021D21A5043C013C018A24A002303F04E
:10313400E3FE4B04C10B5918049B002B00DAFDE29B
:10314400994080239B00E358002B05D0CA1A5112E2
:1031540001D100F090FF591880239B00E150059B9A
:103164005D00069BED1880235B019D4200DA6AE254
:103174008D4D089B5E0080234E445B019E4200DA25
:1031840051E24346884E002B00D053E26B461C228A
:103194009A5E002A00DCD4E25B465200D3188022F7
:1031A4005201934200DBA5E2DA43D2171340802296
:1031B4005201924500DA31E27B4A0A20FF30205C5A
:1031C40000280DD00C20FF30205CC7B2BC4600287C
:1031D40006D1D820FF30205C002801D000F04BFE3F
:1031E400019200932A0033002000FEF7C1FEC023A1
:1031F40080215B00E2580901131C12B28A4200DBF1
:103204006D4B6E4A1BB2934200DA13006A486C4954
:10321400C31A5A01D21A9200D3180B60C223802712
:103224005B00E2583F01131C12B2BA4200DB031CDC
:10323400624A1BB2934200DA13005F4AD21A530166
:103244009B1A9B009B184B60D4235B00E35C002B10
:1032540000D057E2D02380221B0652005A61AA23D1
:10326400FF33E35C002B00D046E2D02380221B0610
:1032740092005A616D43534A2B12116876434B40B6
:103284001B0451491B0C0B60106833121B04434090
:103294001B0C1B040B6082239B00E35A4B4E5B43C5
:1032A40030681B021B0C4340494D1B041B0C2B6054
:1032B40083239B00E35A30685B431B121B04434087
:1032C4001B0C1B042B6084239B00E35A41485B4383
:1032D40007681B021B0C7B401B043F4F1B0C3B600D
:1032E4004346BC46002B00D1B1E103681B0C1B0410
:1032F4003B60912300279B00E7500833E752922755
:10330400BF00E359002B2AD0013BE351DB04334CCB
:10331400DB0F013B2340244C1B195B4314681B1235
:103324005C402404240C0C6012681C046240120CDF
:1033340012040A6032685A401204120C2A6032687D
:103344006240120C12042A600268534062461B0455
:103354001B0C1360036863401B0C1B0413600BB04D
:10336400F0BCBB46B246A946A046F0BDB6235B00FE
:10337400C1500433C1505F320433C2500122483378
:10338400C1500833C1500833C1500833C152143BF3
:10339400C1500833C1500833C1500633C2548EE5BE
:1033A4003E0200004F020000FF0F000000E0FFFF9C
:1033B4002CD90020314D5900FF07000000F8FFFF11
:1033C400C4E90020700005407010054084000540E9
:1033D40084100540980005409810054001F0FFFF57
:1033E400E2230122FF33E25442460133E254002334
:1033F400F222A3520232A352D94BDA4A1A605A601B
:10340400D02380221B0652005A6192185A618023ED
:103414005B019E4200DBE3E0F243D2173240D1006D
:103424008918D82201200B0BFF32A35402001A4042
:10343400184200D0CC4ACD4B1B685A401204CC4BE6
:10344400120C1A6080220B0092011340114200D02A
:10345400C54BC64A1B04126853401B0CC44A1B04C8
:10346400136080230A00DB011A40194200D0BE4ACF
:10347400C048C90B036853401B04BF4A1B0C1360AC
:10348400002900D0A8E003681B0C1B041360BB4B8D
:10349400BB4A1B681B041B0C1360B84BB84A1B685F
:1034A4001B0C1B041360F1235B00E25C002A01D1B6
:1034B40000F07DFCE4234246FF33E55C002A01D0A2
:1034C40000F022FD002D00D18CE06346002B00D0DB
:1034D40088E0EE225200A358AA498B4201D800F09A
:1034E400C1FDF2267600A35D002B00D083E020000E
:1034F400FFF73AFC0123A355A34B92229200A35059
:103504006B425D41A14B6D421D40A14B974AED18A2
:103514006D4313682D126B4095491B041B0C0B6003
:1035240012682B045A40120C924812040A60026872
:1035340091496A401204120C0A6002688F485A408A
:10354400120C12040A6002688D496A401204120CBB
:103554000A60026853401B0C1B040B609423424610
:103564009B00E254FBE64246012A00D018E1624681
:10357400012A00D100E58E2200219200A152854A41
:10358400A1544946263AA6500432A3500432A1500D
:1035940041463432A154683AA1588E229200A25C6A
:1035A400002A00D0F2E40E00F3E4ED32FF32A55815
:1035B4002C32A25806959A1AD717D2197A403F2A64
:1035C40000DCEFE45A1BD51752196A40602A00DD6B
:1035D400E8E401226254E1E401686F4B4B4053E795
:1035E4006B4A1CE7E42201230021FF32A354013279
:1035F400A154083AA35092239B00E358002BADD06A
:10360400013BDD04ED0F78E783239B00E3588946F3
:103614009B4684239B00E3589A462AE55046C243BE
:10362400D2170240C9E5F343DB171E404346002B83
:1036340000D1ABE580235B019B455BDA5A46D3435B
:10364400DB171340B3E5EB43DB171D4091E502683C
:10365400514B53401B0C1B043B6093239B00E55CC4
:10366400002D0CD091229200A35846498B4200D8D9
:10367400EBE24A4EA35D002B01D100F073FC9223D0
:103684009B00E358002B00D169E6013BDD04ED0FFC
:1036940092229200A3506B425D413C4A6B4213401C
:1036A4003B4A32499B185B430A681B125A40304814
:1036B4001204120C026009681A045140090C2D4CC2
:1036C4000904016021682C4859400904090C01606F
:1036D40021685140090C09040160284801684B40E5
:1036E4001B0427491B0C0B6003685A40120C12047C
:1036F4000A6034E6264B5AE5D02380221B0692004A
:103704009A61B7E5D02380221B0652009A61A6E590
:10371400F343DB173340C2E496239B00E05C0C21A7
:103724002438000303F032FB97239B0006000C218E
:10373400E05803F02BFB36187519B7E45B42D94007
:10374400FFE4002A00D175E780235B019B4500DA82
:1037540076E20F4B50465200821A924627E5C04645
:10376400C4E9002083E70300E0FF00007000054087
:103774007010054084000540841005409800054001
:1037840098100540FFDB05007FBB000001F0FFFF40
:10379400FF0F00003A0200000000E0FF4D020000AD
:1037A400022A01D0FFF7E8FB00224846E5496254AB
:1037B400013162521C396650043163500431605047
:1037C40040462831605400200C396250083162525E
:1037D400FC225200A1582C32A2589A1AD517521919
:1037E4006A403F2A00DD7AE30B00002800D03DE266
:1037F400FE224D465200A1582C32A258AA1AD017C4
:10380400121842403F2A00DD26E28946DA00D31A24
:103814005B001B130233102B00D91023D02252005B
:10382400A350983AA25C002A00D1D2E1852252002A
:10383400A25CD1B2002A00D0CBE1D2225200A15026
:103844000121FA2299405200A058BF4A0139821836
:1038540002D580221201121ABC2040002558783863
:10386400FF3806008046AC30FF302058D2100700E5
:10387400B6482E407843B64FC019FF2A06DCD2431F
:10388400D2B2070EBA4201D94646AE43D6225200FE
:10389400A0503200013B9A401300BC22AA206D08BC
:1038A4002B430B405200A3503032A6549A07D20F38
:1038B400FF302254CC2200205200A0501803C01A1A
:1038C40003F08CFAA04BC018802345002D18AD02DC
:1038D4009B002D13ED1880231B019D4200DB9D4DA1
:1038E400C0235B00E550043BE2581001801A4019E4
:1038F4000011E0500833E050002E00D155E3D823E6
:10390400FF33E35C002B00D176E3DE220023520078
:10391400A3500832A3500832A3500832A352143AD9
:10392400A3500832A3500832A35001330632A354E3
:103934003A3AA350CC225200A3580133A350962202
:10394400D200934203D9D42300225B00E2528022A6
:1039540029B22B1C1201914200DB7E4B7A4A1BB226
:10396400934200DA13007B4E7B49F31A5A01D21AB0
:103974009200D31880220B60031C00B21201904203
:1039840000DB331C704A1BB2934200DA1300714A05
:10399400D21A53019B1A9B009B184B60F42380227C
:1039A4005B00E3585201934200DA3DE16B4B98000F
:1039B400C0186A49000303F0E9F9AB005B19DB02A4
:1039C4001B13C018E023DB01984200DD1800644B90
:1039D400984200DA1800C3171F051B0DC5183F0DC8
:1039E4002D053F182D0D3F13ED1A03D580235B01E0
:1039F400ED18013F6E007619B61230030C21804693
:103A040003F0C4F9574AB3009B58039004938023EE
:103A14002D1A40465B01C0180C21029203F0B6F93E
:103A240003990136411AE80303F0B0F9029AB6008B
:103A3400049BB2580021D21A5043C013C0184A4AFA
:103A4400002303F059FA4904C00B0818002F00DAC8
:103A5400ECE1B84080239B00E358002B04D0C21A49
:103A6400501200D1D2E21818802380229B00E0502B
:103A7400103BE3585201934200DAD1E0374BF6226F
:103A840080215200A25849018A4200DAC4E0334A34
:103A94008421890061580191832189006158009132
:103AA40001002000FEF764FAD4235B00E35C002BE2
:103AB40000D008E1D02380221B0652005A61AA23B9
:103AC400FF33E35C002B00D0F7E0D02380221B06F9
:103AD40092005A61BC225200A258012311001940DD
:103AE4001A4200D02149224B224A1B684B401B0436
:103AF4001B0C1360BC225200A2580223110019406F
:103B04001A4200D01C491A4B1A4A1B684B401B0C22
:103B14001B041360BC225200A25804231000184056
:103B24001A4200D011481549154A0B6843401B043A
:103B34001B0C136084235B00E35C0B6896201B0C56
:103B440020E0C0463B02000000F8FFFF0D661900AC
:103B54005FF36E3CFF070000C4E90020FF0F000084
:103B640000E0FFFF2CD90020314D5900E0FF000098
:103B740070000540701005400000E0FF840005401F
:103B8400841005401B041360D0235B00E258C0007E
:103B940013039B1A1B031B0C5B43E34A1B021168B0
:103BA4001B0C4B401B04E1491B0C0B60CE235B0038
:103BB400E458002384425B4180205B42800303403D
:103BC400DB4812681B1853401B0C1B040B60FFF7E7
:103BD400C6FBD22149006258D648824200D9C9E1C5
:103BE40001326250CE22C020D421962652004000D9
:103BF400A358255849000430615C2058F600B342AC
:103C040000D2D7E1002900D094E6AA23FF33E35C75
:103C1400002B00D19BE68DE6D543ED172A4037E70C
:103C2400DA43D21713402AE7DA43D2171340BEE629
:103C34004246022A1FD0012A01D0FFF79DF99AE4D7
:103C44005846C343DB17034084E50133A350BA4A03
:103C5400934200D013E50CE56A1AD01712184240BB
:103C6400602A00DDD1E50121B44AA154FE2249466F
:103C74005200A150CAE5942240469200B04FA0548D
:103C8400E25D912594468F229200A25CAD0090469D
:103C9400AA4AA05C00226251083562536246002A97
:103CA40000D106E1FA225200A6504246002A00D171
:103CB4008EE5FC225200A35097E5D02380221B06F8
:103CC40092009A6106E7D02380221B0652009A6173
:103CD400F5E69C4AA25C002A00D19FE19A4AB218F8
:103CE4003E2A00D8A5E0994AB61881229200A6502F
:103CF400F217B6185640802276005201964200DA36
:103D040088E1822292499200A1509249625C002A81
:103D140013D183229200A5582432A258AB469A1A92
:103D2400D617921972403F2A0BDD5A1BD6179219E7
:103D34007240602A05DC0122625483229B46920071
:103D4400A35090229200A35C002B14D184234E46EE
:103D54009B00E5582433E358AA46F31AD9175B1895
:103D64004B403F2B17DD731BD9175B184B40602B5F
:103D740011DC0123A35484234A469B00E250283BD0
:103D8400E6580433E358CA460693F8235B00E35825
:103D94009946FFF76EF9F4235B00E6580433E358C1
:103DA4000693F8235B00E3589946FFF762F942460D
:103DB400002A01D1FFF7D2FB0122E254FFF7CEFB28
:103DC4006246022A00D096E0C422634D5200AC46FB
:103DD400A258624F94446546BD4209D8C8256D0077
:103DE4006251043D6251D5228C3D5200FF3DA554E1
:103DF400C42200255200A550002294469422654610
:103E04009200A554043AA15449464E4AA55202329E
:103E1400A554143AA6500432A3500432A150504A77
:103E2400A25C002A01D1FFF712F96EE77F42F84045
:103E340010E6812200219200A1500432A15064E7CF
:103E4400E932FF32A1582C32A258B21AD5175219AE
:103E54006A403F2A01DCFFF7A0FB721AD5175219FA
:103E64006A40602A01DDFFF798FB8E22012192004F
:103E7400A154FFF78BF8B620400027500430275098
:103E840060270430275067464830275008302750B1
:103E9400083027500830275214382750083027504C
:103EA40008302750EB27D038FF387F00E055FFF764
:103EB40097F988229200A258B21AD51752196A406B
:103EC4003F2A00DCF1E6FA225200A258B21AD517B2
:103ED40052196A40602A00DDE7E6E155E2E65A1A23
:103EE400D51752196A40602A00DD7DE48F22012132
:103EF4009200A154DDE6002A01D1FFF79EF8614645
:103F040001394A42514177E7002D01D1FFF726FBE1
:103F1400E2210022FF316254E254073BE2500833AD
:103F2400E254FFF71BFBC04698000540981005407B
:103F34000000E0FFFF76010000DC05003D02000008
:103F44003B0200003E0200001FF8FFFF00F8FFFFE5
:103F5400FF0F00003F0200009FF6FFFF9E6D01006F
:103F64004F0200002000FEF7FFFE0123A355444B3F
:103F7400FFF78EFBCA214D4649006258AA1AD01792
:103F840012184240402A18DCD5225200A25C655027
:103F9400002A17D0C6225200A258C420400021583B
:103FA4000131914225D221501CE6CE2301225B002F
:103FB400E2502AE60133A35024E6D5220020520021
:103FC400A05465508022520191450DDB2D492D4AA4
:103FD400521A5243110B2C4A4A432C49120B5218C1
:103FE400C62149006250D8E74A46D143C917114057
:103FF400EDE70022225023E401229D33FF33E250F7
:104004009832FF32A3580133A350A0E4511E8A41D1
:10401400D01829E582229200A65076E68B229200DF
:10402400A258B21AD11752184A403F2A00DC6CE653
:10403400812280219200A25809015218802149014D
:104044008A420BDB0F4AB21AD11752184A40602A2F
:1040540000DD5AE601210E4AA1543FE6D143C917B7
:104064000A40F0E70133A3500A4A934201D0FFF714
:10407400C2FAFFF736FA511E8A41D118FFF76CF8DD
:104084007FBB0000FF0F0000A8DE0000B80B00009B
:104094003E02000000DC0500024B1A78002A00D121
:1040A40018707047940B0120034B1A78824201D197
:1040B40000221A707047C046940B0120F0B5DE460A
:1040C40057464E464546E0B5834BD7B01B78019022
:1040D400834200D0C1E0002900D1BEE0002314AA2D
:1040E400D37116AB9A467D4B9B4614A98023524646
:1040F4000198073101F04AFA002800D1ADE0544696
:104104002378504405005246F02B20D0734A110006
:10411400734A8E5804328F5C724A8A5C9146002F2F
:1041240001D100F0C3FD00220021009200274A467D
:10413400F72B2CD06F2E00D896E00134AC4200D17E
:10414400B2E0237801270122F02BF1D12200541C84
:10415400AC4278D05378F02B00D195E0F72B01D105
:1041640000F042FD0020002281465F48561C0134C5
:104174005A44012101271354AC4200D17EE00122AC
:10418400237800924A46F02BE0D0F72BD2D1914607
:10419400002A00D1B4E0621CAA4201D100F020FD43
:1041A4006378F02BD3D0012158468846BB46049649
:1041B400F72B3CD859B2002901DA00F0FFFC4B4937
:1041C400465C0F21340037008C43103103948F4335
:1041D400802F01D0E02C2AD19527BF00C45D611C3B
:1041E40004190294424CC9B2A446029CC1556444C9
:1041F400237001291BD90023C3553E4BC15C0F23F7
:1042040033408B4213D16346C15C039B902B01D195
:1042140000F0F2FC802B01D100F0F2FC364BC35CC1
:10422400DB010B4335495B18972189004350013268
:10423400AA4201D100F0CDFC1378F02BB8D1541C64
:104244008346AC4286D1254B002298464146254BF5
:104254000026CA540121012332E057B0F0BCBB460A
:10426400B246A946A046F0BD914632001E48561CEF
:1042740001345A441354AC4200D080E70122012394
:104284000092002F12D116E0941CAC4201D100F030
:1042940004FD9378F02B00D158E70122012100920C
:1042A40000260022012743E7012399460B4A4C4686
:1042B40010000C4A8454009A002A04D0074A9046FD
:1042C4004046074A8650002900D10EE7034A1100F0
:1042D400DC22D2008B5408E7940B012070F30020F9
:1042E400DC060000E10600006C060000510200003C
:1042F40052020000620200005302000000E0FFFFCF
:10430400052E00D847E7F14BF14A98464146F14B58
:104314008A589A4200D03EE7CE23DB00CB5C332B95
:1043240000D038E7EC4BCB5CDA1E012A01D800F050
:104334007DFC012B00D02EE7672E00D02BE7E74B46
:104344004246CB5C36A912934B464B80E44B404625
:10435400D35CFE22DB0192011340E24A805C7F229F
:104364000240134380225201934200DBDE4B42465B
:104374009BB20B93DD4B4046D25CFE23D2019B01E2
:104384001A40DB4BC35CFE209B03400303404046C2
:104394001343D84A805C7F2202401343D64A0393D6
:1043A400934201D800F0A4FC03920B9BD34A0B80E8
:1043B400039B4B604346985CFE22C001920110406F
:1043C400D122D2009B5C7F221A400243802040010C
:1043D400824200DBC44A93B20C934346C84A985CB9
:1043E400FE22C00192011040C64A9A5CFE23920349
:1043F4005B031A4043460243C3481B5C7F201840BA
:10440400024310000492BC4A904201D800F098FC88
:1044140004920C9B00220B81049B4A81CB6043468F
:10442400BA4A985CFE22C00192011040B84A9B5CD3
:104434007F221A40024380204001824200DBAA4AC4
:1044440093B2D2220D934346D200985CFE22C0015F
:1044540092011040AF4A9A5CFE2392035B031A4018
:1044640043460243AC481B5C7F20184002431000C3
:104474000592A14A904201D800F05AFC05920D9B86
:1044840000220B82059B4A824B614346A34A985CF7
:10449400FE22C00192011040A14A9B5C7F221A4077
:1044A400024380204001824200DB8F4A93B20E9384
:1044B40043469C4A985CFE22C001920110409A4AED
:1044C4009A5CFE2392035B031A40434602439748D7
:1044D4001B5C7F201840024310000692864A9042DB
:1044E40001D800F01DFC069200220E9B4A830B8328
:1044F400069BD322CB614346D200985CFE22C001C6
:10450400920110408A4A9B5C7F221A400243802019
:104514004001824200DB744A93B20F934346854ABA
:10452400985CFE22C00192011040834A9A5CFE23EB
:1045340092035B031A404346024380481B5C7F207E
:1045440018400243100007926B4A904200D8E1E3FE
:1045540007920F9B00220B84079B4A844B624346BD
:10456400774A985CFE22C00192011040754A9B5C18
:104574007F221A40024380204001824200DB5A4AD3
:1045840093B210934346704A985CFE22C001920194
:104594001040D422D2009A5CFE2392035B031A409B
:1045A4004346024369481B5C7F20184002431000C5
:1045B4000892514A904200D8EFE30892109B0022DF
:1045C4000B85089B4A85CB624346614A985CFE2270
:1045D400C001920110405F4A9B5C7F221A40024353
:1045E40080204001824200DB3F4A93B2119343464C
:1045F400594A985CFE22C00192011040574A9A5CC5
:10460400FE2392035B031A404346024354481B5C57
:104614007F201840024310000992374A904200D884
:10462400B5E30992119B00220B86099B4A864B63D2
:1046340043464C4A985CFE22C001920110404A4A0B
:104644009B5C7F221A40024380204001824200DBAF
:10465400254A43460A92454A985CFE22C0019201CB
:104664001040434A9A5CFE2392035B031A400243C0
:10467400D5204346C0001B5C7F2018400243100035
:1046840002921D4A904200D87BE302920A9B0022C8
:104694000B87029B4A87CB634346364A985CFE22CB
:1046A400C00192011040344A9B5C7F221A400243AD
:1046B40080204001824200DB0B4A4346FE201392D5
:1046C4002E4A40039A5C92035AE0C04670F30020DD
:1046D4006C0600007D43315A71060000720600002A
:1046E4008406000083060000FF0F00008606000019
:1046F400870600008506000000EE0200890600001F
:104704008B0600008C0600008A0600008E0600005E
:104714008D060000910600008F060000930600003D
:10472400920600009506000096060000940600001C
:10473400970600009A0600009B06000099060000F8
:104744009D0600009C0600009F0600009E060000D7
:10475400A2060000A1060000A4060000A5060000B1
:10476400A3060000A7060000A6060000A906000094
:10477400AA060000AC060000AB060000AF0600006D
:104784000240EB48185CFE23C0019B0118404346DD
:104794001043E84A9B5C7F221A400243E648824267
:1047A40000D8E9E20200422000230B52139B023896
:1047B4000B5243464A64E14A985CFE22C0019201CE
:1047C4001040D622D2009B5C7F221A4002438020F4
:1047D4004001824200DBDA4A4346FE201392D94A62
:1047E40040039A5C92030240D748185CFE23C00140
:1047F4009B01184043461043D44A9B5C7F221A40D5
:104804000243CD48824200D8B1E202004A2000238C
:104814000B52139B02380B524346CA64CC4A985C31
:10482400FE22C00192011040CA4A9B5C7F221A40BA
:10483400024380204001824200DBC14A4346FE20FD
:104844001392C54A40039A5C92030240D720C000E9
:10485400185CFE23C0019B01184043461043BF4A25
:104864009B5C7F221A400243B348824200D879E21B
:104874000200522000230B52139B02380B52434672
:104884004A65B74A985CFE22C00192011040B54ABD
:104894009B5C7F221A40024380204001824200DB5D
:1048A400A74A4346FE201392AF4A40039A5C920300
:1048B4000240AE48185CFE23C0019B0118404346E9
:1048C4001043AB4A9B5C7F221A4002439A488242BF
:1048D40000D842E202005A2000230B52139BCA65FF
:1048E4000238D8220B524346D200985CFE22C00103
:1048F400920110409F4A9B5C7F221A400243802011
:104904004001824200DB8E4A4346FE2013929A4ABB
:1049140080019A5CD20102409848185CFE2380030F
:104924005B03184043461043954A9B5C7F221A4020
:1049340002438148824200D80AE202006220002336
:104944000B52139B02380B5243464A668D4A985CBD
:10495400FE22C001920110408B4A9B5C7F221A40C8
:10496400024380204001824200DB754A4346FE2018
:104974001392864A80019A5CD2010240D920C00079
:10498400185CFE2380035B03184043461043804AAF
:104994009B5C7F221A4002436748824200D8B4E1FC
:1049A40002006A2000230B52139B02380B52434629
:1049B400CA66784A985CFE22C00192011040764A89
:1049C4009B5C7F221A40024380204001824200DB2C
:1049D4005B4A4346FE201392704A80019A5CD201DE
:1049E40002406F48185CFE2380035B031840434673
:1049F40010436C4A9B5C7F221A4002434E48824219
:104A040000D87DE10200722000230B52139B023870
:104A14000B5243464A67644A985CFE22C0019201E5
:104A24001040624A9B5C7F221A400243802040016E
:104A3400824200DB424A4346FE2013925C4A8001D4
:104A44009A5CD20102405B48185CFE2380035B033E
:104A540018401043DA224346D2009B5C7F221A405E
:104A640002433548824200D83DE102007A20002307
:104A74000B52139B02380B520B9B0C98CA671A1CDF
:104A8400834200D2021C0D9B90B2984200D21A1CA1
:104A94000E9B90B2984200D21A1C0F9B90B298427F
:104AA40000D21A1C109B90B2984200D21A1C119B7F
:104AB40090B2984200D21A1C0A9B13439AB2002A5D
:104AC40001D1FFF768FB049B059A9C46039B634452
:104AD4009B18069A9B18079A9B18089A9B18099A80
:104AE4009B18029A9B18F0229200934201D2FFF77E
:104AF40052FB0723129A1A409923D0019B00404489
:104B04000292C018802202F073FB02992A4A0B0019
:104B140043449B1801221A700B00D82241460933E2
:104B2400FF328B54EB2300225B00CA54FFF733FBA4
:104B3400AE060000AD06000000EE0200B106000063
:104B4400FF0F0000B4060000B3060000B206000028
:104B5400B6060000B5060000B9060000B70600005E
:104B6400BB060000BA060000BE060000BD06000039
:104B7400BC060000BF060000C2060000C306000019
:104B8400C1060000C5060000C4060000C7060000F8
:104B9400C6060000CA060000C9060000CC060000D4
:104BA400CD060000CB060000CF060000CE060000B4
:104BB400D1060000D2060000640600007B490132E1
:104BC4004354952300219B00C154AA4201D0FFF70E
:104BD40033FB5F46414683460023049EFFF751FBA7
:104BE40001210023FFF74DFB0023994601330127E0
:104BF40000260093FFF7CFFA6D4BC35C002B5FD107
:104C040096239B00C35C8B4201D0FFF710FBD82393
:104C1400FF33C35C002B60D0EB235B00C35C002B31
:104C24005BD00121634BC154FFF701FB0B2E01D074
:104C3400FFF7B1FAFE22604B9201CB5CDB0113401B
:104C44005E4A895C7F220A401343802252019342C8
:104C540041DA41465A4A40468A5C0F211140594A7A
:104C64000291825CFE2041468001D20102405648F6
:104C7400095C7F200840024380204001824228DAF8
:104C84008320414680000A50842292008B50424681
:104C94004E4B0299D154FFF77EFA00230122994624
:104CA4000121002601330092FFF700FB00200021C0
:104CB4000090524658468846BB460496FFF778FA59
:104CC400434C0155434943540121434BC154FFF71D
:104CD400AEFA424AD4E7414BBBE7982300219B003C
:104CE400C154FFF7A4FA002A00D0BFE60132BDE6A2
:104CF400002B01D0FFF759FB01330393FFF755FB5A
:104D0400002A00D07FE601327DE6002A00D048E682
:104D1400013246E6031E00D01BE40133079318E476
:104D2400031E01D0FFF7E0FB01330693FFF7DCFB22
:104D3400031E01D0FFF7A3FB01330593FFF79FFB8D
:104D4400031E01D0FFF765FB01330493FFF761FBFA
:104D5400002A00D0F2E50132F0E5002A00D0BAE5DD
:104D64000132B8E5002A00D083E5013281E5002A4A
:104D740000D04BE5013249E5002A00D013E50132A9
:104D840011E5031E00D081E4013302937EE4031E87
:104D940000D047E40133099344E4031E01D0FFF734
:104DA4000DFC01330893FFF709FCC04651020000D3
:104DB4005302000061020000750600007406000042
:104DC400760600007306000072060000620200000E
:104DD400550200005602000057020000FF0F0000B9
:104DE4007047C04610B5054802F002FC0448054B64
:104DF400186007F0FDF8002010BDC0461502002021
:104E040070F30020D8FD002070B57C4C00252000F4
:104E1400FCF78EFE7A4B7B4A2360B6235B00E55099
:104E24000433E5500433E5500433E250C62204331E
:104E3400E5500433E5500433E5500433E550724B38
:104E44005200A3500432A350802396211B01043244
:104E5400A3500432A550C9000432A15010210432D9
:104E6400A1506A490432A150D4210022D62049001D
:104E7400655202316254AA39FF394000215004308E
:104E8400255004302550043025500430255004307A
:104E940025500430255004302550043025505C4EF4
:104EA4000430255004302650FC26043025500430AC
:104EB400255004302550043022540430235004304B
:104EC4002550043025500430235052487600A05118
:104ED4000436A3510436A5510436A5510436A55110
:104EE4000436A5510436A5510436A3510436A55100
:104EF4000436A5510436A3510436A0518A208000FB
:104F04002350043023508C239B00E5504248043343
:104F1400E5500433E05002200433FF30E050043302
:104F2400E2540433E5500433E5500433E5500433CC
:104F3400E1500433E254394B3B31E154384B2831CE
:104F4400E154384B3849E2540133E1520433E5501B
:104F54000433E552354B0021E25480220233E01839
:104F6400D20002F03FF9324B08220021E01802F08F
:104F740039F9304B70220021E01802F033F92E4B3E
:104F84002E49E5500433E5520A682D4B9A4200D06D
:104F940070BD8B88022BFBD1CB88202BF8D1CD6937
:104FA400284A29480B7801315A4013049B185B00A6
:104FB4009B18DB009B18DB009B185B009A1881424E
:104FC400F0D19542E4D181221C4B92009968A15002
:104FD4008022DB68520193420CDB0E4B822292004A
:104FE400A350164B1B7E082B00D90023D822FF3276
:104FF400A354CDE7DA43D2171340EFE770F3002050
:1050040028D90020E1AC0000E02E00000077010068
:1050140008080000FF0F0000010101015502000013
:1050240056020000570200003C64000062020000C7
:10503400640600006C060000DC06000000F01F108F
:10504400335A3143C59D1C811CF01F100048704722
:105054001CE8002000487047B4E7002070B5002821
:1050640026D0032833D81B4B8000C458200006F0F8
:1050740049FEC3B2181C1F2B18D8C021C0B2421C51
:10508400D2B25200890011430D00002B1CD0124BE8
:105094009C469A1C0023E15C01331180D9B2023290
:1050A4008842F8D8634660461D8070BD1F20E4E73F
:1050B4000A48C1250400074B0222196802F098F837
:1050C400A31E9C46AD00EDE7034B9C46EAE7002097
:1050D400EBE7C046CCE90020EC040120EE040120FB
:1050E40070B5164C82B0200003F0F4FF002805D000
:1050F4002500D9232C3DEE5C002E02D0002002B006
:1051040070BD0120E97805F0DFFD0028F6D020000D
:105114000B49EA8804F060F8E978041E0AD0030019
:10512400074A01200196009605F01EFE0028E5D0EE
:105134002000E4E7012005F0EFFDDFE774F1002033
:10514400A0F10020F0B5244C85B0DC220021200021
:1051540002F048F8214E3568280001F0EBFF206486
:105164000700706801F0E6FF03906064337A012160
:105174005800C018400001F0FBFFE060002F26D06B
:10518400039B002B25D000281FD0AAB220000025A5
:10519400012339001830009503F066FFB28820001F
:1051A4002600616C012348362C30009503F05CFF27
:1051B400300000F0ABFEA662260050363000656277
:1051C40000F0A4FE0120A663E56305B0F0BD38003D
:1051D400FBE71800F9E7C04648F10020E0E90020A9
:1051E40010B50E4C206C002803D001F0E3FF00231F
:1051F4002364606C00280CD001F0DCFF0023E0681D
:105204006364002803D001F0D5FF0023E36001208C
:1052140010BDE0680028F6D1F9E7C04648F1002047
:10522400F0B51C0083B001282AD1D923334DEA54A8
:10523400002A25D1AB788B4225D0EB788B4248D01D
:1052440001201EE028002C3003F044FF002844D144
:10525400002C42D02000E98801F0C0FD0C1E3CD196
:105264000120E97805F030FD002836D0E9782300E4
:10527400220001200194009405F076FDA0422CD177
:10528400002003B0F0BD002C19D0A40817D0263498
:10529400A4002E192C000027983402E00434A642FE
:1052A40009D02368002BF9D004222100144804F00B
:1052B4009BF80137F2E7134B002B16D1A978002491
:1052C4002A00AB88287898320194009405F04CFDAC
:1052D400D7E7FFF705FF0028B4D00B4B002BAFD066
:1052E4000120FFF77DFD0120CBE7002FE6D0390038
:1052F4000120FEF7E3FEA978E1E7C04648F100206B
:1053040060F10020CD3E0020F14B002070B5012853
:1053140024D1134B002B02D00021FEF7C5FE114C03
:10532400200004F015F920002500143004F010F9D1
:10533400002300222000183D6B602B81FF332B607B
:10534400273BEA5400210622083801F04BFF064BA4
:1053540000211A7AE868920001F044FF70BDC0464B
:10536400B93E002060F10020E0E90020F8B5DE46F7
:1053740057464E464546E0B5012906D1D9210020BD
:105384006A4C60545179012906D00020F0BCBB4618
:10539400B246A946A046F8BD9079002101286BD0F9
:1053A4000328F2D1157850194678B446242676425B
:1053B4006644012E00D87FE06646052EE5D192783A
:1053C400691889B262708B4200D8A0E0584A156807
:1053D4005268A9469046002200259346924623E04F
:1053E400252A29D0052AD0D14279057912022A43E7
:1053F400402A04D940220271002242714032857849
:10540400EE092DD1E678677A3E43BED1424500D9F4
:1054140042468346E570E2800278511889B2994287
:105424004FD28018427894466246242AD8D1827892
:10543400013A032AA9D8EFE78278012AA5D1002DE1
:10544400A3D0EA0928D1E278AA429ED1627A002A3E
:105454009BD1C278627202780025511889B2DEE7C6
:10546400A678277A3E4300D08FE74A4500D94A46BA
:105474008246A570A280CFE7002B07D185E710787C
:105484004118121889B250798B4210D90128F6D1EB
:1054940090790328F3D183E7A278AA4200D074E775
:1054A400227A002A00D070E7C2782272D3E701285A
:1054B40000D06AE7907973E78678012E00D064E71C
:1054C4007DE7E378002B1AD0637A002B17D053467C
:1054D400002B06D05146012005F080FC002800D1A5
:1054E40053E75B46002B06D05946012005F076FCB5
:1054F400002800D149E701230120237046E7A3785F
:10550400002B00D141E7237A002BE0D13DE7E3787B
:10551400002B02D0637A002BEDD1A378002B00D1AD
:1055240033E7237A002BE6D12FE7C04648F1002069
:10553400E0E9002070B50E0082B001281ED1114CA4
:10554400D82300252200E054A388A178207898323B
:105554000195009505F008FC051E0FD00A4B002BA1
:1055640007D0607A237AE278A17800900120FEF7D0
:1055740093FD3100012005F059FC00E000252800CE
:1055840002B070BD48F10020A93E0020F0B5574696
:105594004E46DE464546E0B514000F00994685B0F8
:1055A40001280ED100290CD0002A0AD0002B08D0E3
:1055B400604D02AA2800D11DA84603F083FE0028EE
:1055C40008D10026300005B0F0BCBB46B246A9465F
:1055D400A046F0BD290002AAD37928001B090422A1
:1055E4003B70083903F0F8FD0428EAD1524B002639
:1055F400183D00931CE0009B9C4618885B461842AB
:1056040040D102AB4046D91D03F05CFE0028D9D03E
:1056140002ABDB793A781B099A42D3D140460100A8
:105624000422083903F0D8FD0428CBD1B145C9D9E7
:105634002B7C1B093B702A7A9A42E2D901229A40B8
:1056440093B29B461123EB56697C002BD3DAF029E5
:1056540011D0EF2935D80B090C3BDBB2012B46D90D
:10566400032303209A46344A5B46944612889A439D
:1056740063461A8015E0304B18889C465B461843F5
:10568400634618801223EB56AA7C002B3ADB1322C4
:10569400EB7C0193AA560223002A2CDB01339A46A1
:1056A4001800217084460221504601346A18137C84
:1056B4004A1C2370032101348242F7D9604636180C
:1056C4009FE7F7290ED8F32918D006D8F12915D069
:1056D4000323F22103209A46E3E70B000A33DBB2EB
:1056E400012B8ED8012021703618013489E702235A
:1056F40002209A46B7E7019BF72B18D00223022019
:105704009A46CEE7F72A09D01322EB7C0193AA56D6
:105714000123002AC2DA019BF72BE3D101230133D1
:105724009A465B466246984310805046B9E7022386
:10573400F5E7C04660F10020920B012001230370BD
:1057440000487047ECE9002010B54024074A830064
:105754009A181268C0005440C0222240044C1B19FD
:105764001A60044BC018416010BDC04604C001401B
:1057740004D0014000400140064B8000C3181B6860
:10578400C90092000A435A400C231340024A80186D
:105794000360704704C0014004D001408000002928
:1057A40004D0054BC018402303607047034BC01856
:1057B40040230360F9E7C04604E0014004F00140DF
:1057C4000123D0228340120693629361084A830026
:1057D4009A1811684022514080320A400549C0009D
:1057E4005B181A60044BC018052343607047C04619
:1057F40004C0014004D00140004001408023DB0587
:105804001868000F7047C0460FB400B5084883B04D
:1058140001F05EFE049B002B07D005A9180001913E
:1058240001F0F4FC034801F053FE012001F006FDF1
:105834002CE600203CE6002070B58C461600EFF301
:10584400108472B60F490B68002BFCD0BFF35F8F36
:105854006346DB08C5180722C05C63461A4001236F
:1058640093401A000240034207D118432870BFF343
:105874005F8F0A6084F3108870BD61463000FFF7C3
:10588400C3FFC0462C0100D0F8B5CE4647468C462F
:1058940080B51C00EFF3108872B61C490B68002B0E
:1058A400FCD0BFF35F8FA24221D80723994602E0C0
:1058B4000132944218D34946012611408E40D30840
:1058C400C718C35C1E42F3D1100033433B70BFF3CF
:1058D4005F8F00220D4B1A6088F3108800280EDBBE
:1058E400C0BCB946B046F8BD01204042EFE7BFF363
:1058F4005F8F00230B6088F31088012040426346C9
:10590400002BEDD00898FFF77FFFC0462C0100D094
:10591400044A1078431CDBB2172B00D910231370F0
:105924007047C04608EA002000B5054B83B001006B
:10593400009318221F230348FFF7A6FF03B000BDFE
:1059440040E60020BC0401200021044B044ABFF3BC
:105954005F8F02C39342FAD17047C046000100D062
:10596400800100D0084B094A1360094A1360094AB0
:105974001360094A1360094A1360094A1360094A0B
:105984001360094A136070478080808000E400E05F
:1059940004E400E008E400E00CE400E010E400E0CB
:1059A40014E400E018E400E01CE400E01F231840C5
:1059B4001E3B8340002905D0C021044A49005350AE
:1059C40013607047802201498B50FAE700E100E040
:1059D40001228240034B1B6813405A1E9341D8B2E4
:1059E4007047C04600E100E070B50D00EFF310868B
:1059F40072B60F4A1368002BFCD0BFF35F8F0D4BB8
:105A040010309B6884001B590B4A934203D09D427B
:105A140001D001F07BF8074B9B681D51BFF35F8FEA
:105A2400BFF35F8F0022024B1A6086F3108870BDAB
:105A3400240100D000ED00E0C1010010F0B5DE4605
:105A440057464E464546E0B5824683B08B4617001E
:105A5400EFF3108872B6604A1368002BFCD0BFF3D2
:105A64005F8F00255D4B5D579946002D00DA9AE063
:105A74004A466B005A4C5E19B6000193A319009371
:105A84009B791370574B9A68534610339B00D15837
:105A940099460B1B2F2B32D9534B994200D098E0D7
:105AA400019B0236ED18514BAD006353504BA619C0
:105AB400043B9B1B4F4A1B055B0D651913436B800D
:105AC4004D4B0121AB80FF23AB715B46AB60009B68
