:020000041000EA
:1000000000B5324B212058609868022188439860DF
:10001000D860186158612E4B002199600221596106
:100020000121F02299502B49196001219960352056
:1000300000F044F80222904214D00621196600F024
:1000400034F8196E01211966002018661A6600F04E
:100050002CF8196E196E196E052000F02FF8012189
:100060000842F9D1002199601B49196000215960AB
:100070001A491B48016001219960EB211966A021F2
:10008000196600F012F800219960164914480160C1
:100090000121996001BC002800D000471248134993
:1000A000086003C880F30888084703B5996A0420EC
:1000B0000142FBD001200142F8D103BD02B5186610
:1000C0001866FFF7F2FF186E186E02BD00000240BE
:1000D000000000180000070000035F00212200005C
:1000E000F4000018222000A00001001008ED00E03C
:1000F00000000000000000000000000074B24E7A12
:1001000000200420F7010010CB010010CD010010E9
:10011000C9010010C9010010C9010010C901001077
:10012000C9010010C9010010C9010010CF01001061
:10013000C9010010C9010010D1010010D301001045
:10014000C1010010C1010010C1010010C101001067
:10015000C1010010C1010010C1010010C101001057
:10016000C1010010C1010010C1010010C101001047
:10017000C1010010C1010010C1010010C101001037
:10018000C1010010C1010010C1010010C101001027
:10019000C1010010C1010010C1010010C101001017
:1001A000C1010010C1010010C1010010C101001007
:1001B000C1010010C1010010C1010010C1010010F7
:1001C000EFF30580103800BE00BE00BE00BE00BECA
:1001D00000BE00BEF2EB887190020010B402001065
:1001E0003802001090A31AE721482249086006C887
:1001F00081F30888104720480068002801D01C4877
:10020000F3E70DA40ECC002902D000F012F8F9E7B4
:100210001A491B4A002000E001C19142FCD1194952
:100220008847194988471949884700BEFDE701C931
:1002300001C29A42FBD37047B4020010C0000020F4
:10024000ACBC0020A0BE0010B0BC002088EF002095
:1002500078F10010000004200000042078F1001064
:10026000001004200010042000000000704700006F
:100270000000000008ED00E0000000D088EF002042
:100280000C0A0120C56C002021450020BD6C002017
:1002900070E600207CE6002088E6002094E600203E
:1002A000A0E60020ACE60020B8E60020F4E700203D
:0402B000E8E700205B
:1002B400F8B5C04606480749091A8B10C90FC91872
:1002C40010B5491003D0044B002B00D0984710BD43
:1002D40088EF002088EF002000000000054B10B5D7
:1002E400002B03D00449054800E000BFFFF7E2FFFC
:1002F40010BDC04600000000C8090120ACBC0020AD
:10030400A423082130B5FF24134A1448D1501449BA
:1003140002680B680D689B1AA343521BD218026033
:10032400104A1B02944612680F4853401B0C0F4D91
:100334001B0403602A684B6849689B1AA343521A3A
:10034400D2182A6062461B0212681B0C53401B041D
:100354001B0C036030BDC0460000054070FC00204B
:1003640008E80020480005404810054074FC0020BF
:10037400F0B5502387B017256A460405240F1C43A3
:100384006D44AF3393750F00287006F02DF80023E9
:10039400194A80185941002902DA012017494042BC
:1003A40000230290039100932A0021001448013392
:1003B4000BF058F800281ADD06F016F800230E4A50
:1003C40080185941002902DA01200C4940420023D7
:1003D40016220290039100932100094801336A44D4
:1003E4000BF060F8002802DD6B46987D02E00123E3
:1003F40000203B7007B0F0BD10270000FFFFFF7F17
:1004040010E9002010B5024B18680BF035FE10BD42
:1004140048FC002070B5D02501220021072004F0FB
:10042400C7FF01220021062004F0C2FF012200219F
:1004340005202D0604F0BCFF0120002105F034FE48
:100444006A686C686B6864069B06E40FDB0F1B012B
:10045400A4001C431306DB0F0022012107201C43C8
:1004640004F0A6FF00220121062004F0A1FF0022CF
:100474000121052004F09CFF0120002105F014FE59
:1004840069686A6809066B68C90F52064900D20F89
:100494009B060C43D200DB0F5B01002107201443B1
:1004A40001221C4304F084FF01220021062004F0F1
:1004B4007FFF64B201220021052004F079FF2A2C79
:1004C40005D0302C03D0FF200C2C00D070BDE0B23E
:1004D400FCE7C046F0B54E46DE4657464546E0B515
:1004E400431824331B7885B0994601900291002B60
:1004F40000D129E280468B0003935B181B019844CA
:1005040044462C20205606F081FBDB4906F047FBCD
:100514004546041CA86A06F079FB211C051C201C16
:1005240006F03DFB211C061C281C06F038FB4A463D
:10053400071C012A00D1A1E142463420105606F0DE
:1005440065FBCD4906F02BFB42468246106B06F054
:100554005DFB51468346201C06F00AFB5946041CE9
:10056400281C06F005FB5146051C504606F017FBF7
:10057400011C301C06F0FCFA5146061C584606F0D5
:100584000EFB011C381C06F0F3FA4A46071C022A2B
:1005940000D173E142463C20105606F037FBB649C1
:1005A40006F0FDFA42468246906B06F02FFB514658
:1005B4008346201C06F0DCFA5946041C281C06F06D
:1005C400D7FA5146051C504606F0E9FA011C301CC6
:1005D40006F0CEFA5146061C584606F0E0FA011C15
:1005E400381C06F0C5FA4A46071C032A00D145E127
:1005F40042464420105606F009FB9F4906F0CFFA04
:1006040042468246106C06F001FB51468346201C8C
:1006140006F0AEFA5946041C281C06F0A9FA514605
:10062400051C504606F0BBFA011C301C06F0A0FA6B
:100634005946061C504606F0B2FA011C381C06F056
:1006440097FA4A46071C042A00D117E142464C2077
:10065400105606F0DBFA884906F0A1FA42468246B3
:10066400906C06F0D3FA51468346201C06F080FABB
:100674005946041C281C06F07BFA5146051C5046BA
:1006840006F08DFA011C301C06F072FA5946061C5D
:10069400504606F084FA011C381C06F069FA4A46F2
:1006A400071C052A00D1E9E054234246D05606F03F
:1006B400ADFA714906F073FA42468246106D06F0AF
:1006C400A5FA51468346201C06F052FA5946041CEA
:1006D400281C06F04DFA5146051C504606F05FFAF8
:1006E400011C301C06F044FA5946061C504606F01C
:1006F40056FA011C381C06F03BFA4A46071C062A27
:1007040000D1BBE042465C20105606F07FFA5A49FD
:1007140006F045FA42468246906D06F077FA514655
:100724008346201C06F024FA5946041C281C06F0B3
:100734001FFA5146051C504606F031FA011C301CC4
:1007440006F016FA5946061C504606F028FA011C13
:10075400381C06F00DFA4A46071C072A00D18DE022
:1007640042466420105606F051FA434906F017FA3F
:1007740042468246106E06F049FA51468346201CD2
:1007840006F0F6F95946041C281C06F0F1F9514606
:10079400051C504606F003FA011C301C06F0E8F96B
:1007A4005946061C504606F0FAF9011C381C06F09E
:1007B400DFF94A46071C082A60D042466C201056CE
:1007C40006F024FA2C4906F0EAF942468246906E75
:1007D40006F01CFA51468046201C06F0C9F9414631
:1007E400041C281C06F0C4F95146051C504606F0AA
:1007F400D6F9011C301C06F0BBF94146061C5046D4
:1008040006F0CDF9011C381C06F0B2F94A46071C63
:10081400092A33D0019A02989046039B1B181B01A6
:10082400984443467420185606F0F0F9124906F02D
:10083400B6F943468246186F06F0E8F951468046F9
:10084400201C06F095F94146041C281C06F090F97A
:100854005146051C504606F0A2F9011C301C06F056
:1008640087F94146061C504606F099F9011C381CCC
:1008740006F07EF9071C01E0CDCCCC3D484606F0DD
:10088400C5F9311C804606F08AF9211C061C201C7F
:1008940006F085F9011C301C06F067F90021061CDE
:1008A40006F0ACF9002841D1391C404606F077F92E
:1008B400211C071C281C06F072F9011C381C06F0C8
:1008C40054F9311C06F057F9211C061C06F067F98F
:1008D400011C281C06F049F9414606F04CF91C4954
:1008E400041C301C06F05BF9FC21890506F040F974
:1008F40006F0AEF9FC2181468905201C06F038F982
:1009040006F0A6F9029B019A1B01D3181A00C832FB
:10091400166054604946D02299500432985005B06C
:10092400F0BCBB46B246A946A046F0BD4146281CD1
:1009340006F021F9FC218905041C06F019F906F0DA
:1009440087F900239946DDE700200026014CD9E70A
:10095400ABAAAA3F0000C07FF0B5454657464E46B5
:10096400DE460300E0B52433A1B00200059303235F
:100974002832140000259846EC27CA4E06900792A8
:100984004246059B29005A5500232373C64B277101
:10099400A36014232375C54B266023610698FFF7D3
:1009A40099FD6B1C50340125022BE9D1133304AAA1
:1009B40099180020FFF7DCFC152304AA99180402F7
:1009C4000120FFF7D5FCBA4B04439C4200D060E100
:1009D400162304AA9B189A4617239B189846B54BCE
:1009E40000249B46FF2300279946B34E0AAD1BE023
:1009F40005F0FAFC80197941002902DA0120AF4997
:100A040040420023029003910093524650215846DD
:100A140001330AF047FD002820DD53461B780134DA
:100A24002B700135582C1FD053464A461A70434642
:100A34001C7005F0D9FC80197941002902DA0120E3
:100A44009E49404200230290039100934246502164
:100A5400584601330AF006FD0028C9DC002301349E
:100A64002B700135582CDFD10AA8954B9549563087
:100A74000AAA20E05B001CB2002C27DB5C0023B236
:100A8400002B28DB640023B2002B29DB640023B293
:100A9400002B2ADB640023B2002B2BDB640023B27F
:100AA400002B2CDB640023B2002B2DDB630001320E
:100AB4009BB290422ED01478240263401CB2002CC6
:100AC400D8DA64004C4024B2231ED7DA64004C40C8
:100AD40023B21C1ED6DA5B004B401BB21C1ED5DAB7
:100AE4005B004B401BB21C1ED4DA5B004B401BB2B4
:100AF4001C1ED3DA5B004B401BB21C1ED2DA5B0017
:100B04004B401BB21C1ED1DA5B004B4001329BB23E
:100B14009042D0D1562204A918318A5A52BA92B2BC
:100B24009A4200D0B5E000262427079DB0460BACBE
:100B340013AE41462378059A5354002B00D199E013
:100B4400A278E178120609040A4361790A432179FB
:100B540009020A4361782A602971012B00D189E0D6
:100B6400E279217A120609040A43A17A0A43617AD6
:100B740009020A43A179AA602973022B7AD0227B45
:100B8400617B120609040A43E17B0A43A17B090243
:100B94000A43E17A2A612975032B6BD0627CA17C1C
:100BA400120609040A43217D0A43E17C09020A432F
:100BB400217CAA612977042B5CD0A27DE17D1206F9
:100BC40009040A43617E0A43217E09020A43617DC6
:100BD400E9552A62052B4DD0E27E217F12060904D5
:100BE4000A43A17FA07E0A43617F09020A432C21A4
:100BF4006854AA62062B3DD0327871781206090433
:100C04000A43F178E07F0A43B17809020A433421A8
:100C140068542A63072B2DD07279B179120609041E
:100C24000A43317A30790A43F17909020A433C21B3
:100C34006854AA63082B1DD0B27AF17A120609040B
:100C44000A43717B707A0A43317B09020A434421C7
:100C540068542A64092B0DD0F37B327C1B061204E2
:100C64001343B27CB17B1343727C120213434C22B4
:100C7400A954AB6441460698FFF72CFC4346012275
:100C84002934904650352936012B00D051E70020F5
:100C940000E0012021B0F0BCBB46B246A946A04604
:100CA400F0BDC046344E050050FC030040A90200CC
:100CB400D107000010E9002010270000FFFFFF7F8C
:100CC400FFFF000021100000F8B5CE46474600257E
:100CD40080B50700EE4B1022036000210561C5605A
:100CE400856045600562C56185614561F83006F03F
:100CF40095F8842338005B00FD520D30023308223E
:100D04000021FD52FF3006F089F880238A221B015E
:100D14005200BB520232BB5238008C2300245B00C9
:100D24001D30FC540021FE3AFF3006F077F83800FD
:100D3400353006220021FF3006F070F8B5235B0041
:100D4400FC543E230822FF33FC54D24B01261A6084
:100D5400E022D14BD2011B681340D04A13609D237B
:100D64005B00FC54063BFC543623FF33FC54013334
:100D7400FC543823FF33FC540133FC543A23FF332F
:100D8400FC54C74BC74C9846237804219946180055
:100D940004F0F6FA4B460421581C04F0F1FA4B46D1
:100DA4004A465B081F2A00D9AAE107221A40930089
:100DB4009B18BD49BD4A9B009A18591815600D60CF
:100DC400BB4959180D60BB495B1841461960102393
:100DD400536016602378013359081F2B00DD8BE123
:100DE40007220A4093009B18AF49B04A9B009A1807
:100DF400591815600D60AE4959180D60AD495B185E
:100E04004146196010235360166023785A081F2B3B
:100E140000D938E1072111408A005218A4499200F0
:100E24005118096840468C463100194049424140F6
:100E340060460140A0480133121811605A081F2B64
:100E440000DD1CE10721114040468A0052189849F0
:100E540092005118334009685B4243400B40964965
:100E6400023452181360954B9C428DD10AF064F8F9
:100E74001F211B2004F084FA002200211B2004F00F
:100E840097FA00211B2004F0A5FA1F211A2004F070
:100E940077FA002200211A2004F08AFA00211A208D
:100EA40004F098FA1F211C2004F06AFA00220021A1
:100EB4001C2004F07DFA00211C2004F08BFA1F2171
:100EC4001D2004F05DFA002200211D2004F070FAB8
:100ED40000211D2004F07EFA182004F08DFA192058
:100EE40004F08AFAD024802324065B0463628023FE
:100EF4009B046362082004F07FFA80235B00636232
:100F04000920636104F078FA80239B006362022065
:100F1400636104F071FA04230022A3620121022018
:100F240004F046FA032004F067FA0823644DA36230
:100F340000220121032004F03BFA280061490AF051
:100F440057F80222904641466B68122013405E4ACD
:100F540011600F22296810255140C0320A405B49B4
:100F64000A605B4A0121136004F00AFA012113208C
:100F740004F006FA0121152004F002FA04211720D6
:100F840004F0FEF90421162004F0FAF90022474B7C
:100F94005049DA635A649A64D9641D64DE63DA637F
:100FA4005A649A64D9641D64DE63FA234A499B0433
:100FB4000A68072053401B0C484A1B041360FA2399
:100FC40009689B004B401B041B0C136004F014FACB
:100FD400062004F011FA052004F00EFA8023A3621F
:100FE400403BA362203BA362142004F005FA0022D4
:100FF4000021142004F0DCF9042004F0FDF96562FA
:101004003749A56137480AF005FA0321102004F096
:10101400B7F90321112004F0B3F9002004F0ECF92E
:101024006662012004F0E8F9434638006362FFF782
:10103400F1F9F023F8543800FFF78EFC9F23464063
:1010440001205B003040F854563B9846B844404673
:1010540006F080F814264346234C244D03CB244A3F
:10106400244B05F065FD013E00196941002EF6D1BF
:10107400434603C33800C0BCB946B046F8BD03219B
:1010840011400831E0E6032111400831C4E6C046AE
:101094007CD7002000F0044000C0044000D004408D
:1010A400FFFF0000C0D700200800054000000540F5
:1010B4000C000540100005400C100540C6D7002068
:1010C40000C00340286BEE0004F0034000D003404E
:1010D40004E00340CF0700004800054048100540E5
:1010E400A086010010E900204F8167F77E7B05147C
:1010F4002D7F954C2DF4515803220A40083271E695
:1011040003221A40083252E6F0B545465746DE46F9
:101114004E461C00DC23E0B5FF33C35CABB00500D6
:101124008A4690460293002B05D0ED235B00C75CF2
:10113400002F00D090E1E6235B00EA5800230393DC
:1011440043469F1880235B019F4242DBBA4FE3432F
:10115400DB171C40F923A3461B019C4200DD9B4680
:10116400B6235B00EC58359A5444EC503B00002AFB
:1011740000DDECE15B43180BA30D5A000133AF49CA
:101184009B055B0D8A5E0191C95EA302891A9B0DC2
:101194004B439B129B1899460490002848D05B4609
:1011A400DA00D21A1005000D030043431B0B59004B
:1011B400C91843431B0B5B00CB1A0593230D0693FD
:1011C400120B062A01D900F0D9FC9D4B92009B58C2
:1011D4009F46FB43DB171F40B9E7230D7F2B01D844
:1011E40000F07FFD974A9B187F2B01D800F099FDF2
:1011F4004B46DB1098466400A10D4A000131019B67
:101204008905490D9A5E595EA402891AA40D4C43BE
:10121400A412A4184246059BA41A5C4323139B18EA
:101224004A46CC4604999B1A4B431B139C44E14603
:10123400854BEB580493002B00DCB1E1D923DB0090
:10124400EA58514613005343DB124B431B13C9188E
:10125400002A00DAE3E0B8235B00EE588E19EE5062
:10126400359B002B00DDB3E07F433B0B9A46B30D67
:101274005A00013301999B055B0D8A5ECB5EB40273
:101284009B1AA40D5C435346A412A418002B40D00F
:101294005B46DA00D21A1005000D030043431B0B12
:1012A4005900C91843431B0B5B00CB1A0593330D3C
:1012B4009B46120B062A01D900F073FC634B920083
:1012C4009B589F465B467F2B01D800F017FD5D4A73
:1012D4009B187F2B01D800F028FDE3109846760078
:1012E400B10D4A000131019B8905490D9A5E595E91
:1012F400B602891AB60D4E43B612B6184246574680
:10130400059BB61A5E4333139B181B1B5F433F13A5
:10131400E419049B63431E13349B002B20DD8022BD
:10132400049B1201934200DA13005C434B462413DE
:101334005C43444BA4129C4200DA1C0080231B0132
:101344009C4200DB424C4A46CC46349B34991B01F8
:101354005B1A1B02A41A1B1363431B139C44E14630
:10136400029B002B00D124E1BA225200AB58002B7F
:1013740000D126E1013B1803AB50C01A602105F0EF
:1013840049FB2D4B181A4A46039B2E495843031315
:101394005A43734312138A4200DA0A008021090176
:1013A4008A4200DB2A4AF2216A52264A1B139342DC
:1013B40000DA130080221201934200DB244BF42252
:1013C400AB522BB0F0BCBB46B246A946A046F0BD1A
:1013D400DA2280215200AB5889000133AB508B4292
:1013E40000D307E1DC235B00E9580433EA5880208A
:1013F400359B4001834200DB0F4B5B4315481B0BBD
:1014040043439812414389127F18802149018F4236
:1014140000DA6AE3084F1B145A43B61824E752460D
:10142400D11AB8235B00EE588E19EE50359B002B71
:1014340000DC19E7CCE7C046FF0F000048DC0020C1
:1014440018D7002000F8FFFFCC06000034D7002096
:10145400FF07000033020000029B093BDBB2072BAD
:1014640000D9DFE0C749C218525C002A00D08EE3DD
:101474000AA88022C449060005F0D6FCEC235B00D0
:10148400EA5CDA23FF33EB5C93469946072A00D9DA
:1014940035E3D300F3185F68002F00D10137E02152
:1014A40049006A5801326A501988E8235B00EB58F6
:1014B4000391C81A504339000193160005F082FACB
:1014C400019BC018E4235B00E850B74200D929E32C
:1014D4005E46EC2203995200E950731CE020DBB213
:1014E400AB54002240002A50D132FF32A9504A4660
:1014F400072A00D9D4E3083B5A425341DFB24B4692
:10150400DA001AAB9B185968002900D10131E22294
:101514005200A85894460130A8501A88814200D835
:1015240016E3EA235B00EF58D21B504305F04AFA56
:10153400E623C2195B00EA50E4235B00E8588023E9
:101544005B01984200DAD4E2904B0393F8E5DA2287
:1015540080215200AB5889000133AB508B4232D208
:10156400DC2308325B00EB58AA58802035994001EF
:10157400814200DB854949438548090B4143881270
:10158400434380209B12DB194001834204DB7F4BE1
:1015940009144A43A418EDE5D843C0170340F7E7FC
:1015A400349B0026002B00DD48E6029B002B00D074
:1015B400DAE6BA22754B52000393AB58002B00D0E5
:1015C400D8E67248DFE60023D821DC26AB50490078
:1015D4006B58704A7048534318184243030E6E48C0
:1015E400803B12187600AB516A50120E803A0C31CF
:1015F4006A50BAE70023D8206749AB508C464000B4
:101604002B58644ADC24534363445A43190EDE23A3
:1016140062448039640029512A50120E803A5B00DA
:10162400EA50E4E6029B082B00D921E75B4A9B00C1
:10163400D3589F466300990D4A00013101988905EA
:10164400490D825E415E9B02891A9B0D4B4390219A
:101654009B129B189846069B09018B4200D354E3C6
:101664001803C01A05F0AEF9484B4D4C181A404304
:101674000013241ACEE59021230D09018B4200D3D7
:1016840040E31803C01A05F09DF9404B181A404373
:10169400434B00131B1A984663001B195B009C46BE
:1016A400980D41000130260D8005019C400D615EBE
:1016B400205E63469C02401AA40D4443A41264189D
:1016C400324A3849921B731854435A432413521311
:1016D400A4188C4200DA7BE280231B019C4200DACE
:1016E40098E52F4C96E563001B195B009C46990D09
:1016F400019B4A0001319A5E8905019B490D595E9F
:1017040063469B02891A9B0D4B439B129B181F48EF
:10171400244A260D801B9219434342431B13521340
:101724009A18204B90469A4200DA4FE280231B011C
:10173400984500DB43E280231A49260D72005118B4
:101744001B0106919E4200D334E2A3001B199C0D99
:1017540060000134019EA405640D305E345F241AD8
:10176400A4469C026346A40D5C43069BA412241861
:1017740054435A43241392130A4BA4189C42ABDAE1
:101784001C00A9E7F4050000C8D70020FF0F0000E3
:10179400330200000D6619005FF36E3C50D7002041
:1017A400FF07000000F8FFFF8023210D4A001B0102
:1017B400994200D206E2E04B210D5B1ADF498A1AF6
:1017C40006925A00A3001B19980D019E84464000FE
:1017D400305E01218C4461468905490D715E9B028E
:1017E400091A9B0D4B4306999B121B1853434A43FA
:1017F4001B1392139A18D24B90469A4200DA9846D9
:1018040080231B01984501DBCE4B9846C021230D54
:1018140089008B4200D333E2230D1803C01A05F06C
:10182400D1F8031108900993E3001C1BA20D019E3B
:1018340051000692705E990D4A000791B25E0799B5
:10184400944601318905490D715E6246891A069AEA
:101854009B02013292059B0D520D4B43B25EA402D2
:10186400121AA40D54439B126344A41224185B104F
:101874001B19089A5B1053431C13099BE418B04BC3
:101884009C4200DB28E77BE7AD4BE417069A5C40FB
:10189400A0467F2A00D820E2A94952187F2A00D8FE
:1018A4003CE24B46DC10B5E47300990D4A0001316B
:1018B40001988905490D825E415E9B02891A9B0D40
:1018C4004B4390219B129B18984609018B4500D3EA
:1018D40021E25B461803C01A05F074F8964B994E42
:1018E400181A40430013361A08E590215B46090193
:1018F4008B4200D30CE21803C01A05F063F88E4B38
:10190400181A40438F4B00131B1A984658468A4BAB
:1019140072001B1A9B4696197600B10D4A000131DC
:10192400019F8905490DBA5E795E5B46B602891A44
:10193400B60D4E438249B612B61842185E4353435D
:1019440036135B13F6188E4200DA4BE180231B0139
:101954009E4200DAD2E47B4ED0E473009B195B0014
:101964009C46980D019B420001309A5E8005019BC4
:10197400400D185E63465F469B02801A9B0D4343ED
:101984009B129B186C496E4AC91BD2194B434A439C
:101994001B1352139A186A4B90469A4200DA1FE1BD
:1019A40080231B01984500DB2AE1654A5F468020BD
:1019B40094467B0000019C44874200D31BE1B100A4
:1019C4008E19B00D41000130019F8005400D795EF4
:1019D400385E6246B602401AB60D4643B612761811
:1019E4005E43534336139B13F618554B9E42ADDAB0
:1019F4001E00ABE7F317524E734098465B467F2BAD
:101A040000D877E14E4A9B187F2B00D876E4E61085
:101A140074E4594680234A001B01994200D3E3E051
:101A2400474BD3180693B3009B19980D019F844626
:101A34004000385E01218C4461468905490D795E78
:101A44009B02091A9B0D4B4306999B121B18534387
:101A54004A431B1392139A18394B90469A4200DA60
:101A6400984680231B01984501DB364B9846C021DC
:101A740089008B4500D31BE15B461803C01A04F0B0
:101A8400A1FF031106900793F3009E1BB20D019F63
:101A940051009346785E990D4F003A00019F013141
:101AA400BA5E89059446019F490D795E6246891A9A
:101AB4005A4601329B0292059B0D520D4B43BA5E6E
:101AC400B602121AB60D56439B126344B612361868
:101AD4005B109B19069A5B1053431E13079BF61861
:101AE400174B9E4200DB31E782E7F943C9170F40E9
:101AF40091E4C343DB1718400390FFF721FB072B46
:101B040000D8FCE4ED2200235200AB540E4AAA5C38
:101B1400002A5FD00D4AAB54E4235B00E858043339
:101B2400EA580CE54B460027072B00D8E7E4E623E8
:101B34005B00EA5803E5C046FF0F0000FF170000F2
:101B440000F8FFFFFF0700009D0600009C06000050
:101B5400E6235B00EA504B46DA210133FF31DBB266
:101B64006B54604600212950D531FF316A50002F53
:101B740000D1E1E4082B00D0DEE4C3E76D4A230D75
:101B84009B189846E31714005C40FFF743FBD90108
:101B94006918F5310AA88022FF31060005F044F9DE
:101BA4006CE45B46634A9B189846F31716005E4044
:101BB400FFF7A4FB60498B1A06934200C5E55F4B0F
:101BC4009846B8E55B4BD3180693FBE59846ADE51C
:101BD4000C0081E5C933FF33E8580433EA58AEE416
:101BE4009846DDE60E00B1E6554B5B1A52498A1A57
:101BF40006925A0017E7504AD31A9C464B00DEE679
:101C04004E4B9846D1E60AA880224E49060005F0BC
:101C14000BF933E40AA880224B49060005F004F9C5
:101C24002CE40AA880224949060005F0FDF825E4C1
:101C34000AA880224649060005F0F6F8FFF71EFCC4
:101C44000AA880224349060005F0EEF8FFF716FCC7
:101C54000AA880224049060005F0E6F8FFF70EFCCA
:101C64000AA880223D49060005F0DEF8FFF706FCCD
:101C74000AA880223A49060005F0D6F8FFF7FEFBD1
:101C8400C023220D1B019A4222D3364B1003101A93
:101C9400C018354904F096FE031108900993C3E572
:101CA400082B00D12EE7E6235B000800EA5846E43F
:101CB400C0231B019B4518D35B461803181A294BF4
:101CC4002949C01804F07EFE031106900793DBE651
:101CD400FF2309931A4B0893A6E59846174CFFF780
:101CE40099FA164B9846FFF786FAFF230793144B8D
:101CF4000693C9E6B046114EFFF700FB0F4B98461A
:101D0400FFF7EDFA0B4B9846C6E40A4CFFF782FA4C
:101D1400084B9846FAE5074EFFF7F0FA1C00FFF768
:101D240079FA044B9846FFF766FA024B9846FFF798
:101D3400D6FAC04600F8FFFFFF170000FF070000B7
:101D4400FF0F000048D80020C8D8002048D9002040
:101D5400C8D9002048DA0020C8DA002048DB002077
:101D6400C8DB002001E0FF00FF030000F0B5DE4601
:101D740057464E464546E0B5544C554BA54405934D
:101D8400544B55490693D923DB00C358079399460E
:101D9400524BC35808939A46DA23DB00C35809937D
:101DA4009B464F4BC35802930A93DC23FF33C45C16
:101DB4000023984642460833A342524153421C40F2
:101DC400484B494AC75C494BC65C0133C35C039327
:101DD4001D00C023DB00C35C825C1B021A43444B1E
:101DE400415CC35C09041B060A431A430192414A3D
:101DF4003B02825C31041A430A433F492B06415C8F
:101E04001A4309040D003D4B3D49C35C415C1B0270
:101E1400234309062B430B430B93019B01000C93B3
:101E24000D928022F531FF31D2000FA804F0FCFF9F
:101E340042466B461A87262305A9CA5485230A00FD
:101E44004146DB00D150FFA811002E4A40300B78E8
:101E540001315A4013049B185B009B18DB009B184C
:101E6400DB009B185B009A188142F0D1852305A9F9
:101E7400DB00CA502449164A086890424CD080229C
:101E8400FFA8FF215201443004F0C8FFFFA81F4AF5
:101E940005A9443004F0C8FFEFF3108472B6802122
:101EA4001B4849010AF012FD8022FFA9184852017B
:101EB40044310AF053FD84F31088164B9D44F0BC62
:101EC400BB46B246A946A046F0BDC046BCEBFFFFE8
:101ED400335A314305002C0401060000CC060000EF
:101EE400D40600009E060000FF0500009F060000C7
:101EF4000206000003060000FD050000FC050000CA
:101F0400FE050000C59D1C8100F01F102C0400007C
:101F140000F01F00441400008A88052AAFD18E4ABD
:101F2400C8889042ABD1CD588C4A8D480B7801318A
:101F34005A4013049B185B009B18DB009B18DB00C2
:101F44009B185B009A188142F0D1954200D096E725
:101F5400844B9A68914500D091E7DA68924500D0A5
:101F64008DE71A69934500D089E75A69029991422D
:101F740000D084E71A7EA24200D080E721229A5C36
:101F8400BA4200D07BE722229A5CB24200D076E7C4
:101F940023229B5C039A934200D070E700208026A2
:101FA40084250FA91FAA05AB1B185C7E6D4BC318B3
:101FB4005B7E9C4200D062E76B4FC301DF5B0C8801
:101FC400A74200D05BE7694F4C68DF59A74200D0B5
:101FD40055E7674C17881C5BA74200D04FE7654C58
:101FE40057681C59A74200D049E7634C0F891C5B12
:101FF400A74200D043E7614CCF681C59A74200D0E8
:102004003DE75F4C17891C5BA74200D037E75D4C66
:10201400D7681C59A74200D031E75B4C0F8A1C5B80
:10202400A74200D02BE74F4C1F194C69A446574CCC
:102034001C59A44500D022E7148AA446544C1C5BC6
:10204400A44500D01BE75469A446524C1C59A4452E
:1020540000D014E70C8BA4464F4C1C5BA44500D065
:102064000DE7CC69A4464D4C1C59A44500D006E7A5
:10207400148BA446BC5BA44500D000E7D469A446F5
:102084007C59A44500D0FAE6454C0F8C1C5BA74252
:1020940000D0F4E6434C4F6A1C59A74200D0EEE648
:1020A400414C178C1C5BA74200D0E8E63F4C576AB2
:1020B4001C59A74200D0E2E63D4C0F8D1C5BA742A1
:1020C40000D0DCE63B4CCF6A1C59A74200D0D6E6D0
:1020D400394C178D1C5BA74200D0D0E6374CD76A29
:1020E4001C59A74200D0CAE6354C0F8E1C5BA74290
:1020F40000D0C4E6334C4F6B1C59A74200D0BEE657
:10210400314C178E1C5BA74200D0B8E62F4C576B9E
:102114001C59A74200D0B2E62D4C0F8F1C5BA7427E
:1021240000D0ACE62B4CCF6B1C59A74200D0A6E6DE
:10213400294C178F1C5BA74200D0A0E6274C1B1923
:102144001B68D46B9C4200D099E601308031803208
:10215400082800D027E7B0E62C040000C59D1C81A8
:1021640028F41F1000F01F1028F01F102CF01F106F
:1021740068F01F106CF01F1030F01F1034F01F10A7
:1021840070F01F1074F01F1038F01F103CF01F1077
:1021940078F01F107CF01F1040F01F1044F01F1047
:1021A40048F01F104CF01F1088F01F108CF01F1007
:1021B40050F01F1054F01F1090F01F1094F01F10D7
:1021C40058F01F105CF01F1098F01F109CF01F10A7
:1021D40060F01F1064F01F10A0F01F10A4F01F1077
:1021E400F0B5DE4657464E464546E0B5724B040010
:1021F400C35C8BB0002B2BD0704BC25C072A01D977
:1022040000F08EFCD0B20930D2B200236A49002516
:102214006354DC21FF31605401201B3963500831C1
:1022240063500831635008316352143963500831E4
:10223400635008316350DB33FF336149E054635C1E
:10224400002B01D100F08CFCA3185E4A985465540D
:102254005D4AA35C002B13D00023A3545B4AA15C0A
:102264005B4AA1545B4AA15C5B4AA15401215B4ACD
:10227400A152DC22FF32A25C002A01D000F054FCFF
:102284008A235B00E05AF22103B203938B235B00A1
:10229400E35A53481BB2029386235B00E358490078
:1022A4009B4688235B00E35806933C23FF33E35C9F
:1022B400225C9946F8239446E558625C0433E75857
:1022C4000433E358002A00D0A0E0DD32FF32A258E4
:1022D400444EB24200D997E0083901326250424973
:1022E4008A4201D900F041FCE622FF32A25C002AB6
:1022F40000D091E04A46002A01D100F0F6FF624680
:10230400022A01D100F0D8FF4A462254022A01D100
:1023140000F043FC6246012A01D000F0D3FF334AA7
:10232400A05C002801D101F0DAFA314AA550314805
:10233400225C002A18D1D622D200A25894462E4AF2
:10234400A258BA1AD11752184A403F2A01DC00F0A9
:10235400C9FF6246BA1AD11752184A40602A01DDF1
:1023640000F0C0FF01222254D622D200A7502348F5
:10237400225C002A16D1224AA1582C32A258079175
:102384009A1AD617921972403F2A01DC00F045FFD1
:102394005A1AD11752184A40602A01DD00F03DFF55
:1023A40001222254164A0793A3501C32A2580492C5
:1023B400144AA2589246C8E106060000040600002A
:1023C40005060000FC0500009406000092060000CB
:1023D4009506000093060000960600009C06000087
:1023E400120700009F8C0000DF2E0000FC06000096
:1023F400AC060000FD060000DC060000FE0600003E
:10240400B4060000D406000001226254E622FF3222
:10241400A25C002A00D12DE10023F222A352023251
:10242400A352844B844A1A605A60D02380221B062C
:1024340052005A6192185A6180235B019D4200DB6D
:10244400A0E3EA43D2172A4013019B18DC2201209F
:10245400190BFF32A15402000A40084200D0774A07
:10246400774909684A4012047649120C0A608021AF
:102474001A0089010A400B4200D0704A70491204C4
:1024840009684A40120C6F4912040A6080211A003C
:10249400C9010A400B4200D0684A6B4909684A40A6
:1024A40012046A49120C0A6080211A0009020A40C7
:1024B4000B4200D0614A6449120409681B0C4A406B
:1024C400120C624912040A60002B00D05CE3604BDA
:1024D400604A1B681B041B0C13605D4B5D4A1B6840
:1024E4001B0C1B041360F3235B00E25C002A01D184
:1024F40001F05CF8E8234A46FF33E55C002A01D08A
:1025040001F013F9002D01D100F02CFC6346002BDF
:1025140001D000F027FCF0225200A3584E498B4210
:1025240001D801F0F4F9F4277F00E35D002B01D01A
:1025340000F021FC2000FFF719FC0123E355474B71
:10254400474A3F49A3506B425D41464A6B421340A0
:10255400454A3C489B185B430A681B125A401204C4
:10256400120C026009681A045140090C364D090422
:1025740001602968354859400904090C016029683B
:102584005140090C09040160314801684B401B04A7
:1025940030491B0C0B60036853401B0C1B040B607D
:1025A400F6235B00E258002A39D0E158E258013A98
:1025B400E2502E4A0433521A8021E35C09010A4096
:1025C400012B01D101F0F1F81D4B1B68002A01D049
:1025D40001F0BAF81B491B041B0C0B60174B18497C
:1025E4001B04096817485940090C174D0904016078
:1025F4002968164851400904090C016029685940AA
:10260400090C09040160124801684A401204114986
:10261400120C0A60026853401B0C1B040B604A46F0
:10262400134BE2540BB0F0BCBB46B246A946A046DD
:10263400F0BDC04608E8002083E70300E0FF000087
:10264400700005407010054084000540841005406A
:102654009800054098100540FFDB05007FBB000093
:102664000C07000001F0FFFFFF0F0000C05D000039
:10267400120700006246022A01D100F08AFE494690
:10268400E84AA154022900D187E2002900D041E69A
:102694006246002A01D000F098FEE34AA25C002AB8
:1026A40001D101F0DBF8E14AAA183E2A01D800F072
:1026B40013FFDF4AAD18D922D200A550EA17AD188E
:1026C400554080226D005201954201DA00F008FF66
:1026D400D84AD94DA550D94D625D002A01D000F0E9
:1026E400A7FDDA22D200A158D54A0491A258BA1AF9
:1026F400D017121842403F2A07DD7A1AD017121851
:102704004240602A01DC00F091FDCE4D625D002A5A
:1027140001D000F076FDCC4AA1582432A2588A4652
:102724009A1AD717D2197A403F2A07DD5A1AD717AF
:10273400D2197A40602A01DC00F061FDC34BE558F0
:102744000433E758C24BE35807935B4656211BB248
:102754000893039BFF31180304F034F9BD4B0600C2
:10276400E35C002B00D0CCE380235B019D4200DAC4
:10277400C3E3B14B9800C018AF49000304F022F939
:102784008519E023DB019D4200DD1D00B24B9D4213
:1027940000DA1D00EB171A05120D1B0D5219ED1866
:1027A4002D0512132D0D9346ED1A04D58023013AFD
:1027B40093465B01ED186B005B199B121E00180316
:1027C4000C21804604F0FEF8B3000396A34E059056
:1027D4009A592D1A099280224046520180180C21E0
:1027E40004F0F0F80599411AE80304F0EBF8039BB0
:1027F400002101339B009A59099BD21A5043C013FC
:10280400C018974A002304F093F94B04C10B5918DC
:102814005B46002B00DA85E39940924BE358002B8A
:1028240005D0CA1A511201D101F07AF859188D4B0A
:10283400E150029B5D008023ED195B019D4200DAAB
:10284400B9E27D4D089B5F00079BFF1880235B0165
:102854009F4200DA9FE24B46774F002B00D0A1E263
:102864006B4618229A5E002A01DC00F0E7FC049B08
:102874005200D31880225201934200DBF0E2DA4383
:10288400D217134080225201924500DA7EE26A4A4E
:102894000A20FF30205C00280DD00C20FF30205C83
:1028A400C6B2B446002806D1DC20FF30205C0028E4
:1028B40001D000F052FF019200932A003B00200057
:1028C400FEF722FCC02380215B00E2580901131C9F
:1028D40012B28A4200DB644B554A1BB2934200DABF
:1028E400130061486149C31A5A01D21A9200D318DD
:1028F4000B60C22380265B00E2583601131C12B21F
:10290400B24200DB031C4A4A1BB2934200DA1300B2
:10291400554AD21A53019B1A9B009B184B60D6232D
:102924005B00E35C002B00D0D6E2D02380221B06A0
:1029340052005A61AE23FF33E35C002B00D0D6E291
:10294400D02380221B0692005A616D43484A2B1201
:1029540011687F434B401B0446491B0C0B601068F5
:102964003B121B0443401B0C1B040B60314B424FB6
:10297400E35A38685B431B021B0C43403F4D1B0466
:102984001B0C2B60DA23DB00E35A38685B431B1211
:102994001B0443401B0C1B042B602B4B3848E35A8D
:1029A40006685B431B021B0C73401B04354E1B0C57
:1029B40033604B46B446002B00D100E203681B0C85
:1029C4001B043360E1230026DB00E6500833E652A3
:1029D4002D4EA359002B62D0013BA351DB042B4E97
:1029E400DB0F013B3340144E9B195B4316681B12EB
:1029F4005E403604360C0E6012681E047240120CDF
:102A040012040A603A685A401204120C2A603A68A6
:102A14007240120C12042A600268534062461B047E
:102A240036E0C04612070000020700001FF8FFFF4F
:102A340000F8FFFFCC060000FF0F000003070000B2
:102A4400F406000004070000D4060000AC060000F1
:102A5400B40600009C06000000E0FFFF8CD70020B5
:102A6400314D5900C4060000FF07000008E80020AB
:102A74007000054070100540840005408410054036
:102A840098000540981005400C07000001F0FFFF76
:102A94001B0C1360036873401B0C1B041360F623A8
:102AA4005B00E258002A00D1BCE5E158E258013A43
:102AB400E250EC4A0433521A8021E35C09010A40D3
:102AC400012B01D100F0C6FCE74B1B68002A01D0A2
:102AD40000F08FFCE5491B041B0C0B60E44BE2493E
:102AE4001B040968E1485940090CE24C09040160DF
:102AF4002168E14851400904090C016021685940EA
:102B0400090C09040160DD4801684A401204DC49EB
:102B1400120C0A60026853401B0C1B040B6081E515
:102B240000220920FFF771FBB6225200A3500432A1
:102B3400A3505F310432A1504C32A3500832A35049
:102B44000832A3500832A352143AA3500832A350B7
:102B54000832A3500122DB33FF33E254FFF790FB2A
:102B6400A318C84A9D54FFF773FB4A46002A01D1B3
:102B740000F0A9FCE622FF32A25C002A01D1FFF793
:102B8400BEFB49E4C04A5FE4BC4B1A68B84B5340EF
:102B94001B04BB4A1B0C13609FE4E12100220020AC
:102BA400C900625008316252B8496054013162521E
:102BB400B74AA5500432A750B64AA350B64AA15802
:102BC4002C32A258BA1AD017121842403F2A07DDF5
:102BD4007A1AD01712184240602A01DC00F083FDF3
:102BE4000F00AE49625C002A00D0A0E1A94AA258B5
:102BF4009A1AD017121842403F2A09DDD822D2006F
:102C0400A2589A1AD01712184240602A00DC8CE1AC
:102C1400D0235B00E258FB00DB1B5B001B13023379
:102C2400102B00D91023D021490063509A4203D0BD
:102C3400D2228C495200A15084225200A25C002A64
:102C440000D178E185225200A25CD1B2002A00D0E2
:102C540071E1D4225200A1500121D7229940D2001F
:102C6400A0588F4A0139821801D500F037FDBC20E5
:102C7400400025587838FF3806008046B030FF30D1
:102C84002058D210070087482E407843864FC01939
:102C9400FF2A06DCD243D2B2070EBA4201D9464615
:102CA400AE43D8225200A0503200013B9A40130098
:102CB400BC22AE206D082B430B405200A35034328B
:102CC400A6549A07D20FFF302254CC22002052007F
:102CD400A0501803C01A03F09DFE714BC018802346
:102CE40045002D18AD029B002D13ED1880231B0108
:102CF4009D4201DB00F0B7FCC0235B00E550043BC0
:102D0400E2581001801A40190011E0500833E050D5
:102D1400002E01D000F07AFCD423DB00E35C002B0E
:102D240001D100F081FDEA43D2172A4053009B18D9
:102D34001B015E4A1B0B2433A35430225C4BE25428
:102D44005C4BE35C7F2B02D801225B4BE2540123F2
:102D54005A4AA354CE225200A350D523584ADB002A
:102D6400E25010E1E82201230021FF32A354013292
:102D7400A154083AA350534BE358002B01D1FFF759
:102D84000FFC013BDD04ED0FFFF7DAFB5046C243B5
:102D9400D21702407CE5FB43DB171F404B46002B58
:102DA40000D15DE58023049A5B019A4258DAD3434B
:102DB400DB17134066E5EB43DB171D4042E5026871
:102DC400414B53401B0C1B043360E223DB00E55CE6
:102DD400002D0CD0E122D200A3583C498B4200D8EC
:102DE4006AE33B4EA35D002B01D100F0D2FC354BCE
:102DF400E358002B00D152E6013BDD04ED0F314ACC
:102E04001949A3506B425D41324A6B4213401E4A3A
:102E140016489B185B430A681B125A401204120C92
:102E2400026009681A045140090C124D090401603A
:102E34002968114859400904090C01602968514066
:102E4400090C090401600D4801684B401B040C493E
:102E54001B0C0B6003685A40120C12040A601EE635
:102E6400094B0FE5C05D000070000540701005407F
:102E7400E0FF0000840005408410054098000540F0
:102E840098100540FC050000FF0F0000FF0600003D
:102E9400E4060000EC060000BC0600000107000088
:102EA40000F8FFFF0D6619005FF36E3CA1060000F9
:102EB400A2060000A5060000A4060000A306000068
:102EC400AF0400000C0700000000E0FFFFDB05007A
:102ED4001107000001F0FFFFD02380221B065200DF
:102EE4009A61AE23FF33E35C002B00D128E5D023A5
:102EF40080221B0692009A6127E5EB43DB172B40E7
:102F040038E4D74B0C21E05C2438000303F05AFD6D
:102F1400D323DB0005000C21E05803F053FD2D18EA
:102F2400AD192EE45B42D94077E401226254D822E1
:102F3400D200A3506CE6D42149006258C9488242A9
:102F440000D93CE301326250CE21C020D523D626DD
:102F540096274900400062582558DB00043076006B
:102F6400E3582058A65DFF00BA4201D200F019FCD4
:102F7400002B08D0D522013BD200A350002B02D154
:102F84000122B94BE254002E04D1AE23FF33E35C9B
:102F9400002B0CD0CC225200A3580133A35096220C
:102FA400D200934203D9D62300225B00E25280224E
:102FB40029B22B1C1201914200DBAC4BAC4A1BB270
:102FC400934200DA1300A94EAA49F31A5A01D21AFD
:102FD4009200D31880220B60031C00B212019042AD
:102FE40000DB331CA24A1BB2934200DA13009F4A4F
:102FF400D21A53019B1A9B009B1880224B609E4B54
:103004005201E358934200DAF5E09C4B9800C01853
:103014009A49000303F0D6FCAB005B19DB021B13D7
:10302400C018E023DB01984200DD1800944B98425D
:1030340000DA1800C3171F051B0DC5183F0D2D0519
:103044003F182D0D3F13ED1A03D580235B01ED18B6
:10305400013F6E007619B61230030C21804603F04E
:10306400B1FC884AB3009B580390049380232D1A23
:1030740040465B01C0180C21029203F0A3FC0399A3
:103084000136411AE80303F09DFC029AB600049B42
:10309400B2580021D21A5043C013C0187A4A0023F0
:1030A40003F046FD4904C00B0818002F00DACEE1F6
:1030B400B840764BE358002B04D0C21A501200D10A
:1030C400F3E318188022714B5201E050704BE3581F
:1030D400934200DA8BE0694BD6228021D200A258B9
:1030E40049018A427FDB654A6A4961580191DA21C4
:1030F400C9006158009101002000FEF705F8D623AD
:103104005B00E35C002B00D082E1D02380221B060D
:1031140052005A61AE23FF33E35C002B00D071E10F
:10312400D02380221B0692005A61D2235B00E2580E
:10313400002A00D0D8E1BC214900615801230800CD
:103144001840194200D05448544B55491B68434019
:103154001B041B0C0B60BC214900615802230800AE
:103164001840194200D04F484C4B4D491B6843400E
:103174001B0C1B040B60BC214900615804230D0087
:103184001D40194200D0444D4748484903686B40EC
:103194001B041B0C0B6084235B00E35C03681B0CA7
:1031A4001B040B60D0235B00E1580B035B1A1B0369
:1031B4001B0C5B433E491B0209681B0C4B401B0460
:1031C4003C491B0C0B60CE21962349006158DB005F
:1031D400994200D2334A364B1B6853401B0C354A84
:1031E4001B0413605BE4D143C9170A407CE7DA434C
:1031F400D217134070E7DA43D217134006E70122CF
:103204006255244A9A46A3501B4AA5580432A7582B
:103214001F4AA2580792FFF798FADA23DB00E35813
:1032240004931C4BE3589A46FFF78FFA0122625528
:10323400DA22D200A7500497FFF767FA002A00D1D8
:10324400B0E5802304985B01984200DBDCE1C343D2
:10325400DB17034050465200821A9246FFF712FBD6
:1032640095060000FF760100A4060000FF07000099
:1032740000F8FFFF08E80020AC060000FF0F000084
:1032840000E0FFFF8CD70020314D5900C406000038
:10329400B4060000D4060000E0FF00007000054002
:1032A400701005400000E0FF8400054084100540D4
:1032B40098000540981005404946EC4AA15402295B
:1032C40000D1ABE00020EA4AA052EA4AA054263AD0
:1032D400A550E94AA7500432A350E84AA55804323D
:1032E400A25894466746FFF742F84E460022E44946
:1032F4006652E449625414396550E3496750043115
:103304006350E123DB00E6500833E6522254F622F0
:103314005200A358002B01D1FFF784F9A158A358F8
:10332400013BA350F8235B00E25CD84B5B1A80217D
:1033340009010B40012A00D16DE2002B00D0EAE123
:10334400D34AD44912681204120C0A60D249D04AF2
:1033540009041268CF484A40120CD04C120402608F
:103364002268CF485A401204120C026022684A4074
:10337400120C12040260CB48026853401B04CA4A70
:103384001B0C136003684B401B0C1B041360FFF7FA
:1033940049F94A46002A8FD1C44989328846FF3206
:1033A400A258C3489044804509D8C8204000225000
:1033B40004382250D7228C385200FF38A054C4223B
:1033C40000205200A050A94AA0546246013A50423B
:1033D4004241E220C00022540020A94AA052A94A36
:1033E400A054143AA550A84AA7500432A350FFF79A
:1033F40072F9A94AA74953401B041B0C0B60002314
:10340400FFF76DFBD02380221B0692009A618CE6A5
:10341400D02380221B0652009A617BE6E121002220
:10342400C900625008316252A24AA15C002900D14D
:103434003FE2D722D200A550E022D200A25C002AAB
:1034440001D1FFF7BBFB9C4AA750FFF7CAFB7F42A1
:10345400F8402EE6C023DB009A429B41DB43974AA7
:103464008B491340964A8B489B185B430A681B128E
:103474005A401204120C026009681A045140090CE3
:10348400864C090401602168854859400904090CE7
:10349400016021685140090C0904016081480168F8
:1034A4004B401B0480491B0C0B60036853401B0CEE
:1034B4001B040B60FFF7B6F80133A350814A934213
:1034C40000D094E48DE4E6230122FF33E2544A461B
:1034D4000133E254FEF7A0FFD9220025D200A55003
:1034E400794AA550FFF7F7F8013AE250D02252008A
:1034F400A258A43B1100FF3B19401A4200D0664970
:10350400634B644A1B684B401B041B0C1360D023A1
:103514005B00E15802220B001340114200D05E4BC5
:103524005B4A1B04126853401B0C5A4A1B04136069
:10353400D0235B00E15804220B001340114200D059
:10354400554B564A126853401B04554A1B0C1360D2
:10355400D0235B00E15808220B001340114200D035
:103564004D4B4E4A1B04126853401B0C4C4A1B041F
:103574001360D0225200A2581023110019401A429D
:1035840000D04549474B484A1B684B401B041B0C61
:103594001360D0235B00E15820220B00134011423A
:1035A40000D03D4B3F4A1B04126816E64A46002AE7
:1035B40001D1FEF7F5FF0122E254FEF7F1FFD82214
:1035C400CA20D2004000A15822588A1AD51752198D
:1035D4006A40402A00DC8BE0D72200255200A55423
:1035E400215080225201914200DA10E1344A3449D8
:1035F4008A1A5243110B354A4A433549120B521861
:10360400C621490062507DE02D4B23E6DC23FF33C5
:10361400E35C002B14D0E02200235200A3500832B4
:10362400A3500832A3500832A352143AA3500832CC
:10363400A3500832A350DB33D43AFF33FF3AE254A9
:10364400D423DB00E35C002B00D1FAE0EA43D21779
:103654002A4053009B181B011E4A1B0B2433A354FE
:103664006422FFF76BFB1C4DFFF746FB12070000BB
:10367400FC060000FE060000DC060000AC060000AC
:103684000207000004070000F4060000C05D00000B
:103694007000054070100540E0FF00008400054004
:1036A4008410054098000540981005409FF6FFFFE0
:1036B4009E6D0100FF060000BC06000001F0FFFF44
:1036C400FF0F000000DC0500CC060000A8DE0000AF
:1036D400B80B0000A1060000FF07000080221201C1
:1036E400121AFFF7C4FAE0220121D200A154AAE67B
:1036F400D7225200A25C2150002A00D171E7C622D1
:103704005200A258C420400021580131914200D3F4
:1037140086E0215018E4854B85491A68854B5A4048
:103724001204120C0A60002111E6002D01D1FEF7EB
:1037340037FFE6210022FF316254E254073BE25096
:103744000833E254FEF72CFF7A4A794953401B04AC
:103754001B0C0B600023FEF742FFB62040002650EE
:103764000430265060260430265066464C302650DD
:103774000830265008302650083026521438265077
:103784000830265008302650012606302654FFF70C
:1037940092F82000FEF7EAFA0123A355664BFFF7DF
:1037A4002EFB01326250FFF7E3FBC023DB009A4299
:1037B4009B41DB43614A5D491340614A5C489B1865
:1037C4005B430A681B125A401204120C0260096817
:1037D4001A045140090C5B4D0904016029685A48D8
:1037E40059400904090C016029685140090C090475
:1037F4000160564801684B401B0455491B0C0B6083
:10380400036853401B0C1B040B60FEF708FFCA43FC
:10381400D2170A40EBE6C022D20093429B411DE638
:1038240000222250FFF718FAD523CE220121DB0013
:10383400E3585200A150002B01D0FFF79BFBFFF788
:10384400A4FBD523CE220121DB00E3585200A15072
:10385400002B01D0FFF78EFBFFF79CFBDE22D2008A
:10386400A258AA1AD017121842403F2A01DCFEF7C8
:1038740032FFD92280218020D200A2580901521897
:10388400400182420DDB2E4AAA1AD0171218424078
:10389400602A01DDFEF71FFF01202E4AA054FEF727
:1038A40002FFD043C0170240EEE7511E8A41D018F0
:1038B40008E429496158691AC817091841403F2981
:1038C40000DCB9E5D721C9006158691AC81709187D
:1038D4004140602900DDAFE50121A154A9E5DB21C8
:1038E400C90061581D48691ACE17891920587140BA
:1038F4003F2909DD291ACE1789197140602903DC93
:103904006146A154FEF711FD0500FEF710FD0133D9
:10391400A350134A934201D0FFF72DFAFEF703FE9A
:10392400511E8A41D118FEF782FFC046700005403F
:1039340070100540E0FF00007FBB000001F0FFFFB6
:10394400FF0F0000840005408410054098000540E6
:103954009810054002070000E4060000AC060000D1
:1039640000DC0500F0B5DE4657464E464546E0B558
:103974006420B5B002F00EFCF023B94CE35C0C2BD0
:1039840000D06AE1D0231B065A68802310005B0331
:1039940018401A4266D00125012314AE31000020DC
:1039A400338003F00DFE002D62D004AB9B46B1467C
:1039B400AC4F01200021404203F076FE40235A46DA
:1039C4000021002004F0F4FB5D462E18002823D0CB
:1039D400D123DB009846A44B9A4608E04046511C8C
:1039E4002150A249A21853540135B54214D02B7862
:1039F400F02B00D195E0E25D002A00D197E0F72B8F
:103A040000D1D2E04246A2587F2AE7D90123524688
:103A14000135A354B542EAD1954AA35CD9B2002B2F
:103A240000D0EBE0934BE25C002AC2D0E154924B0D
:103A3400924AE55C924B7F20E15C924BC9B2E35C15
:103A4400A154902218400F232B4013434A4613706D
:103A54007F230B405370907003230021002004F057
:103A64004FFCA6E7022314AE3100338005F0D4FFE7
:103A7400854B864F984601235B42994610339A46FC
:103A84007B4D01200021404206F07EFA635DD9B2ED
:103A9400002B2FD1774BE25C002AF2D0E154764B15
:103AA4007849E25C764BE35C605C7449DBB2635456
:103AB40039780029E5D04146097849B20029E0DB8C
:103AC4007F2101408C46902051460A4002433270C7
:103AD4007F22134073706346B370434638783200D4
:103AE4001978C0B2032301F08DFA3878C0B201F01E
:103AF40057FBC6E700234846604963555E4BE25CCA
:103B0400635C605459B20029BBDB39780029B8D012
:103B14004146097849B20029B3DB002180208C4654
:103B2400D2E700234246A3500133E3535CE7F72B6B
:103B340000D959E759B200296FDB554AA15C0F221D
:103B44000091914308000291009910329143802919
:103B540002D0E02800D047E74E4A1000A25C019052
:103B6400511CC9B221544C48A2181354012900D83D
:103B74003AE70023019A0099A354484BE25C0F23CF
:103B84000B409A4200D02FE7029B225C902B49D035
:103B9400802B4DD0D223DB00E35CDB011343404A8E
:103BA4009B18D322D200A3501EE70023E3555346AB
:103BB400E35C002B00D017E7D123DB00E358052B8F
:103BC40014D92A4AA25C7D2A10D1C121C900354AE0
:103BD400615891420AD1344AA25C0092013A012A06
:103BE40000D8B0E0009A033A012A65D9F8235B00B3
:103BF4000222E2542D4A043BE250F5E60023A3548A
:103C0400FF221D4BE55C1D4BE15CE2544BB2002BE3
:103C140000DACEE60020802215E71D4963541D4BCF
:103C2400E254E1E6D223DB00E35C002B00D082E027
:103C34001F4BE35C934200D0D6E6DC23FF33E35C06
:103C4400002B00D1B8E0ED235B00E35C002B00D136
:103C5400B2E00122174BE254C6E602259CE6C046B8
:103C6400B0F100208C0600008D060000070600005D
:103C7400A4060000A30600009F060000A50600009D
:103C8400A1060000A2060000FCE70020040A0120AF
:103C94008E060000910600008F0600009E060000BC
:103CA40000E0FFFF43315A330C060000C05D000002
:103CB400950600009D0600000D2B97D1C2216A4B8A
:103CC4006A48E25C6A4BD201E35CC9001A43635C54
:103CD400205CDB010343100018438446802040012C
:103CE400844583D260586349084200D07EE7DA20D5
:103CF4006149C000615C01916049615C0291604965
:103D0400615C22505F4AA3505F4B019AE2545F4BBF
:103D1400029AE25401231940D423DB00E154009BAE
:103D2400042B00D196E0F82301225B00E254584AA8
:103D3400043BE25058E657496254574AA3540122BF
:103D4400564BE25450E6672B00D04FE7484BE35CF8
:103D54000293072B00D949E7514B4846E218172331
:103D64000394019351781378C901194380235B01AB
:103D740099426DD2019B05330193D378DB011C007A
:103D840013799B0323439478234300D10133436085
:103D9400019B0180053208303F2BE3D100234946C3
:103DA400039CDA008A5A002A0AD10133082BF8D17D
:103DB400E9338946FF331BE700223A4BE25413E60A
:103DC400394B0800E21800238946403001935178AA
:103DD4001378C9011943802303915B01994200D3ED
:103DE40004E7D3781179DB0189030B4391780B4302
:103DF40000D101334360019B039901330180019396
:103E040005320830082BE2D102988022C001201824
:103E1400F5304946FF3003F007F801210298234AA0
:103E240023189954224AA054009A023A504242411B
:103E340020482254225C002A10D101231E4AA35494
:103E4400F8225200A354124AEC33FF33E250CBE57C
:103E5400039CCBE62000FDF789FF64E7174A2000A6
:103E64009954FDF783FFE8E70E0600000F060000F3
:103E74000D06000000F0F00011060000120600001C
:103E840013060000D40600009E0600009F060000F2
:103E9400C05D000092060000930600009406000036
:103EA4001E0600009C06000046060000F405000003
:103EB400040600000506000006060000FC050000DC
:103EC4006B46054A1B881178002903D11070034AF8
:103ED400013B13707047C046040A0120FCE7002030
:103EE400044B1A78824204D100221A70024BFF322A
:103EF4001A707047040A0120FCE70020F0B5DE4682
:103F040057464E464546E0B5864BC1B01B788342C2
:103F140031D100292FD000231EA9CB7120AB9A46A2
:103F2400814B80469946814D1EA9802352464046C6
:103F3400073101F047F900281DD0D12750445446D9
:103F44000600FF0007E0511CE9517949AA185354AF
:103F54000134B442E8D02378F02B13D04A46AA5C4B
:103F6400002A15D0F72B4ED0EA597F2AEBD901232A
:103F7400704AAB54ECE741B0F0BCBB46B246A9462C
:103F8400A046F0BD00234A46EB510133AB52DFE7B4
:103F9400F72BDDD859B200295CDB674AA85C0F22F5
:103FA4000100914300910100103201909143802956
:103FB40002D0009AE02ACBD1604A94466046AA5CBB
:103FC400511CC9B229545E48AA1813540129BFD9F7
:103FD40000236246AB545B4B0199EA5C0F230B4010
:103FE4009A42B5D1009B2A5C902B79D0802B7CD04F
:103FF400D223DB00EB5CDB011343534A9B18D3222F
:10400400D200AB50A4E700234A46AB54494BEB5CC7
:10401400002B9DD1D123DB00EB58052B12D9444A48
:10402400AA5C7D2A0ED1C121C900484A695891422F
:1040340008D1474AA95C4A1E012A00D8A8E0CA1E32
:10404400012A0CD9F82302225B00EA54414A043BBA
:10405400EA507DE738496B54384BEA5478E70D2B26
:10406400F0D13D4B3D48EA5C3D4BD201EB5C285C12
:104074001A43C223DB009B46EB5CDB0103431000C5
:10408400184384468020009340018445DAD2584680
:10409400344B28581842D5D133482B5C33489C46BE
:1040A400334B285CEB5C0193DA23DB00EA50314AA2
:1040B400009BAB506246234BEA542F4B019AE854C1
:1040C40001231340D422D200AB54042900D102E3CB
:1040D400F82301225B00EA541E4A043BEA5037E706
:1040E400D223DB00EB5C002B14D1244BEB5C93421A
:1040F40000D02DE7DC23FF33EB5C002B00D1E6E29C
:10410400ED235B00EB5C002B00D1E0E201221C4BB1
:10411400EA541DE71B496A541B4AAB5401221B4B4A
:10412400EA5415E7040A01208C060000B0F10020CF
:10413400070600008D0600008E06000091060000B0
:104144008F0600009E06000000E0FFFF43315A3353
:104154000C060000C05D00000E0600000F06000003
:104164000D06000000F0F000110600001206000029
:1041740013060000D40600009F0600009506000008
:104184009D060000920600009306000094060000BD
:10419400672B00D056E7D34BEB5C9B46072B00D92B
:1041A40050E7D14BEA5CD14BD001EB5C1843802340
:1041B40000905B01984200D344E7CD48CD4A285C87
:1041C400AA5CC001024301929A4200D33AE7C52295
:1041D400C948D200285CAA5CC001024302929A42F8
:1041E40000D32FE7C548C64A285CAA5CC001024335
:1041F40003929A4200D325E7C248C34A285CAA5CCA
:10420400C001024304929A4200D31BE7C720BF4A6D
:10421400C000285CAA5CC001024305929A4200D304
:1042240010E7BB48BB4A285CAA5CC0010243069263
:104234009A4200D306E7B848B84A285CAA5CC00191
:10424400024307929A4200D3FCE60098019A024383
:104254001000029A1043039A1043049A1043059ADB
:104264001043069A1043079A104300D1EAE6AC487B
:10427400AC4A285CAA5CC001024316929A4200D35D
:10428400E0E6A94BA948EB5C285CDB0103431A0078
:10429400179380235B019A4200D3D3E6CA22A44831
:1042A400D200285CAA5CC001024318929A4200D34F
:1042B400C8E6A048A04A285CAA5CC001024319923F
:1042C4009A4200D3BEE69D489D4A285CAA5CC00180
:1042D40002431A929A4200D3B4E6CC20994AC00011
:1042E400285CAA5CC00102431B929A4200D3A9E64F
:1042F4009548964A285CAA5CC00102431C929A42E3
:1043040000D39FE69248934A285CAA5CC00102430A
:104314001D929A4200D395E68F4BE85C8F4BC00107
:10432400EB5C9B030343C420C000285C034300D11F
:1043340001338B48285CC2018A48285C80031043FF
:10434400894AAA5C02430F9201D101320F92874835
:10435400285CC2018648285C80031043854AAA5C15
:104364000243109201D101321092C620C000285C91
:10437400C2018148285C80031043804AAA5C02433E
:10438400119201D1013211927D48285CC2017D480D
:10439400285C800310437C4AAA5C0243129201D138
:1043A400013212927948285CC2017948285C800362
:1043B4001043784AAA5C0243139201D1013213924A
:1043C4007548285CC201C820C000285C80031043E3
:1043D400724AAA5C0243149201D1013214927048C9
:1043E400285CC2016F48285C800310436E4AAA5CB3
:1043F4000243159201D1013215926C48285CC20126
:104404006B48285C80031043C922D200AA5C024393
:10441400089201D1013208926648285CC2016648BC
:10442400285C80031043654AAA5C0243099201D1C7
:10443400013209926248285CC2016248285C800308
:104444001043614AAA5C02430A9201D101320A92E2
:10445400CB20C000285CC2015C48285C8003104368
:104464005B4AAA5C02430B9201D101320B92594878
:10447400285CC2015848285C80031043574AAA5C50
:1044840002430C9201D101320C925548285CC201BE
:104494005448285C80031043534AAA5C02430D929B
:1044A40001D101320D925148285CC201CD20C000D7
:1044B400285C800310434E4AAA5C02430E9201D149
:1044C40001320E924B48285CC2014B48285C8003A1
:1044D40010434A4AAA5C0243944600D090E0013259
:1044E40094468DE00D0600001F0600001E06000025
:1044F4002406000023060000290600002E06000002
:104504002D060000330600003206000037060000C6
:104514003D0600003C060000420600004106000083
:1045240047060000460600004C0600004B0600004B
:104534005106000056060000550600005B06000008
:104544005A0600005F0600006506000064060000CD
:104554006A06000069060000210600002206000029
:104564002606000027060000250600002B06000092
:104574002C0600002A060000310600002F06000069
:104584003506000036060000340600003A06000036
:104594003B060000390600003F0600003E0600000E
:1045A40044060000450600004306000049060000DA
:1045B4004A0600004E0600004F0600004D060000AB
:1045C400530600005406000052060000590600007D
:1045D400570600005D0600005E0600005C06000051
:1045E4006206000063060000610600006706000022
:1045F400660600006C0600006D0600006B060000F5
:104604005A46D001F530FF3028184360019B009AC8
:1046140003810F9B0280C360029B169A0382109B46
:104624004361039B0383119BC361049B0384129B1B
:104634004362059B0385139BC362069B0386149BFD
:104644004363079B0387159BC3634023C252089BA4
:10465400179A43644823C252099B189AC36450238F
:10466400C2520A9B199A43655823C2520B9B1A9A49
:10467400C3656023C2520C9B1B9A43666823C252D3
:104684000D9B1C9AC3667023C2520E9B1D9A4367EE
:104694007823C2526346C3675B460120144AEB1871
:1046A40098545846134AA8548A1E51424A41124902
:1046B4006A546A5C002A12D10123104AAB54F822CE
:1046C4005200AB540E4AEC33FF33EA5040E400226C
:1046D4000C4BEA543CE42800FDF748FBF8E40A4A92
:1046E40028009B1801221A70FDF740FBE4E7C0463E
:1046F400F40500000406000005060000060600009C
:10470400C05D00009C060000FC0500007047C04628
:1047140010B5054802F088FD0448054B186007F001
:10472400BFFB002010BDC04675370020B0F100204B
:1047340048FC0020F8B5B24C00252000FCF7C4FA70
:10474400B04BB14A2360B6235B00E5500433E55017
:104754000433E5500433E250C6220433E5500433F5
:10476400E5500433E5500433E550A84B5200A35000
:104774000432A3508027CA2396223F015B00E750EE
:104784000433E550D2000433E25010220433E250E3
:104794009F4A0433E55000260433E25001220433D7
:1047A400E5520233E6540233E2500433E550043355
:1047B400E5500433E5500433E5500433E550043345
:1047C400E5500433E5500433E550924A0433E55090
:1047D40020000433E25080220433E5500433E550D2
:1047E4000433E5500433E654F5300433E550002136
:1047F4000433D200FF30E65402F010FB864B08224B
:104804000021E01802F00AFB844B08220021E01882
:1048140002F004FB824B8022E654824B0021E654D2
:10482400814BE654814BE01802F0F8FAD1233C2284
:10483400DB00E5507E4B7F49E5500433E5527E4B67
:10484400E254642363547D4966547D4962547D492E
:104854006354023165507C496550043166547B4988
:1048640062547B4A7B49A354FF227B4BE6547B4B27
:10487400E6547B4BE2540333E5507A4B7A4AE750D3
:104884000433E550794BE5500433E750784BA3509B
:104894000432A750774AA5500432A550764AA55051
:1048A4000432A550754AA5500432A750744AA55045
:1048B4000432A550734AA7500432A350724B734A72
:1048C400E7500433E750724BE5500433E550714B25
:1048D400E25002220433FF32E2506F4B013AE654B5
:1048E4000433E5506D4BFF3AE5500433E5526C4B0D
:1048F400E2546C4B0A689A4200D0F8BD8B88052BB1
:10490400FBD1694BCA889A42F7D1043BCD58674A18
:1049140067480B7801315A4013049B185B009B18BD
:10492400DB009B18DB009B185B009A188142F0D1D6
:104934009542E2D1D922474BD2009968A1508022F6
:10494400DB685201934257DB494B4B4AA350802208
:10495400404B52011B6993424ADB454BDA22D20099
:10496400A35080223B4B52015B6993423CDB404B9A
:10497400424AA350374B1B7E082B00D90023DC226C
:10498400FF32A3542123334AD35C0F2B00D90023D5
:10499400484AA35422232F4AD35C0F2B00D9002367
:1049A400454A0025A35423232A4A444ED35C0122BA
:1049B4001340D422D200A354174BE418254BEB1810
:1049C4005B7E1A00511E8A4122722270002B06D08F
:1049D4003B4BE90188198022C91802F025FA0135F8
:1049E4000134082DEAD188E7DA43D2171340BFE730
:1049F400DA43D2171340B1E7DA43D2171340A4E7DE
:104A0400B0F1002088D70020E1AC0000E02E0000C7
:104A14000077010008080000F4050000FC05000010
:104A24000406000005060000060600000706000054
:104A34008C06000093060000920600009406000015
:104A440095060000960600009C060000A1060000E2
:104A5400A206000000F01F10A3060000A406000038
:104A6400A5060000AC060000BC060000B406000069
:104A7400FF0F0000C4060000CC060000D4060000AE
:104A8400DC060000E4060000EC0600000101010160
:104A9400F4060000FC060000040700000C070000F8
:104AA40012070000335A31432C040000C59D1C81B9
:104AB40028F41F109E0600009F060000A4F30020A7
:104AC40028F01F10004870475CE60020004870473B
:104AD400F4E5002070B5002826D0032833D81B4BFA
:104AE4008000C458200007F065F8C3B2181C1F2BBF
:104AF40018D8C021C0B2421CD2B25200890011435E
:104B04000D00002B1CD0124B9C469A1C0023E15C28
:104B140001331180D9B202328842F8D86346604624
:104B24001D8070BD1F20E4E70A48C1250400074B1F
:104B34000222196802F078F9A31E9C46AD00EDE745
:104B4400034B9C46EAE70020EBE7C04610E8002050
:104B54005C0301205E03012070B5164C82B0200076
:104B640003F022FF002805D02500D9232C3DEE5C5C
:104B7400002E02D0002002B070BD0120E97805F0BB
:104B84000DFD0028F6D020000B49EA8803F08EFFC3
:104B9400E978041E0AD00300074A01200196009612
:104BA40005F04CFD0028E5D02000E4E7012005F0E5
:104BB4001DFDDFE7B4EF0020E0EF0020F0B5244C4A
:104BC40085B0DC220021200002F028F9214E35684E
:104BD400280002F0CBF820640700706802F0C6F8E1
:104BE40003906064337A01215800C018400002F039
:104BF400DBF8E060002F26D0039B002B25D0002893
:104C04001FD0AAB2200000250123390018300095D6
:104C140003F094FEB28820002600616C012348361C
:104C24002C30009503F08AFE300000F08BFFA66262
:104C3400260050363000656200F084FF0120A66330
:104C4400E56305B0F0BD3800FBE71800F9E7C0469E
:104C540088EF002020E8002010B50E4C206C0028BE
:104C640003D002F0C3F800232364606C00280CD046
:104C740002F0BCF80023E0686364002803D002F06B
:104C8400B5F80023E360012010BDE0680028F6D1E8
:104C9400F9E7C04688EF0020F0B51C0083B0012876
:104CA4002AD1D923334DEA54002A25D1AB788B423B
:104CB40025D0EB788B4248D001201EE028002C3010
:104CC40003F072FE002844D1002C42D02000E98871
:104CD40001F0A0FE0C1E3CD10120E97805F05EFC39
:104CE400002836D0E97823002200012001940094A2
:104CF40005F0A4FCA0422CD1002003B0F0BD002C90
:104D040019D0A40817D02634A4002E192C0000278B
:104D1400983402E00434A64209D02368002BF9D069
:104D240004222100144803F0C9FF0137F2E7134BB2
:104D3400002B16D1A97800242A00AB882878983251
:104D44000194009405F07AFCD7E7FFF705FF0028EB
:104D5400B4D00B4B002BAFD00120FFF7D7FC0120C0
:104D6400CBE7002FE6D039000120FFF7C7F8A97878
:104D7400E1E7C04688EF0020A0EF00200D3D0020B1
:104D84001D45002070B5012824D1134B002B02D0FF
:104D94000021FFF7A5F8114C200004F043F820008F
:104DA4002500143004F03EF8002300222000183DB2
:104DB4006B602B81FF332B60273BEA5400210622D2
:104DC400083802F02BF8064B00211A7AE8689200A2
:104DD40002F024F870BDC046F13C0020A0EF002092
:104DE40020E80020F8B5DE4657464E464546E0B575
:104DF400012906D1D92100206A4C60545179012936
:104E040006D00020F0BCBB46B246A946A046F8BD79
:104E14009079002101286BD00328F2D1157850191C
:104E24004678B446242676426644012E00D87FE0B4
:104E34006646052EE5D19278691889B262708B4274
:104E440000D8A0E0584A15685268A9469046002246
:104E540000259346924623E0252A29D0052AD0D15D
:104E64004279057912022A43402A04D94022027168
:104E74000022427140328578EE092DD1E678677AB6
:104E84003E43BED1424500D942468346E570E280A6
:104E94000278511889B299424FD2801842789446C8
:104EA4006246242AD8D18278013A032AA9D8EFE7A6
:104EB4008278012AA5D1002DA3D0EA0928D1E2786D
:104EC400AA429ED1627A002A9BD1C2786272027889
:104ED4000025511889B2DEE7A678277A3E4300D030
:104EE4008FE74A4500D94A468246A570A280CFE79B
:104EF400002B07D185E710784118121889B2507930
:104F04008B4210D90128F6D190790328F3D183E795
:104F1400A278AA4200D074E7227A002A00D070E76F
:104F2400C2782272D3E7012800D06AE7907973E748
:104F34008678012E00D064E77DE7E378002B1AD051
:104F4400637A002B17D05346002B06D0514601201C
:104F540005F0AEFB002800D153E75B46002B06D0DA
:104F64005946012005F0A4FB002800D149E701239C
:104F74000120237046E7A378002B00D141E7237A70
:104F8400002BE0D13DE7E378002B02D0637A002BBD
:104F9400EDD1A378002B00D133E7237A002BE6D19F
:104FA4002FE7C04688EF002020E8002070B50E00EF
:104FB40082B001281ED1114CD82300252200E054D0
:104FC400A388A178207898320195009505F036FBE6
:104FD400051E0FD00A4B002B07D0607A237AE278A3
:104FE400A17800900120FEF76BFF3100012005F04D
:104FF4009FFB00E00025280002B070BD88EF002070
:10500400D13C0020F0B54F464646D646C0B598463A
:10501400170082B0012838D15E4E707A884234D9A4
:105024005D48007A884230D9002B2ED00B01DBB2C8
:105034009946043300259A464800F4684018400015
:1050440024182C36300003F0CDFC03281ED97A5DD9
:105054000135F72A30D82379002B1ED102200F21E5
:1050640023788446207102301940607104294FD09E
:1050740010097F2A56D81B075DD44B4662700F3344
:10508400237002230220637131E00025280002B05E
:10509400E0BCBA46B146A846F0BD032BF6D8E254AC
:1050A40021780133DBB22371514516D060799842DF
:1050B4001BD9A845C6D1E9E74B4669460F330B70A7
:1050C40000234A70300004224B8003F0F7FD0428CB
:1050D400DCD12379012BECD9E8E7F72AE6D14A465B
:1050E400180003329A1822706371032806D8042327
:1050F4001A1A0021D2B2201801F090FE04222100D5
:10510400300003F0DBFD002323710428D1D0BDE778
:105114006270F72ACDD14B460533237063460220D3
:105124006371E4E79E23DB01C340DB0712D54844E7
:1051340062702070BDE70F299FD0184BA270CB403E
:10514400DB0704D40323032023716371CFE7032314
:105154002371AEE703000C3B012B05D86270484471
:10516400032320706371A4E76270F02A0ED0130049
:1051740061468B43F12B06D04B46F22A00D07EE7E2
:105184000333237095E74B46981CE9E74B460433F9
:1051940023708EE788EF002020E80020FF4F0000F6
:1051A40010B5012806D1064BD978187805F0A8FA6D
:1051B400002801D0002010BDFFF7CEFCFBE7C0465D
:1051C40088EF0020F0B557464E46DE464546E0B52A
:1051D40014000F00994685B001280ED100290CD087
:1051E400002A0AD0002B08D0604D02AA2800D11D45
:1051F400A84603F0D1FC002808D10026300005B0F1
:10520400F0BCBB46B246A946A046F0BD290002AA9E
:10521400D37928001B0904223B70083903F046FCAB
:105224000428EAD1524B0026183D00931CE0009B51
:105234009C4618885B46184240D102AB4046D91DB3
:1052440003F0AAFC0028D9D002ABDB793A781B0919
:105254009A42D3D1404601000422083903F026FCC7
:105264000428CBD1B145C9D92B7C1B093B702A7AC0
:105274009A42E2D901229A4093B29B461123EB56FB
:10528400697C002BD3DAF02911D0EF2935D80B092A
:105294000C3BDBB2012B46D9032303209A46344A44
:1052A4005B46944612889A4363461A8015E0304B55
:1052B40018889C465B461843634618801223EB56B5
:1052C400AA7C002B3ADB1322EB7C0193AA5602231F
:1052D400002A2CDB01339A461800217084460221EF
:1052E400504601346A18137C4A1C2370032101348C
:1052F4008242F7D9604636189FE7F7290ED8F3297A
:1053040018D006D8F12915D00323F22103209A4698
:10531400E3E70B000A33DBB2012B8ED801202170A6
:105324003618013489E7022302209A46B7E7019B25
:10533400F72B18D0022302209A46CEE7F72A09D089
:105344001322EB7C0193AA560123002AC2DA019BA3
:10535400F72BE3D1012301339A465B466246984317
:1053640010805046B9E70223F5E7C046A0EF0020BD
:10537400020A012001230370004870472CE8002032
:1053840010B54024074A83009A181268C00054409C
:10539400C0222240044C1B191A60044BC0184160FF
:1053A40010BDC04604C0014004D00140004001408B
:1053B400064B8000C3181B68C90092000A435A4078
:1053C4000C231340024A80180360704704C0014054
:1053D40004D001408000002904D0054BC0184023AC
:1053E40003607047034BC01840230360F9E7C046CD
:1053F40004E0014004F001400123D022834012065E
:1054040093629361084A83009A18116840225140BC
:1054140080320A400549C0005B181A60044BC0186A
:10542400052343607047C04604C0014004D00140D6
:10543400004001408023DB051868000F7047C04618
:105444000FB400B5084883B001F05EFE049B002B46
:1054540007D005A91800019101F0F4FC034801F0FC
:1054640053FE012001F006FD88E4002098E40020AA
:1054740070B58C461600EFF3108472B60F490B68B2
:10548400002BFCD0BFF35F8F6346DB08C5180722EF
:10549400C05C63461A40012393401A000240034251
:1054A40007D118432870BFF35F8F0A6084F3108814
:1054B40070BD61463000FFF7C3FFC0462C0100D029
:1054C400F8B5CE4647468C4680B51C00EFF31088ED
:1054D40072B61C490B68002BFCD0BFF35F8FA2424D
:1054E40021D80723994602E00132944218D3494651
:1054F400012611408E40D308C718C35C1E42F3D165
:10550400100033433B70BFF35F8F00220D4B1A60D2
:1055140088F3108800280EDBC0BCB946B046F8BD3D
:1055240001204042EFE7BFF35F8F00230B6088F355
:105534001088012040426346002BEDD00898FFF705
:105544007FFFC0462C0100D0044A1078431CDBB214
:10555400172B00D9102313707047C04648E8002069
:1055640000B5054B83B00100009318221F230348A4
:10557400FFF7A6FF03B000BD9CE400202C0301202C
:105584000021044B044ABFF35F8F02C39342FAD154
:105594007047C046000100D0800100D0084B094A82
:1055A4001360094A1360094A1360094A1360094ADF
:1055B4001360094A1360094A1360094A136070476B
:1055C4008080808000E400E004E400E008E400E07F
:1055D4000CE400E010E400E014E400E018E400E06F
:1055E4001CE400E01F2318401E3B8340002905D023
:1055F400C021044A49005350136070478022014976
:105604008B50FAE700E100E001228240034B1B6863
:1056140013405A1E9341D8B27047C04600E100E0DF
:1056240070B50D00EFF3108672B60F4A1368002BA5
:10563400FCD0BFF35F8F0D4B10309B6884001B5967
:105644000B4A934203D09D4201D001F07BF8074BF3
:105654009B681D51BFF35F8FBFF35F8F0022024B26
:105664001A6086F3108870BD240100D000ED00E0BC
:10567400C1010010F0B5DE4657464E464546E0B53A
:10568400824683B08B461700EFF3108872B6604AE7
:105694001368002BFCD0BFF35F8F00255D4B5D5773
:1056A4009946002D00DA9AE04A466B005A4C5E197E
:1056B400B6000193A31900939B791370574B9A6812
:1056C400534610339B00D15899460B1B2F2B32D9CC
:1056D400534B994200D098E0019B0236ED18514B90
:1056E400AD006353504BA619043B9B1B4F4A1B054B
:1056F4005B0D651913436B804D4B0121AB80FF2378
:10570400AB715B46AB60009BEF710B4319004A46DB
:10571400424B9B689950BFF35F8FBFF35F8F0022AA
:105724003B4B1A6088F3108803B0F0BCBB46B2460A
:10573400A946A046F0BD01200A008243D379B446AD
:10574400BB422DD83B4BB51C190013001B1B5B41FE
:105754005943090D8C46334B6519A353324B0099B9
:10576400043B5B1B1B05314D5B0D2B4304364B8007
:10577400A619131F9B1B1B055B0D1D4363468B71F1
:105784005B468B602C4B8D80CF7113600143BEE769
:105794005800C01880002018C679BE4225D90200DE
:1057A4000623D356002BF3DA9A46131D9C4623484E
:1057B4006346009E9571043EF61A36051B4B760D22
:1057C4001E43019B96805A1953469200A418A37154
:1057D4005B46194AA0802260E771A36097E700F056
:1057E400B1FF00254B465D575EE766469A46131D9A
:1057F4009C469088043640050015A6196044801B19
:1058040000050A4E400D3043D2E700F09BFF63E7EA
:10581400240100D00B0A01204CE8002000ED00E038
:10582400C101001000A1FFFF7CE8002000E0FFFFA1
:1058340001BDFFFFAAAA00000148804701BD000086
:10584400F0B54546DE4657464E46E0B50D0083B0FA
:10585400EFF3108872B6604A1368002BFCD0BFF3D4
:105864005F8F5E4B5E499A68030010339F00D459E2
:1058740099468C423ED0AC424FD05A4EA21B2F2A9E
:1058840038D8594B1A689C461300012282401340B1
:105894001F22024001209A4690406346802283469C
:1058A4009850BFF35F8FEFF305830193002B36D03D
:1058B400994501D000F046FF012322009A439068E5
:1058C400854208D176E04B005B189B00F31898687A
:1058D400854236D01A00062151560029F3DA854252
:1058E40054D05346002B27D0C02259463E4B520079
:1058F40099501960394B9B68DC51BFF35F8FBFF33C
:105904005F8F0022344B1A6088F3108803B0F0BC18
:10591400BB46B246A946A046F0BD0C00EAE7220009
:1059240001339A4390688542D5D10620105613005E
:1059340000280ADA0C0031E0802359462A4AD15063
:10594400D8E706201856002821DB420011188900E8
:1059540075188946A9689960E979D971062169564B
:105964009971002924DBAD88F11A6D052D154D447C
:10597400491909051D4D490D2943998013181C4ADD
:105984009B001178F31899711070AAE7130001991C
:10599400002914D1FF3191711649918014490A7874
:1059A4009A71154A9B1B5B415A43120D0A7098E782
:1059B4001049E2E70620105613000028C5DA0F4A02
:1059C4000F49D21A083A5002400D014399800D49FB
:1059D40052080A43DA8084E7240100D000ED00E095
:1059E400C10100104CE8002000E100E000E0FFFFEE
:1059F4000B0A012001BDFFFFAAAA000086E80020CF
:105A040000F0FFFF00F8FFFF084A83089B009B1883
:105A14001A6810B5140003221040C000FC32824002
:105A24009443220081400A431A6010BD00E400E060
:105A34000123034370B59C46EFF30581EFF3108512
:105A440072B6214A1368002BFCD0BFF35F8F1F4B43
:105A540004001F4AE41A64416243120D1D4C89007C
:105A6400A66852B2765866451CD006215956914212
:105A74001CD012215956914222D01E2159569142CE
:105A840020D02A2159560324914210D0124B197860
:105A94001A708171BFF35F8F00220B4B1A6085F37C
:105AA400108870BDA3680D4C5C50EFE700246100C2
:105AB400091989005B18FF21997109499980E5E763
:105AC4000124F4E70224F2E7240100D04CE800208A
