:020000041000EA
:1000000000B5324B212058609868022188439860DF
:10001000D860186158612E4B002199600221596106
:100020000121F02299502B49196001219960352056
:1000300000F044F80222904214D00621196600F024
:1000400034F8196E01211966002018661A6600F04E
:100050002CF8196E196E196E052000F02FF8012189
:100060000842F9D1002199601B49196000215960AB
:100070001A491B48016001219960EB211966A021F2
:10008000196600F012F800219960164914480160C1
:100090000121996001BC002800D000471248134993
:1000A000086003C880F30888084703B5996A0420EC
:1000B0000142FBD001200142F8D103BD02B5186610
:1000C0001866FFF7F2FF186E186E02BD00000240BE
:1000D000000000180000070000035F00212200005C
:1000E000F4000018222000A00001001008ED00E03C
:1000F00000000000000000000000000074B24E7A12
:1001000000200420F7010010CB010010CD010010E9
:10011000C9010010C9010010C9010010C901001077
:10012000C9010010C9010010C9010010CF01001061
:10013000C9010010C9010010D1010010D301001045
:10014000C1010010C1010010C1010010C101001067
:10015000C1010010C1010010C1010010C101001057
:10016000C1010010C1010010C1010010C101001047
:10017000C1010010C1010010C1010010C101001037
:10018000C1010010C1010010C1010010C101001027
:10019000C1010010C1010010C1010010C101001017
:1001A000C1010010C1010010C1010010C101001007
:1001B000C1010010C1010010C1010010C1010010F7
:1001C000EFF30580103800BE00BE00BE00BE00BECA
:1001D00000BE00BEF2EB887190020010B402001065
:1001E0003802001090A31AE721482249086006C887
:1001F00081F30888104720480068002801D01C4877
:10020000F3E70DA40ECC002902D000F012F8F9E7B4
:100210001A491B4A002000E001C19142FCD1194952
:100220008847194988471949884700BEFDE701C931
:1002300001C29A42FBD37047B4020010C0000020F4
:10024000F4C40020E8C6001000C5002048F80020D3
:1002500030FA0010000004200000042030FA0010E2
:10026000001004200010042000000000704700006F
:100270000000000008ED00E0000000D048F8002079
:100280009C12012085770020595200207D770020A4
:1002900030EF00203CEF002048EF002054EF00201A
:1002A00060EF00206CEF002078EF0020B4F0002019
:0402B000A8F0002092
:1002B400F8B5C04606480749091A8B10C90FC91872
:1002C40010B5491003D0044B002B00D0984710BD43
:1002D40048F8002048F8002000000000054B10B545
:1002E400002B03D00449054800E000BFFFF7E2FFFC
:1002F40010BDC0460000000058120120F4C40020C4
:10030400A423082130B5FF24134A1448D1501449BA
:1003140002680B680D689B1AA343521BD218026033
:10032400104A1B02944612680F4853401B0C0F4D91
:100334001B0403602A684B6849689B1AA343521A3A
:10034400D2182A6062461B0212681B0C53401B041D
:100354001B0C036030BDC0460000054000050120B1
:10036400C4F0002048000540481005400405012061
:10037400F0B5502387B017256A460405240F1C43A3
:100384006D44AF3393750F00287006F08DFD002384
:10039400194A80185941002902DA012017494042BC
:1003A40000230290039100932A0021001448013392
:1003B40007F05EFF00281ADD06F076FD00230E4AE2
:1003C40080185941002902DA01200C4940420023D7
:1003D40016220290039100932100094801336A44D4
:1003E40007F066FF002802DD6B46987D02E00123DA
:1003F40000203B7007B0F0BD10270000FFFFFF7F17
:1004040090F10020F0B5DE464E4657464546E0B52D
:10041400564C6420A54406F01DFCF023544EF35CB6
:100424000C2B01D000F088FED0231B065A688023D1
:1004340010005B0318401A423ED00124012314AA81
:10044400C532FF320020138085A908F0EFF8002C94
:100454003AD0DC2714AB9B46464BFF000993029627
:1004640001200021404208F055F940235A4600215A
:10047400002008F09DFE81465E46D9440028EFD056
:100484003D4B3E4C9846029D07E0511C29513C4986
:10049400AA1853540136B145E2D03378F02B1ED05C
:1004A400EA5D002A20D0F72B76D02A596F2AECD99E
:1004B40001234246AB54EDE7022314AAC532FF32AE
:1004C400138085A90AF0BAF90120002140420AF0FC
:1004D4006DFC0120002140420AF068FCF4E700238F
:1004E4002B510133EB53D5E7F72BD3D859B200295D
:1004F40001DA00F0CCFD234AA85C0F2201009143ED
:1005040000910100103201909143802902D0009A99
:10051400E02ABFD19522920094466046AA5C511C01
:10052400C9B229541848AA1813540129B2D900236E
:100534006246AB54154B0199EA5C0F230B4093427E
:10054400A8D1009B2A5C902B01D100F0A7FD802B41
:1005540001D100F0A7FD0E4BEB5CDB0113430D4A08
:100564009B1897229200AB5094E7C046D4F9FFFF42
:1005740070FA0020D4000120E1060000DC0600002F
:100584006C060000510200005202000062020000EA
:100594005302000000E0FFFF0023EB554346EB5CF1
:1005A400002B00D076E7FC4BEB58052B00D871E705
:1005B400FA49FB4A6958914200D06BE7CE22D20037
:1005C400AA5C332A00D065E7F64AAA5C9246033A4D
:1005D400012A01D800F07CFD5246013A012A00D9D3
:1005E40058E7672B00D055E7EF4B14AAEB5C423277
:1005F400129300231380FE22EC4B9201EB5CDB018F
:100604001340EB4AA95C7F220A4013438022520123
:10061400934201DB00F061FE9BB20B93E54BFE219C
:10062400EA5CFE23D2019B011A40E34B4903EB5CD5
:100634009B030B401343E14AA95C7F220A40134306
:10064400DF4A0193934201D900F044FE019B002B41
:1006540001D100F03BFEFE210B9A14AB40331A800B
:10066400019BD84A2593AA5C8901D2010A40D12171
:10067400C900685C7F2101400A43802149018A4204
:1006840001DB00F020FE93B2CF4A0C93A95CFE225A
:10069400FE209201C9011140CC4A4003AA5C920396
:1006A40002400A43CA491300685C7F2101400B439E
:1006B400C34903938B4201D900F002FE039B002B34
:1006C40001D100F0F9FD002114AB4A3319804831FF
:1006D40014AB5B180C991980039BBE492793685C83
:1006E400FE21C00189010840BB496B5C7F219C4607
:1006F40063461940014380204001814201DB00F040
:10070400D8FD8BB2D2210D93C900685CFE21FE2373
:100714008901C0010840B1495B03695C8903194040
:100724000143AF482B5C7F209C466346184001433D
:1007340008000491A249884201D900F0B7FD049B46
:10074400002B01D100F0AEFD002114AB523319800F
:10075400503114AB5B180D991980049BA14929935E
:10076400685CFE21C001890108409F496B5C7F21C0
:100774009C4663461940014380204001814201DBCD
:1007840000F08DFD8BB299490E93685CFE21FE2327
:100794008901C001084096495B03695C89031940DB
:1007A400014394482B5C7F209C46634618400143D8
:1007B400080005918249884201D900F06DFD059B2E
:1007C400002B01D100F064FD002114AB5A331980D1
:1007D400583114AB5B180E991980D321059BC900BD
:1007E4002B93685CFE21C0018901084082496B5C3F
:1007F4007F219C4663461940014380204001814289
:1008040001DB00F042FD8BB27C490F93685CFE2152
:10081400FE238901C001084079495B03695C8903AF
:100824001940014377482B5C7F209C46634618405F
:100834000143080006916249884201D900F022FD73
:10084400069B002B01D100F019FD002114AB62338B
:100854001980603114AB5B180F991980069B6A49A3
:100864002D93685CFE21C0018901084067496B5CD7
:100874007F219C4663461940014380204001814208
:1008840001DB00F0F8FC8BB261491093685CFE2137
:10089400C00189010840D421FE23C900695C5B03BF
:1008A4008903194001435B482B5C7F209C466346C7
:1008B40018400143080007914149884201D900F0DA
:1008C400D7FC079B002B01D100F0CEFC002114AB18
:1008D4006A331980683114AB5B1810991980079B2F
:1008E4004D492F93685CFE21C001890108404B49A2
:1008F4006B5C7F219C466346194001438020400184
:10090400814201DB00F079FC8BB245491193685CAC
:10091400FE21FE238901C001084042495B03695C52
:1009240089031940014340482B5C7F209C46634661
:1009340018400143080008912149884201D900F078
:1009440059FC089B002B01D100F050FC002114AB92
:1009540072331980703114AB5B1811991980089B9C
:1009640032493193685CFE21C00189010840304955
:100974006B5C7F219C466346194001438020400103
:10098400814201DB00F02FFC0A912A49FE23685CB6
:10099400FE21C00150E0C046DC0600006C060000E9
:1009A4007D43315A7106000072060000840600007F
:1009B4008306000086060000870600008506000006
:1009C40000EE0200890600008B0600008C06000081
:1009D4008A0600008E0600008D06000091060000C5
:1009E4008F060000930600009206000095060000A2
:1009F4009606000094060000970600009A06000080
:100A04009B060000990600009D0600009C0600005D
:100A14009F0600009E060000A2060000A10600003A
:100A2400A4060000A5060000A3060000A706000017
:100A3400A6060000A906000089010840F1495B03ED
:100A4400695C890319400143D520C0002B5C7F20D9
:100A54009C4663461840014308000091EA498842D5
:100A640000D9BEE3009B002B00D1B7E3002114ABF7
:100A74007A331980783114AB5B180A991980009B7A
:100A8400E2493393685CFE21C00189010840E049D2
:100A94006B5C7F219C4663461940014380204001E2
:100AA400814200DB98E3FE20FE231391D9494003E1
:100AB400695C9B0189030140D748285CC001184048
:100AC4000843D6496B5C7F219C4663461940014329
:100AD400CD48814200D97DE3002900D178E3002389
:100AE4009C4614AA4033D21842206346135202385B
:100AF40014AA1318139A3591C9491A52685CFE2135
:100B0400C00189010840D621C9006B5C7F219C4645
:100B140063461940014380204001814200DB55E3D4
:100B2400FE20FE231391BF494003695C9B018903A6
:100B34000140BD48285CC00118400843BB496B5CB8
:100B44007F219C46634619400143AF48814200D946
:100B54003AE3002900D135E300239C4614AA40332C
:100B6400D2184A206346135214AA4033D318139A56
:100B740037910238AE491A52685CFE21C0018901DE
:100B84000840AC496B5C7F219C4663461940014395
:100B940080204001814200DB12E3FE201391A6492C
:100BA4004003695CFE2389030140D720C000285C10
:100BB4009B01C00118400843A0496B5C7F219C46FF
:100BC4006346194001439048814200D9F6E2002966
:100BD40000D1F1E200239C4614AA4033D2185220DB
:100BE4006346135214AA4033D318139A3991023826
:100BF40093491A52685CFE21C00189010840914959
:100C04006B5C7F219C466346194001438020400170
:100C1400814200DBCEE2FE20FE2313918A49400389
:100C2400695C9B01890301408848285CC001184025
:100C3400084387496B5C7F219C4663461940014306
:100C44007148814200D9B3E2002900D1AEE2002309
:100C54009C4614AA4033D2185A2063463B91D821AB
:100C6400135214AA4033D318139A02381A52C900E3
:100C7400685CFE21C0018901084076496B5C7F21D4
:100C84009C4663461940014380204001814200DBB9
:100C94008AE2FE20FE2313916F494003695C9B01A5
:100CA400890301406D48285CC001184008436C4921
:100CB4006B5C7F219C466346194001435248814244
:100CC40000D96FE2002900D16AE200239C4614AAED
:100CD4004033D21862206346135214AA4033D31807
:100CE400139A3D9102385F491A52685CFE21C00193
:100CF400890108405C496B5C7F219C46634619402E
:100D0400014380204001814200DB47E2FE20139131
:100D140056498001695CFE23C9010140D920C00005
:100D2400285C5B0380031840084351496B5C7F21B6
:100D34009C466346194001433348814200D92BE263
:100D4400002900D126E200239C4614AA4033D2187D
:100D54006A206346135214AA4033D318139A3F915E
:100D6400023844491A52685CFE21C00189010840D6
:100D740041496B5C7F219C466346194001438020B6
:100D84004001814200DB03E2FE20FE2313913B4934
:100D94008001695C5B03C90101403948285C800318
:100DA4001840084337496B5C7F219C4663461940D1
:100DB40001431548814200D9E8E1002900D1E3E16B
:100DC40000239C4614AA4033D2187220634613525F
:100DD40014AA4033D318139A419102382A491A525B
:100DE400685CFE21C0018901084028496B5C7F21B1
:100DF4009C4663461940014380204001814200DB48
:100E0400C0E145E0AA06000000EE0200AC060000C6
:100E1400AB060000AF060000AE060000AD06000001
:100E2400B1060000B4060000B3060000B2060000DC
:100E3400B6060000B5060000B9060000B7060000BB
:100E4400BB060000BA060000BE060000BD06000096
:100E5400BC060000BF060000C3060000C206000076
:100E6400C1060000C5060000C4060000C706000055
:100E7400C6060000CA060000C9060000CC06000031
:100E8400CD060000CB060000CF060000CE06000011
:100E9400FE20FE231391DA498001695C5B03C901DA
:100EA4000140D848285C800318400843DA21C9006F
:100EB4006B5C7F219C46634619400143D2488142C2
:100EC40000D95DE1002900D158E100239C4614AA11
:100ED4004033D2187A206346135214AA4033D318ED
:100EE400139A02381A520B9A0C9B4391111C9A4282
:100EF40000D241E10D9B88B2984200D23AE10E9BA8
:100F040088B2984200D233E10F9B88B2984200D253
:100F14002CE1109B88B2984200D225E1119B88B243
:100F2400984200D21EE10A9B0B4399B2002901D1D9
:100F3400FFF7B0FA039A019B9B18049A9B18059A31
:100F44009B18069A9B18079A9B18089A9B18009A54
:100F54009B18F0229200934201D2FFF79BFA0723D9
:100F6400129A24A91A409923D0019B0028180092B0
:100F7400C018802206F0B8FC009AA449AB185B188C
:100F8400012119701300D8220933FF32AB54EB232B
:100F940000225B00EA545346022B01D0FFF77AFA91
:100FA4009B4A002185A806F099FC9A4B85939A4B9D
:100FB400869300231A000999C95C002903D00121F2
:100FC40099400A43D2B20133082BF4D114ABCD3388
:100FD400FF331A70924680229049D20089A806F005
:100FE40083FC8F4A85A90B7814A85A4013049B18D4
:100FF4005B009B18DB009B18DB009B185B009A18B6
:10100400884B01311B188B42EDD103008221C5337B
:10101400FF33C9005A50844B7E4A1868904200D16D
:1010240072E1EFF3108A72B68021FF204901400378
:101034000CF074F80023009385AB013B04930195F5
:101044008022FF21520044A806F048FC009A774908
:10105400049D891AAD180222FF3201239446039697
:1010640007E0EA5C14AEBF36F2540133634500D1A5
:1010740036E19942F5D180226D48520044A9039E7D
:10108400019D0CF093F88AF31088FFF703FA69497D
:101094006B5495239B00EA54FFF7FCF9664BEB5C19
:1010A400002B4CD196239B00EB5C934201D0FFF7BD
:1010B400F1F9D823FF33EB5C002B4DD0EB235B001D
:1010C400EB5C002B48D001225C4BEA54FFF7E2F9B9
:1010D4000B2B01D0FFF7DEF9FE22594B9201EB5C9A
:1010E400DB011340574AA95C7F220A401343802244
:1010F400520193422EDA0F21FE20534A8001AA5C4A
:101104001140524AAA5CD201024051489246285CDE
:1011140084467F20624610405246024380204001AC
:10112400824215DA832080002A5084229200AB5038
:10113400484BE954FFF7AEF90224FFF77FF946491B
:101144006A54464AAB540122454BEA54FFF7A2F9CC
:10115400444AE7E7434BCEE7982300229B00EA5436
:10116400FFF798F9191CDEE6191CD7E6191CD0E61E
:10117400191CC9E6191CC2E6191CBBE60131A4E618
:101184000100A2E6374983E6013119E6010017E6BA
:101194003449F9E50131D6E50100D4E53149B5E535
:1011A400013192E5010090E52E4972E501314EE5E9
:1011B40001004CE52B492EE501310BE5010009E561
:1011C4002849EAE40131C7E40100C5E42549A7E45C
:1011D400013184E4010082E4224964E40133009390
:1011E40044E4009142E41F49FFF7CEFB0133089326
:1011F400FFF7ACFB0891FFF7A9FB1A49FFF784FB43
:10120400D1060000D206000000EE020064060000D1
:10121400140400004E45314301001404D4FC0020A2
:10122400C59D1C81D405000000E01F1015040000BA
:1012340000E41F005102000053020000610200009C
:1012440075060000740600007606000073060000B0
:1012540072060000620200005502000056020000FF
:1012640057020000FF0F000001330793FFF72EFB26
:101274000791FFF72BFB3B49FFF705FB013306936F
:10128400FFF7E3FA0691FFF7E0FA3649FFF7BBFAF6
:1012940001330593FFF798FA0591FFF795FA314961
:1012A400FFF770FA01330493FFF74EFA0491FFF746
:1012B4004BFA2C49FFF725FA01330393FFF703FA9E
:1012C4000391FFF700FA274AFFF7DDF90133019391
:1012D400FFF7C1F90192FFF7BEF9224BFFF79CF922
:1012E400FF238022009D5B03E818520044A9039E5B
:1012F4000BF05CFFA0230135FF350095DB009D4218
:1013040000D09DE6019DBEE69A88012A00D088E6B9
:10131400154AD888904200D083E614485958844628
:10132400134A1878013342406046424311488342CD
:10133400F7D1914200D074E60F4B1B7A534500D08D
:101344006FE602000D4B04E00133934201D1FFF735
:10135400A1F80B4814A90918C85C19788842F3D07D
:101364005FE6C046FF0F0000140400009301000173
:10137400C59D1C8110E41F1000E01F1010E01F1019
:10138400C421E0EF10B5024B18680BF09DFA10BDB4
:10139400D804012070B5D02501220021072004F0D3
:1013A40067FD01220021062004F062FD01220021D4
:1013B40005202D0604F05CFD0120002105F0D4FB7E
:1013C4006A686C686B6864069B06E40FDB0F1B019C
:1013D400A4001C431306DB0F0022012107201C4339
:1013E40004F046FD00220121062004F041FD002204
:1013F4000121052004F03CFD0120002105F0B4FB8F
:1014040069686A6809066B68C90F52064900D20FF9
:101414009B060C43D200DB0F5B0100210720144321
:1014240001221C4304F024FD01220021062004F0C3
:101434001FFD64B201220021052004F019FD2A2CAD
:1014440005D0302C03D0FF200C2C00D070BDE0B2AE
:10145400FCE7C046F0B54E46DE4657464546E0B585
:10146400431824331B7885B0994601900291002BD0
:1014740000D129E280468B0003935B181B0198443A
:1014840044462C20205606F021F9DB4906F0E7F803
:101494004546041CA86A06F019F9211C051C201CE9
:1014A40006F0DDF8211C061C281C06F0D8F84A4674
:1014B400071C012A00D1A1E142463420105606F04F
:1014C40005F9CD4906F0CBF842468246106B06F08A
:1014D400FDF851468346201C06F0AAF85946041C20
:1014E400281C06F0A5F85146051C504606F0B7F82E
:1014F400011C301C06F09CF85146061C584606F0A8
:10150400AEF8011C381C06F093F84A46071C022A60
:1015140000D173E142463C20105606F0D7F8B64994
:1015240006F09DF842468246906B06F0CFF851468D
:101534008346201C06F07CF85946041C281C06F03F
:1015440077F85146051C504606F089F8011C301CFA
:1015540006F06EF85146061C584606F080F8011C49
:10156400381C06F065F84A46071C032A00D145E1F9
:1015740042464420105606F0A9F89F4906F06FF839
:1015840042468246106C06F0A1F851468346201C60
:1015940006F04EF85946041C281C06F049F851463A
:1015A400051C504606F05BF8011C301C06F040F8A0
:1015B4005946061C504606F052F8011C381C06F029
:1015C40037F84A46071C042A00D117E142464C204A
:1015D400105606F07BF8884906F041F842468246E8
:1015E400906C06F073F851468346201C06F020F8F0
:1015F4005946041C281C06F01BF85146051C50468D
:1016040006F02DF8011C301C06F012F85946061C91
:10161400504606F024F8011C381C06F009F84A4626
:10162400071C052A00D1E9E054234246D05606F0AF
:101634004DF8714906F013F842468246106D06F0E3
:1016440045F851468346201C05F0F2FF5946041C18
:10165400281C05F0EDFF5146051C504605F0FFFF20
:10166400011C301C05F0E4FF5946061C504605F0E9
:10167400F6FF011C381C05F0DBFF4A46071C062A4E
:1016840000D1BBE042465C20105606F01FF85A49D0
:1016940005F0E5FF42468246906D06F017F8514684
:1016A4008346201C05F0C4FF5946041C281C05F081
:1016B400BFFF5146051C504605F0D1FF011C301CEC
:1016C40005F0B6FF5946061C504605F0C8FF011C3C
:1016D400381C05F0ADFF4A46071C072A00D18DE0EF
:1016E40042466420105605F0F1FF434905F0B7FF68
:1016F40042468246106E05F0E9FF51468346201C9F
:1017040005F096FF5946041C281C05F091FF51462C
:10171400051C504605F0A3FF011C301C05F088FF92
:101724005946061C504605F09AFF011C381C05F06A
:101734007FFF4A46071C082A60D042466C20105698
:1017440005F0C4FF2C4905F08AFF42468246906E9C
:1017540005F0BCFF51468046201C05F069FF414658
:10176400041C281C05F064FF5146051C504605F076
:1017740076FF011C301C05F05BFF4146061C5046F9
:1017840005F06DFF011C381C05F052FF4A46071C8A
:10179400092A33D0019A02989046039B1B181B0117
:1017A400984443467420185605F090FF124905F0FA
:1017B40056FF43468246186F05F088FF514680461F
:1017C400201C05F035FF4146041C281C05F030FFA1
:1017D4005146051C504605F042FF011C301C05F023
:1017E40027FF4146061C504605F039FF011C381CF2
:1017F40005F01EFF071C01E0CDCCCC3D484605F0AA
:1018040065FF311C804605F02AFF211C061C201CA4
:1018140005F025FF011C301C05F007FF0021061C04
:1018240005F04CFF002841D1391C404605F017FF54
:10183400211C071C281C05F012FF011C381C05F094
:10184400F4FE311C05F0F7FE211C061C05F007FF11
:10185400011C281C05F0E9FE414605F0ECFE1C497C
:10186400041C301C05F0FBFEFC21890505F0E0FE9C
:1018740005F04EFFFC2181468905201C05F0D8FEA9
:1018840005F046FF029B019A1B01D3181A00C832C7
:10189400166054604946D02299500432985005B0DD
:1018A400F0BCBB46B246A946A046F0BD4146281C42
:1018B40005F0C1FEFC218905041C05F0B9FE05F004
:1018C40027FF00239946DDE700200026014CD9E7D5
:1018D400ABAAAA3F0000C07FF0B5454657464E4626
:1018E400DE460300E0B52433A1B0020005930323D0
:1018F4002832140000259846EC27CA4E0690079219
:101904004246059B29005A5500232373C64B277171
:10191400A36014232375C54B266023610698FFF743
:1019240099FD6B1C50340125022BE9D1133304AA11
:1019340099180020FEF71CFD152304AA9918040227
:101944000120FEF715FDBA4B04439C4200D060E130
:10195400162304AA9B189A4617239B189846B54B3E
:1019640000249B46FF2300279946B34E0AAD1BE093
:1019740005F09AFA80197941002902DA0120AF4969
:10198400404200230290039100935246502158464E
:10199400013306F08DFC002820DD53461B7801340A
:1019A4002B700135582C1FD053464A461A704346B3
:1019B4001C7005F079FA80197941002902DA0120B6
:1019C4009E494042002302900391009342465021D5
:1019D4005846013306F04CFC0028C9DC00230134CE
:1019E4002B700135582CDFD10AA8954B95495630F8
:1019F4000AAA20E05B001CB2002C27DB5C0023B2A7
:101A0400002B28DB640023B2002B29DB640023B203
:101A1400002B2ADB640023B2002B2BDB640023B2EF
:101A2400002B2CDB640023B2002B2DDB630001327E
:101A34009BB290422ED01478240263401CB2002C36
:101A4400D8DA64004C4024B2231ED7DA64004C4038
:101A540023B21C1ED6DA5B004B401BB21C1ED5DA27
:101A64005B004B401BB21C1ED4DA5B004B401BB224
:101A74001C1ED3DA5B004B401BB21C1ED2DA5B0087
:101A84004B401BB21C1ED1DA5B004B4001329BB2AF
:101A94009042D0D1562204A918318A5A52BA92B22D
:101AA4009A4200D0B5E000262427079DB0460BAC2F
:101AB40013AE41462378059A5354002B00D199E084
:101AC400A278E178120609040A4361790A4321796C
:101AD40009020A4361782A602971012B00D189E047
:101AE400E279217A120609040A43A17A0A43617A47
:101AF40009020A43A179AA602973022B7AD0227BB6
:101B0400617B120609040A43E17B0A43A17B0902B3
:101B14000A43E17A2A612975032B6BD0627CA17C8C
:101B2400120609040A43217D0A43E17C09020A439F
:101B3400217CAA612977042B5CD0A27DE17D120669
:101B440009040A43617E0A43217E09020A43617D36
:101B5400E9552A62052B4DD0E27E217F1206090445
:101B64000A43A17FA07E0A43617F09020A432C2114
:101B74006854AA62062B3DD03278717812060904A3
:101B84000A43F178E07F0A43B17809020A43342119
:101B940068542A63072B2DD07279B179120609048F
:101BA4000A43317A30790A43F17909020A433C2124
:101BB4006854AA63082B1DD0B27AF17A120609047C
:101BC4000A43717B707A0A43317B09020A43442138
:101BD40068542A64092B0DD0F37B327C1B06120453
:101BE4001343B27CB17B1343727C120213434C2225
:101BF400A954AB6441460698FFF72CFC43460122E6
:101C04002934904650352936012B00D051E7002065
:101C140000E0012021B0F0BCBB46B246A946A04674
:101C2400F0BDC046344E050050FC030040A902003C
:101C3400D107000090F1002010270000FFFFFF7F74
:101C4400FFFF000021100000F8B5CE4647460025EE
:101C540080B50700EE4B1022036000210561C560CA
:101C6400856045600562C56185614561F83005F0B0
:101C740035FE842338005B00FD520D300233082208
:101C84000021FD52FF3005F029FE80238A221B012A
:101C94005200BB520232BB5238008C2300245B003A
:101CA4001D30FC540021FE3AFF3005F017FE3800C9
:101CB400353006220021FF3005F010FEB5235B000D
:101CC400FC543E230822FF33FC54D24B01261A60F5
:101CD400E022D14BD2011B681340D04A13609D23EC
:101CE4005B00FC54063BFC543623FF33FC540133A5
:101CF400FC543823FF33FC540133FC543A23FF33A0
:101D0400FC54C74BC74C98462378042199461800C5
:101D140004F096F84B460421581C04F091F84B4605
:101D24004A465B081F2A00D9AAE107221A409300F9
:101D34009B18BD49BD4A9B009A18591815600D603F
:101D4400BB4959180D60BB495B1841461960102303
:101D5400536016602378013359081F2B00DD8BE193
:101D640007220A4093009B18AF49B04A9B009A1877
:101D7400591815600D60AE4959180D60AD495B18CE
:101D84004146196010235360166023785A081F2BAC
:101D940000D938E1072111408A005218A449920061
:101DA4005118096840468C46310019404942414067
:101DB40060460140A0480133121811605A081F2BD5
:101DC40000DD1CE10721114040468A005218984961
:101DD40092005118334009685B4243400B409649D6
:101DE400023452181360954B9C428DD105F0AAFF22
:101DF4001F211B2004F024F8002200211B2004F0E2
:101E040037F800211B2004F045F81F211A2004F0A4
:101E140017F8002200211A2004F02AF800211A20C1
:101E240004F038F81F211C2004F00AF800220021D5
:101E34001C2004F01DF800211C2004F02BF81F21A5
:101E44001D2003F0FDFF002200211D2004F010F8E6
:101E540000211D2004F01EF8182004F02DF819208C
:101E640004F02AF8D024802324065B0463628023D0
:101E74009B046362082004F01FF880235B00636204
:101E84000920636104F018F880239B006362022038
:101E9400636104F011F804230022A36201210220EB
:101EA40003F0E6FF032004F007F80823644DA3625F
:101EB40000220121032003F0DBFF2800614905F023
:101EC4009DFF0222904641466B68122013405E4AF1
:101ED40011600F22296810255140C0320A405B4925
:101EE4000A605B4A0121136003F0AAFF0121132059
:101EF40003F0A6FF0121152003F0A2FF04211720FF
:101F040003F09EFF0421162003F09AFF0022474BA2
:101F14005049DA635A649A64D9641D64DE63DA63EF
:101F24005A649A64D9641D64DE63FA234A499B04A3
:101F34000A68072053401B0C484A1B041360FA2309
:101F440009689B004B401B041B0C136003F0B4FF97
:101F5400062003F0B1FF052003F0AEFF8023A36247
:101F6400403BA362203BA362142003F0A5FF0022A0
:101F74000021142003F07CFF042003F09DFF656220
:101F84003749A561374806F04BF90321102003F0C7
:101F940057FF0321112003F053FF002003F08CFFAF
:101FA4006662012003F088FF434638006362FFF74E
:101FB400F1F9F023F8543800FFF78EFC9F234640D4
:101FC40001205B003040F854563B9846B8444046E4
:101FD40005F020FE14264346234C244D03CB244A0B
:101FE400244B05F005FB013E00196941002EF6D192
:101FF400434603C33800C0BCB946B046F8BD03210C
:1020040011400831E0E6032111400831C4E6C0461E
:102014001CE0002000F0044000C0044000D0044054
:10202400FFFF0000E0E40020080005400000054038
:102034000C000540100005400C100540E6E40020AB
:1020440000C00340286BEE0004F0034000D00340BE
:1020540004E00340CF070000480005404810054055
:10206400A086010090F100204F8167F77E7B051464
:102074002D7F954C2DF4515803220A40083271E605
:1020840003221A40083252E6F0B54546DE4657466A
:102094004E461C00D823E0B58BB00291FF33C35CDD
:1020A400050090460393002B16D0EB235B00C25C23
:1020B400002A11D0039B082B00D8B0E0093BDBB207
:1020C400072B06D8C118CE48095C002901D000F0BE
:1020D400DCFDCC4B9A46A8E0E42300225B00EB58DD
:1020E4000492984480235B0198455CDBC64B984678
:1020F400B62302995B008946EA58474691444A460A
:10210400EA50159B002B55DC7F433B0B06934B4653
:102114009B0D5A000133BD4F9B055B0DBA5EF95E02
:102124004B469B02891A9B0D4B43E1009B129B1863
:10213400091B9A460B0B0905090D9B460B004B43E3
:102144001B0B5A00D2184B431B0B5B00D31A019391
:102154004B461E0DAE4B9C46B444634605934B461A
:10216400002B55DBAA4B7F2E01D800F0F6FB52461C
:10217400D21094464A465400A20D510001329205F1
:10218400520D795EBA5E0794A402521AA40D544308
:102194005A46A4126418062A01D900F0D5FC9D49B8
:1021A40092008A5897464346DB434246DB171A405F
:1021B40090469DE7D82280215200AB588900013314
:1021C400AB508B4200D387E0DA235B00EF58043333
:1021D400EE588022159B5201934200DB8A4B5B43ED
:1021E4001B0B9800C0184000C018142105F04AF9D0
:1021F40080234743BF1247445B019F4204DB824F65
:102204008011704381447FE7FB43DB171F40F7E7EE
:10221400059B7F2B01D800F090FD7F4BA7E7013B86
:102224007E49DBB29B005B589A46EA235B00EE5C76
:10223400D623FF33EB5C9946072E01D900F0F3FB5C
:10224400F30053445F68002F78D0DE2149006A58B8
:1022540001326A501988E6235B00EB580591C81ACD
:10226400504339000493019205F00CF9049B019A40
:10227400C018E2235B00E850974245D94B46072B30
:1022840001D900F041FD5346002240334946C900BC
:102294005B185968002900D10131E0277F00E85913
:1022A4000130E8511B88814200D8C2E3E822520081
:1022B400AF58DB1B584305F0E5F8E422C31952007C
:1022C400AB50E2225200A85880225201904200DA18
:1022D40047E34D4A049204E70023D6215048AB500B
:1022E4008446DA2049006A584E4B40005A436244FF
:1022F4005343170E6344803F2F501E0E6B50DC2354
:10230400803E5B00EE5064E7EA2205995200E950F2
:10231400731CDE20DBB2AB54002240002A50CD32C5
:10232400FF32A9504A46072A01D900F0E4FC083BD1
:102334005A425341DAB253464033A7E7013784E7A0
:102344000122059C0892019A1B1B53435246D44612
:102354001B1306991B199B1A4B431B139C44812383
:102364009B00EA58029813005343DB1243431B13A8
:10237400E246C118002A00DAC11AB8235B00EE58FD
:102384008E19EE50159B002B00DDF0E243465B43B3
:102394001B0B0593B30D5A0001339B055B0DBA5E0D
:1023A400F95EB302891A9B0D4B439B129B1802934F
:1023B400330D9946164B4B440693002E00DA0AE37C
:1023C4004B4613497F2B00D857E3029BDB109846FA
:1023D4007000830D5A0001339B055B0DBA5EFB5EF2
:1023E40084029B1AA40D5C435B46A4120790A418B4
:1023F400062B00D956E30C4A9B00D3589F46C0468F
:102404006406000060E00020FF0F0000E8E4002004
:1024140000F8FFFF68DF0020FF070000F4DF002062
:102424005FF36E3C0D66190084DF00204B46B84A0A
:10243400D21A079B9B195B00980D4100013080055F
:10244400400D795E385E9B02401A9B0D43439B12FC
:102454005B1853431B1398460699AE4B4A435213D9
:102464009044984500DA984680231B01984501DB87
:10247400A94B98464B467F2B01D800F0F6FB8023EE
:102484001B01994501D200F0F0FB4A46A04B5100D4
:102494009B1AA24A5B00521AB400A419A00D410071
:1024A40001308005400D795E385EA402401AA40D07
:1024B4004443A41264185C43534324139B13E41849
:1024C400944B9C4200DA1C0080231B019C4200DBDD
:1024D400914C4346019AE31A5343029A1B130599FC
:1024E40043449B1A4B431B139B1882221C008021DC
:1024F4009200AA580901544324138A4200DA0A00BC
:10250400534352461B135343824A9B12934200DAAD
:10251400130080221201934200DB7F4B5146149A30
:1025240014981201121A12025B1A121353431B134A
:102534005E18039B002B00D156E2BA225200AB581E
:10254400002B00D14EE2013B1803AB50C01A6021AE
:1025540004F0C0FF6E4B181A049B6E4A58430013D4
:10256400444370430313934200DA130080221201A0
:10257400934200DB684BF222AB52664B24139C421D
:1025840000DA1C0080231B019C4200DB624CF42314
:10259400EC520BB0F0BCBB46B246A946A046F0BD17
:1025A4000322230008926446CDE64B467F2B00D8D5
:1025B400BFE3069B7F2B00D8CDE3029B8846DC104B
:1025C40087E74B467F2B00D8A9E3069B7F2B00D8D7
:1025D400CAE3089B062B00D9D3E3514A9B00D35886
:1025E4009F464B465A0080231B01994500D320E3A4
:1025F400484B9C469444B3009B199C0D60000134E5
:10260400A405640D385E3C5F9B02241A9B0D634352
:102614009B121B18534361461B1398464A433D4B78
:1026240092139044984500DA984680231B019845FC
:1026340001DB394B9846F3009E1BB20D94465100C2
:10264400785E990D4C0001318905490D3C5F795E36
:10265400624601329B0292059B0D091B520D5943A0
:10266400BA5EB302121A9B0D5343891209199B12C5
:102674001B184910CE184B4676107F2B00D853E216
:10268400C0239B00994500D24EE2C0231B0199450B
:1026940000D214E34B461803181A224B2249C018DF
:1026A40004F0F0FE041147E2902109018E4200D3A8
:1026B40048E33003801B04F0E5FE154B164C181A52
:1026C40040430013241A079A114B4A445200900DB8
:1026D400410001308005400D9B1B795E385E9202FB
:1026E400401A920D42439212521805995A434B4391
:1026F40012135B13D318074A934200DA13008022A3
:102704001201934200DB044B052208921BE6C046EB
:10271400FF0F000000F8FFFFFF070000FF17000095
:10272400A0DF002001E0FF00FF030000079BD44866
:102734004B445B00990D4A0001318905490DBA5E8D
:10274400795E9B02891A9B0D4B43059C9B12801B4F
:102754009B18434344431B1364131C19C94B9C42E9
:1027640000DA1C0080231B019C4200DBC64C802342
:1027740072001B019E4200D257E2C4498B1A9C4648
:1027840042004B469B004B449E0D70000136B6053B
:10279400760D385EBE5F61469B02361A9B0D73430D
:1027A4009B121B1853434A431B1392139B18B54A9D
:1027B400934200DA130080221201934200DBB24BF1
:1027C40006220892BFE5902109018E4200D217E249
:1027D40004230893AB4BB6E57F2E00D899E2059A03
:1027E4001C007F2A00D8BAE253460222DB1008926A
:1027F400A9E590210901894500D3A9E24B461803B4
:10280400C01A04F03FFE9E4B181A40439E4B00131F
:102814001B1A98464A469A4B9B1A079A94196400C5
:10282400A10D4A0001318905490DBA5E795EA40201
:10283400891AA40D4C43A412A418069A5C4353436A
:1028440024135B13E4188F4B9C4200DB3CE63AE60E
:102854004B467F2B04D990231B01994500D373E287
:102864004B4690211803C01A090104F00BFE844B57
:10287400A046181A4043844C0013241A29E68023E6
:1028840072001B019E4200D3C8E17E4BD31807930C
:102894004B469B004B449C0D60000134A405640D21
:1028A400385E3C5F241AA4469C026346A40D5C4334
:1028B400079BA412241854435A4324139213714BB4
:1028C400A4189C4200DA1C0080231B019C4200DBFC
:1028D4006D4C4B464A46DB009A1A910D480008920B
:1028E400385E07918446980D4200BA5E01309146E5
:1028F4008005400D385E4A4607999B0201318905DF
:102904009B0D801A490D5843795E6346C91A089B8A
:1029140080129B029B0D4B4348449B12634440101E
:10292400C018431099467F2E00D851E1059B7F2B98
:1029340000D8C7E1C0239B009E4200D248E1C023D7
:102944001B019E4200D2BDE1514B3003301A514964
:10295400C01804F097FD021141E14B4A9446FFF779
:1029640009FCC243D21710400490FFF7BAFBD822E7
:1029740080215200AB5889000133AB508B4236D2D0
:10298400DA235B00EB589946DC235B00EC58802388
:1029940015985B01984200DB39484043000B8300E3
:1029A4001B185B001818142104F06CFD4B464343BC
:1029B4009B12984480235B01984505DB304B984675
:1029C400801144433619E1E44346DB434246DB17B6
:1029D4001A409046F4E72C497F2B00D9F5E4294BA3
:1029E4009846F5E42648B7E5254B0493A5E500236E
:1029F4008020AB50D622284940428C468146520062
:102A0400AB58264C63436344190E8944DA21484683
:102A14005C43DC23644449006850AC50240E803C81
:102A24005B00EC50B3E7072B17D853464033FFF74E
:102A34002DFCE42149006B504946D6200131FF307A
:102A4400C9B229540020E851D130FF302B50002A5C
:102A540000D136E4082900D033E4EB2200235200ED
:102A6400AB540F4AAA5C002A00D004E1C533FF33FB
:102A7400E8580433EB58FFF727FC034B9846A7E4C8
:102A8400FF0F000000F8FFFFFF070000FF17000022
:102A940001E0FF00FF0300005FF36E3C0D661900C8
:102AA40061020000C0218900894500D3D2E04B4671
:102AB4001803C01A04F0E6FC834603110693F300DE
:102AC4009E1BB20D5100795E01328C46990D4C006B
:102AD40001318905490D3C5F795E9B029205091B12
:102AE4009B0D520D4B43BA5E61465846B602521ACC
:102AF400B60D56439B121B19B6125B1066449E1901
:102B04007610704300138046069B9844D44B984536
:102B140000DA984680231B01984501DBD14B984687
:102B24004B467F2B00D9ABE54B46C0211803C01A96
:102B3400890004F0A7FC04117043C94B0013041965
:102B44009C4200DBC0E4BEE4C02189008E4278D2FE
:102B54003003801B04F096FC0311089009934B4644
:102B64004A46DB009A1A910D480007923C5E980D84
:102B740089464200BA5E0130944649468005400DBC
:102B8400385E624601318905490D801A795E079ADB
:102B94009B029B0D9202091B4343920D4A439B12D5
:102BA4006344921212195B10089C9B185B105C43DF
:102BB4009946099B2413E418A94B9C4200DA1C0093
:102BC40080231B019C4200DBA64C7F2E00D9ADE67E
:102BD400C0213003801B890004F054FC02114B46D1
:102BE400584303139B189E4A934200DA1300802231
:102BF4001201934200DB9B4B07220892FFF7A3FBD1
:102C04003003801B04F03EFC0422974B0892181AF0
:102C14004043944B00131B1AFFF795FB924B9349C7
:102C24009B1B8A1A07925A0032E68D4B9C469444A9
:102C3400A7E549468C4B5B1A8C498A1A94465A007C
:102C4400D9E4C0231B019E422ED2FF230993864B55
:102C5400089384E7C0231B0199451ED2FF230693E2
:102C6400814B9B462BE7069B98464B467C4A5B0070
:102C74009A18FFF711FC98229200AB54E2235B00F0
:102C8400E8580433EB58FFF71FFB9921DB01890057
:102C94005B18EB189A46FFF7C8FA4B461803181A44
:102CA400734B7449C01805E7714B3003301AC018D0
:102CB400704904F0E7FB0311089009934FE7FF24E0
:102CC400694839E7FF22684889E7664C069B9846BD
:102CD400FFF7FFFB069B0C009846FFF7FAFB069BE9
:102CE400984697E5069CB6E5069B9846FFF7C7FB12
:102CF400029BDC10EAE7082B00D1AEE6E4235B007C
:102D04000800EB58FFF7E0FAE4235B00EB58FFF709
:102D1400DBFA1C0002230893524BFFF714FB089BB9
:102D2400062B00D979E0544A9B00D3589F46069C51
:102D340096E588464B4CFFF7CCFB494A494B9446F1
:102D4400FFF718FA464CBEE4A046454CFFF7C1FB1A
:102D5400434B98465EE58846414CFFF7BAFB022395
:102D640008933F4BFFF7EFFA089B062B2ED8434AF4
:102D74009B00D3589F46069B9846FFF786FB384C2A
:102D8400A4E707227243910D4B00FB5E9C46F300BF
:102D9400980D440001308005400D3C5F385E9B0275
:102DA400001B9B0D43439E124B1C9B055B0DF95E60
:102DB4006346C91A93029B0D4B4336199B12634415
:102DC4007610F618069B7610984659E4072272434B
:102DD400910D4B00FB5E9C46F300980D44000130BE
:102DE4008005400D3C5F385E9B02001B9B0D4343F6
:102DF4009E124B1C9B055B0DF95E6346C91A930238
:102E04009B0D4B4336199B1263447610F618069BB0
:102E1400FF249846144876108EE607227243910DDB
:102E24004B00FB5E01319C46F300980D44000130D9
:102E340040003C5F385E9B02001B9B0D43434900EE
:102E44009E12795E6346C91A93029B0D4B43361951
:102E54009B1263447610F618069B7610984663E638
:102E640000F8FFFFFF070000FF0F0000FF1700003E
:102E740001E0FF00FF030000BCDF0020D8DF0020DA
:102E8400F0B53F4BC9B000933E4BD8220193812348
:102E94009B00C6580433C358FF3203939C46002357
:102EA4001900029604930593855CD03AFF3AAA422E
:102EB40059416C464A4269461540334A2576637641
:102EC4006383079307A80B7801315A4013049B18B6
:102ED4005B009B18DB009B18DB009B185B009A18B7
:102EE4008842F0D12949E261254B0A689A421BD0F5
:102EF400E022FF2110A804F0F1FC2022210008A800
:102F040004F0F2FCEFF3108472B6802120484901EA
:102F14000AF004F980221E48520008A90AF046F972
:102F240084F3108849B0F0BD8B88022BE0D1CB88A4
:102F3400202BDDD1CB69144A1F0016480B780131D0
:102F44005A4013049B185B009B18DB009B18DB00A2
:102F54009B185B009A188142F0D19742C8D10B4B61
:102F64009A689642C4D1DA689445C1D11A69002A94
:102F7400BED15A69002ABBD11B7EAB42B8D1D1E77E
:102F8400335A314302002000C59D1C8100F01F10FC
:102F940000F01F001CF01F10F0B5DE4657464E46E9
:102FA4004546E0B55B4B0400C25C8BB0002A12D0EE
:102FB4000021C154584BC25C0333C254574BC25C0A
:102FC400574BC25401220733C252D823FF33C35C88
:102FD400002B00D007E38A235B00E05A083BE35848
:102FE400F0211BB29B4688235B00E35849001BB2C7
:102FF40007933C23FF33E35C00B20393F823E758C1
:103004000433E2580433E65851330492FF33E25C4C
:10301400635C002B1FD1D933FF339846414DE358ED
:10302400AB4216D84146013363503F498B4212D913
:10303400039B002B00D1F0E2E223FF33E35C002B7F
:1030440000D0F1E2394BE15C002913D10131E154A4
:1030540010E001236354E223FF33E55C002D00D02C
:10306400E2E2324BE15C002968D0039B002B01D1E2
:1030740001F024F901232E496354022A01D100F0FE
:103084004BFF03998A4200D094E394239B00E154BC
:10309400183BE35C002B01D101F06CF9F4235B00D5
:1030A400E750244AA35C002B01D000F00EFFED335F
:1030B400FF33E1582C33049DE358EB1ADD175B19F9
:1030C4006B403F2B08DD049D6B1ADD175B196B40C9
:1030D400602B01DC00F0F7FE04911749635C002BC0
:1030E40014D1F133FF33E2582C33E358F31ADD17CC
:1030F4005B196B403F2B00DC9CE3B31ADD175B19B3
:103104006B40602B00DD95E301236354F8235B00DF
:10311400E6503BE057020000550200005602000052
:10312400590200009F8C0000DF2E00004E020000B8
:103134004F020000390200003A0200000131E1545C
:103144000399002996D10022E54BE1520233E2545F
:10315400143B049AE7500433E2500433E65010332E
:10316400E1500833E152942300229B00E254DD4BEA
:10317400E35C002B01D001F029F8E933FF33E75871
:103184000433E3580493F8235B00E6581C33E358F4
:10319400994684239B00E3589A4656210003FF3145
:1031A40004F070F998239B00E35C0500002B01D028
:1031B40000F001FC80235B019F4201DA00F0EAFB8E
:1031C400C94B9800C018C849000304F05BF94519BD
:1031D400E023DB019D4200DD1D00C44B9D4200DA6B
:1031E4001D00EB171A05120D1B0D5219ED182D05B4
:1031F40012132D0D0892ED1A04D58023013A5B01B8
:10320400ED1808926B005B199F120C21380380465D
:1032140004F038F9B64ABB009B582D1A0993802351
:10322400069040465B01C0180C21059204F02AF96F
:103234000699411AE80304F025F9059A7B1C9B00C2
:103244009A58099B0021D21A5043C013C018A94AA6
:10325400002304F0CDF9089B4904C50B4D19002B3C
:1032640000DABBE39D4080239B00E358002B05D08C
:10327400EA1A551201D101F05DF95D1980239B0012
:10328400E5505B465F00049BFF1880235B019F426F
:1032940000DAE9E2944F079B5B009E1980235B01EF
:1032A4009E4200DADCE2904E80235B01994500DA0D
:1032B400D0E28D4B9B4680235B019A4500DAC3E242
:1032C400894B9A46FC235B00E258D3009B1A5B00AF
:1032D4001B130233102B00D91023D0225200A35009
:1032E400983AA25C002A00D13DE385225200A25CF8
:1032F400D1B2002A00D036E3A532FF32A150012119
:10330400FA2299405200A0584A1E04927A4A82181E
:1033140002D580221201121ABC2040002058D2107B
:1033240084460120614608408146D6204000215849
:103334007248484372494018FF2A08DCD243D2B28B
:10334400010E8A4203D9012261468A439146D6225C
:103354005200A05048460200013B9A4063465B0875
:103364001A43BC2304995B000A40E2503033E05412
:10337400AA209307DB0FFF302354CC2300205B00EB
:10338400E0501003801A04F0A5F880225A4B9200F2
:10339400C01843001B189B021B13981880231B01A1
:1033A400984200DB5748C023BE225B00E050520025
:1033B400A1580B015B1A1B181B11A3500832A35010
:1033C4000123CE225200A3504B46002B04D1AA2342
:1033D400FF33E35C002B0CD0CC225200A358013302
:1033E400A3509622D200934203D9D42300225B0037
:1033F400E2520A23FF33E35C002B0CD00C23FF338F
:10340400E35CDAB2002B06D1D823FF33E35C002B54
:1034140001D000F094FF534601935B463A00290023
:10342400009320003300FEF72FFEC02380215B00B1
:10343400E2580901131C12B28A4200DB314B2E4AB6
:103444001BB2934200DA13002E482F49C31A5A01C3
:10345400D21A9200D3180B60C22380255B00E25875
:103464002D01131C12B2AA4200DB031C224A1BB218
:10347400934200DA1300234AD21A53019B1A9B0089
:103484009B184B60D4235B00E35C002B00D08CE2E0
:10349400D02380221B0652005A61AA23FF33E35C27
:1034A400002B00D07BE2D02380221B0692005A61BD
:1034B400164B7F4398461B683F125F404346764352
:1034C40013493F043F0C0F60186833121B04434038
:1034D4001B0C1B040B6082239B00E35A1AE0C046BA
:1034E4003E0200004F020000FF0F000000E0FFFF5B
:1034F4002CE00020314D590000F8FFFF0D66190043
:103504005FF36E3CFF070000C4F00020700005402C
:1035140070100540D64E5B4330681B021B0C4340C1
:10352400D44D1B041B0C2B6083239B00E35A30688F
:103534005B431B121B0443401B0C1B042B608423A2
:103544009B00E35ACC485B4307681B021B0C7B407F
:103554001B04CA4F1B0C3B60039B002B00D1AFE143
:1035640003681B0C1B043B6000231A0091239B007F
:10357400E2500833E252043B9C46E358002B2BD024
:103584006246013BA350DB04BD4CDB0FBD4A013B4B
:1035940023409B1842465B4314681B125C4024047E
:1035A400240C0C6012681C046240120C12040A60A1
:1035B40032685A401204120C2A6032686240120CBB
:1035C40012042A60026853401B041B0C3B6003680E
:1035D40063401B0C1B043B600BB0F0BCBB46B24603
:1035E400A946A046F0BDB6235B00C1500433C150C8
:1035F4005F320433C25001224833C1500833C150F2
:103604000833C1500833C152143BC1500833C15070
:103614000833C1500633C254DDE4E2230121FF33F1
:10362400E15403990133E1540023F221635202313E
:103634006352954B954919605960D02380211B062C
:103644004900596149185961914BE05C914BE55C23
:10365400914BE65C914BE35C9C46CD23DB00E15C43
:103664008F4B8946E35C04938E4BE35C05938E4B4E
:10367400E35C06932B18F31863445B1804995B18F6
:1036840005995B1806995B1819009846802309313F
:10369400C9B25B019F4200DB9AE0FB43DB173B406E
:1036A4004B431B0BDFB28F4200D298E047460837EA
:1036B400FFB2082F01D100F00FFF3B00093BDBB242
:1036C400002805D0002B01D100F013FF0A3FFBB204
:1036D400002D05D0002B01D100F00EFF013BDBB221
:1036E400002E05D0002B01D100F014FF013BDBB20A
:1036F4006146002905D0002B01D100F07DFE013B7D
:10370400DBB24946002905D0002B01D100F078FE38
:10371400013BDBB20499002905D0002B01D100F054
:1037240003FF013BDBB20599002905D0002B01D131
:1037340000F0FDFE013BDBB20699002901D100F047
:1037440087FC002B01D000F083FC10210820D82333
:10375400FF33E154554B1B6855491B041B0C0B608C
:103764000021524B1B684B401B0C51491B040B603E
:103774000423034059424B414E495B423C480B40B1
:103784004D495B1801684B401B043A491B0C0B6004
:10379400036839481B0C1B040B60036837491B047E
:1037A4001B0C0B600068454B43401B0C1B040B6057
:1037B40000F079FC012900D02CE1012A01D000F0AD
:1037C400F2FD0A0094239B00E254183BE35C61E49D
:1037D4002C4B4B431B0BDFB28F4200D366E7082F01
:1037E40000D96AE7D8210120FF316754010019404C
:1037F400184200D030492D480068414009042C4843
:10380400090C0160022001001940184200D02A4925
:103814002648090400684140090C25480904016050
:10382400042108001840194201D100F021FC22486B
:1038340000F01EFC83239B00E35816009946842362
:103844009B00E3589A46A8E45246D343DB171A4038
:10385400924637E54A46D343DB171A4093462AE596
:10386400F343DB171E401FE5FB43DB171F4012E544
:1038740084000540841005409800054098100540D8
:1038840001F0FFFFFF0F0000C4F0002083E70300F6
:103894006406000065060000660600006706000076
:1038A400690600006A0600006B060000700005400F
:1038B400701005402000FFFFE0FF00000000E0FF63
:1038C4000268484B53401B0C1B043B6093239B0032
:1038D400E55C002D0CD091229200A35842498B4202
:1038E40000D83BE3414EA35D002B01D100F0A0FDC5
:1038F40092239B00E358002B00D16DE6013BDD04CD
:10390400ED0F92229200A3506B425D41384A6B4204
:103914001340384A38499B185B430A681B125A40C3
:1039240036481204120C026009681A045140090C4A
:10393400334C090401602168324859400904090CD8
:10394400016021685140090C090401602E48016896
:103954004B401B042D491B0C0B6003685A40120C8E
:1039640012040A6038E6D22149006258284882428B
:1039740000D9B0E201326250D422CE235200A25CBC
:103984005B0091469622E358D200934200D31BE594
:10399400013316E5FB43DB173B40FFF712FCD02352
:1039A40080221B0692009A6182E5D02380221B06A6
:1039B40052009A6171E596239B00E05C0C21243847
:1039C400000303F05FFD97239B0007000C21E058E0
:1039D40003F058FD38184519FFF7FAFB5B42DD4048
:1039E40041E4C0460000E0FFFFDB05004D0200009B
:1039F40001F0FFFFFF0F000070000540701005404C
:103A04008400054084100540980005409810054046
:103A1400FF760100022900D0D3E60023E44A04988B
:103A2400A3540132A3521C3AA7500432A0500432CA
:103A3400A6502832A15400210C3AA3500832A352B4
:103A4400FC235B00E2582C33E358049DEB1AD8178F
:103A54001B1843403F2B01DD00F0B7FC002900D1C7
:103A6400C4E2FE2331005B00E650D3009B1A5B00E6
:103A74001B130233102B00D91023D0225200A35061
:103A8400983AA25C002A00D1EAE185225200A25CA5
:103A9400D0B2002A00D0E3E1A532FF32A0500121C8
:103AA400FA2299405200A058C24A0139821802D51C
:103AB40080221201121ABC20400027587838FF389F
:103AC40006008446AC30FF302558BB48D21068430A
:103AD400BA4D3E404019FF2A06DCD543EDB2020E32
:103AE400954201D96646BE43D6225200A050320008
:103AF400013B9A401300BC22AA207F083B430B40A1
:103B04005200A3503032A6549A07D20FFF302254E9
:103B1400CC2200205200A0501803C01A03F0DAFC93
:103B2400A44BC018802345002D18AD029B002D1313
:103B3400ED1880231B019D4200DBA14DC0235B00D7
:103B4400E550043BE2581001801A40190011E0507E
:103B54000833E050002E01D100F08CFCD823FF3351
:103B6400E35C002B01D100F0ACFCDE220023520008
:103B7400A3500832A3500832A3500832A352143A77
:103B8400A3500832A3500832A35001330632A35481
:103B94003A3AA350CC225200A3580133A3509622A0
:103BA400D200934203D9D42300225B00E252802244
:103BB40029B22B1C1201914200DB814B7D4A1BB2BE
:103BC400934200DA13007E4E7E49F31A5A01D21A48
:103BD4009200D31880220B60031C00B212019042A1
:103BE40000DB331C734A1BB2934200DA1300744A9D
:103BF400D21A53019B1A9B009B184B60F42380221A
:103C04005B00E3585201934200DA52E16E4B980094
:103C1400C0186D49000303F035FCAB005B19DB02EF
:103C24001B13C018E023DB01984200DD1800674B2A
:103C3400984200DA1800C3171F051B0DC5183F0D65
:103C44002D053F182D0D3F13ED1A03D580235B017D
:103C5400ED18013F6E007619B61230030C21804630
:103C640003F010FC5A4AB3009B5804900593802338
:103C74002D1A40465B01C0180C21039203F002FC8C
:103C840004990136411AE80303F0FCFB039AB600D9
:103C9400B358059A00219B1A5843C0138018002377
:103CA4004C4A03F0A5FC4904C00B0818002F00DAA5
:103CB40037E3B84080239B00E358002B05D0C21A99
:103CC400501201D100F03BFC1818802380229B0085
:103CD400E050079BD200934200DD13003E4A93421A
:103CE40000DA1300F8225200A2585B009B18F0225D
:103CF4001201934200DCE0E0130080215A46C9001F
:103D04008A4200DD0A0034498A4200DA0A00F621B8
:103D14004900615852005218F02109018A4200DC1E
:103D2400C1E00A008421890061580191832189003E
:103D34006158009101002000FEF7A6F9D4235B002E
:103D4400E35C002B00D045E1D02380221B06520007
:103D54005A61AA23FF33E35C002B00D040E1D02357
:103D640080221B0692005A61BC225200A2580123F1
:103D7400110019401A4200D01849194B194A1B68FE
:103D84004B401B041B0C1360BC225200A25802239C
:103D9400110019401A4200D01349114B114A1B68F3
:103DA4004B401B0C1B041360BC225200A2581DE0A4
:103DB4003B02000000F8FFFF0D6619005FF36E3C44
:103DC400FF070000C4F00020FF0F000000E0FFFF29
:103DD4002CE00020314D590000FCFFFFE0FF000003
:103DE40070000540701005400000E0FF042310003F
:103DF40018401A4200D0E248E249E34A0B684340C3
:103E04001B041B0C136084235B00E35C0B6896208B
:103E14001B0C1B041360D0235B00E258C000130387
:103E24009B1A1B031B0C5B43D84A1B0211681B0C17
:103E34004B401B04D6491B0C0B60CE235B00E4589B
:103E4400002384425B4180205B4280030340D148CD
:103E540012681B1853401B0C1B040B60FFF7BCFBC0
:103E6400D22040002258CC4DAA4200D9E8E20132C7
:103E74002250CE22C020D421962652004000A358BE
:103E8400255849000430615C2058F600B34200D242
:103E9400F5E2002900D07DE6AA23FF33E35C002B82
:103EA40000D184E676E6FF2A00DD3BE7802252005B
:103EB40038E7DA43D2171340A9E6FF2B00DD1CE7ED
:103EC40080235B0019E70123A354F623049A5B00C3
:103ED400E250FFF702F9FE225200A158683A9046D8
:103EE400A2588A1AD01712184240402A00DD94E0E2
:103EF400D52240465200A25C2150002A00D192E013
:103F0400C6225200A258C4204000215801319142D7
:103F140000D309E221502FE5039A022A25D0012A71
:103F240000D04FE48E2300229B00E2529B4BE254CC
:103F3400049A263BE7500433E250039A0433E650D4
:103F44003433E254683BE2588E239B00E35C002B3D
:103F540001D0FFF7A3F81700FFF7A3F80133A3502C
:103F64008F4A934200D0C3E4BCE4110094228D4DE7
:103F74009200A154625D912094468F229200A25C2B
:103F840080009046884AA15C0022225008302252C8
:103F94006246002A12D188229200A258BA1AD01777
:103FA400121842403F2A0CDDFA225200A258BA1AD3
:103FB400D01712184240602A03DC6355FA235B00D1
:103FC400E7504346002B00D13AE5FC23049A5B00FA
:103FD400E25043E5D02380221B0652009A61B8E6E2
:103FE400D02380221B0692009A61BDE6FE235B006B
:103FF400E1582C33E358F31AD8171B1843403F2BCE
:1040040000DC32E5731AD8171B184340602B00DD1F
:104014002BE50121644BE15423E5D5220020520015
:10402400A0544246A15080225201914200DBD9E1C2
:10403400CA43D2170A405D498A1A5243110B5C4A9B
:104044004A435C49120B5218C621490062505AE790
:10405400D82300215848FF33E154036857491B040F
:104064001B0C0B60036800201B0C1B040B6000235B
:10407400444DDB082968414009044348090C0160A8
:10408400002B00D115E12968424B4B401B0C1B044B
:1040940003603E483E4903681B041B0C0B60036825
:1040A4001B0C1B040B60F1235B00E15C002900D1B5
:1040B400F8E0E4230399FF33E55C002900D0AAE18A
:1040C400002D4AD0002A48D1EE225200A3583C4980
:1040D4008B4200D838E2F2267600A35D002B45D14E
:1040E4002000FEF7CDFE0123A355364B9222920009
:1040F400A3506B425D41344B6D421D402B4B2E4A05
:10410400ED186D4313682D126B402C491B041B0CD6
:104114000B6012682B045A40120C1A4812040A60ED
:10412400026819496A401204120C0A6002681748AE
:104134005A40120C12040A60026815496A401204BB
:10414400120C0A60026853401B0C1B040B6094237E
:10415400039A9B00E254FFF73FFAE4220123002173
:10416400FF32A3540132A154083AA35092239B0076
:10417400E358002BEBD0013BDD04ED0FB6E7C0465E
:10418400E0FF0000840005408410054098000540CD
:10419400981005400000E0FFFF7601003A0200009D
:1041A40000DC05003B0200003D020000FF0F0000A0
:1041B400A8DE0000B80B0000700005407010054038
:1041C400FFDB05007FBB000001F0FFFFE24BE35C77
:1041D400002B00D1E6E1E14BFB183E2B00D8A7E011
:1041E4008122DF4B9200FB18A350DA179B1853402F
:1041F40080225B005201934200DACFE18223D94A44
:104204009B00E250D84AA35C002B14D183239B006B
:10421400E5582433E358049FA946FB1AD9175B18C1
:104224004B403F2B0CDD7B1BD9175B184B40602B9D
:1042340006DC0123A354049A832391469B00E25095
:1042440090229200A35C002B13D184239B00E55899
:104254002433E358AA46F31AD9175B184B403F2B73
:1042640015DD731BD9175B184B40602B0FDC012342
:10427400A35484239B00E650283BE7580433E358B7
:10428400B2460493F8235B00E658FEF786FFF42356
:104294005B00E7580433E3580493F8235B00E658C3
:1042A400FEF77BFF039A002A00D150E70122E25473
:1042B4004DE72B681B0C1B040360EAE6022A00D0BE
:1042C40092E0C4235B00A94AE3589918A84A914292
:1042D40009D8C8225200A350043AA350D5238C3ADB
:1042E4005B00FF3AE254C42300225B00E2509422B4
:1042F40000239200A354043AA554974AA35290234E
:1043040000229B00E254143B049AE7500433E25029
:104314000433E650974BE35C002B01D1FEF72DFFED
:1043240070E77F42F840C5E400222250FEF7E7FF21
:10433400812200239200A3500432A35062E7B623E3
:1043440060215B00E2500433E2500433E15048330F
:10435400E2500833E2500833E2500833E252143B8F
:10436400E2500833E2500833E25001220633E254AB
:10437400FFF751F8E933FF33E2582C33E358FB1AC3
:10438400D9175B184B403F2B00DCDDE5BB1AD9176E
:104394005B184B40602B00DDD6E58E2301229B0089
:1043A400E254FEF77BFE8E2300229B00E252724B06
:1043B400E254049A263BE7500433E2500433E650B7
:1043C4003433E154683BE258BEE5AB1AD8171B18E6
:1043D4004340602B01DDFFF741FB8F2301229B004B
:1043E400E254F2E55F4A26E6002A01D1FEF7BBFE5D
:1043F400551E6B425D417AE70C210420FFF7A7F9B3
:104404000D210520D823FF33E1545C4B19685C4B24
:104414004B40FFF7A1F9002D00D198E6E2210022DC
:10442400FF316254E254073BE2500833E2548EE613
:104434002000FEF725FD0123A355524BFFF761FA37
:10444400CA20400022588A1AD51752196A40402AB5
:1044540018DCD5225200A25C2150002A17D0C622B3
:104464005200A258C420400021580131914224D264
:104474002150FEE4CE2301225B00E2500CE501331F
:10448400A35006E5D52200255200A55421508022D0
:10449400520191420DDB3349324A521A5243110BF5
:1044A400394A4A433949120B5218C621490062500D
:1044B400D8E7CA43D2171140EEE700222250FFF793
:1044C400EEFA01229D33FF33E2509832FF32A358B3
:1044D4000133A350FFF76BFBD823FF33E754274B7B
:1044E4002B491B681B041B0C0B6008230021FFF7DE
:1044F4008FF90921012085E70A210220D823FF33FF
:10450400E1541E4B1B6822491B041B0C0B60214900
:10451400FFF727F90B210320D823FF33E154174B6E
:104524001968174B4B40EEE70E210620E6E70F21F2
:104534000720F1E7511E8A41D518FEF79FFE511E50
:104544008A41D018FFF7C1FB0133A350124A9342AA
:1045540000D00BE6BFE5C0463E0200001FF8FFFF97
:1045640000F8FFFFFF0F00003F0200009FF6FFFF6F
:104574009E6D01004F0200003A02000070000540E9
:10458400E0FF00007FBB0000A8DE0000B80B0000C5
:10459400701005400000E0FF00DC0500822292005C
:1045A400A3502FE68B239B00E358FB1ADA179B18C2
:1045B40053403F2B00DC25E6812380229B00E358F7
:1045C40012019B188022520193420BDB074BFB1A0A
:1045D400DA179B185340602B00DD13E60122044BCD
:1045E400E254F8E5DA43D2171340F0E7FF0F000076
:1045F4003E020000024B1A78002A00D1187070475E
:1046040094120120034B1A78824201D100221A70BD
:104614007047C04694120120F0B5DE4657464E4618
:104624004546E0B5434A444C1278A544824232D10F
:10463400002930D0002214A9DC27CA7116AA924698
:104644003E4DFF00019014A9802352460198073182
:1046540001F018FB00281ED0394B504456468046C2
:104664009946384C07E0511C29513749AA1853542C
:104674000136B045E7D03378F02B14D0EA5D002A38
:1046840016D0F72B00D16DE02A596F2AEBD90123FC
:104694004A46AB54ECE72D4B9D44F0BCBB46B246B6
:1046A400A946A046F0BD00232B510133EB53DFE7AD
:1046B400F72BDDD859B2002901DA00F068FD244A4D
:1046C400A85C0F2201009143029101001032039073
:1046D4009143802902D0029AE02AC9D195229200FE
:1046E40094466046AA5C511CC9B229541948AA18B8
:1046F40013540129BCD900236246AB54164B0399C9
:10470400EA5C0F230B409342B2D1029B2A5C902BAC
:1047140001D100F043FD802B01D100F043FD0F4B8C
:10472400EB5CDB0113430E4A9B1897229200AB50BB
:104734009EE7C046941201208CF9FFFF70FA002016
:10474400E1060000DC0600006C06000074060000B0
:1047540051020000520200006202000053020000F5
:1047640000E0FFFF0023EB554B46EB5C002B00D031
:104774007EE7F04BEB58052B00D879E7EE49EF4A7A
:104784006958914200D073E7CE22D200AA5C332A42
:1047940000D06DE7EA4AAA5C9346033A012A01D89D
:1047A40000F018FD5A46013A012A00D960E7672B48
:1047B40000D05DE7E34BFE22EB5C36A912930023A5
:1047C4004B80E14B9201EB5CDB011340DF4AA85CB8
:1047D4007F220240134380225201934200DBDC4BD0
:1047E4009BB20B93DB4BFE20EA5CFE23D2019B01C0
:1047F4001A40D94B4003EB5C9B0303401343D74A55
:10480400A85C7F2202401343D54A0393934201D804
:1048140000F02FFD03920B9BD24A0B80039B4B604D
:10482400A85CFE22C00192011040D122D200AB5CF0
:104834007F221A40024380204001824200DBC44AA6
:1048440093B2C94A0C93A85CFE22FE239201C001D4
:104854001040C64A5B03AA5C92031A400243C44850
:104864002B5C7F201840024310000492BC4A904203
:1048740001D800F01EFD049200220C9B4A810B819A
:10488400049BBC4ACB60A85CFE22C001920110408C
:10489400B94AAB5C7F221A40024380204001824225
:1048A40000DBAB4A93B2D2220D93D200A85CFE2265
:1048B400FE239201C0011040B04A5B03AA5C92033C
:1048C4001A400243AE482B5C7F201840024310007C
:1048D4000592A34A904201D800F0E3FC059200221D
:1048E4000D9B4A820B82059BA64A4B61A85CFE2263
:1048F400C00192011040A44AAB5C7F221A400243DB
:1049040080204001824200DB914A93B29F4A0E9379
:10491400A85CFE22FE239201C00110409C4A5B0366
:10492400AA5C92031A4002439A482B5C7F201840E9
:104934000243100006928A4A904201D800F0A9FC72
:10494400069200224A83D3220E9BD2000B83069B3D
:10495400CB61A85CFE22C001920110408E4AAB5C80
:104964007F221A40024380204001824200DB784AC1
:1049740093B28A4A0F93A85CFE22FE239201C001DF
:104984001040874A5B03AA5C92031A40024385489D
:104994002B5C7F201840024310000792704A90421B
:1049A40001D800F06EFC079200220F9B4A840B840E
:1049B400079B7D4A4B62A85CFE22C0019201104015
:1049C4007A4AAB5C7F221A40024380204001824233
:1049D40000DB5F4A93B2764A1093A85CFE22C001C2
:1049E40092011040D422FE23D200AA5C5B039203FE
:1049F4001A4002436F482B5C7F201840024310008A
:104A04000892574A904201D800F084FC0892002290
:104A1400109B4A850B85089B674ACB62A85CFE22E3
:104A2400C00192011040654AAB5C7F221A400243E8
:104A340080204001824200DB454A93B2604A1193D0
:104A4400A85CFE22FE239201C00110405D4A5B0374
:104A5400AA5C92031A4002435B482B5C7F201840F7
:104A64000243100009923E4A904201D800F04AFCE9
:104A740009920022119B4A860B86099B534A4B6379
:104A8400A85CFE22C00192011040514AAB5C7F2217
:104A94001A40024380204001824200DB2C4A0A92E1
:104AA4004C4AFE23A85CFE22C001920110404A4AEF
:104AB4005B03AA5C92031A400243D520C0002B5C1E
:104AC4007F201840024310000292254A904201D8E8
:104AD40000F010FC029200220A9B4A870B87029B7B
:104AE4003E4ACB63A85CFE22C001920110403C4ABE
:104AF400AB5C7F221A40024380204001824200DBEB
:104B0400134AFE20FE231392364A4003AA5C9B01FB
:104B1400920302403448285CC00118401043334AD1
:104B2400AB5C7F221A4002430D48824200D8DCE38A
:104B340002005DE0DC0600006C0600007D43315A93
:104B4400710600007206000084060000830600005F
:104B5400FF0F00008606000087060000850600009F
:104B640000EE0200890600008B0600008C0600009F
:104B74008A0600008E0600008D06000091060000E3
:104B84008F060000930600009206000095060000C0
:104B94009606000094060000970600009A0600009E
:104BA4009B060000990600009D0600009C0600007C
:104BB4009F0600009E060000A2060000A106000059
:104BC400A4060000A5060000A3060000A706000036
:104BD400A6060000A9060000AA060000AC06000014
:104BE400AB060000AF060000AE060000AD060000F4
:104BF400422000230B52139B4A640238ED4A0B52A5
:104C0400A85CFE22C00192011040D622D200AB5C07
:104C14007F221A40024380204001824200DBE64AA0
:104C2400FE20FE231392E54A4003AA5C9B019203F3
:104C34000240E348285CC00118401043E14AAB5CE1
:104C44007F221A400243E048824200D848E302002F
:104C54004A2000230B52139BCA640238DB4A0B52CE
:104C6400A85CFE22C00192011040D94AAB5C7F22AD
:104C74001A40024380204001824200DBCE4AFE20DB
:104C84001392D44A4003AA5CFE2392030240D72025
:104C9400C000285C9B01C00118401043CE4AAB5CA5
:104CA4007F221A400243C848824200D813E302001C
:104CB400522000230B52139B4A650238C74A0B52F9
:104CC400A85CFE22C00192011040C54AAB5C7F2261
:104CD4001A40024380204001824200DBB64AFE2093
:104CE400FE231392BF4A4003AA5C9B019203024035
:104CF400BD48285CC00118401043BC4AAB5C7F220D
:104D04001A400243B048824200D8DFE202005A202F
:104D14000023CA65D8220B52139B02380B52D200CF
:104D2400A85CFE22C00192011040B14AAB5C7F2214
:104D34001A40024380204001824200DB9E4AFE204A
:104D4400FE231392AB4A4003AA5C9B0192030240E8
:104D5400A948285CC00118401043A84AAB5C7F22D4
:104D64001A4002439848824200D8AAE20200622014
:104D740000230B52139B4A660238A14A0B52A85CCB
:104D8400FE22C001920110409E4AAB5C7F221A4071
:104D9400024380204001824200DB874AFE201392B6
:104DA400994A8001AA5CFE23D2010240D920C000A6
:104DB400285C5B03800318401043944AAB5C7F2259
:104DC4001A4002438048824200D84DE202006A2021
:104DD40000230B52139BCA6602388D4A0B52A85CFF
:104DE400FE22C001920110408A4AAB5C7F221A4025
:104DF400024380204001824200DB6F4AFE20FE23F2
:104E04001392854A8001AA5C5B03D2010240834865
:104E1400285C800318401043814AAB5C7F221A400F
:104E240002436948824200D819E20200722000233A
:104E34000B52139B4A6702387A4A0B52A85CFE2233
:104E4400C00192011040784AAB5C7F221A400243B1
:104E540080204001824200DB574AFE20FE23139249
:104E6400724A8001AA5C5B03D20102407048285C4C
:104E7400800318401043DA22D200AB5C7F221A4030
:104E840002435148824200D8E4E102007A20002320
:104E94000B52139B02380B520B9B0C98CA671A1CBB
:104EA400834200D2021C0D9B90B2984200D21A1C7D
:104EB4000E9B90B2984200D21A1C0F9B90B298425B
:104EC40000D21A1C109B90B2984200D21A1C119B5B
:104ED40090B2984200D21A1C0A9B13439AB2002A39
:104EE40001D1FFF7C5FB049B059A9C46039B6344D1
:104EF4009B18069A9B18079A9B18089A9B18099A5C
:104F04009B18029A9B18F0229200934201D2FFF759
:104F1400AFFB0723129A1A409923D0019B0028184B
:104F24000292C018802202F0DFFC0299414A6B18F9
:104F34009B1801221A700B00D8220933FF32AB549C
:104F4400EB2300225B00EA545B46022B01D0FFF7FF
:104F54008FFB97AB00211800374A9B4602F0BEFC3A
:104F6400364B9BA89793364B9893364BEA5C0423B5
:104F740052421340344AAA5C520013432D4AAA5C9D
:104F84001343324AA95C082249420A401343CD2202
:104F9400D200A95C102249420A4013432C4AA95C5E
:104FA400202249420A4013432A4AA95C402249422A
:104FB4000A4051E0B1060000FF0F0000B4060000F3
:104FC400B3060000B206000000EE0200B6060000C0
:104FD400B5060000B9060000B7060000BB060000D5
:104FE400BA060000BE060000BD060000BC060000B4
:104FF400BF060000C3060000C2060000C106000090
:10500400C5060000C4060000C7060000C60600006E
:10501400CA060000C9060000CC060000CD06000048
:10502400CB060000CF060000CE060000D10600002B
:10503400D206000064060000140400004E4531430B
:1050440001001404660600006506000067060000FF
:10505400690600006A0600007F211343DA4AAA5C4D
:1050640052428A4313435A46DBB213720293992382
:105074009B00E918802202F037FCB9239B00E91851
:105084008022BBA802F030FCD9239B00E9188022BF
:10509400DBA802F029FCF9239B00E9188022FBA875
:1050A40002F022FCC94BFFA8E9188022703002F0FC
:1050B4001BFCC74BFFA8E9188022F03002F014FC57
:1050C400C44BC548E91814AB8022C01802F00CFC8C
:1050D400C24BC348E91814AB8022C01802F004FC88
:1050E4005946C04814ABC04AC0180B7801315A4025
:1050F40013049B185B009B18DB009B18DB009B18B8
:105104005B009A188842F0D182235946DB00CA50CA
:10511400B649B74A0868904200D11DE1EFF3108305
:1051240072B68021FF2049014003039307F0F6FF84
:105134005B46B04A93464246B0465E1E2B005D462F
:105144009B4602928022FF21520056A802F0C6FB21
:105154000222FF320123944608E014A8F25C0830CE
:10516400FF30C2540133634500D1E1E09D42F4D1E4
:105174008022029BA048520056A946465D469846A6
:1051840008F014F8039B83F31088FFF771FA9B4926
:105194006B5495239B00EA54FFF76AFA984BEB5C37
:1051A400002B4AD196239B00EB5C934201D0FFF77E
:1051B4005FFAD823FF33EB5C002B00D1B2E0EB2382
:1051C4005B00EB5C002B00D1ACE001228D4BEA5478
:1051D400FFF74EFA0B2B01D0FFF74AFAFE228A4B57
:1051E4009201EB5CDB011340884AA95C7F220A40F0
:1051F40013438022520193422ADA0F21FE20844A6B
:105204008001AA5C1140834AAA5CD2010240824810
:105214009346285C02007F2010405A4602438020B7
:105224004001824212DA832080002A5084229200B4
:10523400AB507A4BE954FFF71BFA79496A54794A1F
:10524400AB540122784BEA54FFF712FA774AEAE7A3
:10525400764BD2E7002A00D018E6013216E6002A7F
:1052640000D0E3E50132E1E5002A00D0AFE50132E8
:10527400ADE5002B01D0FFF7CEFA01330393FFF71E
:10528400CAFA031E01D0FFF78FFB01330793FFF720
:105294008BFB031E01D0FFF754FB01330693FFF78A
:1052A40050FB031E01D0FFF71AFB01330593FFF7F0
:1052B40016FB031E01D0FFF7DFFA01330493FFF757
:1052C400DBFA002A00D052E5013250E5002A00D072
:1052D4001DE501321BE5002A00D0E9E40132E7E4D0
:1052E400002A00D0B4E40132B2E4002A00D07FE402
:1052F40001327DE4031E01D0FFF7EDFB013302937D
:10530400FFF7E9FB031E01D0FFF7B3FB0133099359
:10531400FFF7AFFB031E01D0FFF779FB01330893BE
:10532400FFF775FB982300229B00EA54FFF7A0F9CE
:1053340080223F485200401B013D56A9FF3D07F023
:1053440035FF2B000136FF36EB3300D0FAE6029B23
:1053540046465D46984615E78A88012A00D0DDE670
:10536400344AC888904200D0D8E6C858324B1E4A06
:105374009C460B7801315A4013049B185B009B1820
:10538400DB009B18DB009B185B009A186145F0D189
:10539400904200D0C2E6154B029A1B7A934200D089
:1053A400BCE6264914AA8918AC46254B224A02E0D9
:1053B4000133934205D0CD5C18788542F8D0654618
:1053C400ACE66546FFF754F96B0600006404000080
:1053D400E4040000640500001C050000E40500006E
:1053E4009C0500001C060000C59D1C8100E01F10E8
:1053F4004E4531431504000000E41F005102000033
:1054040053020000610200007506000074060000EB
:1054140076060000730600007206000062020000B7
:10542400550200005602000057020000FF0F000062
:1054340015E41F001404000010E41F100C22E0EF18
:1054440010E01F107047C04610B5054802F04CFC30
:105454000448054B186007F04BF9002010BDC04606
:105464001502002070FA0020D8040120F0B5C646C9
:10547400994C00B52000FCF7E7FB984B002523600E
:10548400B6235B00E5500433E550954A0433E550F8
:105494000433E250C6220433E5500433E5500433A8
:1054A400E5500433E5508F4B5200A3500432A3500F
:1054B400802396211B010432A3500432A550C90055
:1054C4000432A15010210432A15087490432A15062
:1054D400D4210022D6204900655202316254AA39EF
:1054E400FF39400021500430255004302550043049
:1054F4002550043025500430255004302550043004
:10550400255004302550794E04302550043026505F
:10551400FC26043025500430255004302550043036
:1055240022540430235004302550043025500430D4
:1055340023506F487600A0510436A3510436A55178
:105544000436A5510436A5510436A5510436A55197
:105554000436A3510436A5510436A5510436A3518B
:105564000436A0518A2080002350043023508C2319
:105574009B00E5505F480433E5500433E0500220BB
:105584000433FF30E0500433E2540433E550043371
:10559400E5500433E5500433E1500433E254564BF0
:1055A4003B31E154554B2831E154554B5549E254B4
:1055B4000133E1520433E5500433E552524B0021E8
:1055C400E25480220233E018D20002F087F94F4BF4
:1055D40008220021E01802F081F94D4B70220021CD
:1055E400E01802F07BF94B4B4B49E5500433E5528C
:1055F4000A684A4B9A4207D049494A4B0A689A4278
:1056040033D080BCB846F0BD8B88022BF4D1CB8854
:10561400202BF1D1CD69444A44480B7801315A40DA
:1056240013049B185B009B18DB009B18DB009B1882
:105634005B009A188142F0D19542DDD18122364B2C
:1056440092009968A1508022DB68520193423EDBAC
:10565400274B82229200A3502F4B1B7E082B00D98C
:105664000023D822FF32A354C6E78B88012BC8D16C
:105674002F4BCA889A42C4D1043BCC582A4A2D489D
:105684000B7801315A4013049B185B009B18DB0014
:105694009B18DB009B185B009A188142F0D194425E
:1056A400AFD1254B002498460125244F1C4E244B92
:1056B400E10180227818C91802F016F9337A4246BB
:1056C400E3402B4013550134082CF0D199E7DA4319
:1056D400D2171340BDE7C04670FA002028E000202E
:1056E400E1AC0000E02E0000007701000808000093
:1056F400FF0F0000010101015502000056020000E5
:10570400570200003C6400006202000064060000CE
:105714006C060000DC06000000F01F10335A314311
:1057240000E01F104E453143C59D1C811CF01F1025
:105734001404000010E41F10D4000120D4FC002045
:1057440010E01F10004870471CEF0020004870470D
:10575400B4EE002070B5002826D0032833D81B4BA4
:105764008000C458200006F049FEC3B2181C1F2B49
:1057740018D8C021C0B2421CD2B2520089001143D1
:105784000D00002B1CD0124B9C469A1C0023E15C9C
:1057940001331180D9B202328842F8D86346604698
:1057A4001D8070BD1F20E4E70A48C1250400074B93
:1057B4000222196802F098F8A31E9C46AD00EDE79A
:1057C400034B9C46EAE70020EBE7C046CCF0002000
:1057D400EC0B0120EE0B012070B5164C82B02000BA
:1057E40003F0F4FF002805D02500D9232C3DEE5CFE
:1057F400002E02D0002002B070BD0120E97805F02F
:10580400DFFD0028F6D020000B49EA8804F060F898
:10581400E978041E0AD00300074A01200196009685
:1058240005F01EFE0028E5D02000E4E7012005F085
:10583400EFFDDFE774F80020A0F80020F0B5244C59
:1058440085B0DC220021200002F048F8214E3568A2
:10585400280001F0EBFF20640700706801F0E6FF08
:1058640003906064337A01215800C018400001F0AD
:10587400FBFFE060002F26D0039B002B25D00028DF
:105884001FD0AAB22000002501233900183000954A
:1058940003F066FFB28820002600616C01234836BD
:1058A4002C30009503F05CFF300000F0ABFEA662E4
:1058B400260050363000656200F0A4FE0120A66385
:1058C400E56305B0F0BD3800FBE71800F9E7C04612
:1058D40048F80020E0F0002010B50E4C206C0028A1
:1058E40003D001F0E3FF00232364606C00280CD094
:1058F40001F0DCFF0023E0686364002803D001F0BA
:10590400D5FF0023E360012010BDE0680028F6D134
:10591400F9E7C04648F80020F0B51C0083B0012820
:105924002AD1D923334DEA54002A25D1AB788B42AE
:1059340025D0EB788B4248D001201EE028002C3083
:1059440003F044FF002844D1002C42D02000E98811
:1059540001F0C0FD0C1E3CD10120E97805F030FDBA
:10596400002836D0E9782300220001200194009415
:1059740005F076FDA0422CD1002003B0F0BD002C30
:1059840019D0A40817D02634A4002E192C000027FF
:10599400983402E00434A64209D02368002BF9D0DD
:1059A40004222100144804F09BF80137F2E7134B5A
:1059B400002B16D1A97800242A00AB8828789832C5
:1059C4000194009405F04CFDD7E7FFF705FF00288C
:1059D400B4D00B4B002BAFD00120FFF733FD0120D7
:1059E400CBE7002FE6D039000120FEF715FEA97899
:1059F400E1E7C04648F8002060F800202944002070
:105A04005552002070B5012824D1134B002B02D02D
:105A14000021FEF7F7FD114C200004F015F92000D9
:105A24002500143004F010F9002300222000183D52
:105A34006B602B81FF332B60273BEA540021062245
:105A4400083801F04BFF064B00211A7AE8689200EF
:105A540001F044FF70BDC0461544002060F80020EA
:105A6400E0F00020F8B5DE4657464E464546E0B520
:105A7400012906D1D92100206A4C605451790129A9
:105A840006D00020F0BCBB46B246A946A046F8BDED
:105A94009079002101286BD00328F2D11578501990
:105AA4004678B446242676426644012E00D87FE028
:105AB4006646052EE5D19278691889B262708B42E8
:105AC40000D8A0E0584A15685268A94690460022BA
